{
  "contractName": "LavaLamp",
  "abi": [
    {
      "inputs": [],
      "stateMutability": "nonpayable",
      "type": "constructor"
    },
    {
      "anonymous": false,
      "inputs": [
        {
          "indexed": true,
          "internalType": "address",
          "name": "owner",
          "type": "address"
        },
        {
          "indexed": true,
          "internalType": "address",
          "name": "approved",
          "type": "address"
        },
        {
          "indexed": true,
          "internalType": "uint256",
          "name": "tokenId",
          "type": "uint256"
        }
      ],
      "name": "Approval",
      "type": "event"
    },
    {
      "anonymous": false,
      "inputs": [
        {
          "indexed": true,
          "internalType": "address",
          "name": "owner",
          "type": "address"
        },
        {
          "indexed": true,
          "internalType": "address",
          "name": "operator",
          "type": "address"
        },
        {
          "indexed": false,
          "internalType": "bool",
          "name": "approved",
          "type": "bool"
        }
      ],
      "name": "ApprovalForAll",
      "type": "event"
    },
    {
      "anonymous": false,
      "inputs": [
        {
          "indexed": true,
          "internalType": "address",
          "name": "previousOwner",
          "type": "address"
        },
        {
          "indexed": true,
          "internalType": "address",
          "name": "newOwner",
          "type": "address"
        }
      ],
      "name": "OwnershipTransferred",
      "type": "event"
    },
    {
      "anonymous": false,
      "inputs": [
        {
          "indexed": true,
          "internalType": "address",
          "name": "from",
          "type": "address"
        },
        {
          "indexed": true,
          "internalType": "address",
          "name": "to",
          "type": "address"
        },
        {
          "indexed": true,
          "internalType": "uint256",
          "name": "tokenId",
          "type": "uint256"
        }
      ],
      "name": "Transfer",
      "type": "event"
    },
    {
      "inputs": [
        {
          "internalType": "address",
          "name": "to",
          "type": "address"
        },
        {
          "internalType": "uint256",
          "name": "tokenId",
          "type": "uint256"
        }
      ],
      "name": "approve",
      "outputs": [],
      "stateMutability": "nonpayable",
      "type": "function"
    },
    {
      "inputs": [
        {
          "internalType": "address",
          "name": "owner",
          "type": "address"
        }
      ],
      "name": "balanceOf",
      "outputs": [
        {
          "internalType": "uint256",
          "name": "",
          "type": "uint256"
        }
      ],
      "stateMutability": "view",
      "type": "function",
      "constant": true
    },
    {
      "inputs": [],
      "name": "burnCount",
      "outputs": [
        {
          "internalType": "uint256",
          "name": "",
          "type": "uint256"
        }
      ],
      "stateMutability": "view",
      "type": "function",
      "constant": true
    },
    {
      "inputs": [
        {
          "internalType": "uint256",
          "name": "tokenId",
          "type": "uint256"
        }
      ],
      "name": "getApproved",
      "outputs": [
        {
          "internalType": "address",
          "name": "",
          "type": "address"
        }
      ],
      "stateMutability": "view",
      "type": "function",
      "constant": true
    },
    {
      "inputs": [
        {
          "internalType": "address",
          "name": "owner",
          "type": "address"
        },
        {
          "internalType": "address",
          "name": "operator",
          "type": "address"
        }
      ],
      "name": "isApprovedForAll",
      "outputs": [
        {
          "internalType": "bool",
          "name": "",
          "type": "bool"
        }
      ],
      "stateMutability": "view",
      "type": "function",
      "constant": true
    },
    {
      "inputs": [],
      "name": "lampsMinted",
      "outputs": [
        {
          "internalType": "uint256",
          "name": "",
          "type": "uint256"
        }
      ],
      "stateMutability": "view",
      "type": "function",
      "constant": true
    },
    {
      "inputs": [],
      "name": "name",
      "outputs": [
        {
          "internalType": "string",
          "name": "",
          "type": "string"
        }
      ],
      "stateMutability": "view",
      "type": "function",
      "constant": true
    },
    {
      "inputs": [],
      "name": "owner",
      "outputs": [
        {
          "internalType": "address",
          "name": "",
          "type": "address"
        }
      ],
      "stateMutability": "view",
      "type": "function",
      "constant": true
    },
    {
      "inputs": [
        {
          "internalType": "uint256",
          "name": "tokenId",
          "type": "uint256"
        }
      ],
      "name": "ownerOf",
      "outputs": [
        {
          "internalType": "address",
          "name": "",
          "type": "address"
        }
      ],
      "stateMutability": "view",
      "type": "function",
      "constant": true
    },
    {
      "inputs": [],
      "name": "provenance",
      "outputs": [
        {
          "internalType": "string",
          "name": "",
          "type": "string"
        }
      ],
      "stateMutability": "view",
      "type": "function",
      "constant": true
    },
    {
      "inputs": [],
      "name": "renounceOwnership",
      "outputs": [],
      "stateMutability": "nonpayable",
      "type": "function"
    },
    {
      "inputs": [
        {
          "internalType": "address",
          "name": "from",
          "type": "address"
        },
        {
          "internalType": "address",
          "name": "to",
          "type": "address"
        },
        {
          "internalType": "uint256",
          "name": "tokenId",
          "type": "uint256"
        }
      ],
      "name": "safeTransferFrom",
      "outputs": [],
      "stateMutability": "nonpayable",
      "type": "function"
    },
    {
      "inputs": [
        {
          "internalType": "address",
          "name": "from",
          "type": "address"
        },
        {
          "internalType": "address",
          "name": "to",
          "type": "address"
        },
        {
          "internalType": "uint256",
          "name": "tokenId",
          "type": "uint256"
        },
        {
          "internalType": "bytes",
          "name": "_data",
          "type": "bytes"
        }
      ],
      "name": "safeTransferFrom",
      "outputs": [],
      "stateMutability": "nonpayable",
      "type": "function"
    },
    {
      "inputs": [
        {
          "internalType": "address",
          "name": "operator",
          "type": "address"
        },
        {
          "internalType": "bool",
          "name": "approved",
          "type": "bool"
        }
      ],
      "name": "setApprovalForAll",
      "outputs": [],
      "stateMutability": "nonpayable",
      "type": "function"
    },
    {
      "inputs": [
        {
          "internalType": "bytes4",
          "name": "interfaceId",
          "type": "bytes4"
        }
      ],
      "name": "supportsInterface",
      "outputs": [
        {
          "internalType": "bool",
          "name": "",
          "type": "bool"
        }
      ],
      "stateMutability": "view",
      "type": "function",
      "constant": true
    },
    {
      "inputs": [],
      "name": "symbol",
      "outputs": [
        {
          "internalType": "string",
          "name": "",
          "type": "string"
        }
      ],
      "stateMutability": "view",
      "type": "function",
      "constant": true
    },
    {
      "inputs": [
        {
          "internalType": "address",
          "name": "from",
          "type": "address"
        },
        {
          "internalType": "address",
          "name": "to",
          "type": "address"
        },
        {
          "internalType": "uint256",
          "name": "tokenId",
          "type": "uint256"
        }
      ],
      "name": "transferFrom",
      "outputs": [],
      "stateMutability": "nonpayable",
      "type": "function"
    },
    {
      "inputs": [
        {
          "internalType": "address",
          "name": "newOwner",
          "type": "address"
        }
      ],
      "name": "transferOwnership",
      "outputs": [],
      "stateMutability": "nonpayable",
      "type": "function"
    },
    {
      "inputs": [
        {
          "internalType": "string",
          "name": "baseURI",
          "type": "string"
        }
      ],
      "name": "setBaseURI",
      "outputs": [],
      "stateMutability": "nonpayable",
      "type": "function"
    },
    {
      "inputs": [
        {
          "internalType": "uint256",
          "name": "mintAmount",
          "type": "uint256"
        }
      ],
      "name": "mint",
      "outputs": [],
      "stateMutability": "payable",
      "type": "function",
      "payable": true
    },
    {
      "inputs": [],
      "name": "withdraw",
      "outputs": [],
      "stateMutability": "payable",
      "type": "function",
      "payable": true
    },
    {
      "inputs": [
        {
          "internalType": "uint256",
          "name": "tokenId",
          "type": "uint256"
        }
      ],
      "name": "tokenURI",
      "outputs": [
        {
          "internalType": "string",
          "name": "",
          "type": "string"
        }
      ],
      "stateMutability": "view",
      "type": "function",
      "constant": true
    },
    {
      "inputs": [
        {
          "internalType": "uint256",
          "name": "tokenId",
          "type": "uint256"
        }
      ],
      "name": "burn",
      "outputs": [],
      "stateMutability": "nonpayable",
      "type": "function"
    },
    {
      "inputs": [],
      "name": "totalSupply",
      "outputs": [
        {
          "internalType": "uint256",
          "name": "",
          "type": "uint256"
        }
      ],
      "stateMutability": "view",
      "type": "function",
      "constant": true
    },
    {
      "inputs": [
        {
          "internalType": "address",
          "name": "owner",
          "type": "address"
        }
      ],
      "name": "getTokensOwnedBy",
      "outputs": [
        {
          "internalType": "bool[]",
          "name": "",
          "type": "bool[]"
        }
      ],
      "stateMutability": "view",
      "type": "function",
      "constant": true
    }
  ],
  "bytecode": "0x608060405260405180606001604052806040815260200162004671604091396008908051906020019062000035929190620008a9565b50666a94d74f430000600955611f2c600a556014600b556000600c556000600d553480156200006357600080fd5b506040518060400160405280600881526020017f4c6176614c616d700000000000000000000000000000000000000000000000008152506040518060400160405280600881526020017f4c4156414c414d50000000000000000000000000000000000000000000000000815250620000f0620000e46200016660201b60201c565b6200016e60201b60201c565b816001908051906020019062000108929190620008a9565b50806002908051906020019062000121929190620008a9565b5050506200014e604051806060016040528060368152602001620046b1603691396200023260201b60201c565b62000160600a620002dd60201b60201c565b62000ee4565b600033905090565b60008060009054906101000a900473ffffffffffffffffffffffffffffffffffffffff169050816000806101000a81548173ffffffffffffffffffffffffffffffffffffffff021916908373ffffffffffffffffffffffffffffffffffffffff1602179055508173ffffffffffffffffffffffffffffffffffffffff168173ffffffffffffffffffffffffffffffffffffffff167f8be0079c531659141344cd1fd0a4f28419497f9722a3daafe3b4186f6b6457e060405160405180910390a35050565b620002426200016660201b60201c565b73ffffffffffffffffffffffffffffffffffffffff1662000268620003d860201b60201c565b73ffffffffffffffffffffffffffffffffffffffff1614620002c1576040517f08c379a0000000000000000000000000000000000000000000000000000000008152600401620002b890620009ba565b60405180910390fd5b8060079080519060200190620002d9929190620008a9565b5050565b60008111620002eb57600080fd5b600b54811115620002fb57600080fd5b600a5481600d546200030e919062000a15565b11156200031a57600080fd5b6000816009546200032c919062000a72565b90506200033e620003d860201b60201c565b73ffffffffffffffffffffffffffffffffffffffff163373ffffffffffffffffffffffffffffffffffffffff16146200038057803410156200037f57600080fd5b5b6000600190505b828111620003d357620003a333600d546200040160201b60201c565b600d6000815480929190620003b89062000ad3565b91905055508080620003ca9062000ad3565b91505062000387565b505050565b60008060009054906101000a900473ffffffffffffffffffffffffffffffffffffffff16905090565b620004238282604051806020016040528060008152506200042760201b60201c565b5050565b6200043983836200049560201b60201c565b6200044e60008484846200067b60201b60201c565b62000490576040517f08c379a0000000000000000000000000000000000000000000000000000000008152600401620004879062000b97565b60405180910390fd5b505050565b600073ffffffffffffffffffffffffffffffffffffffff168273ffffffffffffffffffffffffffffffffffffffff16141562000508576040517f08c379a0000000000000000000000000000000000000000000000000000000008152600401620004ff9062000c09565b60405180910390fd5b62000519816200082560201b60201c565b156200055c576040517f08c379a0000000000000000000000000000000000000000000000000000000008152600401620005539062000c7b565b60405180910390fd5b62000570600083836200089160201b60201c565b6001600460008473ffffffffffffffffffffffffffffffffffffffff1673ffffffffffffffffffffffffffffffffffffffff1681526020019081526020016000206000828254620005c2919062000a15565b92505081905550816003600083815260200190815260200160002060006101000a81548173ffffffffffffffffffffffffffffffffffffffff021916908373ffffffffffffffffffffffffffffffffffffffff160217905550808273ffffffffffffffffffffffffffffffffffffffff16600073ffffffffffffffffffffffffffffffffffffffff167fddf252ad1be2c89b69c2b068fc378daa952ba7f163c4a11628f55a4df523b3ef60405160405180910390a45050565b6000620006a98473ffffffffffffffffffffffffffffffffffffffff166200089660201b620014c41760201c565b1562000818578373ffffffffffffffffffffffffffffffffffffffff1663150b7a02620006db6200016660201b60201c565b8786866040518563ffffffff1660e01b8152600401620006ff949392919062000d97565b6020604051808303816000875af19250505080156200073e57506040513d601f19601f820116820180604052508101906200073b919062000e4d565b60015b620007c7573d806000811462000771576040519150601f19603f3d011682016040523d82523d6000602084013e62000776565b606091505b50600081511415620007bf576040517f08c379a0000000000000000000000000000000000000000000000000000000008152600401620007b69062000b97565b60405180910390fd5b805181602001fd5b63150b7a0260e01b7bffffffffffffffffffffffffffffffffffffffffffffffffffffffff1916817bffffffffffffffffffffffffffffffffffffffffffffffffffffffff1916149150506200081d565b600190505b949350505050565b60008073ffffffffffffffffffffffffffffffffffffffff166003600084815260200190815260200160002060009054906101000a900473ffffffffffffffffffffffffffffffffffffffff1673ffffffffffffffffffffffffffffffffffffffff1614159050919050565b505050565b600080823b905060008111915050919050565b828054620008b79062000eae565b90600052602060002090601f016020900481019282620008db576000855562000927565b82601f10620008f657805160ff191683800117855562000927565b8280016001018555821562000927579182015b828111156200092657825182559160200191906001019062000909565b5b5090506200093691906200093a565b5090565b5b80821115620009555760008160009055506001016200093b565b5090565b600082825260208201905092915050565b7f4f776e61626c653a2063616c6c6572206973206e6f7420746865206f776e6572600082015250565b6000620009a260208362000959565b9150620009af826200096a565b602082019050919050565b60006020820190508181036000830152620009d58162000993565b9050919050565b6000819050919050565b7f4e487b7100000000000000000000000000000000000000000000000000000000600052601160045260246000fd5b600062000a2282620009dc565b915062000a2f83620009dc565b9250827fffffffffffffffffffffffffffffffffffffffffffffffffffffffffffffffff0382111562000a675762000a66620009e6565b5b828201905092915050565b600062000a7f82620009dc565b915062000a8c83620009dc565b9250817fffffffffffffffffffffffffffffffffffffffffffffffffffffffffffffffff048311821515161562000ac85762000ac7620009e6565b5b828202905092915050565b600062000ae082620009dc565b91507fffffffffffffffffffffffffffffffffffffffffffffffffffffffffffffffff82141562000b165762000b15620009e6565b5b600182019050919050565b7f4552433732313a207472616e7366657220746f206e6f6e20455243373231526560008201527f63656976657220696d706c656d656e7465720000000000000000000000000000602082015250565b600062000b7f60328362000959565b915062000b8c8262000b21565b604082019050919050565b6000602082019050818103600083015262000bb28162000b70565b9050919050565b7f4552433732313a206d696e7420746f20746865207a65726f2061646472657373600082015250565b600062000bf160208362000959565b915062000bfe8262000bb9565b602082019050919050565b6000602082019050818103600083015262000c248162000be2565b9050919050565b7f4552433732313a20746f6b656e20616c7265616479206d696e74656400000000600082015250565b600062000c63601c8362000959565b915062000c708262000c2b565b602082019050919050565b6000602082019050818103600083015262000c968162000c54565b9050919050565b600073ffffffffffffffffffffffffffffffffffffffff82169050919050565b600062000cca8262000c9d565b9050919050565b62000cdc8162000cbd565b82525050565b62000ced81620009dc565b82525050565b600081519050919050565b600082825260208201905092915050565b60005b8381101562000d2f57808201518184015260208101905062000d12565b8381111562000d3f576000848401525b50505050565b6000601f19601f8301169050919050565b600062000d638262000cf3565b62000d6f818562000cfe565b935062000d8181856020860162000d0f565b62000d8c8162000d45565b840191505092915050565b600060808201905062000dae600083018762000cd1565b62000dbd602083018662000cd1565b62000dcc604083018562000ce2565b818103606083015262000de0818462000d56565b905095945050505050565b600080fd5b60007fffffffff0000000000000000000000000000000000000000000000000000000082169050919050565b62000e278162000df0565b811462000e3357600080fd5b50565b60008151905062000e478162000e1c565b92915050565b60006020828403121562000e665762000e6562000deb565b5b600062000e768482850162000e36565b91505092915050565b7f4e487b7100000000000000000000000000000000000000000000000000000000600052602260045260246000fd5b6000600282049050600182168062000ec757607f821691505b6020821081141562000ede5762000edd62000e7f565b5b50919050565b61377d8062000ef46000396000f3fe6080604052600436106101665760003560e01c806355f804b3116100d15780639bbc35f81161008a578063b88d4fde11610064578063b88d4fde146104fc578063c87b56dd14610525578063e985e9c514610562578063f2fde38b1461059f57610166565b80639bbc35f81461048c578063a0712d68146104b7578063a22cb465146104d357610166565b806355f804b31461037c5780636352211e146103a557806370a08231146103e2578063715018a61461041f5780638da5cb5b1461043657806395d89b411461046157610166565b806323b872dd1161012357806323b872dd1461028f5780633ccfd60b146102b85780633d4392c0146102c257806342842e0e146102ff57806342966c6814610328578063524773ce1461035157610166565b806301ffc9a71461016b57806306fdde03146101a8578063081812fc146101d3578063095ea7b3146102105780630f7309e81461023957806318160ddd14610264575b600080fd5b34801561017757600080fd5b50610192600480360381019061018d91906122af565b6105c8565b60405161019f91906122f7565b60405180910390f35b3480156101b457600080fd5b506101bd6106aa565b6040516101ca91906123ab565b60405180910390f35b3480156101df57600080fd5b506101fa60048036038101906101f59190612403565b61073c565b6040516102079190612471565b60405180910390f35b34801561021c57600080fd5b50610237600480360381019061023291906124b8565b6107c1565b005b34801561024557600080fd5b5061024e6108d9565b60405161025b91906123ab565b60405180910390f35b34801561027057600080fd5b50610279610967565b6040516102869190612507565b60405180910390f35b34801561029b57600080fd5b506102b660048036038101906102b19190612522565b61097e565b005b6102c06109de565b005b3480156102ce57600080fd5b506102e960048036038101906102e49190612575565b610ada565b6040516102f69190612660565b60405180910390f35b34801561030b57600080fd5b5061032660048036038101906103219190612522565b610bef565b005b34801561033457600080fd5b5061034f600480360381019061034a9190612403565b610c0f565b005b34801561035d57600080fd5b50610366610c83565b6040516103739190612507565b60405180910390f35b34801561038857600080fd5b506103a3600480360381019061039e91906127b7565b610c89565b005b3480156103b157600080fd5b506103cc60048036038101906103c79190612403565b610d1f565b6040516103d99190612471565b60405180910390f35b3480156103ee57600080fd5b5061040960048036038101906104049190612575565b610dd1565b6040516104169190612507565b60405180910390f35b34801561042b57600080fd5b50610434610e89565b005b34801561044257600080fd5b5061044b610f11565b6040516104589190612471565b60405180910390f35b34801561046d57600080fd5b50610476610f3a565b60405161048391906123ab565b60405180910390f35b34801561049857600080fd5b506104a1610fcc565b6040516104ae9190612507565b60405180910390f35b6104d160048036038101906104cc9190612403565b610fd2565b005b3480156104df57600080fd5b506104fa60048036038101906104f5919061282c565b6110ae565b005b34801561050857600080fd5b50610523600480360381019061051e919061290d565b61122f565b005b34801561053157600080fd5b5061054c60048036038101906105479190612403565b611291565b60405161055991906123ab565b60405180910390f35b34801561056e57600080fd5b5061058960048036038101906105849190612990565b611338565b60405161059691906122f7565b60405180910390f35b3480156105ab57600080fd5b506105c660048036038101906105c19190612575565b6113cc565b005b60007f80ac58cd000000000000000000000000000000000000000000000000000000007bffffffffffffffffffffffffffffffffffffffffffffffffffffffff1916827bffffffffffffffffffffffffffffffffffffffffffffffffffffffff1916148061069357507f5b5e139f000000000000000000000000000000000000000000000000000000007bffffffffffffffffffffffffffffffffffffffffffffffffffffffff1916827bffffffffffffffffffffffffffffffffffffffffffffffffffffffff1916145b806106a357506106a2826114d7565b5b9050919050565b6060600180546106b9906129ff565b80601f01602080910402602001604051908101604052809291908181526020018280546106e5906129ff565b80156107325780601f1061070757610100808354040283529160200191610732565b820191906000526020600020905b81548152906001019060200180831161071557829003601f168201915b5050505050905090565b600061074782611541565b610786576040517f08c379a000000000000000000000000000000000000000000000000000000000815260040161077d90612aa3565b60405180910390fd5b6005600083815260200190815260200160002060009054906101000a900473ffffffffffffffffffffffffffffffffffffffff169050919050565b60006107cc82610d1f565b90508073ffffffffffffffffffffffffffffffffffffffff168373ffffffffffffffffffffffffffffffffffffffff16141561083d576040517f08c379a000000000000000000000000000000000000000000000000000000000815260040161083490612b35565b60405180910390fd5b8073ffffffffffffffffffffffffffffffffffffffff1661085c6115ad565b73ffffffffffffffffffffffffffffffffffffffff16148061088b575061088a816108856115ad565b611338565b5b6108ca576040517f08c379a00000000000000000000000000000000000000000000000000000000081526004016108c190612bc7565b60405180910390fd5b6108d483836115b5565b505050565b600880546108e6906129ff565b80601f0160208091040260200160405190810160405280929190818152602001828054610912906129ff565b801561095f5780601f106109345761010080835404028352916020019161095f565b820191906000526020600020905b81548152906001019060200180831161094257829003601f168201915b505050505081565b6000600c54600d546109799190612c16565b905090565b61098f6109896115ad565b8261166e565b6109ce576040517f08c379a00000000000000000000000000000000000000000000000000000000081526004016109c590612cbc565b60405180910390fd5b6109d983838361174c565b505050565b6109e66115ad565b73ffffffffffffffffffffffffffffffffffffffff16610a04610f11565b73ffffffffffffffffffffffffffffffffffffffff1614610a5a576040517f08c379a0000000000000000000000000000000000000000000000000000000008152600401610a5190612d28565b60405180910390fd5b6000610a64610f11565b73ffffffffffffffffffffffffffffffffffffffff1647604051610a8790612d79565b60006040518083038185875af1925050503d8060008114610ac4576040519150601f19603f3d011682016040523d82523d6000602084013e610ac9565b606091505b5050905080610ad757600080fd5b50565b60606000600a5467ffffffffffffffff811115610afa57610af961268c565b5b604051908082528060200260200182016040528015610b285781602001602082028036833780820191505090505b50905060005b600a54811015610be5576000828281518110610b4d57610b4c612d8e565b5b602002602001019015159081151581525050610b6881611541565b15610bd2578373ffffffffffffffffffffffffffffffffffffffff16610b8d82610d1f565b73ffffffffffffffffffffffffffffffffffffffff161415610bd1576001828281518110610bbe57610bbd612d8e565b5b6020026020010190151590811515815250505b5b8080610bdd90612dbd565b915050610b2e565b5080915050919050565b610c0a8383836040518060200160405280600081525061122f565b505050565b610c20610c1a6115ad565b8261166e565b610c5f576040517f08c379a0000000000000000000000000000000000000000000000000000000008152600401610c5690612e78565b60405180910390fd5b610c68816119a8565b600c6000815480929190610c7b90612dbd565b919050555050565b600c5481565b610c916115ad565b73ffffffffffffffffffffffffffffffffffffffff16610caf610f11565b73ffffffffffffffffffffffffffffffffffffffff1614610d05576040517f08c379a0000000000000000000000000000000000000000000000000000000008152600401610cfc90612d28565b60405180910390fd5b8060079080519060200190610d1b9291906121a0565b5050565b6000806003600084815260200190815260200160002060009054906101000a900473ffffffffffffffffffffffffffffffffffffffff169050600073ffffffffffffffffffffffffffffffffffffffff168173ffffffffffffffffffffffffffffffffffffffff161415610dc8576040517f08c379a0000000000000000000000000000000000000000000000000000000008152600401610dbf90612f0a565b60405180910390fd5b80915050919050565b60008073ffffffffffffffffffffffffffffffffffffffff168273ffffffffffffffffffffffffffffffffffffffff161415610e42576040517f08c379a0000000000000000000000000000000000000000000000000000000008152600401610e3990612f9c565b60405180910390fd5b600460008373ffffffffffffffffffffffffffffffffffffffff1673ffffffffffffffffffffffffffffffffffffffff168152602001908152602001600020549050919050565b610e916115ad565b73ffffffffffffffffffffffffffffffffffffffff16610eaf610f11565b73ffffffffffffffffffffffffffffffffffffffff1614610f05576040517f08c379a0000000000000000000000000000000000000000000000000000000008152600401610efc90612d28565b60405180910390fd5b610f0f6000611ab9565b565b60008060009054906101000a900473ffffffffffffffffffffffffffffffffffffffff16905090565b606060028054610f49906129ff565b80601f0160208091040260200160405190810160405280929190818152602001828054610f75906129ff565b8015610fc25780601f10610f9757610100808354040283529160200191610fc2565b820191906000526020600020905b815481529060010190602001808311610fa557829003601f168201915b5050505050905090565b600d5481565b60008111610fdf57600080fd5b600b54811115610fee57600080fd5b600a5481600d54610fff9190612fbc565b111561100a57600080fd5b60008160095461101a9190613012565b9050611024610f11565b73ffffffffffffffffffffffffffffffffffffffff163373ffffffffffffffffffffffffffffffffffffffff1614611064578034101561106357600080fd5b5b6000600190505b8281116110a95761107e33600d54611b7d565b600d600081548092919061109190612dbd565b919050555080806110a190612dbd565b91505061106b565b505050565b6110b66115ad565b73ffffffffffffffffffffffffffffffffffffffff168273ffffffffffffffffffffffffffffffffffffffff161415611124576040517f08c379a000000000000000000000000000000000000000000000000000000000815260040161111b906130b8565b60405180910390fd5b80600660006111316115ad565b73ffffffffffffffffffffffffffffffffffffffff1673ffffffffffffffffffffffffffffffffffffffff16815260200190815260200160002060008473ffffffffffffffffffffffffffffffffffffffff1673ffffffffffffffffffffffffffffffffffffffff16815260200190815260200160002060006101000a81548160ff0219169083151502179055508173ffffffffffffffffffffffffffffffffffffffff166111de6115ad565b73ffffffffffffffffffffffffffffffffffffffff167f17307eab39ab6107e8899845ad3d59bd9653f200f220920489ca2b5937696c318360405161122391906122f7565b60405180910390a35050565b61124061123a6115ad565b8361166e565b61127f576040517f08c379a000000000000000000000000000000000000000000000000000000000815260040161127690612cbc565b60405180910390fd5b61128b84848484611b9b565b50505050565b606061129c82611541565b6112db576040517f08c379a00000000000000000000000000000000000000000000000000000000081526004016112d29061314a565b60405180910390fd5b60006112e5611bf7565b905060008151116113055760405180602001604052806000815250611330565b8061130f84611c89565b6040516020016113209291906131f2565b6040516020818303038152906040525b915050919050565b6000600660008473ffffffffffffffffffffffffffffffffffffffff1673ffffffffffffffffffffffffffffffffffffffff16815260200190815260200160002060008373ffffffffffffffffffffffffffffffffffffffff1673ffffffffffffffffffffffffffffffffffffffff16815260200190815260200160002060009054906101000a900460ff16905092915050565b6113d46115ad565b73ffffffffffffffffffffffffffffffffffffffff166113f2610f11565b73ffffffffffffffffffffffffffffffffffffffff1614611448576040517f08c379a000000000000000000000000000000000000000000000000000000000815260040161143f90612d28565b60405180910390fd5b600073ffffffffffffffffffffffffffffffffffffffff168173ffffffffffffffffffffffffffffffffffffffff1614156114b8576040517f08c379a00000000000000000000000000000000000000000000000000000000081526004016114af90613293565b60405180910390fd5b6114c181611ab9565b50565b600080823b905060008111915050919050565b60007f01ffc9a7000000000000000000000000000000000000000000000000000000007bffffffffffffffffffffffffffffffffffffffffffffffffffffffff1916827bffffffffffffffffffffffffffffffffffffffffffffffffffffffff1916149050919050565b60008073ffffffffffffffffffffffffffffffffffffffff166003600084815260200190815260200160002060009054906101000a900473ffffffffffffffffffffffffffffffffffffffff1673ffffffffffffffffffffffffffffffffffffffff1614159050919050565b600033905090565b816005600083815260200190815260200160002060006101000a81548173ffffffffffffffffffffffffffffffffffffffff021916908373ffffffffffffffffffffffffffffffffffffffff160217905550808273ffffffffffffffffffffffffffffffffffffffff1661162883610d1f565b73ffffffffffffffffffffffffffffffffffffffff167f8c5be1e5ebec7d5bd14f71427d1e84f3dd0314c0f7b2291e5b200ac8c7c3b92560405160405180910390a45050565b600061167982611541565b6116b8576040517f08c379a00000000000000000000000000000000000000000000000000000000081526004016116af90613325565b60405180910390fd5b60006116c383610d1f565b90508073ffffffffffffffffffffffffffffffffffffffff168473ffffffffffffffffffffffffffffffffffffffff16148061173257508373ffffffffffffffffffffffffffffffffffffffff1661171a8461073c565b73ffffffffffffffffffffffffffffffffffffffff16145b8061174357506117428185611338565b5b91505092915050565b8273ffffffffffffffffffffffffffffffffffffffff1661176c82610d1f565b73ffffffffffffffffffffffffffffffffffffffff16146117c2576040517f08c379a00000000000000000000000000000000000000000000000000000000081526004016117b9906133b7565b60405180910390fd5b600073ffffffffffffffffffffffffffffffffffffffff168273ffffffffffffffffffffffffffffffffffffffff161415611832576040517f08c379a000000000000000000000000000000000000000000000000000000000815260040161182990613449565b60405180910390fd5b61183d838383611dea565b6118486000826115b5565b6001600460008573ffffffffffffffffffffffffffffffffffffffff1673ffffffffffffffffffffffffffffffffffffffff16815260200190815260200160002060008282546118989190612c16565b925050819055506001600460008473ffffffffffffffffffffffffffffffffffffffff1673ffffffffffffffffffffffffffffffffffffffff16815260200190815260200160002060008282546118ef9190612fbc565b92505081905550816003600083815260200190815260200160002060006101000a81548173ffffffffffffffffffffffffffffffffffffffff021916908373ffffffffffffffffffffffffffffffffffffffff160217905550808273ffffffffffffffffffffffffffffffffffffffff168473ffffffffffffffffffffffffffffffffffffffff167fddf252ad1be2c89b69c2b068fc378daa952ba7f163c4a11628f55a4df523b3ef60405160405180910390a4505050565b60006119b382610d1f565b90506119c181600084611dea565b6119cc6000836115b5565b6001600460008373ffffffffffffffffffffffffffffffffffffffff1673ffffffffffffffffffffffffffffffffffffffff1681526020019081526020016000206000828254611a1c9190612c16565b925050819055506003600083815260200190815260200160002060006101000a81549073ffffffffffffffffffffffffffffffffffffffff021916905581600073ffffffffffffffffffffffffffffffffffffffff168273ffffffffffffffffffffffffffffffffffffffff167fddf252ad1be2c89b69c2b068fc378daa952ba7f163c4a11628f55a4df523b3ef60405160405180910390a45050565b60008060009054906101000a900473ffffffffffffffffffffffffffffffffffffffff169050816000806101000a81548173ffffffffffffffffffffffffffffffffffffffff021916908373ffffffffffffffffffffffffffffffffffffffff1602179055508173ffffffffffffffffffffffffffffffffffffffff168173ffffffffffffffffffffffffffffffffffffffff167f8be0079c531659141344cd1fd0a4f28419497f9722a3daafe3b4186f6b6457e060405160405180910390a35050565b611b97828260405180602001604052806000815250611def565b5050565b611ba684848461174c565b611bb284848484611e4a565b611bf1576040517f08c379a0000000000000000000000000000000000000000000000000000000008152600401611be8906134db565b60405180910390fd5b50505050565b606060078054611c06906129ff565b80601f0160208091040260200160405190810160405280929190818152602001828054611c32906129ff565b8015611c7f5780601f10611c5457610100808354040283529160200191611c7f565b820191906000526020600020905b815481529060010190602001808311611c6257829003601f168201915b5050505050905090565b60606000821415611cd1576040518060400160405280600181526020017f30000000000000000000000000000000000000000000000000000000000000008152509050611de5565b600082905060005b60008214611d03578080611cec90612dbd565b915050600a82611cfc919061352a565b9150611cd9565b60008167ffffffffffffffff811115611d1f57611d1e61268c565b5b6040519080825280601f01601f191660200182016040528015611d515781602001600182028036833780820191505090505b5090505b60008514611dde57600182611d6a9190612c16565b9150600a85611d79919061355b565b6030611d859190612fbc565b60f81b818381518110611d9b57611d9a612d8e565b5b60200101907effffffffffffffffffffffffffffffffffffffffffffffffffffffffffffff1916908160001a905350600a85611dd7919061352a565b9450611d55565b8093505050505b919050565b505050565b611df98383611fd2565b611e066000848484611e4a565b611e45576040517f08c379a0000000000000000000000000000000000000000000000000000000008152600401611e3c906134db565b60405180910390fd5b505050565b6000611e6b8473ffffffffffffffffffffffffffffffffffffffff166114c4565b15611fc5578373ffffffffffffffffffffffffffffffffffffffff1663150b7a02611e946115ad565b8786866040518563ffffffff1660e01b8152600401611eb694939291906135e1565b6020604051808303816000875af1925050508015611ef257506040513d601f19601f82011682018060405250810190611eef9190613642565b60015b611f75573d8060008114611f22576040519150601f19603f3d011682016040523d82523d6000602084013e611f27565b606091505b50600081511415611f6d576040517f08c379a0000000000000000000000000000000000000000000000000000000008152600401611f64906134db565b60405180910390fd5b805181602001fd5b63150b7a0260e01b7bffffffffffffffffffffffffffffffffffffffffffffffffffffffff1916817bffffffffffffffffffffffffffffffffffffffffffffffffffffffff191614915050611fca565b600190505b949350505050565b600073ffffffffffffffffffffffffffffffffffffffff168273ffffffffffffffffffffffffffffffffffffffff161415612042576040517f08c379a0000000000000000000000000000000000000000000000000000000008152600401612039906136bb565b60405180910390fd5b61204b81611541565b1561208b576040517f08c379a000000000000000000000000000000000000000000000000000000000815260040161208290613727565b60405180910390fd5b61209760008383611dea565b6001600460008473ffffffffffffffffffffffffffffffffffffffff1673ffffffffffffffffffffffffffffffffffffffff16815260200190815260200160002060008282546120e79190612fbc565b92505081905550816003600083815260200190815260200160002060006101000a81548173ffffffffffffffffffffffffffffffffffffffff021916908373ffffffffffffffffffffffffffffffffffffffff160217905550808273ffffffffffffffffffffffffffffffffffffffff16600073ffffffffffffffffffffffffffffffffffffffff167fddf252ad1be2c89b69c2b068fc378daa952ba7f163c4a11628f55a4df523b3ef60405160405180910390a45050565b8280546121ac906129ff565b90600052602060002090601f0160209004810192826121ce5760008555612215565b82601f106121e757805160ff1916838001178555612215565b82800160010185558215612215579182015b828111156122145782518255916020019190600101906121f9565b5b5090506122229190612226565b5090565b5b8082111561223f576000816000905550600101612227565b5090565b6000604051905090565b600080fd5b600080fd5b60007fffffffff0000000000000000000000000000000000000000000000000000000082169050919050565b61228c81612257565b811461229757600080fd5b50565b6000813590506122a981612283565b92915050565b6000602082840312156122c5576122c461224d565b5b60006122d38482850161229a565b91505092915050565b60008115159050919050565b6122f1816122dc565b82525050565b600060208201905061230c60008301846122e8565b92915050565b600081519050919050565b600082825260208201905092915050565b60005b8381101561234c578082015181840152602081019050612331565b8381111561235b576000848401525b50505050565b6000601f19601f8301169050919050565b600061237d82612312565b612387818561231d565b935061239781856020860161232e565b6123a081612361565b840191505092915050565b600060208201905081810360008301526123c58184612372565b905092915050565b6000819050919050565b6123e0816123cd565b81146123eb57600080fd5b50565b6000813590506123fd816123d7565b92915050565b6000602082840312156124195761241861224d565b5b6000612427848285016123ee565b91505092915050565b600073ffffffffffffffffffffffffffffffffffffffff82169050919050565b600061245b82612430565b9050919050565b61246b81612450565b82525050565b60006020820190506124866000830184612462565b92915050565b61249581612450565b81146124a057600080fd5b50565b6000813590506124b28161248c565b92915050565b600080604083850312156124cf576124ce61224d565b5b60006124dd858286016124a3565b92505060206124ee858286016123ee565b9150509250929050565b612501816123cd565b82525050565b600060208201905061251c60008301846124f8565b92915050565b60008060006060848603121561253b5761253a61224d565b5b6000612549868287016124a3565b935050602061255a868287016124a3565b925050604061256b868287016123ee565b9150509250925092565b60006020828403121561258b5761258a61224d565b5b6000612599848285016124a3565b91505092915050565b600081519050919050565b600082825260208201905092915050565b6000819050602082019050919050565b6125d7816122dc565b82525050565b60006125e983836125ce565b60208301905092915050565b6000602082019050919050565b600061260d826125a2565b61261781856125ad565b9350612622836125be565b8060005b8381101561265357815161263a88826125dd565b9750612645836125f5565b925050600181019050612626565b5085935050505092915050565b6000602082019050818103600083015261267a8184612602565b905092915050565b600080fd5b600080fd5b7f4e487b7100000000000000000000000000000000000000000000000000000000600052604160045260246000fd5b6126c482612361565b810181811067ffffffffffffffff821117156126e3576126e261268c565b5b80604052505050565b60006126f6612243565b905061270282826126bb565b919050565b600067ffffffffffffffff8211156127225761272161268c565b5b61272b82612361565b9050602081019050919050565b82818337600083830152505050565b600061275a61275584612707565b6126ec565b90508281526020810184848401111561277657612775612687565b5b612781848285612738565b509392505050565b600082601f83011261279e5761279d612682565b5b81356127ae848260208601612747565b91505092915050565b6000602082840312156127cd576127cc61224d565b5b600082013567ffffffffffffffff8111156127eb576127ea612252565b5b6127f784828501612789565b91505092915050565b612809816122dc565b811461281457600080fd5b50565b60008135905061282681612800565b92915050565b600080604083850312156128435761284261224d565b5b6000612851858286016124a3565b925050602061286285828601612817565b9150509250929050565b600067ffffffffffffffff8211156128875761288661268c565b5b61289082612361565b9050602081019050919050565b60006128b06128ab8461286c565b6126ec565b9050828152602081018484840111156128cc576128cb612687565b5b6128d7848285612738565b509392505050565b600082601f8301126128f4576128f3612682565b5b813561290484826020860161289d565b91505092915050565b600080600080608085870312156129275761292661224d565b5b6000612935878288016124a3565b9450506020612946878288016124a3565b9350506040612957878288016123ee565b925050606085013567ffffffffffffffff81111561297857612977612252565b5b612984878288016128df565b91505092959194509250565b600080604083850312156129a7576129a661224d565b5b60006129b5858286016124a3565b92505060206129c6858286016124a3565b9150509250929050565b7f4e487b7100000000000000000000000000000000000000000000000000000000600052602260045260246000fd5b60006002820490506001821680612a1757607f821691505b60208210811415612a2b57612a2a6129d0565b5b50919050565b7f4552433732313a20617070726f76656420717565727920666f72206e6f6e657860008201527f697374656e7420746f6b656e0000000000000000000000000000000000000000602082015250565b6000612a8d602c8361231d565b9150612a9882612a31565b604082019050919050565b60006020820190508181036000830152612abc81612a80565b9050919050565b7f4552433732313a20617070726f76616c20746f2063757272656e74206f776e6560008201527f7200000000000000000000000000000000000000000000000000000000000000602082015250565b6000612b1f60218361231d565b9150612b2a82612ac3565b604082019050919050565b60006020820190508181036000830152612b4e81612b12565b9050919050565b7f4552433732313a20617070726f76652063616c6c6572206973206e6f74206f7760008201527f6e6572206e6f7220617070726f76656420666f7220616c6c0000000000000000602082015250565b6000612bb160388361231d565b9150612bbc82612b55565b604082019050919050565b60006020820190508181036000830152612be081612ba4565b9050919050565b7f4e487b7100000000000000000000000000000000000000000000000000000000600052601160045260246000fd5b6000612c21826123cd565b9150612c2c836123cd565b925082821015612c3f57612c3e612be7565b5b828203905092915050565b7f4552433732313a207472616e736665722063616c6c6572206973206e6f74206f60008201527f776e6572206e6f7220617070726f766564000000000000000000000000000000602082015250565b6000612ca660318361231d565b9150612cb182612c4a565b604082019050919050565b60006020820190508181036000830152612cd581612c99565b9050919050565b7f4f776e61626c653a2063616c6c6572206973206e6f7420746865206f776e6572600082015250565b6000612d1260208361231d565b9150612d1d82612cdc565b602082019050919050565b60006020820190508181036000830152612d4181612d05565b9050919050565b600081905092915050565b50565b6000612d63600083612d48565b9150612d6e82612d53565b600082019050919050565b6000612d8482612d56565b9150819050919050565b7f4e487b7100000000000000000000000000000000000000000000000000000000600052603260045260246000fd5b6000612dc8826123cd565b91507fffffffffffffffffffffffffffffffffffffffffffffffffffffffffffffffff821415612dfb57612dfa612be7565b5b600182019050919050565b7f4552433732314275726e61626c653a2063616c6c6572206973206e6f74206f7760008201527f6e6572206e6f7220617070726f76656400000000000000000000000000000000602082015250565b6000612e6260308361231d565b9150612e6d82612e06565b604082019050919050565b60006020820190508181036000830152612e9181612e55565b9050919050565b7f4552433732313a206f776e657220717565727920666f72206e6f6e657869737460008201527f656e7420746f6b656e0000000000000000000000000000000000000000000000602082015250565b6000612ef460298361231d565b9150612eff82612e98565b604082019050919050565b60006020820190508181036000830152612f2381612ee7565b9050919050565b7f4552433732313a2062616c616e636520717565727920666f7220746865207a6560008201527f726f206164647265737300000000000000000000000000000000000000000000602082015250565b6000612f86602a8361231d565b9150612f9182612f2a565b604082019050919050565b60006020820190508181036000830152612fb581612f79565b9050919050565b6000612fc7826123cd565b9150612fd2836123cd565b9250827fffffffffffffffffffffffffffffffffffffffffffffffffffffffffffffffff0382111561300757613006612be7565b5b828201905092915050565b600061301d826123cd565b9150613028836123cd565b9250817fffffffffffffffffffffffffffffffffffffffffffffffffffffffffffffffff048311821515161561306157613060612be7565b5b828202905092915050565b7f4552433732313a20617070726f766520746f2063616c6c657200000000000000600082015250565b60006130a260198361231d565b91506130ad8261306c565b602082019050919050565b600060208201905081810360008301526130d181613095565b9050919050565b7f4552433732314d657461646174613a2055524920717565727920666f72206e6f60008201527f6e6578697374656e7420746f6b656e0000000000000000000000000000000000602082015250565b6000613134602f8361231d565b915061313f826130d8565b604082019050919050565b6000602082019050818103600083015261316381613127565b9050919050565b600081905092915050565b600061318082612312565b61318a818561316a565b935061319a81856020860161232e565b80840191505092915050565b7f2e6a736f6e000000000000000000000000000000000000000000000000000000600082015250565b60006131dc60058361316a565b91506131e7826131a6565b600582019050919050565b60006131fe8285613175565b915061320a8284613175565b9150613215826131cf565b91508190509392505050565b7f4f776e61626c653a206e6577206f776e657220697320746865207a65726f206160008201527f6464726573730000000000000000000000000000000000000000000000000000602082015250565b600061327d60268361231d565b915061328882613221565b604082019050919050565b600060208201905081810360008301526132ac81613270565b9050919050565b7f4552433732313a206f70657261746f7220717565727920666f72206e6f6e657860008201527f697374656e7420746f6b656e0000000000000000000000000000000000000000602082015250565b600061330f602c8361231d565b915061331a826132b3565b604082019050919050565b6000602082019050818103600083015261333e81613302565b9050919050565b7f4552433732313a207472616e73666572206f6620746f6b656e2074686174206960008201527f73206e6f74206f776e0000000000000000000000000000000000000000000000602082015250565b60006133a160298361231d565b91506133ac82613345565b604082019050919050565b600060208201905081810360008301526133d081613394565b9050919050565b7f4552433732313a207472616e7366657220746f20746865207a65726f2061646460008201527f7265737300000000000000000000000000000000000000000000000000000000602082015250565b600061343360248361231d565b915061343e826133d7565b604082019050919050565b6000602082019050818103600083015261346281613426565b9050919050565b7f4552433732313a207472616e7366657220746f206e6f6e20455243373231526560008201527f63656976657220696d706c656d656e7465720000000000000000000000000000602082015250565b60006134c560328361231d565b91506134d082613469565b604082019050919050565b600060208201905081810360008301526134f4816134b8565b9050919050565b7f4e487b7100000000000000000000000000000000000000000000000000000000600052601260045260246000fd5b6000613535826123cd565b9150613540836123cd565b9250826135505761354f6134fb565b5b828204905092915050565b6000613566826123cd565b9150613571836123cd565b925082613581576135806134fb565b5b828206905092915050565b600081519050919050565b600082825260208201905092915050565b60006135b38261358c565b6135bd8185613597565b93506135cd81856020860161232e565b6135d681612361565b840191505092915050565b60006080820190506135f66000830187612462565b6136036020830186612462565b61361060408301856124f8565b818103606083015261362281846135a8565b905095945050505050565b60008151905061363c81612283565b92915050565b6000602082840312156136585761365761224d565b5b60006136668482850161362d565b91505092915050565b7f4552433732313a206d696e7420746f20746865207a65726f2061646472657373600082015250565b60006136a560208361231d565b91506136b08261366f565b602082019050919050565b600060208201905081810360008301526136d481613698565b9050919050565b7f4552433732313a20746f6b656e20616c7265616479206d696e74656400000000600082015250565b6000613711601c8361231d565b915061371c826136db565b602082019050919050565b6000602082019050818103600083015261374081613704565b905091905056fea2646970667358221220d9eedaff2ed43c1e45722cc923b8995429e46828e0fcc56928584f7020de23bc64736f6c634300080b003337326135393331336638366339643864393536666566336664363164613033313064653466656632323131633936663137393839363830663932386435636130697066733a2f2f516d526252693269786570437234663258456744705555487448756841614351393256714e69657643694e6333392f",
  "immutableReferences": {},
  "source": "// SPDX-License-Identifier: MIT\npragma solidity >=0.4.22 <0.9.0;\n\nimport \"@openzeppelin/contracts/access/Ownable.sol\";\nimport \"@openzeppelin/contracts/token/ERC721/ERC721.sol\";\n\ncontract LavaLamp is Ownable, ERC721 {\n  using Strings for uint256;\n  string private currentBaseURI;\n  string public provenance = \"72a59313f86c9d8d956fef3fd61da0310de4fef2211c96f17989680f928d5ca0\";\n\n  uint256 private cost = 0.03 ether;\n  uint256 private maxSupply = 7980;\n  uint256 private maxMintAmount = 20;\n\n  uint256 public burnCount = 0;\n  uint256 public lampsMinted = 0;\n\n  // string memory provenanceHash\n  constructor() ERC721(\"LavaLamp\", \"LAVALAMP\") {\n    setBaseURI(\"ipfs://QmRbRi2ixepCr4f2XEgDpUUHtHuhAaCQ92VqNievCiNc39/\"); // (\"http://localhost:3000/token/\"); // setBaseURI(\"http://www.superdorvil.tech/token/\"); // ipfs://{}\n    mint(10);\n  }\n\n  function setBaseURI(string memory baseURI) public onlyOwner {\n    currentBaseURI = baseURI;\n  }\n\n  function _baseURI() internal view virtual override returns (string memory) {\n    return currentBaseURI;\n  }\n\n  function mint(uint256 mintAmount) public payable {\n    require(mintAmount > 0);\n    require(mintAmount <= maxMintAmount);\n    require(lampsMinted + mintAmount <= maxSupply);\n    uint256 price = cost * mintAmount;\n\n    if (msg.sender != owner())\n      require(msg.value >= price);\n\n    for (uint256 i = 1; i <= mintAmount; i++) {\n      _safeMint(msg.sender, lampsMinted);\n      lampsMinted++;\n    }\n  }\n\n  function withdraw() public payable onlyOwner {\n    // (bool hs, ) = payable(0x0).call{value: address(this).balance * 5 / 100}(\"\");\n    (bool success, ) = payable(owner()).call{value: address(this).balance}(\"\");\n    require(success);\n  }\n\n  function tokenURI(uint256 tokenId) public view virtual override returns (string memory) {\n    require(_exists(tokenId), \"ERC721Metadata: URI query for nonexistent token\");\n\n    string memory curBaseURI = _baseURI();\n    return bytes(curBaseURI).length > 0\n      ? string(abi.encodePacked(curBaseURI, tokenId.toString(), \".json\"))\n      : \"\";\n  }\n\n  // I guess I could have inherited the burnable contract\n  // But I would override it anyways\n  // I'm curious if overriding functions increases gas fees\n  // So I'm just throwing this in here and will look into gas fees later, most likely.\n  function burn(uint256 tokenId) public virtual {\n    //solhint-disable-next-line max-line-length\n    require(_isApprovedOrOwner(_msgSender(), tokenId), \"ERC721Burnable: caller is not owner nor approved\");\n    _burn(tokenId);\n    burnCount++;\n  }\n\n  function totalSupply() external view returns (uint256) {\n    return lampsMinted - burnCount;\n  }\n\n  function getTokensOwnedBy(address owner) external view returns (bool[] memory) {\n    bool[] memory tokenIds = new bool[](maxSupply);\n\n    for (uint256 i = 0; i < maxSupply; i++) {\n      tokenIds[i] = false; // don't need this, defaults to bool\n\n      if (_exists(i)) {\n        if (ownerOf(i) == owner) {\n          tokenIds[i] = true;\n        }\n      }\n    }\n\n    return tokenIds;\n  }\n}\n",
  "sourcePath": "/Users/superdorvil/workspace/ReactWorkspace/PersonalProjects/lava-lamp-nft/contracts/LavaLamp.sol",
  "compiler": {
    "name": "solc",
    "version": "0.8.11+commit.d7f03943.Emscripten.clang"
  },
  "schemaVersion": "3.4.3",
  "updatedAt": "2022-01-17T00:15:28.484Z",
  "networkType": "ethereum",
  "devdoc": {
    "kind": "dev",
    "methods": {
      "approve(address,uint256)": {
        "details": "See {IERC721-approve}."
      },
      "balanceOf(address)": {
        "details": "See {IERC721-balanceOf}."
      },
      "getApproved(uint256)": {
        "details": "See {IERC721-getApproved}."
      },
      "isApprovedForAll(address,address)": {
        "details": "See {IERC721-isApprovedForAll}."
      },
      "name()": {
        "details": "See {IERC721Metadata-name}."
      },
      "owner()": {
        "details": "Returns the address of the current owner."
      },
      "ownerOf(uint256)": {
        "details": "See {IERC721-ownerOf}."
      },
      "renounceOwnership()": {
        "details": "Leaves the contract without owner. It will not be possible to call `onlyOwner` functions anymore. Can only be called by the current owner. NOTE: Renouncing ownership will leave the contract without an owner, thereby removing any functionality that is only available to the owner."
      },
      "safeTransferFrom(address,address,uint256)": {
        "details": "See {IERC721-safeTransferFrom}."
      },
      "safeTransferFrom(address,address,uint256,bytes)": {
        "details": "See {IERC721-safeTransferFrom}."
      },
      "setApprovalForAll(address,bool)": {
        "details": "See {IERC721-setApprovalForAll}."
      },
      "supportsInterface(bytes4)": {
        "details": "See {IERC165-supportsInterface}."
      },
      "symbol()": {
        "details": "See {IERC721Metadata-symbol}."
      },
      "tokenURI(uint256)": {
        "details": "See {IERC721Metadata-tokenURI}."
      },
      "transferFrom(address,address,uint256)": {
        "details": "See {IERC721-transferFrom}."
      },
      "transferOwnership(address)": {
        "details": "Transfers ownership of the contract to a new account (`newOwner`). Can only be called by the current owner."
      }
    },
    "version": 1
  },
  "userdoc": {
    "kind": "user",
    "methods": {},
    "version": 1
  }
}