{
  "contractName": "LavaLamp",
  "abi": [
    {
      "inputs": [],
      "stateMutability": "nonpayable",
      "type": "constructor"
    },
    {
      "anonymous": false,
      "inputs": [
        {
          "indexed": true,
          "internalType": "address",
          "name": "owner",
          "type": "address"
        },
        {
          "indexed": true,
          "internalType": "address",
          "name": "approved",
          "type": "address"
        },
        {
          "indexed": true,
          "internalType": "uint256",
          "name": "tokenId",
          "type": "uint256"
        }
      ],
      "name": "Approval",
      "type": "event"
    },
    {
      "anonymous": false,
      "inputs": [
        {
          "indexed": true,
          "internalType": "address",
          "name": "owner",
          "type": "address"
        },
        {
          "indexed": true,
          "internalType": "address",
          "name": "operator",
          "type": "address"
        },
        {
          "indexed": false,
          "internalType": "bool",
          "name": "approved",
          "type": "bool"
        }
      ],
      "name": "ApprovalForAll",
      "type": "event"
    },
    {
      "anonymous": false,
      "inputs": [
        {
          "indexed": true,
          "internalType": "address",
          "name": "previousOwner",
          "type": "address"
        },
        {
          "indexed": true,
          "internalType": "address",
          "name": "newOwner",
          "type": "address"
        }
      ],
      "name": "OwnershipTransferred",
      "type": "event"
    },
    {
      "anonymous": false,
      "inputs": [
        {
          "indexed": true,
          "internalType": "address",
          "name": "from",
          "type": "address"
        },
        {
          "indexed": true,
          "internalType": "address",
          "name": "to",
          "type": "address"
        },
        {
          "indexed": true,
          "internalType": "uint256",
          "name": "tokenId",
          "type": "uint256"
        }
      ],
      "name": "Transfer",
      "type": "event"
    },
    {
      "inputs": [
        {
          "internalType": "address",
          "name": "to",
          "type": "address"
        },
        {
          "internalType": "uint256",
          "name": "tokenId",
          "type": "uint256"
        }
      ],
      "name": "approve",
      "outputs": [],
      "stateMutability": "nonpayable",
      "type": "function"
    },
    {
      "inputs": [
        {
          "internalType": "address",
          "name": "owner",
          "type": "address"
        }
      ],
      "name": "balanceOf",
      "outputs": [
        {
          "internalType": "uint256",
          "name": "",
          "type": "uint256"
        }
      ],
      "stateMutability": "view",
      "type": "function",
      "constant": true
    },
    {
      "inputs": [],
      "name": "burnCount",
      "outputs": [
        {
          "internalType": "uint256",
          "name": "",
          "type": "uint256"
        }
      ],
      "stateMutability": "view",
      "type": "function",
      "constant": true
    },
    {
      "inputs": [
        {
          "internalType": "uint256",
          "name": "tokenId",
          "type": "uint256"
        }
      ],
      "name": "getApproved",
      "outputs": [
        {
          "internalType": "address",
          "name": "",
          "type": "address"
        }
      ],
      "stateMutability": "view",
      "type": "function",
      "constant": true
    },
    {
      "inputs": [
        {
          "internalType": "address",
          "name": "owner",
          "type": "address"
        },
        {
          "internalType": "address",
          "name": "operator",
          "type": "address"
        }
      ],
      "name": "isApprovedForAll",
      "outputs": [
        {
          "internalType": "bool",
          "name": "",
          "type": "bool"
        }
      ],
      "stateMutability": "view",
      "type": "function",
      "constant": true
    },
    {
      "inputs": [],
      "name": "lampsMinted",
      "outputs": [
        {
          "internalType": "uint256",
          "name": "",
          "type": "uint256"
        }
      ],
      "stateMutability": "view",
      "type": "function",
      "constant": true
    },
    {
      "inputs": [],
      "name": "name",
      "outputs": [
        {
          "internalType": "string",
          "name": "",
          "type": "string"
        }
      ],
      "stateMutability": "view",
      "type": "function",
      "constant": true
    },
    {
      "inputs": [],
      "name": "owner",
      "outputs": [
        {
          "internalType": "address",
          "name": "",
          "type": "address"
        }
      ],
      "stateMutability": "view",
      "type": "function",
      "constant": true
    },
    {
      "inputs": [
        {
          "internalType": "uint256",
          "name": "tokenId",
          "type": "uint256"
        }
      ],
      "name": "ownerOf",
      "outputs": [
        {
          "internalType": "address",
          "name": "",
          "type": "address"
        }
      ],
      "stateMutability": "view",
      "type": "function",
      "constant": true
    },
    {
      "inputs": [],
      "name": "provenance",
      "outputs": [
        {
          "internalType": "string",
          "name": "",
          "type": "string"
        }
      ],
      "stateMutability": "view",
      "type": "function",
      "constant": true
    },
    {
      "inputs": [],
      "name": "renounceOwnership",
      "outputs": [],
      "stateMutability": "nonpayable",
      "type": "function"
    },
    {
      "inputs": [
        {
          "internalType": "address",
          "name": "from",
          "type": "address"
        },
        {
          "internalType": "address",
          "name": "to",
          "type": "address"
        },
        {
          "internalType": "uint256",
          "name": "tokenId",
          "type": "uint256"
        }
      ],
      "name": "safeTransferFrom",
      "outputs": [],
      "stateMutability": "nonpayable",
      "type": "function"
    },
    {
      "inputs": [
        {
          "internalType": "address",
          "name": "from",
          "type": "address"
        },
        {
          "internalType": "address",
          "name": "to",
          "type": "address"
        },
        {
          "internalType": "uint256",
          "name": "tokenId",
          "type": "uint256"
        },
        {
          "internalType": "bytes",
          "name": "_data",
          "type": "bytes"
        }
      ],
      "name": "safeTransferFrom",
      "outputs": [],
      "stateMutability": "nonpayable",
      "type": "function"
    },
    {
      "inputs": [
        {
          "internalType": "address",
          "name": "operator",
          "type": "address"
        },
        {
          "internalType": "bool",
          "name": "approved",
          "type": "bool"
        }
      ],
      "name": "setApprovalForAll",
      "outputs": [],
      "stateMutability": "nonpayable",
      "type": "function"
    },
    {
      "inputs": [
        {
          "internalType": "bytes4",
          "name": "interfaceId",
          "type": "bytes4"
        }
      ],
      "name": "supportsInterface",
      "outputs": [
        {
          "internalType": "bool",
          "name": "",
          "type": "bool"
        }
      ],
      "stateMutability": "view",
      "type": "function",
      "constant": true
    },
    {
      "inputs": [],
      "name": "symbol",
      "outputs": [
        {
          "internalType": "string",
          "name": "",
          "type": "string"
        }
      ],
      "stateMutability": "view",
      "type": "function",
      "constant": true
    },
    {
      "inputs": [
        {
          "internalType": "address",
          "name": "from",
          "type": "address"
        },
        {
          "internalType": "address",
          "name": "to",
          "type": "address"
        },
        {
          "internalType": "uint256",
          "name": "tokenId",
          "type": "uint256"
        }
      ],
      "name": "transferFrom",
      "outputs": [],
      "stateMutability": "nonpayable",
      "type": "function"
    },
    {
      "inputs": [
        {
          "internalType": "address",
          "name": "newOwner",
          "type": "address"
        }
      ],
      "name": "transferOwnership",
      "outputs": [],
      "stateMutability": "nonpayable",
      "type": "function"
    },
    {
      "inputs": [
        {
          "internalType": "string",
          "name": "baseURI",
          "type": "string"
        }
      ],
      "name": "setBaseURI",
      "outputs": [],
      "stateMutability": "nonpayable",
      "type": "function"
    },
    {
      "inputs": [
        {
          "internalType": "uint256",
          "name": "mintAmount",
          "type": "uint256"
        }
      ],
      "name": "mint",
      "outputs": [],
      "stateMutability": "payable",
      "type": "function",
      "payable": true
    },
    {
      "inputs": [
        {
          "internalType": "uint256",
          "name": "tokenId",
          "type": "uint256"
        }
      ],
      "name": "tokenURI",
      "outputs": [
        {
          "internalType": "string",
          "name": "",
          "type": "string"
        }
      ],
      "stateMutability": "view",
      "type": "function",
      "constant": true
    },
    {
      "inputs": [
        {
          "internalType": "uint256",
          "name": "tokenId",
          "type": "uint256"
        }
      ],
      "name": "burn",
      "outputs": [],
      "stateMutability": "nonpayable",
      "type": "function"
    },
    {
      "inputs": [],
      "name": "totalSupply",
      "outputs": [
        {
          "internalType": "uint256",
          "name": "",
          "type": "uint256"
        }
      ],
      "stateMutability": "view",
      "type": "function",
      "constant": true
    },
    {
      "inputs": [
        {
          "internalType": "address",
          "name": "owner",
          "type": "address"
        }
      ],
      "name": "getTokensOwnedBy",
      "outputs": [
        {
          "internalType": "bool[]",
          "name": "",
          "type": "bool[]"
        }
      ],
      "stateMutability": "view",
      "type": "function",
      "constant": true
    }
  ],
  "bytecode": "0x608060405260405180606001604052806040815260200162003b40604091396008908051906020019062000035929190620002f4565b50666a94d74f430000600955611f2c600a556014600b556000600c556000600d553480156200006357600080fd5b506040518060400160405280600881526020017f4c6176614c616d700000000000000000000000000000000000000000000000008152506040518060400160405280600881526020017f4c4156414c414d50000000000000000000000000000000000000000000000000815250620000f0620000e46200015460201b60201c565b6200015c60201b60201c565b816001908051906020019062000108929190620002f4565b50806002908051906020019062000121929190620002f4565b5050506200014e60405180606001604052806036815260200162003b80603691396200022060201b60201c565b6200048c565b600033905090565b60008060009054906101000a900473ffffffffffffffffffffffffffffffffffffffff169050816000806101000a81548173ffffffffffffffffffffffffffffffffffffffff021916908373ffffffffffffffffffffffffffffffffffffffff1602179055508173ffffffffffffffffffffffffffffffffffffffff168173ffffffffffffffffffffffffffffffffffffffff167f8be0079c531659141344cd1fd0a4f28419497f9722a3daafe3b4186f6b6457e060405160405180910390a35050565b620002306200015460201b60201c565b73ffffffffffffffffffffffffffffffffffffffff1662000256620002cb60201b60201c565b73ffffffffffffffffffffffffffffffffffffffff1614620002af576040517f08c379a0000000000000000000000000000000000000000000000000000000008152600401620002a69062000405565b60405180910390fd5b8060079080519060200190620002c7929190620002f4565b5050565b60008060009054906101000a900473ffffffffffffffffffffffffffffffffffffffff16905090565b828054620003029062000456565b90600052602060002090601f01602090048101928262000326576000855562000372565b82601f106200034157805160ff191683800117855562000372565b8280016001018555821562000372579182015b828111156200037157825182559160200191906001019062000354565b5b50905062000381919062000385565b5090565b5b80821115620003a057600081600090555060010162000386565b5090565b600082825260208201905092915050565b7f4f776e61626c653a2063616c6c6572206973206e6f7420746865206f776e6572600082015250565b6000620003ed602083620003a4565b9150620003fa82620003b5565b602082019050919050565b600060208201905081810360008301526200042081620003de565b9050919050565b7f4e487b7100000000000000000000000000000000000000000000000000000000600052602260045260246000fd5b600060028204905060018216806200046f57607f821691505b6020821081141562000486576200048562000427565b5b50919050565b6136a4806200049c6000396000f3fe60806040526004361061014b5760003560e01c80636352211e116100b6578063a0712d681161006f578063a0712d6814610492578063a22cb465146104ae578063b88d4fde146104d7578063c87b56dd14610500578063e985e9c51461053d578063f2fde38b1461057a5761014b565b80636352211e1461038057806370a08231146103bd578063715018a6146103fa5780638da5cb5b1461041157806395d89b411461043c5780639bbc35f8146104675761014b565b806323b872dd1161010857806323b872dd146102745780633d4392c01461029d57806342842e0e146102da57806342966c6814610303578063524773ce1461032c57806355f804b3146103575761014b565b806301ffc9a71461015057806306fdde031461018d578063081812fc146101b8578063095ea7b3146101f55780630f7309e81461021e57806318160ddd14610249575b600080fd5b34801561015c57600080fd5b50610177600480360381019061017291906121d6565b6105a3565b604051610184919061221e565b60405180910390f35b34801561019957600080fd5b506101a2610685565b6040516101af91906122d2565b60405180910390f35b3480156101c457600080fd5b506101df60048036038101906101da919061232a565b610717565b6040516101ec9190612398565b60405180910390f35b34801561020157600080fd5b5061021c600480360381019061021791906123df565b61079c565b005b34801561022a57600080fd5b506102336108b4565b60405161024091906122d2565b60405180910390f35b34801561025557600080fd5b5061025e610942565b60405161026b919061242e565b60405180910390f35b34801561028057600080fd5b5061029b60048036038101906102969190612449565b610959565b005b3480156102a957600080fd5b506102c460048036038101906102bf919061249c565b6109b9565b6040516102d19190612587565b60405180910390f35b3480156102e657600080fd5b5061030160048036038101906102fc9190612449565b610ace565b005b34801561030f57600080fd5b5061032a6004803603810190610325919061232a565b610aee565b005b34801561033857600080fd5b50610341610b62565b60405161034e919061242e565b60405180910390f35b34801561036357600080fd5b5061037e600480360381019061037991906126de565b610b68565b005b34801561038c57600080fd5b506103a760048036038101906103a2919061232a565b610bfe565b6040516103b49190612398565b60405180910390f35b3480156103c957600080fd5b506103e460048036038101906103df919061249c565b610cb0565b6040516103f1919061242e565b60405180910390f35b34801561040657600080fd5b5061040f610d68565b005b34801561041d57600080fd5b50610426610df0565b6040516104339190612398565b60405180910390f35b34801561044857600080fd5b50610451610e19565b60405161045e91906122d2565b60405180910390f35b34801561047357600080fd5b5061047c610eab565b604051610489919061242e565b60405180910390f35b6104ac60048036038101906104a7919061232a565b610eb1565b005b3480156104ba57600080fd5b506104d560048036038101906104d09190612753565b610fd3565b005b3480156104e357600080fd5b506104fe60048036038101906104f99190612834565b610fe9565b005b34801561050c57600080fd5b506105276004803603810190610522919061232a565b61104b565b60405161053491906122d2565b60405180910390f35b34801561054957600080fd5b50610564600480360381019061055f91906128b7565b6110f2565b604051610571919061221e565b60405180910390f35b34801561058657600080fd5b506105a1600480360381019061059c919061249c565b611186565b005b60007f80ac58cd000000000000000000000000000000000000000000000000000000007bffffffffffffffffffffffffffffffffffffffffffffffffffffffff1916827bffffffffffffffffffffffffffffffffffffffffffffffffffffffff1916148061066e57507f5b5e139f000000000000000000000000000000000000000000000000000000007bffffffffffffffffffffffffffffffffffffffffffffffffffffffff1916827bffffffffffffffffffffffffffffffffffffffffffffffffffffffff1916145b8061067e575061067d8261127e565b5b9050919050565b60606001805461069490612926565b80601f01602080910402602001604051908101604052809291908181526020018280546106c090612926565b801561070d5780601f106106e25761010080835404028352916020019161070d565b820191906000526020600020905b8154815290600101906020018083116106f057829003601f168201915b5050505050905090565b6000610722826112e8565b610761576040517f08c379a0000000000000000000000000000000000000000000000000000000008152600401610758906129ca565b60405180910390fd5b6005600083815260200190815260200160002060009054906101000a900473ffffffffffffffffffffffffffffffffffffffff169050919050565b60006107a782610bfe565b90508073ffffffffffffffffffffffffffffffffffffffff168373ffffffffffffffffffffffffffffffffffffffff161415610818576040517f08c379a000000000000000000000000000000000000000000000000000000000815260040161080f90612a5c565b60405180910390fd5b8073ffffffffffffffffffffffffffffffffffffffff16610837611354565b73ffffffffffffffffffffffffffffffffffffffff161480610866575061086581610860611354565b6110f2565b5b6108a5576040517f08c379a000000000000000000000000000000000000000000000000000000000815260040161089c90612aee565b60405180910390fd5b6108af838361135c565b505050565b600880546108c190612926565b80601f01602080910402602001604051908101604052809291908181526020018280546108ed90612926565b801561093a5780601f1061090f5761010080835404028352916020019161093a565b820191906000526020600020905b81548152906001019060200180831161091d57829003601f168201915b505050505081565b6000600c54600d546109549190612b3d565b905090565b61096a610964611354565b82611415565b6109a9576040517f08c379a00000000000000000000000000000000000000000000000000000000081526004016109a090612be3565b60405180910390fd5b6109b48383836114f3565b505050565b60606000600a5467ffffffffffffffff8111156109d9576109d86125b3565b5b604051908082528060200260200182016040528015610a075781602001602082028036833780820191505090505b50905060005b600a54811015610ac4576000828281518110610a2c57610a2b612c03565b5b602002602001019015159081151581525050610a47816112e8565b15610ab1578373ffffffffffffffffffffffffffffffffffffffff16610a6c82610bfe565b73ffffffffffffffffffffffffffffffffffffffff161415610ab0576001828281518110610a9d57610a9c612c03565b5b6020026020010190151590811515815250505b5b8080610abc90612c32565b915050610a0d565b5080915050919050565b610ae983838360405180602001604052806000815250610fe9565b505050565b610aff610af9611354565b82611415565b610b3e576040517f08c379a0000000000000000000000000000000000000000000000000000000008152600401610b3590612ced565b60405180910390fd5b610b478161174f565b600c6000815480929190610b5a90612c32565b919050555050565b600c5481565b610b70611354565b73ffffffffffffffffffffffffffffffffffffffff16610b8e610df0565b73ffffffffffffffffffffffffffffffffffffffff1614610be4576040517f08c379a0000000000000000000000000000000000000000000000000000000008152600401610bdb90612d59565b60405180910390fd5b8060079080519060200190610bfa9291906120c7565b5050565b6000806003600084815260200190815260200160002060009054906101000a900473ffffffffffffffffffffffffffffffffffffffff169050600073ffffffffffffffffffffffffffffffffffffffff168173ffffffffffffffffffffffffffffffffffffffff161415610ca7576040517f08c379a0000000000000000000000000000000000000000000000000000000008152600401610c9e90612deb565b60405180910390fd5b80915050919050565b60008073ffffffffffffffffffffffffffffffffffffffff168273ffffffffffffffffffffffffffffffffffffffff161415610d21576040517f08c379a0000000000000000000000000000000000000000000000000000000008152600401610d1890612e7d565b60405180910390fd5b600460008373ffffffffffffffffffffffffffffffffffffffff1673ffffffffffffffffffffffffffffffffffffffff168152602001908152602001600020549050919050565b610d70611354565b73ffffffffffffffffffffffffffffffffffffffff16610d8e610df0565b73ffffffffffffffffffffffffffffffffffffffff1614610de4576040517f08c379a0000000000000000000000000000000000000000000000000000000008152600401610ddb90612d59565b60405180910390fd5b610dee6000611860565b565b60008060009054906101000a900473ffffffffffffffffffffffffffffffffffffffff16905090565b606060028054610e2890612926565b80601f0160208091040260200160405190810160405280929190818152602001828054610e5490612926565b8015610ea15780601f10610e7657610100808354040283529160200191610ea1565b820191906000526020600020905b815481529060010190602001808311610e8457829003601f168201915b5050505050905090565b600d5481565b600081600954610ec19190612e9d565b9050610ecb610df0565b73ffffffffffffffffffffffffffffffffffffffff163373ffffffffffffffffffffffffffffffffffffffff1614610f0b5780341015610f0a57600080fd5b5b6000600190505b828111610f5057610f2533600d54611924565b600d6000815480929190610f3890612c32565b91905055508080610f4890612c32565b915050610f12565b506000610f5b610df0565b73ffffffffffffffffffffffffffffffffffffffff1647604051610f7e90612f28565b60006040518083038185875af1925050503d8060008114610fbb576040519150601f19603f3d011682016040523d82523d6000602084013e610fc0565b606091505b5050905080610fce57600080fd5b505050565b610fe5610fde611354565b8383611942565b5050565b610ffa610ff4611354565b83611415565b611039576040517f08c379a000000000000000000000000000000000000000000000000000000000815260040161103090612be3565b60405180910390fd5b61104584848484611aaf565b50505050565b6060611056826112e8565b611095576040517f08c379a000000000000000000000000000000000000000000000000000000000815260040161108c90612faf565b60405180910390fd5b600061109f611b0b565b905060008151116110bf57604051806020016040528060008152506110ea565b806110c984611b9d565b6040516020016110da929190613057565b6040516020818303038152906040525b915050919050565b6000600660008473ffffffffffffffffffffffffffffffffffffffff1673ffffffffffffffffffffffffffffffffffffffff16815260200190815260200160002060008373ffffffffffffffffffffffffffffffffffffffff1673ffffffffffffffffffffffffffffffffffffffff16815260200190815260200160002060009054906101000a900460ff16905092915050565b61118e611354565b73ffffffffffffffffffffffffffffffffffffffff166111ac610df0565b73ffffffffffffffffffffffffffffffffffffffff1614611202576040517f08c379a00000000000000000000000000000000000000000000000000000000081526004016111f990612d59565b60405180910390fd5b600073ffffffffffffffffffffffffffffffffffffffff168173ffffffffffffffffffffffffffffffffffffffff161415611272576040517f08c379a0000000000000000000000000000000000000000000000000000000008152600401611269906130f8565b60405180910390fd5b61127b81611860565b50565b60007f01ffc9a7000000000000000000000000000000000000000000000000000000007bffffffffffffffffffffffffffffffffffffffffffffffffffffffff1916827bffffffffffffffffffffffffffffffffffffffffffffffffffffffff1916149050919050565b60008073ffffffffffffffffffffffffffffffffffffffff166003600084815260200190815260200160002060009054906101000a900473ffffffffffffffffffffffffffffffffffffffff1673ffffffffffffffffffffffffffffffffffffffff1614159050919050565b600033905090565b816005600083815260200190815260200160002060006101000a81548173ffffffffffffffffffffffffffffffffffffffff021916908373ffffffffffffffffffffffffffffffffffffffff160217905550808273ffffffffffffffffffffffffffffffffffffffff166113cf83610bfe565b73ffffffffffffffffffffffffffffffffffffffff167f8c5be1e5ebec7d5bd14f71427d1e84f3dd0314c0f7b2291e5b200ac8c7c3b92560405160405180910390a45050565b6000611420826112e8565b61145f576040517f08c379a00000000000000000000000000000000000000000000000000000000081526004016114569061318a565b60405180910390fd5b600061146a83610bfe565b90508073ffffffffffffffffffffffffffffffffffffffff168473ffffffffffffffffffffffffffffffffffffffff1614806114d957508373ffffffffffffffffffffffffffffffffffffffff166114c184610717565b73ffffffffffffffffffffffffffffffffffffffff16145b806114ea57506114e981856110f2565b5b91505092915050565b8273ffffffffffffffffffffffffffffffffffffffff1661151382610bfe565b73ffffffffffffffffffffffffffffffffffffffff1614611569576040517f08c379a00000000000000000000000000000000000000000000000000000000081526004016115609061321c565b60405180910390fd5b600073ffffffffffffffffffffffffffffffffffffffff168273ffffffffffffffffffffffffffffffffffffffff1614156115d9576040517f08c379a00000000000000000000000000000000000000000000000000000000081526004016115d0906132ae565b60405180910390fd5b6115e4838383611cfe565b6115ef60008261135c565b6001600460008573ffffffffffffffffffffffffffffffffffffffff1673ffffffffffffffffffffffffffffffffffffffff168152602001908152602001600020600082825461163f9190612b3d565b925050819055506001600460008473ffffffffffffffffffffffffffffffffffffffff1673ffffffffffffffffffffffffffffffffffffffff168152602001908152602001600020600082825461169691906132ce565b92505081905550816003600083815260200190815260200160002060006101000a81548173ffffffffffffffffffffffffffffffffffffffff021916908373ffffffffffffffffffffffffffffffffffffffff160217905550808273ffffffffffffffffffffffffffffffffffffffff168473ffffffffffffffffffffffffffffffffffffffff167fddf252ad1be2c89b69c2b068fc378daa952ba7f163c4a11628f55a4df523b3ef60405160405180910390a4505050565b600061175a82610bfe565b905061176881600084611cfe565b61177360008361135c565b6001600460008373ffffffffffffffffffffffffffffffffffffffff1673ffffffffffffffffffffffffffffffffffffffff16815260200190815260200160002060008282546117c39190612b3d565b925050819055506003600083815260200190815260200160002060006101000a81549073ffffffffffffffffffffffffffffffffffffffff021916905581600073ffffffffffffffffffffffffffffffffffffffff168273ffffffffffffffffffffffffffffffffffffffff167fddf252ad1be2c89b69c2b068fc378daa952ba7f163c4a11628f55a4df523b3ef60405160405180910390a45050565b60008060009054906101000a900473ffffffffffffffffffffffffffffffffffffffff169050816000806101000a81548173ffffffffffffffffffffffffffffffffffffffff021916908373ffffffffffffffffffffffffffffffffffffffff1602179055508173ffffffffffffffffffffffffffffffffffffffff168173ffffffffffffffffffffffffffffffffffffffff167f8be0079c531659141344cd1fd0a4f28419497f9722a3daafe3b4186f6b6457e060405160405180910390a35050565b61193e828260405180602001604052806000815250611d03565b5050565b8173ffffffffffffffffffffffffffffffffffffffff168373ffffffffffffffffffffffffffffffffffffffff1614156119b1576040517f08c379a00000000000000000000000000000000000000000000000000000000081526004016119a890613370565b60405180910390fd5b80600660008573ffffffffffffffffffffffffffffffffffffffff1673ffffffffffffffffffffffffffffffffffffffff16815260200190815260200160002060008473ffffffffffffffffffffffffffffffffffffffff1673ffffffffffffffffffffffffffffffffffffffff16815260200190815260200160002060006101000a81548160ff0219169083151502179055508173ffffffffffffffffffffffffffffffffffffffff168373ffffffffffffffffffffffffffffffffffffffff167f17307eab39ab6107e8899845ad3d59bd9653f200f220920489ca2b5937696c3183604051611aa2919061221e565b60405180910390a3505050565b611aba8484846114f3565b611ac684848484611d5e565b611b05576040517f08c379a0000000000000000000000000000000000000000000000000000000008152600401611afc90613402565b60405180910390fd5b50505050565b606060078054611b1a90612926565b80601f0160208091040260200160405190810160405280929190818152602001828054611b4690612926565b8015611b935780601f10611b6857610100808354040283529160200191611b93565b820191906000526020600020905b815481529060010190602001808311611b7657829003601f168201915b5050505050905090565b60606000821415611be5576040518060400160405280600181526020017f30000000000000000000000000000000000000000000000000000000000000008152509050611cf9565b600082905060005b60008214611c17578080611c0090612c32565b915050600a82611c109190613451565b9150611bed565b60008167ffffffffffffffff811115611c3357611c326125b3565b5b6040519080825280601f01601f191660200182016040528015611c655781602001600182028036833780820191505090505b5090505b60008514611cf257600182611c7e9190612b3d565b9150600a85611c8d9190613482565b6030611c9991906132ce565b60f81b818381518110611caf57611cae612c03565b5b60200101907effffffffffffffffffffffffffffffffffffffffffffffffffffffffffffff1916908160001a905350600a85611ceb9190613451565b9450611c69565b8093505050505b919050565b505050565b611d0d8383611ee6565b611d1a6000848484611d5e565b611d59576040517f08c379a0000000000000000000000000000000000000000000000000000000008152600401611d5090613402565b60405180910390fd5b505050565b6000611d7f8473ffffffffffffffffffffffffffffffffffffffff166120b4565b15611ed9578373ffffffffffffffffffffffffffffffffffffffff1663150b7a02611da8611354565b8786866040518563ffffffff1660e01b8152600401611dca9493929190613508565b6020604051808303816000875af1925050508015611e0657506040513d601f19601f82011682018060405250810190611e039190613569565b60015b611e89573d8060008114611e36576040519150601f19603f3d011682016040523d82523d6000602084013e611e3b565b606091505b50600081511415611e81576040517f08c379a0000000000000000000000000000000000000000000000000000000008152600401611e7890613402565b60405180910390fd5b805181602001fd5b63150b7a0260e01b7bffffffffffffffffffffffffffffffffffffffffffffffffffffffff1916817bffffffffffffffffffffffffffffffffffffffffffffffffffffffff191614915050611ede565b600190505b949350505050565b600073ffffffffffffffffffffffffffffffffffffffff168273ffffffffffffffffffffffffffffffffffffffff161415611f56576040517f08c379a0000000000000000000000000000000000000000000000000000000008152600401611f4d906135e2565b60405180910390fd5b611f5f816112e8565b15611f9f576040517f08c379a0000000000000000000000000000000000000000000000000000000008152600401611f969061364e565b60405180910390fd5b611fab60008383611cfe565b6001600460008473ffffffffffffffffffffffffffffffffffffffff1673ffffffffffffffffffffffffffffffffffffffff1681526020019081526020016000206000828254611ffb91906132ce565b92505081905550816003600083815260200190815260200160002060006101000a81548173ffffffffffffffffffffffffffffffffffffffff021916908373ffffffffffffffffffffffffffffffffffffffff160217905550808273ffffffffffffffffffffffffffffffffffffffff16600073ffffffffffffffffffffffffffffffffffffffff167fddf252ad1be2c89b69c2b068fc378daa952ba7f163c4a11628f55a4df523b3ef60405160405180910390a45050565b600080823b905060008111915050919050565b8280546120d390612926565b90600052602060002090601f0160209004810192826120f5576000855561213c565b82601f1061210e57805160ff191683800117855561213c565b8280016001018555821561213c579182015b8281111561213b578251825591602001919060010190612120565b5b509050612149919061214d565b5090565b5b8082111561216657600081600090555060010161214e565b5090565b6000604051905090565b600080fd5b600080fd5b60007fffffffff0000000000000000000000000000000000000000000000000000000082169050919050565b6121b38161217e565b81146121be57600080fd5b50565b6000813590506121d0816121aa565b92915050565b6000602082840312156121ec576121eb612174565b5b60006121fa848285016121c1565b91505092915050565b60008115159050919050565b61221881612203565b82525050565b6000602082019050612233600083018461220f565b92915050565b600081519050919050565b600082825260208201905092915050565b60005b83811015612273578082015181840152602081019050612258565b83811115612282576000848401525b50505050565b6000601f19601f8301169050919050565b60006122a482612239565b6122ae8185612244565b93506122be818560208601612255565b6122c781612288565b840191505092915050565b600060208201905081810360008301526122ec8184612299565b905092915050565b6000819050919050565b612307816122f4565b811461231257600080fd5b50565b600081359050612324816122fe565b92915050565b6000602082840312156123405761233f612174565b5b600061234e84828501612315565b91505092915050565b600073ffffffffffffffffffffffffffffffffffffffff82169050919050565b600061238282612357565b9050919050565b61239281612377565b82525050565b60006020820190506123ad6000830184612389565b92915050565b6123bc81612377565b81146123c757600080fd5b50565b6000813590506123d9816123b3565b92915050565b600080604083850312156123f6576123f5612174565b5b6000612404858286016123ca565b925050602061241585828601612315565b9150509250929050565b612428816122f4565b82525050565b6000602082019050612443600083018461241f565b92915050565b60008060006060848603121561246257612461612174565b5b6000612470868287016123ca565b9350506020612481868287016123ca565b925050604061249286828701612315565b9150509250925092565b6000602082840312156124b2576124b1612174565b5b60006124c0848285016123ca565b91505092915050565b600081519050919050565b600082825260208201905092915050565b6000819050602082019050919050565b6124fe81612203565b82525050565b600061251083836124f5565b60208301905092915050565b6000602082019050919050565b6000612534826124c9565b61253e81856124d4565b9350612549836124e5565b8060005b8381101561257a5781516125618882612504565b975061256c8361251c565b92505060018101905061254d565b5085935050505092915050565b600060208201905081810360008301526125a18184612529565b905092915050565b600080fd5b600080fd5b7f4e487b7100000000000000000000000000000000000000000000000000000000600052604160045260246000fd5b6125eb82612288565b810181811067ffffffffffffffff8211171561260a576126096125b3565b5b80604052505050565b600061261d61216a565b905061262982826125e2565b919050565b600067ffffffffffffffff821115612649576126486125b3565b5b61265282612288565b9050602081019050919050565b82818337600083830152505050565b600061268161267c8461262e565b612613565b90508281526020810184848401111561269d5761269c6125ae565b5b6126a884828561265f565b509392505050565b600082601f8301126126c5576126c46125a9565b5b81356126d584826020860161266e565b91505092915050565b6000602082840312156126f4576126f3612174565b5b600082013567ffffffffffffffff81111561271257612711612179565b5b61271e848285016126b0565b91505092915050565b61273081612203565b811461273b57600080fd5b50565b60008135905061274d81612727565b92915050565b6000806040838503121561276a57612769612174565b5b6000612778858286016123ca565b92505060206127898582860161273e565b9150509250929050565b600067ffffffffffffffff8211156127ae576127ad6125b3565b5b6127b782612288565b9050602081019050919050565b60006127d76127d284612793565b612613565b9050828152602081018484840111156127f3576127f26125ae565b5b6127fe84828561265f565b509392505050565b600082601f83011261281b5761281a6125a9565b5b813561282b8482602086016127c4565b91505092915050565b6000806000806080858703121561284e5761284d612174565b5b600061285c878288016123ca565b945050602061286d878288016123ca565b935050604061287e87828801612315565b925050606085013567ffffffffffffffff81111561289f5761289e612179565b5b6128ab87828801612806565b91505092959194509250565b600080604083850312156128ce576128cd612174565b5b60006128dc858286016123ca565b92505060206128ed858286016123ca565b9150509250929050565b7f4e487b7100000000000000000000000000000000000000000000000000000000600052602260045260246000fd5b6000600282049050600182168061293e57607f821691505b60208210811415612952576129516128f7565b5b50919050565b7f4552433732313a20617070726f76656420717565727920666f72206e6f6e657860008201527f697374656e7420746f6b656e0000000000000000000000000000000000000000602082015250565b60006129b4602c83612244565b91506129bf82612958565b604082019050919050565b600060208201905081810360008301526129e3816129a7565b9050919050565b7f4552433732313a20617070726f76616c20746f2063757272656e74206f776e6560008201527f7200000000000000000000000000000000000000000000000000000000000000602082015250565b6000612a46602183612244565b9150612a51826129ea565b604082019050919050565b60006020820190508181036000830152612a7581612a39565b9050919050565b7f4552433732313a20617070726f76652063616c6c6572206973206e6f74206f7760008201527f6e6572206e6f7220617070726f76656420666f7220616c6c0000000000000000602082015250565b6000612ad8603883612244565b9150612ae382612a7c565b604082019050919050565b60006020820190508181036000830152612b0781612acb565b9050919050565b7f4e487b7100000000000000000000000000000000000000000000000000000000600052601160045260246000fd5b6000612b48826122f4565b9150612b53836122f4565b925082821015612b6657612b65612b0e565b5b828203905092915050565b7f4552433732313a207472616e736665722063616c6c6572206973206e6f74206f60008201527f776e6572206e6f7220617070726f766564000000000000000000000000000000602082015250565b6000612bcd603183612244565b9150612bd882612b71565b604082019050919050565b60006020820190508181036000830152612bfc81612bc0565b9050919050565b7f4e487b7100000000000000000000000000000000000000000000000000000000600052603260045260246000fd5b6000612c3d826122f4565b91507fffffffffffffffffffffffffffffffffffffffffffffffffffffffffffffffff821415612c7057612c6f612b0e565b5b600182019050919050565b7f4552433732314275726e61626c653a2063616c6c6572206973206e6f74206f7760008201527f6e6572206e6f7220617070726f76656400000000000000000000000000000000602082015250565b6000612cd7603083612244565b9150612ce282612c7b565b604082019050919050565b60006020820190508181036000830152612d0681612cca565b9050919050565b7f4f776e61626c653a2063616c6c6572206973206e6f7420746865206f776e6572600082015250565b6000612d43602083612244565b9150612d4e82612d0d565b602082019050919050565b60006020820190508181036000830152612d7281612d36565b9050919050565b7f4552433732313a206f776e657220717565727920666f72206e6f6e657869737460008201527f656e7420746f6b656e0000000000000000000000000000000000000000000000602082015250565b6000612dd5602983612244565b9150612de082612d79565b604082019050919050565b60006020820190508181036000830152612e0481612dc8565b9050919050565b7f4552433732313a2062616c616e636520717565727920666f7220746865207a6560008201527f726f206164647265737300000000000000000000000000000000000000000000602082015250565b6000612e67602a83612244565b9150612e7282612e0b565b604082019050919050565b60006020820190508181036000830152612e9681612e5a565b9050919050565b6000612ea8826122f4565b9150612eb3836122f4565b9250817fffffffffffffffffffffffffffffffffffffffffffffffffffffffffffffffff0483118215151615612eec57612eeb612b0e565b5b828202905092915050565b600081905092915050565b50565b6000612f12600083612ef7565b9150612f1d82612f02565b600082019050919050565b6000612f3382612f05565b9150819050919050565b7f4552433732314d657461646174613a2055524920717565727920666f72206e6f60008201527f6e6578697374656e7420746f6b656e0000000000000000000000000000000000602082015250565b6000612f99602f83612244565b9150612fa482612f3d565b604082019050919050565b60006020820190508181036000830152612fc881612f8c565b9050919050565b600081905092915050565b6000612fe582612239565b612fef8185612fcf565b9350612fff818560208601612255565b80840191505092915050565b7f2e6a736f6e000000000000000000000000000000000000000000000000000000600082015250565b6000613041600583612fcf565b915061304c8261300b565b600582019050919050565b60006130638285612fda565b915061306f8284612fda565b915061307a82613034565b91508190509392505050565b7f4f776e61626c653a206e6577206f776e657220697320746865207a65726f206160008201527f6464726573730000000000000000000000000000000000000000000000000000602082015250565b60006130e2602683612244565b91506130ed82613086565b604082019050919050565b60006020820190508181036000830152613111816130d5565b9050919050565b7f4552433732313a206f70657261746f7220717565727920666f72206e6f6e657860008201527f697374656e7420746f6b656e0000000000000000000000000000000000000000602082015250565b6000613174602c83612244565b915061317f82613118565b604082019050919050565b600060208201905081810360008301526131a381613167565b9050919050565b7f4552433732313a207472616e73666572206f6620746f6b656e2074686174206960008201527f73206e6f74206f776e0000000000000000000000000000000000000000000000602082015250565b6000613206602983612244565b9150613211826131aa565b604082019050919050565b60006020820190508181036000830152613235816131f9565b9050919050565b7f4552433732313a207472616e7366657220746f20746865207a65726f2061646460008201527f7265737300000000000000000000000000000000000000000000000000000000602082015250565b6000613298602483612244565b91506132a38261323c565b604082019050919050565b600060208201905081810360008301526132c78161328b565b9050919050565b60006132d9826122f4565b91506132e4836122f4565b9250827fffffffffffffffffffffffffffffffffffffffffffffffffffffffffffffffff0382111561331957613318612b0e565b5b828201905092915050565b7f4552433732313a20617070726f766520746f2063616c6c657200000000000000600082015250565b600061335a601983612244565b915061336582613324565b602082019050919050565b600060208201905081810360008301526133898161334d565b9050919050565b7f4552433732313a207472616e7366657220746f206e6f6e20455243373231526560008201527f63656976657220696d706c656d656e7465720000000000000000000000000000602082015250565b60006133ec603283612244565b91506133f782613390565b604082019050919050565b6000602082019050818103600083015261341b816133df565b9050919050565b7f4e487b7100000000000000000000000000000000000000000000000000000000600052601260045260246000fd5b600061345c826122f4565b9150613467836122f4565b92508261347757613476613422565b5b828204905092915050565b600061348d826122f4565b9150613498836122f4565b9250826134a8576134a7613422565b5b828206905092915050565b600081519050919050565b600082825260208201905092915050565b60006134da826134b3565b6134e481856134be565b93506134f4818560208601612255565b6134fd81612288565b840191505092915050565b600060808201905061351d6000830187612389565b61352a6020830186612389565b613537604083018561241f565b818103606083015261354981846134cf565b905095945050505050565b600081519050613563816121aa565b92915050565b60006020828403121561357f5761357e612174565b5b600061358d84828501613554565b91505092915050565b7f4552433732313a206d696e7420746f20746865207a65726f2061646472657373600082015250565b60006135cc602083612244565b91506135d782613596565b602082019050919050565b600060208201905081810360008301526135fb816135bf565b9050919050565b7f4552433732313a20746f6b656e20616c7265616479206d696e74656400000000600082015250565b6000613638601c83612244565b915061364382613602565b602082019050919050565b600060208201905081810360008301526136678161362b565b905091905056fea2646970667358221220b6b8ca7a13d0dd0b1fe52cead28fad66532c0628c4a5f25d87fe5fa94b03638c64736f6c634300080b003337326135393331336638366339643864393536666566336664363164613033313064653466656632323131633936663137393839363830663932386435636130697066733a2f2f516d57684b48454d4a516161566f6134645951776934765a475a4e78416754564d566b4a434158387555704b796e2f",
  "immutableReferences": {},
  "source": "// SPDX-License-Identifier: MIT\npragma solidity >=0.4.22 <0.9.0;\n\nimport \"@openzeppelin/contracts/access/Ownable.sol\";\nimport \"@openzeppelin/contracts/token/ERC721/ERC721.sol\";\n\n// truffle migrate --reset --network rinkeby\ncontract LavaLamp is Ownable, ERC721 {\n    using Strings for uint256;\n    string private currentBaseURI;\n    string public provenance = \"72a59313f86c9d8d956fef3fd61da0310de4fef2211c96f17989680f928d5ca0\";\n\n    uint256 private cost = 0.03 ether;\n    uint256 private maxSupply = 7980;\n    uint256 private maxMintAmount = 20;\n\n    uint256 public burnCount = 0;\n    uint256 public lampsMinted = 0;\n\n    // string memory provenanceHash\n    constructor() ERC721(\"LavaLamp\", \"LAVALAMP\") {\n        // \"http://localhost:3000/token/\"\n        // setBaseURI(\"http://www.websitename.com/token/\");\n        // ipfs://{cid}/\n        setBaseURI(\"ipfs://QmWhKHEMJQaaVoa4dYQwi4vZGZNxAgTVMVkJCAX8uUpKyn/\");\n    }\n\n    function setBaseURI(string memory baseURI) public onlyOwner {\n        currentBaseURI = baseURI;\n    }\n\n    function _baseURI() internal view virtual override returns (string memory) {\n        return currentBaseURI;\n    }\n\n    function mint(uint256 mintAmount) public payable {\n        //require(mintAmount > 0, 'mint amount cannot be 0');\n        //require(mintAmount <= maxMintAmount, 'mint amount cannot be greater than 20');\n        //require(lampsMinted + mintAmount <= maxSupply, 'minting will go over total supply of 7980 lamps');\n        uint256 price = cost * mintAmount;\n\n        if (msg.sender != owner())\n            require(msg.value >= price);\n\n        for (uint256 i = 1; i <= mintAmount; i++) {\n            _safeMint(msg.sender, lampsMinted);\n            lampsMinted++;\n        }\n\n        // (bool hs, ) = payable(0x0).call{value: address(this).balance * 5 / 100}(\"\");\n        (bool success, ) = payable(owner()).call{value: address(this).balance}(\"\");\n        require(success);\n    }\n\n    /*function withdraw() public payable onlyOwner {\n      // (bool hs, ) = payable(0x0).call{value: address(this).balance * 5 / 100}(\"\");\n      (bool success, ) = payable(owner()).call{value: address(this).balance}(\"\");\n      require(success);\n    }*/\n\n    function tokenURI(uint256 tokenId) public view virtual override returns (string memory) {\n        require(_exists(tokenId), \"ERC721Metadata: URI query for nonexistent token\");\n\n        string memory curBaseURI = _baseURI();\n        return bytes(curBaseURI).length > 0\n            ? string(abi.encodePacked(curBaseURI, tokenId.toString(), \".json\"))\n            : \"\";\n    }\n\n    // allows the user to burn their lamps and there is a count of burned lamps\n    function burn(uint256 tokenId) public {\n        //solhint-disable-next-line max-line-length\n        require(_isApprovedOrOwner(_msgSender(), tokenId), \"ERC721Burnable: caller is not owner nor approved\");\n        _burn(tokenId);\n        burnCount++;\n    }\n\n    function totalSupply() external view returns (uint256) {\n        return lampsMinted - burnCount;\n    }\n\n    // returns a boolean array of all all possible lamps\n    // every index that is true is a tokenID that is owned by the account\n    function getTokensOwnedBy(address owner) external view returns (bool[] memory) {\n        bool[] memory tokenIds = new bool[](maxSupply);\n\n        for (uint256 i = 0; i < maxSupply; i++) {\n            tokenIds[i] = false; // don't need this, defaults to bool\n\n            if (_exists(i)) {\n                if (ownerOf(i) == owner) {\n                    tokenIds[i] = true;\n                }\n            }\n        }\n\n        return tokenIds;\n    }\n}\n",
  "sourcePath": "/Users/superdorvil/workspace/ReactWorkspace/PersonalProjects/lava-lamp-nft/contracts/LavaLamp.sol",
  "compiler": {
    "name": "solc",
    "version": "0.8.11+commit.d7f03943.Emscripten.clang"
  },
  "schemaVersion": "3.4.3",
  "updatedAt": "2022-01-30T00:48:58.102Z",
  "networkType": "ethereum",
  "devdoc": {
    "kind": "dev",
    "methods": {
      "approve(address,uint256)": {
        "details": "See {IERC721-approve}."
      },
      "balanceOf(address)": {
        "details": "See {IERC721-balanceOf}."
      },
      "getApproved(uint256)": {
        "details": "See {IERC721-getApproved}."
      },
      "isApprovedForAll(address,address)": {
        "details": "See {IERC721-isApprovedForAll}."
      },
      "name()": {
        "details": "See {IERC721Metadata-name}."
      },
      "owner()": {
        "details": "Returns the address of the current owner."
      },
      "ownerOf(uint256)": {
        "details": "See {IERC721-ownerOf}."
      },
      "renounceOwnership()": {
        "details": "Leaves the contract without owner. It will not be possible to call `onlyOwner` functions anymore. Can only be called by the current owner. NOTE: Renouncing ownership will leave the contract without an owner, thereby removing any functionality that is only available to the owner."
      },
      "safeTransferFrom(address,address,uint256)": {
        "details": "See {IERC721-safeTransferFrom}."
      },
      "safeTransferFrom(address,address,uint256,bytes)": {
        "details": "See {IERC721-safeTransferFrom}."
      },
      "setApprovalForAll(address,bool)": {
        "details": "See {IERC721-setApprovalForAll}."
      },
      "supportsInterface(bytes4)": {
        "details": "See {IERC165-supportsInterface}."
      },
      "symbol()": {
        "details": "See {IERC721Metadata-symbol}."
      },
      "tokenURI(uint256)": {
        "details": "See {IERC721Metadata-tokenURI}."
      },
      "transferFrom(address,address,uint256)": {
        "details": "See {IERC721-transferFrom}."
      },
      "transferOwnership(address)": {
        "details": "Transfers ownership of the contract to a new account (`newOwner`). Can only be called by the current owner."
      }
    },
    "version": 1
  },
  "userdoc": {
    "kind": "user",
    "methods": {},
    "version": 1
  }
}