{
  "contractName": "LavaLamp",
  "abi": [
    {
      "inputs": [],
      "stateMutability": "nonpayable",
      "type": "constructor"
    },
    {
      "anonymous": false,
      "inputs": [
        {
          "indexed": true,
          "internalType": "address",
          "name": "owner",
          "type": "address"
        },
        {
          "indexed": true,
          "internalType": "address",
          "name": "approved",
          "type": "address"
        },
        {
          "indexed": true,
          "internalType": "uint256",
          "name": "tokenId",
          "type": "uint256"
        }
      ],
      "name": "Approval",
      "type": "event"
    },
    {
      "anonymous": false,
      "inputs": [
        {
          "indexed": true,
          "internalType": "address",
          "name": "owner",
          "type": "address"
        },
        {
          "indexed": true,
          "internalType": "address",
          "name": "operator",
          "type": "address"
        },
        {
          "indexed": false,
          "internalType": "bool",
          "name": "approved",
          "type": "bool"
        }
      ],
      "name": "ApprovalForAll",
      "type": "event"
    },
    {
      "anonymous": false,
      "inputs": [
        {
          "indexed": true,
          "internalType": "address",
          "name": "previousOwner",
          "type": "address"
        },
        {
          "indexed": true,
          "internalType": "address",
          "name": "newOwner",
          "type": "address"
        }
      ],
      "name": "OwnershipTransferred",
      "type": "event"
    },
    {
      "anonymous": false,
      "inputs": [
        {
          "indexed": true,
          "internalType": "address",
          "name": "from",
          "type": "address"
        },
        {
          "indexed": true,
          "internalType": "address",
          "name": "to",
          "type": "address"
        },
        {
          "indexed": true,
          "internalType": "uint256",
          "name": "tokenId",
          "type": "uint256"
        }
      ],
      "name": "Transfer",
      "type": "event"
    },
    {
      "inputs": [
        {
          "internalType": "address",
          "name": "to",
          "type": "address"
        },
        {
          "internalType": "uint256",
          "name": "tokenId",
          "type": "uint256"
        }
      ],
      "name": "approve",
      "outputs": [],
      "stateMutability": "nonpayable",
      "type": "function"
    },
    {
      "inputs": [
        {
          "internalType": "address",
          "name": "owner",
          "type": "address"
        }
      ],
      "name": "balanceOf",
      "outputs": [
        {
          "internalType": "uint256",
          "name": "",
          "type": "uint256"
        }
      ],
      "stateMutability": "view",
      "type": "function"
    },
    {
      "inputs": [
        {
          "internalType": "uint256",
          "name": "tokenId",
          "type": "uint256"
        }
      ],
      "name": "getApproved",
      "outputs": [
        {
          "internalType": "address",
          "name": "",
          "type": "address"
        }
      ],
      "stateMutability": "view",
      "type": "function"
    },
    {
      "inputs": [
        {
          "internalType": "address",
          "name": "owner",
          "type": "address"
        },
        {
          "internalType": "address",
          "name": "operator",
          "type": "address"
        }
      ],
      "name": "isApprovedForAll",
      "outputs": [
        {
          "internalType": "bool",
          "name": "",
          "type": "bool"
        }
      ],
      "stateMutability": "view",
      "type": "function"
    },
    {
      "inputs": [],
      "name": "name",
      "outputs": [
        {
          "internalType": "string",
          "name": "",
          "type": "string"
        }
      ],
      "stateMutability": "view",
      "type": "function"
    },
    {
      "inputs": [],
      "name": "owner",
      "outputs": [
        {
          "internalType": "address",
          "name": "",
          "type": "address"
        }
      ],
      "stateMutability": "view",
      "type": "function"
    },
    {
      "inputs": [
        {
          "internalType": "uint256",
          "name": "tokenId",
          "type": "uint256"
        }
      ],
      "name": "ownerOf",
      "outputs": [
        {
          "internalType": "address",
          "name": "",
          "type": "address"
        }
      ],
      "stateMutability": "view",
      "type": "function"
    },
    {
      "inputs": [],
      "name": "renounceOwnership",
      "outputs": [],
      "stateMutability": "nonpayable",
      "type": "function"
    },
    {
      "inputs": [
        {
          "internalType": "address",
          "name": "from",
          "type": "address"
        },
        {
          "internalType": "address",
          "name": "to",
          "type": "address"
        },
        {
          "internalType": "uint256",
          "name": "tokenId",
          "type": "uint256"
        }
      ],
      "name": "safeTransferFrom",
      "outputs": [],
      "stateMutability": "nonpayable",
      "type": "function"
    },
    {
      "inputs": [
        {
          "internalType": "address",
          "name": "from",
          "type": "address"
        },
        {
          "internalType": "address",
          "name": "to",
          "type": "address"
        },
        {
          "internalType": "uint256",
          "name": "tokenId",
          "type": "uint256"
        },
        {
          "internalType": "bytes",
          "name": "_data",
          "type": "bytes"
        }
      ],
      "name": "safeTransferFrom",
      "outputs": [],
      "stateMutability": "nonpayable",
      "type": "function"
    },
    {
      "inputs": [
        {
          "internalType": "address",
          "name": "operator",
          "type": "address"
        },
        {
          "internalType": "bool",
          "name": "approved",
          "type": "bool"
        }
      ],
      "name": "setApprovalForAll",
      "outputs": [],
      "stateMutability": "nonpayable",
      "type": "function"
    },
    {
      "inputs": [
        {
          "internalType": "bytes4",
          "name": "interfaceId",
          "type": "bytes4"
        }
      ],
      "name": "supportsInterface",
      "outputs": [
        {
          "internalType": "bool",
          "name": "",
          "type": "bool"
        }
      ],
      "stateMutability": "view",
      "type": "function"
    },
    {
      "inputs": [],
      "name": "symbol",
      "outputs": [
        {
          "internalType": "string",
          "name": "",
          "type": "string"
        }
      ],
      "stateMutability": "view",
      "type": "function"
    },
    {
      "inputs": [
        {
          "internalType": "address",
          "name": "from",
          "type": "address"
        },
        {
          "internalType": "address",
          "name": "to",
          "type": "address"
        },
        {
          "internalType": "uint256",
          "name": "tokenId",
          "type": "uint256"
        }
      ],
      "name": "transferFrom",
      "outputs": [],
      "stateMutability": "nonpayable",
      "type": "function"
    },
    {
      "inputs": [
        {
          "internalType": "address",
          "name": "newOwner",
          "type": "address"
        }
      ],
      "name": "transferOwnership",
      "outputs": [],
      "stateMutability": "nonpayable",
      "type": "function"
    },
    {
      "inputs": [
        {
          "internalType": "uint256",
          "name": "tokenId",
          "type": "uint256"
        }
      ],
      "name": "tokenURI",
      "outputs": [
        {
          "internalType": "string",
          "name": "",
          "type": "string"
        }
      ],
      "stateMutability": "view",
      "type": "function"
    },
    {
      "inputs": [
        {
          "internalType": "string",
          "name": "_tokenURI",
          "type": "string"
        }
      ],
      "name": "claim",
      "outputs": [],
      "stateMutability": "payable",
      "type": "function"
    },
    {
      "inputs": [
        {
          "internalType": "uint256",
          "name": "tokenId",
          "type": "uint256"
        }
      ],
      "name": "get",
      "outputs": [
        {
          "internalType": "uint8",
          "name": "lava_count",
          "type": "uint8"
        },
        {
          "internalType": "uint8",
          "name": "color_1",
          "type": "uint8"
        },
        {
          "internalType": "uint8",
          "name": "color_2",
          "type": "uint8"
        },
        {
          "internalType": "uint8",
          "name": "color_3",
          "type": "uint8"
        },
        {
          "internalType": "uint8",
          "name": "color_4",
          "type": "uint8"
        },
        {
          "internalType": "uint8",
          "name": "base",
          "type": "uint8"
        },
        {
          "internalType": "uint8",
          "name": "background",
          "type": "uint8"
        },
        {
          "internalType": "uint8",
          "name": "sticker",
          "type": "uint8"
        }
      ],
      "stateMutability": "view",
      "type": "function"
    },
    {
      "inputs": [
        {
          "internalType": "uint256",
          "name": "tokenId",
          "type": "uint256"
        }
      ],
      "name": "getMetadata",
      "outputs": [
        {
          "internalType": "uint8[]",
          "name": "",
          "type": "uint8[]"
        }
      ],
      "stateMutability": "view",
      "type": "function"
    }
  ],
  "bytecode": "0x60806040523480156200001157600080fd5b506040518060400160405280600881526020017f4c6176614c616d700000000000000000000000000000000000000000000000008152506040518060400160405280600881526020017f4c4156414c414d500000000000000000000000000000000000000000000000008152506200009e62000092620000d860201b60201c565b620000e060201b60201c565b8160019080519060200190620000b6929190620001a4565b508060029080519060200190620000cf929190620001a4565b505050620002b9565b600033905090565b60008060009054906101000a900473ffffffffffffffffffffffffffffffffffffffff169050816000806101000a81548173ffffffffffffffffffffffffffffffffffffffff021916908373ffffffffffffffffffffffffffffffffffffffff1602179055508173ffffffffffffffffffffffffffffffffffffffff168173ffffffffffffffffffffffffffffffffffffffff167f8be0079c531659141344cd1fd0a4f28419497f9722a3daafe3b4186f6b6457e060405160405180910390a35050565b828054620001b29062000283565b90600052602060002090601f016020900481019282620001d6576000855562000222565b82601f10620001f157805160ff191683800117855562000222565b8280016001018555821562000222579182015b828111156200022157825182559160200191906001019062000204565b5b50905062000231919062000235565b5090565b5b808211156200025057600081600090555060010162000236565b5090565b7f4e487b7100000000000000000000000000000000000000000000000000000000600052602260045260246000fd5b600060028204905060018216806200029c57607f821691505b60208210811415620002b357620002b262000254565b5b50919050565b613a4180620002c96000396000f3fe6080604052600436106101145760003560e01c80638da5cb5b116100a0578063b88d4fde11610064578063b88d4fde146103ca578063c87b56dd146103f3578063e985e9c514610430578063f2fde38b1461046d578063f3fe12c91461049657610114565b80638da5cb5b146102ca5780639507d39a146102f557806395d89b4114610339578063a22cb46514610364578063a574cea41461038d57610114565b806323b872dd116100e757806323b872dd146101e757806342842e0e146102105780636352211e1461023957806370a0823114610276578063715018a6146102b357610114565b806301ffc9a71461011957806306fdde0314610156578063081812fc14610181578063095ea7b3146101be575b600080fd5b34801561012557600080fd5b50610140600480360381019061013b9190612574565b6104b2565b60405161014d91906125bc565b60405180910390f35b34801561016257600080fd5b5061016b610594565b6040516101789190612670565b60405180910390f35b34801561018d57600080fd5b506101a860048036038101906101a391906126c8565b610626565b6040516101b59190612736565b60405180910390f35b3480156101ca57600080fd5b506101e560048036038101906101e0919061277d565b6106ab565b005b3480156101f357600080fd5b5061020e600480360381019061020991906127bd565b6107c3565b005b34801561021c57600080fd5b50610237600480360381019061023291906127bd565b610823565b005b34801561024557600080fd5b50610260600480360381019061025b91906126c8565b610843565b60405161026d9190612736565b60405180910390f35b34801561028257600080fd5b5061029d60048036038101906102989190612810565b6108f5565b6040516102aa919061284c565b60405180910390f35b3480156102bf57600080fd5b506102c86109ad565b005b3480156102d657600080fd5b506102df610a35565b6040516102ec9190612736565b60405180910390f35b34801561030157600080fd5b5061031c600480360381019061031791906126c8565b610a5e565b604051610330989796959493929190612883565b60405180910390f35b34801561034557600080fd5b5061034e610c01565b60405161035b9190612670565b60405180910390f35b34801561037057600080fd5b5061038b6004803603810190610386919061292d565b610c93565b005b34801561039957600080fd5b506103b460048036038101906103af91906126c8565b610e14565b6040516103c19190612a2b565b60405180910390f35b3480156103d657600080fd5b506103f160048036038101906103ec9190612b82565b6110e1565b005b3480156103ff57600080fd5b5061041a600480360381019061041591906126c8565b611143565b6040516104279190612670565b60405180910390f35b34801561043c57600080fd5b5061045760048036038101906104529190612c05565b611200565b60405161046491906125bc565b60405180910390f35b34801561047957600080fd5b50610494600480360381019061048f9190612810565b611294565b005b6104b060048036038101906104ab9190612ce6565b61138c565b005b60007f80ac58cd000000000000000000000000000000000000000000000000000000007bffffffffffffffffffffffffffffffffffffffffffffffffffffffff1916827bffffffffffffffffffffffffffffffffffffffffffffffffffffffff1916148061057d57507f5b5e139f000000000000000000000000000000000000000000000000000000007bffffffffffffffffffffffffffffffffffffffffffffffffffffffff1916827bffffffffffffffffffffffffffffffffffffffffffffffffffffffff1916145b8061058d575061058c82611436565b5b9050919050565b6060600180546105a390612d5e565b80601f01602080910402602001604051908101604052809291908181526020018280546105cf90612d5e565b801561061c5780601f106105f15761010080835404028352916020019161061c565b820191906000526020600020905b8154815290600101906020018083116105ff57829003601f168201915b5050505050905090565b6000610631826114a0565b610670576040517f08c379a000000000000000000000000000000000000000000000000000000000815260040161066790612e02565b60405180910390fd5b6005600083815260200190815260200160002060009054906101000a900473ffffffffffffffffffffffffffffffffffffffff169050919050565b60006106b682610843565b90508073ffffffffffffffffffffffffffffffffffffffff168373ffffffffffffffffffffffffffffffffffffffff161415610727576040517f08c379a000000000000000000000000000000000000000000000000000000000815260040161071e90612e94565b60405180910390fd5b8073ffffffffffffffffffffffffffffffffffffffff1661074661150c565b73ffffffffffffffffffffffffffffffffffffffff16148061077557506107748161076f61150c565b611200565b5b6107b4576040517f08c379a00000000000000000000000000000000000000000000000000000000081526004016107ab90612f26565b60405180910390fd5b6107be8383611514565b505050565b6107d46107ce61150c565b826115cd565b610813576040517f08c379a000000000000000000000000000000000000000000000000000000000815260040161080a90612fb8565b60405180910390fd5b61081e8383836116ab565b505050565b61083e838383604051806020016040528060008152506110e1565b505050565b6000806003600084815260200190815260200160002060009054906101000a900473ffffffffffffffffffffffffffffffffffffffff169050600073ffffffffffffffffffffffffffffffffffffffff168173ffffffffffffffffffffffffffffffffffffffff1614156108ec576040517f08c379a00000000000000000000000000000000000000000000000000000000081526004016108e39061304a565b60405180910390fd5b80915050919050565b60008073ffffffffffffffffffffffffffffffffffffffff168273ffffffffffffffffffffffffffffffffffffffff161415610966576040517f08c379a000000000000000000000000000000000000000000000000000000000815260040161095d906130dc565b60405180910390fd5b600460008373ffffffffffffffffffffffffffffffffffffffff1673ffffffffffffffffffffffffffffffffffffffff168152602001908152602001600020549050919050565b6109b561150c565b73ffffffffffffffffffffffffffffffffffffffff166109d3610a35565b73ffffffffffffffffffffffffffffffffffffffff1614610a29576040517f08c379a0000000000000000000000000000000000000000000000000000000008152600401610a2090613148565b60405180910390fd5b610a336000611907565b565b60008060009054906101000a900473ffffffffffffffffffffffffffffffffffffffff16905090565b600080600080600080600080610a73896114a0565b610ab2576040517f08c379a0000000000000000000000000000000000000000000000000000000008152600401610aa9906131b4565b60405180910390fd5b6000600960008b8152602001908152602001600020604051806101000160405290816000820160009054906101000a900460ff1660ff1660ff1681526020016000820160019054906101000a900460ff1660ff1660ff1681526020016000820160029054906101000a900460ff1660ff1660ff1681526020016000820160039054906101000a900460ff1660ff1660ff1681526020016000820160049054906101000a900460ff1660ff1660ff1681526020016000820160059054906101000a900460ff1660ff1660ff1681526020016000820160069054906101000a900460ff1660ff1660ff1681526020016000820160079054906101000a900460ff1660ff1660ff1681525050905080600001519850806020015197508060400151965080606001519550806080015194508060a0015193508060c0015192508060e00151915050919395975091939597565b606060028054610c1090612d5e565b80601f0160208091040260200160405190810160405280929190818152602001828054610c3c90612d5e565b8015610c895780601f10610c5e57610100808354040283529160200191610c89565b820191906000526020600020905b815481529060010190602001808311610c6c57829003601f168201915b5050505050905090565b610c9b61150c565b73ffffffffffffffffffffffffffffffffffffffff168273ffffffffffffffffffffffffffffffffffffffff161415610d09576040517f08c379a0000000000000000000000000000000000000000000000000000000008152600401610d0090613220565b60405180910390fd5b8060066000610d1661150c565b73ffffffffffffffffffffffffffffffffffffffff1673ffffffffffffffffffffffffffffffffffffffff16815260200190815260200160002060008473ffffffffffffffffffffffffffffffffffffffff1673ffffffffffffffffffffffffffffffffffffffff16815260200190815260200160002060006101000a81548160ff0219169083151502179055508173ffffffffffffffffffffffffffffffffffffffff16610dc361150c565b73ffffffffffffffffffffffffffffffffffffffff167f17307eab39ab6107e8899845ad3d59bd9653f200f220920489ca2b5937696c3183604051610e0891906125bc565b60405180910390a35050565b6060600060096000848152602001908152602001600020604051806101000160405290816000820160009054906101000a900460ff1660ff1660ff1681526020016000820160019054906101000a900460ff1660ff1660ff1681526020016000820160029054906101000a900460ff1660ff1660ff1681526020016000820160039054906101000a900460ff1660ff1660ff1681526020016000820160049054906101000a900460ff1660ff1660ff1681526020016000820160059054906101000a900460ff1660ff1660ff1681526020016000820160069054906101000a900460ff1660ff1660ff1681526020016000820160079054906101000a900460ff1660ff1660ff168152505090506000600867ffffffffffffffff811115610f3e57610f3d612a57565b5b604051908082528060200260200182016040528015610f6c5781602001602082028036833780820191505090505b509050816000015181600081518110610f8857610f87613240565b5b602002602001019060ff16908160ff1681525050816020015181600181518110610fb557610fb4613240565b5b602002602001019060ff16908160ff1681525050816040015181600281518110610fe257610fe1613240565b5b602002602001019060ff16908160ff168152505081606001518160038151811061100f5761100e613240565b5b602002602001019060ff16908160ff168152505081608001518160048151811061103c5761103b613240565b5b602002602001019060ff16908160ff16815250508160a001518160058151811061106957611068613240565b5b602002602001019060ff16908160ff16815250508160c001518160068151811061109657611095613240565b5b602002602001019060ff16908160ff16815250508160e00151816007815181106110c3576110c2613240565b5b602002602001019060ff16908160ff16815250508092505050919050565b6110f26110ec61150c565b836115cd565b611131576040517f08c379a000000000000000000000000000000000000000000000000000000000815260040161112890612fb8565b60405180910390fd5b61113d848484846119cb565b50505050565b606061114e826114a0565b61115757600080fd5b600060086000848152602001908152602001600020805461117790612d5e565b80601f01602080910402602001604051908101604052809291908181526020018280546111a390612d5e565b80156111f05780601f106111c5576101008083540402835291602001916111f0565b820191906000526020600020905b8154815290600101906020018083116111d357829003601f168201915b5050505050905080915050919050565b6000600660008473ffffffffffffffffffffffffffffffffffffffff1673ffffffffffffffffffffffffffffffffffffffff16815260200190815260200160002060008373ffffffffffffffffffffffffffffffffffffffff1673ffffffffffffffffffffffffffffffffffffffff16815260200190815260200160002060009054906101000a900460ff16905092915050565b61129c61150c565b73ffffffffffffffffffffffffffffffffffffffff166112ba610a35565b73ffffffffffffffffffffffffffffffffffffffff1614611310576040517f08c379a000000000000000000000000000000000000000000000000000000000815260040161130790613148565b60405180910390fd5b600073ffffffffffffffffffffffffffffffffffffffff168173ffffffffffffffffffffffffffffffffffffffff161415611380576040517f08c379a0000000000000000000000000000000000000000000000000000000008152600401611377906132e1565b60405180910390fd5b61138981611907565b50565b666a94d74f43000034146113d5576040517f08c379a00000000000000000000000000000000000000000000000000000000081526004016113cc90613373565b60405180910390fd5b6113de81611a27565b6113e6610a35565b73ffffffffffffffffffffffffffffffffffffffff166108fc666a94d74f4300009081150290604051600060405180830381858888f19350505050158015611432573d6000803e3d6000fd5b5050565b60007f01ffc9a7000000000000000000000000000000000000000000000000000000007bffffffffffffffffffffffffffffffffffffffffffffffffffffffff1916827bffffffffffffffffffffffffffffffffffffffffffffffffffffffff1916149050919050565b60008073ffffffffffffffffffffffffffffffffffffffff166003600084815260200190815260200160002060009054906101000a900473ffffffffffffffffffffffffffffffffffffffff1673ffffffffffffffffffffffffffffffffffffffff1614159050919050565b600033905090565b816005600083815260200190815260200160002060006101000a81548173ffffffffffffffffffffffffffffffffffffffff021916908373ffffffffffffffffffffffffffffffffffffffff160217905550808273ffffffffffffffffffffffffffffffffffffffff1661158783610843565b73ffffffffffffffffffffffffffffffffffffffff167f8c5be1e5ebec7d5bd14f71427d1e84f3dd0314c0f7b2291e5b200ac8c7c3b92560405160405180910390a45050565b60006115d8826114a0565b611617576040517f08c379a000000000000000000000000000000000000000000000000000000000815260040161160e90613405565b60405180910390fd5b600061162283610843565b90508073ffffffffffffffffffffffffffffffffffffffff168473ffffffffffffffffffffffffffffffffffffffff16148061169157508373ffffffffffffffffffffffffffffffffffffffff1661167984610626565b73ffffffffffffffffffffffffffffffffffffffff16145b806116a257506116a18185611200565b5b91505092915050565b8273ffffffffffffffffffffffffffffffffffffffff166116cb82610843565b73ffffffffffffffffffffffffffffffffffffffff1614611721576040517f08c379a000000000000000000000000000000000000000000000000000000000815260040161171890613497565b60405180910390fd5b600073ffffffffffffffffffffffffffffffffffffffff168273ffffffffffffffffffffffffffffffffffffffff161415611791576040517f08c379a000000000000000000000000000000000000000000000000000000000815260040161178890613529565b60405180910390fd5b61179c838383611f94565b6117a7600082611514565b6001600460008573ffffffffffffffffffffffffffffffffffffffff1673ffffffffffffffffffffffffffffffffffffffff16815260200190815260200160002060008282546117f79190613578565b925050819055506001600460008473ffffffffffffffffffffffffffffffffffffffff1673ffffffffffffffffffffffffffffffffffffffff168152602001908152602001600020600082825461184e91906135ac565b92505081905550816003600083815260200190815260200160002060006101000a81548173ffffffffffffffffffffffffffffffffffffffff021916908373ffffffffffffffffffffffffffffffffffffffff160217905550808273ffffffffffffffffffffffffffffffffffffffff168473ffffffffffffffffffffffffffffffffffffffff167fddf252ad1be2c89b69c2b068fc378daa952ba7f163c4a11628f55a4df523b3ef60405160405180910390a4505050565b60008060009054906101000a900473ffffffffffffffffffffffffffffffffffffffff169050816000806101000a81548173ffffffffffffffffffffffffffffffffffffffff021916908373ffffffffffffffffffffffffffffffffffffffff1602179055508173ffffffffffffffffffffffffffffffffffffffff168173ffffffffffffffffffffffffffffffffffffffff167f8be0079c531659141344cd1fd0a4f28419497f9722a3daafe3b4186f6b6457e060405160405180910390a35050565b6119d68484846116ab565b6119e284848484611f99565b611a21576040517f08c379a0000000000000000000000000000000000000000000000000000000008152600401611a1890613674565b60405180910390fd5b50505050565b6000611a336007612130565b9050600080829050600080806000806000806000600a89611a5491906136c3565b9650600a8760ff168a611a679190613578565b611a7191906136f4565b9850600a89611a8091906136c3565b9550600a8660ff168a611a939190613578565b611a9d91906136f4565b9850600a89611aac91906136c3565b9450600a8560ff168a611abf9190613578565b611ac991906136f4565b9850600a89611ad891906136c3565b9350600a8460ff168a611aeb9190613578565b611af591906136f4565b985060008760ff161115611b12578780611b0e90613725565b9850505b60008660ff161115611b2d578780611b2990613725565b9850505b60008560ff161115611b48578780611b4490613725565b9850505b60008460ff161115611b63578780611b5f90613725565b9850505b620f4240611b7588888888600061213e565b611b7f91906136c3565b9950614e208a1015611b945760099250611c40565b61c3508a1015611ba75760089250611c3f565b620186a08a1015611bbb5760079250611c3e565b620298108a1015611bcf5760069250611c3d565b6203f7a08a1015611be35760059250611c3c565b6205a5508a1015611bf75760049250611c3b565b6207a1208a1015611c0b5760039250611c3a565b6209eb108a1015611c1f5760029250611c39565b620c83208a1015611c335760019250611c38565b600092505b5b5b5b5b5b5b5b5b620f4240611c51888888888f61213e565b611c5b91906136c3565b9950614e208a1015611c705760099150611d1c565b61c3508a1015611c835760089150611d1b565b620186a08a1015611c975760079150611d1a565b620298108a1015611cab5760069150611d19565b6203f7a08a1015611cbf5760059150611d18565b6205a5508a1015611cd35760049150611d17565b6207a1208a1015611ce75760039150611d16565b6209eb108a1015611cfb5760029150611d15565b620c83208a1015611d0f5760019150611d14565b600091505b5b5b5b5b5b5b5b5b620f4240611d2d888888888f61213e565b611d3791906136c3565b9950614e208a1015611d4c5760099050611df8565b61c3508a1015611d5f5760089050611df7565b620186a08a1015611d735760079050611df6565b620298108a1015611d875760069050611df5565b6203f7a08a1015611d9b5760059050611df4565b6205a5508a1015611daf5760049050611df3565b6207a1208a1015611dc35760039050611df2565b6209eb108a1015611dd75760029050611df1565b620c83208a1015611deb5760019050611df0565b600090505b5b5b5b5b5b5b5b5b6040518061010001604052808960ff1681526020018860ff1681526020018760ff1681526020018660ff1681526020018560ff1681526020018460ff1681526020018360ff1681526020018260ff16815250600960008d815260200190815260200160002060008201518160000160006101000a81548160ff021916908360ff16021790555060208201518160000160016101000a81548160ff021916908360ff16021790555060408201518160000160026101000a81548160ff021916908360ff16021790555060608201518160000160036101000a81548160ff021916908360ff16021790555060808201518160000160046101000a81548160ff021916908360ff16021790555060a08201518160000160056101000a81548160ff021916908360ff16021790555060c08201518160000160066101000a81548160ff021916908360ff16021790555060e08201518160000160076101000a81548160ff021916908360ff160217905550905050611f728b8d612181565b611f7c338c6121f5565b611f866007612213565b505050505050505050505050565b505050565b6000611fba8473ffffffffffffffffffffffffffffffffffffffff16612229565b15612123578373ffffffffffffffffffffffffffffffffffffffff1663150b7a02611fe361150c565b8786866040518563ffffffff1660e01b815260040161200594939291906137a4565b602060405180830381600087803b15801561201f57600080fd5b505af192505050801561205057506040513d601f19601f8201168201806040525081019061204d9190613805565b60015b6120d3573d8060008114612080576040519150601f19603f3d011682016040523d82523d6000602084013e612085565b606091505b506000815114156120cb576040517f08c379a00000000000000000000000000000000000000000000000000000000081526004016120c290613674565b60405180910390fd5b805181602001fd5b63150b7a0260e01b7bffffffffffffffffffffffffffffffffffffffffffffffffffffffff1916817bffffffffffffffffffffffffffffffffffffffffffffffffffffffff191614915050612128565b600190505b949350505050565b600081600001549050919050565b60004244878787878760405160200161215d9796959493929190613832565b6040516020818303038152906040528051906020012060001c905095945050505050565b61218a826114a0565b6121c9576040517f08c379a00000000000000000000000000000000000000000000000000000000081526004016121c090613913565b60405180910390fd5b806008600084815260200190815260200160002090805190602001906121f0929190612465565b505050565b61220f82826040518060200160405280600081525061223c565b5050565b6001816000016000828254019250508190555050565b600080823b905060008111915050919050565b6122468383612297565b6122536000848484611f99565b612292576040517f08c379a000000000000000000000000000000000000000000000000000000000815260040161228990613674565b60405180910390fd5b505050565b600073ffffffffffffffffffffffffffffffffffffffff168273ffffffffffffffffffffffffffffffffffffffff161415612307576040517f08c379a00000000000000000000000000000000000000000000000000000000081526004016122fe9061397f565b60405180910390fd5b612310816114a0565b15612350576040517f08c379a0000000000000000000000000000000000000000000000000000000008152600401612347906139eb565b60405180910390fd5b61235c60008383611f94565b6001600460008473ffffffffffffffffffffffffffffffffffffffff1673ffffffffffffffffffffffffffffffffffffffff16815260200190815260200160002060008282546123ac91906135ac565b92505081905550816003600083815260200190815260200160002060006101000a81548173ffffffffffffffffffffffffffffffffffffffff021916908373ffffffffffffffffffffffffffffffffffffffff160217905550808273ffffffffffffffffffffffffffffffffffffffff16600073ffffffffffffffffffffffffffffffffffffffff167fddf252ad1be2c89b69c2b068fc378daa952ba7f163c4a11628f55a4df523b3ef60405160405180910390a45050565b82805461247190612d5e565b90600052602060002090601f01602090048101928261249357600085556124da565b82601f106124ac57805160ff19168380011785556124da565b828001600101855582156124da579182015b828111156124d95782518255916020019190600101906124be565b5b5090506124e791906124eb565b5090565b5b808211156125045760008160009055506001016124ec565b5090565b6000604051905090565b600080fd5b600080fd5b60007fffffffff0000000000000000000000000000000000000000000000000000000082169050919050565b6125518161251c565b811461255c57600080fd5b50565b60008135905061256e81612548565b92915050565b60006020828403121561258a57612589612512565b5b60006125988482850161255f565b91505092915050565b60008115159050919050565b6125b6816125a1565b82525050565b60006020820190506125d160008301846125ad565b92915050565b600081519050919050565b600082825260208201905092915050565b60005b838110156126115780820151818401526020810190506125f6565b83811115612620576000848401525b50505050565b6000601f19601f8301169050919050565b6000612642826125d7565b61264c81856125e2565b935061265c8185602086016125f3565b61266581612626565b840191505092915050565b6000602082019050818103600083015261268a8184612637565b905092915050565b6000819050919050565b6126a581612692565b81146126b057600080fd5b50565b6000813590506126c28161269c565b92915050565b6000602082840312156126de576126dd612512565b5b60006126ec848285016126b3565b91505092915050565b600073ffffffffffffffffffffffffffffffffffffffff82169050919050565b6000612720826126f5565b9050919050565b61273081612715565b82525050565b600060208201905061274b6000830184612727565b92915050565b61275a81612715565b811461276557600080fd5b50565b60008135905061277781612751565b92915050565b6000806040838503121561279457612793612512565b5b60006127a285828601612768565b92505060206127b3858286016126b3565b9150509250929050565b6000806000606084860312156127d6576127d5612512565b5b60006127e486828701612768565b93505060206127f586828701612768565b9250506040612806868287016126b3565b9150509250925092565b60006020828403121561282657612825612512565b5b600061283484828501612768565b91505092915050565b61284681612692565b82525050565b6000602082019050612861600083018461283d565b92915050565b600060ff82169050919050565b61287d81612867565b82525050565b600061010082019050612899600083018b612874565b6128a6602083018a612874565b6128b36040830189612874565b6128c06060830188612874565b6128cd6080830187612874565b6128da60a0830186612874565b6128e760c0830185612874565b6128f460e0830184612874565b9998505050505050505050565b61290a816125a1565b811461291557600080fd5b50565b60008135905061292781612901565b92915050565b6000806040838503121561294457612943612512565b5b600061295285828601612768565b925050602061296385828601612918565b9150509250929050565b600081519050919050565b600082825260208201905092915050565b6000819050602082019050919050565b6129a281612867565b82525050565b60006129b48383612999565b60208301905092915050565b6000602082019050919050565b60006129d88261296d565b6129e28185612978565b93506129ed83612989565b8060005b83811015612a1e578151612a0588826129a8565b9750612a10836129c0565b9250506001810190506129f1565b5085935050505092915050565b60006020820190508181036000830152612a4581846129cd565b905092915050565b600080fd5b600080fd5b7f4e487b7100000000000000000000000000000000000000000000000000000000600052604160045260246000fd5b612a8f82612626565b810181811067ffffffffffffffff82111715612aae57612aad612a57565b5b80604052505050565b6000612ac1612508565b9050612acd8282612a86565b919050565b600067ffffffffffffffff821115612aed57612aec612a57565b5b612af682612626565b9050602081019050919050565b82818337600083830152505050565b6000612b25612b2084612ad2565b612ab7565b905082815260208101848484011115612b4157612b40612a52565b5b612b4c848285612b03565b509392505050565b600082601f830112612b6957612b68612a4d565b5b8135612b79848260208601612b12565b91505092915050565b60008060008060808587031215612b9c57612b9b612512565b5b6000612baa87828801612768565b9450506020612bbb87828801612768565b9350506040612bcc878288016126b3565b925050606085013567ffffffffffffffff811115612bed57612bec612517565b5b612bf987828801612b54565b91505092959194509250565b60008060408385031215612c1c57612c1b612512565b5b6000612c2a85828601612768565b9250506020612c3b85828601612768565b9150509250929050565b600067ffffffffffffffff821115612c6057612c5f612a57565b5b612c6982612626565b9050602081019050919050565b6000612c89612c8484612c45565b612ab7565b905082815260208101848484011115612ca557612ca4612a52565b5b612cb0848285612b03565b509392505050565b600082601f830112612ccd57612ccc612a4d565b5b8135612cdd848260208601612c76565b91505092915050565b600060208284031215612cfc57612cfb612512565b5b600082013567ffffffffffffffff811115612d1a57612d19612517565b5b612d2684828501612cb8565b91505092915050565b7f4e487b7100000000000000000000000000000000000000000000000000000000600052602260045260246000fd5b60006002820490506001821680612d7657607f821691505b60208210811415612d8a57612d89612d2f565b5b50919050565b7f4552433732313a20617070726f76656420717565727920666f72206e6f6e657860008201527f697374656e7420746f6b656e0000000000000000000000000000000000000000602082015250565b6000612dec602c836125e2565b9150612df782612d90565b604082019050919050565b60006020820190508181036000830152612e1b81612ddf565b9050919050565b7f4552433732313a20617070726f76616c20746f2063757272656e74206f776e6560008201527f7200000000000000000000000000000000000000000000000000000000000000602082015250565b6000612e7e6021836125e2565b9150612e8982612e22565b604082019050919050565b60006020820190508181036000830152612ead81612e71565b9050919050565b7f4552433732313a20617070726f76652063616c6c6572206973206e6f74206f7760008201527f6e6572206e6f7220617070726f76656420666f7220616c6c0000000000000000602082015250565b6000612f106038836125e2565b9150612f1b82612eb4565b604082019050919050565b60006020820190508181036000830152612f3f81612f03565b9050919050565b7f4552433732313a207472616e736665722063616c6c6572206973206e6f74206f60008201527f776e6572206e6f7220617070726f766564000000000000000000000000000000602082015250565b6000612fa26031836125e2565b9150612fad82612f46565b604082019050919050565b60006020820190508181036000830152612fd181612f95565b9050919050565b7f4552433732313a206f776e657220717565727920666f72206e6f6e657869737460008201527f656e7420746f6b656e0000000000000000000000000000000000000000000000602082015250565b60006130346029836125e2565b915061303f82612fd8565b604082019050919050565b6000602082019050818103600083015261306381613027565b9050919050565b7f4552433732313a2062616c616e636520717565727920666f7220746865207a6560008201527f726f206164647265737300000000000000000000000000000000000000000000602082015250565b60006130c6602a836125e2565b91506130d18261306a565b604082019050919050565b600060208201905081810360008301526130f5816130b9565b9050919050565b7f4f776e61626c653a2063616c6c6572206973206e6f7420746865206f776e6572600082015250565b60006131326020836125e2565b915061313d826130fc565b602082019050919050565b6000602082019050818103600083015261316181613125565b9050919050565b7f746f6b656e206e6f74206d696e74656400000000000000000000000000000000600082015250565b600061319e6010836125e2565b91506131a982613168565b602082019050919050565b600060208201905081810360008301526131cd81613191565b9050919050565b7f4552433732313a20617070726f766520746f2063616c6c657200000000000000600082015250565b600061320a6019836125e2565b9150613215826131d4565b602082019050919050565b60006020820190508181036000830152613239816131fd565b9050919050565b7f4e487b7100000000000000000000000000000000000000000000000000000000600052603260045260246000fd5b7f4f776e61626c653a206e6577206f776e657220697320746865207a65726f206160008201527f6464726573730000000000000000000000000000000000000000000000000000602082015250565b60006132cb6026836125e2565b91506132d68261326f565b604082019050919050565b600060208201905081810360008301526132fa816132be565b9050919050565b7f636c61696d696e672061206c617661206c616d7020636f73747320333020666960008201527f6e6e657900000000000000000000000000000000000000000000000000000000602082015250565b600061335d6024836125e2565b915061336882613301565b604082019050919050565b6000602082019050818103600083015261338c81613350565b9050919050565b7f4552433732313a206f70657261746f7220717565727920666f72206e6f6e657860008201527f697374656e7420746f6b656e0000000000000000000000000000000000000000602082015250565b60006133ef602c836125e2565b91506133fa82613393565b604082019050919050565b6000602082019050818103600083015261341e816133e2565b9050919050565b7f4552433732313a207472616e73666572206f6620746f6b656e2074686174206960008201527f73206e6f74206f776e0000000000000000000000000000000000000000000000602082015250565b60006134816029836125e2565b915061348c82613425565b604082019050919050565b600060208201905081810360008301526134b081613474565b9050919050565b7f4552433732313a207472616e7366657220746f20746865207a65726f2061646460008201527f7265737300000000000000000000000000000000000000000000000000000000602082015250565b60006135136024836125e2565b915061351e826134b7565b604082019050919050565b6000602082019050818103600083015261354281613506565b9050919050565b7f4e487b7100000000000000000000000000000000000000000000000000000000600052601160045260246000fd5b600061358382612692565b915061358e83612692565b9250828210156135a1576135a0613549565b5b828203905092915050565b60006135b782612692565b91506135c283612692565b9250827fffffffffffffffffffffffffffffffffffffffffffffffffffffffffffffffff038211156135f7576135f6613549565b5b828201905092915050565b7f4552433732313a207472616e7366657220746f206e6f6e20455243373231526560008201527f63656976657220696d706c656d656e7465720000000000000000000000000000602082015250565b600061365e6032836125e2565b915061366982613602565b604082019050919050565b6000602082019050818103600083015261368d81613651565b9050919050565b7f4e487b7100000000000000000000000000000000000000000000000000000000600052601260045260246000fd5b60006136ce82612692565b91506136d983612692565b9250826136e9576136e8613694565b5b828206905092915050565b60006136ff82612692565b915061370a83612692565b92508261371a57613719613694565b5b828204905092915050565b600061373082612867565b915060ff82141561374457613743613549565b5b600182019050919050565b600081519050919050565b600082825260208201905092915050565b60006137768261374f565b613780818561375a565b93506137908185602086016125f3565b61379981612626565b840191505092915050565b60006080820190506137b96000830187612727565b6137c66020830186612727565b6137d3604083018561283d565b81810360608301526137e5818461376b565b905095945050505050565b6000815190506137ff81612548565b92915050565b60006020828403121561381b5761381a612512565b5b6000613829848285016137f0565b91505092915050565b600060e082019050613847600083018a61283d565b613854602083018961283d565b6138616040830188612874565b61386e6060830187612874565b61387b6080830186612874565b61388860a0830185612874565b61389560c083018461283d565b98975050505050505050565b7f4552433732314d657461646174613a2055524920736574206f66206e6f6e657860008201527f697374656e7420746f6b656e0000000000000000000000000000000000000000602082015250565b60006138fd602c836125e2565b9150613908826138a1565b604082019050919050565b6000602082019050818103600083015261392c816138f0565b9050919050565b7f4552433732313a206d696e7420746f20746865207a65726f2061646472657373600082015250565b60006139696020836125e2565b915061397482613933565b602082019050919050565b600060208201905081810360008301526139988161395c565b9050919050565b7f4552433732313a20746f6b656e20616c7265616479206d696e74656400000000600082015250565b60006139d5601c836125e2565b91506139e08261399f565b602082019050919050565b60006020820190508181036000830152613a04816139c8565b905091905056fea2646970667358221220e2e68376b10a34f1e672016a66eea49a974b455f40bdbff8723b39f037544fa164736f6c63430008090033",
  "immutableReferences": {},
  "source": "// SPDX-License-Identifier: MIT\npragma solidity >=0.4.22 <0.9.0;\n\nimport \"@openzeppelin/contracts/access/Ownable.sol\";\nimport \"@openzeppelin/contracts/utils/Counters.sol\";\nimport \"@openzeppelin/contracts/token/ERC721/ERC721.sol\";\n\ncontract LavaLamp is Ownable, ERC721 {\n\n  using Counters for Counters.Counter;\n  using Strings for uint256;\n\n  Counters.Counter private _tokenIds;\n  mapping(uint256 => string) private _tokenURIs;\n\n  struct Metadata {\n    uint8 lava_count;\n\n    // 0 - 9 (None, Red, Green, Yellow, Blue, Purple, Light Blue, Orange, White, Pink)\n    uint8 color_1;\n    uint8 color_2;\n    uint8 color_3;\n    uint8 color_4;\n\n    uint8 base; // 5 - (alien, rocket, more)\n    uint8 background; // 9 - (space, more)\n    uint8 sticker; // 5 - (star, lightning bolt, heart, diamond, planet)\n  }\n  mapping(uint256 => Metadata) id_to_lavalamp;\n\n  constructor() ERC721(\"LavaLamp\", \"LAVALAMP\") {\n\n  }\n\n  function _setTokenURI(uint256 tokenId, string memory _tokenURI) internal virtual {\n      require(_exists(tokenId), \"ERC721Metadata: URI set of nonexistent token\");\n      _tokenURIs[tokenId] = _tokenURI;\n  }\n\n  function tokenURI(uint256 tokenId) public view virtual override returns (string memory) {\n    require(_exists(tokenId));\n    string memory _tokenURI = _tokenURIs[tokenId];\n    return _tokenURI;\n  }\n\n  function mint (string memory _tokenURI) internal {\n    uint256 tokenId = _tokenIds.current();\n    uint256 r;\n    uint256 lava_index = tokenId;\n    uint8 lava_count = 0;\n    uint8 color_1;\n    uint8 color_2;\n    uint8 color_3;\n    uint8 color_4;\n    uint8 base;\n    uint8 background;\n    uint8 sticker;\n\n    color_1 = uint8(lava_index % 10);\n    lava_index = (lava_index - color_1) / 10;\n    color_2 = uint8(lava_index % 10);\n    lava_index = (lava_index - color_2) / 10;\n    color_3 = uint8(lava_index % 10);\n    lava_index = (lava_index - color_3) / 10;\n    color_4 = uint8(lava_index % 10);\n    lava_index = (lava_index - color_4) / 10;\n\n    if (color_1 > 0) {\n      lava_count++;\n    }\n    if (color_2 > 0) {\n      lava_count++;\n    }\n    if (color_3 > 0) {\n      lava_count++;\n    }\n    if (color_4 > 0) {\n      lava_count++;\n    }\n\n    // bases\n    r = pseudoRNG(color_1, color_2, color_3, color_4, 0) % 1000000;\n    if (r < 20000) {\n        base = 9;\n    } else if (r < 50000) {\n        base = 8;\n    } else if (r < 100000) {\n        base = 7;\n    } else if (r < 170000) {\n        base = 6;\n    } else if (r < 260000) {\n        base = 5;\n    } else if (r < 370000) {\n        base = 4;\n    } else if (r < 500000) {\n        base = 3;\n    } else if (r < 650000) {\n        base = 2;\n    } else if (r < 820000) {\n        base = 1;\n    } else {\n        base = 0;\n    }\n\n    // background\n    r = pseudoRNG(color_1, color_2, color_3, color_4, r) % 1000000;\n    if (r < 20000) {\n        background = 9;\n    } else if (r < 50000) {\n        background = 8;\n    } else if (r < 100000) {\n        background = 7;\n    } else if (r < 170000) {\n        background = 6;\n    } else if (r < 260000) {\n        background = 5;\n    } else if (r < 370000) {\n        background = 4;\n    } else if (r < 500000) {\n        background = 3;\n    } else if (r < 650000) {\n        background = 2;\n    } else if (r < 820000) {\n        background = 1;\n    } else {\n        background = 0;\n    }\n\n    // sticker\n    r = pseudoRNG(color_1, color_2, color_3, color_4, r) % 1000000;\n    if (r < 20000) {\n        sticker = 9;\n    } else if (r < 50000) {\n        sticker = 8;\n    } else if (r < 100000) {\n        sticker = 7;\n    } else if (r < 170000) {\n        sticker = 6;\n    } else if (r < 260000) {\n        sticker = 5;\n    } else if (r < 370000) {\n        sticker = 4;\n    } else if (r < 500000) {\n        sticker = 3;\n    } else if (r < 650000) {\n        sticker = 2;\n    } else if (r < 820000) {\n        sticker = 1;\n    } else {\n        sticker = 0;\n    }\n\n    id_to_lavalamp[tokenId] = Metadata(lava_count, color_1, color_2, color_3, color_4, base, background, sticker);\n    _setTokenURI(tokenId, _tokenURI);\n    _safeMint(msg.sender, tokenId);\n\n    _tokenIds.increment();\n  }\n\n  function claim(string memory _tokenURI) external payable {\n    require(msg.value == 0.03 ether, \"claiming a lava lamp costs 30 finney\");\n\n    mint(_tokenURI);\n\n    payable(owner()).transfer(0.03 ether);\n  }\n\n  function get(uint256 tokenId) external view returns (uint8 lava_count, uint8 color_1, uint8 color_2, uint8 color_3, uint8 color_4, uint8 base, uint8 background, uint8 sticker) {\n    require(_exists(tokenId), \"token not minted\");\n    Metadata memory lavalamp = id_to_lavalamp[tokenId];\n\n    lava_count = lavalamp.lava_count;\n\n    color_1 = lavalamp.color_1;\n    color_2 = lavalamp.color_2;\n    color_3 = lavalamp.color_3;\n    color_4 = lavalamp.color_4;\n\n    base = lavalamp.base;\n    background = lavalamp.background;\n    sticker = lavalamp.sticker;\n  }\n\n  function getMetadata(uint256 tokenId) external view returns(uint8[] memory) {\n    Metadata memory lavalamp = id_to_lavalamp[tokenId];\n    uint8[] memory meta = new uint8[](8);\n\n    meta[0] = lavalamp.lava_count;\n\n    meta[1] = lavalamp.color_1;\n    meta[2] = lavalamp.color_2;\n    meta[3] = lavalamp.color_3;\n    meta[4] = lavalamp.color_4;\n\n    meta[5] = lavalamp.base;\n    meta[6] = lavalamp.background;\n    meta[7] = lavalamp.sticker;\n\n    return meta;\n  }\n\n  // psuedo_rng is the previous rng value, this is just top make sure we get something different everytime and don't use the same psuedo for the, base, sticker, and background\n  function pseudoRNG(uint8 color_1, uint8 color_2, uint8 color_3, uint8 color_4, uint256 prev_rng) internal view returns (uint256) {\n      return uint256(keccak256(abi.encode(block.timestamp, block.difficulty, color_1, color_2, color_3, color_4, prev_rng)));\n  }\n}\n",
  "sourcePath": "/Users/superdorvil/workspace/ReactWorkspace/PersonalProjects/lava-lamp-nft/contracts/LavaLamp.sol",
  "compiler": {
    "name": "solc",
    "version": "0.8.9+commit.e5eed63a.Emscripten.clang"
  },
  "schemaVersion": "3.4.3",
  "updatedAt": "2021-10-21T17:02:55.917Z",
  "devdoc": {
    "kind": "dev",
    "methods": {
      "approve(address,uint256)": {
        "details": "See {IERC721-approve}."
      },
      "balanceOf(address)": {
        "details": "See {IERC721-balanceOf}."
      },
      "getApproved(uint256)": {
        "details": "See {IERC721-getApproved}."
      },
      "isApprovedForAll(address,address)": {
        "details": "See {IERC721-isApprovedForAll}."
      },
      "name()": {
        "details": "See {IERC721Metadata-name}."
      },
      "owner()": {
        "details": "Returns the address of the current owner."
      },
      "ownerOf(uint256)": {
        "details": "See {IERC721-ownerOf}."
      },
      "renounceOwnership()": {
        "details": "Leaves the contract without owner. It will not be possible to call `onlyOwner` functions anymore. Can only be called by the current owner. NOTE: Renouncing ownership will leave the contract without an owner, thereby removing any functionality that is only available to the owner."
      },
      "safeTransferFrom(address,address,uint256)": {
        "details": "See {IERC721-safeTransferFrom}."
      },
      "safeTransferFrom(address,address,uint256,bytes)": {
        "details": "See {IERC721-safeTransferFrom}."
      },
      "setApprovalForAll(address,bool)": {
        "details": "See {IERC721-setApprovalForAll}."
      },
      "supportsInterface(bytes4)": {
        "details": "See {IERC165-supportsInterface}."
      },
      "symbol()": {
        "details": "See {IERC721Metadata-symbol}."
      },
      "tokenURI(uint256)": {
        "details": "See {IERC721Metadata-tokenURI}."
      },
      "transferFrom(address,address,uint256)": {
        "details": "See {IERC721-transferFrom}."
      },
      "transferOwnership(address)": {
        "details": "Transfers ownership of the contract to a new account (`newOwner`). Can only be called by the current owner."
      }
    },
    "version": 1
  },
  "userdoc": {
    "kind": "user",
    "methods": {},
    "version": 1
  }
}