{
  "contractName": "LavaLamp",
  "abi": [
    {
      "inputs": [
        {
          "internalType": "address",
          "name": "_purchases",
          "type": "address"
        }
      ],
      "stateMutability": "nonpayable",
      "type": "constructor"
    },
    {
      "anonymous": false,
      "inputs": [
        {
          "indexed": true,
          "internalType": "address",
          "name": "owner",
          "type": "address"
        },
        {
          "indexed": true,
          "internalType": "address",
          "name": "approved",
          "type": "address"
        },
        {
          "indexed": true,
          "internalType": "uint256",
          "name": "tokenId",
          "type": "uint256"
        }
      ],
      "name": "Approval",
      "type": "event"
    },
    {
      "anonymous": false,
      "inputs": [
        {
          "indexed": true,
          "internalType": "address",
          "name": "owner",
          "type": "address"
        },
        {
          "indexed": true,
          "internalType": "address",
          "name": "operator",
          "type": "address"
        },
        {
          "indexed": false,
          "internalType": "bool",
          "name": "approved",
          "type": "bool"
        }
      ],
      "name": "ApprovalForAll",
      "type": "event"
    },
    {
      "anonymous": false,
      "inputs": [
        {
          "indexed": true,
          "internalType": "address",
          "name": "previousOwner",
          "type": "address"
        },
        {
          "indexed": true,
          "internalType": "address",
          "name": "newOwner",
          "type": "address"
        }
      ],
      "name": "OwnershipTransferred",
      "type": "event"
    },
    {
      "anonymous": false,
      "inputs": [
        {
          "indexed": true,
          "internalType": "address",
          "name": "from",
          "type": "address"
        },
        {
          "indexed": true,
          "internalType": "address",
          "name": "to",
          "type": "address"
        },
        {
          "indexed": true,
          "internalType": "uint256",
          "name": "tokenId",
          "type": "uint256"
        }
      ],
      "name": "Transfer",
      "type": "event"
    },
    {
      "inputs": [
        {
          "internalType": "address",
          "name": "to",
          "type": "address"
        },
        {
          "internalType": "uint256",
          "name": "tokenId",
          "type": "uint256"
        }
      ],
      "name": "approve",
      "outputs": [],
      "stateMutability": "nonpayable",
      "type": "function"
    },
    {
      "inputs": [
        {
          "internalType": "address",
          "name": "owner",
          "type": "address"
        }
      ],
      "name": "balanceOf",
      "outputs": [
        {
          "internalType": "uint256",
          "name": "",
          "type": "uint256"
        }
      ],
      "stateMutability": "view",
      "type": "function"
    },
    {
      "inputs": [
        {
          "internalType": "uint256",
          "name": "tokenId",
          "type": "uint256"
        }
      ],
      "name": "getApproved",
      "outputs": [
        {
          "internalType": "address",
          "name": "",
          "type": "address"
        }
      ],
      "stateMutability": "view",
      "type": "function"
    },
    {
      "inputs": [
        {
          "internalType": "address",
          "name": "owner",
          "type": "address"
        },
        {
          "internalType": "address",
          "name": "operator",
          "type": "address"
        }
      ],
      "name": "isApprovedForAll",
      "outputs": [
        {
          "internalType": "bool",
          "name": "",
          "type": "bool"
        }
      ],
      "stateMutability": "view",
      "type": "function"
    },
    {
      "inputs": [],
      "name": "name",
      "outputs": [
        {
          "internalType": "string",
          "name": "",
          "type": "string"
        }
      ],
      "stateMutability": "view",
      "type": "function"
    },
    {
      "inputs": [],
      "name": "owner",
      "outputs": [
        {
          "internalType": "address",
          "name": "",
          "type": "address"
        }
      ],
      "stateMutability": "view",
      "type": "function"
    },
    {
      "inputs": [
        {
          "internalType": "uint256",
          "name": "tokenId",
          "type": "uint256"
        }
      ],
      "name": "ownerOf",
      "outputs": [
        {
          "internalType": "address",
          "name": "",
          "type": "address"
        }
      ],
      "stateMutability": "view",
      "type": "function"
    },
    {
      "inputs": [],
      "name": "purchases",
      "outputs": [
        {
          "internalType": "address payable",
          "name": "",
          "type": "address"
        }
      ],
      "stateMutability": "view",
      "type": "function"
    },
    {
      "inputs": [],
      "name": "renounceOwnership",
      "outputs": [],
      "stateMutability": "nonpayable",
      "type": "function"
    },
    {
      "inputs": [
        {
          "internalType": "address",
          "name": "from",
          "type": "address"
        },
        {
          "internalType": "address",
          "name": "to",
          "type": "address"
        },
        {
          "internalType": "uint256",
          "name": "tokenId",
          "type": "uint256"
        }
      ],
      "name": "safeTransferFrom",
      "outputs": [],
      "stateMutability": "nonpayable",
      "type": "function"
    },
    {
      "inputs": [
        {
          "internalType": "address",
          "name": "from",
          "type": "address"
        },
        {
          "internalType": "address",
          "name": "to",
          "type": "address"
        },
        {
          "internalType": "uint256",
          "name": "tokenId",
          "type": "uint256"
        },
        {
          "internalType": "bytes",
          "name": "_data",
          "type": "bytes"
        }
      ],
      "name": "safeTransferFrom",
      "outputs": [],
      "stateMutability": "nonpayable",
      "type": "function"
    },
    {
      "inputs": [
        {
          "internalType": "address",
          "name": "operator",
          "type": "address"
        },
        {
          "internalType": "bool",
          "name": "approved",
          "type": "bool"
        }
      ],
      "name": "setApprovalForAll",
      "outputs": [],
      "stateMutability": "nonpayable",
      "type": "function"
    },
    {
      "inputs": [
        {
          "internalType": "bytes4",
          "name": "interfaceId",
          "type": "bytes4"
        }
      ],
      "name": "supportsInterface",
      "outputs": [
        {
          "internalType": "bool",
          "name": "",
          "type": "bool"
        }
      ],
      "stateMutability": "view",
      "type": "function"
    },
    {
      "inputs": [],
      "name": "symbol",
      "outputs": [
        {
          "internalType": "string",
          "name": "",
          "type": "string"
        }
      ],
      "stateMutability": "view",
      "type": "function"
    },
    {
      "inputs": [
        {
          "internalType": "uint256",
          "name": "tokenId",
          "type": "uint256"
        }
      ],
      "name": "tokenURI",
      "outputs": [
        {
          "internalType": "string",
          "name": "",
          "type": "string"
        }
      ],
      "stateMutability": "view",
      "type": "function"
    },
    {
      "inputs": [
        {
          "internalType": "address",
          "name": "from",
          "type": "address"
        },
        {
          "internalType": "address",
          "name": "to",
          "type": "address"
        },
        {
          "internalType": "uint256",
          "name": "tokenId",
          "type": "uint256"
        }
      ],
      "name": "transferFrom",
      "outputs": [],
      "stateMutability": "nonpayable",
      "type": "function"
    },
    {
      "inputs": [
        {
          "internalType": "address",
          "name": "newOwner",
          "type": "address"
        }
      ],
      "name": "transferOwnership",
      "outputs": [],
      "stateMutability": "nonpayable",
      "type": "function"
    },
    {
      "inputs": [
        {
          "internalType": "string",
          "name": "baseURI",
          "type": "string"
        }
      ],
      "name": "setBaseURI",
      "outputs": [],
      "stateMutability": "nonpayable",
      "type": "function"
    },
    {
      "inputs": [
        {
          "internalType": "uint256",
          "name": "mintAmount",
          "type": "uint256"
        }
      ],
      "name": "claim",
      "outputs": [],
      "stateMutability": "payable",
      "type": "function"
    },
    {
      "inputs": [
        {
          "internalType": "uint256",
          "name": "tokenId",
          "type": "uint256"
        }
      ],
      "name": "getToken",
      "outputs": [
        {
          "internalType": "uint8[]",
          "name": "",
          "type": "uint8[]"
        }
      ],
      "stateMutability": "view",
      "type": "function"
    },
    {
      "inputs": [],
      "name": "getAllTokenMetadata",
      "outputs": [
        {
          "components": [
            {
              "internalType": "uint8",
              "name": "attribute",
              "type": "uint8"
            },
            {
              "internalType": "uint8",
              "name": "background",
              "type": "uint8"
            },
            {
              "internalType": "uint8",
              "name": "base",
              "type": "uint8"
            },
            {
              "internalType": "uint8",
              "name": "glass",
              "type": "uint8"
            },
            {
              "internalType": "uint8",
              "name": "lava_count",
              "type": "uint8"
            },
            {
              "internalType": "uint8",
              "name": "lava_1",
              "type": "uint8"
            },
            {
              "internalType": "uint8",
              "name": "lava_2",
              "type": "uint8"
            },
            {
              "internalType": "uint8",
              "name": "lava_3",
              "type": "uint8"
            },
            {
              "internalType": "uint8",
              "name": "lava_4",
              "type": "uint8"
            },
            {
              "internalType": "uint8",
              "name": "overlay",
              "type": "uint8"
            },
            {
              "internalType": "uint8",
              "name": "rarity",
              "type": "uint8"
            }
          ],
          "internalType": "struct LavaLamp.Metadata[]",
          "name": "",
          "type": "tuple[]"
        }
      ],
      "stateMutability": "view",
      "type": "function"
    },
    {
      "inputs": [
        {
          "internalType": "address",
          "name": "owner",
          "type": "address"
        }
      ],
      "name": "getTokensOwnedByMetadata",
      "outputs": [
        {
          "components": [
            {
              "internalType": "uint8",
              "name": "attribute",
              "type": "uint8"
            },
            {
              "internalType": "uint8",
              "name": "background",
              "type": "uint8"
            },
            {
              "internalType": "uint8",
              "name": "base",
              "type": "uint8"
            },
            {
              "internalType": "uint8",
              "name": "glass",
              "type": "uint8"
            },
            {
              "internalType": "uint8",
              "name": "lava_count",
              "type": "uint8"
            },
            {
              "internalType": "uint8",
              "name": "lava_1",
              "type": "uint8"
            },
            {
              "internalType": "uint8",
              "name": "lava_2",
              "type": "uint8"
            },
            {
              "internalType": "uint8",
              "name": "lava_3",
              "type": "uint8"
            },
            {
              "internalType": "uint8",
              "name": "lava_4",
              "type": "uint8"
            },
            {
              "internalType": "uint8",
              "name": "overlay",
              "type": "uint8"
            },
            {
              "internalType": "uint8",
              "name": "rarity",
              "type": "uint8"
            }
          ],
          "internalType": "struct LavaLamp.Metadata[]",
          "name": "",
          "type": "tuple[]"
        }
      ],
      "stateMutability": "view",
      "type": "function"
    },
    {
      "inputs": [],
      "name": "totalSupply",
      "outputs": [
        {
          "internalType": "uint256",
          "name": "",
          "type": "uint256"
        }
      ],
      "stateMutability": "view",
      "type": "function"
    },
    {
      "inputs": [
        {
          "internalType": "address",
          "name": "owner",
          "type": "address"
        },
        {
          "internalType": "uint256",
          "name": "index",
          "type": "uint256"
        }
      ],
      "name": "tokenOfOwnerByIndex",
      "outputs": [
        {
          "internalType": "uint256",
          "name": "tokenId",
          "type": "uint256"
        }
      ],
      "stateMutability": "view",
      "type": "function"
    },
    {
      "inputs": [
        {
          "internalType": "uint256",
          "name": "index",
          "type": "uint256"
        }
      ],
      "name": "tokenByIndex",
      "outputs": [
        {
          "internalType": "uint256",
          "name": "",
          "type": "uint256"
        }
      ],
      "stateMutability": "pure",
      "type": "function"
    }
  ],
  "bytecode": "0x6080604052611f2c600955666a94d74f430000600a556014600b556000600c556000600d556000600e553480156200003657600080fd5b50604051620067523803806200675283398181016040528101906200005c9190620014a5565b6040518060400160405280600881526020017f4c6176614c616d700000000000000000000000000000000000000000000000008152506040518060400160405280600881526020017f4c4156414c414d50000000000000000000000000000000000000000000000000815250620000e8620000dc620001de60201b60201c565b620001e660201b60201c565b81600190805190602001906200010092919062001310565b5080600290805190602001906200011992919062001310565b505050620001626040518060400160405280601c81526020017f687474703a2f2f6c6f63616c686f73743a333030302f746f6b656e2f00000000815250620002aa60201b60201c565b80600f60006101000a81548173ffffffffffffffffffffffffffffffffffffffff021916908373ffffffffffffffffffffffffffffffffffffffff16021790555060005b6002811215620001d657620001c06200035560201b60201c565b8080620001cd9062001510565b915050620001a6565b505062001be4565b600033905090565b60008060009054906101000a900473ffffffffffffffffffffffffffffffffffffffff169050816000806101000a81548173ffffffffffffffffffffffffffffffffffffffff021916908373ffffffffffffffffffffffffffffffffffffffff1602179055508173ffffffffffffffffffffffffffffffffffffffff168173ffffffffffffffffffffffffffffffffffffffff167f8be0079c531659141344cd1fd0a4f28419497f9722a3daafe3b4186f6b6457e060405160405180910390a35050565b620002ba620001de60201b60201c565b73ffffffffffffffffffffffffffffffffffffffff16620002e06200089260201b60201c565b73ffffffffffffffffffffffffffffffffffffffff161462000339576040517f08c379a00000000000000000000000000000000000000000000000000000000081526004016200033090620015bf565b60405180910390fd5b80600890805190602001906200035192919062001310565b5050565b6200035f620013a1565b600062000371620008bb60201b60201c565b9050600081905060008060009050600080600080600a876200039491906200161a565b9050600a8160ff1688620003a9919062001652565b620003b591906200168d565b9650600a87620003c691906200161a565b9150600a8260ff1688620003db919062001652565b620003e791906200168d565b9650600a87620003f891906200161a565b9250600a8360ff16886200040d919062001652565b6200041991906200168d565b9650600a876200042a91906200161a565b9350600a8460ff16886200043f919062001652565b6200044b91906200168d565b965060008160ff1611156200046b5784806200046790620016d2565b9550505b60008260ff161115620004895784806200048590620016d2565b9550505b60008360ff161115620004a7578480620004a390620016d2565b9550505b60008460ff161115620004c5578480620004c190620016d2565b9550505b84896080019060ff16908160ff1681525050838960a0019060ff16908160ff1681525050828960c0019060ff16908160ff1681525050818960e0019060ff16908160ff16815250508089610100019060ff16908160ff1681525050620f42406200053689886200090460201b60201c565b6200054291906200161a565b955062000555866200094060201b60201c565b896000019060ff16908160ff1681525050620f42406200057c89886200090460201b60201c565b6200058891906200161a565b95506200059b866200099560201b60201c565b896020019060ff16908160ff1681525050620f4240620005c289886200090460201b60201c565b620005ce91906200161a565b9550620005e18662000a7460201b60201c565b896040019060ff16908160ff1681525050620f42406200060889886200090460201b60201c565b6200061491906200161a565b9550620006278662000af760201b60201c565b896060019060ff16908160ff1681525050620f42406200064e89886200090460201b60201c565b6200065a91906200161a565b95506200066d8662000b1e60201b60201c565b89610120019060ff16908160ff1681525050620f42406200069589886200090460201b60201c565b620006a191906200161a565b9550620006b48662000be660201b60201c565b89610140019060ff16908160ff168152505088600760008a815260200190815260200160002060008201518160000160006101000a81548160ff021916908360ff16021790555060208201518160000160016101000a81548160ff021916908360ff16021790555060408201518160000160026101000a81548160ff021916908360ff16021790555060608201518160000160036101000a81548160ff021916908360ff16021790555060808201518160000160046101000a81548160ff021916908360ff16021790555060a08201518160000160056101000a81548160ff021916908360ff16021790555060c08201518160000160066101000a81548160ff021916908360ff16021790555060e08201518160000160076101000a81548160ff021916908360ff1602179055506101008201518160000160086101000a81548160ff021916908360ff1602179055506101208201518160000160096101000a81548160ff021916908360ff16021790555061014082015181600001600a6101000a81548160ff021916908360ff1602179055509050506200085d338962000c6960201b60201c565b6200086d62000c8f60201b60201c565b600e6000815480929190620008829062001701565b9190505550505050505050505050565b60008060009054906101000a900473ffffffffffffffffffffffffffffffffffffffff16905090565b60008061018f90506000620008d8600d5462000ce060201b60201c565b90506000600c548383620008ed91906200174f565b620008f99190620017b0565b905080935050505090565b6000424484846040516020016200091f94939291906200181e565b6040516020818303038152906040528051906020012060001c905092915050565b6000806203d0908310156200095957600090506200098c565b6207a1208310156200096f57600190506200098b565b620b71b08310156200098557600290506200098a565b600390505b5b5b80915050919050565b600080620186a0831015620009ae576000905062000a6b565b62030d40831015620009c4576001905062000a6a565b620493e0831015620009da576002905062000a69565b62061a80831015620009f0576003905062000a68565b6207a12083101562000a06576004905062000a67565b620927c083101562000a1c576005905062000a66565b620aae6083101562000a32576006905062000a65565b620c350083101562000a48576007905062000a64565b620dbba083101562000a5e576008905062000a63565b600990505b5b5b5b5b5b5b5b5b80915050919050565b60008062028b0a83101562000a8d576000905062000aee565b6205161483101562000aa3576001905062000aed565b6207a11e83101562000ab9576002905062000aec565b620a2c2883101562000acf576003905062000aeb565b620cb73283101562000ae5576004905062000aea565b600590505b5b5b5b5b80915050919050565b6000806207a12083101562000b10576000905062000b15565b600190505b80915050919050565b6000806201b20783101562000b37576000905062000bdd565b6203640e83101562000b4d576001905062000bdc565b6205161583101562000b63576002905062000bdb565b6206c81c83101562000b79576003905062000bda565b62087a2383101562000b8f576004905062000bd9565b620a2c2a83101562000ba5576005905062000bd8565b620bde3183101562000bbb576006905062000bd7565b620d903883101562000bd1576007905062000bd6565b600890505b5b5b5b5b5b5b5b80915050919050565b60008062028b0a83101562000bff576000905062000c60565b6205161483101562000c15576001905062000c5f565b6207a11e83101562000c2b576002905062000c5e565b620a2c2883101562000c41576003905062000c5d565b620cb73283101562000c57576004905062000c5c565b600590505b5b5b5b5b80915050919050565b62000c8b82826040518060200160405280600081525062000e8e60201b60201c565b5050565b60006013905080600d54101562000cbd576001600d5462000cb19190620017b0565b600d8190555062000cdd565b6000600d819055506001600c5462000cd69190620017b0565b600c819055505b50565b60008060009050600083141562000cfb576003905062000e85565b600183141562000d0f576011905062000e84565b600283141562000d2357600a905062000e83565b600383141562000d3757600d905062000e82565b600483141562000d4b576012905062000e81565b600583141562000d5f576000905062000e80565b600683141562000d73576004905062000e7f565b600783141562000d87576001905062000e7e565b600883141562000d9b576006905062000e7d565b600983141562000daf576013905062000e7c565b600a83141562000dc3576008905062000e7b565b600b83141562000dd757600c905062000e7a565b600c83141562000deb576002905062000e79565b600d83141562000dff57600e905062000e78565b600e83141562000e1357600b905062000e77565b600f83141562000e27576007905062000e76565b601083141562000e3b57600f905062000e75565b601183141562000e4f576009905062000e74565b601283141562000e63576005905062000e73565b601383141562000e7257601090505b5b5b5b5b5b5b5b5b5b5b5b5b5b5b5b5b5b5b5b80915050919050565b62000ea0838362000efc60201b60201c565b62000eb56000848484620010e260201b60201c565b62000ef7576040517f08c379a000000000000000000000000000000000000000000000000000000000815260040162000eee90620018e1565b60405180910390fd5b505050565b600073ffffffffffffffffffffffffffffffffffffffff168273ffffffffffffffffffffffffffffffffffffffff16141562000f6f576040517f08c379a000000000000000000000000000000000000000000000000000000000815260040162000f669062001953565b60405180910390fd5b62000f80816200128c60201b60201c565b1562000fc3576040517f08c379a000000000000000000000000000000000000000000000000000000000815260040162000fba90620019c5565b60405180910390fd5b62000fd760008383620012f860201b60201c565b6001600460008473ffffffffffffffffffffffffffffffffffffffff1673ffffffffffffffffffffffffffffffffffffffff1681526020019081526020016000206000828254620010299190620017b0565b92505081905550816003600083815260200190815260200160002060006101000a81548173ffffffffffffffffffffffffffffffffffffffff021916908373ffffffffffffffffffffffffffffffffffffffff160217905550808273ffffffffffffffffffffffffffffffffffffffff16600073ffffffffffffffffffffffffffffffffffffffff167fddf252ad1be2c89b69c2b068fc378daa952ba7f163c4a11628f55a4df523b3ef60405160405180910390a45050565b6000620011108473ffffffffffffffffffffffffffffffffffffffff16620012fd60201b62001c771760201c565b156200127f578373ffffffffffffffffffffffffffffffffffffffff1663150b7a0262001142620001de60201b60201c565b8786866040518563ffffffff1660e01b815260040162001166949392919062001a9c565b6020604051808303816000875af1925050508015620011a557506040513d601f19601f82011682018060405250810190620011a2919062001b4d565b60015b6200122e573d8060008114620011d8576040519150601f19603f3d011682016040523d82523d6000602084013e620011dd565b606091505b5060008151141562001226576040517f08c379a00000000000000000000000000000000000000000000000000000000081526004016200121d90620018e1565b60405180910390fd5b805181602001fd5b63150b7a0260e01b7bffffffffffffffffffffffffffffffffffffffffffffffffffffffff1916817bffffffffffffffffffffffffffffffffffffffffffffffffffffffff19161491505062001284565b600190505b949350505050565b60008073ffffffffffffffffffffffffffffffffffffffff166003600084815260200190815260200160002060009054906101000a900473ffffffffffffffffffffffffffffffffffffffff1673ffffffffffffffffffffffffffffffffffffffff1614159050919050565b505050565b600080823b905060008111915050919050565b8280546200131e9062001bae565b90600052602060002090601f0160209004810192826200134257600085556200138e565b82601f106200135d57805160ff19168380011785556200138e565b828001600101855582156200138e579182015b828111156200138d57825182559160200191906001019062001370565b5b5090506200139d91906200141c565b5090565b604051806101600160405280600060ff168152602001600060ff168152602001600060ff168152602001600060ff168152602001600060ff168152602001600060ff168152602001600060ff168152602001600060ff168152602001600060ff168152602001600060ff168152602001600060ff1681525090565b5b80821115620014375760008160009055506001016200141d565b5090565b600080fd5b600073ffffffffffffffffffffffffffffffffffffffff82169050919050565b60006200146d8262001440565b9050919050565b6200147f8162001460565b81146200148b57600080fd5b50565b6000815190506200149f8162001474565b92915050565b600060208284031215620014be57620014bd6200143b565b5b6000620014ce848285016200148e565b91505092915050565b7f4e487b7100000000000000000000000000000000000000000000000000000000600052601160045260246000fd5b6000819050919050565b60006200151d8262001506565b91507f7fffffffffffffffffffffffffffffffffffffffffffffffffffffffffffffff821415620015535762001552620014d7565b5b600182019050919050565b600082825260208201905092915050565b7f4f776e61626c653a2063616c6c6572206973206e6f7420746865206f776e6572600082015250565b6000620015a76020836200155e565b9150620015b4826200156f565b602082019050919050565b60006020820190508181036000830152620015da8162001598565b9050919050565b6000819050919050565b7f4e487b7100000000000000000000000000000000000000000000000000000000600052601260045260246000fd5b60006200162782620015e1565b91506200163483620015e1565b925082620016475762001646620015eb565b5b828206905092915050565b60006200165f82620015e1565b91506200166c83620015e1565b925082821015620016825762001681620014d7565b5b828203905092915050565b60006200169a82620015e1565b9150620016a783620015e1565b925082620016ba57620016b9620015eb565b5b828204905092915050565b600060ff82169050919050565b6000620016df82620016c5565b915060ff821415620016f657620016f5620014d7565b5b600182019050919050565b60006200170e82620015e1565b91507fffffffffffffffffffffffffffffffffffffffffffffffffffffffffffffffff821415620017445762001743620014d7565b5b600182019050919050565b60006200175c82620015e1565b91506200176983620015e1565b9250817fffffffffffffffffffffffffffffffffffffffffffffffffffffffffffffffff0483118215151615620017a557620017a4620014d7565b5b828202905092915050565b6000620017bd82620015e1565b9150620017ca83620015e1565b9250827fffffffffffffffffffffffffffffffffffffffffffffffffffffffffffffffff03821115620018025762001801620014d7565b5b828201905092915050565b6200181881620015e1565b82525050565b60006080820190506200183560008301876200180d565b6200184460208301866200180d565b6200185360408301856200180d565b6200186260608301846200180d565b95945050505050565b7f4552433732313a207472616e7366657220746f206e6f6e20455243373231526560008201527f63656976657220696d706c656d656e7465720000000000000000000000000000602082015250565b6000620018c96032836200155e565b9150620018d6826200186b565b604082019050919050565b60006020820190508181036000830152620018fc81620018ba565b9050919050565b7f4552433732313a206d696e7420746f20746865207a65726f2061646472657373600082015250565b60006200193b6020836200155e565b9150620019488262001903565b602082019050919050565b600060208201905081810360008301526200196e816200192c565b9050919050565b7f4552433732313a20746f6b656e20616c7265616479206d696e74656400000000600082015250565b6000620019ad601c836200155e565b9150620019ba8262001975565b602082019050919050565b60006020820190508181036000830152620019e0816200199e565b9050919050565b620019f28162001460565b82525050565b600081519050919050565b600082825260208201905092915050565b60005b8381101562001a3457808201518184015260208101905062001a17565b8381111562001a44576000848401525b50505050565b6000601f19601f8301169050919050565b600062001a6882620019f8565b62001a74818562001a03565b935062001a8681856020860162001a14565b62001a918162001a4a565b840191505092915050565b600060808201905062001ab36000830187620019e7565b62001ac26020830186620019e7565b62001ad160408301856200180d565b818103606083015262001ae5818462001a5b565b905095945050505050565b60007fffffffff0000000000000000000000000000000000000000000000000000000082169050919050565b62001b278162001af0565b811462001b3357600080fd5b50565b60008151905062001b478162001b1c565b92915050565b60006020828403121562001b665762001b656200143b565b5b600062001b768482850162001b36565b91505092915050565b7f4e487b7100000000000000000000000000000000000000000000000000000000600052602260045260246000fd5b6000600282049050600182168062001bc757607f821691505b6020821081141562001bde5762001bdd62001b7f565b5b50919050565b614b5e8062001bf46000396000f3fe6080604052600436106101665760003560e01c80636352211e116100d1578063b88d4fde1161008a578063e985e9c511610064578063e985e9c514610553578063e9c6f1fb14610590578063ee3def0e146105cd578063f2fde38b146105f857610166565b8063b88d4fde146104b0578063c87b56dd146104d9578063e4b50cb81461051657610166565b80636352211e146103a057806370a08231146103dd578063715018a61461041a5780638da5cb5b1461043157806395d89b411461045c578063a22cb4651461048757610166565b806323b872dd1161012357806323b872dd1461028f5780632f745c59146102b8578063379607f5146102f557806342842e0e146103115780634f6ccce71461033a57806355f804b31461037757610166565b806301ffc9a71461016b57806306fdde03146101a8578063081812fc146101d3578063095ea7b31461021057806318160ddd146102395780631f9ea56a14610264575b600080fd5b34801561017757600080fd5b50610192600480360381019061018d9190613436565b610621565b60405161019f919061347e565b60405180910390f35b3480156101b457600080fd5b506101bd610703565b6040516101ca9190613532565b60405180910390f35b3480156101df57600080fd5b506101fa60048036038101906101f5919061358a565b610795565b60405161020791906135f8565b60405180910390f35b34801561021c57600080fd5b506102376004803603810190610232919061363f565b61081a565b005b34801561024557600080fd5b5061024e610932565b60405161025b919061368e565b60405180910390f35b34801561027057600080fd5b5061027961093c565b6040516102869190613856565b60405180910390f35b34801561029b57600080fd5b506102b660048036038101906102b19190613878565b610b61565b005b3480156102c457600080fd5b506102df60048036038101906102da919061363f565b610bc1565b6040516102ec919061368e565b60405180910390f35b61030f600480360381019061030a919061358a565b610c61565b005b34801561031d57600080fd5b5061033860048036038101906103339190613878565b610df0565b005b34801561034657600080fd5b50610361600480360381019061035c919061358a565b610e10565b60405161036e919061368e565b60405180910390f35b34801561038357600080fd5b5061039e60048036038101906103999190613a00565b610e22565b005b3480156103ac57600080fd5b506103c760048036038101906103c2919061358a565b610eb8565b6040516103d491906135f8565b60405180910390f35b3480156103e957600080fd5b5061040460048036038101906103ff9190613a49565b610f6a565b604051610411919061368e565b60405180910390f35b34801561042657600080fd5b5061042f611022565b005b34801561043d57600080fd5b506104466110aa565b60405161045391906135f8565b60405180910390f35b34801561046857600080fd5b506104716110d3565b60405161047e9190613532565b60405180910390f35b34801561049357600080fd5b506104ae60048036038101906104a99190613aa2565b611165565b005b3480156104bc57600080fd5b506104d760048036038101906104d29190613b83565b6112e6565b005b3480156104e557600080fd5b5061050060048036038101906104fb919061358a565b611348565b60405161050d9190613532565b60405180910390f35b34801561052257600080fd5b5061053d6004803603810190610538919061358a565b6113ef565b60405161054a9190613cb5565b60405180910390f35b34801561055f57600080fd5b5061057a60048036038101906105759190613cd7565b6117e5565b604051610587919061347e565b60405180910390f35b34801561059c57600080fd5b506105b760048036038101906105b29190613a49565b611879565b6040516105c49190613856565b60405180910390f35b3480156105d957600080fd5b506105e2611b59565b6040516105ef9190613d38565b60405180910390f35b34801561060457600080fd5b5061061f600480360381019061061a9190613a49565b611b7f565b005b60007f80ac58cd000000000000000000000000000000000000000000000000000000007bffffffffffffffffffffffffffffffffffffffffffffffffffffffff1916827bffffffffffffffffffffffffffffffffffffffffffffffffffffffff191614806106ec57507f5b5e139f000000000000000000000000000000000000000000000000000000007bffffffffffffffffffffffffffffffffffffffffffffffffffffffff1916827bffffffffffffffffffffffffffffffffffffffffffffffffffffffff1916145b806106fc57506106fb82611c8a565b5b9050919050565b60606001805461071290613d82565b80601f016020809104026020016040519081016040528092919081815260200182805461073e90613d82565b801561078b5780601f106107605761010080835404028352916020019161078b565b820191906000526020600020905b81548152906001019060200180831161076e57829003601f168201915b5050505050905090565b60006107a082611cf4565b6107df576040517f08c379a00000000000000000000000000000000000000000000000000000000081526004016107d690613e26565b60405180910390fd5b6005600083815260200190815260200160002060009054906101000a900473ffffffffffffffffffffffffffffffffffffffff169050919050565b600061082582610eb8565b90508073ffffffffffffffffffffffffffffffffffffffff168373ffffffffffffffffffffffffffffffffffffffff161415610896576040517f08c379a000000000000000000000000000000000000000000000000000000000815260040161088d90613eb8565b60405180910390fd5b8073ffffffffffffffffffffffffffffffffffffffff166108b5611d60565b73ffffffffffffffffffffffffffffffffffffffff1614806108e457506108e3816108de611d60565b6117e5565b5b610923576040517f08c379a000000000000000000000000000000000000000000000000000000000815260040161091a90613f4a565b60405180910390fd5b61092d8383611d68565b505050565b6000600e54905090565b6060600080600e5467ffffffffffffffff81111561095d5761095c6138d5565b5b60405190808252806020026020018201604052801561099657816020015b6109836132ac565b81526020019060019003908161097b5790505b50905060005b600954811015610b58576109af81611cf4565b15610b4557600060076000838152602001908152602001600020604051806101600160405290816000820160009054906101000a900460ff1660ff1660ff1681526020016000820160019054906101000a900460ff1660ff1660ff1681526020016000820160029054906101000a900460ff1660ff1660ff1681526020016000820160039054906101000a900460ff1660ff1660ff1681526020016000820160049054906101000a900460ff1660ff1660ff1681526020016000820160059054906101000a900460ff1660ff1660ff1681526020016000820160069054906101000a900460ff1660ff1660ff1681526020016000820160079054906101000a900460ff1660ff1660ff1681526020016000820160089054906101000a900460ff1660ff1660ff1681526020016000820160099054906101000a900460ff1660ff1660ff16815260200160008201600a9054906101000a900460ff1660ff1660ff1681525050905080838581518110610b2a57610b29613f6a565b5b60200260200101819052508380610b4090613fc8565b945050505b8080610b5090613fc8565b91505061099c565b50809250505090565b610b72610b6c611d60565b82611e21565b610bb1576040517f08c379a0000000000000000000000000000000000000000000000000000000008152600401610ba890614083565b60405180910390fd5b610bbc838383611eff565b505050565b6000806000905060005b600954811015610c5457610bde81611cf4565b15610c41578473ffffffffffffffffffffffffffffffffffffffff16610c0382610eb8565b73ffffffffffffffffffffffffffffffffffffffff161415610c40578180610c2a90613fc8565b92505081841415610c3f578092505050610c5b565b5b5b8080610c4c90613fc8565b915050610bcb565b5060009150505b92915050565b60008111610c6e57600080fd5b600b54811115610c7d57600080fd5b60095481600e54610c8e91906140a3565b1115610c9957600080fd5b600081600a54610ca991906140f9565b9050610cb36110aa565b73ffffffffffffffffffffffffffffffffffffffff163373ffffffffffffffffffffffffffffffffffffffff1614610cf35780341015610cf257600080fd5b5b6000600190505b828111610d1c57610d0961215b565b8080610d1490613fc8565b915050610cfa565b506000600f60009054906101000a900473ffffffffffffffffffffffffffffffffffffffff1673ffffffffffffffffffffffffffffffffffffffff1682604051610d6590614184565b60006040518083038185875af1925050503d8060008114610da2576040519150601f19603f3d011682016040523d82523d6000602084013e610da7565b606091505b5050905080610deb576040517f08c379a0000000000000000000000000000000000000000000000000000000008152600401610de2906141e5565b60405180910390fd5b505050565b610e0b838383604051806020016040528060008152506112e6565b505050565b6000610e1b826125ec565b9050919050565b610e2a611d60565b73ffffffffffffffffffffffffffffffffffffffff16610e486110aa565b73ffffffffffffffffffffffffffffffffffffffff1614610e9e576040517f08c379a0000000000000000000000000000000000000000000000000000000008152600401610e9590614251565b60405180910390fd5b8060089080519060200190610eb4929190613327565b5050565b6000806003600084815260200190815260200160002060009054906101000a900473ffffffffffffffffffffffffffffffffffffffff169050600073ffffffffffffffffffffffffffffffffffffffff168173ffffffffffffffffffffffffffffffffffffffff161415610f61576040517f08c379a0000000000000000000000000000000000000000000000000000000008152600401610f58906142e3565b60405180910390fd5b80915050919050565b60008073ffffffffffffffffffffffffffffffffffffffff168273ffffffffffffffffffffffffffffffffffffffff161415610fdb576040517f08c379a0000000000000000000000000000000000000000000000000000000008152600401610fd290614375565b60405180910390fd5b600460008373ffffffffffffffffffffffffffffffffffffffff1673ffffffffffffffffffffffffffffffffffffffff168152602001908152602001600020549050919050565b61102a611d60565b73ffffffffffffffffffffffffffffffffffffffff166110486110aa565b73ffffffffffffffffffffffffffffffffffffffff161461109e576040517f08c379a000000000000000000000000000000000000000000000000000000000815260040161109590614251565b60405180910390fd5b6110a86000612691565b565b60008060009054906101000a900473ffffffffffffffffffffffffffffffffffffffff16905090565b6060600280546110e290613d82565b80601f016020809104026020016040519081016040528092919081815260200182805461110e90613d82565b801561115b5780601f106111305761010080835404028352916020019161115b565b820191906000526020600020905b81548152906001019060200180831161113e57829003601f168201915b5050505050905090565b61116d611d60565b73ffffffffffffffffffffffffffffffffffffffff168273ffffffffffffffffffffffffffffffffffffffff1614156111db576040517f08c379a00000000000000000000000000000000000000000000000000000000081526004016111d2906143e1565b60405180910390fd5b80600660006111e8611d60565b73ffffffffffffffffffffffffffffffffffffffff1673ffffffffffffffffffffffffffffffffffffffff16815260200190815260200160002060008473ffffffffffffffffffffffffffffffffffffffff1673ffffffffffffffffffffffffffffffffffffffff16815260200190815260200160002060006101000a81548160ff0219169083151502179055508173ffffffffffffffffffffffffffffffffffffffff16611295611d60565b73ffffffffffffffffffffffffffffffffffffffff167f17307eab39ab6107e8899845ad3d59bd9653f200f220920489ca2b5937696c31836040516112da919061347e565b60405180910390a35050565b6112f76112f1611d60565b83611e21565b611336576040517f08c379a000000000000000000000000000000000000000000000000000000000815260040161132d90614083565b60405180910390fd5b61134284848484612755565b50505050565b606061135382611cf4565b611392576040517f08c379a000000000000000000000000000000000000000000000000000000000815260040161138990614473565b60405180910390fd5b600061139c6127b1565b905060008151116113bc57604051806020016040528060008152506113e7565b806113c684612843565b6040516020016113d79291906144cf565b6040516020818303038152906040525b915050919050565b60606113fa82611cf4565b611439576040517f08c379a00000000000000000000000000000000000000000000000000000000081526004016114309061453f565b60405180910390fd5b600060076000848152602001908152602001600020604051806101600160405290816000820160009054906101000a900460ff1660ff1660ff1681526020016000820160019054906101000a900460ff1660ff1660ff1681526020016000820160029054906101000a900460ff1660ff1660ff1681526020016000820160039054906101000a900460ff1660ff1660ff1681526020016000820160049054906101000a900460ff1660ff1660ff1681526020016000820160059054906101000a900460ff1660ff1660ff1681526020016000820160069054906101000a900460ff1660ff1660ff1681526020016000820160079054906101000a900460ff1660ff1660ff1681526020016000820160089054906101000a900460ff1660ff1660ff1681526020016000820160099054906101000a900460ff1660ff1660ff16815260200160008201600a9054906101000a900460ff1660ff1660ff168152505090506000600b67ffffffffffffffff8111156115b8576115b76138d5565b5b6040519080825280602002602001820160405280156115e65781602001602082028036833780820191505090505b50905081600001518160008151811061160257611601613f6a565b5b602002602001019060ff16908160ff168152505081602001518160018151811061162f5761162e613f6a565b5b602002602001019060ff16908160ff168152505081604001518160028151811061165c5761165b613f6a565b5b602002602001019060ff16908160ff168152505081606001518160038151811061168957611688613f6a565b5b602002602001019060ff16908160ff16815250508160800151816004815181106116b6576116b5613f6a565b5b602002602001019060ff16908160ff16815250508160a00151816005815181106116e3576116e2613f6a565b5b602002602001019060ff16908160ff16815250508160c00151816006815181106117105761170f613f6a565b5b602002602001019060ff16908160ff16815250508160e001518160078151811061173d5761173c613f6a565b5b602002602001019060ff16908160ff16815250508161010001518160088151811061176b5761176a613f6a565b5b602002602001019060ff16908160ff16815250508161012001518160098151811061179957611798613f6a565b5b602002602001019060ff16908160ff168152505081610140015181600a815181106117c7576117c6613f6a565b5b602002602001019060ff16908160ff16815250508092505050919050565b6000600660008473ffffffffffffffffffffffffffffffffffffffff1673ffffffffffffffffffffffffffffffffffffffff16815260200190815260200160002060008373ffffffffffffffffffffffffffffffffffffffff1673ffffffffffffffffffffffffffffffffffffffff16815260200190815260200160002060009054906101000a900460ff16905092915050565b606060008060005b6009548110156118f85761189481611cf4565b156118e5578473ffffffffffffffffffffffffffffffffffffffff166118b982610eb8565b73ffffffffffffffffffffffffffffffffffffffff1614156118e45782806118e090613fc8565b9350505b5b80806118f090613fc8565b915050611881565b5060008267ffffffffffffffff811115611915576119146138d5565b5b60405190808252806020026020018201604052801561194e57816020015b61193b6132ac565b8152602001906001900390816119335790505b50905060005b600954811015611b4d5761196781611cf4565b15611b3a578573ffffffffffffffffffffffffffffffffffffffff1661198c82610eb8565b73ffffffffffffffffffffffffffffffffffffffff161415611b3957600060076000838152602001908152602001600020604051806101600160405290816000820160009054906101000a900460ff1660ff1660ff1681526020016000820160019054906101000a900460ff1660ff1660ff1681526020016000820160029054906101000a900460ff1660ff1660ff1681526020016000820160039054906101000a900460ff1660ff1660ff1681526020016000820160049054906101000a900460ff1660ff1660ff1681526020016000820160059054906101000a900460ff1660ff1660ff1681526020016000820160069054906101000a900460ff1660ff1660ff1681526020016000820160079054906101000a900460ff1660ff1660ff1681526020016000820160089054906101000a900460ff1660ff1660ff1681526020016000820160099054906101000a900460ff1660ff1660ff16815260200160008201600a9054906101000a900460ff1660ff1660ff1681525050905080838581518110611b1e57611b1d613f6a565b5b60200260200101819052508380611b3490613fc8565b945050505b5b8080611b4590613fc8565b915050611954565b50809350505050919050565b600f60009054906101000a900473ffffffffffffffffffffffffffffffffffffffff1681565b611b87611d60565b73ffffffffffffffffffffffffffffffffffffffff16611ba56110aa565b73ffffffffffffffffffffffffffffffffffffffff1614611bfb576040517f08c379a0000000000000000000000000000000000000000000000000000000008152600401611bf290614251565b60405180910390fd5b600073ffffffffffffffffffffffffffffffffffffffff168173ffffffffffffffffffffffffffffffffffffffff161415611c6b576040517f08c379a0000000000000000000000000000000000000000000000000000000008152600401611c62906145d1565b60405180910390fd5b611c7481612691565b50565b600080823b905060008111915050919050565b60007f01ffc9a7000000000000000000000000000000000000000000000000000000007bffffffffffffffffffffffffffffffffffffffffffffffffffffffff1916827bffffffffffffffffffffffffffffffffffffffffffffffffffffffff1916149050919050565b60008073ffffffffffffffffffffffffffffffffffffffff166003600084815260200190815260200160002060009054906101000a900473ffffffffffffffffffffffffffffffffffffffff1673ffffffffffffffffffffffffffffffffffffffff1614159050919050565b600033905090565b816005600083815260200190815260200160002060006101000a81548173ffffffffffffffffffffffffffffffffffffffff021916908373ffffffffffffffffffffffffffffffffffffffff160217905550808273ffffffffffffffffffffffffffffffffffffffff16611ddb83610eb8565b73ffffffffffffffffffffffffffffffffffffffff167f8c5be1e5ebec7d5bd14f71427d1e84f3dd0314c0f7b2291e5b200ac8c7c3b92560405160405180910390a45050565b6000611e2c82611cf4565b611e6b576040517f08c379a0000000000000000000000000000000000000000000000000000000008152600401611e6290614663565b60405180910390fd5b6000611e7683610eb8565b90508073ffffffffffffffffffffffffffffffffffffffff168473ffffffffffffffffffffffffffffffffffffffff161480611ee557508373ffffffffffffffffffffffffffffffffffffffff16611ecd84610795565b73ffffffffffffffffffffffffffffffffffffffff16145b80611ef65750611ef581856117e5565b5b91505092915050565b8273ffffffffffffffffffffffffffffffffffffffff16611f1f82610eb8565b73ffffffffffffffffffffffffffffffffffffffff1614611f75576040517f08c379a0000000000000000000000000000000000000000000000000000000008152600401611f6c906146f5565b60405180910390fd5b600073ffffffffffffffffffffffffffffffffffffffff168273ffffffffffffffffffffffffffffffffffffffff161415611fe5576040517f08c379a0000000000000000000000000000000000000000000000000000000008152600401611fdc90614787565b60405180910390fd5b611ff08383836129a4565b611ffb600082611d68565b6001600460008573ffffffffffffffffffffffffffffffffffffffff1673ffffffffffffffffffffffffffffffffffffffff168152602001908152602001600020600082825461204b91906147a7565b925050819055506001600460008473ffffffffffffffffffffffffffffffffffffffff1673ffffffffffffffffffffffffffffffffffffffff16815260200190815260200160002060008282546120a291906140a3565b92505081905550816003600083815260200190815260200160002060006101000a81548173ffffffffffffffffffffffffffffffffffffffff021916908373ffffffffffffffffffffffffffffffffffffffff160217905550808273ffffffffffffffffffffffffffffffffffffffff168473ffffffffffffffffffffffffffffffffffffffff167fddf252ad1be2c89b69c2b068fc378daa952ba7f163c4a11628f55a4df523b3ef60405160405180910390a4505050565b6121636132ac565b600061216d6129a9565b9050600081905060008060009050600080600080600a8761218e919061480a565b9050600a8160ff16886121a191906147a7565b6121ab919061483b565b9650600a876121ba919061480a565b9150600a8260ff16886121cd91906147a7565b6121d7919061483b565b9650600a876121e6919061480a565b9250600a8360ff16886121f991906147a7565b612203919061483b565b9650600a87612212919061480a565b9350600a8460ff168861222591906147a7565b61222f919061483b565b965060008160ff16111561224c5784806122489061486c565b9550505b60008260ff1611156122675784806122639061486c565b9550505b60008360ff16111561228257848061227e9061486c565b9550505b60008460ff16111561229d5784806122999061486c565b9550505b84896080019060ff16908160ff1681525050838960a0019060ff16908160ff1681525050828960c0019060ff16908160ff1681525050818960e0019060ff16908160ff16815250508089610100019060ff16908160ff1681525050620f424061230689886129e6565b612310919061480a565b955061231b86612a20565b896000019060ff16908160ff1681525050620f424061233a89886129e6565b612344919061480a565b955061234f86612a6f565b896020019060ff16908160ff1681525050620f424061236e89886129e6565b612378919061480a565b955061238386612b3c565b896040019060ff16908160ff1681525050620f42406123a289886129e6565b6123ac919061480a565b95506123b786612bb5565b896060019060ff16908160ff1681525050620f42406123d689886129e6565b6123e0919061480a565b95506123eb86612bda565b89610120019060ff16908160ff1681525050620f424061240b89886129e6565b612415919061480a565b955061242086612c92565b89610140019060ff16908160ff168152505088600760008a815260200190815260200160002060008201518160000160006101000a81548160ff021916908360ff16021790555060208201518160000160016101000a81548160ff021916908360ff16021790555060408201518160000160026101000a81548160ff021916908360ff16021790555060608201518160000160036101000a81548160ff021916908360ff16021790555060808201518160000160046101000a81548160ff021916908360ff16021790555060a08201518160000160056101000a81548160ff021916908360ff16021790555060c08201518160000160066101000a81548160ff021916908360ff16021790555060e08201518160000160076101000a81548160ff021916908360ff1602179055506101008201518160000160086101000a81548160ff021916908360ff1602179055506101208201518160000160096101000a81548160ff021916908360ff16021790555061014082015181600001600a6101000a81548160ff021916908360ff1602179055509050506125c13389612d0b565b6125c9612d29565b600e60008154809291906125dc90613fc8565b9190505550505050505050505050565b6000806000905060008060139050600061018f90506000805b60018861261291906140a3565b81101561268357600061262486612d74565b905086848261263391906140f9565b61263d91906140a3565b92508486101561265b5760018661265491906140a3565b955061266f565b6000955060018761266c91906140a3565b96505b50808061267b90613fc8565b915050612605565b508095505050505050919050565b60008060009054906101000a900473ffffffffffffffffffffffffffffffffffffffff169050816000806101000a81548173ffffffffffffffffffffffffffffffffffffffff021916908373ffffffffffffffffffffffffffffffffffffffff1602179055508173ffffffffffffffffffffffffffffffffffffffff168173ffffffffffffffffffffffffffffffffffffffff167f8be0079c531659141344cd1fd0a4f28419497f9722a3daafe3b4186f6b6457e060405160405180910390a35050565b612760848484611eff565b61276c84848484612efb565b6127ab576040517f08c379a00000000000000000000000000000000000000000000000000000000081526004016127a290614908565b60405180910390fd5b50505050565b6060600880546127c090613d82565b80601f01602080910402602001604051908101604052809291908181526020018280546127ec90613d82565b80156128395780601f1061280e57610100808354040283529160200191612839565b820191906000526020600020905b81548152906001019060200180831161281c57829003601f168201915b5050505050905090565b6060600082141561288b576040518060400160405280600181526020017f3000000000000000000000000000000000000000000000000000000000000000815250905061299f565b600082905060005b600082146128bd5780806128a690613fc8565b915050600a826128b6919061483b565b9150612893565b60008167ffffffffffffffff8111156128d9576128d86138d5565b5b6040519080825280601f01601f19166020018201604052801561290b5781602001600182028036833780820191505090505b5090505b600085146129985760018261292491906147a7565b9150600a85612933919061480a565b603061293f91906140a3565b60f81b81838151811061295557612954613f6a565b5b60200101907effffffffffffffffffffffffffffffffffffffffffffffffffffffffffffff1916908160001a905350600a85612991919061483b565b945061290f565b8093505050505b919050565b505050565b60008061018f905060006129be600d54612d74565b90506000600c5483836129d191906140f9565b6129db91906140a3565b905080935050505090565b6000424484846040516020016129ff9493929190614928565b6040516020818303038152906040528051906020012060001c905092915050565b6000806203d090831015612a375760009050612a66565b6207a120831015612a4b5760019050612a65565b620b71b0831015612a5f5760029050612a64565b600390505b5b5b80915050919050565b600080620186a0831015612a865760009050612b33565b62030d40831015612a9a5760019050612b32565b620493e0831015612aae5760029050612b31565b62061a80831015612ac25760039050612b30565b6207a120831015612ad65760049050612b2f565b620927c0831015612aea5760059050612b2e565b620aae60831015612afe5760069050612b2d565b620c3500831015612b125760079050612b2c565b620dbba0831015612b265760089050612b2b565b600990505b5b5b5b5b5b5b5b5b80915050919050565b60008062028b0a831015612b535760009050612bac565b62051614831015612b675760019050612bab565b6207a11e831015612b7b5760029050612baa565b620a2c28831015612b8f5760039050612ba9565b620cb732831015612ba35760049050612ba8565b600590505b5b5b5b5b80915050919050565b6000806207a120831015612bcc5760009050612bd1565b600190505b80915050919050565b6000806201b207831015612bf15760009050612c89565b6203640e831015612c055760019050612c88565b62051615831015612c195760029050612c87565b6206c81c831015612c2d5760039050612c86565b62087a23831015612c415760049050612c85565b620a2c2a831015612c555760059050612c84565b620bde31831015612c695760069050612c83565b620d9038831015612c7d5760079050612c82565b600890505b5b5b5b5b5b5b5b80915050919050565b60008062028b0a831015612ca95760009050612d02565b62051614831015612cbd5760019050612d01565b6207a11e831015612cd15760029050612d00565b620a2c28831015612ce55760039050612cff565b620cb732831015612cf95760049050612cfe565b600590505b5b5b5b5b80915050919050565b612d25828260405180602001604052806000815250613083565b5050565b60006013905080600d541015612d53576001600d54612d4891906140a3565b600d81905550612d71565b6000600d819055506001600c54612d6a91906140a3565b600c819055505b50565b600080600090506000831415612d8d5760039050612ef2565b6001831415612d9f5760119050612ef1565b6002831415612db157600a9050612ef0565b6003831415612dc357600d9050612eef565b6004831415612dd55760129050612eee565b6005831415612de75760009050612eed565b6006831415612df95760049050612eec565b6007831415612e0b5760019050612eeb565b6008831415612e1d5760069050612eea565b6009831415612e2f5760139050612ee9565b600a831415612e415760089050612ee8565b600b831415612e5357600c9050612ee7565b600c831415612e655760029050612ee6565b600d831415612e7757600e9050612ee5565b600e831415612e8957600b9050612ee4565b600f831415612e9b5760079050612ee3565b6010831415612ead57600f9050612ee2565b6011831415612ebf5760099050612ee1565b6012831415612ed15760059050612ee0565b6013831415612edf57601090505b5b5b5b5b5b5b5b5b5b5b5b5b5b5b5b5b5b5b5b80915050919050565b6000612f1c8473ffffffffffffffffffffffffffffffffffffffff16611c77565b15613076578373ffffffffffffffffffffffffffffffffffffffff1663150b7a02612f45611d60565b8786866040518563ffffffff1660e01b8152600401612f6794939291906149c2565b6020604051808303816000875af1925050508015612fa357506040513d601f19601f82011682018060405250810190612fa09190614a23565b60015b613026573d8060008114612fd3576040519150601f19603f3d011682016040523d82523d6000602084013e612fd8565b606091505b5060008151141561301e576040517f08c379a000000000000000000000000000000000000000000000000000000000815260040161301590614908565b60405180910390fd5b805181602001fd5b63150b7a0260e01b7bffffffffffffffffffffffffffffffffffffffffffffffffffffffff1916817bffffffffffffffffffffffffffffffffffffffffffffffffffffffff19161491505061307b565b600190505b949350505050565b61308d83836130de565b61309a6000848484612efb565b6130d9576040517f08c379a00000000000000000000000000000000000000000000000000000000081526004016130d090614908565b60405180910390fd5b505050565b600073ffffffffffffffffffffffffffffffffffffffff168273ffffffffffffffffffffffffffffffffffffffff16141561314e576040517f08c379a000000000000000000000000000000000000000000000000000000000815260040161314590614a9c565b60405180910390fd5b61315781611cf4565b15613197576040517f08c379a000000000000000000000000000000000000000000000000000000000815260040161318e90614b08565b60405180910390fd5b6131a3600083836129a4565b6001600460008473ffffffffffffffffffffffffffffffffffffffff1673ffffffffffffffffffffffffffffffffffffffff16815260200190815260200160002060008282546131f391906140a3565b92505081905550816003600083815260200190815260200160002060006101000a81548173ffffffffffffffffffffffffffffffffffffffff021916908373ffffffffffffffffffffffffffffffffffffffff160217905550808273ffffffffffffffffffffffffffffffffffffffff16600073ffffffffffffffffffffffffffffffffffffffff167fddf252ad1be2c89b69c2b068fc378daa952ba7f163c4a11628f55a4df523b3ef60405160405180910390a45050565b604051806101600160405280600060ff168152602001600060ff168152602001600060ff168152602001600060ff168152602001600060ff168152602001600060ff168152602001600060ff168152602001600060ff168152602001600060ff168152602001600060ff168152602001600060ff1681525090565b82805461333390613d82565b90600052602060002090601f016020900481019282613355576000855561339c565b82601f1061336e57805160ff191683800117855561339c565b8280016001018555821561339c579182015b8281111561339b578251825591602001919060010190613380565b5b5090506133a991906133ad565b5090565b5b808211156133c65760008160009055506001016133ae565b5090565b6000604051905090565b600080fd5b600080fd5b60007fffffffff0000000000000000000000000000000000000000000000000000000082169050919050565b613413816133de565b811461341e57600080fd5b50565b6000813590506134308161340a565b92915050565b60006020828403121561344c5761344b6133d4565b5b600061345a84828501613421565b91505092915050565b60008115159050919050565b61347881613463565b82525050565b6000602082019050613493600083018461346f565b92915050565b600081519050919050565b600082825260208201905092915050565b60005b838110156134d35780820151818401526020810190506134b8565b838111156134e2576000848401525b50505050565b6000601f19601f8301169050919050565b600061350482613499565b61350e81856134a4565b935061351e8185602086016134b5565b613527816134e8565b840191505092915050565b6000602082019050818103600083015261354c81846134f9565b905092915050565b6000819050919050565b61356781613554565b811461357257600080fd5b50565b6000813590506135848161355e565b92915050565b6000602082840312156135a05761359f6133d4565b5b60006135ae84828501613575565b91505092915050565b600073ffffffffffffffffffffffffffffffffffffffff82169050919050565b60006135e2826135b7565b9050919050565b6135f2816135d7565b82525050565b600060208201905061360d60008301846135e9565b92915050565b61361c816135d7565b811461362757600080fd5b50565b60008135905061363981613613565b92915050565b60008060408385031215613656576136556133d4565b5b60006136648582860161362a565b925050602061367585828601613575565b9150509250929050565b61368881613554565b82525050565b60006020820190506136a3600083018461367f565b92915050565b600081519050919050565b600082825260208201905092915050565b6000819050602082019050919050565b600060ff82169050919050565b6136eb816136d5565b82525050565b6101608201600082015161370860008501826136e2565b50602082015161371b60208501826136e2565b50604082015161372e60408501826136e2565b50606082015161374160608501826136e2565b50608082015161375460808501826136e2565b5060a082015161376760a08501826136e2565b5060c082015161377a60c08501826136e2565b5060e082015161378d60e08501826136e2565b506101008201516137a26101008501826136e2565b506101208201516137b76101208501826136e2565b506101408201516137cc6101408501826136e2565b50505050565b60006137de83836136f1565b6101608301905092915050565b6000602082019050919050565b6000613803826136a9565b61380d81856136b4565b9350613818836136c5565b8060005b8381101561384957815161383088826137d2565b975061383b836137eb565b92505060018101905061381c565b5085935050505092915050565b6000602082019050818103600083015261387081846137f8565b905092915050565b600080600060608486031215613891576138906133d4565b5b600061389f8682870161362a565b93505060206138b08682870161362a565b92505060406138c186828701613575565b9150509250925092565b600080fd5b600080fd5b7f4e487b7100000000000000000000000000000000000000000000000000000000600052604160045260246000fd5b61390d826134e8565b810181811067ffffffffffffffff8211171561392c5761392b6138d5565b5b80604052505050565b600061393f6133ca565b905061394b8282613904565b919050565b600067ffffffffffffffff82111561396b5761396a6138d5565b5b613974826134e8565b9050602081019050919050565b82818337600083830152505050565b60006139a361399e84613950565b613935565b9050828152602081018484840111156139bf576139be6138d0565b5b6139ca848285613981565b509392505050565b600082601f8301126139e7576139e66138cb565b5b81356139f7848260208601613990565b91505092915050565b600060208284031215613a1657613a156133d4565b5b600082013567ffffffffffffffff811115613a3457613a336133d9565b5b613a40848285016139d2565b91505092915050565b600060208284031215613a5f57613a5e6133d4565b5b6000613a6d8482850161362a565b91505092915050565b613a7f81613463565b8114613a8a57600080fd5b50565b600081359050613a9c81613a76565b92915050565b60008060408385031215613ab957613ab86133d4565b5b6000613ac78582860161362a565b9250506020613ad885828601613a8d565b9150509250929050565b600067ffffffffffffffff821115613afd57613afc6138d5565b5b613b06826134e8565b9050602081019050919050565b6000613b26613b2184613ae2565b613935565b905082815260208101848484011115613b4257613b416138d0565b5b613b4d848285613981565b509392505050565b600082601f830112613b6a57613b696138cb565b5b8135613b7a848260208601613b13565b91505092915050565b60008060008060808587031215613b9d57613b9c6133d4565b5b6000613bab8782880161362a565b9450506020613bbc8782880161362a565b9350506040613bcd87828801613575565b925050606085013567ffffffffffffffff811115613bee57613bed6133d9565b5b613bfa87828801613b55565b91505092959194509250565b600081519050919050565b600082825260208201905092915050565b6000819050602082019050919050565b6000613c3e83836136e2565b60208301905092915050565b6000602082019050919050565b6000613c6282613c06565b613c6c8185613c11565b9350613c7783613c22565b8060005b83811015613ca8578151613c8f8882613c32565b9750613c9a83613c4a565b925050600181019050613c7b565b5085935050505092915050565b60006020820190508181036000830152613ccf8184613c57565b905092915050565b60008060408385031215613cee57613ced6133d4565b5b6000613cfc8582860161362a565b9250506020613d0d8582860161362a565b9150509250929050565b6000613d22826135b7565b9050919050565b613d3281613d17565b82525050565b6000602082019050613d4d6000830184613d29565b92915050565b7f4e487b7100000000000000000000000000000000000000000000000000000000600052602260045260246000fd5b60006002820490506001821680613d9a57607f821691505b60208210811415613dae57613dad613d53565b5b50919050565b7f4552433732313a20617070726f76656420717565727920666f72206e6f6e657860008201527f697374656e7420746f6b656e0000000000000000000000000000000000000000602082015250565b6000613e10602c836134a4565b9150613e1b82613db4565b604082019050919050565b60006020820190508181036000830152613e3f81613e03565b9050919050565b7f4552433732313a20617070726f76616c20746f2063757272656e74206f776e6560008201527f7200000000000000000000000000000000000000000000000000000000000000602082015250565b6000613ea26021836134a4565b9150613ead82613e46565b604082019050919050565b60006020820190508181036000830152613ed181613e95565b9050919050565b7f4552433732313a20617070726f76652063616c6c6572206973206e6f74206f7760008201527f6e6572206e6f7220617070726f76656420666f7220616c6c0000000000000000602082015250565b6000613f346038836134a4565b9150613f3f82613ed8565b604082019050919050565b60006020820190508181036000830152613f6381613f27565b9050919050565b7f4e487b7100000000000000000000000000000000000000000000000000000000600052603260045260246000fd5b7f4e487b7100000000000000000000000000000000000000000000000000000000600052601160045260246000fd5b6000613fd382613554565b91507fffffffffffffffffffffffffffffffffffffffffffffffffffffffffffffffff82141561400657614005613f99565b5b600182019050919050565b7f4552433732313a207472616e736665722063616c6c6572206973206e6f74206f60008201527f776e6572206e6f7220617070726f766564000000000000000000000000000000602082015250565b600061406d6031836134a4565b915061407882614011565b604082019050919050565b6000602082019050818103600083015261409c81614060565b9050919050565b60006140ae82613554565b91506140b983613554565b9250827fffffffffffffffffffffffffffffffffffffffffffffffffffffffffffffffff038211156140ee576140ed613f99565b5b828201905092915050565b600061410482613554565b915061410f83613554565b9250817fffffffffffffffffffffffffffffffffffffffffffffffffffffffffffffffff048311821515161561414857614147613f99565b5b828202905092915050565b600081905092915050565b50565b600061416e600083614153565b91506141798261415e565b600082019050919050565b600061418f82614161565b9150819050919050565b7f5472616e73666572206661696c65642e00000000000000000000000000000000600082015250565b60006141cf6010836134a4565b91506141da82614199565b602082019050919050565b600060208201905081810360008301526141fe816141c2565b9050919050565b7f4f776e61626c653a2063616c6c6572206973206e6f7420746865206f776e6572600082015250565b600061423b6020836134a4565b915061424682614205565b602082019050919050565b6000602082019050818103600083015261426a8161422e565b9050919050565b7f4552433732313a206f776e657220717565727920666f72206e6f6e657869737460008201527f656e7420746f6b656e0000000000000000000000000000000000000000000000602082015250565b60006142cd6029836134a4565b91506142d882614271565b604082019050919050565b600060208201905081810360008301526142fc816142c0565b9050919050565b7f4552433732313a2062616c616e636520717565727920666f7220746865207a6560008201527f726f206164647265737300000000000000000000000000000000000000000000602082015250565b600061435f602a836134a4565b915061436a82614303565b604082019050919050565b6000602082019050818103600083015261438e81614352565b9050919050565b7f4552433732313a20617070726f766520746f2063616c6c657200000000000000600082015250565b60006143cb6019836134a4565b91506143d682614395565b602082019050919050565b600060208201905081810360008301526143fa816143be565b9050919050565b7f4552433732314d657461646174613a2055524920717565727920666f72206e6f60008201527f6e6578697374656e7420746f6b656e0000000000000000000000000000000000602082015250565b600061445d602f836134a4565b915061446882614401565b604082019050919050565b6000602082019050818103600083015261448c81614450565b9050919050565b600081905092915050565b60006144a982613499565b6144b38185614493565b93506144c38185602086016134b5565b80840191505092915050565b60006144db828561449e565b91506144e7828461449e565b91508190509392505050565b7f746f6b656e206e6f74206d696e74656400000000000000000000000000000000600082015250565b60006145296010836134a4565b9150614534826144f3565b602082019050919050565b600060208201905081810360008301526145588161451c565b9050919050565b7f4f776e61626c653a206e6577206f776e657220697320746865207a65726f206160008201527f6464726573730000000000000000000000000000000000000000000000000000602082015250565b60006145bb6026836134a4565b91506145c68261455f565b604082019050919050565b600060208201905081810360008301526145ea816145ae565b9050919050565b7f4552433732313a206f70657261746f7220717565727920666f72206e6f6e657860008201527f697374656e7420746f6b656e0000000000000000000000000000000000000000602082015250565b600061464d602c836134a4565b9150614658826145f1565b604082019050919050565b6000602082019050818103600083015261467c81614640565b9050919050565b7f4552433732313a207472616e73666572206f6620746f6b656e2074686174206960008201527f73206e6f74206f776e0000000000000000000000000000000000000000000000602082015250565b60006146df6029836134a4565b91506146ea82614683565b604082019050919050565b6000602082019050818103600083015261470e816146d2565b9050919050565b7f4552433732313a207472616e7366657220746f20746865207a65726f2061646460008201527f7265737300000000000000000000000000000000000000000000000000000000602082015250565b60006147716024836134a4565b915061477c82614715565b604082019050919050565b600060208201905081810360008301526147a081614764565b9050919050565b60006147b282613554565b91506147bd83613554565b9250828210156147d0576147cf613f99565b5b828203905092915050565b7f4e487b7100000000000000000000000000000000000000000000000000000000600052601260045260246000fd5b600061481582613554565b915061482083613554565b9250826148305761482f6147db565b5b828206905092915050565b600061484682613554565b915061485183613554565b925082614861576148606147db565b5b828204905092915050565b6000614877826136d5565b915060ff82141561488b5761488a613f99565b5b600182019050919050565b7f4552433732313a207472616e7366657220746f206e6f6e20455243373231526560008201527f63656976657220696d706c656d656e7465720000000000000000000000000000602082015250565b60006148f26032836134a4565b91506148fd82614896565b604082019050919050565b60006020820190508181036000830152614921816148e5565b9050919050565b600060808201905061493d600083018761367f565b61494a602083018661367f565b614957604083018561367f565b614964606083018461367f565b95945050505050565b600081519050919050565b600082825260208201905092915050565b60006149948261496d565b61499e8185614978565b93506149ae8185602086016134b5565b6149b7816134e8565b840191505092915050565b60006080820190506149d760008301876135e9565b6149e460208301866135e9565b6149f1604083018561367f565b8181036060830152614a038184614989565b905095945050505050565b600081519050614a1d8161340a565b92915050565b600060208284031215614a3957614a386133d4565b5b6000614a4784828501614a0e565b91505092915050565b7f4552433732313a206d696e7420746f20746865207a65726f2061646472657373600082015250565b6000614a866020836134a4565b9150614a9182614a50565b602082019050919050565b60006020820190508181036000830152614ab581614a79565b9050919050565b7f4552433732313a20746f6b656e20616c7265616479206d696e74656400000000600082015250565b6000614af2601c836134a4565b9150614afd82614abc565b602082019050919050565b60006020820190508181036000830152614b2181614ae5565b905091905056fea2646970667358221220158b1622ebeff89234311bdf9ab0b9a18569e134df240c27cf7c92c1755c5e2a64736f6c634300080a0033",
  "immutableReferences": {},
  "source": "// SPDX-License-Identifier: MIT\npragma solidity >=0.4.22 <0.9.0;\n\nimport \"@openzeppelin/contracts/access/Ownable.sol\";\nimport \"@openzeppelin/contracts/token/ERC721/ERC721.sol\";\n// FIXME:: check this out\n// https://stackoverflow.com/questions/68810515/totalsupply-is-not-a-function-openzeppelin-contracts\n//import \"@openzeppelin/contracts/token/ERC721/extensions/ERC721Enumerable.sol\";\nimport \"@openzeppelin/contracts/token/ERC721/extensions/IERC721Enumerable.sol\";\n\n// FIXME:: todo, counter to see how many things were minted\n// FIXME:: Should I add the ability to pause the contract???\n// FIXME:: Update contract to the most recent ERC shit\n\ncontract LavaLamp is Ownable, ERC721, IERC721Enumerable {\n    struct Metadata {\n        uint8 attribute;\n        uint8 background; // 10 - (black, blueberry, light blueberry, light raspberry, light strawberry, raspberry, sky, purple, stars, strawberry)\n        uint8 base; // 6 - (standard, alien, rocket, bong, pumpkin, wizard)\n        uint8 glass; // 2 (white or black) - (carbon)\n\n        // 109 (None, red, green, yellow, blue, purple, light blue, orange, white, pink)\n        uint8 lava_count;\n        uint8 lava_1;\n        uint8 lava_2;\n        uint8 lava_3;\n        uint8 lava_4;\n\n        uint8 overlay; // 9 (none, bitcoin, ethereum, lavaception leaves, peace, smoke, swirls, yinyang)\n        uint8 rarity; // 6 (og, gold, diamond, ruby, emerald, rainbow)\n    }\n    mapping(uint256 => Metadata) id_to_lavalamp;\n\n    string private _currentBaseURI;\n\n    uint256 maxSupply = 7980;\n    uint256 cost = 0.03 ether;\n    uint256 maxMintAmount = 20;\n    uint256 lampCount = 0;\n    uint256 currentLampSet = 0;\n    uint256 lampsMinted = 0;\n\n    address payable public purchases;\n\n    constructor(address _purchases) ERC721(\"LavaLamp\", \"LAVALAMP\") {\n        setBaseURI(\"http://localhost:3000/token/\"); // setBaseURI(\"http://www.superdorvil.tech/token/\");\n\n        purchases = payable(_purchases);\n\n        for (int i = 0; i < 2; i++)\n            mint();\n    }\n\n    function setBaseURI(string memory baseURI) public onlyOwner {\n        _currentBaseURI = baseURI;\n    }\n\n    function _baseURI() internal view virtual override returns (string memory) {\n        return _currentBaseURI;\n    }\n\n    function mint () internal {\n        Metadata memory metadata;\n        uint256 tokenId = getId();\n        uint256 lava_index = tokenId;\n        uint256 r;\n\n        uint8 lava_count = 0;\n        uint8 lava_1;\n        uint8 lava_2;\n        uint8 lava_3;\n        uint8 lava_4;\n\n        lava_4 = uint8(lava_index % 10);\n        lava_index = (lava_index - lava_4) / 10;\n        lava_3 = uint8(lava_index % 10);\n        lava_index = (lava_index - lava_3) / 10;\n        lava_2 = uint8(lava_index % 10);\n        lava_index = (lava_index - lava_2) / 10;\n        lava_1 = uint8(lava_index % 10);\n        lava_index = (lava_index - lava_1) / 10;\n\n        if (lava_4 > 0)\n            lava_count++;\n        if (lava_3 > 0)\n            lava_count++;\n        if (lava_2 > 0)\n            lava_count++;\n        if (lava_1 > 0)\n            lava_count++;\n\n        metadata.lava_count = lava_count;\n        metadata.lava_1 = lava_1;\n        metadata.lava_2 = lava_2;\n        metadata.lava_3 = lava_3;\n        metadata.lava_4 = lava_4;\n\n        r = pseudoRNG(tokenId, r) % 1000000;\n        metadata.attribute = generateAttribute(r);\n        r = pseudoRNG(tokenId, r) % 1000000;\n        metadata.background = generateBackground(r);\n        r = pseudoRNG(tokenId, r) % 1000000;\n        metadata.base = generateBase(r);\n        r = pseudoRNG(tokenId, r) % 1000000;\n        metadata.glass = generateGlass(r);\n        r = pseudoRNG(tokenId, r) % 1000000;\n        metadata.overlay = generateOverlay(r);\n        r = pseudoRNG(tokenId, r) % 1000000;\n        metadata.rarity = generateRarity(r);\n\n        id_to_lavalamp[tokenId] = metadata;\n\n        _safeMint(msg.sender, tokenId);\n\n        incrementId();\n        lampsMinted++;\n    }\n\n    function claim(uint256 mintAmount) external payable {\n        require(mintAmount > 0);\n        require(mintAmount <= maxMintAmount);\n        require(lampsMinted + mintAmount <= maxSupply);\n        uint256 price = cost * mintAmount;\n\n        if (msg.sender != owner())\n            require(msg.value >= price);\n\n        for (uint256 i = 1; i <= mintAmount; i++)\n            mint();\n\n        // payable(owner()).transfer(price ether);\n        // (bool success, ) = payable(purchases).call.value(price)(\"\");\n        (bool success, ) = payable(purchases).call{value: price}(\"\");\n        require(success, \"Transfer failed.\");\n    }\n\n    function generateAttribute(uint256 r) internal pure returns(uint8) {\n        uint8 attribute;\n\n        if (r < 250000)\n            attribute = 0;\n        else if (r < 500000)\n            attribute = 1;\n        else if (r < 750000)\n            attribute = 2;\n        else\n            attribute = 3;\n\n        return attribute;\n    }\n\n    function generateBackground(uint256 r) internal pure returns(uint8) {\n        uint8 background;\n\n        if (r < 100000)\n            background = 0;\n        else if (r < 200000)\n            background = 1;\n        else if (r < 300000)\n            background = 2;\n        else if (r < 400000)\n            background = 3;\n        else if (r < 500000)\n            background = 4;\n        else if (r < 600000)\n            background = 5;\n        else if (r < 700000)\n            background = 6;\n        else if (r < 800000)\n            background = 7;\n        else if (r < 900000)\n            background = 8;\n        else\n            background = 9;\n\n        return background;\n    }\n\n    function generateBase(uint256 r) internal pure returns(uint8) {\n        uint8 base;\n\n        if (r < 166666)\n            base = 0;\n        else if (r < 333332)\n            base = 1;\n        else if (r < 499998)\n            base = 2;\n        else if (r < 666664)\n            base = 3;\n        else if (r < 833330)\n            base = 4;\n        else\n            base = 5;\n\n        return base;\n    }\n\n    function generateGlass(uint256 r) internal pure returns(uint8) {\n        uint8 glass;\n\n        if (r < 500000)\n            glass = 0;\n        else\n            glass = 1;\n\n        return glass;\n    }\n\n    function generateOverlay(uint256 r) internal pure returns(uint8) {\n        uint8 overlay;\n\n        if (r < 111111)\n            overlay = 0;\n        else if (r < 222222)\n            overlay = 1;\n        else if (r < 333333)\n            overlay = 2;\n        else if (r < 444444)\n            overlay = 3;\n        else if (r < 555555)\n            overlay = 4;\n        else if (r < 666666)\n            overlay = 5;\n        else if (r < 777777)\n            overlay = 6;\n        else if (r < 888888)\n            overlay = 7;\n        else\n            overlay = 8;\n\n        return overlay;\n    }\n\n    function generateRarity(uint256 r) internal pure returns(uint8) {\n        uint8 rarity;\n\n        if (r < 166666)\n            rarity = 0;\n        else if (r < 333332)\n            rarity = 1;\n        else if (r < 499998)\n            rarity = 2;\n        else if (r < 666664)\n            rarity = 3;\n        else if (r < 833330)\n            rarity = 4;\n        else\n            rarity = 5;\n\n        return rarity;\n    }\n\n    function getId() internal view returns(uint256) {\n        uint256 lampSetSize = 399;\n        uint256 randomLampBlock = randomizeLampBlock(currentLampSet);\n        uint256 id = randomLampBlock * lampSetSize + lampCount;\n\n        return id;\n    }\n\n    function incrementId() internal {\n        uint256 numOfLampBlocks = 19;\n\n        if (currentLampSet < numOfLampBlocks) {\n            currentLampSet = currentLampSet + 1;\n        } else {\n            currentLampSet = 0;\n            lampCount = lampCount + 1;\n        }\n    }\n\n    function randomizeLampBlock(uint256 lampBlock) internal pure returns(uint256) {\n        uint256 randomLampBlock = 0;\n\n        if (lampBlock == 0)\n            randomLampBlock = 3;\n        else if (lampBlock == 1)\n            randomLampBlock = 17;\n        else if (lampBlock == 2)\n            randomLampBlock = 10;\n        else if (lampBlock == 3)\n            randomLampBlock = 13;\n        else if (lampBlock == 4)\n            randomLampBlock = 18;\n        else if (lampBlock == 5)\n            randomLampBlock = 0;\n        else if (lampBlock == 6)\n            randomLampBlock = 4;\n        else if (lampBlock == 7)\n            randomLampBlock = 1;\n        else if (lampBlock == 8)\n            randomLampBlock = 6;\n        else if (lampBlock == 9)\n            randomLampBlock = 19;\n        else if (lampBlock == 10)\n            randomLampBlock = 8;\n        else if (lampBlock == 11)\n            randomLampBlock = 12;\n        else if (lampBlock == 12)\n            randomLampBlock = 2;\n        else if (lampBlock == 13)\n            randomLampBlock = 14;\n        else if (lampBlock == 14)\n            randomLampBlock = 11;\n        else if (lampBlock == 15)\n            randomLampBlock = 7;\n        else if (lampBlock == 16)\n            randomLampBlock = 15;\n        else if (lampBlock == 17)\n            randomLampBlock = 9;\n        else if (lampBlock == 18)\n            randomLampBlock = 5;\n        else if (lampBlock == 19)\n            randomLampBlock = 16;\n\n        return randomLampBlock;\n    }\n\n    function getToken(uint256 tokenId) external view returns(uint8[] memory) {\n        require(_exists(tokenId), \"token not minted\");\n        Metadata memory lavalamp = id_to_lavalamp[tokenId];\n        uint8[] memory meta = new uint8[](11);\n\n        meta[0] = lavalamp.attribute;\n        meta[1] = lavalamp.background;\n        meta[2] = lavalamp.base;\n        meta[3] = lavalamp.glass;\n        meta[4] = lavalamp.lava_count;\n        meta[5] = lavalamp.lava_1;\n        meta[6] = lavalamp.lava_2;\n        meta[7] = lavalamp.lava_3;\n        meta[8] = lavalamp.lava_4;\n        meta[9] = lavalamp.overlay;\n        meta[10] = lavalamp.rarity;\n\n        return meta;\n    }\n\n    function getAllTokenMetadata() external view returns (Metadata[] memory) {\n        uint256 count = 0;\n        Metadata[] memory meta = new Metadata[](lampsMinted);\n\n        for (uint256 i = 0; i < maxSupply; i++) {\n            if (_exists(i)) {\n                Metadata memory m = id_to_lavalamp[i];\n                meta[count] = m;\n                count++;\n            }\n        }\n\n        return meta;\n    }\n\n    // ownerOf(uint256 tokenId)\n    function getTokensOwnedByMetadata(address owner) external view returns (Metadata[] memory) {\n        uint256 ownerSupply = 0;\n        uint256 count = 0;\n\n        for (uint256 i = 0; i < maxSupply; i++) {\n            if (_exists(i)) {\n                if (ownerOf(i) == owner) {\n                    ownerSupply++;\n                }\n            }\n        }\n\n        Metadata[] memory meta = new Metadata[](ownerSupply);\n\n        for (uint256 i = 0; i < maxSupply; i++) {\n            if (_exists(i)) {\n                if (ownerOf(i) == owner) {\n                    Metadata memory m = id_to_lavalamp[i];\n                    meta[count] = m;\n                    count++;\n                }\n            }\n        }\n\n        return meta;\n    }\n\n    // psuedo_rng is the previous rng value, this is just top make sure we get something different everytime and don't use the same psuedo for the, base, sticker, and background\n    function pseudoRNG(uint256 tokenId, uint256 prev_rng) internal view returns (uint256) {\n        return uint256(keccak256(abi.encode(block.timestamp, block.difficulty, tokenId, prev_rng)));\n    }\n\n    function tokenByIndexHelper(uint256 index) internal pure returns (uint256) {\n        uint256 lCount = 0;\n        uint256 curLampSet = 0;\n        uint256 numOfLampBlocks = 19;\n        uint256 lampSetSize = 399;\n        uint256 id = 0;\n\n        // must start at 1, the zeroth index is the first item\n        for (uint256 i = 0; i < index + 1; i++) {\n            uint256 randomLampBlock = randomizeLampBlock(curLampSet);\n            id = randomLampBlock * lampSetSize + lCount;\n\n            if (curLampSet < numOfLampBlocks) {\n                curLampSet = curLampSet + 1;\n            } else {\n                curLampSet = 0;\n                lCount = lCount + 1;\n            }\n        }\n\n        return id;\n    }\n\n    function totalSupply() external view returns (uint256) {\n        return lampsMinted;\n    }\n\n    function tokenOfOwnerByIndex(address owner, uint256 index) external view returns (uint256 tokenId) {\n        uint256 count = 0;\n        for (uint256 i = 0; i < maxSupply; i++) {\n          if (_exists(i)) {\n              if (ownerOf(i) == owner) {\n                  count++;\n                  if (index == count) {\n                    return i;\n                  }\n              }\n          }\n        }\n\n        return 0;\n    }\n\n    function tokenByIndex(uint256 index) external pure returns (uint256) {\n        return tokenByIndexHelper(index);\n    }\n}\n",
  "sourcePath": "/Users/superdorvil/workspace/ReactWorkspace/PersonalProjects/lava-lamp-nft/contracts/LavaLamp.sol",
  "compiler": {
    "name": "solc",
    "version": "0.8.10+commit.fc410830.Emscripten.clang"
  },
  "schemaVersion": "3.4.3",
  "updatedAt": "2021-12-11T18:35:28.881Z",
  "devdoc": {
    "kind": "dev",
    "methods": {
      "approve(address,uint256)": {
        "details": "See {IERC721-approve}."
      },
      "balanceOf(address)": {
        "details": "See {IERC721-balanceOf}."
      },
      "getApproved(uint256)": {
        "details": "See {IERC721-getApproved}."
      },
      "isApprovedForAll(address,address)": {
        "details": "See {IERC721-isApprovedForAll}."
      },
      "name()": {
        "details": "See {IERC721Metadata-name}."
      },
      "owner()": {
        "details": "Returns the address of the current owner."
      },
      "ownerOf(uint256)": {
        "details": "See {IERC721-ownerOf}."
      },
      "renounceOwnership()": {
        "details": "Leaves the contract without owner. It will not be possible to call `onlyOwner` functions anymore. Can only be called by the current owner. NOTE: Renouncing ownership will leave the contract without an owner, thereby removing any functionality that is only available to the owner."
      },
      "safeTransferFrom(address,address,uint256)": {
        "details": "See {IERC721-safeTransferFrom}."
      },
      "safeTransferFrom(address,address,uint256,bytes)": {
        "details": "See {IERC721-safeTransferFrom}."
      },
      "setApprovalForAll(address,bool)": {
        "details": "See {IERC721-setApprovalForAll}."
      },
      "supportsInterface(bytes4)": {
        "details": "See {IERC165-supportsInterface}."
      },
      "symbol()": {
        "details": "See {IERC721Metadata-symbol}."
      },
      "tokenByIndex(uint256)": {
        "details": "Returns a token ID at a given `index` of all the tokens stored by the contract. Use along with {totalSupply} to enumerate all tokens."
      },
      "tokenOfOwnerByIndex(address,uint256)": {
        "details": "Returns a token ID owned by `owner` at a given `index` of its token list. Use along with {balanceOf} to enumerate all of ``owner``'s tokens."
      },
      "tokenURI(uint256)": {
        "details": "See {IERC721Metadata-tokenURI}."
      },
      "totalSupply()": {
        "details": "Returns the total amount of tokens stored by the contract."
      },
      "transferFrom(address,address,uint256)": {
        "details": "See {IERC721-transferFrom}."
      },
      "transferOwnership(address)": {
        "details": "Transfers ownership of the contract to a new account (`newOwner`). Can only be called by the current owner."
      }
    },
    "version": 1
  },
  "userdoc": {
    "kind": "user",
    "methods": {},
    "version": 1
  }
}