{
  "contractName": "LavaLamp",
  "abi": [
    {
      "inputs": [
        {
          "internalType": "string",
          "name": "_provenance",
          "type": "string"
        },
        {
          "internalType": "string",
          "name": "_currentBaseURI",
          "type": "string"
        }
      ],
      "stateMutability": "nonpayable",
      "type": "constructor"
    },
    {
      "anonymous": false,
      "inputs": [
        {
          "indexed": true,
          "internalType": "address",
          "name": "owner",
          "type": "address"
        },
        {
          "indexed": true,
          "internalType": "address",
          "name": "approved",
          "type": "address"
        },
        {
          "indexed": true,
          "internalType": "uint256",
          "name": "tokenId",
          "type": "uint256"
        }
      ],
      "name": "Approval",
      "type": "event"
    },
    {
      "anonymous": false,
      "inputs": [
        {
          "indexed": true,
          "internalType": "address",
          "name": "owner",
          "type": "address"
        },
        {
          "indexed": true,
          "internalType": "address",
          "name": "operator",
          "type": "address"
        },
        {
          "indexed": false,
          "internalType": "bool",
          "name": "approved",
          "type": "bool"
        }
      ],
      "name": "ApprovalForAll",
      "type": "event"
    },
    {
      "anonymous": false,
      "inputs": [
        {
          "indexed": true,
          "internalType": "address",
          "name": "previousOwner",
          "type": "address"
        },
        {
          "indexed": true,
          "internalType": "address",
          "name": "newOwner",
          "type": "address"
        }
      ],
      "name": "OwnershipTransferred",
      "type": "event"
    },
    {
      "anonymous": false,
      "inputs": [
        {
          "indexed": true,
          "internalType": "address",
          "name": "from",
          "type": "address"
        },
        {
          "indexed": true,
          "internalType": "address",
          "name": "to",
          "type": "address"
        },
        {
          "indexed": true,
          "internalType": "uint256",
          "name": "tokenId",
          "type": "uint256"
        }
      ],
      "name": "Transfer",
      "type": "event"
    },
    {
      "inputs": [
        {
          "internalType": "address",
          "name": "to",
          "type": "address"
        },
        {
          "internalType": "uint256",
          "name": "tokenId",
          "type": "uint256"
        }
      ],
      "name": "approve",
      "outputs": [],
      "stateMutability": "nonpayable",
      "type": "function"
    },
    {
      "inputs": [
        {
          "internalType": "address",
          "name": "owner",
          "type": "address"
        }
      ],
      "name": "balanceOf",
      "outputs": [
        {
          "internalType": "uint256",
          "name": "",
          "type": "uint256"
        }
      ],
      "stateMutability": "view",
      "type": "function",
      "constant": true
    },
    {
      "inputs": [
        {
          "internalType": "uint256",
          "name": "tokenId",
          "type": "uint256"
        }
      ],
      "name": "getApproved",
      "outputs": [
        {
          "internalType": "address",
          "name": "",
          "type": "address"
        }
      ],
      "stateMutability": "view",
      "type": "function",
      "constant": true
    },
    {
      "inputs": [
        {
          "internalType": "address",
          "name": "owner",
          "type": "address"
        },
        {
          "internalType": "address",
          "name": "operator",
          "type": "address"
        }
      ],
      "name": "isApprovedForAll",
      "outputs": [
        {
          "internalType": "bool",
          "name": "",
          "type": "bool"
        }
      ],
      "stateMutability": "view",
      "type": "function",
      "constant": true
    },
    {
      "inputs": [],
      "name": "name",
      "outputs": [
        {
          "internalType": "string",
          "name": "",
          "type": "string"
        }
      ],
      "stateMutability": "view",
      "type": "function",
      "constant": true
    },
    {
      "inputs": [],
      "name": "owner",
      "outputs": [
        {
          "internalType": "address",
          "name": "",
          "type": "address"
        }
      ],
      "stateMutability": "view",
      "type": "function",
      "constant": true
    },
    {
      "inputs": [
        {
          "internalType": "uint256",
          "name": "tokenId",
          "type": "uint256"
        }
      ],
      "name": "ownerOf",
      "outputs": [
        {
          "internalType": "address",
          "name": "",
          "type": "address"
        }
      ],
      "stateMutability": "view",
      "type": "function",
      "constant": true
    },
    {
      "inputs": [],
      "name": "provenance",
      "outputs": [
        {
          "internalType": "string",
          "name": "",
          "type": "string"
        }
      ],
      "stateMutability": "view",
      "type": "function",
      "constant": true
    },
    {
      "inputs": [],
      "name": "renounceOwnership",
      "outputs": [],
      "stateMutability": "nonpayable",
      "type": "function"
    },
    {
      "inputs": [
        {
          "internalType": "address",
          "name": "from",
          "type": "address"
        },
        {
          "internalType": "address",
          "name": "to",
          "type": "address"
        },
        {
          "internalType": "uint256",
          "name": "tokenId",
          "type": "uint256"
        }
      ],
      "name": "safeTransferFrom",
      "outputs": [],
      "stateMutability": "nonpayable",
      "type": "function"
    },
    {
      "inputs": [
        {
          "internalType": "address",
          "name": "from",
          "type": "address"
        },
        {
          "internalType": "address",
          "name": "to",
          "type": "address"
        },
        {
          "internalType": "uint256",
          "name": "tokenId",
          "type": "uint256"
        },
        {
          "internalType": "bytes",
          "name": "_data",
          "type": "bytes"
        }
      ],
      "name": "safeTransferFrom",
      "outputs": [],
      "stateMutability": "nonpayable",
      "type": "function"
    },
    {
      "inputs": [
        {
          "internalType": "address",
          "name": "operator",
          "type": "address"
        },
        {
          "internalType": "bool",
          "name": "approved",
          "type": "bool"
        }
      ],
      "name": "setApprovalForAll",
      "outputs": [],
      "stateMutability": "nonpayable",
      "type": "function"
    },
    {
      "inputs": [
        {
          "internalType": "bytes4",
          "name": "interfaceId",
          "type": "bytes4"
        }
      ],
      "name": "supportsInterface",
      "outputs": [
        {
          "internalType": "bool",
          "name": "",
          "type": "bool"
        }
      ],
      "stateMutability": "view",
      "type": "function",
      "constant": true
    },
    {
      "inputs": [],
      "name": "symbol",
      "outputs": [
        {
          "internalType": "string",
          "name": "",
          "type": "string"
        }
      ],
      "stateMutability": "view",
      "type": "function",
      "constant": true
    },
    {
      "inputs": [],
      "name": "totalSupply",
      "outputs": [
        {
          "internalType": "uint256",
          "name": "",
          "type": "uint256"
        }
      ],
      "stateMutability": "view",
      "type": "function",
      "constant": true
    },
    {
      "inputs": [
        {
          "internalType": "address",
          "name": "from",
          "type": "address"
        },
        {
          "internalType": "address",
          "name": "to",
          "type": "address"
        },
        {
          "internalType": "uint256",
          "name": "tokenId",
          "type": "uint256"
        }
      ],
      "name": "transferFrom",
      "outputs": [],
      "stateMutability": "nonpayable",
      "type": "function"
    },
    {
      "inputs": [
        {
          "internalType": "address",
          "name": "newOwner",
          "type": "address"
        }
      ],
      "name": "transferOwnership",
      "outputs": [],
      "stateMutability": "nonpayable",
      "type": "function"
    },
    {
      "inputs": [
        {
          "internalType": "string",
          "name": "baseURI",
          "type": "string"
        }
      ],
      "name": "setBaseURI",
      "outputs": [],
      "stateMutability": "nonpayable",
      "type": "function"
    },
    {
      "inputs": [
        {
          "internalType": "uint256",
          "name": "tokenId",
          "type": "uint256"
        }
      ],
      "name": "tokenURI",
      "outputs": [
        {
          "internalType": "string",
          "name": "",
          "type": "string"
        }
      ],
      "stateMutability": "view",
      "type": "function",
      "constant": true
    },
    {
      "inputs": [
        {
          "internalType": "uint256",
          "name": "mintAmount",
          "type": "uint256"
        }
      ],
      "name": "mint",
      "outputs": [],
      "stateMutability": "payable",
      "type": "function",
      "payable": true
    },
    {
      "inputs": [
        {
          "internalType": "address",
          "name": "owner",
          "type": "address"
        }
      ],
      "name": "getTokensOwnedBy",
      "outputs": [
        {
          "internalType": "bool[]",
          "name": "",
          "type": "bool[]"
        }
      ],
      "stateMutability": "view",
      "type": "function",
      "constant": true
    }
  ],
  "bytecode": "0x6080604052666a94d74f430000600955611f2c600a556014600b55734024b17b6fd2ac7a83bfe0c71970d23ee335bc40600c60006101000a81548173ffffffffffffffffffffffffffffffffffffffff021916908373ffffffffffffffffffffffffffffffffffffffff1602179055506000600d556000600e556000600f553480156200008b57600080fd5b5060405162003f8438038062003f848339818101604052810190620000b1919062000590565b6040518060400160405280600981526020017f4c6176614c616d707300000000000000000000000000000000000000000000008152506040518060400160405280600981526020017f4c4156414c414d505300000000000000000000000000000000000000000000008152506200013d62000131620001a360201b60201c565b620001ab60201b60201c565b81600190805190602001906200015592919062000343565b5080600290805190602001906200016e92919062000343565b50505081600790805190602001906200018992919062000343565b506200019b816200026f60201b60201c565b5050620006fd565b600033905090565b60008060009054906101000a900473ffffffffffffffffffffffffffffffffffffffff169050816000806101000a81548173ffffffffffffffffffffffffffffffffffffffff021916908373ffffffffffffffffffffffffffffffffffffffff1602179055508173ffffffffffffffffffffffffffffffffffffffff168173ffffffffffffffffffffffffffffffffffffffff167f8be0079c531659141344cd1fd0a4f28419497f9722a3daafe3b4186f6b6457e060405160405180910390a35050565b6200027f620001a360201b60201c565b73ffffffffffffffffffffffffffffffffffffffff16620002a56200031a60201b60201c565b73ffffffffffffffffffffffffffffffffffffffff1614620002fe576040517f08c379a0000000000000000000000000000000000000000000000000000000008152600401620002f59062000676565b60405180910390fd5b80600890805190602001906200031692919062000343565b5050565b60008060009054906101000a900473ffffffffffffffffffffffffffffffffffffffff16905090565b8280546200035190620006c7565b90600052602060002090601f016020900481019282620003755760008555620003c1565b82601f106200039057805160ff1916838001178555620003c1565b82800160010185558215620003c1579182015b82811115620003c0578251825591602001919060010190620003a3565b5b509050620003d09190620003d4565b5090565b5b80821115620003ef576000816000905550600101620003d5565b5090565b6000604051905090565b600080fd5b600080fd5b600080fd5b600080fd5b6000601f19601f8301169050919050565b7f4e487b7100000000000000000000000000000000000000000000000000000000600052604160045260246000fd5b6200045c8262000411565b810181811067ffffffffffffffff821117156200047e576200047d62000422565b5b80604052505050565b600062000493620003f3565b9050620004a1828262000451565b919050565b600067ffffffffffffffff821115620004c457620004c362000422565b5b620004cf8262000411565b9050602081019050919050565b60005b83811015620004fc578082015181840152602081019050620004df565b838111156200050c576000848401525b50505050565b6000620005296200052384620004a6565b62000487565b9050828152602081018484840111156200054857620005476200040c565b5b62000555848285620004dc565b509392505050565b600082601f83011262000575576200057462000407565b5b81516200058784826020860162000512565b91505092915050565b60008060408385031215620005aa57620005a9620003fd565b5b600083015167ffffffffffffffff811115620005cb57620005ca62000402565b5b620005d9858286016200055d565b925050602083015167ffffffffffffffff811115620005fd57620005fc62000402565b5b6200060b858286016200055d565b9150509250929050565b600082825260208201905092915050565b7f4f776e61626c653a2063616c6c6572206973206e6f7420746865206f776e6572600082015250565b60006200065e60208362000615565b91506200066b8262000626565b602082019050919050565b6000602082019050818103600083015262000691816200064f565b9050919050565b7f4e487b7100000000000000000000000000000000000000000000000000000000600052602260045260246000fd5b60006002820490506001821680620006e057607f821691505b60208210811415620006f757620006f662000698565b5b50919050565b613877806200070d6000396000f3fe60806040526004361061012a5760003560e01c80636352211e116100ab578063a0712d681161006f578063a0712d68146103f2578063a22cb4651461040e578063b88d4fde14610437578063c87b56dd14610460578063e985e9c51461049d578063f2fde38b146104da5761012a565b80636352211e1461030b57806370a0823114610348578063715018a6146103855780638da5cb5b1461039c57806395d89b41146103c75761012a565b806318160ddd116100f257806318160ddd1461022857806323b872dd146102535780633d4392c01461027c57806342842e0e146102b957806355f804b3146102e25761012a565b806301ffc9a71461012f57806306fdde031461016c578063081812fc14610197578063095ea7b3146101d45780630f7309e8146101fd575b600080fd5b34801561013b57600080fd5b50610156600480360381019061015191906122ab565b610503565b60405161016391906122f3565b60405180910390f35b34801561017857600080fd5b506101816105e5565b60405161018e91906123a7565b60405180910390f35b3480156101a357600080fd5b506101be60048036038101906101b991906123ff565b610677565b6040516101cb919061246d565b60405180910390f35b3480156101e057600080fd5b506101fb60048036038101906101f691906124b4565b6106fc565b005b34801561020957600080fd5b50610212610814565b60405161021f91906123a7565b60405180910390f35b34801561023457600080fd5b5061023d6108a2565b60405161024a9190612503565b60405180910390f35b34801561025f57600080fd5b5061027a6004803603810190610275919061251e565b6108a8565b005b34801561028857600080fd5b506102a3600480360381019061029e9190612571565b610908565b6040516102b0919061265c565b60405180910390f35b3480156102c557600080fd5b506102e060048036038101906102db919061251e565b610a1d565b005b3480156102ee57600080fd5b50610309600480360381019061030491906127b3565b610a3d565b005b34801561031757600080fd5b50610332600480360381019061032d91906123ff565b610ad3565b60405161033f919061246d565b60405180910390f35b34801561035457600080fd5b5061036f600480360381019061036a9190612571565b610b85565b60405161037c9190612503565b60405180910390f35b34801561039157600080fd5b5061039a610c3d565b005b3480156103a857600080fd5b506103b1610cc5565b6040516103be919061246d565b60405180910390f35b3480156103d357600080fd5b506103dc610cee565b6040516103e991906123a7565b60405180910390f35b61040c600480360381019061040791906123ff565b610d80565b005b34801561041a57600080fd5b5061043560048036038101906104309190612828565b610faa565b005b34801561044357600080fd5b5061045e60048036038101906104599190612909565b610fc0565b005b34801561046c57600080fd5b50610487600480360381019061048291906123ff565b611022565b60405161049491906123a7565b60405180910390f35b3480156104a957600080fd5b506104c460048036038101906104bf919061298c565b6110c9565b6040516104d191906122f3565b60405180910390f35b3480156104e657600080fd5b5061050160048036038101906104fc9190612571565b61115d565b005b60007f80ac58cd000000000000000000000000000000000000000000000000000000007bffffffffffffffffffffffffffffffffffffffffffffffffffffffff1916827bffffffffffffffffffffffffffffffffffffffffffffffffffffffff191614806105ce57507f5b5e139f000000000000000000000000000000000000000000000000000000007bffffffffffffffffffffffffffffffffffffffffffffffffffffffff1916827bffffffffffffffffffffffffffffffffffffffffffffffffffffffff1916145b806105de57506105dd82611255565b5b9050919050565b6060600180546105f4906129fb565b80601f0160208091040260200160405190810160405280929190818152602001828054610620906129fb565b801561066d5780601f106106425761010080835404028352916020019161066d565b820191906000526020600020905b81548152906001019060200180831161065057829003601f168201915b5050505050905090565b6000610682826112bf565b6106c1576040517f08c379a00000000000000000000000000000000000000000000000000000000081526004016106b890612a9f565b60405180910390fd5b6005600083815260200190815260200160002060009054906101000a900473ffffffffffffffffffffffffffffffffffffffff169050919050565b600061070782610ad3565b90508073ffffffffffffffffffffffffffffffffffffffff168373ffffffffffffffffffffffffffffffffffffffff161415610778576040517f08c379a000000000000000000000000000000000000000000000000000000000815260040161076f90612b31565b60405180910390fd5b8073ffffffffffffffffffffffffffffffffffffffff1661079761132b565b73ffffffffffffffffffffffffffffffffffffffff1614806107c657506107c5816107c061132b565b6110c9565b5b610805576040517f08c379a00000000000000000000000000000000000000000000000000000000081526004016107fc90612bc3565b60405180910390fd5b61080f8383611333565b505050565b60078054610821906129fb565b80601f016020809104026020016040519081016040528092919081815260200182805461084d906129fb565b801561089a5780601f1061086f5761010080835404028352916020019161089a565b820191906000526020600020905b81548152906001019060200180831161087d57829003601f168201915b505050505081565b600f5481565b6108b96108b361132b565b826113ec565b6108f8576040517f08c379a00000000000000000000000000000000000000000000000000000000081526004016108ef90612c55565b60405180910390fd5b6109038383836114ca565b505050565b60606000600a5467ffffffffffffffff81111561092857610927612688565b5b6040519080825280602002602001820160405280156109565781602001602082028036833780820191505090505b50905060005b600a54811015610a1357600082828151811061097b5761097a612c75565b5b602002602001019015159081151581525050610996816112bf565b15610a00578373ffffffffffffffffffffffffffffffffffffffff166109bb82610ad3565b73ffffffffffffffffffffffffffffffffffffffff1614156109ff5760018282815181106109ec576109eb612c75565b5b6020026020010190151590811515815250505b5b8080610a0b90612cd3565b91505061095c565b5080915050919050565b610a3883838360405180602001604052806000815250610fc0565b505050565b610a4561132b565b73ffffffffffffffffffffffffffffffffffffffff16610a63610cc5565b73ffffffffffffffffffffffffffffffffffffffff1614610ab9576040517f08c379a0000000000000000000000000000000000000000000000000000000008152600401610ab090612d68565b60405180910390fd5b8060089080519060200190610acf92919061219c565b5050565b6000806003600084815260200190815260200160002060009054906101000a900473ffffffffffffffffffffffffffffffffffffffff169050600073ffffffffffffffffffffffffffffffffffffffff168173ffffffffffffffffffffffffffffffffffffffff161415610b7c576040517f08c379a0000000000000000000000000000000000000000000000000000000008152600401610b7390612dfa565b60405180910390fd5b80915050919050565b60008073ffffffffffffffffffffffffffffffffffffffff168273ffffffffffffffffffffffffffffffffffffffff161415610bf6576040517f08c379a0000000000000000000000000000000000000000000000000000000008152600401610bed90612e8c565b60405180910390fd5b600460008373ffffffffffffffffffffffffffffffffffffffff1673ffffffffffffffffffffffffffffffffffffffff168152602001908152602001600020549050919050565b610c4561132b565b73ffffffffffffffffffffffffffffffffffffffff16610c63610cc5565b73ffffffffffffffffffffffffffffffffffffffff1614610cb9576040517f08c379a0000000000000000000000000000000000000000000000000000000008152600401610cb090612d68565b60405180910390fd5b610cc36000611726565b565b60008060009054906101000a900473ffffffffffffffffffffffffffffffffffffffff16905090565b606060028054610cfd906129fb565b80601f0160208091040260200160405190810160405280929190818152602001828054610d29906129fb565b8015610d765780601f10610d4b57610100808354040283529160200191610d76565b820191906000526020600020905b815481529060010190602001808311610d5957829003601f168201915b5050505050905090565b60008111610dc3576040517f08c379a0000000000000000000000000000000000000000000000000000000008152600401610dba90612ef8565b60405180910390fd5b600b54811115610e08576040517f08c379a0000000000000000000000000000000000000000000000000000000008152600401610dff90612f8a565b60405180910390fd5b600a5481600f54610e199190612faa565b1115610e5a576040517f08c379a0000000000000000000000000000000000000000000000000000000008152600401610e5190613072565b60405180910390fd5b600081600954610e6a9190613092565b9050610e74610cc5565b73ffffffffffffffffffffffffffffffffffffffff163373ffffffffffffffffffffffffffffffffffffffff1614610eb45780341015610eb357600080fd5b5b6000600190505b828111610f0c576000610ecc6117ea565b9050610ed83382611827565b610ee0611845565b600f6000815480929190610ef390612cd3565b9190505550508080610f0490612cd3565b915050610ebb565b506000600c60009054906101000a900473ffffffffffffffffffffffffffffffffffffffff1673ffffffffffffffffffffffffffffffffffffffff1647604051610f559061311d565b60006040518083038185875af1925050503d8060008114610f92576040519150601f19603f3d011682016040523d82523d6000602084013e610f97565b606091505b5050905080610fa557600080fd5b505050565b610fbc610fb561132b565b8383611890565b5050565b610fd1610fcb61132b565b836113ec565b611010576040517f08c379a000000000000000000000000000000000000000000000000000000000815260040161100790612c55565b60405180910390fd5b61101c848484846119fd565b50505050565b606061102d826112bf565b61106c576040517f08c379a0000000000000000000000000000000000000000000000000000000008152600401611063906131a4565b60405180910390fd5b6000611076611a59565b9050600081511161109657604051806020016040528060008152506110c1565b806110a084611aeb565b6040516020016110b192919061324c565b6040516020818303038152906040525b915050919050565b6000600660008473ffffffffffffffffffffffffffffffffffffffff1673ffffffffffffffffffffffffffffffffffffffff16815260200190815260200160002060008373ffffffffffffffffffffffffffffffffffffffff1673ffffffffffffffffffffffffffffffffffffffff16815260200190815260200160002060009054906101000a900460ff16905092915050565b61116561132b565b73ffffffffffffffffffffffffffffffffffffffff16611183610cc5565b73ffffffffffffffffffffffffffffffffffffffff16146111d9576040517f08c379a00000000000000000000000000000000000000000000000000000000081526004016111d090612d68565b60405180910390fd5b600073ffffffffffffffffffffffffffffffffffffffff168173ffffffffffffffffffffffffffffffffffffffff161415611249576040517f08c379a0000000000000000000000000000000000000000000000000000000008152600401611240906132ed565b60405180910390fd5b61125281611726565b50565b60007f01ffc9a7000000000000000000000000000000000000000000000000000000007bffffffffffffffffffffffffffffffffffffffffffffffffffffffff1916827bffffffffffffffffffffffffffffffffffffffffffffffffffffffff1916149050919050565b60008073ffffffffffffffffffffffffffffffffffffffff166003600084815260200190815260200160002060009054906101000a900473ffffffffffffffffffffffffffffffffffffffff1673ffffffffffffffffffffffffffffffffffffffff1614159050919050565b600033905090565b816005600083815260200190815260200160002060006101000a81548173ffffffffffffffffffffffffffffffffffffffff021916908373ffffffffffffffffffffffffffffffffffffffff160217905550808273ffffffffffffffffffffffffffffffffffffffff166113a683610ad3565b73ffffffffffffffffffffffffffffffffffffffff167f8c5be1e5ebec7d5bd14f71427d1e84f3dd0314c0f7b2291e5b200ac8c7c3b92560405160405180910390a45050565b60006113f7826112bf565b611436576040517f08c379a000000000000000000000000000000000000000000000000000000000815260040161142d9061337f565b60405180910390fd5b600061144183610ad3565b90508073ffffffffffffffffffffffffffffffffffffffff168473ffffffffffffffffffffffffffffffffffffffff1614806114b057508373ffffffffffffffffffffffffffffffffffffffff1661149884610677565b73ffffffffffffffffffffffffffffffffffffffff16145b806114c157506114c081856110c9565b5b91505092915050565b8273ffffffffffffffffffffffffffffffffffffffff166114ea82610ad3565b73ffffffffffffffffffffffffffffffffffffffff1614611540576040517f08c379a000000000000000000000000000000000000000000000000000000000815260040161153790613411565b60405180910390fd5b600073ffffffffffffffffffffffffffffffffffffffff168273ffffffffffffffffffffffffffffffffffffffff1614156115b0576040517f08c379a00000000000000000000000000000000000000000000000000000000081526004016115a7906134a3565b60405180910390fd5b6115bb838383611c4c565b6115c6600082611333565b6001600460008573ffffffffffffffffffffffffffffffffffffffff1673ffffffffffffffffffffffffffffffffffffffff168152602001908152602001600020600082825461161691906134c3565b925050819055506001600460008473ffffffffffffffffffffffffffffffffffffffff1673ffffffffffffffffffffffffffffffffffffffff168152602001908152602001600020600082825461166d9190612faa565b92505081905550816003600083815260200190815260200160002060006101000a81548173ffffffffffffffffffffffffffffffffffffffff021916908373ffffffffffffffffffffffffffffffffffffffff160217905550808273ffffffffffffffffffffffffffffffffffffffff168473ffffffffffffffffffffffffffffffffffffffff167fddf252ad1be2c89b69c2b068fc378daa952ba7f163c4a11628f55a4df523b3ef60405160405180910390a4505050565b60008060009054906101000a900473ffffffffffffffffffffffffffffffffffffffff169050816000806101000a81548173ffffffffffffffffffffffffffffffffffffffff021916908373ffffffffffffffffffffffffffffffffffffffff1602179055508173ffffffffffffffffffffffffffffffffffffffff168173ffffffffffffffffffffffffffffffffffffffff167f8be0079c531659141344cd1fd0a4f28419497f9722a3daafe3b4186f6b6457e060405160405180910390a35050565b60008061018f905060006117ff600e54611c51565b90506000600d5483836118129190613092565b61181c9190612faa565b905080935050505090565b611841828260405180602001604052806000815250611dd8565b5050565b60006013905080600e54101561186f576001600e546118649190612faa565b600e8190555061188d565b6000600e819055506001600d546118869190612faa565b600d819055505b50565b8173ffffffffffffffffffffffffffffffffffffffff168373ffffffffffffffffffffffffffffffffffffffff1614156118ff576040517f08c379a00000000000000000000000000000000000000000000000000000000081526004016118f690613543565b60405180910390fd5b80600660008573ffffffffffffffffffffffffffffffffffffffff1673ffffffffffffffffffffffffffffffffffffffff16815260200190815260200160002060008473ffffffffffffffffffffffffffffffffffffffff1673ffffffffffffffffffffffffffffffffffffffff16815260200190815260200160002060006101000a81548160ff0219169083151502179055508173ffffffffffffffffffffffffffffffffffffffff168373ffffffffffffffffffffffffffffffffffffffff167f17307eab39ab6107e8899845ad3d59bd9653f200f220920489ca2b5937696c31836040516119f091906122f3565b60405180910390a3505050565b611a088484846114ca565b611a1484848484611e33565b611a53576040517f08c379a0000000000000000000000000000000000000000000000000000000008152600401611a4a906135d5565b60405180910390fd5b50505050565b606060088054611a68906129fb565b80601f0160208091040260200160405190810160405280929190818152602001828054611a94906129fb565b8015611ae15780601f10611ab657610100808354040283529160200191611ae1565b820191906000526020600020905b815481529060010190602001808311611ac457829003601f168201915b5050505050905090565b60606000821415611b33576040518060400160405280600181526020017f30000000000000000000000000000000000000000000000000000000000000008152509050611c47565b600082905060005b60008214611b65578080611b4e90612cd3565b915050600a82611b5e9190613624565b9150611b3b565b60008167ffffffffffffffff811115611b8157611b80612688565b5b6040519080825280601f01601f191660200182016040528015611bb35781602001600182028036833780820191505090505b5090505b60008514611c4057600182611bcc91906134c3565b9150600a85611bdb9190613655565b6030611be79190612faa565b60f81b818381518110611bfd57611bfc612c75565b5b60200101907effffffffffffffffffffffffffffffffffffffffffffffffffffffffffffff1916908160001a905350600a85611c399190613624565b9450611bb7565b8093505050505b919050565b505050565b600080600090506000831415611c6a5760039050611dcf565b6001831415611c7c5760119050611dce565b6002831415611c8e57600a9050611dcd565b6003831415611ca057600d9050611dcc565b6004831415611cb25760129050611dcb565b6005831415611cc45760009050611dca565b6006831415611cd65760049050611dc9565b6007831415611ce85760019050611dc8565b6008831415611cfa5760069050611dc7565b6009831415611d0c5760139050611dc6565b600a831415611d1e5760089050611dc5565b600b831415611d3057600c9050611dc4565b600c831415611d425760029050611dc3565b600d831415611d5457600e9050611dc2565b600e831415611d6657600b9050611dc1565b600f831415611d785760079050611dc0565b6010831415611d8a57600f9050611dbf565b6011831415611d9c5760099050611dbe565b6012831415611dae5760059050611dbd565b6013831415611dbc57601090505b5b5b5b5b5b5b5b5b5b5b5b5b5b5b5b5b5b5b5b80915050919050565b611de28383611fbb565b611def6000848484611e33565b611e2e576040517f08c379a0000000000000000000000000000000000000000000000000000000008152600401611e25906135d5565b60405180910390fd5b505050565b6000611e548473ffffffffffffffffffffffffffffffffffffffff16612189565b15611fae578373ffffffffffffffffffffffffffffffffffffffff1663150b7a02611e7d61132b565b8786866040518563ffffffff1660e01b8152600401611e9f94939291906136db565b6020604051808303816000875af1925050508015611edb57506040513d601f19601f82011682018060405250810190611ed8919061373c565b60015b611f5e573d8060008114611f0b576040519150601f19603f3d011682016040523d82523d6000602084013e611f10565b606091505b50600081511415611f56576040517f08c379a0000000000000000000000000000000000000000000000000000000008152600401611f4d906135d5565b60405180910390fd5b805181602001fd5b63150b7a0260e01b7bffffffffffffffffffffffffffffffffffffffffffffffffffffffff1916817bffffffffffffffffffffffffffffffffffffffffffffffffffffffff191614915050611fb3565b600190505b949350505050565b600073ffffffffffffffffffffffffffffffffffffffff168273ffffffffffffffffffffffffffffffffffffffff16141561202b576040517f08c379a0000000000000000000000000000000000000000000000000000000008152600401612022906137b5565b60405180910390fd5b612034816112bf565b15612074576040517f08c379a000000000000000000000000000000000000000000000000000000000815260040161206b90613821565b60405180910390fd5b61208060008383611c4c565b6001600460008473ffffffffffffffffffffffffffffffffffffffff1673ffffffffffffffffffffffffffffffffffffffff16815260200190815260200160002060008282546120d09190612faa565b92505081905550816003600083815260200190815260200160002060006101000a81548173ffffffffffffffffffffffffffffffffffffffff021916908373ffffffffffffffffffffffffffffffffffffffff160217905550808273ffffffffffffffffffffffffffffffffffffffff16600073ffffffffffffffffffffffffffffffffffffffff167fddf252ad1be2c89b69c2b068fc378daa952ba7f163c4a11628f55a4df523b3ef60405160405180910390a45050565b600080823b905060008111915050919050565b8280546121a8906129fb565b90600052602060002090601f0160209004810192826121ca5760008555612211565b82601f106121e357805160ff1916838001178555612211565b82800160010185558215612211579182015b828111156122105782518255916020019190600101906121f5565b5b50905061221e9190612222565b5090565b5b8082111561223b576000816000905550600101612223565b5090565b6000604051905090565b600080fd5b600080fd5b60007fffffffff0000000000000000000000000000000000000000000000000000000082169050919050565b61228881612253565b811461229357600080fd5b50565b6000813590506122a58161227f565b92915050565b6000602082840312156122c1576122c0612249565b5b60006122cf84828501612296565b91505092915050565b60008115159050919050565b6122ed816122d8565b82525050565b600060208201905061230860008301846122e4565b92915050565b600081519050919050565b600082825260208201905092915050565b60005b8381101561234857808201518184015260208101905061232d565b83811115612357576000848401525b50505050565b6000601f19601f8301169050919050565b60006123798261230e565b6123838185612319565b935061239381856020860161232a565b61239c8161235d565b840191505092915050565b600060208201905081810360008301526123c1818461236e565b905092915050565b6000819050919050565b6123dc816123c9565b81146123e757600080fd5b50565b6000813590506123f9816123d3565b92915050565b60006020828403121561241557612414612249565b5b6000612423848285016123ea565b91505092915050565b600073ffffffffffffffffffffffffffffffffffffffff82169050919050565b60006124578261242c565b9050919050565b6124678161244c565b82525050565b6000602082019050612482600083018461245e565b92915050565b6124918161244c565b811461249c57600080fd5b50565b6000813590506124ae81612488565b92915050565b600080604083850312156124cb576124ca612249565b5b60006124d98582860161249f565b92505060206124ea858286016123ea565b9150509250929050565b6124fd816123c9565b82525050565b600060208201905061251860008301846124f4565b92915050565b60008060006060848603121561253757612536612249565b5b60006125458682870161249f565b93505060206125568682870161249f565b9250506040612567868287016123ea565b9150509250925092565b60006020828403121561258757612586612249565b5b60006125958482850161249f565b91505092915050565b600081519050919050565b600082825260208201905092915050565b6000819050602082019050919050565b6125d3816122d8565b82525050565b60006125e583836125ca565b60208301905092915050565b6000602082019050919050565b60006126098261259e565b61261381856125a9565b935061261e836125ba565b8060005b8381101561264f57815161263688826125d9565b9750612641836125f1565b925050600181019050612622565b5085935050505092915050565b6000602082019050818103600083015261267681846125fe565b905092915050565b600080fd5b600080fd5b7f4e487b7100000000000000000000000000000000000000000000000000000000600052604160045260246000fd5b6126c08261235d565b810181811067ffffffffffffffff821117156126df576126de612688565b5b80604052505050565b60006126f261223f565b90506126fe82826126b7565b919050565b600067ffffffffffffffff82111561271e5761271d612688565b5b6127278261235d565b9050602081019050919050565b82818337600083830152505050565b600061275661275184612703565b6126e8565b90508281526020810184848401111561277257612771612683565b5b61277d848285612734565b509392505050565b600082601f83011261279a5761279961267e565b5b81356127aa848260208601612743565b91505092915050565b6000602082840312156127c9576127c8612249565b5b600082013567ffffffffffffffff8111156127e7576127e661224e565b5b6127f384828501612785565b91505092915050565b612805816122d8565b811461281057600080fd5b50565b600081359050612822816127fc565b92915050565b6000806040838503121561283f5761283e612249565b5b600061284d8582860161249f565b925050602061285e85828601612813565b9150509250929050565b600067ffffffffffffffff82111561288357612882612688565b5b61288c8261235d565b9050602081019050919050565b60006128ac6128a784612868565b6126e8565b9050828152602081018484840111156128c8576128c7612683565b5b6128d3848285612734565b509392505050565b600082601f8301126128f0576128ef61267e565b5b8135612900848260208601612899565b91505092915050565b6000806000806080858703121561292357612922612249565b5b60006129318782880161249f565b94505060206129428782880161249f565b9350506040612953878288016123ea565b925050606085013567ffffffffffffffff8111156129745761297361224e565b5b612980878288016128db565b91505092959194509250565b600080604083850312156129a3576129a2612249565b5b60006129b18582860161249f565b92505060206129c28582860161249f565b9150509250929050565b7f4e487b7100000000000000000000000000000000000000000000000000000000600052602260045260246000fd5b60006002820490506001821680612a1357607f821691505b60208210811415612a2757612a266129cc565b5b50919050565b7f4552433732313a20617070726f76656420717565727920666f72206e6f6e657860008201527f697374656e7420746f6b656e0000000000000000000000000000000000000000602082015250565b6000612a89602c83612319565b9150612a9482612a2d565b604082019050919050565b60006020820190508181036000830152612ab881612a7c565b9050919050565b7f4552433732313a20617070726f76616c20746f2063757272656e74206f776e6560008201527f7200000000000000000000000000000000000000000000000000000000000000602082015250565b6000612b1b602183612319565b9150612b2682612abf565b604082019050919050565b60006020820190508181036000830152612b4a81612b0e565b9050919050565b7f4552433732313a20617070726f76652063616c6c6572206973206e6f74206f7760008201527f6e6572206e6f7220617070726f76656420666f7220616c6c0000000000000000602082015250565b6000612bad603883612319565b9150612bb882612b51565b604082019050919050565b60006020820190508181036000830152612bdc81612ba0565b9050919050565b7f4552433732313a207472616e736665722063616c6c6572206973206e6f74206f60008201527f776e6572206e6f7220617070726f766564000000000000000000000000000000602082015250565b6000612c3f603183612319565b9150612c4a82612be3565b604082019050919050565b60006020820190508181036000830152612c6e81612c32565b9050919050565b7f4e487b7100000000000000000000000000000000000000000000000000000000600052603260045260246000fd5b7f4e487b7100000000000000000000000000000000000000000000000000000000600052601160045260246000fd5b6000612cde826123c9565b91507fffffffffffffffffffffffffffffffffffffffffffffffffffffffffffffffff821415612d1157612d10612ca4565b5b600182019050919050565b7f4f776e61626c653a2063616c6c6572206973206e6f7420746865206f776e6572600082015250565b6000612d52602083612319565b9150612d5d82612d1c565b602082019050919050565b60006020820190508181036000830152612d8181612d45565b9050919050565b7f4552433732313a206f776e657220717565727920666f72206e6f6e657869737460008201527f656e7420746f6b656e0000000000000000000000000000000000000000000000602082015250565b6000612de4602983612319565b9150612def82612d88565b604082019050919050565b60006020820190508181036000830152612e1381612dd7565b9050919050565b7f4552433732313a2062616c616e636520717565727920666f7220746865207a6560008201527f726f206164647265737300000000000000000000000000000000000000000000602082015250565b6000612e76602a83612319565b9150612e8182612e1a565b604082019050919050565b60006020820190508181036000830152612ea581612e69565b9050919050565b7f6d696e7420616d6f756e742063616e6e6f742062652030000000000000000000600082015250565b6000612ee2601783612319565b9150612eed82612eac565b602082019050919050565b60006020820190508181036000830152612f1181612ed5565b9050919050565b7f6d696e7420616d6f756e742063616e6e6f74206265206772656174657220746860008201527f616e203230000000000000000000000000000000000000000000000000000000602082015250565b6000612f74602583612319565b9150612f7f82612f18565b604082019050919050565b60006020820190508181036000830152612fa381612f67565b9050919050565b6000612fb5826123c9565b9150612fc0836123c9565b9250827fffffffffffffffffffffffffffffffffffffffffffffffffffffffffffffffff03821115612ff557612ff4612ca4565b5b828201905092915050565b7f6d696e74696e672077696c6c20676f206f76657220746f74616c20737570706c60008201527f79206f662037393830206c616d70730000000000000000000000000000000000602082015250565b600061305c602f83612319565b915061306782613000565b604082019050919050565b6000602082019050818103600083015261308b8161304f565b9050919050565b600061309d826123c9565b91506130a8836123c9565b9250817fffffffffffffffffffffffffffffffffffffffffffffffffffffffffffffffff04831182151516156130e1576130e0612ca4565b5b828202905092915050565b600081905092915050565b50565b60006131076000836130ec565b9150613112826130f7565b600082019050919050565b6000613128826130fa565b9150819050919050565b7f4552433732314d657461646174613a2055524920717565727920666f72206e6f60008201527f6e6578697374656e7420746f6b656e0000000000000000000000000000000000602082015250565b600061318e602f83612319565b915061319982613132565b604082019050919050565b600060208201905081810360008301526131bd81613181565b9050919050565b600081905092915050565b60006131da8261230e565b6131e481856131c4565b93506131f481856020860161232a565b80840191505092915050565b7f2e6a736f6e000000000000000000000000000000000000000000000000000000600082015250565b60006132366005836131c4565b915061324182613200565b600582019050919050565b600061325882856131cf565b915061326482846131cf565b915061326f82613229565b91508190509392505050565b7f4f776e61626c653a206e6577206f776e657220697320746865207a65726f206160008201527f6464726573730000000000000000000000000000000000000000000000000000602082015250565b60006132d7602683612319565b91506132e28261327b565b604082019050919050565b60006020820190508181036000830152613306816132ca565b9050919050565b7f4552433732313a206f70657261746f7220717565727920666f72206e6f6e657860008201527f697374656e7420746f6b656e0000000000000000000000000000000000000000602082015250565b6000613369602c83612319565b91506133748261330d565b604082019050919050565b600060208201905081810360008301526133988161335c565b9050919050565b7f4552433732313a207472616e73666572206f6620746f6b656e2074686174206960008201527f73206e6f74206f776e0000000000000000000000000000000000000000000000602082015250565b60006133fb602983612319565b91506134068261339f565b604082019050919050565b6000602082019050818103600083015261342a816133ee565b9050919050565b7f4552433732313a207472616e7366657220746f20746865207a65726f2061646460008201527f7265737300000000000000000000000000000000000000000000000000000000602082015250565b600061348d602483612319565b915061349882613431565b604082019050919050565b600060208201905081810360008301526134bc81613480565b9050919050565b60006134ce826123c9565b91506134d9836123c9565b9250828210156134ec576134eb612ca4565b5b828203905092915050565b7f4552433732313a20617070726f766520746f2063616c6c657200000000000000600082015250565b600061352d601983612319565b9150613538826134f7565b602082019050919050565b6000602082019050818103600083015261355c81613520565b9050919050565b7f4552433732313a207472616e7366657220746f206e6f6e20455243373231526560008201527f63656976657220696d706c656d656e7465720000000000000000000000000000602082015250565b60006135bf603283612319565b91506135ca82613563565b604082019050919050565b600060208201905081810360008301526135ee816135b2565b9050919050565b7f4e487b7100000000000000000000000000000000000000000000000000000000600052601260045260246000fd5b600061362f826123c9565b915061363a836123c9565b92508261364a576136496135f5565b5b828204905092915050565b6000613660826123c9565b915061366b836123c9565b92508261367b5761367a6135f5565b5b828206905092915050565b600081519050919050565b600082825260208201905092915050565b60006136ad82613686565b6136b78185613691565b93506136c781856020860161232a565b6136d08161235d565b840191505092915050565b60006080820190506136f0600083018761245e565b6136fd602083018661245e565b61370a60408301856124f4565b818103606083015261371c81846136a2565b905095945050505050565b6000815190506137368161227f565b92915050565b60006020828403121561375257613751612249565b5b600061376084828501613727565b91505092915050565b7f4552433732313a206d696e7420746f20746865207a65726f2061646472657373600082015250565b600061379f602083612319565b91506137aa82613769565b602082019050919050565b600060208201905081810360008301526137ce81613792565b9050919050565b7f4552433732313a20746f6b656e20616c7265616479206d696e74656400000000600082015250565b600061380b601c83612319565b9150613816826137d5565b602082019050919050565b6000602082019050818103600083015261383a816137fe565b905091905056fea26469706673582212200efa54cc43b2e9018f4a2745a7265a90fc998adab878ee32fb3aa9aefbbfaa5b64736f6c634300080b0033",
  "immutableReferences": {},
  "source": "// SPDX-License-Identifier: MIT\npragma solidity >=0.4.22 <0.9.0;\n\nimport \"@openzeppelin/contracts/access/Ownable.sol\";\nimport \"@openzeppelin/contracts/token/ERC721/ERC721.sol\";\n\ncontract LavaLamp is Ownable, ERC721 {\n    using Strings for uint256;\n    string public provenance;\n    string private currentBaseURI;\n\n    uint256 private cost = 0.03 ether;\n    uint256 private maxSupply = 7980;\n    uint256 private maxMintAmount = 20;\n    address private lavaLampsEth = 0x4024b17b6fD2AC7a83bfE0c71970D23eE335BC40;\n\n    // used to semi-randomize the id's that are minted\n    uint256 private lampCount = 0;\n    uint256 private currentLampSet = 0;\n    uint256 public totalSupply = 0;\n\n    constructor(string memory _provenance, string memory _currentBaseURI) ERC721(\"LavaLamps\", \"LAVALAMPS\") {\n        provenance = _provenance;\n        setBaseURI(_currentBaseURI);\n    }\n\n    function setBaseURI(string memory baseURI) public onlyOwner {\n        currentBaseURI = baseURI;\n    }\n\n    function _baseURI() internal view virtual override returns (string memory) {\n        return currentBaseURI;\n    }\n\n    function tokenURI(uint256 tokenId) public view virtual override returns (string memory) {\n        require(_exists(tokenId), \"ERC721Metadata: URI query for nonexistent token\");\n\n        string memory curBaseURI = _baseURI();\n\n        return bytes(curBaseURI).length > 0\n            ? string(abi.encodePacked(curBaseURI, tokenId.toString(), '.json'))\n            : \"\";\n    }\n\n    function mint(uint256 mintAmount) public payable {\n        require(mintAmount > 0, 'mint amount cannot be 0');\n        require(mintAmount <= maxMintAmount, 'mint amount cannot be greater than 20');\n        require(totalSupply + mintAmount <= maxSupply, 'minting will go over total supply of 7980 lamps');\n        uint256 price = cost * mintAmount;\n\n        if (msg.sender != owner())\n            require(msg.value >= price);\n\n        for (uint256 i = 1; i <= mintAmount; i++) {\n            uint256 tokenId = getId();\n            _safeMint(msg.sender, tokenId);\n            incrementId();\n            totalSupply++;\n        }\n\n        (bool success, ) = payable(lavaLampsEth).call{value: address(this).balance}(\"\");\n        require(success);\n    }\n\n    function getId() internal view returns(uint256) {\n        uint256 lampSetSize = 399;\n        uint256 randomLampBlock = randomizeLampBlock(currentLampSet);\n        uint256 id = randomLampBlock * lampSetSize + lampCount;\n\n        return id;\n    }\n\n    // A hack to semi randomize which lamps people purchase.\n    // If someone buys 20 lamps they won't get them in sequential order\n    function incrementId() internal {\n        uint256 numOfLampBlocks = 19;\n\n        if (currentLampSet < numOfLampBlocks) {\n            currentLampSet = currentLampSet + 1;\n        } else {\n            currentLampSet = 0;\n            lampCount = lampCount + 1;\n        }\n    }\n\n    function randomizeLampBlock(uint256 lampBlock) internal pure returns(uint256) {\n        uint256 randomLampBlock = 0;\n\n        if (lampBlock == 0)\n            randomLampBlock = 3;\n        else if (lampBlock == 1)\n            randomLampBlock = 17;\n        else if (lampBlock == 2)\n            randomLampBlock = 10;\n        else if (lampBlock == 3)\n            randomLampBlock = 13;\n        else if (lampBlock == 4)\n            randomLampBlock = 18;\n        else if (lampBlock == 5)\n            randomLampBlock = 0;\n        else if (lampBlock == 6)\n            randomLampBlock = 4;\n        else if (lampBlock == 7)\n            randomLampBlock = 1;\n        else if (lampBlock == 8)\n            randomLampBlock = 6;\n        else if (lampBlock == 9)\n            randomLampBlock = 19;\n        else if (lampBlock == 10)\n            randomLampBlock = 8;\n        else if (lampBlock == 11)\n            randomLampBlock = 12;\n        else if (lampBlock == 12)\n            randomLampBlock = 2;\n        else if (lampBlock == 13)\n            randomLampBlock = 14;\n        else if (lampBlock == 14)\n            randomLampBlock = 11;\n        else if (lampBlock == 15)\n            randomLampBlock = 7;\n        else if (lampBlock == 16)\n            randomLampBlock = 15;\n        else if (lampBlock == 17)\n            randomLampBlock = 9;\n        else if (lampBlock == 18)\n            randomLampBlock = 5;\n        else if (lampBlock == 19)\n            randomLampBlock = 16;\n\n        return randomLampBlock;\n    }\n\n    // returns a boolean array of all all possible lamps\n    // every index that is true is a tokenID that is owned by the account\n    function getTokensOwnedBy(address owner) external view returns (bool[] memory) {\n        bool[] memory tokenIds = new bool[](maxSupply);\n\n        for (uint256 i = 0; i < maxSupply; i++) {\n            tokenIds[i] = false; // don't need this, defaults to bool\n\n            if (_exists(i)) {\n                if (ownerOf(i) == owner) {\n                    tokenIds[i] = true;\n                }\n            }\n        }\n\n        return tokenIds;\n    }\n}\n",
  "sourcePath": "/Users/superdorvil/workspace/ReactWorkspace/PersonalProjects/lava-lamp-nft/contracts/LavaLamp.sol",
  "compiler": {
    "name": "solc",
    "version": "0.8.11+commit.d7f03943.Emscripten.clang"
  },
  "schemaVersion": "3.4.3",
  "updatedAt": "2022-02-04T10:06:56.777Z",
  "networkType": "ethereum",
  "devdoc": {
    "kind": "dev",
    "methods": {
      "approve(address,uint256)": {
        "details": "See {IERC721-approve}."
      },
      "balanceOf(address)": {
        "details": "See {IERC721-balanceOf}."
      },
      "getApproved(uint256)": {
        "details": "See {IERC721-getApproved}."
      },
      "isApprovedForAll(address,address)": {
        "details": "See {IERC721-isApprovedForAll}."
      },
      "name()": {
        "details": "See {IERC721Metadata-name}."
      },
      "owner()": {
        "details": "Returns the address of the current owner."
      },
      "ownerOf(uint256)": {
        "details": "See {IERC721-ownerOf}."
      },
      "renounceOwnership()": {
        "details": "Leaves the contract without owner. It will not be possible to call `onlyOwner` functions anymore. Can only be called by the current owner. NOTE: Renouncing ownership will leave the contract without an owner, thereby removing any functionality that is only available to the owner."
      },
      "safeTransferFrom(address,address,uint256)": {
        "details": "See {IERC721-safeTransferFrom}."
      },
      "safeTransferFrom(address,address,uint256,bytes)": {
        "details": "See {IERC721-safeTransferFrom}."
      },
      "setApprovalForAll(address,bool)": {
        "details": "See {IERC721-setApprovalForAll}."
      },
      "supportsInterface(bytes4)": {
        "details": "See {IERC165-supportsInterface}."
      },
      "symbol()": {
        "details": "See {IERC721Metadata-symbol}."
      },
      "tokenURI(uint256)": {
        "details": "See {IERC721Metadata-tokenURI}."
      },
      "transferFrom(address,address,uint256)": {
        "details": "See {IERC721-transferFrom}."
      },
      "transferOwnership(address)": {
        "details": "Transfers ownership of the contract to a new account (`newOwner`). Can only be called by the current owner."
      }
    },
    "version": 1
  },
  "userdoc": {
    "kind": "user",
    "methods": {},
    "version": 1
  }
}