{
  "contractName": "LavaLamp",
  "abi": [
    {
      "inputs": [],
      "stateMutability": "nonpayable",
      "type": "constructor"
    },
    {
      "anonymous": false,
      "inputs": [
        {
          "indexed": true,
          "internalType": "address",
          "name": "owner",
          "type": "address"
        },
        {
          "indexed": true,
          "internalType": "address",
          "name": "approved",
          "type": "address"
        },
        {
          "indexed": true,
          "internalType": "uint256",
          "name": "tokenId",
          "type": "uint256"
        }
      ],
      "name": "Approval",
      "type": "event"
    },
    {
      "anonymous": false,
      "inputs": [
        {
          "indexed": true,
          "internalType": "address",
          "name": "owner",
          "type": "address"
        },
        {
          "indexed": true,
          "internalType": "address",
          "name": "operator",
          "type": "address"
        },
        {
          "indexed": false,
          "internalType": "bool",
          "name": "approved",
          "type": "bool"
        }
      ],
      "name": "ApprovalForAll",
      "type": "event"
    },
    {
      "anonymous": false,
      "inputs": [
        {
          "indexed": true,
          "internalType": "address",
          "name": "previousOwner",
          "type": "address"
        },
        {
          "indexed": true,
          "internalType": "address",
          "name": "newOwner",
          "type": "address"
        }
      ],
      "name": "OwnershipTransferred",
      "type": "event"
    },
    {
      "anonymous": false,
      "inputs": [
        {
          "indexed": true,
          "internalType": "address",
          "name": "from",
          "type": "address"
        },
        {
          "indexed": true,
          "internalType": "address",
          "name": "to",
          "type": "address"
        },
        {
          "indexed": true,
          "internalType": "uint256",
          "name": "tokenId",
          "type": "uint256"
        }
      ],
      "name": "Transfer",
      "type": "event"
    },
    {
      "inputs": [
        {
          "internalType": "address",
          "name": "to",
          "type": "address"
        },
        {
          "internalType": "uint256",
          "name": "tokenId",
          "type": "uint256"
        }
      ],
      "name": "approve",
      "outputs": [],
      "stateMutability": "nonpayable",
      "type": "function"
    },
    {
      "inputs": [
        {
          "internalType": "address",
          "name": "owner",
          "type": "address"
        }
      ],
      "name": "balanceOf",
      "outputs": [
        {
          "internalType": "uint256",
          "name": "",
          "type": "uint256"
        }
      ],
      "stateMutability": "view",
      "type": "function",
      "constant": true
    },
    {
      "inputs": [],
      "name": "burnCount",
      "outputs": [
        {
          "internalType": "uint256",
          "name": "",
          "type": "uint256"
        }
      ],
      "stateMutability": "view",
      "type": "function",
      "constant": true
    },
    {
      "inputs": [
        {
          "internalType": "uint256",
          "name": "tokenId",
          "type": "uint256"
        }
      ],
      "name": "getApproved",
      "outputs": [
        {
          "internalType": "address",
          "name": "",
          "type": "address"
        }
      ],
      "stateMutability": "view",
      "type": "function",
      "constant": true
    },
    {
      "inputs": [
        {
          "internalType": "address",
          "name": "owner",
          "type": "address"
        },
        {
          "internalType": "address",
          "name": "operator",
          "type": "address"
        }
      ],
      "name": "isApprovedForAll",
      "outputs": [
        {
          "internalType": "bool",
          "name": "",
          "type": "bool"
        }
      ],
      "stateMutability": "view",
      "type": "function",
      "constant": true
    },
    {
      "inputs": [],
      "name": "lampsMinted",
      "outputs": [
        {
          "internalType": "uint256",
          "name": "",
          "type": "uint256"
        }
      ],
      "stateMutability": "view",
      "type": "function",
      "constant": true
    },
    {
      "inputs": [],
      "name": "name",
      "outputs": [
        {
          "internalType": "string",
          "name": "",
          "type": "string"
        }
      ],
      "stateMutability": "view",
      "type": "function",
      "constant": true
    },
    {
      "inputs": [],
      "name": "owner",
      "outputs": [
        {
          "internalType": "address",
          "name": "",
          "type": "address"
        }
      ],
      "stateMutability": "view",
      "type": "function",
      "constant": true
    },
    {
      "inputs": [
        {
          "internalType": "uint256",
          "name": "tokenId",
          "type": "uint256"
        }
      ],
      "name": "ownerOf",
      "outputs": [
        {
          "internalType": "address",
          "name": "",
          "type": "address"
        }
      ],
      "stateMutability": "view",
      "type": "function",
      "constant": true
    },
    {
      "inputs": [],
      "name": "provenance",
      "outputs": [
        {
          "internalType": "string",
          "name": "",
          "type": "string"
        }
      ],
      "stateMutability": "view",
      "type": "function",
      "constant": true
    },
    {
      "inputs": [],
      "name": "renounceOwnership",
      "outputs": [],
      "stateMutability": "nonpayable",
      "type": "function"
    },
    {
      "inputs": [
        {
          "internalType": "address",
          "name": "from",
          "type": "address"
        },
        {
          "internalType": "address",
          "name": "to",
          "type": "address"
        },
        {
          "internalType": "uint256",
          "name": "tokenId",
          "type": "uint256"
        }
      ],
      "name": "safeTransferFrom",
      "outputs": [],
      "stateMutability": "nonpayable",
      "type": "function"
    },
    {
      "inputs": [
        {
          "internalType": "address",
          "name": "from",
          "type": "address"
        },
        {
          "internalType": "address",
          "name": "to",
          "type": "address"
        },
        {
          "internalType": "uint256",
          "name": "tokenId",
          "type": "uint256"
        },
        {
          "internalType": "bytes",
          "name": "_data",
          "type": "bytes"
        }
      ],
      "name": "safeTransferFrom",
      "outputs": [],
      "stateMutability": "nonpayable",
      "type": "function"
    },
    {
      "inputs": [
        {
          "internalType": "address",
          "name": "operator",
          "type": "address"
        },
        {
          "internalType": "bool",
          "name": "approved",
          "type": "bool"
        }
      ],
      "name": "setApprovalForAll",
      "outputs": [],
      "stateMutability": "nonpayable",
      "type": "function"
    },
    {
      "inputs": [
        {
          "internalType": "bytes4",
          "name": "interfaceId",
          "type": "bytes4"
        }
      ],
      "name": "supportsInterface",
      "outputs": [
        {
          "internalType": "bool",
          "name": "",
          "type": "bool"
        }
      ],
      "stateMutability": "view",
      "type": "function",
      "constant": true
    },
    {
      "inputs": [],
      "name": "symbol",
      "outputs": [
        {
          "internalType": "string",
          "name": "",
          "type": "string"
        }
      ],
      "stateMutability": "view",
      "type": "function",
      "constant": true
    },
    {
      "inputs": [
        {
          "internalType": "address",
          "name": "from",
          "type": "address"
        },
        {
          "internalType": "address",
          "name": "to",
          "type": "address"
        },
        {
          "internalType": "uint256",
          "name": "tokenId",
          "type": "uint256"
        }
      ],
      "name": "transferFrom",
      "outputs": [],
      "stateMutability": "nonpayable",
      "type": "function"
    },
    {
      "inputs": [
        {
          "internalType": "address",
          "name": "newOwner",
          "type": "address"
        }
      ],
      "name": "transferOwnership",
      "outputs": [],
      "stateMutability": "nonpayable",
      "type": "function"
    },
    {
      "inputs": [
        {
          "internalType": "string",
          "name": "baseURI",
          "type": "string"
        }
      ],
      "name": "setBaseURI",
      "outputs": [],
      "stateMutability": "nonpayable",
      "type": "function"
    },
    {
      "inputs": [
        {
          "internalType": "uint256",
          "name": "mintAmount",
          "type": "uint256"
        }
      ],
      "name": "mint",
      "outputs": [],
      "stateMutability": "payable",
      "type": "function",
      "payable": true
    },
    {
      "inputs": [],
      "name": "withdraw",
      "outputs": [],
      "stateMutability": "payable",
      "type": "function",
      "payable": true
    },
    {
      "inputs": [
        {
          "internalType": "uint256",
          "name": "tokenId",
          "type": "uint256"
        }
      ],
      "name": "tokenURI",
      "outputs": [
        {
          "internalType": "string",
          "name": "",
          "type": "string"
        }
      ],
      "stateMutability": "view",
      "type": "function",
      "constant": true
    },
    {
      "inputs": [
        {
          "internalType": "uint256",
          "name": "tokenId",
          "type": "uint256"
        }
      ],
      "name": "burn",
      "outputs": [],
      "stateMutability": "nonpayable",
      "type": "function"
    },
    {
      "inputs": [],
      "name": "totalSupply",
      "outputs": [
        {
          "internalType": "uint256",
          "name": "",
          "type": "uint256"
        }
      ],
      "stateMutability": "view",
      "type": "function",
      "constant": true
    },
    {
      "inputs": [
        {
          "internalType": "address",
          "name": "owner",
          "type": "address"
        }
      ],
      "name": "getTokensOwnedBy",
      "outputs": [
        {
          "internalType": "bool[]",
          "name": "",
          "type": "bool[]"
        }
      ],
      "stateMutability": "view",
      "type": "function",
      "constant": true
    }
  ],
  "bytecode": "0x608060405260405180606001604052806040815260200162003e4d604091396008908051906020019062000035929190620002f4565b50666a94d74f430000600955611f2c600a556014600b556000600c556000600d553480156200006357600080fd5b506040518060400160405280600881526020017f4c6176614c616d700000000000000000000000000000000000000000000000008152506040518060400160405280600881526020017f4c4156414c414d50000000000000000000000000000000000000000000000000815250620000f0620000e46200015460201b60201c565b6200015c60201b60201c565b816001908051906020019062000108929190620002f4565b50806002908051906020019062000121929190620002f4565b5050506200014e60405180606001604052806036815260200162003e8d603691396200022060201b60201c565b6200048c565b600033905090565b60008060009054906101000a900473ffffffffffffffffffffffffffffffffffffffff169050816000806101000a81548173ffffffffffffffffffffffffffffffffffffffff021916908373ffffffffffffffffffffffffffffffffffffffff1602179055508173ffffffffffffffffffffffffffffffffffffffff168173ffffffffffffffffffffffffffffffffffffffff167f8be0079c531659141344cd1fd0a4f28419497f9722a3daafe3b4186f6b6457e060405160405180910390a35050565b620002306200015460201b60201c565b73ffffffffffffffffffffffffffffffffffffffff1662000256620002cb60201b60201c565b73ffffffffffffffffffffffffffffffffffffffff1614620002af576040517f08c379a0000000000000000000000000000000000000000000000000000000008152600401620002a69062000405565b60405180910390fd5b8060079080519060200190620002c7929190620002f4565b5050565b60008060009054906101000a900473ffffffffffffffffffffffffffffffffffffffff16905090565b828054620003029062000456565b90600052602060002090601f01602090048101928262000326576000855562000372565b82601f106200034157805160ff191683800117855562000372565b8280016001018555821562000372579182015b828111156200037157825182559160200191906001019062000354565b5b50905062000381919062000385565b5090565b5b80821115620003a057600081600090555060010162000386565b5090565b600082825260208201905092915050565b7f4f776e61626c653a2063616c6c6572206973206e6f7420746865206f776e6572600082015250565b6000620003ed602083620003a4565b9150620003fa82620003b5565b602082019050919050565b600060208201905081810360008301526200042081620003de565b9050919050565b7f4e487b7100000000000000000000000000000000000000000000000000000000600052602260045260246000fd5b600060028204905060018216806200046f57607f821691505b6020821081141562000486576200048562000427565b5b50919050565b6139b1806200049c6000396000f3fe6080604052600436106101665760003560e01c806355f804b3116100d15780639bbc35f81161008a578063b88d4fde11610064578063b88d4fde146104fc578063c87b56dd14610525578063e985e9c514610562578063f2fde38b1461059f57610166565b80639bbc35f81461048c578063a0712d68146104b7578063a22cb465146104d357610166565b806355f804b31461037c5780636352211e146103a557806370a08231146103e2578063715018a61461041f5780638da5cb5b1461043657806395d89b411461046157610166565b806323b872dd1161012357806323b872dd1461028f5780633ccfd60b146102b85780633d4392c0146102c257806342842e0e146102ff57806342966c6814610328578063524773ce1461035157610166565b806301ffc9a71461016b57806306fdde03146101a8578063081812fc146101d3578063095ea7b3146102105780630f7309e81461023957806318160ddd14610264575b600080fd5b34801561017757600080fd5b50610192600480360381019061018d9190612353565b6105c8565b60405161019f919061239b565b60405180910390f35b3480156101b457600080fd5b506101bd6106aa565b6040516101ca919061244f565b60405180910390f35b3480156101df57600080fd5b506101fa60048036038101906101f591906124a7565b61073c565b6040516102079190612515565b60405180910390f35b34801561021c57600080fd5b506102376004803603810190610232919061255c565b6107c1565b005b34801561024557600080fd5b5061024e6108d9565b60405161025b919061244f565b60405180910390f35b34801561027057600080fd5b50610279610967565b60405161028691906125ab565b60405180910390f35b34801561029b57600080fd5b506102b660048036038101906102b191906125c6565b61097e565b005b6102c06109de565b005b3480156102ce57600080fd5b506102e960048036038101906102e49190612619565b610ada565b6040516102f69190612704565b60405180910390f35b34801561030b57600080fd5b50610326600480360381019061032191906125c6565b610bef565b005b34801561033457600080fd5b5061034f600480360381019061034a91906124a7565b610c0f565b005b34801561035d57600080fd5b50610366610c83565b60405161037391906125ab565b60405180910390f35b34801561038857600080fd5b506103a3600480360381019061039e919061285b565b610c89565b005b3480156103b157600080fd5b506103cc60048036038101906103c791906124a7565b610d1f565b6040516103d99190612515565b60405180910390f35b3480156103ee57600080fd5b5061040960048036038101906104049190612619565b610dd1565b60405161041691906125ab565b60405180910390f35b34801561042b57600080fd5b50610434610e89565b005b34801561044257600080fd5b5061044b610f11565b6040516104589190612515565b60405180910390f35b34801561046d57600080fd5b50610476610f3a565b604051610483919061244f565b60405180910390f35b34801561049857600080fd5b506104a1610fcc565b6040516104ae91906125ab565b60405180910390f35b6104d160048036038101906104cc91906124a7565b610fd2565b005b3480156104df57600080fd5b506104fa60048036038101906104f591906128d0565b611150565b005b34801561050857600080fd5b50610523600480360381019061051e91906129b1565b611166565b005b34801561053157600080fd5b5061054c600480360381019061054791906124a7565b6111c8565b604051610559919061244f565b60405180910390f35b34801561056e57600080fd5b5061058960048036038101906105849190612a34565b61126f565b604051610596919061239b565b60405180910390f35b3480156105ab57600080fd5b506105c660048036038101906105c19190612619565b611303565b005b60007f80ac58cd000000000000000000000000000000000000000000000000000000007bffffffffffffffffffffffffffffffffffffffffffffffffffffffff1916827bffffffffffffffffffffffffffffffffffffffffffffffffffffffff1916148061069357507f5b5e139f000000000000000000000000000000000000000000000000000000007bffffffffffffffffffffffffffffffffffffffffffffffffffffffff1916827bffffffffffffffffffffffffffffffffffffffffffffffffffffffff1916145b806106a357506106a2826113fb565b5b9050919050565b6060600180546106b990612aa3565b80601f01602080910402602001604051908101604052809291908181526020018280546106e590612aa3565b80156107325780601f1061070757610100808354040283529160200191610732565b820191906000526020600020905b81548152906001019060200180831161071557829003601f168201915b5050505050905090565b600061074782611465565b610786576040517f08c379a000000000000000000000000000000000000000000000000000000000815260040161077d90612b47565b60405180910390fd5b6005600083815260200190815260200160002060009054906101000a900473ffffffffffffffffffffffffffffffffffffffff169050919050565b60006107cc82610d1f565b90508073ffffffffffffffffffffffffffffffffffffffff168373ffffffffffffffffffffffffffffffffffffffff16141561083d576040517f08c379a000000000000000000000000000000000000000000000000000000000815260040161083490612bd9565b60405180910390fd5b8073ffffffffffffffffffffffffffffffffffffffff1661085c6114d1565b73ffffffffffffffffffffffffffffffffffffffff16148061088b575061088a816108856114d1565b61126f565b5b6108ca576040517f08c379a00000000000000000000000000000000000000000000000000000000081526004016108c190612c6b565b60405180910390fd5b6108d483836114d9565b505050565b600880546108e690612aa3565b80601f016020809104026020016040519081016040528092919081815260200182805461091290612aa3565b801561095f5780601f106109345761010080835404028352916020019161095f565b820191906000526020600020905b81548152906001019060200180831161094257829003601f168201915b505050505081565b6000600c54600d546109799190612cba565b905090565b61098f6109896114d1565b82611592565b6109ce576040517f08c379a00000000000000000000000000000000000000000000000000000000081526004016109c590612d60565b60405180910390fd5b6109d9838383611670565b505050565b6109e66114d1565b73ffffffffffffffffffffffffffffffffffffffff16610a04610f11565b73ffffffffffffffffffffffffffffffffffffffff1614610a5a576040517f08c379a0000000000000000000000000000000000000000000000000000000008152600401610a5190612dcc565b60405180910390fd5b6000610a64610f11565b73ffffffffffffffffffffffffffffffffffffffff1647604051610a8790612e1d565b60006040518083038185875af1925050503d8060008114610ac4576040519150601f19603f3d011682016040523d82523d6000602084013e610ac9565b606091505b5050905080610ad757600080fd5b50565b60606000600a5467ffffffffffffffff811115610afa57610af9612730565b5b604051908082528060200260200182016040528015610b285781602001602082028036833780820191505090505b50905060005b600a54811015610be5576000828281518110610b4d57610b4c612e32565b5b602002602001019015159081151581525050610b6881611465565b15610bd2578373ffffffffffffffffffffffffffffffffffffffff16610b8d82610d1f565b73ffffffffffffffffffffffffffffffffffffffff161415610bd1576001828281518110610bbe57610bbd612e32565b5b6020026020010190151590811515815250505b5b8080610bdd90612e61565b915050610b2e565b5080915050919050565b610c0a83838360405180602001604052806000815250611166565b505050565b610c20610c1a6114d1565b82611592565b610c5f576040517f08c379a0000000000000000000000000000000000000000000000000000000008152600401610c5690612f1c565b60405180910390fd5b610c68816118cc565b600c6000815480929190610c7b90612e61565b919050555050565b600c5481565b610c916114d1565b73ffffffffffffffffffffffffffffffffffffffff16610caf610f11565b73ffffffffffffffffffffffffffffffffffffffff1614610d05576040517f08c379a0000000000000000000000000000000000000000000000000000000008152600401610cfc90612dcc565b60405180910390fd5b8060079080519060200190610d1b929190612244565b5050565b6000806003600084815260200190815260200160002060009054906101000a900473ffffffffffffffffffffffffffffffffffffffff169050600073ffffffffffffffffffffffffffffffffffffffff168173ffffffffffffffffffffffffffffffffffffffff161415610dc8576040517f08c379a0000000000000000000000000000000000000000000000000000000008152600401610dbf90612fae565b60405180910390fd5b80915050919050565b60008073ffffffffffffffffffffffffffffffffffffffff168273ffffffffffffffffffffffffffffffffffffffff161415610e42576040517f08c379a0000000000000000000000000000000000000000000000000000000008152600401610e3990613040565b60405180910390fd5b600460008373ffffffffffffffffffffffffffffffffffffffff1673ffffffffffffffffffffffffffffffffffffffff168152602001908152602001600020549050919050565b610e916114d1565b73ffffffffffffffffffffffffffffffffffffffff16610eaf610f11565b73ffffffffffffffffffffffffffffffffffffffff1614610f05576040517f08c379a0000000000000000000000000000000000000000000000000000000008152600401610efc90612dcc565b60405180910390fd5b610f0f60006119dd565b565b60008060009054906101000a900473ffffffffffffffffffffffffffffffffffffffff16905090565b606060028054610f4990612aa3565b80601f0160208091040260200160405190810160405280929190818152602001828054610f7590612aa3565b8015610fc25780601f10610f9757610100808354040283529160200191610fc2565b820191906000526020600020905b815481529060010190602001808311610fa557829003601f168201915b5050505050905090565b600d5481565b60008111611015576040517f08c379a000000000000000000000000000000000000000000000000000000000815260040161100c906130ac565b60405180910390fd5b600b5481111561105a576040517f08c379a00000000000000000000000000000000000000000000000000000000081526004016110519061313e565b60405180910390fd5b600a5481600d5461106b919061315e565b11156110ac576040517f08c379a00000000000000000000000000000000000000000000000000000000081526004016110a390613226565b60405180910390fd5b6000816009546110bc9190613246565b90506110c6610f11565b73ffffffffffffffffffffffffffffffffffffffff163373ffffffffffffffffffffffffffffffffffffffff1614611106578034101561110557600080fd5b5b6000600190505b82811161114b5761112033600d54611aa1565b600d600081548092919061113390612e61565b9190505550808061114390612e61565b91505061110d565b505050565b61116261115b6114d1565b8383611abf565b5050565b6111776111716114d1565b83611592565b6111b6576040517f08c379a00000000000000000000000000000000000000000000000000000000081526004016111ad90612d60565b60405180910390fd5b6111c284848484611c2c565b50505050565b60606111d382611465565b611212576040517f08c379a000000000000000000000000000000000000000000000000000000000815260040161120990613312565b60405180910390fd5b600061121c611c88565b9050600081511161123c5760405180602001604052806000815250611267565b8061124684611d1a565b6040516020016112579291906133ba565b6040516020818303038152906040525b915050919050565b6000600660008473ffffffffffffffffffffffffffffffffffffffff1673ffffffffffffffffffffffffffffffffffffffff16815260200190815260200160002060008373ffffffffffffffffffffffffffffffffffffffff1673ffffffffffffffffffffffffffffffffffffffff16815260200190815260200160002060009054906101000a900460ff16905092915050565b61130b6114d1565b73ffffffffffffffffffffffffffffffffffffffff16611329610f11565b73ffffffffffffffffffffffffffffffffffffffff161461137f576040517f08c379a000000000000000000000000000000000000000000000000000000000815260040161137690612dcc565b60405180910390fd5b600073ffffffffffffffffffffffffffffffffffffffff168173ffffffffffffffffffffffffffffffffffffffff1614156113ef576040517f08c379a00000000000000000000000000000000000000000000000000000000081526004016113e69061345b565b60405180910390fd5b6113f8816119dd565b50565b60007f01ffc9a7000000000000000000000000000000000000000000000000000000007bffffffffffffffffffffffffffffffffffffffffffffffffffffffff1916827bffffffffffffffffffffffffffffffffffffffffffffffffffffffff1916149050919050565b60008073ffffffffffffffffffffffffffffffffffffffff166003600084815260200190815260200160002060009054906101000a900473ffffffffffffffffffffffffffffffffffffffff1673ffffffffffffffffffffffffffffffffffffffff1614159050919050565b600033905090565b816005600083815260200190815260200160002060006101000a81548173ffffffffffffffffffffffffffffffffffffffff021916908373ffffffffffffffffffffffffffffffffffffffff160217905550808273ffffffffffffffffffffffffffffffffffffffff1661154c83610d1f565b73ffffffffffffffffffffffffffffffffffffffff167f8c5be1e5ebec7d5bd14f71427d1e84f3dd0314c0f7b2291e5b200ac8c7c3b92560405160405180910390a45050565b600061159d82611465565b6115dc576040517f08c379a00000000000000000000000000000000000000000000000000000000081526004016115d3906134ed565b60405180910390fd5b60006115e783610d1f565b90508073ffffffffffffffffffffffffffffffffffffffff168473ffffffffffffffffffffffffffffffffffffffff16148061165657508373ffffffffffffffffffffffffffffffffffffffff1661163e8461073c565b73ffffffffffffffffffffffffffffffffffffffff16145b806116675750611666818561126f565b5b91505092915050565b8273ffffffffffffffffffffffffffffffffffffffff1661169082610d1f565b73ffffffffffffffffffffffffffffffffffffffff16146116e6576040517f08c379a00000000000000000000000000000000000000000000000000000000081526004016116dd9061357f565b60405180910390fd5b600073ffffffffffffffffffffffffffffffffffffffff168273ffffffffffffffffffffffffffffffffffffffff161415611756576040517f08c379a000000000000000000000000000000000000000000000000000000000815260040161174d90613611565b60405180910390fd5b611761838383611e7b565b61176c6000826114d9565b6001600460008573ffffffffffffffffffffffffffffffffffffffff1673ffffffffffffffffffffffffffffffffffffffff16815260200190815260200160002060008282546117bc9190612cba565b925050819055506001600460008473ffffffffffffffffffffffffffffffffffffffff1673ffffffffffffffffffffffffffffffffffffffff1681526020019081526020016000206000828254611813919061315e565b92505081905550816003600083815260200190815260200160002060006101000a81548173ffffffffffffffffffffffffffffffffffffffff021916908373ffffffffffffffffffffffffffffffffffffffff160217905550808273ffffffffffffffffffffffffffffffffffffffff168473ffffffffffffffffffffffffffffffffffffffff167fddf252ad1be2c89b69c2b068fc378daa952ba7f163c4a11628f55a4df523b3ef60405160405180910390a4505050565b60006118d782610d1f565b90506118e581600084611e7b565b6118f06000836114d9565b6001600460008373ffffffffffffffffffffffffffffffffffffffff1673ffffffffffffffffffffffffffffffffffffffff16815260200190815260200160002060008282546119409190612cba565b925050819055506003600083815260200190815260200160002060006101000a81549073ffffffffffffffffffffffffffffffffffffffff021916905581600073ffffffffffffffffffffffffffffffffffffffff168273ffffffffffffffffffffffffffffffffffffffff167fddf252ad1be2c89b69c2b068fc378daa952ba7f163c4a11628f55a4df523b3ef60405160405180910390a45050565b60008060009054906101000a900473ffffffffffffffffffffffffffffffffffffffff169050816000806101000a81548173ffffffffffffffffffffffffffffffffffffffff021916908373ffffffffffffffffffffffffffffffffffffffff1602179055508173ffffffffffffffffffffffffffffffffffffffff168173ffffffffffffffffffffffffffffffffffffffff167f8be0079c531659141344cd1fd0a4f28419497f9722a3daafe3b4186f6b6457e060405160405180910390a35050565b611abb828260405180602001604052806000815250611e80565b5050565b8173ffffffffffffffffffffffffffffffffffffffff168373ffffffffffffffffffffffffffffffffffffffff161415611b2e576040517f08c379a0000000000000000000000000000000000000000000000000000000008152600401611b259061367d565b60405180910390fd5b80600660008573ffffffffffffffffffffffffffffffffffffffff1673ffffffffffffffffffffffffffffffffffffffff16815260200190815260200160002060008473ffffffffffffffffffffffffffffffffffffffff1673ffffffffffffffffffffffffffffffffffffffff16815260200190815260200160002060006101000a81548160ff0219169083151502179055508173ffffffffffffffffffffffffffffffffffffffff168373ffffffffffffffffffffffffffffffffffffffff167f17307eab39ab6107e8899845ad3d59bd9653f200f220920489ca2b5937696c3183604051611c1f919061239b565b60405180910390a3505050565b611c37848484611670565b611c4384848484611edb565b611c82576040517f08c379a0000000000000000000000000000000000000000000000000000000008152600401611c799061370f565b60405180910390fd5b50505050565b606060078054611c9790612aa3565b80601f0160208091040260200160405190810160405280929190818152602001828054611cc390612aa3565b8015611d105780601f10611ce557610100808354040283529160200191611d10565b820191906000526020600020905b815481529060010190602001808311611cf357829003601f168201915b5050505050905090565b60606000821415611d62576040518060400160405280600181526020017f30000000000000000000000000000000000000000000000000000000000000008152509050611e76565b600082905060005b60008214611d94578080611d7d90612e61565b915050600a82611d8d919061375e565b9150611d6a565b60008167ffffffffffffffff811115611db057611daf612730565b5b6040519080825280601f01601f191660200182016040528015611de25781602001600182028036833780820191505090505b5090505b60008514611e6f57600182611dfb9190612cba565b9150600a85611e0a919061378f565b6030611e16919061315e565b60f81b818381518110611e2c57611e2b612e32565b5b60200101907effffffffffffffffffffffffffffffffffffffffffffffffffffffffffffff1916908160001a905350600a85611e68919061375e565b9450611de6565b8093505050505b919050565b505050565b611e8a8383612063565b611e976000848484611edb565b611ed6576040517f08c379a0000000000000000000000000000000000000000000000000000000008152600401611ecd9061370f565b60405180910390fd5b505050565b6000611efc8473ffffffffffffffffffffffffffffffffffffffff16612231565b15612056578373ffffffffffffffffffffffffffffffffffffffff1663150b7a02611f256114d1565b8786866040518563ffffffff1660e01b8152600401611f479493929190613815565b6020604051808303816000875af1925050508015611f8357506040513d601f19601f82011682018060405250810190611f809190613876565b60015b612006573d8060008114611fb3576040519150601f19603f3d011682016040523d82523d6000602084013e611fb8565b606091505b50600081511415611ffe576040517f08c379a0000000000000000000000000000000000000000000000000000000008152600401611ff59061370f565b60405180910390fd5b805181602001fd5b63150b7a0260e01b7bffffffffffffffffffffffffffffffffffffffffffffffffffffffff1916817bffffffffffffffffffffffffffffffffffffffffffffffffffffffff19161491505061205b565b600190505b949350505050565b600073ffffffffffffffffffffffffffffffffffffffff168273ffffffffffffffffffffffffffffffffffffffff1614156120d3576040517f08c379a00000000000000000000000000000000000000000000000000000000081526004016120ca906138ef565b60405180910390fd5b6120dc81611465565b1561211c576040517f08c379a00000000000000000000000000000000000000000000000000000000081526004016121139061395b565b60405180910390fd5b61212860008383611e7b565b6001600460008473ffffffffffffffffffffffffffffffffffffffff1673ffffffffffffffffffffffffffffffffffffffff1681526020019081526020016000206000828254612178919061315e565b92505081905550816003600083815260200190815260200160002060006101000a81548173ffffffffffffffffffffffffffffffffffffffff021916908373ffffffffffffffffffffffffffffffffffffffff160217905550808273ffffffffffffffffffffffffffffffffffffffff16600073ffffffffffffffffffffffffffffffffffffffff167fddf252ad1be2c89b69c2b068fc378daa952ba7f163c4a11628f55a4df523b3ef60405160405180910390a45050565b600080823b905060008111915050919050565b82805461225090612aa3565b90600052602060002090601f01602090048101928261227257600085556122b9565b82601f1061228b57805160ff19168380011785556122b9565b828001600101855582156122b9579182015b828111156122b857825182559160200191906001019061229d565b5b5090506122c691906122ca565b5090565b5b808211156122e35760008160009055506001016122cb565b5090565b6000604051905090565b600080fd5b600080fd5b60007fffffffff0000000000000000000000000000000000000000000000000000000082169050919050565b612330816122fb565b811461233b57600080fd5b50565b60008135905061234d81612327565b92915050565b600060208284031215612369576123686122f1565b5b60006123778482850161233e565b91505092915050565b60008115159050919050565b61239581612380565b82525050565b60006020820190506123b0600083018461238c565b92915050565b600081519050919050565b600082825260208201905092915050565b60005b838110156123f05780820151818401526020810190506123d5565b838111156123ff576000848401525b50505050565b6000601f19601f8301169050919050565b6000612421826123b6565b61242b81856123c1565b935061243b8185602086016123d2565b61244481612405565b840191505092915050565b600060208201905081810360008301526124698184612416565b905092915050565b6000819050919050565b61248481612471565b811461248f57600080fd5b50565b6000813590506124a18161247b565b92915050565b6000602082840312156124bd576124bc6122f1565b5b60006124cb84828501612492565b91505092915050565b600073ffffffffffffffffffffffffffffffffffffffff82169050919050565b60006124ff826124d4565b9050919050565b61250f816124f4565b82525050565b600060208201905061252a6000830184612506565b92915050565b612539816124f4565b811461254457600080fd5b50565b60008135905061255681612530565b92915050565b60008060408385031215612573576125726122f1565b5b600061258185828601612547565b925050602061259285828601612492565b9150509250929050565b6125a581612471565b82525050565b60006020820190506125c0600083018461259c565b92915050565b6000806000606084860312156125df576125de6122f1565b5b60006125ed86828701612547565b93505060206125fe86828701612547565b925050604061260f86828701612492565b9150509250925092565b60006020828403121561262f5761262e6122f1565b5b600061263d84828501612547565b91505092915050565b600081519050919050565b600082825260208201905092915050565b6000819050602082019050919050565b61267b81612380565b82525050565b600061268d8383612672565b60208301905092915050565b6000602082019050919050565b60006126b182612646565b6126bb8185612651565b93506126c683612662565b8060005b838110156126f75781516126de8882612681565b97506126e983612699565b9250506001810190506126ca565b5085935050505092915050565b6000602082019050818103600083015261271e81846126a6565b905092915050565b600080fd5b600080fd5b7f4e487b7100000000000000000000000000000000000000000000000000000000600052604160045260246000fd5b61276882612405565b810181811067ffffffffffffffff8211171561278757612786612730565b5b80604052505050565b600061279a6122e7565b90506127a6828261275f565b919050565b600067ffffffffffffffff8211156127c6576127c5612730565b5b6127cf82612405565b9050602081019050919050565b82818337600083830152505050565b60006127fe6127f9846127ab565b612790565b90508281526020810184848401111561281a5761281961272b565b5b6128258482856127dc565b509392505050565b600082601f83011261284257612841612726565b5b81356128528482602086016127eb565b91505092915050565b600060208284031215612871576128706122f1565b5b600082013567ffffffffffffffff81111561288f5761288e6122f6565b5b61289b8482850161282d565b91505092915050565b6128ad81612380565b81146128b857600080fd5b50565b6000813590506128ca816128a4565b92915050565b600080604083850312156128e7576128e66122f1565b5b60006128f585828601612547565b9250506020612906858286016128bb565b9150509250929050565b600067ffffffffffffffff82111561292b5761292a612730565b5b61293482612405565b9050602081019050919050565b600061295461294f84612910565b612790565b9050828152602081018484840111156129705761296f61272b565b5b61297b8482856127dc565b509392505050565b600082601f83011261299857612997612726565b5b81356129a8848260208601612941565b91505092915050565b600080600080608085870312156129cb576129ca6122f1565b5b60006129d987828801612547565b94505060206129ea87828801612547565b93505060406129fb87828801612492565b925050606085013567ffffffffffffffff811115612a1c57612a1b6122f6565b5b612a2887828801612983565b91505092959194509250565b60008060408385031215612a4b57612a4a6122f1565b5b6000612a5985828601612547565b9250506020612a6a85828601612547565b9150509250929050565b7f4e487b7100000000000000000000000000000000000000000000000000000000600052602260045260246000fd5b60006002820490506001821680612abb57607f821691505b60208210811415612acf57612ace612a74565b5b50919050565b7f4552433732313a20617070726f76656420717565727920666f72206e6f6e657860008201527f697374656e7420746f6b656e0000000000000000000000000000000000000000602082015250565b6000612b31602c836123c1565b9150612b3c82612ad5565b604082019050919050565b60006020820190508181036000830152612b6081612b24565b9050919050565b7f4552433732313a20617070726f76616c20746f2063757272656e74206f776e6560008201527f7200000000000000000000000000000000000000000000000000000000000000602082015250565b6000612bc36021836123c1565b9150612bce82612b67565b604082019050919050565b60006020820190508181036000830152612bf281612bb6565b9050919050565b7f4552433732313a20617070726f76652063616c6c6572206973206e6f74206f7760008201527f6e6572206e6f7220617070726f76656420666f7220616c6c0000000000000000602082015250565b6000612c556038836123c1565b9150612c6082612bf9565b604082019050919050565b60006020820190508181036000830152612c8481612c48565b9050919050565b7f4e487b7100000000000000000000000000000000000000000000000000000000600052601160045260246000fd5b6000612cc582612471565b9150612cd083612471565b925082821015612ce357612ce2612c8b565b5b828203905092915050565b7f4552433732313a207472616e736665722063616c6c6572206973206e6f74206f60008201527f776e6572206e6f7220617070726f766564000000000000000000000000000000602082015250565b6000612d4a6031836123c1565b9150612d5582612cee565b604082019050919050565b60006020820190508181036000830152612d7981612d3d565b9050919050565b7f4f776e61626c653a2063616c6c6572206973206e6f7420746865206f776e6572600082015250565b6000612db66020836123c1565b9150612dc182612d80565b602082019050919050565b60006020820190508181036000830152612de581612da9565b9050919050565b600081905092915050565b50565b6000612e07600083612dec565b9150612e1282612df7565b600082019050919050565b6000612e2882612dfa565b9150819050919050565b7f4e487b7100000000000000000000000000000000000000000000000000000000600052603260045260246000fd5b6000612e6c82612471565b91507fffffffffffffffffffffffffffffffffffffffffffffffffffffffffffffffff821415612e9f57612e9e612c8b565b5b600182019050919050565b7f4552433732314275726e61626c653a2063616c6c6572206973206e6f74206f7760008201527f6e6572206e6f7220617070726f76656400000000000000000000000000000000602082015250565b6000612f066030836123c1565b9150612f1182612eaa565b604082019050919050565b60006020820190508181036000830152612f3581612ef9565b9050919050565b7f4552433732313a206f776e657220717565727920666f72206e6f6e657869737460008201527f656e7420746f6b656e0000000000000000000000000000000000000000000000602082015250565b6000612f986029836123c1565b9150612fa382612f3c565b604082019050919050565b60006020820190508181036000830152612fc781612f8b565b9050919050565b7f4552433732313a2062616c616e636520717565727920666f7220746865207a6560008201527f726f206164647265737300000000000000000000000000000000000000000000602082015250565b600061302a602a836123c1565b915061303582612fce565b604082019050919050565b600060208201905081810360008301526130598161301d565b9050919050565b7f6d696e7420616d6f756e742063616e6e6f742062652030000000000000000000600082015250565b60006130966017836123c1565b91506130a182613060565b602082019050919050565b600060208201905081810360008301526130c581613089565b9050919050565b7f6d696e7420616d6f756e742063616e6e6f74206265206772656174657220746860008201527f616e203230000000000000000000000000000000000000000000000000000000602082015250565b60006131286025836123c1565b9150613133826130cc565b604082019050919050565b600060208201905081810360008301526131578161311b565b9050919050565b600061316982612471565b915061317483612471565b9250827fffffffffffffffffffffffffffffffffffffffffffffffffffffffffffffffff038211156131a9576131a8612c8b565b5b828201905092915050565b7f6d696e74696e672077696c6c20676f206f76657220746f74616c20737570706c60008201527f79206f662037393830206c616d70730000000000000000000000000000000000602082015250565b6000613210602f836123c1565b915061321b826131b4565b604082019050919050565b6000602082019050818103600083015261323f81613203565b9050919050565b600061325182612471565b915061325c83612471565b9250817fffffffffffffffffffffffffffffffffffffffffffffffffffffffffffffffff048311821515161561329557613294612c8b565b5b828202905092915050565b7f4552433732314d657461646174613a2055524920717565727920666f72206e6f60008201527f6e6578697374656e7420746f6b656e0000000000000000000000000000000000602082015250565b60006132fc602f836123c1565b9150613307826132a0565b604082019050919050565b6000602082019050818103600083015261332b816132ef565b9050919050565b600081905092915050565b6000613348826123b6565b6133528185613332565b93506133628185602086016123d2565b80840191505092915050565b7f2e6a736f6e000000000000000000000000000000000000000000000000000000600082015250565b60006133a4600583613332565b91506133af8261336e565b600582019050919050565b60006133c6828561333d565b91506133d2828461333d565b91506133dd82613397565b91508190509392505050565b7f4f776e61626c653a206e6577206f776e657220697320746865207a65726f206160008201527f6464726573730000000000000000000000000000000000000000000000000000602082015250565b60006134456026836123c1565b9150613450826133e9565b604082019050919050565b6000602082019050818103600083015261347481613438565b9050919050565b7f4552433732313a206f70657261746f7220717565727920666f72206e6f6e657860008201527f697374656e7420746f6b656e0000000000000000000000000000000000000000602082015250565b60006134d7602c836123c1565b91506134e28261347b565b604082019050919050565b60006020820190508181036000830152613506816134ca565b9050919050565b7f4552433732313a207472616e73666572206f6620746f6b656e2074686174206960008201527f73206e6f74206f776e0000000000000000000000000000000000000000000000602082015250565b60006135696029836123c1565b91506135748261350d565b604082019050919050565b600060208201905081810360008301526135988161355c565b9050919050565b7f4552433732313a207472616e7366657220746f20746865207a65726f2061646460008201527f7265737300000000000000000000000000000000000000000000000000000000602082015250565b60006135fb6024836123c1565b91506136068261359f565b604082019050919050565b6000602082019050818103600083015261362a816135ee565b9050919050565b7f4552433732313a20617070726f766520746f2063616c6c657200000000000000600082015250565b60006136676019836123c1565b915061367282613631565b602082019050919050565b600060208201905081810360008301526136968161365a565b9050919050565b7f4552433732313a207472616e7366657220746f206e6f6e20455243373231526560008201527f63656976657220696d706c656d656e7465720000000000000000000000000000602082015250565b60006136f96032836123c1565b91506137048261369d565b604082019050919050565b60006020820190508181036000830152613728816136ec565b9050919050565b7f4e487b7100000000000000000000000000000000000000000000000000000000600052601260045260246000fd5b600061376982612471565b915061377483612471565b9250826137845761378361372f565b5b828204905092915050565b600061379a82612471565b91506137a583612471565b9250826137b5576137b461372f565b5b828206905092915050565b600081519050919050565b600082825260208201905092915050565b60006137e7826137c0565b6137f181856137cb565b93506138018185602086016123d2565b61380a81612405565b840191505092915050565b600060808201905061382a6000830187612506565b6138376020830186612506565b613844604083018561259c565b818103606083015261385681846137dc565b905095945050505050565b60008151905061387081612327565b92915050565b60006020828403121561388c5761388b6122f1565b5b600061389a84828501613861565b91505092915050565b7f4552433732313a206d696e7420746f20746865207a65726f2061646472657373600082015250565b60006138d96020836123c1565b91506138e4826138a3565b602082019050919050565b60006020820190508181036000830152613908816138cc565b9050919050565b7f4552433732313a20746f6b656e20616c7265616479206d696e74656400000000600082015250565b6000613945601c836123c1565b91506139508261390f565b602082019050919050565b6000602082019050818103600083015261397481613938565b905091905056fea26469706673582212202cebfbcb4dd48e75806340780b3e94997e5230abd9811878c84c8711f34b215a64736f6c634300080b003337326135393331336638366339643864393536666566336664363164613033313064653466656632323131633936663137393839363830663932386435636130697066733a2f2f516d64744b64767a615266786432517067706e585363696871586837344c46424747316f654c644d625353314b682f",
  "immutableReferences": {},
  "source": "// SPDX-License-Identifier: MIT\npragma solidity >=0.4.22 <0.9.0;\n\nimport \"@openzeppelin/contracts/access/Ownable.sol\";\nimport \"@openzeppelin/contracts/token/ERC721/ERC721.sol\";\n\n// truffle migrate --reset --network rinkeby\ncontract LavaLamp is Ownable, ERC721 {\n    using Strings for uint256;\n    string private currentBaseURI;\n    string public provenance = \"72a59313f86c9d8d956fef3fd61da0310de4fef2211c96f17989680f928d5ca0\";\n\n    uint256 private cost = 0.03 ether;\n    uint256 private maxSupply = 7980;\n    uint256 private maxMintAmount = 20;\n\n    uint256 public burnCount = 0;\n    uint256 public lampsMinted = 0;\n\n    // string memory provenanceHash\n    constructor() ERC721(\"LavaLamp\", \"LAVALAMP\") {\n        // \"http://localhost:3000/token/\"\n        // setBaseURI(\"http://www.websitename.com/token/\");\n        // ipfs://{cid}/\n        setBaseURI(\"ipfs://QmdtKdvzaRfxd2QpgpnXScihqXh74LFBGG1oeLdMbSS1Kh/\");\n    }\n\n    function setBaseURI(string memory baseURI) public onlyOwner {\n        currentBaseURI = baseURI;\n    }\n\n    function _baseURI() internal view virtual override returns (string memory) {\n        return currentBaseURI;\n    }\n\n    function mint(uint256 mintAmount) public payable {\n        require(mintAmount > 0, 'mint amount cannot be 0');\n        require(mintAmount <= maxMintAmount, 'mint amount cannot be greater than 20');\n        require(lampsMinted + mintAmount <= maxSupply, 'minting will go over total supply of 7980 lamps');\n        uint256 price = cost * mintAmount;\n\n        if (msg.sender != owner())\n            require(msg.value >= price);\n\n        for (uint256 i = 1; i <= mintAmount; i++) {\n            _safeMint(msg.sender, lampsMinted);\n            lampsMinted++;\n        }\n\n        // (bool hs, ) = payable(0x0).call{value: address(this).balance * 5 / 100}(\"\");\n      //  (bool success, ) = payable(owner()).call{value: address(this).balance}(\"\");\n      //  require(success);\n    }\n\n    function withdraw() public payable onlyOwner {\n      // (bool hs, ) = payable(0x0).call{value: address(this).balance * 5 / 100}(\"\");\n      (bool success, ) = payable(owner()).call{value: address(this).balance}(\"\");\n      require(success);\n    }\n\n    function tokenURI(uint256 tokenId) public view virtual override returns (string memory) {\n        require(_exists(tokenId), \"ERC721Metadata: URI query for nonexistent token\");\n\n        string memory curBaseURI = _baseURI();\n        return bytes(curBaseURI).length > 0\n            ? string(abi.encodePacked(curBaseURI, tokenId.toString(), \".json\"))\n            : \"\";\n    }\n\n    // allows the user to burn their lamps and there is a count of burned lamps\n    function burn(uint256 tokenId) public {\n        //solhint-disable-next-line max-line-length\n        require(_isApprovedOrOwner(_msgSender(), tokenId), \"ERC721Burnable: caller is not owner nor approved\");\n        _burn(tokenId);\n        burnCount++;\n    }\n\n    function totalSupply() external view returns (uint256) {\n        return lampsMinted - burnCount;\n    }\n\n    // returns a boolean array of all all possible lamps\n    // every index that is true is a tokenID that is owned by the account\n    function getTokensOwnedBy(address owner) external view returns (bool[] memory) {\n        bool[] memory tokenIds = new bool[](maxSupply);\n\n        for (uint256 i = 0; i < maxSupply; i++) {\n            tokenIds[i] = false; // don't need this, defaults to bool\n\n            if (_exists(i)) {\n                if (ownerOf(i) == owner) {\n                    tokenIds[i] = true;\n                }\n            }\n        }\n\n        return tokenIds;\n    }\n}\n",
  "sourcePath": "/Users/superdorvil/workspace/ReactWorkspace/PersonalProjects/lava-lamp-nft/contracts/LavaLamp.sol",
  "compiler": {
    "name": "solc",
    "version": "0.8.11+commit.d7f03943.Emscripten.clang"
  },
  "schemaVersion": "3.4.3",
  "updatedAt": "2022-01-24T20:46:21.936Z",
  "networkType": "ethereum",
  "devdoc": {
    "kind": "dev",
    "methods": {
      "approve(address,uint256)": {
        "details": "See {IERC721-approve}."
      },
      "balanceOf(address)": {
        "details": "See {IERC721-balanceOf}."
      },
      "getApproved(uint256)": {
        "details": "See {IERC721-getApproved}."
      },
      "isApprovedForAll(address,address)": {
        "details": "See {IERC721-isApprovedForAll}."
      },
      "name()": {
        "details": "See {IERC721Metadata-name}."
      },
      "owner()": {
        "details": "Returns the address of the current owner."
      },
      "ownerOf(uint256)": {
        "details": "See {IERC721-ownerOf}."
      },
      "renounceOwnership()": {
        "details": "Leaves the contract without owner. It will not be possible to call `onlyOwner` functions anymore. Can only be called by the current owner. NOTE: Renouncing ownership will leave the contract without an owner, thereby removing any functionality that is only available to the owner."
      },
      "safeTransferFrom(address,address,uint256)": {
        "details": "See {IERC721-safeTransferFrom}."
      },
      "safeTransferFrom(address,address,uint256,bytes)": {
        "details": "See {IERC721-safeTransferFrom}."
      },
      "setApprovalForAll(address,bool)": {
        "details": "See {IERC721-setApprovalForAll}."
      },
      "supportsInterface(bytes4)": {
        "details": "See {IERC165-supportsInterface}."
      },
      "symbol()": {
        "details": "See {IERC721Metadata-symbol}."
      },
      "tokenURI(uint256)": {
        "details": "See {IERC721Metadata-tokenURI}."
      },
      "transferFrom(address,address,uint256)": {
        "details": "See {IERC721-transferFrom}."
      },
      "transferOwnership(address)": {
        "details": "Transfers ownership of the contract to a new account (`newOwner`). Can only be called by the current owner."
      }
    },
    "version": 1
  },
  "userdoc": {
    "kind": "user",
    "methods": {},
    "version": 1
  }
}