{
  "contractName": "LavaLamp",
  "abi": [
    {
      "inputs": [],
      "stateMutability": "nonpayable",
      "type": "constructor"
    },
    {
      "anonymous": false,
      "inputs": [
        {
          "indexed": true,
          "internalType": "address",
          "name": "owner",
          "type": "address"
        },
        {
          "indexed": true,
          "internalType": "address",
          "name": "approved",
          "type": "address"
        },
        {
          "indexed": true,
          "internalType": "uint256",
          "name": "tokenId",
          "type": "uint256"
        }
      ],
      "name": "Approval",
      "type": "event"
    },
    {
      "anonymous": false,
      "inputs": [
        {
          "indexed": true,
          "internalType": "address",
          "name": "owner",
          "type": "address"
        },
        {
          "indexed": true,
          "internalType": "address",
          "name": "operator",
          "type": "address"
        },
        {
          "indexed": false,
          "internalType": "bool",
          "name": "approved",
          "type": "bool"
        }
      ],
      "name": "ApprovalForAll",
      "type": "event"
    },
    {
      "anonymous": false,
      "inputs": [
        {
          "indexed": true,
          "internalType": "address",
          "name": "previousOwner",
          "type": "address"
        },
        {
          "indexed": true,
          "internalType": "address",
          "name": "newOwner",
          "type": "address"
        }
      ],
      "name": "OwnershipTransferred",
      "type": "event"
    },
    {
      "anonymous": false,
      "inputs": [
        {
          "indexed": true,
          "internalType": "address",
          "name": "from",
          "type": "address"
        },
        {
          "indexed": true,
          "internalType": "address",
          "name": "to",
          "type": "address"
        },
        {
          "indexed": true,
          "internalType": "uint256",
          "name": "tokenId",
          "type": "uint256"
        }
      ],
      "name": "Transfer",
      "type": "event"
    },
    {
      "inputs": [
        {
          "internalType": "address",
          "name": "to",
          "type": "address"
        },
        {
          "internalType": "uint256",
          "name": "tokenId",
          "type": "uint256"
        }
      ],
      "name": "approve",
      "outputs": [],
      "stateMutability": "nonpayable",
      "type": "function"
    },
    {
      "inputs": [
        {
          "internalType": "address",
          "name": "owner",
          "type": "address"
        }
      ],
      "name": "balanceOf",
      "outputs": [
        {
          "internalType": "uint256",
          "name": "",
          "type": "uint256"
        }
      ],
      "stateMutability": "view",
      "type": "function",
      "constant": true
    },
    {
      "inputs": [
        {
          "internalType": "uint256",
          "name": "tokenId",
          "type": "uint256"
        }
      ],
      "name": "getApproved",
      "outputs": [
        {
          "internalType": "address",
          "name": "",
          "type": "address"
        }
      ],
      "stateMutability": "view",
      "type": "function",
      "constant": true
    },
    {
      "inputs": [
        {
          "internalType": "address",
          "name": "owner",
          "type": "address"
        },
        {
          "internalType": "address",
          "name": "operator",
          "type": "address"
        }
      ],
      "name": "isApprovedForAll",
      "outputs": [
        {
          "internalType": "bool",
          "name": "",
          "type": "bool"
        }
      ],
      "stateMutability": "view",
      "type": "function",
      "constant": true
    },
    {
      "inputs": [],
      "name": "name",
      "outputs": [
        {
          "internalType": "string",
          "name": "",
          "type": "string"
        }
      ],
      "stateMutability": "view",
      "type": "function",
      "constant": true
    },
    {
      "inputs": [],
      "name": "owner",
      "outputs": [
        {
          "internalType": "address",
          "name": "",
          "type": "address"
        }
      ],
      "stateMutability": "view",
      "type": "function",
      "constant": true
    },
    {
      "inputs": [
        {
          "internalType": "uint256",
          "name": "tokenId",
          "type": "uint256"
        }
      ],
      "name": "ownerOf",
      "outputs": [
        {
          "internalType": "address",
          "name": "",
          "type": "address"
        }
      ],
      "stateMutability": "view",
      "type": "function",
      "constant": true
    },
    {
      "inputs": [],
      "name": "renounceOwnership",
      "outputs": [],
      "stateMutability": "nonpayable",
      "type": "function"
    },
    {
      "inputs": [
        {
          "internalType": "address",
          "name": "from",
          "type": "address"
        },
        {
          "internalType": "address",
          "name": "to",
          "type": "address"
        },
        {
          "internalType": "uint256",
          "name": "tokenId",
          "type": "uint256"
        }
      ],
      "name": "safeTransferFrom",
      "outputs": [],
      "stateMutability": "nonpayable",
      "type": "function"
    },
    {
      "inputs": [
        {
          "internalType": "address",
          "name": "from",
          "type": "address"
        },
        {
          "internalType": "address",
          "name": "to",
          "type": "address"
        },
        {
          "internalType": "uint256",
          "name": "tokenId",
          "type": "uint256"
        },
        {
          "internalType": "bytes",
          "name": "_data",
          "type": "bytes"
        }
      ],
      "name": "safeTransferFrom",
      "outputs": [],
      "stateMutability": "nonpayable",
      "type": "function"
    },
    {
      "inputs": [
        {
          "internalType": "address",
          "name": "operator",
          "type": "address"
        },
        {
          "internalType": "bool",
          "name": "approved",
          "type": "bool"
        }
      ],
      "name": "setApprovalForAll",
      "outputs": [],
      "stateMutability": "nonpayable",
      "type": "function"
    },
    {
      "inputs": [
        {
          "internalType": "bytes4",
          "name": "interfaceId",
          "type": "bytes4"
        }
      ],
      "name": "supportsInterface",
      "outputs": [
        {
          "internalType": "bool",
          "name": "",
          "type": "bool"
        }
      ],
      "stateMutability": "view",
      "type": "function",
      "constant": true
    },
    {
      "inputs": [],
      "name": "symbol",
      "outputs": [
        {
          "internalType": "string",
          "name": "",
          "type": "string"
        }
      ],
      "stateMutability": "view",
      "type": "function",
      "constant": true
    },
    {
      "inputs": [
        {
          "internalType": "uint256",
          "name": "tokenId",
          "type": "uint256"
        }
      ],
      "name": "tokenURI",
      "outputs": [
        {
          "internalType": "string",
          "name": "",
          "type": "string"
        }
      ],
      "stateMutability": "view",
      "type": "function",
      "constant": true
    },
    {
      "inputs": [
        {
          "internalType": "address",
          "name": "from",
          "type": "address"
        },
        {
          "internalType": "address",
          "name": "to",
          "type": "address"
        },
        {
          "internalType": "uint256",
          "name": "tokenId",
          "type": "uint256"
        }
      ],
      "name": "transferFrom",
      "outputs": [],
      "stateMutability": "nonpayable",
      "type": "function"
    },
    {
      "inputs": [
        {
          "internalType": "address",
          "name": "newOwner",
          "type": "address"
        }
      ],
      "name": "transferOwnership",
      "outputs": [],
      "stateMutability": "nonpayable",
      "type": "function"
    },
    {
      "inputs": [
        {
          "internalType": "string",
          "name": "baseURI",
          "type": "string"
        }
      ],
      "name": "setBaseURI",
      "outputs": [],
      "stateMutability": "nonpayable",
      "type": "function"
    },
    {
      "inputs": [],
      "name": "claim",
      "outputs": [],
      "stateMutability": "payable",
      "type": "function",
      "payable": true
    },
    {
      "inputs": [
        {
          "internalType": "uint256",
          "name": "tokenId",
          "type": "uint256"
        }
      ],
      "name": "get",
      "outputs": [
        {
          "internalType": "uint8[]",
          "name": "",
          "type": "uint8[]"
        }
      ],
      "stateMutability": "view",
      "type": "function",
      "constant": true
    },
    {
      "inputs": [],
      "name": "getAllTokens",
      "outputs": [
        {
          "components": [
            {
              "internalType": "uint8",
              "name": "lava_count",
              "type": "uint8"
            },
            {
              "internalType": "uint8",
              "name": "color_1",
              "type": "uint8"
            },
            {
              "internalType": "uint8",
              "name": "color_2",
              "type": "uint8"
            },
            {
              "internalType": "uint8",
              "name": "color_3",
              "type": "uint8"
            },
            {
              "internalType": "uint8",
              "name": "color_4",
              "type": "uint8"
            },
            {
              "internalType": "uint8",
              "name": "base",
              "type": "uint8"
            },
            {
              "internalType": "uint8",
              "name": "background",
              "type": "uint8"
            },
            {
              "internalType": "uint8",
              "name": "sticker",
              "type": "uint8"
            }
          ],
          "internalType": "struct LavaLamp.Metadata[]",
          "name": "",
          "type": "tuple[]"
        }
      ],
      "stateMutability": "view",
      "type": "function",
      "constant": true
    }
  ],
  "bytecode": "0x60806040523480156200001157600080fd5b506040518060400160405280600881526020017f4c6176614c616d700000000000000000000000000000000000000000000000008152506040518060400160405280600881526020017f4c4156414c414d500000000000000000000000000000000000000000000000008152506200009e62000092620001de60201b60201c565b620001e660201b60201c565b8160019080519060200190620000b692919062000e9b565b508060029080519060200190620000cf92919062000e9b565b505050620001186040518060400160405280601c81526020017f687474703a2f2f6c6f63616c686f73743a333030302f746f6b656e2f00000000815250620002aa60201b60201c565b620001286200035560201b60201c565b620001386200035560201b60201c565b620001486200035560201b60201c565b620001586200035560201b60201c565b620001686200035560201b60201c565b620001786200035560201b60201c565b620001886200035560201b60201c565b620001986200035560201b60201c565b620001a86200035560201b60201c565b620001b86200035560201b60201c565b620001c86200035560201b60201c565b620001d86200035560201b60201c565b620015cb565b600033905090565b60008060009054906101000a900473ffffffffffffffffffffffffffffffffffffffff169050816000806101000a81548173ffffffffffffffffffffffffffffffffffffffff021916908373ffffffffffffffffffffffffffffffffffffffff1602179055508173ffffffffffffffffffffffffffffffffffffffff168173ffffffffffffffffffffffffffffffffffffffff167f8be0079c531659141344cd1fd0a4f28419497f9722a3daafe3b4186f6b6457e060405160405180910390a35050565b620002ba620001de60201b60201c565b73ffffffffffffffffffffffffffffffffffffffff16620002e06200095160201b60201c565b73ffffffffffffffffffffffffffffffffffffffff161462000339576040517f08c379a0000000000000000000000000000000000000000000000000000000008152600401620003309062000fac565b60405180910390fd5b80600990805190602001906200035192919062000e9b565b5050565b60006200036e60076200097a60201b6200153b1760201c565b9050600080829050600080806000806000806000600a8962000391919062001007565b9650600a8760ff168a620003a691906200106e565b620003b29190620010a9565b9850600a89620003c3919062001007565b9550600a8660ff168a620003d891906200106e565b620003e49190620010a9565b9850600a89620003f5919062001007565b9450600a8560ff168a6200040a91906200106e565b620004169190620010a9565b9850600a8962000427919062001007565b9350600a8460ff168a6200043c91906200106e565b620004489190620010a9565b985060008760ff161115620004685787806200046490620010ee565b9850505b60008660ff161115620004865787806200048290620010ee565b9850505b60008560ff161115620004a4578780620004a090620010ee565b9850505b60008460ff161115620004c2578780620004be90620010ee565b9850505b620f4240620004dc8888888860006200098860201b60201c565b620004e8919062001007565b9950614e208a1015620004ff5760099250620005bb565b61c3508a1015620005145760089250620005ba565b620186a08a10156200052a5760079250620005b9565b620298108a1015620005405760069250620005b8565b6203f7a08a1015620005565760059250620005b7565b6205a5508a10156200056c5760049250620005b6565b6207a1208a1015620005825760039250620005b5565b6209eb108a1015620005985760029250620005b4565b620c83208a1015620005ae5760019250620005b3565b600092505b5b5b5b5b5b5b5b5b620f4240620005d4888888888f6200098860201b60201c565b620005e0919062001007565b9950614e208a1015620005f75760099150620006b3565b61c3508a10156200060c5760089150620006b2565b620186a08a1015620006225760079150620006b1565b620298108a1015620006385760069150620006b0565b6203f7a08a10156200064e5760059150620006af565b6205a5508a1015620006645760049150620006ae565b6207a1208a10156200067a5760039150620006ad565b6209eb108a1015620006905760029150620006ac565b620c83208a1015620006a65760019150620006ab565b600091505b5b5b5b5b5b5b5b5b620f4240620006cc888888888f6200098860201b60201c565b620006d8919062001007565b9950614e208a1015620006ef5760099050620007ab565b61c3508a1015620007045760089050620007aa565b620186a08a10156200071a5760079050620007a9565b620298108a1015620007305760069050620007a8565b6203f7a08a1015620007465760059050620007a7565b6205a5508a10156200075c5760049050620007a6565b6207a1208a1015620007725760039050620007a5565b6209eb108a1015620007885760029050620007a4565b620c83208a10156200079e5760019050620007a3565b600090505b5b5b5b5b5b5b5b5b6040518061010001604052808960ff1681526020018860ff1681526020018760ff1681526020018660ff1681526020018560ff1681526020018460ff1681526020018360ff1681526020018260ff16815250600860008d815260200190815260200160002060008201518160000160006101000a81548160ff021916908360ff16021790555060208201518160000160016101000a81548160ff021916908360ff16021790555060408201518160000160026101000a81548160ff021916908360ff16021790555060608201518160000160036101000a81548160ff021916908360ff16021790555060808201518160000160046101000a81548160ff021916908360ff16021790555060a08201518160000160056101000a81548160ff021916908360ff16021790555060c08201518160000160066101000a81548160ff021916908360ff16021790555060e08201518160000160076101000a81548160ff021916908360ff1602179055509050506200092d338c620009cd60201b60201c565b620009446007620009f360201b620015491760201c565b5050505050505050505050565b60008060009054906101000a900473ffffffffffffffffffffffffffffffffffffffff16905090565b600081600001549050919050565b600042448787878787604051602001620009a997969594939291906200113f565b6040516020818303038152906040528051906020012060001c905095945050505050565b620009ef82826040518060200160405280600081525062000a0960201b60201c565b5050565b6001816000016000828254019250508190555050565b62000a1b838362000a7760201b60201c565b62000a30600084848462000c5d60201b60201c565b62000a72576040517f08c379a000000000000000000000000000000000000000000000000000000000815260040162000a699062001232565b60405180910390fd5b505050565b600073ffffffffffffffffffffffffffffffffffffffff168273ffffffffffffffffffffffffffffffffffffffff16141562000aea576040517f08c379a000000000000000000000000000000000000000000000000000000000815260040162000ae190620012a4565b60405180910390fd5b62000afb8162000e1760201b60201c565b1562000b3e576040517f08c379a000000000000000000000000000000000000000000000000000000000815260040162000b359062001316565b60405180910390fd5b62000b526000838362000e8360201b60201c565b6001600460008473ffffffffffffffffffffffffffffffffffffffff1673ffffffffffffffffffffffffffffffffffffffff168152602001908152602001600020600082825462000ba4919062001338565b92505081905550816003600083815260200190815260200160002060006101000a81548173ffffffffffffffffffffffffffffffffffffffff021916908373ffffffffffffffffffffffffffffffffffffffff160217905550808273ffffffffffffffffffffffffffffffffffffffff16600073ffffffffffffffffffffffffffffffffffffffff167fddf252ad1be2c89b69c2b068fc378daa952ba7f163c4a11628f55a4df523b3ef60405160405180910390a45050565b600062000c8b8473ffffffffffffffffffffffffffffffffffffffff1662000e8860201b6200155f1760201c565b1562000e0a578373ffffffffffffffffffffffffffffffffffffffff1663150b7a0262000cbd620001de60201b60201c565b8786866040518563ffffffff1660e01b815260040162000ce194939291906200147e565b602060405180830381600087803b15801562000cfc57600080fd5b505af192505050801562000d3057506040513d601f19601f8201168201806040525081019062000d2d919062001534565b60015b62000db9573d806000811462000d63576040519150601f19603f3d011682016040523d82523d6000602084013e62000d68565b606091505b5060008151141562000db1576040517f08c379a000000000000000000000000000000000000000000000000000000000815260040162000da89062001232565b60405180910390fd5b805181602001fd5b63150b7a0260e01b7bffffffffffffffffffffffffffffffffffffffffffffffffffffffff1916817bffffffffffffffffffffffffffffffffffffffffffffffffffffffff19161491505062000e0f565b600190505b949350505050565b60008073ffffffffffffffffffffffffffffffffffffffff166003600084815260200190815260200160002060009054906101000a900473ffffffffffffffffffffffffffffffffffffffff1673ffffffffffffffffffffffffffffffffffffffff1614159050919050565b505050565b600080823b905060008111915050919050565b82805462000ea99062001595565b90600052602060002090601f01602090048101928262000ecd576000855562000f19565b82601f1062000ee857805160ff191683800117855562000f19565b8280016001018555821562000f19579182015b8281111562000f1857825182559160200191906001019062000efb565b5b50905062000f28919062000f2c565b5090565b5b8082111562000f4757600081600090555060010162000f2d565b5090565b600082825260208201905092915050565b7f4f776e61626c653a2063616c6c6572206973206e6f7420746865206f776e6572600082015250565b600062000f9460208362000f4b565b915062000fa18262000f5c565b602082019050919050565b6000602082019050818103600083015262000fc78162000f85565b9050919050565b6000819050919050565b7f4e487b7100000000000000000000000000000000000000000000000000000000600052601260045260246000fd5b6000620010148262000fce565b9150620010218362000fce565b92508262001034576200103362000fd8565b5b828206905092915050565b7f4e487b7100000000000000000000000000000000000000000000000000000000600052601160045260246000fd5b60006200107b8262000fce565b9150620010888362000fce565b9250828210156200109e576200109d6200103f565b5b828203905092915050565b6000620010b68262000fce565b9150620010c38362000fce565b925082620010d657620010d562000fd8565b5b828204905092915050565b600060ff82169050919050565b6000620010fb82620010e1565b915060ff8214156200111257620011116200103f565b5b600182019050919050565b620011288162000fce565b82525050565b6200113981620010e1565b82525050565b600060e08201905062001156600083018a6200111d565b6200116560208301896200111d565b6200117460408301886200112e565b6200118360608301876200112e565b6200119260808301866200112e565b620011a160a08301856200112e565b620011b060c08301846200111d565b98975050505050505050565b7f4552433732313a207472616e7366657220746f206e6f6e20455243373231526560008201527f63656976657220696d706c656d656e7465720000000000000000000000000000602082015250565b60006200121a60328362000f4b565b91506200122782620011bc565b604082019050919050565b600060208201905081810360008301526200124d816200120b565b9050919050565b7f4552433732313a206d696e7420746f20746865207a65726f2061646472657373600082015250565b60006200128c60208362000f4b565b9150620012998262001254565b602082019050919050565b60006020820190508181036000830152620012bf816200127d565b9050919050565b7f4552433732313a20746f6b656e20616c7265616479206d696e74656400000000600082015250565b6000620012fe601c8362000f4b565b91506200130b82620012c6565b602082019050919050565b600060208201905081810360008301526200133181620012ef565b9050919050565b6000620013458262000fce565b9150620013528362000fce565b9250827fffffffffffffffffffffffffffffffffffffffffffffffffffffffffffffffff038211156200138a57620013896200103f565b5b828201905092915050565b600073ffffffffffffffffffffffffffffffffffffffff82169050919050565b6000620013c28262001395565b9050919050565b620013d481620013b5565b82525050565b600081519050919050565b600082825260208201905092915050565b60005b8381101562001416578082015181840152602081019050620013f9565b8381111562001426576000848401525b50505050565b6000601f19601f8301169050919050565b60006200144a82620013da565b620014568185620013e5565b935062001468818560208601620013f6565b62001473816200142c565b840191505092915050565b6000608082019050620014956000830187620013c9565b620014a46020830186620013c9565b620014b360408301856200111d565b8181036060830152620014c781846200143d565b905095945050505050565b600080fd5b60007fffffffff0000000000000000000000000000000000000000000000000000000082169050919050565b6200150e81620014d7565b81146200151a57600080fd5b50565b6000815190506200152e8162001503565b92915050565b6000602082840312156200154d576200154c620014d2565b5b60006200155d848285016200151d565b91505092915050565b7f4e487b7100000000000000000000000000000000000000000000000000000000600052602260045260246000fd5b60006002820490506001821680620015ae57607f821691505b60208210811415620015c557620015c462001566565b5b50919050565b613eb680620015db6000396000f3fe60806040526004361061011f5760003560e01c806370a08231116100a0578063a22cb46511610064578063a22cb465146103c6578063b88d4fde146103ef578063c87b56dd14610418578063e985e9c514610455578063f2fde38b146104925761011f565b806370a08231146102df578063715018a61461031c5780638da5cb5b146103335780639507d39a1461035e57806395d89b411461039b5761011f565b80632a5c792a116100e75780632a5c792a1461021b57806342842e0e146102465780634e71d92d1461026f57806355f804b3146102795780636352211e146102a25761011f565b806301ffc9a71461012457806306fdde0314610161578063081812fc1461018c578063095ea7b3146101c957806323b872dd146101f2575b600080fd5b34801561013057600080fd5b5061014b6004803603810190610146919061284a565b6104bb565b6040516101589190612892565b60405180910390f35b34801561016d57600080fd5b5061017661059d565b6040516101839190612946565b60405180910390f35b34801561019857600080fd5b506101b360048036038101906101ae919061299e565b61062f565b6040516101c09190612a0c565b60405180910390f35b3480156101d557600080fd5b506101f060048036038101906101eb9190612a53565b6106b4565b005b3480156101fe57600080fd5b5061021960048036038101906102149190612a93565b6107cc565b005b34801561022757600080fd5b5061023061082c565b60405161023d9190612c54565b60405180910390f35b34801561025257600080fd5b5061026d60048036038101906102689190612a93565b610a05565b005b610277610a25565b005b34801561028557600080fd5b506102a0600480360381019061029b9190612dab565b610acd565b005b3480156102ae57600080fd5b506102c960048036038101906102c4919061299e565b610b63565b6040516102d69190612a0c565b60405180910390f35b3480156102eb57600080fd5b5061030660048036038101906103019190612df4565b610c15565b6040516103139190612e30565b60405180910390f35b34801561032857600080fd5b50610331610ccd565b005b34801561033f57600080fd5b50610348610d55565b6040516103559190612a0c565b60405180910390f35b34801561036a57600080fd5b506103856004803603810190610380919061299e565b610d7e565b6040516103929190612efa565b60405180910390f35b3480156103a757600080fd5b506103b0611093565b6040516103bd9190612946565b60405180910390f35b3480156103d257600080fd5b506103ed60048036038101906103e89190612f48565b611125565b005b3480156103fb57600080fd5b5061041660048036038101906104119190613029565b6112a6565b005b34801561042457600080fd5b5061043f600480360381019061043a919061299e565b611308565b60405161044c9190612946565b60405180910390f35b34801561046157600080fd5b5061047c600480360381019061047791906130ac565b6113af565b6040516104899190612892565b60405180910390f35b34801561049e57600080fd5b506104b960048036038101906104b49190612df4565b611443565b005b60007f80ac58cd000000000000000000000000000000000000000000000000000000007bffffffffffffffffffffffffffffffffffffffffffffffffffffffff1916827bffffffffffffffffffffffffffffffffffffffffffffffffffffffff1916148061058657507f5b5e139f000000000000000000000000000000000000000000000000000000007bffffffffffffffffffffffffffffffffffffffffffffffffffffffff1916827bffffffffffffffffffffffffffffffffffffffffffffffffffffffff1916145b80610596575061059582611572565b5b9050919050565b6060600180546105ac9061311b565b80601f01602080910402602001604051908101604052809291908181526020018280546105d89061311b565b80156106255780601f106105fa57610100808354040283529160200191610625565b820191906000526020600020905b81548152906001019060200180831161060857829003601f168201915b5050505050905090565b600061063a826115dc565b610679576040517f08c379a0000000000000000000000000000000000000000000000000000000008152600401610670906131bf565b60405180910390fd5b6005600083815260200190815260200160002060009054906101000a900473ffffffffffffffffffffffffffffffffffffffff169050919050565b60006106bf82610b63565b90508073ffffffffffffffffffffffffffffffffffffffff168373ffffffffffffffffffffffffffffffffffffffff161415610730576040517f08c379a000000000000000000000000000000000000000000000000000000000815260040161072790613251565b60405180910390fd5b8073ffffffffffffffffffffffffffffffffffffffff1661074f611648565b73ffffffffffffffffffffffffffffffffffffffff16148061077e575061077d81610778611648565b6113af565b5b6107bd576040517f08c379a00000000000000000000000000000000000000000000000000000000081526004016107b4906132e3565b60405180910390fd5b6107c78383611650565b505050565b6107dd6107d7611648565b82611709565b61081c576040517f08c379a000000000000000000000000000000000000000000000000000000000815260040161081390613375565b60405180910390fd5b6108278383836117e7565b505050565b6060600061083a600761153b565b90506000808267ffffffffffffffff81111561085957610858612c80565b5b60405190808252806020026020018201604052801561089257816020015b61087f6126de565b8152602001906001900390816108775790505b50905060005b838110156109fb576108a9836115dc565b156109da57600060086000858152602001908152602001600020604051806101000160405290816000820160009054906101000a900460ff1660ff1660ff1681526020016000820160019054906101000a900460ff1660ff1660ff1681526020016000820160029054906101000a900460ff1660ff1660ff1681526020016000820160039054906101000a900460ff1660ff1660ff1681526020016000820160049054906101000a900460ff1660ff1660ff1681526020016000820160059054906101000a900460ff1660ff1660ff1681526020016000820160069054906101000a900460ff1660ff1660ff1681526020016000820160079054906101000a900460ff1660ff1660ff16815250509050808385815181106109cd576109cc613395565b5b6020026020010181905250505b82806109e5906133f3565b93505080806109f3906133f3565b915050610898565b5080935050505090565b610a20838383604051806020016040528060008152506112a6565b505050565b666a94d74f4300003414610a6e576040517f08c379a0000000000000000000000000000000000000000000000000000000008152600401610a65906134ae565b60405180910390fd5b610a76611a43565b610a7e610d55565b73ffffffffffffffffffffffffffffffffffffffff166108fc666a94d74f4300009081150290604051600060405180830381858888f19350505050158015610aca573d6000803e3d6000fd5b50565b610ad5611648565b73ffffffffffffffffffffffffffffffffffffffff16610af3610d55565b73ffffffffffffffffffffffffffffffffffffffff1614610b49576040517f08c379a0000000000000000000000000000000000000000000000000000000008152600401610b409061351a565b60405180910390fd5b8060099080519060200190610b5f92919061273b565b5050565b6000806003600084815260200190815260200160002060009054906101000a900473ffffffffffffffffffffffffffffffffffffffff169050600073ffffffffffffffffffffffffffffffffffffffff168173ffffffffffffffffffffffffffffffffffffffff161415610c0c576040517f08c379a0000000000000000000000000000000000000000000000000000000008152600401610c03906135ac565b60405180910390fd5b80915050919050565b60008073ffffffffffffffffffffffffffffffffffffffff168273ffffffffffffffffffffffffffffffffffffffff161415610c86576040517f08c379a0000000000000000000000000000000000000000000000000000000008152600401610c7d9061363e565b60405180910390fd5b600460008373ffffffffffffffffffffffffffffffffffffffff1673ffffffffffffffffffffffffffffffffffffffff168152602001908152602001600020549050919050565b610cd5611648565b73ffffffffffffffffffffffffffffffffffffffff16610cf3610d55565b73ffffffffffffffffffffffffffffffffffffffff1614610d49576040517f08c379a0000000000000000000000000000000000000000000000000000000008152600401610d409061351a565b60405180910390fd5b610d536000611fa5565b565b60008060009054906101000a900473ffffffffffffffffffffffffffffffffffffffff16905090565b6060610d89826115dc565b610dc8576040517f08c379a0000000000000000000000000000000000000000000000000000000008152600401610dbf906136aa565b60405180910390fd5b600060086000848152602001908152602001600020604051806101000160405290816000820160009054906101000a900460ff1660ff1660ff1681526020016000820160019054906101000a900460ff1660ff1660ff1681526020016000820160029054906101000a900460ff1660ff1660ff1681526020016000820160039054906101000a900460ff1660ff1660ff1681526020016000820160049054906101000a900460ff1660ff1660ff1681526020016000820160059054906101000a900460ff1660ff1660ff1681526020016000820160069054906101000a900460ff1660ff1660ff1681526020016000820160079054906101000a900460ff1660ff1660ff168152505090506000600867ffffffffffffffff811115610ef057610eef612c80565b5b604051908082528060200260200182016040528015610f1e5781602001602082028036833780820191505090505b509050816000015181600081518110610f3a57610f39613395565b5b602002602001019060ff16908160ff1681525050816020015181600181518110610f6757610f66613395565b5b602002602001019060ff16908160ff1681525050816040015181600281518110610f9457610f93613395565b5b602002602001019060ff16908160ff1681525050816060015181600381518110610fc157610fc0613395565b5b602002602001019060ff16908160ff1681525050816080015181600481518110610fee57610fed613395565b5b602002602001019060ff16908160ff16815250508160a001518160058151811061101b5761101a613395565b5b602002602001019060ff16908160ff16815250508160c001518160068151811061104857611047613395565b5b602002602001019060ff16908160ff16815250508160e001518160078151811061107557611074613395565b5b602002602001019060ff16908160ff16815250508092505050919050565b6060600280546110a29061311b565b80601f01602080910402602001604051908101604052809291908181526020018280546110ce9061311b565b801561111b5780601f106110f05761010080835404028352916020019161111b565b820191906000526020600020905b8154815290600101906020018083116110fe57829003601f168201915b5050505050905090565b61112d611648565b73ffffffffffffffffffffffffffffffffffffffff168273ffffffffffffffffffffffffffffffffffffffff16141561119b576040517f08c379a000000000000000000000000000000000000000000000000000000000815260040161119290613716565b60405180910390fd5b80600660006111a8611648565b73ffffffffffffffffffffffffffffffffffffffff1673ffffffffffffffffffffffffffffffffffffffff16815260200190815260200160002060008473ffffffffffffffffffffffffffffffffffffffff1673ffffffffffffffffffffffffffffffffffffffff16815260200190815260200160002060006101000a81548160ff0219169083151502179055508173ffffffffffffffffffffffffffffffffffffffff16611255611648565b73ffffffffffffffffffffffffffffffffffffffff167f17307eab39ab6107e8899845ad3d59bd9653f200f220920489ca2b5937696c318360405161129a9190612892565b60405180910390a35050565b6112b76112b1611648565b83611709565b6112f6576040517f08c379a00000000000000000000000000000000000000000000000000000000081526004016112ed90613375565b60405180910390fd5b61130284848484612069565b50505050565b6060611313826115dc565b611352576040517f08c379a0000000000000000000000000000000000000000000000000000000008152600401611349906137a8565b60405180910390fd5b600061135c6120c5565b9050600081511161137c57604051806020016040528060008152506113a7565b8061138684612157565b604051602001611397929190613804565b6040516020818303038152906040525b915050919050565b6000600660008473ffffffffffffffffffffffffffffffffffffffff1673ffffffffffffffffffffffffffffffffffffffff16815260200190815260200160002060008373ffffffffffffffffffffffffffffffffffffffff1673ffffffffffffffffffffffffffffffffffffffff16815260200190815260200160002060009054906101000a900460ff16905092915050565b61144b611648565b73ffffffffffffffffffffffffffffffffffffffff16611469610d55565b73ffffffffffffffffffffffffffffffffffffffff16146114bf576040517f08c379a00000000000000000000000000000000000000000000000000000000081526004016114b69061351a565b60405180910390fd5b600073ffffffffffffffffffffffffffffffffffffffff168173ffffffffffffffffffffffffffffffffffffffff16141561152f576040517f08c379a00000000000000000000000000000000000000000000000000000000081526004016115269061389a565b60405180910390fd5b61153881611fa5565b50565b600081600001549050919050565b6001816000016000828254019250508190555050565b600080823b905060008111915050919050565b60007f01ffc9a7000000000000000000000000000000000000000000000000000000007bffffffffffffffffffffffffffffffffffffffffffffffffffffffff1916827bffffffffffffffffffffffffffffffffffffffffffffffffffffffff1916149050919050565b60008073ffffffffffffffffffffffffffffffffffffffff166003600084815260200190815260200160002060009054906101000a900473ffffffffffffffffffffffffffffffffffffffff1673ffffffffffffffffffffffffffffffffffffffff1614159050919050565b600033905090565b816005600083815260200190815260200160002060006101000a81548173ffffffffffffffffffffffffffffffffffffffff021916908373ffffffffffffffffffffffffffffffffffffffff160217905550808273ffffffffffffffffffffffffffffffffffffffff166116c383610b63565b73ffffffffffffffffffffffffffffffffffffffff167f8c5be1e5ebec7d5bd14f71427d1e84f3dd0314c0f7b2291e5b200ac8c7c3b92560405160405180910390a45050565b6000611714826115dc565b611753576040517f08c379a000000000000000000000000000000000000000000000000000000000815260040161174a9061392c565b60405180910390fd5b600061175e83610b63565b90508073ffffffffffffffffffffffffffffffffffffffff168473ffffffffffffffffffffffffffffffffffffffff1614806117cd57508373ffffffffffffffffffffffffffffffffffffffff166117b58461062f565b73ffffffffffffffffffffffffffffffffffffffff16145b806117de57506117dd81856113af565b5b91505092915050565b8273ffffffffffffffffffffffffffffffffffffffff1661180782610b63565b73ffffffffffffffffffffffffffffffffffffffff161461185d576040517f08c379a0000000000000000000000000000000000000000000000000000000008152600401611854906139be565b60405180910390fd5b600073ffffffffffffffffffffffffffffffffffffffff168273ffffffffffffffffffffffffffffffffffffffff1614156118cd576040517f08c379a00000000000000000000000000000000000000000000000000000000081526004016118c490613a50565b60405180910390fd5b6118d88383836122b8565b6118e3600082611650565b6001600460008573ffffffffffffffffffffffffffffffffffffffff1673ffffffffffffffffffffffffffffffffffffffff16815260200190815260200160002060008282546119339190613a70565b925050819055506001600460008473ffffffffffffffffffffffffffffffffffffffff1673ffffffffffffffffffffffffffffffffffffffff168152602001908152602001600020600082825461198a9190613aa4565b92505081905550816003600083815260200190815260200160002060006101000a81548173ffffffffffffffffffffffffffffffffffffffff021916908373ffffffffffffffffffffffffffffffffffffffff160217905550808273ffffffffffffffffffffffffffffffffffffffff168473ffffffffffffffffffffffffffffffffffffffff167fddf252ad1be2c89b69c2b068fc378daa952ba7f163c4a11628f55a4df523b3ef60405160405180910390a4505050565b6000611a4f600761153b565b9050600080829050600080806000806000806000600a89611a709190613b29565b9650600a8760ff168a611a839190613a70565b611a8d9190613b5a565b9850600a89611a9c9190613b29565b9550600a8660ff168a611aaf9190613a70565b611ab99190613b5a565b9850600a89611ac89190613b29565b9450600a8560ff168a611adb9190613a70565b611ae59190613b5a565b9850600a89611af49190613b29565b9350600a8460ff168a611b079190613a70565b611b119190613b5a565b985060008760ff161115611b2e578780611b2a90613b8b565b9850505b60008660ff161115611b49578780611b4590613b8b565b9850505b60008560ff161115611b64578780611b6090613b8b565b9850505b60008460ff161115611b7f578780611b7b90613b8b565b9850505b620f4240611b918888888860006122bd565b611b9b9190613b29565b9950614e208a1015611bb05760099250611c5c565b61c3508a1015611bc35760089250611c5b565b620186a08a1015611bd75760079250611c5a565b620298108a1015611beb5760069250611c59565b6203f7a08a1015611bff5760059250611c58565b6205a5508a1015611c135760049250611c57565b6207a1208a1015611c275760039250611c56565b6209eb108a1015611c3b5760029250611c55565b620c83208a1015611c4f5760019250611c54565b600092505b5b5b5b5b5b5b5b5b620f4240611c6d888888888f6122bd565b611c779190613b29565b9950614e208a1015611c8c5760099150611d38565b61c3508a1015611c9f5760089150611d37565b620186a08a1015611cb35760079150611d36565b620298108a1015611cc75760069150611d35565b6203f7a08a1015611cdb5760059150611d34565b6205a5508a1015611cef5760049150611d33565b6207a1208a1015611d035760039150611d32565b6209eb108a1015611d175760029150611d31565b620c83208a1015611d2b5760019150611d30565b600091505b5b5b5b5b5b5b5b5b620f4240611d49888888888f6122bd565b611d539190613b29565b9950614e208a1015611d685760099050611e14565b61c3508a1015611d7b5760089050611e13565b620186a08a1015611d8f5760079050611e12565b620298108a1015611da35760069050611e11565b6203f7a08a1015611db75760059050611e10565b6205a5508a1015611dcb5760049050611e0f565b6207a1208a1015611ddf5760039050611e0e565b6209eb108a1015611df35760029050611e0d565b620c83208a1015611e075760019050611e0c565b600090505b5b5b5b5b5b5b5b5b6040518061010001604052808960ff1681526020018860ff1681526020018760ff1681526020018660ff1681526020018560ff1681526020018460ff1681526020018360ff1681526020018260ff16815250600860008d815260200190815260200160002060008201518160000160006101000a81548160ff021916908360ff16021790555060208201518160000160016101000a81548160ff021916908360ff16021790555060408201518160000160026101000a81548160ff021916908360ff16021790555060608201518160000160036101000a81548160ff021916908360ff16021790555060808201518160000160046101000a81548160ff021916908360ff16021790555060a08201518160000160056101000a81548160ff021916908360ff16021790555060c08201518160000160066101000a81548160ff021916908360ff16021790555060e08201518160000160076101000a81548160ff021916908360ff160217905550905050611f8e338c612300565b611f986007611549565b5050505050505050505050565b60008060009054906101000a900473ffffffffffffffffffffffffffffffffffffffff169050816000806101000a81548173ffffffffffffffffffffffffffffffffffffffff021916908373ffffffffffffffffffffffffffffffffffffffff1602179055508173ffffffffffffffffffffffffffffffffffffffff168173ffffffffffffffffffffffffffffffffffffffff167f8be0079c531659141344cd1fd0a4f28419497f9722a3daafe3b4186f6b6457e060405160405180910390a35050565b6120748484846117e7565b6120808484848461231e565b6120bf576040517f08c379a00000000000000000000000000000000000000000000000000000000081526004016120b690613c27565b60405180910390fd5b50505050565b6060600980546120d49061311b565b80601f01602080910402602001604051908101604052809291908181526020018280546121009061311b565b801561214d5780601f106121225761010080835404028352916020019161214d565b820191906000526020600020905b81548152906001019060200180831161213057829003601f168201915b5050505050905090565b6060600082141561219f576040518060400160405280600181526020017f300000000000000000000000000000000000000000000000000000000000000081525090506122b3565b600082905060005b600082146121d15780806121ba906133f3565b915050600a826121ca9190613b5a565b91506121a7565b60008167ffffffffffffffff8111156121ed576121ec612c80565b5b6040519080825280601f01601f19166020018201604052801561221f5781602001600182028036833780820191505090505b5090505b600085146122ac576001826122389190613a70565b9150600a856122479190613b29565b60306122539190613aa4565b60f81b81838151811061226957612268613395565b5b60200101907effffffffffffffffffffffffffffffffffffffffffffffffffffffffffffff1916908160001a905350600a856122a59190613b5a565b9450612223565b8093505050505b919050565b505050565b6000424487878787876040516020016122dc9796959493929190613c56565b6040516020818303038152906040528051906020012060001c905095945050505050565b61231a8282604051806020016040528060008152506124b5565b5050565b600061233f8473ffffffffffffffffffffffffffffffffffffffff1661155f565b156124a8578373ffffffffffffffffffffffffffffffffffffffff1663150b7a02612368611648565b8786866040518563ffffffff1660e01b815260040161238a9493929190613d1a565b602060405180830381600087803b1580156123a457600080fd5b505af19250505080156123d557506040513d601f19601f820116820180604052508101906123d29190613d7b565b60015b612458573d8060008114612405576040519150601f19603f3d011682016040523d82523d6000602084013e61240a565b606091505b50600081511415612450576040517f08c379a000000000000000000000000000000000000000000000000000000000815260040161244790613c27565b60405180910390fd5b805181602001fd5b63150b7a0260e01b7bffffffffffffffffffffffffffffffffffffffffffffffffffffffff1916817bffffffffffffffffffffffffffffffffffffffffffffffffffffffff1916149150506124ad565b600190505b949350505050565b6124bf8383612510565b6124cc600084848461231e565b61250b576040517f08c379a000000000000000000000000000000000000000000000000000000000815260040161250290613c27565b60405180910390fd5b505050565b600073ffffffffffffffffffffffffffffffffffffffff168273ffffffffffffffffffffffffffffffffffffffff161415612580576040517f08c379a000000000000000000000000000000000000000000000000000000000815260040161257790613df4565b60405180910390fd5b612589816115dc565b156125c9576040517f08c379a00000000000000000000000000000000000000000000000000000000081526004016125c090613e60565b60405180910390fd5b6125d5600083836122b8565b6001600460008473ffffffffffffffffffffffffffffffffffffffff1673ffffffffffffffffffffffffffffffffffffffff16815260200190815260200160002060008282546126259190613aa4565b92505081905550816003600083815260200190815260200160002060006101000a81548173ffffffffffffffffffffffffffffffffffffffff021916908373ffffffffffffffffffffffffffffffffffffffff160217905550808273ffffffffffffffffffffffffffffffffffffffff16600073ffffffffffffffffffffffffffffffffffffffff167fddf252ad1be2c89b69c2b068fc378daa952ba7f163c4a11628f55a4df523b3ef60405160405180910390a45050565b604051806101000160405280600060ff168152602001600060ff168152602001600060ff168152602001600060ff168152602001600060ff168152602001600060ff168152602001600060ff168152602001600060ff1681525090565b8280546127479061311b565b90600052602060002090601f01602090048101928261276957600085556127b0565b82601f1061278257805160ff19168380011785556127b0565b828001600101855582156127b0579182015b828111156127af578251825591602001919060010190612794565b5b5090506127bd91906127c1565b5090565b5b808211156127da5760008160009055506001016127c2565b5090565b6000604051905090565b600080fd5b600080fd5b60007fffffffff0000000000000000000000000000000000000000000000000000000082169050919050565b612827816127f2565b811461283257600080fd5b50565b6000813590506128448161281e565b92915050565b6000602082840312156128605761285f6127e8565b5b600061286e84828501612835565b91505092915050565b60008115159050919050565b61288c81612877565b82525050565b60006020820190506128a76000830184612883565b92915050565b600081519050919050565b600082825260208201905092915050565b60005b838110156128e75780820151818401526020810190506128cc565b838111156128f6576000848401525b50505050565b6000601f19601f8301169050919050565b6000612918826128ad565b61292281856128b8565b93506129328185602086016128c9565b61293b816128fc565b840191505092915050565b60006020820190508181036000830152612960818461290d565b905092915050565b6000819050919050565b61297b81612968565b811461298657600080fd5b50565b60008135905061299881612972565b92915050565b6000602082840312156129b4576129b36127e8565b5b60006129c284828501612989565b91505092915050565b600073ffffffffffffffffffffffffffffffffffffffff82169050919050565b60006129f6826129cb565b9050919050565b612a06816129eb565b82525050565b6000602082019050612a2160008301846129fd565b92915050565b612a30816129eb565b8114612a3b57600080fd5b50565b600081359050612a4d81612a27565b92915050565b60008060408385031215612a6a57612a696127e8565b5b6000612a7885828601612a3e565b9250506020612a8985828601612989565b9150509250929050565b600080600060608486031215612aac57612aab6127e8565b5b6000612aba86828701612a3e565b9350506020612acb86828701612a3e565b9250506040612adc86828701612989565b9150509250925092565b600081519050919050565b600082825260208201905092915050565b6000819050602082019050919050565b600060ff82169050919050565b612b2881612b12565b82525050565b61010082016000820151612b456000850182612b1f565b506020820151612b586020850182612b1f565b506040820151612b6b6040850182612b1f565b506060820151612b7e6060850182612b1f565b506080820151612b916080850182612b1f565b5060a0820151612ba460a0850182612b1f565b5060c0820151612bb760c0850182612b1f565b5060e0820151612bca60e0850182612b1f565b50505050565b6000612bdc8383612b2e565b6101008301905092915050565b6000602082019050919050565b6000612c0182612ae6565b612c0b8185612af1565b9350612c1683612b02565b8060005b83811015612c47578151612c2e8882612bd0565b9750612c3983612be9565b925050600181019050612c1a565b5085935050505092915050565b60006020820190508181036000830152612c6e8184612bf6565b905092915050565b600080fd5b600080fd5b7f4e487b7100000000000000000000000000000000000000000000000000000000600052604160045260246000fd5b612cb8826128fc565b810181811067ffffffffffffffff82111715612cd757612cd6612c80565b5b80604052505050565b6000612cea6127de565b9050612cf68282612caf565b919050565b600067ffffffffffffffff821115612d1657612d15612c80565b5b612d1f826128fc565b9050602081019050919050565b82818337600083830152505050565b6000612d4e612d4984612cfb565b612ce0565b905082815260208101848484011115612d6a57612d69612c7b565b5b612d75848285612d2c565b509392505050565b600082601f830112612d9257612d91612c76565b5b8135612da2848260208601612d3b565b91505092915050565b600060208284031215612dc157612dc06127e8565b5b600082013567ffffffffffffffff811115612ddf57612dde6127ed565b5b612deb84828501612d7d565b91505092915050565b600060208284031215612e0a57612e096127e8565b5b6000612e1884828501612a3e565b91505092915050565b612e2a81612968565b82525050565b6000602082019050612e456000830184612e21565b92915050565b600081519050919050565b600082825260208201905092915050565b6000819050602082019050919050565b6000612e838383612b1f565b60208301905092915050565b6000602082019050919050565b6000612ea782612e4b565b612eb18185612e56565b9350612ebc83612e67565b8060005b83811015612eed578151612ed48882612e77565b9750612edf83612e8f565b925050600181019050612ec0565b5085935050505092915050565b60006020820190508181036000830152612f148184612e9c565b905092915050565b612f2581612877565b8114612f3057600080fd5b50565b600081359050612f4281612f1c565b92915050565b60008060408385031215612f5f57612f5e6127e8565b5b6000612f6d85828601612a3e565b9250506020612f7e85828601612f33565b9150509250929050565b600067ffffffffffffffff821115612fa357612fa2612c80565b5b612fac826128fc565b9050602081019050919050565b6000612fcc612fc784612f88565b612ce0565b905082815260208101848484011115612fe857612fe7612c7b565b5b612ff3848285612d2c565b509392505050565b600082601f8301126130105761300f612c76565b5b8135613020848260208601612fb9565b91505092915050565b60008060008060808587031215613043576130426127e8565b5b600061305187828801612a3e565b945050602061306287828801612a3e565b935050604061307387828801612989565b925050606085013567ffffffffffffffff811115613094576130936127ed565b5b6130a087828801612ffb565b91505092959194509250565b600080604083850312156130c3576130c26127e8565b5b60006130d185828601612a3e565b92505060206130e285828601612a3e565b9150509250929050565b7f4e487b7100000000000000000000000000000000000000000000000000000000600052602260045260246000fd5b6000600282049050600182168061313357607f821691505b60208210811415613147576131466130ec565b5b50919050565b7f4552433732313a20617070726f76656420717565727920666f72206e6f6e657860008201527f697374656e7420746f6b656e0000000000000000000000000000000000000000602082015250565b60006131a9602c836128b8565b91506131b48261314d565b604082019050919050565b600060208201905081810360008301526131d88161319c565b9050919050565b7f4552433732313a20617070726f76616c20746f2063757272656e74206f776e6560008201527f7200000000000000000000000000000000000000000000000000000000000000602082015250565b600061323b6021836128b8565b9150613246826131df565b604082019050919050565b6000602082019050818103600083015261326a8161322e565b9050919050565b7f4552433732313a20617070726f76652063616c6c6572206973206e6f74206f7760008201527f6e6572206e6f7220617070726f76656420666f7220616c6c0000000000000000602082015250565b60006132cd6038836128b8565b91506132d882613271565b604082019050919050565b600060208201905081810360008301526132fc816132c0565b9050919050565b7f4552433732313a207472616e736665722063616c6c6572206973206e6f74206f60008201527f776e6572206e6f7220617070726f766564000000000000000000000000000000602082015250565b600061335f6031836128b8565b915061336a82613303565b604082019050919050565b6000602082019050818103600083015261338e81613352565b9050919050565b7f4e487b7100000000000000000000000000000000000000000000000000000000600052603260045260246000fd5b7f4e487b7100000000000000000000000000000000000000000000000000000000600052601160045260246000fd5b60006133fe82612968565b91507fffffffffffffffffffffffffffffffffffffffffffffffffffffffffffffffff821415613431576134306133c4565b5b600182019050919050565b7f636c61696d696e672061206c617661206c616d7020636f73747320333020666960008201527f6e6e657900000000000000000000000000000000000000000000000000000000602082015250565b60006134986024836128b8565b91506134a38261343c565b604082019050919050565b600060208201905081810360008301526134c78161348b565b9050919050565b7f4f776e61626c653a2063616c6c6572206973206e6f7420746865206f776e6572600082015250565b60006135046020836128b8565b915061350f826134ce565b602082019050919050565b60006020820190508181036000830152613533816134f7565b9050919050565b7f4552433732313a206f776e657220717565727920666f72206e6f6e657869737460008201527f656e7420746f6b656e0000000000000000000000000000000000000000000000602082015250565b60006135966029836128b8565b91506135a18261353a565b604082019050919050565b600060208201905081810360008301526135c581613589565b9050919050565b7f4552433732313a2062616c616e636520717565727920666f7220746865207a6560008201527f726f206164647265737300000000000000000000000000000000000000000000602082015250565b6000613628602a836128b8565b9150613633826135cc565b604082019050919050565b600060208201905081810360008301526136578161361b565b9050919050565b7f746f6b656e206e6f74206d696e74656400000000000000000000000000000000600082015250565b60006136946010836128b8565b915061369f8261365e565b602082019050919050565b600060208201905081810360008301526136c381613687565b9050919050565b7f4552433732313a20617070726f766520746f2063616c6c657200000000000000600082015250565b60006137006019836128b8565b915061370b826136ca565b602082019050919050565b6000602082019050818103600083015261372f816136f3565b9050919050565b7f4552433732314d657461646174613a2055524920717565727920666f72206e6f60008201527f6e6578697374656e7420746f6b656e0000000000000000000000000000000000602082015250565b6000613792602f836128b8565b915061379d82613736565b604082019050919050565b600060208201905081810360008301526137c181613785565b9050919050565b600081905092915050565b60006137de826128ad565b6137e881856137c8565b93506137f88185602086016128c9565b80840191505092915050565b600061381082856137d3565b915061381c82846137d3565b91508190509392505050565b7f4f776e61626c653a206e6577206f776e657220697320746865207a65726f206160008201527f6464726573730000000000000000000000000000000000000000000000000000602082015250565b60006138846026836128b8565b915061388f82613828565b604082019050919050565b600060208201905081810360008301526138b381613877565b9050919050565b7f4552433732313a206f70657261746f7220717565727920666f72206e6f6e657860008201527f697374656e7420746f6b656e0000000000000000000000000000000000000000602082015250565b6000613916602c836128b8565b9150613921826138ba565b604082019050919050565b6000602082019050818103600083015261394581613909565b9050919050565b7f4552433732313a207472616e73666572206f6620746f6b656e2074686174206960008201527f73206e6f74206f776e0000000000000000000000000000000000000000000000602082015250565b60006139a86029836128b8565b91506139b38261394c565b604082019050919050565b600060208201905081810360008301526139d78161399b565b9050919050565b7f4552433732313a207472616e7366657220746f20746865207a65726f2061646460008201527f7265737300000000000000000000000000000000000000000000000000000000602082015250565b6000613a3a6024836128b8565b9150613a45826139de565b604082019050919050565b60006020820190508181036000830152613a6981613a2d565b9050919050565b6000613a7b82612968565b9150613a8683612968565b925082821015613a9957613a986133c4565b5b828203905092915050565b6000613aaf82612968565b9150613aba83612968565b9250827fffffffffffffffffffffffffffffffffffffffffffffffffffffffffffffffff03821115613aef57613aee6133c4565b5b828201905092915050565b7f4e487b7100000000000000000000000000000000000000000000000000000000600052601260045260246000fd5b6000613b3482612968565b9150613b3f83612968565b925082613b4f57613b4e613afa565b5b828206905092915050565b6000613b6582612968565b9150613b7083612968565b925082613b8057613b7f613afa565b5b828204905092915050565b6000613b9682612b12565b915060ff821415613baa57613ba96133c4565b5b600182019050919050565b7f4552433732313a207472616e7366657220746f206e6f6e20455243373231526560008201527f63656976657220696d706c656d656e7465720000000000000000000000000000602082015250565b6000613c116032836128b8565b9150613c1c82613bb5565b604082019050919050565b60006020820190508181036000830152613c4081613c04565b9050919050565b613c5081612b12565b82525050565b600060e082019050613c6b600083018a612e21565b613c786020830189612e21565b613c856040830188613c47565b613c926060830187613c47565b613c9f6080830186613c47565b613cac60a0830185613c47565b613cb960c0830184612e21565b98975050505050505050565b600081519050919050565b600082825260208201905092915050565b6000613cec82613cc5565b613cf68185613cd0565b9350613d068185602086016128c9565b613d0f816128fc565b840191505092915050565b6000608082019050613d2f60008301876129fd565b613d3c60208301866129fd565b613d496040830185612e21565b8181036060830152613d5b8184613ce1565b905095945050505050565b600081519050613d758161281e565b92915050565b600060208284031215613d9157613d906127e8565b5b6000613d9f84828501613d66565b91505092915050565b7f4552433732313a206d696e7420746f20746865207a65726f2061646472657373600082015250565b6000613dde6020836128b8565b9150613de982613da8565b602082019050919050565b60006020820190508181036000830152613e0d81613dd1565b9050919050565b7f4552433732313a20746f6b656e20616c7265616479206d696e74656400000000600082015250565b6000613e4a601c836128b8565b9150613e5582613e14565b602082019050919050565b60006020820190508181036000830152613e7981613e3d565b905091905056fea2646970667358221220a02fc77611bbadcb3c96ab5545b13ea071b81272604758d217659bc386440b3064736f6c63430008090033",
  "immutableReferences": {},
  "source": "// SPDX-License-Identifier: MIT\npragma solidity >=0.4.22 <0.9.0;\n\nimport \"@openzeppelin/contracts/access/Ownable.sol\";\nimport \"@openzeppelin/contracts/utils/Counters.sol\";\nimport \"@openzeppelin/contracts/token/ERC721/ERC721.sol\";\n\ncontract LavaLamp is Ownable, ERC721 {\n\n  using Counters for Counters.Counter;\n  Counters.Counter private _tokenIds;\n\n  struct Metadata {\n    uint8 lava_count;\n\n    // 0 - 9 (None, Red, Green, Yellow, Blue, Purple, Light Blue, Orange, White, Pink)\n    uint8 color_1;\n    uint8 color_2;\n    uint8 color_3;\n    uint8 color_4;\n\n    uint8 base; // 5 - (alien, rocket, more)\n    uint8 background; // 9 - (space, more)\n    uint8 sticker; // 5 - (star, lightning bolt, heart, diamond, planet)\n  }\n\n  mapping(uint256 => Metadata) id_to_lavalamp;\n\n  string private _currentBaseURI;\n\n  constructor() ERC721(\"LavaLamp\", \"LAVALAMP\") {\n    setBaseURI(\"http://localhost:3000/token/\");\n    mint();\n    mint();\n    mint();\n    mint();\n    mint();\n    mint();\n    mint();\n    mint();\n    mint();\n    mint();\n    mint();\n    mint();\n  }\n\n  function setBaseURI(string memory baseURI) public onlyOwner {\n    _currentBaseURI = baseURI;\n  }\n\n  function _baseURI() internal view virtual override returns (string memory) {\n    return _currentBaseURI;\n  }\n\n  function mint () internal {\n    uint256 tokenId = _tokenIds.current();\n    uint256 r;\n    uint256 lava_index = tokenId;\n    uint8 lava_count = 0;\n    uint8 color_1;\n    uint8 color_2;\n    uint8 color_3;\n    uint8 color_4;\n    uint8 base;\n    uint8 background;\n    uint8 sticker;\n\n    color_1 = uint8(lava_index % 10);\n    lava_index = (lava_index - color_1) / 10;\n    color_2 = uint8(lava_index % 10);\n    lava_index = (lava_index - color_2) / 10;\n    color_3 = uint8(lava_index % 10);\n    lava_index = (lava_index - color_3) / 10;\n    color_4 = uint8(lava_index % 10);\n    lava_index = (lava_index - color_4) / 10;\n\n    if (color_1 > 0) {\n      lava_count++;\n    }\n    if (color_2 > 0) {\n      lava_count++;\n    }\n    if (color_3 > 0) {\n      lava_count++;\n    }\n    if (color_4 > 0) {\n      lava_count++;\n    }\n\n    // bases\n    r = pseudoRNG(color_1, color_2, color_3, color_4, 0) % 1000000;\n    if (r < 20000) {\n        base = 9;\n    } else if (r < 50000) {\n        base = 8;\n    } else if (r < 100000) {\n        base = 7;\n    } else if (r < 170000) {\n        base = 6;\n    } else if (r < 260000) {\n        base = 5;\n    } else if (r < 370000) {\n        base = 4;\n    } else if (r < 500000) {\n        base = 3;\n    } else if (r < 650000) {\n        base = 2;\n    } else if (r < 820000) {\n        base = 1;\n    } else {\n        base = 0;\n    }\n\n    // background\n    r = pseudoRNG(color_1, color_2, color_3, color_4, r) % 1000000;\n    if (r < 20000) {\n        background = 9;\n    } else if (r < 50000) {\n        background = 8;\n    } else if (r < 100000) {\n        background = 7;\n    } else if (r < 170000) {\n        background = 6;\n    } else if (r < 260000) {\n        background = 5;\n    } else if (r < 370000) {\n        background = 4;\n    } else if (r < 500000) {\n        background = 3;\n    } else if (r < 650000) {\n        background = 2;\n    } else if (r < 820000) {\n        background = 1;\n    } else {\n        background = 0;\n    }\n\n    // sticker\n    r = pseudoRNG(color_1, color_2, color_3, color_4, r) % 1000000;\n    if (r < 20000) {\n        sticker = 9;\n    } else if (r < 50000) {\n        sticker = 8;\n    } else if (r < 100000) {\n        sticker = 7;\n    } else if (r < 170000) {\n        sticker = 6;\n    } else if (r < 260000) {\n        sticker = 5;\n    } else if (r < 370000) {\n        sticker = 4;\n    } else if (r < 500000) {\n        sticker = 3;\n    } else if (r < 650000) {\n        sticker = 2;\n    } else if (r < 820000) {\n        sticker = 1;\n    } else {\n        sticker = 0;\n    }\n\n    id_to_lavalamp[tokenId] = Metadata(lava_count, color_1, color_2, color_3, color_4, base, background, sticker);\n\n    _safeMint(msg.sender, tokenId);\n\n    _tokenIds.increment();\n  }\n\n  function claim() external payable {\n    require(msg.value == 0.03 ether, \"claiming a lava lamp costs 30 finney\");\n\n    mint();\n\n    payable(owner()).transfer(0.03 ether);\n  }\n\n  function get(uint256 tokenId) external view returns(uint8[] memory) {\n    require(_exists(tokenId), \"token not minted\");\n    Metadata memory lavalamp = id_to_lavalamp[tokenId];\n    uint8[] memory meta = new uint8[](8);\n\n    meta[0] = lavalamp.lava_count;\n\n    meta[1] = lavalamp.color_1;\n    meta[2] = lavalamp.color_2;\n    meta[3] = lavalamp.color_3;\n    meta[4] = lavalamp.color_4;\n\n    meta[5] = lavalamp.base;\n    meta[6] = lavalamp.background;\n    meta[7] = lavalamp.sticker;\n\n    return meta;\n  }\n\n  function getAllTokens() public view returns (Metadata[] memory) {\n    uint256 lastestId = _tokenIds.current();\n    uint256 counter = 0;\n\n    Metadata[] memory meta = new Metadata[](lastestId);\n\n    for (uint256 i = 0; i < lastestId; i++) {\n      if (_exists(counter)) {\n        Metadata memory m = id_to_lavalamp[counter];\n        meta[counter] = m;\n      }\n\n      counter++;\n    }\n\n    return meta;\n  }\n\n  // psuedo_rng is the previous rng value, this is just top make sure we get something different everytime and don't use the same psuedo for the, base, sticker, and background\n  function pseudoRNG(uint8 color_1, uint8 color_2, uint8 color_3, uint8 color_4, uint256 prev_rng) internal view returns (uint256) {\n      return uint256(keccak256(abi.encode(block.timestamp, block.difficulty, color_1, color_2, color_3, color_4, prev_rng)));\n  }\n}\n",
  "sourcePath": "/Users/superdorvil/workspace/ReactWorkspace/PersonalProjects/lava-lamp-nft/contracts/LavaLamp.sol",
  "compiler": {
    "name": "solc",
    "version": "0.8.9+commit.e5eed63a.Emscripten.clang"
  },
  "schemaVersion": "3.4.3",
  "updatedAt": "2021-10-24T11:28:53.050Z",
  "networkType": "ethereum",
  "devdoc": {
    "kind": "dev",
    "methods": {
      "approve(address,uint256)": {
        "details": "See {IERC721-approve}."
      },
      "balanceOf(address)": {
        "details": "See {IERC721-balanceOf}."
      },
      "getApproved(uint256)": {
        "details": "See {IERC721-getApproved}."
      },
      "isApprovedForAll(address,address)": {
        "details": "See {IERC721-isApprovedForAll}."
      },
      "name()": {
        "details": "See {IERC721Metadata-name}."
      },
      "owner()": {
        "details": "Returns the address of the current owner."
      },
      "ownerOf(uint256)": {
        "details": "See {IERC721-ownerOf}."
      },
      "renounceOwnership()": {
        "details": "Leaves the contract without owner. It will not be possible to call `onlyOwner` functions anymore. Can only be called by the current owner. NOTE: Renouncing ownership will leave the contract without an owner, thereby removing any functionality that is only available to the owner."
      },
      "safeTransferFrom(address,address,uint256)": {
        "details": "See {IERC721-safeTransferFrom}."
      },
      "safeTransferFrom(address,address,uint256,bytes)": {
        "details": "See {IERC721-safeTransferFrom}."
      },
      "setApprovalForAll(address,bool)": {
        "details": "See {IERC721-setApprovalForAll}."
      },
      "supportsInterface(bytes4)": {
        "details": "See {IERC165-supportsInterface}."
      },
      "symbol()": {
        "details": "See {IERC721Metadata-symbol}."
      },
      "tokenURI(uint256)": {
        "details": "See {IERC721Metadata-tokenURI}."
      },
      "transferFrom(address,address,uint256)": {
        "details": "See {IERC721-transferFrom}."
      },
      "transferOwnership(address)": {
        "details": "Transfers ownership of the contract to a new account (`newOwner`). Can only be called by the current owner."
      }
    },
    "version": 1
  },
  "userdoc": {
    "kind": "user",
    "methods": {},
    "version": 1
  }
}