{
  "contractName": "LavaLamp",
  "abi": [
    {
      "inputs": [],
      "stateMutability": "nonpayable",
      "type": "constructor"
    },
    {
      "anonymous": false,
      "inputs": [
        {
          "indexed": true,
          "internalType": "address",
          "name": "owner",
          "type": "address"
        },
        {
          "indexed": true,
          "internalType": "address",
          "name": "approved",
          "type": "address"
        },
        {
          "indexed": true,
          "internalType": "uint256",
          "name": "tokenId",
          "type": "uint256"
        }
      ],
      "name": "Approval",
      "type": "event"
    },
    {
      "anonymous": false,
      "inputs": [
        {
          "indexed": true,
          "internalType": "address",
          "name": "owner",
          "type": "address"
        },
        {
          "indexed": true,
          "internalType": "address",
          "name": "operator",
          "type": "address"
        },
        {
          "indexed": false,
          "internalType": "bool",
          "name": "approved",
          "type": "bool"
        }
      ],
      "name": "ApprovalForAll",
      "type": "event"
    },
    {
      "anonymous": false,
      "inputs": [
        {
          "indexed": true,
          "internalType": "address",
          "name": "previousOwner",
          "type": "address"
        },
        {
          "indexed": true,
          "internalType": "address",
          "name": "newOwner",
          "type": "address"
        }
      ],
      "name": "OwnershipTransferred",
      "type": "event"
    },
    {
      "anonymous": false,
      "inputs": [
        {
          "indexed": true,
          "internalType": "address",
          "name": "from",
          "type": "address"
        },
        {
          "indexed": true,
          "internalType": "address",
          "name": "to",
          "type": "address"
        },
        {
          "indexed": true,
          "internalType": "uint256",
          "name": "tokenId",
          "type": "uint256"
        }
      ],
      "name": "Transfer",
      "type": "event"
    },
    {
      "inputs": [
        {
          "internalType": "address",
          "name": "to",
          "type": "address"
        },
        {
          "internalType": "uint256",
          "name": "tokenId",
          "type": "uint256"
        }
      ],
      "name": "approve",
      "outputs": [],
      "stateMutability": "nonpayable",
      "type": "function"
    },
    {
      "inputs": [
        {
          "internalType": "address",
          "name": "owner",
          "type": "address"
        }
      ],
      "name": "balanceOf",
      "outputs": [
        {
          "internalType": "uint256",
          "name": "",
          "type": "uint256"
        }
      ],
      "stateMutability": "view",
      "type": "function",
      "constant": true
    },
    {
      "inputs": [
        {
          "internalType": "uint256",
          "name": "tokenId",
          "type": "uint256"
        }
      ],
      "name": "getApproved",
      "outputs": [
        {
          "internalType": "address",
          "name": "",
          "type": "address"
        }
      ],
      "stateMutability": "view",
      "type": "function",
      "constant": true
    },
    {
      "inputs": [
        {
          "internalType": "address",
          "name": "owner",
          "type": "address"
        },
        {
          "internalType": "address",
          "name": "operator",
          "type": "address"
        }
      ],
      "name": "isApprovedForAll",
      "outputs": [
        {
          "internalType": "bool",
          "name": "",
          "type": "bool"
        }
      ],
      "stateMutability": "view",
      "type": "function",
      "constant": true
    },
    {
      "inputs": [],
      "name": "name",
      "outputs": [
        {
          "internalType": "string",
          "name": "",
          "type": "string"
        }
      ],
      "stateMutability": "view",
      "type": "function",
      "constant": true
    },
    {
      "inputs": [],
      "name": "owner",
      "outputs": [
        {
          "internalType": "address",
          "name": "",
          "type": "address"
        }
      ],
      "stateMutability": "view",
      "type": "function",
      "constant": true
    },
    {
      "inputs": [
        {
          "internalType": "uint256",
          "name": "tokenId",
          "type": "uint256"
        }
      ],
      "name": "ownerOf",
      "outputs": [
        {
          "internalType": "address",
          "name": "",
          "type": "address"
        }
      ],
      "stateMutability": "view",
      "type": "function",
      "constant": true
    },
    {
      "inputs": [],
      "name": "renounceOwnership",
      "outputs": [],
      "stateMutability": "nonpayable",
      "type": "function"
    },
    {
      "inputs": [
        {
          "internalType": "address",
          "name": "from",
          "type": "address"
        },
        {
          "internalType": "address",
          "name": "to",
          "type": "address"
        },
        {
          "internalType": "uint256",
          "name": "tokenId",
          "type": "uint256"
        }
      ],
      "name": "safeTransferFrom",
      "outputs": [],
      "stateMutability": "nonpayable",
      "type": "function"
    },
    {
      "inputs": [
        {
          "internalType": "address",
          "name": "from",
          "type": "address"
        },
        {
          "internalType": "address",
          "name": "to",
          "type": "address"
        },
        {
          "internalType": "uint256",
          "name": "tokenId",
          "type": "uint256"
        },
        {
          "internalType": "bytes",
          "name": "_data",
          "type": "bytes"
        }
      ],
      "name": "safeTransferFrom",
      "outputs": [],
      "stateMutability": "nonpayable",
      "type": "function"
    },
    {
      "inputs": [
        {
          "internalType": "address",
          "name": "operator",
          "type": "address"
        },
        {
          "internalType": "bool",
          "name": "approved",
          "type": "bool"
        }
      ],
      "name": "setApprovalForAll",
      "outputs": [],
      "stateMutability": "nonpayable",
      "type": "function"
    },
    {
      "inputs": [
        {
          "internalType": "bytes4",
          "name": "interfaceId",
          "type": "bytes4"
        }
      ],
      "name": "supportsInterface",
      "outputs": [
        {
          "internalType": "bool",
          "name": "",
          "type": "bool"
        }
      ],
      "stateMutability": "view",
      "type": "function",
      "constant": true
    },
    {
      "inputs": [],
      "name": "symbol",
      "outputs": [
        {
          "internalType": "string",
          "name": "",
          "type": "string"
        }
      ],
      "stateMutability": "view",
      "type": "function",
      "constant": true
    },
    {
      "inputs": [
        {
          "internalType": "uint256",
          "name": "tokenId",
          "type": "uint256"
        }
      ],
      "name": "tokenURI",
      "outputs": [
        {
          "internalType": "string",
          "name": "",
          "type": "string"
        }
      ],
      "stateMutability": "view",
      "type": "function",
      "constant": true
    },
    {
      "inputs": [
        {
          "internalType": "address",
          "name": "from",
          "type": "address"
        },
        {
          "internalType": "address",
          "name": "to",
          "type": "address"
        },
        {
          "internalType": "uint256",
          "name": "tokenId",
          "type": "uint256"
        }
      ],
      "name": "transferFrom",
      "outputs": [],
      "stateMutability": "nonpayable",
      "type": "function"
    },
    {
      "inputs": [
        {
          "internalType": "address",
          "name": "newOwner",
          "type": "address"
        }
      ],
      "name": "transferOwnership",
      "outputs": [],
      "stateMutability": "nonpayable",
      "type": "function"
    },
    {
      "inputs": [
        {
          "internalType": "string",
          "name": "baseURI",
          "type": "string"
        }
      ],
      "name": "setBaseURI",
      "outputs": [],
      "stateMutability": "nonpayable",
      "type": "function"
    },
    {
      "inputs": [],
      "name": "claim",
      "outputs": [],
      "stateMutability": "payable",
      "type": "function",
      "payable": true
    },
    {
      "inputs": [
        {
          "internalType": "uint256",
          "name": "tokenId",
          "type": "uint256"
        }
      ],
      "name": "get",
      "outputs": [
        {
          "internalType": "uint8[]",
          "name": "",
          "type": "uint8[]"
        }
      ],
      "stateMutability": "view",
      "type": "function",
      "constant": true
    }
  ],
  "bytecode": "0x6080604052611f2c6009556000600a556000600b556013600c5561018f600d553480156200002c57600080fd5b506040518060400160405280600881526020017f4c6176614c616d700000000000000000000000000000000000000000000000008152506040518060400160405280600881526020017f4c4156414c414d50000000000000000000000000000000000000000000000000815250620000b9620000ad6200017d60201b60201c565b6200018560201b60201c565b8160019080519060200190620000d192919062000fc5565b508060029080519060200190620000ea92919062000fc5565b50505062000117604051806060016040528060228152602001620053fe602291396200024960201b60201c565b62000127620002f460201b60201c565b62000137620002f460201b60201c565b62000147620002f460201b60201c565b62000157620002f460201b60201c565b62000167620002f460201b60201c565b62000177620002f460201b60201c565b62001756565b600033905090565b60008060009054906101000a900473ffffffffffffffffffffffffffffffffffffffff169050816000806101000a81548173ffffffffffffffffffffffffffffffffffffffff021916908373ffffffffffffffffffffffffffffffffffffffff1602179055508173ffffffffffffffffffffffffffffffffffffffff168173ffffffffffffffffffffffffffffffffffffffff167f8be0079c531659141344cd1fd0a4f28419497f9722a3daafe3b4186f6b6457e060405160405180910390a35050565b620002596200017d60201b60201c565b73ffffffffffffffffffffffffffffffffffffffff166200027f6200085c60201b60201c565b73ffffffffffffffffffffffffffffffffffffffff1614620002d8576040517f08c379a0000000000000000000000000000000000000000000000000000000008152600401620002cf90620010d6565b60405180910390fd5b8060089080519060200190620002f092919062000fc5565b5050565b6000620003066200088560201b60201c565b9050600080829050600080806000806000806000600a8962000329919062001131565b9650600a8760ff168a6200033e919062001198565b6200034a9190620011d3565b9850600a896200035b919062001131565b9550600a8660ff168a62000370919062001198565b6200037c9190620011d3565b9850600a896200038d919062001131565b9450600a8560ff168a620003a2919062001198565b620003ae9190620011d3565b9850600a89620003bf919062001131565b9350600a8460ff168a620003d4919062001198565b620003e09190620011d3565b985060008760ff16111562000400578780620003fc9062001218565b9850505b60008660ff1611156200041e5787806200041a9062001218565b9850505b60008560ff1611156200043c578780620004389062001218565b9850505b60008460ff1611156200045a578780620004569062001218565b9850505b620f424062000474888888886000620008ce60201b60201c565b62000480919062001131565b995062030d408a1015620004985760009250620004e2565b62061a808a1015620004ae5760019250620004e1565b620927c08a1015620004c45760029250620004e0565b620c35008a1015620004da5760039250620004df565b600492505b5b5b5b620f4240620004fb888888888f620008ce60201b60201c565b62000507919062001131565b99506201b2078a10156200051f5760009150620005c5565b6203640e8a1015620005355760019150620005c4565b620516158a10156200054b5760029150620005c3565b6206c81c8a1015620005615760039150620005c2565b62087a238a1015620005775760049150620005c1565b620a2c2a8a10156200058d5760059150620005c0565b620bde318a1015620005a35760069150620005bf565b620d90388a1015620005b95760079150620005be565b600891505b5b5b5b5b5b5b5b620f4240620005de888888888f620008ce60201b60201c565b620005ea919062001131565b9950614e208a1015620006015760099050620006bd565b61c3508a1015620006165760089050620006bc565b620186a08a10156200062c5760079050620006bb565b620298108a1015620006425760069050620006ba565b6203f7a08a1015620006585760059050620006b9565b6205a5508a10156200066e5760049050620006b8565b6207a1208a1015620006845760039050620006b7565b6209eb108a10156200069a5760029050620006b6565b620c83208a1015620006b05760019050620006b5565b600090505b5b5b5b5b5b5b5b5b6040518061010001604052808960ff1681526020018860ff1681526020018760ff1681526020018660ff1681526020018560ff1681526020018460ff1681526020018360ff1681526020018260ff16815250600760008d815260200190815260200160002060008201518160000160006101000a81548160ff021916908360ff16021790555060208201518160000160016101000a81548160ff021916908360ff16021790555060408201518160000160026101000a81548160ff021916908360ff16021790555060608201518160000160036101000a81548160ff021916908360ff16021790555060808201518160000160046101000a81548160ff021916908360ff16021790555060a08201518160000160056101000a81548160ff021916908360ff16021790555060c08201518160000160066101000a81548160ff021916908360ff16021790555060e08201518160000160076101000a81548160ff021916908360ff1602179055509050506200083f338c6200091360201b60201c565b6200084f6200093960201b60201c565b5050505050505050505050565b60008060009054906101000a900473ffffffffffffffffffffffffffffffffffffffff16905090565b600080600b5490506000620008a0826200098560201b60201c565b90506000600a54600d5483620008b7919062001247565b620008c39190620012a8565b905080935050505090565b600042448787878787604051602001620008ef979695949392919062001327565b6040516020818303038152906040528051906020012060001c905095945050505050565b6200093582826040518060200160405280600081525062000b3360201b60201c565b5050565b600c54600b54101562000963576001600b54620009579190620012a8565b600b8190555062000983565b6000600b819055506001600a546200097c9190620012a8565b600a819055505b565b600080600090506000831415620009a0576003905062000b2a565b6001831415620009b4576011905062000b29565b6002831415620009c857600a905062000b28565b6003831415620009dc57600d905062000b27565b6004831415620009f0576012905062000b26565b600583141562000a04576000905062000b25565b600683141562000a18576004905062000b24565b600783141562000a2c576001905062000b23565b600883141562000a40576006905062000b22565b600983141562000a54576013905062000b21565b600a83141562000a68576008905062000b20565b600b83141562000a7c57600c905062000b1f565b600c83141562000a90576002905062000b1e565b600d83141562000aa457600e905062000b1d565b600e83141562000ab857600b905062000b1c565b600f83141562000acc576007905062000b1b565b601083141562000ae057600f905062000b1a565b601183141562000af4576009905062000b19565b601283141562000b08576005905062000b18565b601383141562000b1757601090505b5b5b5b5b5b5b5b5b5b5b5b5b5b5b5b5b5b5b5b80915050919050565b62000b45838362000ba160201b60201c565b62000b5a600084848462000d8760201b60201c565b62000b9c576040517f08c379a000000000000000000000000000000000000000000000000000000000815260040162000b93906200141a565b60405180910390fd5b505050565b600073ffffffffffffffffffffffffffffffffffffffff168273ffffffffffffffffffffffffffffffffffffffff16141562000c14576040517f08c379a000000000000000000000000000000000000000000000000000000000815260040162000c0b906200148c565b60405180910390fd5b62000c258162000f4160201b60201c565b1562000c68576040517f08c379a000000000000000000000000000000000000000000000000000000000815260040162000c5f90620014fe565b60405180910390fd5b62000c7c6000838362000fad60201b60201c565b6001600460008473ffffffffffffffffffffffffffffffffffffffff1673ffffffffffffffffffffffffffffffffffffffff168152602001908152602001600020600082825462000cce9190620012a8565b92505081905550816003600083815260200190815260200160002060006101000a81548173ffffffffffffffffffffffffffffffffffffffff021916908373ffffffffffffffffffffffffffffffffffffffff160217905550808273ffffffffffffffffffffffffffffffffffffffff16600073ffffffffffffffffffffffffffffffffffffffff167fddf252ad1be2c89b69c2b068fc378daa952ba7f163c4a11628f55a4df523b3ef60405160405180910390a45050565b600062000db58473ffffffffffffffffffffffffffffffffffffffff1662000fb260201b6200132c1760201c565b1562000f34578373ffffffffffffffffffffffffffffffffffffffff1663150b7a0262000de76200017d60201b60201c565b8786866040518563ffffffff1660e01b815260040162000e0b949392919062001609565b602060405180830381600087803b15801562000e2657600080fd5b505af192505050801562000e5a57506040513d601f19601f8201168201806040525081019062000e579190620016bf565b60015b62000ee3573d806000811462000e8d576040519150601f19603f3d011682016040523d82523d6000602084013e62000e92565b606091505b5060008151141562000edb576040517f08c379a000000000000000000000000000000000000000000000000000000000815260040162000ed2906200141a565b60405180910390fd5b805181602001fd5b63150b7a0260e01b7bffffffffffffffffffffffffffffffffffffffffffffffffffffffff1916817bffffffffffffffffffffffffffffffffffffffffffffffffffffffff19161491505062000f39565b600190505b949350505050565b60008073ffffffffffffffffffffffffffffffffffffffff166003600084815260200190815260200160002060009054906101000a900473ffffffffffffffffffffffffffffffffffffffff1673ffffffffffffffffffffffffffffffffffffffff1614159050919050565b505050565b600080823b905060008111915050919050565b82805462000fd39062001720565b90600052602060002090601f01602090048101928262000ff7576000855562001043565b82601f106200101257805160ff191683800117855562001043565b8280016001018555821562001043579182015b828111156200104257825182559160200191906001019062001025565b5b50905062001052919062001056565b5090565b5b808211156200107157600081600090555060010162001057565b5090565b600082825260208201905092915050565b7f4f776e61626c653a2063616c6c6572206973206e6f7420746865206f776e6572600082015250565b6000620010be60208362001075565b9150620010cb8262001086565b602082019050919050565b60006020820190508181036000830152620010f181620010af565b9050919050565b6000819050919050565b7f4e487b7100000000000000000000000000000000000000000000000000000000600052601260045260246000fd5b60006200113e82620010f8565b91506200114b83620010f8565b9250826200115e576200115d62001102565b5b828206905092915050565b7f4e487b7100000000000000000000000000000000000000000000000000000000600052601160045260246000fd5b6000620011a582620010f8565b9150620011b283620010f8565b925082821015620011c857620011c762001169565b5b828203905092915050565b6000620011e082620010f8565b9150620011ed83620010f8565b9250826200120057620011ff62001102565b5b828204905092915050565b600060ff82169050919050565b600062001225826200120b565b915060ff8214156200123c576200123b62001169565b5b600182019050919050565b60006200125482620010f8565b91506200126183620010f8565b9250817fffffffffffffffffffffffffffffffffffffffffffffffffffffffffffffffff04831182151516156200129d576200129c62001169565b5b828202905092915050565b6000620012b582620010f8565b9150620012c283620010f8565b9250827fffffffffffffffffffffffffffffffffffffffffffffffffffffffffffffffff03821115620012fa57620012f962001169565b5b828201905092915050565b6200131081620010f8565b82525050565b62001321816200120b565b82525050565b600060e0820190506200133e600083018a62001305565b6200134d602083018962001305565b6200135c604083018862001316565b6200136b606083018762001316565b6200137a608083018662001316565b6200138960a083018562001316565b6200139860c083018462001305565b98975050505050505050565b7f4552433732313a207472616e7366657220746f206e6f6e20455243373231526560008201527f63656976657220696d706c656d656e7465720000000000000000000000000000602082015250565b60006200140260328362001075565b91506200140f82620013a4565b604082019050919050565b600060208201905081810360008301526200143581620013f3565b9050919050565b7f4552433732313a206d696e7420746f20746865207a65726f2061646472657373600082015250565b60006200147460208362001075565b915062001481826200143c565b602082019050919050565b60006020820190508181036000830152620014a78162001465565b9050919050565b7f4552433732313a20746f6b656e20616c7265616479206d696e74656400000000600082015250565b6000620014e6601c8362001075565b9150620014f382620014ae565b602082019050919050565b600060208201905081810360008301526200151981620014d7565b9050919050565b600073ffffffffffffffffffffffffffffffffffffffff82169050919050565b60006200154d8262001520565b9050919050565b6200155f8162001540565b82525050565b600081519050919050565b600082825260208201905092915050565b60005b83811015620015a157808201518184015260208101905062001584565b83811115620015b1576000848401525b50505050565b6000601f19601f8301169050919050565b6000620015d58262001565565b620015e1818562001570565b9350620015f381856020860162001581565b620015fe81620015b7565b840191505092915050565b600060808201905062001620600083018762001554565b6200162f602083018662001554565b6200163e604083018562001305565b8181036060830152620016528184620015c8565b905095945050505050565b600080fd5b60007fffffffff0000000000000000000000000000000000000000000000000000000082169050919050565b620016998162001662565b8114620016a557600080fd5b50565b600081519050620016b9816200168e565b92915050565b600060208284031215620016d857620016d76200165d565b5b6000620016e884828501620016a8565b91505092915050565b7f4e487b7100000000000000000000000000000000000000000000000000000000600052602260045260246000fd5b600060028204905060018216806200173957607f821691505b6020821081141562001750576200174f620016f1565b5b50919050565b613c9880620017666000396000f3fe6080604052600436106101145760003560e01c806370a08231116100a0578063a22cb46511610064578063a22cb46514610390578063b88d4fde146103b9578063c87b56dd146103e2578063e985e9c51461041f578063f2fde38b1461045c57610114565b806370a08231146102a9578063715018a6146102e65780638da5cb5b146102fd5780639507d39a1461032857806395d89b411461036557610114565b806323b872dd116100e757806323b872dd146101e757806342842e0e146102105780634e71d92d1461023957806355f804b3146102435780636352211e1461026c57610114565b806301ffc9a71461011957806306fdde0314610156578063081812fc14610181578063095ea7b3146101be575b600080fd5b34801561012557600080fd5b50610140600480360381019061013b9190612746565b610485565b60405161014d919061278e565b60405180910390f35b34801561016257600080fd5b5061016b610567565b6040516101789190612842565b60405180910390f35b34801561018d57600080fd5b506101a860048036038101906101a3919061289a565b6105f9565b6040516101b59190612908565b60405180910390f35b3480156101ca57600080fd5b506101e560048036038101906101e0919061294f565b61067e565b005b3480156101f357600080fd5b5061020e6004803603810190610209919061298f565b610796565b005b34801561021c57600080fd5b506102376004803603810190610232919061298f565b6107f6565b005b610241610816565b005b34801561024f57600080fd5b5061026a60048036038101906102659190612b17565b6108be565b005b34801561027857600080fd5b50610293600480360381019061028e919061289a565b610954565b6040516102a09190612908565b60405180910390f35b3480156102b557600080fd5b506102d060048036038101906102cb9190612b60565b610a06565b6040516102dd9190612b9c565b60405180910390f35b3480156102f257600080fd5b506102fb610abe565b005b34801561030957600080fd5b50610312610b46565b60405161031f9190612908565b60405180910390f35b34801561033457600080fd5b5061034f600480360381019061034a919061289a565b610b6f565b60405161035c9190612c82565b60405180910390f35b34801561037157600080fd5b5061037a610e84565b6040516103879190612842565b60405180910390f35b34801561039c57600080fd5b506103b760048036038101906103b29190612cd0565b610f16565b005b3480156103c557600080fd5b506103e060048036038101906103db9190612db1565b611097565b005b3480156103ee57600080fd5b506104096004803603810190610404919061289a565b6110f9565b6040516104169190612842565b60405180910390f35b34801561042b57600080fd5b5061044660048036038101906104419190612e34565b6111a0565b604051610453919061278e565b60405180910390f35b34801561046857600080fd5b50610483600480360381019061047e9190612b60565b611234565b005b60007f80ac58cd000000000000000000000000000000000000000000000000000000007bffffffffffffffffffffffffffffffffffffffffffffffffffffffff1916827bffffffffffffffffffffffffffffffffffffffffffffffffffffffff1916148061055057507f5b5e139f000000000000000000000000000000000000000000000000000000007bffffffffffffffffffffffffffffffffffffffffffffffffffffffff1916827bffffffffffffffffffffffffffffffffffffffffffffffffffffffff1916145b80610560575061055f8261133f565b5b9050919050565b60606001805461057690612ea3565b80601f01602080910402602001604051908101604052809291908181526020018280546105a290612ea3565b80156105ef5780601f106105c4576101008083540402835291602001916105ef565b820191906000526020600020905b8154815290600101906020018083116105d257829003601f168201915b5050505050905090565b6000610604826113a9565b610643576040517f08c379a000000000000000000000000000000000000000000000000000000000815260040161063a90612f47565b60405180910390fd5b6005600083815260200190815260200160002060009054906101000a900473ffffffffffffffffffffffffffffffffffffffff169050919050565b600061068982610954565b90508073ffffffffffffffffffffffffffffffffffffffff168373ffffffffffffffffffffffffffffffffffffffff1614156106fa576040517f08c379a00000000000000000000000000000000000000000000000000000000081526004016106f190612fd9565b60405180910390fd5b8073ffffffffffffffffffffffffffffffffffffffff16610719611415565b73ffffffffffffffffffffffffffffffffffffffff161480610748575061074781610742611415565b6111a0565b5b610787576040517f08c379a000000000000000000000000000000000000000000000000000000000815260040161077e9061306b565b60405180910390fd5b610791838361141d565b505050565b6107a76107a1611415565b826114d6565b6107e6576040517f08c379a00000000000000000000000000000000000000000000000000000000081526004016107dd906130fd565b60405180910390fd5b6107f18383836115b4565b505050565b61081183838360405180602001604052806000815250611097565b505050565b666a94d74f430000341461085f576040517f08c379a00000000000000000000000000000000000000000000000000000000081526004016108569061318f565b60405180910390fd5b610867611810565b61086f610b46565b73ffffffffffffffffffffffffffffffffffffffff166108fc666a94d74f4300009081150290604051600060405180830381858888f193505050501580156108bb573d6000803e3d6000fd5b50565b6108c6611415565b73ffffffffffffffffffffffffffffffffffffffff166108e4610b46565b73ffffffffffffffffffffffffffffffffffffffff161461093a576040517f08c379a0000000000000000000000000000000000000000000000000000000008152600401610931906131fb565b60405180910390fd5b8060089080519060200190610950929190612637565b5050565b6000806003600084815260200190815260200160002060009054906101000a900473ffffffffffffffffffffffffffffffffffffffff169050600073ffffffffffffffffffffffffffffffffffffffff168173ffffffffffffffffffffffffffffffffffffffff1614156109fd576040517f08c379a00000000000000000000000000000000000000000000000000000000081526004016109f49061328d565b60405180910390fd5b80915050919050565b60008073ffffffffffffffffffffffffffffffffffffffff168273ffffffffffffffffffffffffffffffffffffffff161415610a77576040517f08c379a0000000000000000000000000000000000000000000000000000000008152600401610a6e9061331f565b60405180910390fd5b600460008373ffffffffffffffffffffffffffffffffffffffff1673ffffffffffffffffffffffffffffffffffffffff168152602001908152602001600020549050919050565b610ac6611415565b73ffffffffffffffffffffffffffffffffffffffff16610ae4610b46565b73ffffffffffffffffffffffffffffffffffffffff1614610b3a576040517f08c379a0000000000000000000000000000000000000000000000000000000008152600401610b31906131fb565b60405180910390fd5b610b446000611cf4565b565b60008060009054906101000a900473ffffffffffffffffffffffffffffffffffffffff16905090565b6060610b7a826113a9565b610bb9576040517f08c379a0000000000000000000000000000000000000000000000000000000008152600401610bb09061338b565b60405180910390fd5b600060076000848152602001908152602001600020604051806101000160405290816000820160009054906101000a900460ff1660ff1660ff1681526020016000820160019054906101000a900460ff1660ff1660ff1681526020016000820160029054906101000a900460ff1660ff1660ff1681526020016000820160039054906101000a900460ff1660ff1660ff1681526020016000820160049054906101000a900460ff1660ff1660ff1681526020016000820160059054906101000a900460ff1660ff1660ff1681526020016000820160069054906101000a900460ff1660ff1660ff1681526020016000820160079054906101000a900460ff1660ff1660ff168152505090506000600867ffffffffffffffff811115610ce157610ce06129ec565b5b604051908082528060200260200182016040528015610d0f5781602001602082028036833780820191505090505b509050816000015181600081518110610d2b57610d2a6133ab565b5b602002602001019060ff16908160ff1681525050816020015181600181518110610d5857610d576133ab565b5b602002602001019060ff16908160ff1681525050816040015181600281518110610d8557610d846133ab565b5b602002602001019060ff16908160ff1681525050816060015181600381518110610db257610db16133ab565b5b602002602001019060ff16908160ff1681525050816080015181600481518110610ddf57610dde6133ab565b5b602002602001019060ff16908160ff16815250508160a0015181600581518110610e0c57610e0b6133ab565b5b602002602001019060ff16908160ff16815250508160c0015181600681518110610e3957610e386133ab565b5b602002602001019060ff16908160ff16815250508160e0015181600781518110610e6657610e656133ab565b5b602002602001019060ff16908160ff16815250508092505050919050565b606060028054610e9390612ea3565b80601f0160208091040260200160405190810160405280929190818152602001828054610ebf90612ea3565b8015610f0c5780601f10610ee157610100808354040283529160200191610f0c565b820191906000526020600020905b815481529060010190602001808311610eef57829003601f168201915b5050505050905090565b610f1e611415565b73ffffffffffffffffffffffffffffffffffffffff168273ffffffffffffffffffffffffffffffffffffffff161415610f8c576040517f08c379a0000000000000000000000000000000000000000000000000000000008152600401610f8390613426565b60405180910390fd5b8060066000610f99611415565b73ffffffffffffffffffffffffffffffffffffffff1673ffffffffffffffffffffffffffffffffffffffff16815260200190815260200160002060008473ffffffffffffffffffffffffffffffffffffffff1673ffffffffffffffffffffffffffffffffffffffff16815260200190815260200160002060006101000a81548160ff0219169083151502179055508173ffffffffffffffffffffffffffffffffffffffff16611046611415565b73ffffffffffffffffffffffffffffffffffffffff167f17307eab39ab6107e8899845ad3d59bd9653f200f220920489ca2b5937696c318360405161108b919061278e565b60405180910390a35050565b6110a86110a2611415565b836114d6565b6110e7576040517f08c379a00000000000000000000000000000000000000000000000000000000081526004016110de906130fd565b60405180910390fd5b6110f384848484611db8565b50505050565b6060611104826113a9565b611143576040517f08c379a000000000000000000000000000000000000000000000000000000000815260040161113a906134b8565b60405180910390fd5b600061114d611e14565b9050600081511161116d5760405180602001604052806000815250611198565b8061117784611ea6565b604051602001611188929190613514565b6040516020818303038152906040525b915050919050565b6000600660008473ffffffffffffffffffffffffffffffffffffffff1673ffffffffffffffffffffffffffffffffffffffff16815260200190815260200160002060008373ffffffffffffffffffffffffffffffffffffffff1673ffffffffffffffffffffffffffffffffffffffff16815260200190815260200160002060009054906101000a900460ff16905092915050565b61123c611415565b73ffffffffffffffffffffffffffffffffffffffff1661125a610b46565b73ffffffffffffffffffffffffffffffffffffffff16146112b0576040517f08c379a00000000000000000000000000000000000000000000000000000000081526004016112a7906131fb565b60405180910390fd5b600073ffffffffffffffffffffffffffffffffffffffff168173ffffffffffffffffffffffffffffffffffffffff161415611320576040517f08c379a0000000000000000000000000000000000000000000000000000000008152600401611317906135aa565b60405180910390fd5b61132981611cf4565b50565b600080823b905060008111915050919050565b60007f01ffc9a7000000000000000000000000000000000000000000000000000000007bffffffffffffffffffffffffffffffffffffffffffffffffffffffff1916827bffffffffffffffffffffffffffffffffffffffffffffffffffffffff1916149050919050565b60008073ffffffffffffffffffffffffffffffffffffffff166003600084815260200190815260200160002060009054906101000a900473ffffffffffffffffffffffffffffffffffffffff1673ffffffffffffffffffffffffffffffffffffffff1614159050919050565b600033905090565b816005600083815260200190815260200160002060006101000a81548173ffffffffffffffffffffffffffffffffffffffff021916908373ffffffffffffffffffffffffffffffffffffffff160217905550808273ffffffffffffffffffffffffffffffffffffffff1661149083610954565b73ffffffffffffffffffffffffffffffffffffffff167f8c5be1e5ebec7d5bd14f71427d1e84f3dd0314c0f7b2291e5b200ac8c7c3b92560405160405180910390a45050565b60006114e1826113a9565b611520576040517f08c379a00000000000000000000000000000000000000000000000000000000081526004016115179061363c565b60405180910390fd5b600061152b83610954565b90508073ffffffffffffffffffffffffffffffffffffffff168473ffffffffffffffffffffffffffffffffffffffff16148061159a57508373ffffffffffffffffffffffffffffffffffffffff16611582846105f9565b73ffffffffffffffffffffffffffffffffffffffff16145b806115ab57506115aa81856111a0565b5b91505092915050565b8273ffffffffffffffffffffffffffffffffffffffff166115d482610954565b73ffffffffffffffffffffffffffffffffffffffff161461162a576040517f08c379a0000000000000000000000000000000000000000000000000000000008152600401611621906136ce565b60405180910390fd5b600073ffffffffffffffffffffffffffffffffffffffff168273ffffffffffffffffffffffffffffffffffffffff16141561169a576040517f08c379a000000000000000000000000000000000000000000000000000000000815260040161169190613760565b60405180910390fd5b6116a5838383612007565b6116b060008261141d565b6001600460008573ffffffffffffffffffffffffffffffffffffffff1673ffffffffffffffffffffffffffffffffffffffff168152602001908152602001600020600082825461170091906137af565b925050819055506001600460008473ffffffffffffffffffffffffffffffffffffffff1673ffffffffffffffffffffffffffffffffffffffff168152602001908152602001600020600082825461175791906137e3565b92505081905550816003600083815260200190815260200160002060006101000a81548173ffffffffffffffffffffffffffffffffffffffff021916908373ffffffffffffffffffffffffffffffffffffffff160217905550808273ffffffffffffffffffffffffffffffffffffffff168473ffffffffffffffffffffffffffffffffffffffff167fddf252ad1be2c89b69c2b068fc378daa952ba7f163c4a11628f55a4df523b3ef60405160405180910390a4505050565b600061181a61200c565b9050600080829050600080806000806000806000600a8961183b9190613868565b9650600a8760ff168a61184e91906137af565b6118589190613899565b9850600a896118679190613868565b9550600a8660ff168a61187a91906137af565b6118849190613899565b9850600a896118939190613868565b9450600a8560ff168a6118a691906137af565b6118b09190613899565b9850600a896118bf9190613868565b9350600a8460ff168a6118d291906137af565b6118dc9190613899565b985060008760ff1611156118f95787806118f5906138ca565b9850505b60008660ff161115611914578780611910906138ca565b9850505b60008560ff16111561192f57878061192b906138ca565b9850505b60008460ff16111561194a578780611946906138ca565b9850505b620f424061195c888888886000612049565b6119669190613868565b995062030d408a101561197c57600092506119c0565b62061a808a101561199057600192506119bf565b620927c08a10156119a457600292506119be565b620c35008a10156119b857600392506119bd565b600492505b5b5b5b620f42406119d1888888888f612049565b6119db9190613868565b99506201b2078a10156119f15760009150611a89565b6203640e8a1015611a055760019150611a88565b620516158a1015611a195760029150611a87565b6206c81c8a1015611a2d5760039150611a86565b62087a238a1015611a415760049150611a85565b620a2c2a8a1015611a555760059150611a84565b620bde318a1015611a695760069150611a83565b620d90388a1015611a7d5760079150611a82565b600891505b5b5b5b5b5b5b5b620f4240611a9a888888888f612049565b611aa49190613868565b9950614e208a1015611ab95760099050611b65565b61c3508a1015611acc5760089050611b64565b620186a08a1015611ae05760079050611b63565b620298108a1015611af45760069050611b62565b6203f7a08a1015611b085760059050611b61565b6205a5508a1015611b1c5760049050611b60565b6207a1208a1015611b305760039050611b5f565b6209eb108a1015611b445760029050611b5e565b620c83208a1015611b585760019050611b5d565b600090505b5b5b5b5b5b5b5b5b6040518061010001604052808960ff1681526020018860ff1681526020018760ff1681526020018660ff1681526020018560ff1681526020018460ff1681526020018360ff1681526020018260ff16815250600760008d815260200190815260200160002060008201518160000160006101000a81548160ff021916908360ff16021790555060208201518160000160016101000a81548160ff021916908360ff16021790555060408201518160000160026101000a81548160ff021916908360ff16021790555060608201518160000160036101000a81548160ff021916908360ff16021790555060808201518160000160046101000a81548160ff021916908360ff16021790555060a08201518160000160056101000a81548160ff021916908360ff16021790555060c08201518160000160066101000a81548160ff021916908360ff16021790555060e08201518160000160076101000a81548160ff021916908360ff160217905550905050611cdf338c61208c565b611ce76120aa565b5050505050505050505050565b60008060009054906101000a900473ffffffffffffffffffffffffffffffffffffffff169050816000806101000a81548173ffffffffffffffffffffffffffffffffffffffff021916908373ffffffffffffffffffffffffffffffffffffffff1602179055508173ffffffffffffffffffffffffffffffffffffffff168173ffffffffffffffffffffffffffffffffffffffff167f8be0079c531659141344cd1fd0a4f28419497f9722a3daafe3b4186f6b6457e060405160405180910390a35050565b611dc38484846115b4565b611dcf848484846120f0565b611e0e576040517f08c379a0000000000000000000000000000000000000000000000000000000008152600401611e0590613966565b60405180910390fd5b50505050565b606060088054611e2390612ea3565b80601f0160208091040260200160405190810160405280929190818152602001828054611e4f90612ea3565b8015611e9c5780601f10611e7157610100808354040283529160200191611e9c565b820191906000526020600020905b815481529060010190602001808311611e7f57829003601f168201915b5050505050905090565b60606000821415611eee576040518060400160405280600181526020017f30000000000000000000000000000000000000000000000000000000000000008152509050612002565b600082905060005b60008214611f20578080611f0990613986565b915050600a82611f199190613899565b9150611ef6565b60008167ffffffffffffffff811115611f3c57611f3b6129ec565b5b6040519080825280601f01601f191660200182016040528015611f6e5781602001600182028036833780820191505090505b5090505b60008514611ffb57600182611f8791906137af565b9150600a85611f969190613868565b6030611fa291906137e3565b60f81b818381518110611fb857611fb76133ab565b5b60200101907effffffffffffffffffffffffffffffffffffffffffffffffffffffffffffff1916908160001a905350600a85611ff49190613899565b9450611f72565b8093505050505b919050565b505050565b600080600b549050600061201f82612287565b90506000600a54600d548361203491906139cf565b61203e91906137e3565b905080935050505090565b6000424487878787876040516020016120689796959493929190613a38565b6040516020818303038152906040528051906020012060001c905095945050505050565b6120a682826040518060200160405280600081525061240e565b5050565b600c54600b5410156120d0576001600b546120c591906137e3565b600b819055506120ee565b6000600b819055506001600a546120e791906137e3565b600a819055505b565b60006121118473ffffffffffffffffffffffffffffffffffffffff1661132c565b1561227a578373ffffffffffffffffffffffffffffffffffffffff1663150b7a0261213a611415565b8786866040518563ffffffff1660e01b815260040161215c9493929190613afc565b602060405180830381600087803b15801561217657600080fd5b505af19250505080156121a757506040513d601f19601f820116820180604052508101906121a49190613b5d565b60015b61222a573d80600081146121d7576040519150601f19603f3d011682016040523d82523d6000602084013e6121dc565b606091505b50600081511415612222576040517f08c379a000000000000000000000000000000000000000000000000000000000815260040161221990613966565b60405180910390fd5b805181602001fd5b63150b7a0260e01b7bffffffffffffffffffffffffffffffffffffffffffffffffffffffff1916817bffffffffffffffffffffffffffffffffffffffffffffffffffffffff19161491505061227f565b600190505b949350505050565b6000806000905060008314156122a05760039050612405565b60018314156122b25760119050612404565b60028314156122c457600a9050612403565b60038314156122d657600d9050612402565b60048314156122e85760129050612401565b60058314156122fa5760009050612400565b600683141561230c57600490506123ff565b600783141561231e57600190506123fe565b600883141561233057600690506123fd565b600983141561234257601390506123fc565b600a83141561235457600890506123fb565b600b83141561236657600c90506123fa565b600c83141561237857600290506123f9565b600d83141561238a57600e90506123f8565b600e83141561239c57600b90506123f7565b600f8314156123ae57600790506123f6565b60108314156123c057600f90506123f5565b60118314156123d257600990506123f4565b60128314156123e457600590506123f3565b60138314156123f257601090505b5b5b5b5b5b5b5b5b5b5b5b5b5b5b5b5b5b5b5b80915050919050565b6124188383612469565b61242560008484846120f0565b612464576040517f08c379a000000000000000000000000000000000000000000000000000000000815260040161245b90613966565b60405180910390fd5b505050565b600073ffffffffffffffffffffffffffffffffffffffff168273ffffffffffffffffffffffffffffffffffffffff1614156124d9576040517f08c379a00000000000000000000000000000000000000000000000000000000081526004016124d090613bd6565b60405180910390fd5b6124e2816113a9565b15612522576040517f08c379a000000000000000000000000000000000000000000000000000000000815260040161251990613c42565b60405180910390fd5b61252e60008383612007565b6001600460008473ffffffffffffffffffffffffffffffffffffffff1673ffffffffffffffffffffffffffffffffffffffff168152602001908152602001600020600082825461257e91906137e3565b92505081905550816003600083815260200190815260200160002060006101000a81548173ffffffffffffffffffffffffffffffffffffffff021916908373ffffffffffffffffffffffffffffffffffffffff160217905550808273ffffffffffffffffffffffffffffffffffffffff16600073ffffffffffffffffffffffffffffffffffffffff167fddf252ad1be2c89b69c2b068fc378daa952ba7f163c4a11628f55a4df523b3ef60405160405180910390a45050565b82805461264390612ea3565b90600052602060002090601f01602090048101928261266557600085556126ac565b82601f1061267e57805160ff19168380011785556126ac565b828001600101855582156126ac579182015b828111156126ab578251825591602001919060010190612690565b5b5090506126b991906126bd565b5090565b5b808211156126d65760008160009055506001016126be565b5090565b6000604051905090565b600080fd5b600080fd5b60007fffffffff0000000000000000000000000000000000000000000000000000000082169050919050565b612723816126ee565b811461272e57600080fd5b50565b6000813590506127408161271a565b92915050565b60006020828403121561275c5761275b6126e4565b5b600061276a84828501612731565b91505092915050565b60008115159050919050565b61278881612773565b82525050565b60006020820190506127a3600083018461277f565b92915050565b600081519050919050565b600082825260208201905092915050565b60005b838110156127e35780820151818401526020810190506127c8565b838111156127f2576000848401525b50505050565b6000601f19601f8301169050919050565b6000612814826127a9565b61281e81856127b4565b935061282e8185602086016127c5565b612837816127f8565b840191505092915050565b6000602082019050818103600083015261285c8184612809565b905092915050565b6000819050919050565b61287781612864565b811461288257600080fd5b50565b6000813590506128948161286e565b92915050565b6000602082840312156128b0576128af6126e4565b5b60006128be84828501612885565b91505092915050565b600073ffffffffffffffffffffffffffffffffffffffff82169050919050565b60006128f2826128c7565b9050919050565b612902816128e7565b82525050565b600060208201905061291d60008301846128f9565b92915050565b61292c816128e7565b811461293757600080fd5b50565b60008135905061294981612923565b92915050565b60008060408385031215612966576129656126e4565b5b60006129748582860161293a565b925050602061298585828601612885565b9150509250929050565b6000806000606084860312156129a8576129a76126e4565b5b60006129b68682870161293a565b93505060206129c78682870161293a565b92505060406129d886828701612885565b9150509250925092565b600080fd5b600080fd5b7f4e487b7100000000000000000000000000000000000000000000000000000000600052604160045260246000fd5b612a24826127f8565b810181811067ffffffffffffffff82111715612a4357612a426129ec565b5b80604052505050565b6000612a566126da565b9050612a628282612a1b565b919050565b600067ffffffffffffffff821115612a8257612a816129ec565b5b612a8b826127f8565b9050602081019050919050565b82818337600083830152505050565b6000612aba612ab584612a67565b612a4c565b905082815260208101848484011115612ad657612ad56129e7565b5b612ae1848285612a98565b509392505050565b600082601f830112612afe57612afd6129e2565b5b8135612b0e848260208601612aa7565b91505092915050565b600060208284031215612b2d57612b2c6126e4565b5b600082013567ffffffffffffffff811115612b4b57612b4a6126e9565b5b612b5784828501612ae9565b91505092915050565b600060208284031215612b7657612b756126e4565b5b6000612b848482850161293a565b91505092915050565b612b9681612864565b82525050565b6000602082019050612bb16000830184612b8d565b92915050565b600081519050919050565b600082825260208201905092915050565b6000819050602082019050919050565b600060ff82169050919050565b612bf981612be3565b82525050565b6000612c0b8383612bf0565b60208301905092915050565b6000602082019050919050565b6000612c2f82612bb7565b612c398185612bc2565b9350612c4483612bd3565b8060005b83811015612c75578151612c5c8882612bff565b9750612c6783612c17565b925050600181019050612c48565b5085935050505092915050565b60006020820190508181036000830152612c9c8184612c24565b905092915050565b612cad81612773565b8114612cb857600080fd5b50565b600081359050612cca81612ca4565b92915050565b60008060408385031215612ce757612ce66126e4565b5b6000612cf58582860161293a565b9250506020612d0685828601612cbb565b9150509250929050565b600067ffffffffffffffff821115612d2b57612d2a6129ec565b5b612d34826127f8565b9050602081019050919050565b6000612d54612d4f84612d10565b612a4c565b905082815260208101848484011115612d7057612d6f6129e7565b5b612d7b848285612a98565b509392505050565b600082601f830112612d9857612d976129e2565b5b8135612da8848260208601612d41565b91505092915050565b60008060008060808587031215612dcb57612dca6126e4565b5b6000612dd98782880161293a565b9450506020612dea8782880161293a565b9350506040612dfb87828801612885565b925050606085013567ffffffffffffffff811115612e1c57612e1b6126e9565b5b612e2887828801612d83565b91505092959194509250565b60008060408385031215612e4b57612e4a6126e4565b5b6000612e598582860161293a565b9250506020612e6a8582860161293a565b9150509250929050565b7f4e487b7100000000000000000000000000000000000000000000000000000000600052602260045260246000fd5b60006002820490506001821680612ebb57607f821691505b60208210811415612ecf57612ece612e74565b5b50919050565b7f4552433732313a20617070726f76656420717565727920666f72206e6f6e657860008201527f697374656e7420746f6b656e0000000000000000000000000000000000000000602082015250565b6000612f31602c836127b4565b9150612f3c82612ed5565b604082019050919050565b60006020820190508181036000830152612f6081612f24565b9050919050565b7f4552433732313a20617070726f76616c20746f2063757272656e74206f776e6560008201527f7200000000000000000000000000000000000000000000000000000000000000602082015250565b6000612fc36021836127b4565b9150612fce82612f67565b604082019050919050565b60006020820190508181036000830152612ff281612fb6565b9050919050565b7f4552433732313a20617070726f76652063616c6c6572206973206e6f74206f7760008201527f6e6572206e6f7220617070726f76656420666f7220616c6c0000000000000000602082015250565b60006130556038836127b4565b915061306082612ff9565b604082019050919050565b6000602082019050818103600083015261308481613048565b9050919050565b7f4552433732313a207472616e736665722063616c6c6572206973206e6f74206f60008201527f776e6572206e6f7220617070726f766564000000000000000000000000000000602082015250565b60006130e76031836127b4565b91506130f28261308b565b604082019050919050565b60006020820190508181036000830152613116816130da565b9050919050565b7f636c61696d696e672061206c617661206c616d7020636f73747320333020666960008201527f6e6e657900000000000000000000000000000000000000000000000000000000602082015250565b60006131796024836127b4565b91506131848261311d565b604082019050919050565b600060208201905081810360008301526131a88161316c565b9050919050565b7f4f776e61626c653a2063616c6c6572206973206e6f7420746865206f776e6572600082015250565b60006131e56020836127b4565b91506131f0826131af565b602082019050919050565b60006020820190508181036000830152613214816131d8565b9050919050565b7f4552433732313a206f776e657220717565727920666f72206e6f6e657869737460008201527f656e7420746f6b656e0000000000000000000000000000000000000000000000602082015250565b60006132776029836127b4565b91506132828261321b565b604082019050919050565b600060208201905081810360008301526132a68161326a565b9050919050565b7f4552433732313a2062616c616e636520717565727920666f7220746865207a6560008201527f726f206164647265737300000000000000000000000000000000000000000000602082015250565b6000613309602a836127b4565b9150613314826132ad565b604082019050919050565b60006020820190508181036000830152613338816132fc565b9050919050565b7f746f6b656e206e6f74206d696e74656400000000000000000000000000000000600082015250565b60006133756010836127b4565b91506133808261333f565b602082019050919050565b600060208201905081810360008301526133a481613368565b9050919050565b7f4e487b7100000000000000000000000000000000000000000000000000000000600052603260045260246000fd5b7f4552433732313a20617070726f766520746f2063616c6c657200000000000000600082015250565b60006134106019836127b4565b915061341b826133da565b602082019050919050565b6000602082019050818103600083015261343f81613403565b9050919050565b7f4552433732314d657461646174613a2055524920717565727920666f72206e6f60008201527f6e6578697374656e7420746f6b656e0000000000000000000000000000000000602082015250565b60006134a2602f836127b4565b91506134ad82613446565b604082019050919050565b600060208201905081810360008301526134d181613495565b9050919050565b600081905092915050565b60006134ee826127a9565b6134f881856134d8565b93506135088185602086016127c5565b80840191505092915050565b600061352082856134e3565b915061352c82846134e3565b91508190509392505050565b7f4f776e61626c653a206e6577206f776e657220697320746865207a65726f206160008201527f6464726573730000000000000000000000000000000000000000000000000000602082015250565b60006135946026836127b4565b915061359f82613538565b604082019050919050565b600060208201905081810360008301526135c381613587565b9050919050565b7f4552433732313a206f70657261746f7220717565727920666f72206e6f6e657860008201527f697374656e7420746f6b656e0000000000000000000000000000000000000000602082015250565b6000613626602c836127b4565b9150613631826135ca565b604082019050919050565b6000602082019050818103600083015261365581613619565b9050919050565b7f4552433732313a207472616e73666572206f6620746f6b656e2074686174206960008201527f73206e6f74206f776e0000000000000000000000000000000000000000000000602082015250565b60006136b86029836127b4565b91506136c38261365c565b604082019050919050565b600060208201905081810360008301526136e7816136ab565b9050919050565b7f4552433732313a207472616e7366657220746f20746865207a65726f2061646460008201527f7265737300000000000000000000000000000000000000000000000000000000602082015250565b600061374a6024836127b4565b9150613755826136ee565b604082019050919050565b600060208201905081810360008301526137798161373d565b9050919050565b7f4e487b7100000000000000000000000000000000000000000000000000000000600052601160045260246000fd5b60006137ba82612864565b91506137c583612864565b9250828210156137d8576137d7613780565b5b828203905092915050565b60006137ee82612864565b91506137f983612864565b9250827fffffffffffffffffffffffffffffffffffffffffffffffffffffffffffffffff0382111561382e5761382d613780565b5b828201905092915050565b7f4e487b7100000000000000000000000000000000000000000000000000000000600052601260045260246000fd5b600061387382612864565b915061387e83612864565b92508261388e5761388d613839565b5b828206905092915050565b60006138a482612864565b91506138af83612864565b9250826138bf576138be613839565b5b828204905092915050565b60006138d582612be3565b915060ff8214156138e9576138e8613780565b5b600182019050919050565b7f4552433732313a207472616e7366657220746f206e6f6e20455243373231526560008201527f63656976657220696d706c656d656e7465720000000000000000000000000000602082015250565b60006139506032836127b4565b915061395b826138f4565b604082019050919050565b6000602082019050818103600083015261397f81613943565b9050919050565b600061399182612864565b91507fffffffffffffffffffffffffffffffffffffffffffffffffffffffffffffffff8214156139c4576139c3613780565b5b600182019050919050565b60006139da82612864565b91506139e583612864565b9250817fffffffffffffffffffffffffffffffffffffffffffffffffffffffffffffffff0483118215151615613a1e57613a1d613780565b5b828202905092915050565b613a3281612be3565b82525050565b600060e082019050613a4d600083018a612b8d565b613a5a6020830189612b8d565b613a676040830188613a29565b613a746060830187613a29565b613a816080830186613a29565b613a8e60a0830185613a29565b613a9b60c0830184612b8d565b98975050505050505050565b600081519050919050565b600082825260208201905092915050565b6000613ace82613aa7565b613ad88185613ab2565b9350613ae88185602086016127c5565b613af1816127f8565b840191505092915050565b6000608082019050613b1160008301876128f9565b613b1e60208301866128f9565b613b2b6040830185612b8d565b8181036060830152613b3d8184613ac3565b905095945050505050565b600081519050613b578161271a565b92915050565b600060208284031215613b7357613b726126e4565b5b6000613b8184828501613b48565b91505092915050565b7f4552433732313a206d696e7420746f20746865207a65726f2061646472657373600082015250565b6000613bc06020836127b4565b9150613bcb82613b8a565b602082019050919050565b60006020820190508181036000830152613bef81613bb3565b9050919050565b7f4552433732313a20746f6b656e20616c7265616479206d696e74656400000000600082015250565b6000613c2c601c836127b4565b9150613c3782613bf6565b602082019050919050565b60006020820190508181036000830152613c5b81613c1f565b905091905056fea264697066735822122006c967b3a2f3ae4f15e3051ce2bfc3ee3ab2141c315b429107729ddfdf6e17a364736f6c63430008090033687474703a2f2f7777772e7375706572646f7276696c2e746563682f746f6b656e2f",
  "immutableReferences": {},
  "source": "// SPDX-License-Identifier: MIT\npragma solidity >=0.4.22 <0.9.0;\n\nimport \"@openzeppelin/contracts/access/Ownable.sol\";\n//import \"@openzeppelin/contracts/utils/Counters.sol\";\nimport \"@openzeppelin/contracts/token/ERC721/ERC721.sol\";\n\ncontract LavaLamp is Ownable, ERC721 {\n  //using Counters for Counters.Counter;\n  //Counters.Counter private _tokenIds;\n\n  struct Metadata {\n    uint8 lava_count;\n\n    // 0 - 9 (None, blue, Green, light blue, orange, pink, purple, red, White, yerllow)\n\n    uint8 color_1;\n    uint8 color_2;\n    uint8 color_3;\n    uint8 color_4;\n\n    uint8 base; // 5 - (alien, rocket, more)\n    uint8 background; // 9 - (space, more)\n    uint8 sticker; // 5 - (star, lightning bolt, heart, diamond, planet)\n  }\n  mapping(uint256 => Metadata) id_to_lavalamp;\n\n  string private _currentBaseURI;\n\n  uint256 maxLamps = 7980;\n  uint256 lampCount = 0;\n  uint256 currentLampSet = 0;\n  uint256 numOfLampBlocks = 19;\n  uint256 lampSetSize = 399;\n\n  constructor() ERC721(\"LavaLamp\", \"LAVALAMP\") {\n    // must have the http portion in it\n    //https://peaceful-plains-52194.herokuapp.com\n    setBaseURI(\"http://www.superdorvil.tech/token/\");\n\n    mint();\n    mint();\n    mint();\n    mint();\n    mint();\n    mint();\n  }\n\n  function setBaseURI(string memory baseURI) public onlyOwner {\n    _currentBaseURI = baseURI;\n  }\n\n  function _baseURI() internal view virtual override returns (string memory) {\n    return _currentBaseURI;\n  }\n\n  function mint () internal {\n    uint256 tokenId = getId();\n    uint256 r;\n    uint256 lava_index = tokenId;\n    uint8 lava_count = 0;\n    uint8 color_1;\n    uint8 color_2;\n    uint8 color_3;\n    uint8 color_4;\n    uint8 base;\n    uint8 background;\n    uint8 sticker;\n\n    color_1 = uint8(lava_index % 10);\n    lava_index = (lava_index - color_1) / 10;\n    color_2 = uint8(lava_index % 10);\n    lava_index = (lava_index - color_2) / 10;\n    color_3 = uint8(lava_index % 10);\n    lava_index = (lava_index - color_3) / 10;\n    color_4 = uint8(lava_index % 10);\n    lava_index = (lava_index - color_4) / 10;\n\n    if (color_1 > 0) {\n      lava_count++;\n    }\n    if (color_2 > 0) {\n      lava_count++;\n    }\n    if (color_3 > 0) {\n      lava_count++;\n    }\n    if (color_4 > 0) {\n      lava_count++;\n    }\n\n    // bases\n    r = pseudoRNG(color_1, color_2, color_3, color_4, 0) % 1000000;\n    if (r < 200000) {\n        base = 0;\n    } else if (r < 400000) {\n        base = 1;\n    } else if (r < 600000) {\n        base = 2;\n    } else if (r < 800000) {\n        base = 3;\n    } else {\n        base = 4;\n    }\n\n    // background\n    r = pseudoRNG(color_1, color_2, color_3, color_4, r) % 1000000;\n    if (r < 111111) {\n        background = 0;\n    } else if (r < 222222) {\n        background = 1;\n    } else if (r < 333333) {\n        background = 2;\n    } else if (r < 444444) {\n        background = 3;\n    } else if (r < 555555) {\n        background = 4;\n    } else if (r < 666666) {\n        background = 5;\n    } else if (r < 777777) {\n        background = 6;\n    } else if (r < 888888) {\n        background = 7;\n    } else {\n        background = 8;\n    }\n\n    // sticker\n    r = pseudoRNG(color_1, color_2, color_3, color_4, r) % 1000000;\n    if (r < 20000) {\n        sticker = 9;\n    } else if (r < 50000) {\n        sticker = 8;\n    } else if (r < 100000) {\n        sticker = 7;\n    } else if (r < 170000) {\n        sticker = 6;\n    } else if (r < 260000) {\n        sticker = 5;\n    } else if (r < 370000) {\n        sticker = 4;\n    } else if (r < 500000) {\n        sticker = 3;\n    } else if (r < 650000) {\n        sticker = 2;\n    } else if (r < 820000) {\n        sticker = 1;\n    } else {\n        sticker = 0;\n    }\n\n    id_to_lavalamp[tokenId] = Metadata(lava_count, color_1, color_2, color_3, color_4, base, background, sticker);\n\n    _safeMint(msg.sender, tokenId);\n\n    incrementId();\n  }\n\n  function claim() external payable {\n    require(msg.value == 0.03 ether, \"claiming a lava lamp costs 30 finney\");\n\n    mint();\n\n    payable(owner()).transfer(0.03 ether);\n  }\n\n  function getId() internal view returns(uint256) {\n    uint256 j = currentLampSet;\n    uint256 randomLampBlock = randomizeLampBlock(j);\n    uint256 id = randomLampBlock * lampSetSize + lampCount;\n\n    return id;\n  }\n\n  function incrementId() internal {\n    if (currentLampSet < numOfLampBlocks) {\n      currentLampSet = currentLampSet + 1;\n    } else {\n      currentLampSet = 0;\n      lampCount = lampCount + 1;\n    }\n  }\n\n  function randomizeLampBlock(uint256 lampBlock) internal pure returns(uint256) {\n    uint256 randomLampBlock = 0;\n\n    if (lampBlock == 0) {\n      randomLampBlock = 3;\n    } else if (lampBlock == 1) {\n      randomLampBlock = 17;\n    } else if (lampBlock == 2) {\n      randomLampBlock = 10;\n    } else if (lampBlock == 3) {\n      randomLampBlock = 13;\n    } else if (lampBlock == 4) {\n      randomLampBlock = 18;\n    } else if (lampBlock == 5) {\n      randomLampBlock = 0;\n    } else if (lampBlock == 6) {\n      randomLampBlock = 4;\n    } else if (lampBlock == 7) {\n      randomLampBlock = 1;\n    } else if (lampBlock == 8) {\n      randomLampBlock = 6;\n    } else if (lampBlock == 9) {\n      randomLampBlock = 19;\n    } else if (lampBlock == 10) {\n      randomLampBlock = 8;\n    } else if (lampBlock == 11) {\n      randomLampBlock = 12;\n    } else if (lampBlock == 12) {\n      randomLampBlock = 2;\n    } else if (lampBlock == 13) {\n      randomLampBlock = 14;\n    } else if (lampBlock == 14) {\n      randomLampBlock = 11;\n    } else if (lampBlock == 15) {\n      randomLampBlock = 7;\n    } else if (lampBlock == 16) {\n      randomLampBlock = 15;\n    } else if (lampBlock == 17) {\n      randomLampBlock = 9;\n    } else if (lampBlock == 18) {\n      randomLampBlock = 5;\n    } else if (lampBlock == 19) {\n      randomLampBlock = 16;\n    }\n\n    return randomLampBlock;\n  }\n\n  function get(uint256 tokenId) external view returns(uint8[] memory) {\n    require(_exists(tokenId), \"token not minted\");\n    Metadata memory lavalamp = id_to_lavalamp[tokenId];\n    uint8[] memory meta = new uint8[](8);\n\n    meta[0] = lavalamp.lava_count;\n\n    meta[1] = lavalamp.color_1;\n    meta[2] = lavalamp.color_2;\n    meta[3] = lavalamp.color_3;\n    meta[4] = lavalamp.color_4;\n\n    meta[5] = lavalamp.base;\n    meta[6] = lavalamp.background;\n    meta[7] = lavalamp.sticker;\n\n    return meta;\n  }\n\n  /*function getAllTokens() public view returns (Metadata[] memory) {\n    uint256 lastestId = _tokenIds.current();\n    uint256 counter = 0;\n\n    Metadata[] memory meta = new Metadata[](lastestId);\n\n    for (uint256 i = 0; i < lastestId; i++) {\n      if (_exists(counter)) {\n        Metadata memory m = id_to_lavalamp[counter];\n        meta[counter] = m;\n      }\n\n      counter++;\n    }\n\n    return meta;\n  }*/\n\n  // psuedo_rng is the previous rng value, this is just top make sure we get something different everytime and don't use the same psuedo for the, base, sticker, and background\n  function pseudoRNG(uint8 color_1, uint8 color_2, uint8 color_3, uint8 color_4, uint256 prev_rng) internal view returns (uint256) {\n      return uint256(keccak256(abi.encode(block.timestamp, block.difficulty, color_1, color_2, color_3, color_4, prev_rng)));\n  }\n}\n",
  "sourcePath": "/Users/superdorvil/workspace/ReactWorkspace/PersonalProjects/lava-lamp-nft/contracts/LavaLamp.sol",
  "compiler": {
    "name": "solc",
    "version": "0.8.9+commit.e5eed63a.Emscripten.clang"
  },
  "schemaVersion": "3.4.3",
  "updatedAt": "2021-11-05T19:38:48.779Z",
  "networkType": "ethereum",
  "devdoc": {
    "kind": "dev",
    "methods": {
      "approve(address,uint256)": {
        "details": "See {IERC721-approve}."
      },
      "balanceOf(address)": {
        "details": "See {IERC721-balanceOf}."
      },
      "getApproved(uint256)": {
        "details": "See {IERC721-getApproved}."
      },
      "isApprovedForAll(address,address)": {
        "details": "See {IERC721-isApprovedForAll}."
      },
      "name()": {
        "details": "See {IERC721Metadata-name}."
      },
      "owner()": {
        "details": "Returns the address of the current owner."
      },
      "ownerOf(uint256)": {
        "details": "See {IERC721-ownerOf}."
      },
      "renounceOwnership()": {
        "details": "Leaves the contract without owner. It will not be possible to call `onlyOwner` functions anymore. Can only be called by the current owner. NOTE: Renouncing ownership will leave the contract without an owner, thereby removing any functionality that is only available to the owner."
      },
      "safeTransferFrom(address,address,uint256)": {
        "details": "See {IERC721-safeTransferFrom}."
      },
      "safeTransferFrom(address,address,uint256,bytes)": {
        "details": "See {IERC721-safeTransferFrom}."
      },
      "setApprovalForAll(address,bool)": {
        "details": "See {IERC721-setApprovalForAll}."
      },
      "supportsInterface(bytes4)": {
        "details": "See {IERC165-supportsInterface}."
      },
      "symbol()": {
        "details": "See {IERC721Metadata-symbol}."
      },
      "tokenURI(uint256)": {
        "details": "See {IERC721Metadata-tokenURI}."
      },
      "transferFrom(address,address,uint256)": {
        "details": "See {IERC721-transferFrom}."
      },
      "transferOwnership(address)": {
        "details": "Transfers ownership of the contract to a new account (`newOwner`). Can only be called by the current owner."
      }
    },
    "version": 1
  },
  "userdoc": {
    "kind": "user",
    "methods": {},
    "version": 1
  }
}