{
  "contractName": "LavaLamp",
  "abi": [
    {
      "inputs": [
        {
          "internalType": "string",
          "name": "_provenance",
          "type": "string"
        },
        {
          "internalType": "string",
          "name": "_currentBaseURI",
          "type": "string"
        }
      ],
      "stateMutability": "nonpayable",
      "type": "constructor"
    },
    {
      "anonymous": false,
      "inputs": [
        {
          "indexed": true,
          "internalType": "address",
          "name": "owner",
          "type": "address"
        },
        {
          "indexed": true,
          "internalType": "address",
          "name": "approved",
          "type": "address"
        },
        {
          "indexed": true,
          "internalType": "uint256",
          "name": "tokenId",
          "type": "uint256"
        }
      ],
      "name": "Approval",
      "type": "event"
    },
    {
      "anonymous": false,
      "inputs": [
        {
          "indexed": true,
          "internalType": "address",
          "name": "owner",
          "type": "address"
        },
        {
          "indexed": true,
          "internalType": "address",
          "name": "operator",
          "type": "address"
        },
        {
          "indexed": false,
          "internalType": "bool",
          "name": "approved",
          "type": "bool"
        }
      ],
      "name": "ApprovalForAll",
      "type": "event"
    },
    {
      "anonymous": false,
      "inputs": [
        {
          "indexed": true,
          "internalType": "address",
          "name": "previousOwner",
          "type": "address"
        },
        {
          "indexed": true,
          "internalType": "address",
          "name": "newOwner",
          "type": "address"
        }
      ],
      "name": "OwnershipTransferred",
      "type": "event"
    },
    {
      "anonymous": false,
      "inputs": [
        {
          "indexed": true,
          "internalType": "address",
          "name": "from",
          "type": "address"
        },
        {
          "indexed": true,
          "internalType": "address",
          "name": "to",
          "type": "address"
        },
        {
          "indexed": true,
          "internalType": "uint256",
          "name": "tokenId",
          "type": "uint256"
        }
      ],
      "name": "Transfer",
      "type": "event"
    },
    {
      "inputs": [
        {
          "internalType": "address",
          "name": "to",
          "type": "address"
        },
        {
          "internalType": "uint256",
          "name": "tokenId",
          "type": "uint256"
        }
      ],
      "name": "approve",
      "outputs": [],
      "stateMutability": "nonpayable",
      "type": "function"
    },
    {
      "inputs": [
        {
          "internalType": "address",
          "name": "owner",
          "type": "address"
        }
      ],
      "name": "balanceOf",
      "outputs": [
        {
          "internalType": "uint256",
          "name": "",
          "type": "uint256"
        }
      ],
      "stateMutability": "view",
      "type": "function",
      "constant": true
    },
    {
      "inputs": [
        {
          "internalType": "uint256",
          "name": "tokenId",
          "type": "uint256"
        }
      ],
      "name": "getApproved",
      "outputs": [
        {
          "internalType": "address",
          "name": "",
          "type": "address"
        }
      ],
      "stateMutability": "view",
      "type": "function",
      "constant": true
    },
    {
      "inputs": [
        {
          "internalType": "address",
          "name": "owner",
          "type": "address"
        },
        {
          "internalType": "address",
          "name": "operator",
          "type": "address"
        }
      ],
      "name": "isApprovedForAll",
      "outputs": [
        {
          "internalType": "bool",
          "name": "",
          "type": "bool"
        }
      ],
      "stateMutability": "view",
      "type": "function",
      "constant": true
    },
    {
      "inputs": [],
      "name": "name",
      "outputs": [
        {
          "internalType": "string",
          "name": "",
          "type": "string"
        }
      ],
      "stateMutability": "view",
      "type": "function",
      "constant": true
    },
    {
      "inputs": [],
      "name": "owner",
      "outputs": [
        {
          "internalType": "address",
          "name": "",
          "type": "address"
        }
      ],
      "stateMutability": "view",
      "type": "function",
      "constant": true
    },
    {
      "inputs": [
        {
          "internalType": "uint256",
          "name": "tokenId",
          "type": "uint256"
        }
      ],
      "name": "ownerOf",
      "outputs": [
        {
          "internalType": "address",
          "name": "",
          "type": "address"
        }
      ],
      "stateMutability": "view",
      "type": "function",
      "constant": true
    },
    {
      "inputs": [],
      "name": "provenance",
      "outputs": [
        {
          "internalType": "string",
          "name": "",
          "type": "string"
        }
      ],
      "stateMutability": "view",
      "type": "function",
      "constant": true
    },
    {
      "inputs": [],
      "name": "renounceOwnership",
      "outputs": [],
      "stateMutability": "nonpayable",
      "type": "function"
    },
    {
      "inputs": [
        {
          "internalType": "address",
          "name": "from",
          "type": "address"
        },
        {
          "internalType": "address",
          "name": "to",
          "type": "address"
        },
        {
          "internalType": "uint256",
          "name": "tokenId",
          "type": "uint256"
        }
      ],
      "name": "safeTransferFrom",
      "outputs": [],
      "stateMutability": "nonpayable",
      "type": "function"
    },
    {
      "inputs": [
        {
          "internalType": "address",
          "name": "from",
          "type": "address"
        },
        {
          "internalType": "address",
          "name": "to",
          "type": "address"
        },
        {
          "internalType": "uint256",
          "name": "tokenId",
          "type": "uint256"
        },
        {
          "internalType": "bytes",
          "name": "_data",
          "type": "bytes"
        }
      ],
      "name": "safeTransferFrom",
      "outputs": [],
      "stateMutability": "nonpayable",
      "type": "function"
    },
    {
      "inputs": [
        {
          "internalType": "address",
          "name": "operator",
          "type": "address"
        },
        {
          "internalType": "bool",
          "name": "approved",
          "type": "bool"
        }
      ],
      "name": "setApprovalForAll",
      "outputs": [],
      "stateMutability": "nonpayable",
      "type": "function"
    },
    {
      "inputs": [
        {
          "internalType": "bytes4",
          "name": "interfaceId",
          "type": "bytes4"
        }
      ],
      "name": "supportsInterface",
      "outputs": [
        {
          "internalType": "bool",
          "name": "",
          "type": "bool"
        }
      ],
      "stateMutability": "view",
      "type": "function",
      "constant": true
    },
    {
      "inputs": [],
      "name": "symbol",
      "outputs": [
        {
          "internalType": "string",
          "name": "",
          "type": "string"
        }
      ],
      "stateMutability": "view",
      "type": "function",
      "constant": true
    },
    {
      "inputs": [],
      "name": "totalSupply",
      "outputs": [
        {
          "internalType": "uint256",
          "name": "",
          "type": "uint256"
        }
      ],
      "stateMutability": "view",
      "type": "function",
      "constant": true
    },
    {
      "inputs": [
        {
          "internalType": "address",
          "name": "from",
          "type": "address"
        },
        {
          "internalType": "address",
          "name": "to",
          "type": "address"
        },
        {
          "internalType": "uint256",
          "name": "tokenId",
          "type": "uint256"
        }
      ],
      "name": "transferFrom",
      "outputs": [],
      "stateMutability": "nonpayable",
      "type": "function"
    },
    {
      "inputs": [
        {
          "internalType": "address",
          "name": "newOwner",
          "type": "address"
        }
      ],
      "name": "transferOwnership",
      "outputs": [],
      "stateMutability": "nonpayable",
      "type": "function"
    },
    {
      "inputs": [
        {
          "internalType": "string",
          "name": "baseURI",
          "type": "string"
        }
      ],
      "name": "setBaseURI",
      "outputs": [],
      "stateMutability": "nonpayable",
      "type": "function"
    },
    {
      "inputs": [
        {
          "internalType": "uint256",
          "name": "tokenId",
          "type": "uint256"
        }
      ],
      "name": "tokenURI",
      "outputs": [
        {
          "internalType": "string",
          "name": "",
          "type": "string"
        }
      ],
      "stateMutability": "view",
      "type": "function",
      "constant": true
    },
    {
      "inputs": [
        {
          "internalType": "uint256",
          "name": "mintAmount",
          "type": "uint256"
        }
      ],
      "name": "mint",
      "outputs": [],
      "stateMutability": "payable",
      "type": "function",
      "payable": true
    },
    {
      "inputs": [
        {
          "internalType": "address",
          "name": "owner",
          "type": "address"
        }
      ],
      "name": "getTokensOwnedBy",
      "outputs": [
        {
          "internalType": "bool[]",
          "name": "",
          "type": "bool[]"
        }
      ],
      "stateMutability": "view",
      "type": "function",
      "constant": true
    }
  ],
  "bytecode": "0x6080604052666a94d74f430000600955611f2c600a556014600b55734024b17b6fd2ac7a83bfe0c71970d23ee335bc40600c60006101000a81548173ffffffffffffffffffffffffffffffffffffffff021916908373ffffffffffffffffffffffffffffffffffffffff1602179055506000600d556000600e556000600f553480156200008b57600080fd5b5060405162003ead38038062003ead8339818101604052810190620000b1919062000590565b6040518060400160405280600881526020017f4c6176614c616d700000000000000000000000000000000000000000000000008152506040518060400160405280600881526020017f4c4156414c414d500000000000000000000000000000000000000000000000008152506200013d62000131620001a360201b60201c565b620001ab60201b60201c565b81600190805190602001906200015592919062000343565b5080600290805190602001906200016e92919062000343565b50505081600790805190602001906200018992919062000343565b506200019b816200026f60201b60201c565b5050620006fd565b600033905090565b60008060009054906101000a900473ffffffffffffffffffffffffffffffffffffffff169050816000806101000a81548173ffffffffffffffffffffffffffffffffffffffff021916908373ffffffffffffffffffffffffffffffffffffffff1602179055508173ffffffffffffffffffffffffffffffffffffffff168173ffffffffffffffffffffffffffffffffffffffff167f8be0079c531659141344cd1fd0a4f28419497f9722a3daafe3b4186f6b6457e060405160405180910390a35050565b6200027f620001a360201b60201c565b73ffffffffffffffffffffffffffffffffffffffff16620002a56200031a60201b60201c565b73ffffffffffffffffffffffffffffffffffffffff1614620002fe576040517f08c379a0000000000000000000000000000000000000000000000000000000008152600401620002f59062000676565b60405180910390fd5b80600890805190602001906200031692919062000343565b5050565b60008060009054906101000a900473ffffffffffffffffffffffffffffffffffffffff16905090565b8280546200035190620006c7565b90600052602060002090601f016020900481019282620003755760008555620003c1565b82601f106200039057805160ff1916838001178555620003c1565b82800160010185558215620003c1579182015b82811115620003c0578251825591602001919060010190620003a3565b5b509050620003d09190620003d4565b5090565b5b80821115620003ef576000816000905550600101620003d5565b5090565b6000604051905090565b600080fd5b600080fd5b600080fd5b600080fd5b6000601f19601f8301169050919050565b7f4e487b7100000000000000000000000000000000000000000000000000000000600052604160045260246000fd5b6200045c8262000411565b810181811067ffffffffffffffff821117156200047e576200047d62000422565b5b80604052505050565b600062000493620003f3565b9050620004a1828262000451565b919050565b600067ffffffffffffffff821115620004c457620004c362000422565b5b620004cf8262000411565b9050602081019050919050565b60005b83811015620004fc578082015181840152602081019050620004df565b838111156200050c576000848401525b50505050565b6000620005296200052384620004a6565b62000487565b9050828152602081018484840111156200054857620005476200040c565b5b62000555848285620004dc565b509392505050565b600082601f83011262000575576200057462000407565b5b81516200058784826020860162000512565b91505092915050565b60008060408385031215620005aa57620005a9620003fd565b5b600083015167ffffffffffffffff811115620005cb57620005ca62000402565b5b620005d9858286016200055d565b925050602083015167ffffffffffffffff811115620005fd57620005fc62000402565b5b6200060b858286016200055d565b9150509250929050565b600082825260208201905092915050565b7f4f776e61626c653a2063616c6c6572206973206e6f7420746865206f776e6572600082015250565b60006200065e60208362000615565b91506200066b8262000626565b602082019050919050565b6000602082019050818103600083015262000691816200064f565b9050919050565b7f4e487b7100000000000000000000000000000000000000000000000000000000600052602260045260246000fd5b60006002820490506001821680620006e057607f821691505b60208210811415620006f757620006f662000698565b5b50919050565b6137a0806200070d6000396000f3fe60806040526004361061012a5760003560e01c80636352211e116100ab578063a0712d681161006f578063a0712d68146103f2578063a22cb4651461040e578063b88d4fde14610437578063c87b56dd14610460578063e985e9c51461049d578063f2fde38b146104da5761012a565b80636352211e1461030b57806370a0823114610348578063715018a6146103855780638da5cb5b1461039c57806395d89b41146103c75761012a565b806318160ddd116100f257806318160ddd1461022857806323b872dd146102535780633d4392c01461027c57806342842e0e146102b957806355f804b3146102e25761012a565b806301ffc9a71461012f57806306fdde031461016c578063081812fc14610197578063095ea7b3146101d45780630f7309e8146101fd575b600080fd5b34801561013b57600080fd5b5061015660048036038101906101519190612266565b610503565b60405161016391906122ae565b60405180910390f35b34801561017857600080fd5b506101816105e5565b60405161018e9190612362565b60405180910390f35b3480156101a357600080fd5b506101be60048036038101906101b991906123ba565b610677565b6040516101cb9190612428565b60405180910390f35b3480156101e057600080fd5b506101fb60048036038101906101f6919061246f565b6106fc565b005b34801561020957600080fd5b50610212610814565b60405161021f9190612362565b60405180910390f35b34801561023457600080fd5b5061023d6108a2565b60405161024a91906124be565b60405180910390f35b34801561025f57600080fd5b5061027a600480360381019061027591906124d9565b6108a8565b005b34801561028857600080fd5b506102a3600480360381019061029e919061252c565b610908565b6040516102b09190612617565b60405180910390f35b3480156102c557600080fd5b506102e060048036038101906102db91906124d9565b610a1d565b005b3480156102ee57600080fd5b506103096004803603810190610304919061276e565b610a3d565b005b34801561031757600080fd5b50610332600480360381019061032d91906123ba565b610ad3565b60405161033f9190612428565b60405180910390f35b34801561035457600080fd5b5061036f600480360381019061036a919061252c565b610b85565b60405161037c91906124be565b60405180910390f35b34801561039157600080fd5b5061039a610c3d565b005b3480156103a857600080fd5b506103b1610cc5565b6040516103be9190612428565b60405180910390f35b3480156103d357600080fd5b506103dc610cee565b6040516103e99190612362565b60405180910390f35b61040c600480360381019061040791906123ba565b610d80565b005b34801561041a57600080fd5b50610435600480360381019061043091906127e3565b610f65565b005b34801561044357600080fd5b5061045e600480360381019061045991906128c4565b610f7b565b005b34801561046c57600080fd5b50610487600480360381019061048291906123ba565b610fdd565b6040516104949190612362565b60405180910390f35b3480156104a957600080fd5b506104c460048036038101906104bf9190612947565b611084565b6040516104d191906122ae565b60405180910390f35b3480156104e657600080fd5b5061050160048036038101906104fc919061252c565b611118565b005b60007f80ac58cd000000000000000000000000000000000000000000000000000000007bffffffffffffffffffffffffffffffffffffffffffffffffffffffff1916827bffffffffffffffffffffffffffffffffffffffffffffffffffffffff191614806105ce57507f5b5e139f000000000000000000000000000000000000000000000000000000007bffffffffffffffffffffffffffffffffffffffffffffffffffffffff1916827bffffffffffffffffffffffffffffffffffffffffffffffffffffffff1916145b806105de57506105dd82611210565b5b9050919050565b6060600180546105f4906129b6565b80601f0160208091040260200160405190810160405280929190818152602001828054610620906129b6565b801561066d5780601f106106425761010080835404028352916020019161066d565b820191906000526020600020905b81548152906001019060200180831161065057829003601f168201915b5050505050905090565b60006106828261127a565b6106c1576040517f08c379a00000000000000000000000000000000000000000000000000000000081526004016106b890612a5a565b60405180910390fd5b6005600083815260200190815260200160002060009054906101000a900473ffffffffffffffffffffffffffffffffffffffff169050919050565b600061070782610ad3565b90508073ffffffffffffffffffffffffffffffffffffffff168373ffffffffffffffffffffffffffffffffffffffff161415610778576040517f08c379a000000000000000000000000000000000000000000000000000000000815260040161076f90612aec565b60405180910390fd5b8073ffffffffffffffffffffffffffffffffffffffff166107976112e6565b73ffffffffffffffffffffffffffffffffffffffff1614806107c657506107c5816107c06112e6565b611084565b5b610805576040517f08c379a00000000000000000000000000000000000000000000000000000000081526004016107fc90612b7e565b60405180910390fd5b61080f83836112ee565b505050565b60078054610821906129b6565b80601f016020809104026020016040519081016040528092919081815260200182805461084d906129b6565b801561089a5780601f1061086f5761010080835404028352916020019161089a565b820191906000526020600020905b81548152906001019060200180831161087d57829003601f168201915b505050505081565b600f5481565b6108b96108b36112e6565b826113a7565b6108f8576040517f08c379a00000000000000000000000000000000000000000000000000000000081526004016108ef90612c10565b60405180910390fd5b610903838383611485565b505050565b60606000600a5467ffffffffffffffff81111561092857610927612643565b5b6040519080825280602002602001820160405280156109565781602001602082028036833780820191505090505b50905060005b600a54811015610a1357600082828151811061097b5761097a612c30565b5b6020026020010190151590811515815250506109968161127a565b15610a00578373ffffffffffffffffffffffffffffffffffffffff166109bb82610ad3565b73ffffffffffffffffffffffffffffffffffffffff1614156109ff5760018282815181106109ec576109eb612c30565b5b6020026020010190151590811515815250505b5b8080610a0b90612c8e565b91505061095c565b5080915050919050565b610a3883838360405180602001604052806000815250610f7b565b505050565b610a456112e6565b73ffffffffffffffffffffffffffffffffffffffff16610a63610cc5565b73ffffffffffffffffffffffffffffffffffffffff1614610ab9576040517f08c379a0000000000000000000000000000000000000000000000000000000008152600401610ab090612d23565b60405180910390fd5b8060089080519060200190610acf929190612157565b5050565b6000806003600084815260200190815260200160002060009054906101000a900473ffffffffffffffffffffffffffffffffffffffff169050600073ffffffffffffffffffffffffffffffffffffffff168173ffffffffffffffffffffffffffffffffffffffff161415610b7c576040517f08c379a0000000000000000000000000000000000000000000000000000000008152600401610b7390612db5565b60405180910390fd5b80915050919050565b60008073ffffffffffffffffffffffffffffffffffffffff168273ffffffffffffffffffffffffffffffffffffffff161415610bf6576040517f08c379a0000000000000000000000000000000000000000000000000000000008152600401610bed90612e47565b60405180910390fd5b600460008373ffffffffffffffffffffffffffffffffffffffff1673ffffffffffffffffffffffffffffffffffffffff168152602001908152602001600020549050919050565b610c456112e6565b73ffffffffffffffffffffffffffffffffffffffff16610c63610cc5565b73ffffffffffffffffffffffffffffffffffffffff1614610cb9576040517f08c379a0000000000000000000000000000000000000000000000000000000008152600401610cb090612d23565b60405180910390fd5b610cc360006116e1565b565b60008060009054906101000a900473ffffffffffffffffffffffffffffffffffffffff16905090565b606060028054610cfd906129b6565b80601f0160208091040260200160405190810160405280929190818152602001828054610d29906129b6565b8015610d765780601f10610d4b57610100808354040283529160200191610d76565b820191906000526020600020905b815481529060010190602001808311610d5957829003601f168201915b5050505050905090565b60008111610dc3576040517f08c379a0000000000000000000000000000000000000000000000000000000008152600401610dba90612eb3565b60405180910390fd5b600a5481600f54610dd49190612ed3565b1115610e15576040517f08c379a0000000000000000000000000000000000000000000000000000000008152600401610e0c90612f9b565b60405180910390fd5b600081600954610e259190612fbb565b9050610e2f610cc5565b73ffffffffffffffffffffffffffffffffffffffff163373ffffffffffffffffffffffffffffffffffffffff1614610e6f5780341015610e6e57600080fd5b5b6000600190505b828111610ec7576000610e876117a5565b9050610e9333826117e2565b610e9b611800565b600f6000815480929190610eae90612c8e565b9190505550508080610ebf90612c8e565b915050610e76565b506000600c60009054906101000a900473ffffffffffffffffffffffffffffffffffffffff1673ffffffffffffffffffffffffffffffffffffffff1647604051610f1090613046565b60006040518083038185875af1925050503d8060008114610f4d576040519150601f19603f3d011682016040523d82523d6000602084013e610f52565b606091505b5050905080610f6057600080fd5b505050565b610f77610f706112e6565b838361184b565b5050565b610f8c610f866112e6565b836113a7565b610fcb576040517f08c379a0000000000000000000000000000000000000000000000000000000008152600401610fc290612c10565b60405180910390fd5b610fd7848484846119b8565b50505050565b6060610fe88261127a565b611027576040517f08c379a000000000000000000000000000000000000000000000000000000000815260040161101e906130cd565b60405180910390fd5b6000611031611a14565b90506000815111611051576040518060200160405280600081525061107c565b8061105b84611aa6565b60405160200161106c929190613175565b6040516020818303038152906040525b915050919050565b6000600660008473ffffffffffffffffffffffffffffffffffffffff1673ffffffffffffffffffffffffffffffffffffffff16815260200190815260200160002060008373ffffffffffffffffffffffffffffffffffffffff1673ffffffffffffffffffffffffffffffffffffffff16815260200190815260200160002060009054906101000a900460ff16905092915050565b6111206112e6565b73ffffffffffffffffffffffffffffffffffffffff1661113e610cc5565b73ffffffffffffffffffffffffffffffffffffffff1614611194576040517f08c379a000000000000000000000000000000000000000000000000000000000815260040161118b90612d23565b60405180910390fd5b600073ffffffffffffffffffffffffffffffffffffffff168173ffffffffffffffffffffffffffffffffffffffff161415611204576040517f08c379a00000000000000000000000000000000000000000000000000000000081526004016111fb90613216565b60405180910390fd5b61120d816116e1565b50565b60007f01ffc9a7000000000000000000000000000000000000000000000000000000007bffffffffffffffffffffffffffffffffffffffffffffffffffffffff1916827bffffffffffffffffffffffffffffffffffffffffffffffffffffffff1916149050919050565b60008073ffffffffffffffffffffffffffffffffffffffff166003600084815260200190815260200160002060009054906101000a900473ffffffffffffffffffffffffffffffffffffffff1673ffffffffffffffffffffffffffffffffffffffff1614159050919050565b600033905090565b816005600083815260200190815260200160002060006101000a81548173ffffffffffffffffffffffffffffffffffffffff021916908373ffffffffffffffffffffffffffffffffffffffff160217905550808273ffffffffffffffffffffffffffffffffffffffff1661136183610ad3565b73ffffffffffffffffffffffffffffffffffffffff167f8c5be1e5ebec7d5bd14f71427d1e84f3dd0314c0f7b2291e5b200ac8c7c3b92560405160405180910390a45050565b60006113b28261127a565b6113f1576040517f08c379a00000000000000000000000000000000000000000000000000000000081526004016113e8906132a8565b60405180910390fd5b60006113fc83610ad3565b90508073ffffffffffffffffffffffffffffffffffffffff168473ffffffffffffffffffffffffffffffffffffffff16148061146b57508373ffffffffffffffffffffffffffffffffffffffff1661145384610677565b73ffffffffffffffffffffffffffffffffffffffff16145b8061147c575061147b8185611084565b5b91505092915050565b8273ffffffffffffffffffffffffffffffffffffffff166114a582610ad3565b73ffffffffffffffffffffffffffffffffffffffff16146114fb576040517f08c379a00000000000000000000000000000000000000000000000000000000081526004016114f29061333a565b60405180910390fd5b600073ffffffffffffffffffffffffffffffffffffffff168273ffffffffffffffffffffffffffffffffffffffff16141561156b576040517f08c379a0000000000000000000000000000000000000000000000000000000008152600401611562906133cc565b60405180910390fd5b611576838383611c07565b6115816000826112ee565b6001600460008573ffffffffffffffffffffffffffffffffffffffff1673ffffffffffffffffffffffffffffffffffffffff16815260200190815260200160002060008282546115d191906133ec565b925050819055506001600460008473ffffffffffffffffffffffffffffffffffffffff1673ffffffffffffffffffffffffffffffffffffffff16815260200190815260200160002060008282546116289190612ed3565b92505081905550816003600083815260200190815260200160002060006101000a81548173ffffffffffffffffffffffffffffffffffffffff021916908373ffffffffffffffffffffffffffffffffffffffff160217905550808273ffffffffffffffffffffffffffffffffffffffff168473ffffffffffffffffffffffffffffffffffffffff167fddf252ad1be2c89b69c2b068fc378daa952ba7f163c4a11628f55a4df523b3ef60405160405180910390a4505050565b60008060009054906101000a900473ffffffffffffffffffffffffffffffffffffffff169050816000806101000a81548173ffffffffffffffffffffffffffffffffffffffff021916908373ffffffffffffffffffffffffffffffffffffffff1602179055508173ffffffffffffffffffffffffffffffffffffffff168173ffffffffffffffffffffffffffffffffffffffff167f8be0079c531659141344cd1fd0a4f28419497f9722a3daafe3b4186f6b6457e060405160405180910390a35050565b60008061018f905060006117ba600e54611c0c565b90506000600d5483836117cd9190612fbb565b6117d79190612ed3565b905080935050505090565b6117fc828260405180602001604052806000815250611d93565b5050565b60006013905080600e54101561182a576001600e5461181f9190612ed3565b600e81905550611848565b6000600e819055506001600d546118419190612ed3565b600d819055505b50565b8173ffffffffffffffffffffffffffffffffffffffff168373ffffffffffffffffffffffffffffffffffffffff1614156118ba576040517f08c379a00000000000000000000000000000000000000000000000000000000081526004016118b19061346c565b60405180910390fd5b80600660008573ffffffffffffffffffffffffffffffffffffffff1673ffffffffffffffffffffffffffffffffffffffff16815260200190815260200160002060008473ffffffffffffffffffffffffffffffffffffffff1673ffffffffffffffffffffffffffffffffffffffff16815260200190815260200160002060006101000a81548160ff0219169083151502179055508173ffffffffffffffffffffffffffffffffffffffff168373ffffffffffffffffffffffffffffffffffffffff167f17307eab39ab6107e8899845ad3d59bd9653f200f220920489ca2b5937696c31836040516119ab91906122ae565b60405180910390a3505050565b6119c3848484611485565b6119cf84848484611dee565b611a0e576040517f08c379a0000000000000000000000000000000000000000000000000000000008152600401611a05906134fe565b60405180910390fd5b50505050565b606060088054611a23906129b6565b80601f0160208091040260200160405190810160405280929190818152602001828054611a4f906129b6565b8015611a9c5780601f10611a7157610100808354040283529160200191611a9c565b820191906000526020600020905b815481529060010190602001808311611a7f57829003601f168201915b5050505050905090565b60606000821415611aee576040518060400160405280600181526020017f30000000000000000000000000000000000000000000000000000000000000008152509050611c02565b600082905060005b60008214611b20578080611b0990612c8e565b915050600a82611b19919061354d565b9150611af6565b60008167ffffffffffffffff811115611b3c57611b3b612643565b5b6040519080825280601f01601f191660200182016040528015611b6e5781602001600182028036833780820191505090505b5090505b60008514611bfb57600182611b8791906133ec565b9150600a85611b96919061357e565b6030611ba29190612ed3565b60f81b818381518110611bb857611bb7612c30565b5b60200101907effffffffffffffffffffffffffffffffffffffffffffffffffffffffffffff1916908160001a905350600a85611bf4919061354d565b9450611b72565b8093505050505b919050565b505050565b600080600090506000831415611c255760039050611d8a565b6001831415611c375760119050611d89565b6002831415611c4957600a9050611d88565b6003831415611c5b57600d9050611d87565b6004831415611c6d5760129050611d86565b6005831415611c7f5760009050611d85565b6006831415611c915760049050611d84565b6007831415611ca35760019050611d83565b6008831415611cb55760069050611d82565b6009831415611cc75760139050611d81565b600a831415611cd95760089050611d80565b600b831415611ceb57600c9050611d7f565b600c831415611cfd5760029050611d7e565b600d831415611d0f57600e9050611d7d565b600e831415611d2157600b9050611d7c565b600f831415611d335760079050611d7b565b6010831415611d4557600f9050611d7a565b6011831415611d575760099050611d79565b6012831415611d695760059050611d78565b6013831415611d7757601090505b5b5b5b5b5b5b5b5b5b5b5b5b5b5b5b5b5b5b5b80915050919050565b611d9d8383611f76565b611daa6000848484611dee565b611de9576040517f08c379a0000000000000000000000000000000000000000000000000000000008152600401611de0906134fe565b60405180910390fd5b505050565b6000611e0f8473ffffffffffffffffffffffffffffffffffffffff16612144565b15611f69578373ffffffffffffffffffffffffffffffffffffffff1663150b7a02611e386112e6565b8786866040518563ffffffff1660e01b8152600401611e5a9493929190613604565b6020604051808303816000875af1925050508015611e9657506040513d601f19601f82011682018060405250810190611e939190613665565b60015b611f19573d8060008114611ec6576040519150601f19603f3d011682016040523d82523d6000602084013e611ecb565b606091505b50600081511415611f11576040517f08c379a0000000000000000000000000000000000000000000000000000000008152600401611f08906134fe565b60405180910390fd5b805181602001fd5b63150b7a0260e01b7bffffffffffffffffffffffffffffffffffffffffffffffffffffffff1916817bffffffffffffffffffffffffffffffffffffffffffffffffffffffff191614915050611f6e565b600190505b949350505050565b600073ffffffffffffffffffffffffffffffffffffffff168273ffffffffffffffffffffffffffffffffffffffff161415611fe6576040517f08c379a0000000000000000000000000000000000000000000000000000000008152600401611fdd906136de565b60405180910390fd5b611fef8161127a565b1561202f576040517f08c379a00000000000000000000000000000000000000000000000000000000081526004016120269061374a565b60405180910390fd5b61203b60008383611c07565b6001600460008473ffffffffffffffffffffffffffffffffffffffff1673ffffffffffffffffffffffffffffffffffffffff168152602001908152602001600020600082825461208b9190612ed3565b92505081905550816003600083815260200190815260200160002060006101000a81548173ffffffffffffffffffffffffffffffffffffffff021916908373ffffffffffffffffffffffffffffffffffffffff160217905550808273ffffffffffffffffffffffffffffffffffffffff16600073ffffffffffffffffffffffffffffffffffffffff167fddf252ad1be2c89b69c2b068fc378daa952ba7f163c4a11628f55a4df523b3ef60405160405180910390a45050565b600080823b905060008111915050919050565b828054612163906129b6565b90600052602060002090601f01602090048101928261218557600085556121cc565b82601f1061219e57805160ff19168380011785556121cc565b828001600101855582156121cc579182015b828111156121cb5782518255916020019190600101906121b0565b5b5090506121d991906121dd565b5090565b5b808211156121f65760008160009055506001016121de565b5090565b6000604051905090565b600080fd5b600080fd5b60007fffffffff0000000000000000000000000000000000000000000000000000000082169050919050565b6122438161220e565b811461224e57600080fd5b50565b6000813590506122608161223a565b92915050565b60006020828403121561227c5761227b612204565b5b600061228a84828501612251565b91505092915050565b60008115159050919050565b6122a881612293565b82525050565b60006020820190506122c3600083018461229f565b92915050565b600081519050919050565b600082825260208201905092915050565b60005b838110156123035780820151818401526020810190506122e8565b83811115612312576000848401525b50505050565b6000601f19601f8301169050919050565b6000612334826122c9565b61233e81856122d4565b935061234e8185602086016122e5565b61235781612318565b840191505092915050565b6000602082019050818103600083015261237c8184612329565b905092915050565b6000819050919050565b61239781612384565b81146123a257600080fd5b50565b6000813590506123b48161238e565b92915050565b6000602082840312156123d0576123cf612204565b5b60006123de848285016123a5565b91505092915050565b600073ffffffffffffffffffffffffffffffffffffffff82169050919050565b6000612412826123e7565b9050919050565b61242281612407565b82525050565b600060208201905061243d6000830184612419565b92915050565b61244c81612407565b811461245757600080fd5b50565b60008135905061246981612443565b92915050565b6000806040838503121561248657612485612204565b5b60006124948582860161245a565b92505060206124a5858286016123a5565b9150509250929050565b6124b881612384565b82525050565b60006020820190506124d360008301846124af565b92915050565b6000806000606084860312156124f2576124f1612204565b5b60006125008682870161245a565b93505060206125118682870161245a565b9250506040612522868287016123a5565b9150509250925092565b60006020828403121561254257612541612204565b5b60006125508482850161245a565b91505092915050565b600081519050919050565b600082825260208201905092915050565b6000819050602082019050919050565b61258e81612293565b82525050565b60006125a08383612585565b60208301905092915050565b6000602082019050919050565b60006125c482612559565b6125ce8185612564565b93506125d983612575565b8060005b8381101561260a5781516125f18882612594565b97506125fc836125ac565b9250506001810190506125dd565b5085935050505092915050565b6000602082019050818103600083015261263181846125b9565b905092915050565b600080fd5b600080fd5b7f4e487b7100000000000000000000000000000000000000000000000000000000600052604160045260246000fd5b61267b82612318565b810181811067ffffffffffffffff8211171561269a57612699612643565b5b80604052505050565b60006126ad6121fa565b90506126b98282612672565b919050565b600067ffffffffffffffff8211156126d9576126d8612643565b5b6126e282612318565b9050602081019050919050565b82818337600083830152505050565b600061271161270c846126be565b6126a3565b90508281526020810184848401111561272d5761272c61263e565b5b6127388482856126ef565b509392505050565b600082601f83011261275557612754612639565b5b81356127658482602086016126fe565b91505092915050565b60006020828403121561278457612783612204565b5b600082013567ffffffffffffffff8111156127a2576127a1612209565b5b6127ae84828501612740565b91505092915050565b6127c081612293565b81146127cb57600080fd5b50565b6000813590506127dd816127b7565b92915050565b600080604083850312156127fa576127f9612204565b5b60006128088582860161245a565b9250506020612819858286016127ce565b9150509250929050565b600067ffffffffffffffff82111561283e5761283d612643565b5b61284782612318565b9050602081019050919050565b600061286761286284612823565b6126a3565b9050828152602081018484840111156128835761288261263e565b5b61288e8482856126ef565b509392505050565b600082601f8301126128ab576128aa612639565b5b81356128bb848260208601612854565b91505092915050565b600080600080608085870312156128de576128dd612204565b5b60006128ec8782880161245a565b94505060206128fd8782880161245a565b935050604061290e878288016123a5565b925050606085013567ffffffffffffffff81111561292f5761292e612209565b5b61293b87828801612896565b91505092959194509250565b6000806040838503121561295e5761295d612204565b5b600061296c8582860161245a565b925050602061297d8582860161245a565b9150509250929050565b7f4e487b7100000000000000000000000000000000000000000000000000000000600052602260045260246000fd5b600060028204905060018216806129ce57607f821691505b602082108114156129e2576129e1612987565b5b50919050565b7f4552433732313a20617070726f76656420717565727920666f72206e6f6e657860008201527f697374656e7420746f6b656e0000000000000000000000000000000000000000602082015250565b6000612a44602c836122d4565b9150612a4f826129e8565b604082019050919050565b60006020820190508181036000830152612a7381612a37565b9050919050565b7f4552433732313a20617070726f76616c20746f2063757272656e74206f776e6560008201527f7200000000000000000000000000000000000000000000000000000000000000602082015250565b6000612ad66021836122d4565b9150612ae182612a7a565b604082019050919050565b60006020820190508181036000830152612b0581612ac9565b9050919050565b7f4552433732313a20617070726f76652063616c6c6572206973206e6f74206f7760008201527f6e6572206e6f7220617070726f76656420666f7220616c6c0000000000000000602082015250565b6000612b686038836122d4565b9150612b7382612b0c565b604082019050919050565b60006020820190508181036000830152612b9781612b5b565b9050919050565b7f4552433732313a207472616e736665722063616c6c6572206973206e6f74206f60008201527f776e6572206e6f7220617070726f766564000000000000000000000000000000602082015250565b6000612bfa6031836122d4565b9150612c0582612b9e565b604082019050919050565b60006020820190508181036000830152612c2981612bed565b9050919050565b7f4e487b7100000000000000000000000000000000000000000000000000000000600052603260045260246000fd5b7f4e487b7100000000000000000000000000000000000000000000000000000000600052601160045260246000fd5b6000612c9982612384565b91507fffffffffffffffffffffffffffffffffffffffffffffffffffffffffffffffff821415612ccc57612ccb612c5f565b5b600182019050919050565b7f4f776e61626c653a2063616c6c6572206973206e6f7420746865206f776e6572600082015250565b6000612d0d6020836122d4565b9150612d1882612cd7565b602082019050919050565b60006020820190508181036000830152612d3c81612d00565b9050919050565b7f4552433732313a206f776e657220717565727920666f72206e6f6e657869737460008201527f656e7420746f6b656e0000000000000000000000000000000000000000000000602082015250565b6000612d9f6029836122d4565b9150612daa82612d43565b604082019050919050565b60006020820190508181036000830152612dce81612d92565b9050919050565b7f4552433732313a2062616c616e636520717565727920666f7220746865207a6560008201527f726f206164647265737300000000000000000000000000000000000000000000602082015250565b6000612e31602a836122d4565b9150612e3c82612dd5565b604082019050919050565b60006020820190508181036000830152612e6081612e24565b9050919050565b7f6d696e7420616d6f756e742063616e6e6f742062652030000000000000000000600082015250565b6000612e9d6017836122d4565b9150612ea882612e67565b602082019050919050565b60006020820190508181036000830152612ecc81612e90565b9050919050565b6000612ede82612384565b9150612ee983612384565b9250827fffffffffffffffffffffffffffffffffffffffffffffffffffffffffffffffff03821115612f1e57612f1d612c5f565b5b828201905092915050565b7f6d696e74696e672077696c6c20676f206f76657220746f74616c20737570706c60008201527f79206f662037393830206c616d70730000000000000000000000000000000000602082015250565b6000612f85602f836122d4565b9150612f9082612f29565b604082019050919050565b60006020820190508181036000830152612fb481612f78565b9050919050565b6000612fc682612384565b9150612fd183612384565b9250817fffffffffffffffffffffffffffffffffffffffffffffffffffffffffffffffff048311821515161561300a57613009612c5f565b5b828202905092915050565b600081905092915050565b50565b6000613030600083613015565b915061303b82613020565b600082019050919050565b600061305182613023565b9150819050919050565b7f4552433732314d657461646174613a2055524920717565727920666f72206e6f60008201527f6e6578697374656e7420746f6b656e0000000000000000000000000000000000602082015250565b60006130b7602f836122d4565b91506130c28261305b565b604082019050919050565b600060208201905081810360008301526130e6816130aa565b9050919050565b600081905092915050565b6000613103826122c9565b61310d81856130ed565b935061311d8185602086016122e5565b80840191505092915050565b7f2e6a736f6e000000000000000000000000000000000000000000000000000000600082015250565b600061315f6005836130ed565b915061316a82613129565b600582019050919050565b600061318182856130f8565b915061318d82846130f8565b915061319882613152565b91508190509392505050565b7f4f776e61626c653a206e6577206f776e657220697320746865207a65726f206160008201527f6464726573730000000000000000000000000000000000000000000000000000602082015250565b60006132006026836122d4565b915061320b826131a4565b604082019050919050565b6000602082019050818103600083015261322f816131f3565b9050919050565b7f4552433732313a206f70657261746f7220717565727920666f72206e6f6e657860008201527f697374656e7420746f6b656e0000000000000000000000000000000000000000602082015250565b6000613292602c836122d4565b915061329d82613236565b604082019050919050565b600060208201905081810360008301526132c181613285565b9050919050565b7f4552433732313a207472616e73666572206f6620746f6b656e2074686174206960008201527f73206e6f74206f776e0000000000000000000000000000000000000000000000602082015250565b60006133246029836122d4565b915061332f826132c8565b604082019050919050565b6000602082019050818103600083015261335381613317565b9050919050565b7f4552433732313a207472616e7366657220746f20746865207a65726f2061646460008201527f7265737300000000000000000000000000000000000000000000000000000000602082015250565b60006133b66024836122d4565b91506133c18261335a565b604082019050919050565b600060208201905081810360008301526133e5816133a9565b9050919050565b60006133f782612384565b915061340283612384565b92508282101561341557613414612c5f565b5b828203905092915050565b7f4552433732313a20617070726f766520746f2063616c6c657200000000000000600082015250565b60006134566019836122d4565b915061346182613420565b602082019050919050565b6000602082019050818103600083015261348581613449565b9050919050565b7f4552433732313a207472616e7366657220746f206e6f6e20455243373231526560008201527f63656976657220696d706c656d656e7465720000000000000000000000000000602082015250565b60006134e86032836122d4565b91506134f38261348c565b604082019050919050565b60006020820190508181036000830152613517816134db565b9050919050565b7f4e487b7100000000000000000000000000000000000000000000000000000000600052601260045260246000fd5b600061355882612384565b915061356383612384565b9250826135735761357261351e565b5b828204905092915050565b600061358982612384565b915061359483612384565b9250826135a4576135a361351e565b5b828206905092915050565b600081519050919050565b600082825260208201905092915050565b60006135d6826135af565b6135e081856135ba565b93506135f08185602086016122e5565b6135f981612318565b840191505092915050565b60006080820190506136196000830187612419565b6136266020830186612419565b61363360408301856124af565b818103606083015261364581846135cb565b905095945050505050565b60008151905061365f8161223a565b92915050565b60006020828403121561367b5761367a612204565b5b600061368984828501613650565b91505092915050565b7f4552433732313a206d696e7420746f20746865207a65726f2061646472657373600082015250565b60006136c86020836122d4565b91506136d382613692565b602082019050919050565b600060208201905081810360008301526136f7816136bb565b9050919050565b7f4552433732313a20746f6b656e20616c7265616479206d696e74656400000000600082015250565b6000613734601c836122d4565b915061373f826136fe565b602082019050919050565b6000602082019050818103600083015261376381613727565b905091905056fea2646970667358221220d8dbcb53c8531ea71f4037beac983ecd8f9df51a2d5bccca6aacc3bf1aff9df964736f6c634300080b0033",
  "immutableReferences": {},
  "source": "// SPDX-License-Identifier: MIT\npragma solidity >=0.4.22 <0.9.0;\n\nimport \"@openzeppelin/contracts/access/Ownable.sol\";\nimport \"@openzeppelin/contracts/token/ERC721/ERC721.sol\";\n\ncontract LavaLamp is Ownable, ERC721 {\n    using Strings for uint256;\n    string public provenance;\n    string private currentBaseURI;\n\n    uint256 private cost = 0.03 ether;\n    uint256 private maxSupply = 7980;\n    uint256 private maxMintAmount = 20;\n    address private lavaLampsEth = 0x4024b17b6fD2AC7a83bfE0c71970D23eE335BC40;\n\n    // used to semi-randomize the id's that are minted\n    uint256 private lampCount = 0;\n    uint256 private currentLampSet = 0;\n    uint256 public totalSupply = 0;\n\n    constructor(string memory _provenance, string memory _currentBaseURI) ERC721(\"LavaLamp\", \"LAVALAMP\") {\n        provenance = _provenance;\n        setBaseURI(_currentBaseURI);\n    }\n\n    function setBaseURI(string memory baseURI) public onlyOwner {\n        currentBaseURI = baseURI;\n    }\n\n    function _baseURI() internal view virtual override returns (string memory) {\n        return currentBaseURI;\n    }\n\n    function tokenURI(uint256 tokenId) public view virtual override returns (string memory) {\n        require(_exists(tokenId), \"ERC721Metadata: URI query for nonexistent token\");\n\n        string memory curBaseURI = _baseURI();\n\n        return bytes(curBaseURI).length > 0\n            ? string(abi.encodePacked(curBaseURI, tokenId.toString(), '.json'))\n            : \"\";\n    }\n\n    function mint(uint256 mintAmount) public payable {\n        require(mintAmount > 0, 'mint amount cannot be 0');\n        //require(mintAmount <= maxMintAmount, 'mint amount cannot be greater than 20');\n        require(totalSupply + mintAmount <= maxSupply, 'minting will go over total supply of 7980 lamps');\n        uint256 price = cost * mintAmount;\n\n        if (msg.sender != owner())\n            require(msg.value >= price);\n\n        for (uint256 i = 1; i <= mintAmount; i++) {\n            uint256 tokenId = getId();\n            _safeMint(msg.sender, tokenId);\n            incrementId();\n            totalSupply++;\n        }\n\n        (bool success, ) = payable(lavaLampsEth).call{value: address(this).balance}(\"\");\n        require(success);\n    }\n\n    function getId() internal view returns(uint256) {\n        uint256 lampSetSize = 399;\n        uint256 randomLampBlock = randomizeLampBlock(currentLampSet);\n        uint256 id = randomLampBlock * lampSetSize + lampCount;\n\n        return id;\n    }\n\n    // A hack to semi randomize which lamps people purchase.\n    // If someone buys 20 lamps they won't get them in sequential order\n    function incrementId() internal {\n        uint256 numOfLampBlocks = 19;\n\n        if (currentLampSet < numOfLampBlocks) {\n            currentLampSet = currentLampSet + 1;\n        } else {\n            currentLampSet = 0;\n            lampCount = lampCount + 1;\n        }\n    }\n\n    function randomizeLampBlock(uint256 lampBlock) internal pure returns(uint256) {\n        uint256 randomLampBlock = 0;\n\n        if (lampBlock == 0)\n            randomLampBlock = 3;\n        else if (lampBlock == 1)\n            randomLampBlock = 17;\n        else if (lampBlock == 2)\n            randomLampBlock = 10;\n        else if (lampBlock == 3)\n            randomLampBlock = 13;\n        else if (lampBlock == 4)\n            randomLampBlock = 18;\n        else if (lampBlock == 5)\n            randomLampBlock = 0;\n        else if (lampBlock == 6)\n            randomLampBlock = 4;\n        else if (lampBlock == 7)\n            randomLampBlock = 1;\n        else if (lampBlock == 8)\n            randomLampBlock = 6;\n        else if (lampBlock == 9)\n            randomLampBlock = 19;\n        else if (lampBlock == 10)\n            randomLampBlock = 8;\n        else if (lampBlock == 11)\n            randomLampBlock = 12;\n        else if (lampBlock == 12)\n            randomLampBlock = 2;\n        else if (lampBlock == 13)\n            randomLampBlock = 14;\n        else if (lampBlock == 14)\n            randomLampBlock = 11;\n        else if (lampBlock == 15)\n            randomLampBlock = 7;\n        else if (lampBlock == 16)\n            randomLampBlock = 15;\n        else if (lampBlock == 17)\n            randomLampBlock = 9;\n        else if (lampBlock == 18)\n            randomLampBlock = 5;\n        else if (lampBlock == 19)\n            randomLampBlock = 16;\n\n        return randomLampBlock;\n    }\n\n    // returns a boolean array of all all possible lamps\n    // every index that is true is a tokenID that is owned by the account\n    function getTokensOwnedBy(address owner) external view returns (bool[] memory) {\n        bool[] memory tokenIds = new bool[](maxSupply);\n\n        for (uint256 i = 0; i < maxSupply; i++) {\n            tokenIds[i] = false; // don't need this, defaults to bool\n\n            if (_exists(i)) {\n                if (ownerOf(i) == owner) {\n                    tokenIds[i] = true;\n                }\n            }\n        }\n\n        return tokenIds;\n    }\n}\n",
  "sourcePath": "/Users/superdorvil/workspace/ReactWorkspace/PersonalProjects/lava-lamp-nft/contracts/LavaLamp.sol",
  "compiler": {
    "name": "solc",
    "version": "0.8.11+commit.d7f03943.Emscripten.clang"
  },
  "schemaVersion": "3.4.3",
  "updatedAt": "2022-02-02T20:40:55.536Z",
  "networkType": "ethereum",
  "devdoc": {
    "kind": "dev",
    "methods": {
      "approve(address,uint256)": {
        "details": "See {IERC721-approve}."
      },
      "balanceOf(address)": {
        "details": "See {IERC721-balanceOf}."
      },
      "getApproved(uint256)": {
        "details": "See {IERC721-getApproved}."
      },
      "isApprovedForAll(address,address)": {
        "details": "See {IERC721-isApprovedForAll}."
      },
      "name()": {
        "details": "See {IERC721Metadata-name}."
      },
      "owner()": {
        "details": "Returns the address of the current owner."
      },
      "ownerOf(uint256)": {
        "details": "See {IERC721-ownerOf}."
      },
      "renounceOwnership()": {
        "details": "Leaves the contract without owner. It will not be possible to call `onlyOwner` functions anymore. Can only be called by the current owner. NOTE: Renouncing ownership will leave the contract without an owner, thereby removing any functionality that is only available to the owner."
      },
      "safeTransferFrom(address,address,uint256)": {
        "details": "See {IERC721-safeTransferFrom}."
      },
      "safeTransferFrom(address,address,uint256,bytes)": {
        "details": "See {IERC721-safeTransferFrom}."
      },
      "setApprovalForAll(address,bool)": {
        "details": "See {IERC721-setApprovalForAll}."
      },
      "supportsInterface(bytes4)": {
        "details": "See {IERC165-supportsInterface}."
      },
      "symbol()": {
        "details": "See {IERC721Metadata-symbol}."
      },
      "tokenURI(uint256)": {
        "details": "See {IERC721Metadata-tokenURI}."
      },
      "transferFrom(address,address,uint256)": {
        "details": "See {IERC721-transferFrom}."
      },
      "transferOwnership(address)": {
        "details": "Transfers ownership of the contract to a new account (`newOwner`). Can only be called by the current owner."
      }
    },
    "version": 1
  },
  "userdoc": {
    "kind": "user",
    "methods": {},
    "version": 1
  }
}