{
  "contractName": "LavaLamp",
  "abi": [
    {
      "inputs": [],
      "stateMutability": "nonpayable",
      "type": "constructor"
    },
    {
      "anonymous": false,
      "inputs": [
        {
          "indexed": true,
          "internalType": "address",
          "name": "owner",
          "type": "address"
        },
        {
          "indexed": true,
          "internalType": "address",
          "name": "approved",
          "type": "address"
        },
        {
          "indexed": true,
          "internalType": "uint256",
          "name": "tokenId",
          "type": "uint256"
        }
      ],
      "name": "Approval",
      "type": "event"
    },
    {
      "anonymous": false,
      "inputs": [
        {
          "indexed": true,
          "internalType": "address",
          "name": "owner",
          "type": "address"
        },
        {
          "indexed": true,
          "internalType": "address",
          "name": "operator",
          "type": "address"
        },
        {
          "indexed": false,
          "internalType": "bool",
          "name": "approved",
          "type": "bool"
        }
      ],
      "name": "ApprovalForAll",
      "type": "event"
    },
    {
      "anonymous": false,
      "inputs": [
        {
          "indexed": true,
          "internalType": "address",
          "name": "previousOwner",
          "type": "address"
        },
        {
          "indexed": true,
          "internalType": "address",
          "name": "newOwner",
          "type": "address"
        }
      ],
      "name": "OwnershipTransferred",
      "type": "event"
    },
    {
      "anonymous": false,
      "inputs": [
        {
          "indexed": true,
          "internalType": "address",
          "name": "from",
          "type": "address"
        },
        {
          "indexed": true,
          "internalType": "address",
          "name": "to",
          "type": "address"
        },
        {
          "indexed": true,
          "internalType": "uint256",
          "name": "tokenId",
          "type": "uint256"
        }
      ],
      "name": "Transfer",
      "type": "event"
    },
    {
      "inputs": [
        {
          "internalType": "address",
          "name": "to",
          "type": "address"
        },
        {
          "internalType": "uint256",
          "name": "tokenId",
          "type": "uint256"
        }
      ],
      "name": "approve",
      "outputs": [],
      "stateMutability": "nonpayable",
      "type": "function"
    },
    {
      "inputs": [
        {
          "internalType": "address",
          "name": "owner",
          "type": "address"
        }
      ],
      "name": "balanceOf",
      "outputs": [
        {
          "internalType": "uint256",
          "name": "",
          "type": "uint256"
        }
      ],
      "stateMutability": "view",
      "type": "function",
      "constant": true
    },
    {
      "inputs": [
        {
          "internalType": "uint256",
          "name": "tokenId",
          "type": "uint256"
        }
      ],
      "name": "getApproved",
      "outputs": [
        {
          "internalType": "address",
          "name": "",
          "type": "address"
        }
      ],
      "stateMutability": "view",
      "type": "function",
      "constant": true
    },
    {
      "inputs": [
        {
          "internalType": "address",
          "name": "owner",
          "type": "address"
        },
        {
          "internalType": "address",
          "name": "operator",
          "type": "address"
        }
      ],
      "name": "isApprovedForAll",
      "outputs": [
        {
          "internalType": "bool",
          "name": "",
          "type": "bool"
        }
      ],
      "stateMutability": "view",
      "type": "function",
      "constant": true
    },
    {
      "inputs": [],
      "name": "name",
      "outputs": [
        {
          "internalType": "string",
          "name": "",
          "type": "string"
        }
      ],
      "stateMutability": "view",
      "type": "function",
      "constant": true
    },
    {
      "inputs": [],
      "name": "owner",
      "outputs": [
        {
          "internalType": "address",
          "name": "",
          "type": "address"
        }
      ],
      "stateMutability": "view",
      "type": "function",
      "constant": true
    },
    {
      "inputs": [
        {
          "internalType": "uint256",
          "name": "tokenId",
          "type": "uint256"
        }
      ],
      "name": "ownerOf",
      "outputs": [
        {
          "internalType": "address",
          "name": "",
          "type": "address"
        }
      ],
      "stateMutability": "view",
      "type": "function",
      "constant": true
    },
    {
      "inputs": [],
      "name": "renounceOwnership",
      "outputs": [],
      "stateMutability": "nonpayable",
      "type": "function"
    },
    {
      "inputs": [
        {
          "internalType": "address",
          "name": "from",
          "type": "address"
        },
        {
          "internalType": "address",
          "name": "to",
          "type": "address"
        },
        {
          "internalType": "uint256",
          "name": "tokenId",
          "type": "uint256"
        }
      ],
      "name": "safeTransferFrom",
      "outputs": [],
      "stateMutability": "nonpayable",
      "type": "function"
    },
    {
      "inputs": [
        {
          "internalType": "address",
          "name": "from",
          "type": "address"
        },
        {
          "internalType": "address",
          "name": "to",
          "type": "address"
        },
        {
          "internalType": "uint256",
          "name": "tokenId",
          "type": "uint256"
        },
        {
          "internalType": "bytes",
          "name": "_data",
          "type": "bytes"
        }
      ],
      "name": "safeTransferFrom",
      "outputs": [],
      "stateMutability": "nonpayable",
      "type": "function"
    },
    {
      "inputs": [
        {
          "internalType": "address",
          "name": "operator",
          "type": "address"
        },
        {
          "internalType": "bool",
          "name": "approved",
          "type": "bool"
        }
      ],
      "name": "setApprovalForAll",
      "outputs": [],
      "stateMutability": "nonpayable",
      "type": "function"
    },
    {
      "inputs": [],
      "name": "symbol",
      "outputs": [
        {
          "internalType": "string",
          "name": "",
          "type": "string"
        }
      ],
      "stateMutability": "view",
      "type": "function",
      "constant": true
    },
    {
      "inputs": [
        {
          "internalType": "uint256",
          "name": "index",
          "type": "uint256"
        }
      ],
      "name": "tokenByIndex",
      "outputs": [
        {
          "internalType": "uint256",
          "name": "",
          "type": "uint256"
        }
      ],
      "stateMutability": "view",
      "type": "function",
      "constant": true
    },
    {
      "inputs": [
        {
          "internalType": "address",
          "name": "owner",
          "type": "address"
        },
        {
          "internalType": "uint256",
          "name": "index",
          "type": "uint256"
        }
      ],
      "name": "tokenOfOwnerByIndex",
      "outputs": [
        {
          "internalType": "uint256",
          "name": "",
          "type": "uint256"
        }
      ],
      "stateMutability": "view",
      "type": "function",
      "constant": true
    },
    {
      "inputs": [
        {
          "internalType": "uint256",
          "name": "tokenId",
          "type": "uint256"
        }
      ],
      "name": "tokenURI",
      "outputs": [
        {
          "internalType": "string",
          "name": "",
          "type": "string"
        }
      ],
      "stateMutability": "view",
      "type": "function",
      "constant": true
    },
    {
      "inputs": [],
      "name": "totalSupply",
      "outputs": [
        {
          "internalType": "uint256",
          "name": "",
          "type": "uint256"
        }
      ],
      "stateMutability": "view",
      "type": "function",
      "constant": true
    },
    {
      "inputs": [
        {
          "internalType": "address",
          "name": "from",
          "type": "address"
        },
        {
          "internalType": "address",
          "name": "to",
          "type": "address"
        },
        {
          "internalType": "uint256",
          "name": "tokenId",
          "type": "uint256"
        }
      ],
      "name": "transferFrom",
      "outputs": [],
      "stateMutability": "nonpayable",
      "type": "function"
    },
    {
      "inputs": [
        {
          "internalType": "address",
          "name": "newOwner",
          "type": "address"
        }
      ],
      "name": "transferOwnership",
      "outputs": [],
      "stateMutability": "nonpayable",
      "type": "function"
    },
    {
      "inputs": [
        {
          "internalType": "bytes4",
          "name": "interfaceId",
          "type": "bytes4"
        }
      ],
      "name": "supportsInterface",
      "outputs": [
        {
          "internalType": "bool",
          "name": "",
          "type": "bool"
        }
      ],
      "stateMutability": "view",
      "type": "function",
      "constant": true
    },
    {
      "inputs": [
        {
          "internalType": "string",
          "name": "baseURI",
          "type": "string"
        }
      ],
      "name": "setBaseURI",
      "outputs": [],
      "stateMutability": "nonpayable",
      "type": "function"
    },
    {
      "inputs": [
        {
          "internalType": "uint256",
          "name": "mintAmount",
          "type": "uint256"
        }
      ],
      "name": "claim",
      "outputs": [],
      "stateMutability": "payable",
      "type": "function",
      "payable": true
    },
    {
      "inputs": [
        {
          "internalType": "uint256",
          "name": "tokenId",
          "type": "uint256"
        }
      ],
      "name": "get",
      "outputs": [
        {
          "internalType": "uint8[]",
          "name": "",
          "type": "uint8[]"
        }
      ],
      "stateMutability": "view",
      "type": "function",
      "constant": true
    }
  ],
  "bytecode": "0x6080604052611f2c600d55666a94d74f430000600e556014600f5560006010556000601155601360125561018f6013553480156200003c57600080fd5b506040518060400160405280600881526020017f4c6176614c616d700000000000000000000000000000000000000000000000008152506040518060400160405280600881526020017f4c4156414c414d50000000000000000000000000000000000000000000000000815250620000c9620000bd6200017d60201b60201c565b6200018560201b60201c565b8160019080519060200190620000e1929190620017dd565b508060029080519060200190620000fa929190620017dd565b505050620001436040518060400160405280601c81526020017f687474703a2f2f6c6f63616c686f73743a333030302f746f6b656e2f000000008152506200024960201b60201c565b60005b6002811215620001765762000160620002f460201b60201c565b80806200016d9062001941565b91505062000146565b50620020f6565b600033905090565b60008060009054906101000a900473ffffffffffffffffffffffffffffffffffffffff169050816000806101000a81548173ffffffffffffffffffffffffffffffffffffffff021916908373ffffffffffffffffffffffffffffffffffffffff1602179055508173ffffffffffffffffffffffffffffffffffffffff168173ffffffffffffffffffffffffffffffffffffffff167f8be0079c531659141344cd1fd0a4f28419497f9722a3daafe3b4186f6b6457e060405160405180910390a35050565b620002596200017d60201b60201c565b73ffffffffffffffffffffffffffffffffffffffff166200027f6200081760201b60201c565b73ffffffffffffffffffffffffffffffffffffffff1614620002d8576040517f08c379a0000000000000000000000000000000000000000000000000000000008152600401620002cf90620019f0565b60405180910390fd5b80600c9080519060200190620002f0929190620017dd565b5050565b620002fe6200186e565b6000620003106200084060201b60201c565b9050600081905060008060009050600080600080600a8762000333919062001a4b565b9050600a8160ff168862000348919062001a83565b62000354919062001abe565b9650600a8762000365919062001a4b565b9150600a8260ff16886200037a919062001a83565b62000386919062001abe565b9650600a8762000397919062001a4b565b9250600a8360ff1688620003ac919062001a83565b620003b8919062001abe565b9650600a87620003c9919062001a4b565b9350600a8460ff1688620003de919062001a83565b620003ea919062001abe565b965060008160ff1611156200040a578480620004069062001b03565b9550505b60008260ff16111562000428578480620004249062001b03565b9550505b60008360ff16111562000446578480620004429062001b03565b9550505b60008460ff16111562000464578480620004609062001b03565b9550505b84896080019060ff16908160ff1681525050838960a0019060ff16908160ff1681525050828960c0019060ff16908160ff1681525050818960e0019060ff16908160ff16815250508089610100019060ff16908160ff1681525050620f4240620004d589886200088960201b60201c565b620004e1919062001a4b565b9550620004f486620008c560201b60201c565b896000019060ff16908160ff1681525050620f42406200051b89886200088960201b60201c565b62000527919062001a4b565b95506200053a866200091a60201b60201c565b896020019060ff16908160ff1681525050620f42406200056189886200088960201b60201c565b6200056d919062001a4b565b95506200058086620009f960201b60201c565b896040019060ff16908160ff1681525050620f4240620005a789886200088960201b60201c565b620005b3919062001a4b565b9550620005c68662000a7c60201b60201c565b896060019060ff16908160ff1681525050620f4240620005ed89886200088960201b60201c565b620005f9919062001a4b565b95506200060c8662000aa360201b60201c565b89610120019060ff16908160ff1681525050620f42406200063489886200088960201b60201c565b62000640919062001a4b565b9550620006538662000b6b60201b60201c565b89610140019060ff16908160ff168152505088600b60008a815260200190815260200160002060008201518160000160006101000a81548160ff021916908360ff16021790555060208201518160000160016101000a81548160ff021916908360ff16021790555060408201518160000160026101000a81548160ff021916908360ff16021790555060608201518160000160036101000a81548160ff021916908360ff16021790555060808201518160000160046101000a81548160ff021916908360ff16021790555060a08201518160000160056101000a81548160ff021916908360ff16021790555060c08201518160000160066101000a81548160ff021916908360ff16021790555060e08201518160000160076101000a81548160ff021916908360ff1602179055506101008201518160000160086101000a81548160ff021916908360ff1602179055506101208201518160000160096101000a81548160ff021916908360ff16021790555061014082015181600001600a6101000a81548160ff021916908360ff160217905550905050620007fc338962000bee60201b60201c565b6200080c62000c1460201b60201c565b505050505050505050565b60008060009054906101000a900473ffffffffffffffffffffffffffffffffffffffff16905090565b600080601154905060006200085b8262000c6060201b60201c565b905060006010546013548362000872919062001b32565b6200087e919062001b93565b905080935050505090565b600042448484604051602001620008a4949392919062001c01565b6040516020818303038152906040528051906020012060001c905092915050565b6000806203d090831015620008de576000905062000911565b6207a120831015620008f4576001905062000910565b620b71b08310156200090a57600290506200090f565b600390505b5b5b80915050919050565b600080620186a0831015620009335760009050620009f0565b62030d40831015620009495760019050620009ef565b620493e08310156200095f5760029050620009ee565b62061a80831015620009755760039050620009ed565b6207a1208310156200098b5760049050620009ec565b620927c0831015620009a15760059050620009eb565b620aae60831015620009b75760069050620009ea565b620c3500831015620009cd5760079050620009e9565b620dbba0831015620009e35760089050620009e8565b600990505b5b5b5b5b5b5b5b5b80915050919050565b60008062028b0a83101562000a12576000905062000a73565b6205161483101562000a28576001905062000a72565b6207a11e83101562000a3e576002905062000a71565b620a2c2883101562000a54576003905062000a70565b620cb73283101562000a6a576004905062000a6f565b600590505b5b5b5b5b80915050919050565b6000806207a12083101562000a95576000905062000a9a565b600190505b80915050919050565b6000806201b20783101562000abc576000905062000b62565b6203640e83101562000ad2576001905062000b61565b6205161583101562000ae8576002905062000b60565b6206c81c83101562000afe576003905062000b5f565b62087a2383101562000b14576004905062000b5e565b620a2c2a83101562000b2a576005905062000b5d565b620bde3183101562000b40576006905062000b5c565b620d903883101562000b56576007905062000b5b565b600890505b5b5b5b5b5b5b5b80915050919050565b60008062028b0a83101562000b84576000905062000be5565b6205161483101562000b9a576001905062000be4565b6207a11e83101562000bb0576002905062000be3565b620a2c2883101562000bc6576003905062000be2565b620cb73283101562000bdc576004905062000be1565b600590505b5b5b5b5b80915050919050565b62000c1082826040518060200160405280600081525062000e0e60201b60201c565b5050565b601254601154101562000c3e57600160115462000c32919062001b93565b60118190555062000c5e565b6000601181905550600160105462000c57919062001b93565b6010819055505b565b60008060009050600083141562000c7b576003905062000e05565b600183141562000c8f576011905062000e04565b600283141562000ca357600a905062000e03565b600383141562000cb757600d905062000e02565b600483141562000ccb576012905062000e01565b600583141562000cdf576000905062000e00565b600683141562000cf3576004905062000dff565b600783141562000d07576001905062000dfe565b600883141562000d1b576006905062000dfd565b600983141562000d2f576013905062000dfc565b600a83141562000d43576008905062000dfb565b600b83141562000d5757600c905062000dfa565b600c83141562000d6b576002905062000df9565b600d83141562000d7f57600e905062000df8565b600e83141562000d9357600b905062000df7565b600f83141562000da7576007905062000df6565b601083141562000dbb57600f905062000df5565b601183141562000dcf576009905062000df4565b601283141562000de3576005905062000df3565b601383141562000df257601090505b5b5b5b5b5b5b5b5b5b5b5b5b5b5b5b5b5b5b5b80915050919050565b62000e20838362000e7c60201b60201c565b62000e3560008484846200106260201b60201c565b62000e77576040517f08c379a000000000000000000000000000000000000000000000000000000000815260040162000e6e9062001cc4565b60405180910390fd5b505050565b600073ffffffffffffffffffffffffffffffffffffffff168273ffffffffffffffffffffffffffffffffffffffff16141562000eef576040517f08c379a000000000000000000000000000000000000000000000000000000000815260040162000ee69062001d36565b60405180910390fd5b62000f00816200120c60201b60201c565b1562000f43576040517f08c379a000000000000000000000000000000000000000000000000000000000815260040162000f3a9062001da8565b60405180910390fd5b62000f57600083836200127860201b60201c565b6001600460008473ffffffffffffffffffffffffffffffffffffffff1673ffffffffffffffffffffffffffffffffffffffff168152602001908152602001600020600082825462000fa9919062001b93565b92505081905550816003600083815260200190815260200160002060006101000a81548173ffffffffffffffffffffffffffffffffffffffff021916908373ffffffffffffffffffffffffffffffffffffffff160217905550808273ffffffffffffffffffffffffffffffffffffffff16600073ffffffffffffffffffffffffffffffffffffffff167fddf252ad1be2c89b69c2b068fc378daa952ba7f163c4a11628f55a4df523b3ef60405160405180910390a45050565b6000620010908473ffffffffffffffffffffffffffffffffffffffff166200129560201b620015aa1760201c565b15620011ff578373ffffffffffffffffffffffffffffffffffffffff1663150b7a02620010c26200017d60201b60201c565b8786866040518563ffffffff1660e01b8152600401620010e6949392919062001eb3565b6020604051808303816000875af19250505080156200112557506040513d601f19601f8201168201806040525081019062001122919062001f69565b60015b620011ae573d806000811462001158576040519150601f19603f3d011682016040523d82523d6000602084013e6200115d565b606091505b50600081511415620011a6576040517f08c379a00000000000000000000000000000000000000000000000000000000081526004016200119d9062001cc4565b60405180910390fd5b805181602001fd5b63150b7a0260e01b7bffffffffffffffffffffffffffffffffffffffffffffffffffffffff1916817bffffffffffffffffffffffffffffffffffffffffffffffffffffffff19161491505062001204565b600190505b949350505050565b60008073ffffffffffffffffffffffffffffffffffffffff166003600084815260200190815260200160002060009054906101000a900473ffffffffffffffffffffffffffffffffffffffff1673ffffffffffffffffffffffffffffffffffffffff1614159050919050565b62001290838383620012a860201b620015bd1760201c565b505050565b600080823b905060008111915050919050565b620012c0838383620013ef60201b620016d11760201c565b600073ffffffffffffffffffffffffffffffffffffffff168373ffffffffffffffffffffffffffffffffffffffff1614156200130d576200130781620013f460201b60201c565b62001355565b8173ffffffffffffffffffffffffffffffffffffffff168373ffffffffffffffffffffffffffffffffffffffff161462001354576200135383826200143d60201b60201c565b5b5b600073ffffffffffffffffffffffffffffffffffffffff168273ffffffffffffffffffffffffffffffffffffffff161415620013a2576200139c81620015ba60201b60201c565b620013ea565b8273ffffffffffffffffffffffffffffffffffffffff168273ffffffffffffffffffffffffffffffffffffffff1614620013e957620013e882826200169660201b60201c565b5b5b505050565b505050565b600980549050600a600083815260200190815260200160002081905550600981908060018154018082558091505060019003906000526020600020016000909190919091505550565b6000600162001457846200172260201b62000ba31760201c565b62001463919062001a83565b905060006008600084815260200190815260200160002054905081811462001549576000600760008673ffffffffffffffffffffffffffffffffffffffff1673ffffffffffffffffffffffffffffffffffffffff168152602001908152602001600020600084815260200190815260200160002054905080600760008773ffffffffffffffffffffffffffffffffffffffff1673ffffffffffffffffffffffffffffffffffffffff168152602001908152602001600020600084815260200190815260200160002081905550816008600083815260200190815260200160002081905550505b6008600084815260200190815260200160002060009055600760008573ffffffffffffffffffffffffffffffffffffffff1673ffffffffffffffffffffffffffffffffffffffff16815260200190815260200160002060008381526020019081526020016000206000905550505050565b60006001600980549050620015d0919062001a83565b90506000600a600084815260200190815260200160002054905060006009838154811062001603576200160262001f9b565b5b90600052602060002001549050806009838154811062001628576200162762001f9b565b5b906000526020600020018190555081600a600083815260200190815260200160002081905550600a60008581526020019081526020016000206000905560098054806200167a576200167962001fca565b5b6001900381819060005260206000200160009055905550505050565b6000620016ae836200172260201b62000ba31760201c565b905081600760008573ffffffffffffffffffffffffffffffffffffffff1673ffffffffffffffffffffffffffffffffffffffff168152602001908152602001600020600083815260200190815260200160002081905550806008600084815260200190815260200160002081905550505050565b60008073ffffffffffffffffffffffffffffffffffffffff168273ffffffffffffffffffffffffffffffffffffffff16141562001796576040517f08c379a00000000000000000000000000000000000000000000000000000000081526004016200178d906200206f565b60405180910390fd5b600460008373ffffffffffffffffffffffffffffffffffffffff1673ffffffffffffffffffffffffffffffffffffffff168152602001908152602001600020549050919050565b828054620017eb90620020c0565b90600052602060002090601f0160209004810192826200180f57600085556200185b565b82601f106200182a57805160ff19168380011785556200185b565b828001600101855582156200185b579182015b828111156200185a5782518255916020019190600101906200183d565b5b5090506200186a9190620018e9565b5090565b604051806101600160405280600060ff168152602001600060ff168152602001600060ff168152602001600060ff168152602001600060ff168152602001600060ff168152602001600060ff168152602001600060ff168152602001600060ff168152602001600060ff168152602001600060ff1681525090565b5b8082111562001904576000816000905550600101620018ea565b5090565b7f4e487b7100000000000000000000000000000000000000000000000000000000600052601160045260246000fd5b6000819050919050565b60006200194e8262001937565b91507f7fffffffffffffffffffffffffffffffffffffffffffffffffffffffffffffff82141562001984576200198362001908565b5b600182019050919050565b600082825260208201905092915050565b7f4f776e61626c653a2063616c6c6572206973206e6f7420746865206f776e6572600082015250565b6000620019d86020836200198f565b9150620019e582620019a0565b602082019050919050565b6000602082019050818103600083015262001a0b81620019c9565b9050919050565b6000819050919050565b7f4e487b7100000000000000000000000000000000000000000000000000000000600052601260045260246000fd5b600062001a588262001a12565b915062001a658362001a12565b92508262001a785762001a7762001a1c565b5b828206905092915050565b600062001a908262001a12565b915062001a9d8362001a12565b92508282101562001ab35762001ab262001908565b5b828203905092915050565b600062001acb8262001a12565b915062001ad88362001a12565b92508262001aeb5762001aea62001a1c565b5b828204905092915050565b600060ff82169050919050565b600062001b108262001af6565b915060ff82141562001b275762001b2662001908565b5b600182019050919050565b600062001b3f8262001a12565b915062001b4c8362001a12565b9250817fffffffffffffffffffffffffffffffffffffffffffffffffffffffffffffffff048311821515161562001b885762001b8762001908565b5b828202905092915050565b600062001ba08262001a12565b915062001bad8362001a12565b9250827fffffffffffffffffffffffffffffffffffffffffffffffffffffffffffffffff0382111562001be55762001be462001908565b5b828201905092915050565b62001bfb8162001a12565b82525050565b600060808201905062001c18600083018762001bf0565b62001c27602083018662001bf0565b62001c36604083018562001bf0565b62001c45606083018462001bf0565b95945050505050565b7f4552433732313a207472616e7366657220746f206e6f6e20455243373231526560008201527f63656976657220696d706c656d656e7465720000000000000000000000000000602082015250565b600062001cac6032836200198f565b915062001cb98262001c4e565b604082019050919050565b6000602082019050818103600083015262001cdf8162001c9d565b9050919050565b7f4552433732313a206d696e7420746f20746865207a65726f2061646472657373600082015250565b600062001d1e6020836200198f565b915062001d2b8262001ce6565b602082019050919050565b6000602082019050818103600083015262001d518162001d0f565b9050919050565b7f4552433732313a20746f6b656e20616c7265616479206d696e74656400000000600082015250565b600062001d90601c836200198f565b915062001d9d8262001d58565b602082019050919050565b6000602082019050818103600083015262001dc38162001d81565b9050919050565b600073ffffffffffffffffffffffffffffffffffffffff82169050919050565b600062001df78262001dca565b9050919050565b62001e098162001dea565b82525050565b600081519050919050565b600082825260208201905092915050565b60005b8381101562001e4b57808201518184015260208101905062001e2e565b8381111562001e5b576000848401525b50505050565b6000601f19601f8301169050919050565b600062001e7f8262001e0f565b62001e8b818562001e1a565b935062001e9d81856020860162001e2b565b62001ea88162001e61565b840191505092915050565b600060808201905062001eca600083018762001dfe565b62001ed9602083018662001dfe565b62001ee8604083018562001bf0565b818103606083015262001efc818462001e72565b905095945050505050565b600080fd5b60007fffffffff0000000000000000000000000000000000000000000000000000000082169050919050565b62001f438162001f0c565b811462001f4f57600080fd5b50565b60008151905062001f638162001f38565b92915050565b60006020828403121562001f825762001f8162001f07565b5b600062001f928482850162001f52565b91505092915050565b7f4e487b7100000000000000000000000000000000000000000000000000000000600052603260045260246000fd5b7f4e487b7100000000000000000000000000000000000000000000000000000000600052603160045260246000fd5b7f4552433732313a2062616c616e636520717565727920666f7220746865207a6560008201527f726f206164647265737300000000000000000000000000000000000000000000602082015250565b600062002057602a836200198f565b9150620020648262001ff9565b604082019050919050565b600060208201905081810360008301526200208a8162002048565b9050919050565b7f4e487b7100000000000000000000000000000000000000000000000000000000600052602260045260246000fd5b60006002820490506001821680620020d957607f821691505b60208210811415620020f057620020ef62002091565b5b50919050565b61480780620021066000396000f3fe6080604052600436106101355760003560e01c80636352211e116100ab57806395d89b411161006f57806395d89b411461043d578063a22cb46514610468578063b88d4fde14610491578063c87b56dd146104ba578063e985e9c5146104f7578063f2fde38b1461053457610135565b80636352211e1461034457806370a0823114610381578063715018a6146103be5780638da5cb5b146103d55780639507d39a1461040057610135565b806323b872dd116100fd57806323b872dd146102335780632f745c591461025c578063379607f51461029957806342842e0e146102b55780634f6ccce7146102de57806355f804b31461031b57610135565b806301ffc9a71461013a57806306fdde0314610177578063081812fc146101a2578063095ea7b3146101df57806318160ddd14610208575b600080fd5b34801561014657600080fd5b50610161600480360381019061015c919061322d565b61055d565b60405161016e9190613275565b60405180910390f35b34801561018357600080fd5b5061018c61056f565b6040516101999190613329565b60405180910390f35b3480156101ae57600080fd5b506101c960048036038101906101c49190613381565b610601565b6040516101d691906133ef565b60405180910390f35b3480156101eb57600080fd5b5061020660048036038101906102019190613436565b610686565b005b34801561021457600080fd5b5061021d61079e565b60405161022a9190613485565b60405180910390f35b34801561023f57600080fd5b5061025a600480360381019061025591906134a0565b6107ab565b005b34801561026857600080fd5b50610283600480360381019061027e9190613436565b61080b565b6040516102909190613485565b60405180910390f35b6102b360048036038101906102ae9190613381565b6108b0565b005b3480156102c157600080fd5b506102dc60048036038101906102d791906134a0565b6109ca565b005b3480156102ea57600080fd5b5061030560048036038101906103009190613381565b6109ea565b6040516103129190613485565b60405180910390f35b34801561032757600080fd5b50610342600480360381019061033d9190613628565b610a5b565b005b34801561035057600080fd5b5061036b60048036038101906103669190613381565b610af1565b60405161037891906133ef565b60405180910390f35b34801561038d57600080fd5b506103a860048036038101906103a39190613671565b610ba3565b6040516103b59190613485565b60405180910390f35b3480156103ca57600080fd5b506103d3610c5b565b005b3480156103e157600080fd5b506103ea610ce3565b6040516103f791906133ef565b60405180910390f35b34801561040c57600080fd5b5061042760048036038101906104229190613381565b610d0c565b6040516104349190613769565b60405180910390f35b34801561044957600080fd5b50610452611102565b60405161045f9190613329565b60405180910390f35b34801561047457600080fd5b5061048f600480360381019061048a91906137b7565b611194565b005b34801561049d57600080fd5b506104b860048036038101906104b39190613898565b611315565b005b3480156104c657600080fd5b506104e160048036038101906104dc9190613381565b611377565b6040516104ee9190613329565b60405180910390f35b34801561050357600080fd5b5061051e6004803603810190610519919061391b565b61141e565b60405161052b9190613275565b60405180910390f35b34801561054057600080fd5b5061055b60048036038101906105569190613671565b6114b2565b005b6000610568826116d6565b9050919050565b60606001805461057e9061398a565b80601f01602080910402602001604051908101604052809291908181526020018280546105aa9061398a565b80156105f75780601f106105cc576101008083540402835291602001916105f7565b820191906000526020600020905b8154815290600101906020018083116105da57829003601f168201915b5050505050905090565b600061060c82611750565b61064b576040517f08c379a000000000000000000000000000000000000000000000000000000000815260040161064290613a2e565b60405180910390fd5b6005600083815260200190815260200160002060009054906101000a900473ffffffffffffffffffffffffffffffffffffffff169050919050565b600061069182610af1565b90508073ffffffffffffffffffffffffffffffffffffffff168373ffffffffffffffffffffffffffffffffffffffff161415610702576040517f08c379a00000000000000000000000000000000000000000000000000000000081526004016106f990613ac0565b60405180910390fd5b8073ffffffffffffffffffffffffffffffffffffffff166107216117bc565b73ffffffffffffffffffffffffffffffffffffffff161480610750575061074f8161074a6117bc565b61141e565b5b61078f576040517f08c379a000000000000000000000000000000000000000000000000000000000815260040161078690613b52565b60405180910390fd5b61079983836117c4565b505050565b6000600980549050905090565b6107bc6107b66117bc565b8261187d565b6107fb576040517f08c379a00000000000000000000000000000000000000000000000000000000081526004016107f290613be4565b60405180910390fd5b61080683838361195b565b505050565b600061081683610ba3565b8210610857576040517f08c379a000000000000000000000000000000000000000000000000000000000815260040161084e90613c76565b60405180910390fd5b600760008473ffffffffffffffffffffffffffffffffffffffff1673ffffffffffffffffffffffffffffffffffffffff168152602001908152602001600020600083815260200190815260200160002054905092915050565b60006108ba61079e565b9050600082116108c957600080fd5b600f548211156108d857600080fd5b600d5482826108e79190613cc5565b11156108f257600080fd5b6108fa610ce3565b73ffffffffffffffffffffffffffffffffffffffff163373ffffffffffffffffffffffffffffffffffffffff16146109475781600e5461093a9190613d1b565b34101561094657600080fd5b5b6000600190505b8281116109705761095d611bb7565b808061096890613d75565b91505061094e565b50610979610ce3565b73ffffffffffffffffffffffffffffffffffffffff166108fc666a94d74f4300009081150290604051600060405180830381858888f193505050501580156109c5573d6000803e3d6000fd5b505050565b6109e583838360405180602001604052806000815250611315565b505050565b60006109f461079e565b8210610a35576040517f08c379a0000000000000000000000000000000000000000000000000000000008152600401610a2c90613e30565b60405180910390fd5b60098281548110610a4957610a48613e50565b5b90600052602060002001549050919050565b610a636117bc565b73ffffffffffffffffffffffffffffffffffffffff16610a81610ce3565b73ffffffffffffffffffffffffffffffffffffffff1614610ad7576040517f08c379a0000000000000000000000000000000000000000000000000000000008152600401610ace90613ecb565b60405180910390fd5b80600c9080519060200190610aed9291906130a3565b5050565b6000806003600084815260200190815260200160002060009054906101000a900473ffffffffffffffffffffffffffffffffffffffff169050600073ffffffffffffffffffffffffffffffffffffffff168173ffffffffffffffffffffffffffffffffffffffff161415610b9a576040517f08c379a0000000000000000000000000000000000000000000000000000000008152600401610b9190613f5d565b60405180910390fd5b80915050919050565b60008073ffffffffffffffffffffffffffffffffffffffff168273ffffffffffffffffffffffffffffffffffffffff161415610c14576040517f08c379a0000000000000000000000000000000000000000000000000000000008152600401610c0b90613fef565b60405180910390fd5b600460008373ffffffffffffffffffffffffffffffffffffffff1673ffffffffffffffffffffffffffffffffffffffff168152602001908152602001600020549050919050565b610c636117bc565b73ffffffffffffffffffffffffffffffffffffffff16610c81610ce3565b73ffffffffffffffffffffffffffffffffffffffff1614610cd7576040517f08c379a0000000000000000000000000000000000000000000000000000000008152600401610cce90613ecb565b60405180910390fd5b610ce16000612030565b565b60008060009054906101000a900473ffffffffffffffffffffffffffffffffffffffff16905090565b6060610d1782611750565b610d56576040517f08c379a0000000000000000000000000000000000000000000000000000000008152600401610d4d9061405b565b60405180910390fd5b6000600b6000848152602001908152602001600020604051806101600160405290816000820160009054906101000a900460ff1660ff1660ff1681526020016000820160019054906101000a900460ff1660ff1660ff1681526020016000820160029054906101000a900460ff1660ff1660ff1681526020016000820160039054906101000a900460ff1660ff1660ff1681526020016000820160049054906101000a900460ff1660ff1660ff1681526020016000820160059054906101000a900460ff1660ff1660ff1681526020016000820160069054906101000a900460ff1660ff1660ff1681526020016000820160079054906101000a900460ff1660ff1660ff1681526020016000820160089054906101000a900460ff1660ff1660ff1681526020016000820160099054906101000a900460ff1660ff1660ff16815260200160008201600a9054906101000a900460ff1660ff1660ff168152505090506000600b67ffffffffffffffff811115610ed557610ed46134fd565b5b604051908082528060200260200182016040528015610f035781602001602082028036833780820191505090505b509050816000015181600081518110610f1f57610f1e613e50565b5b602002602001019060ff16908160ff1681525050816020015181600181518110610f4c57610f4b613e50565b5b602002602001019060ff16908160ff1681525050816040015181600281518110610f7957610f78613e50565b5b602002602001019060ff16908160ff1681525050816060015181600381518110610fa657610fa5613e50565b5b602002602001019060ff16908160ff1681525050816080015181600481518110610fd357610fd2613e50565b5b602002602001019060ff16908160ff16815250508160a001518160058151811061100057610fff613e50565b5b602002602001019060ff16908160ff16815250508160c001518160068151811061102d5761102c613e50565b5b602002602001019060ff16908160ff16815250508160e001518160078151811061105a57611059613e50565b5b602002602001019060ff16908160ff16815250508161010001518160088151811061108857611087613e50565b5b602002602001019060ff16908160ff1681525050816101200151816009815181106110b6576110b5613e50565b5b602002602001019060ff16908160ff168152505081610140015181600a815181106110e4576110e3613e50565b5b602002602001019060ff16908160ff16815250508092505050919050565b6060600280546111119061398a565b80601f016020809104026020016040519081016040528092919081815260200182805461113d9061398a565b801561118a5780601f1061115f5761010080835404028352916020019161118a565b820191906000526020600020905b81548152906001019060200180831161116d57829003601f168201915b5050505050905090565b61119c6117bc565b73ffffffffffffffffffffffffffffffffffffffff168273ffffffffffffffffffffffffffffffffffffffff16141561120a576040517f08c379a0000000000000000000000000000000000000000000000000000000008152600401611201906140c7565b60405180910390fd5b80600660006112176117bc565b73ffffffffffffffffffffffffffffffffffffffff1673ffffffffffffffffffffffffffffffffffffffff16815260200190815260200160002060008473ffffffffffffffffffffffffffffffffffffffff1673ffffffffffffffffffffffffffffffffffffffff16815260200190815260200160002060006101000a81548160ff0219169083151502179055508173ffffffffffffffffffffffffffffffffffffffff166112c46117bc565b73ffffffffffffffffffffffffffffffffffffffff167f17307eab39ab6107e8899845ad3d59bd9653f200f220920489ca2b5937696c31836040516113099190613275565b60405180910390a35050565b6113266113206117bc565b8361187d565b611365576040517f08c379a000000000000000000000000000000000000000000000000000000000815260040161135c90613be4565b60405180910390fd5b611371848484846120f4565b50505050565b606061138282611750565b6113c1576040517f08c379a00000000000000000000000000000000000000000000000000000000081526004016113b890614159565b60405180910390fd5b60006113cb612150565b905060008151116113eb5760405180602001604052806000815250611416565b806113f5846121e2565b6040516020016114069291906141b5565b6040516020818303038152906040525b915050919050565b6000600660008473ffffffffffffffffffffffffffffffffffffffff1673ffffffffffffffffffffffffffffffffffffffff16815260200190815260200160002060008373ffffffffffffffffffffffffffffffffffffffff1673ffffffffffffffffffffffffffffffffffffffff16815260200190815260200160002060009054906101000a900460ff16905092915050565b6114ba6117bc565b73ffffffffffffffffffffffffffffffffffffffff166114d8610ce3565b73ffffffffffffffffffffffffffffffffffffffff161461152e576040517f08c379a000000000000000000000000000000000000000000000000000000000815260040161152590613ecb565b60405180910390fd5b600073ffffffffffffffffffffffffffffffffffffffff168173ffffffffffffffffffffffffffffffffffffffff16141561159e576040517f08c379a00000000000000000000000000000000000000000000000000000000081526004016115959061424b565b60405180910390fd5b6115a781612030565b50565b600080823b905060008111915050919050565b6115c88383836116d1565b600073ffffffffffffffffffffffffffffffffffffffff168373ffffffffffffffffffffffffffffffffffffffff16141561160b5761160681612343565b61164a565b8173ffffffffffffffffffffffffffffffffffffffff168373ffffffffffffffffffffffffffffffffffffffff161461164957611648838261238c565b5b5b600073ffffffffffffffffffffffffffffffffffffffff168273ffffffffffffffffffffffffffffffffffffffff16141561168d57611688816124f9565b6116cc565b8273ffffffffffffffffffffffffffffffffffffffff168273ffffffffffffffffffffffffffffffffffffffff16146116cb576116ca82826125ca565b5b5b505050565b505050565b60007f780e9d63000000000000000000000000000000000000000000000000000000007bffffffffffffffffffffffffffffffffffffffffffffffffffffffff1916827bffffffffffffffffffffffffffffffffffffffffffffffffffffffff19161480611749575061174882612649565b5b9050919050565b60008073ffffffffffffffffffffffffffffffffffffffff166003600084815260200190815260200160002060009054906101000a900473ffffffffffffffffffffffffffffffffffffffff1673ffffffffffffffffffffffffffffffffffffffff1614159050919050565b600033905090565b816005600083815260200190815260200160002060006101000a81548173ffffffffffffffffffffffffffffffffffffffff021916908373ffffffffffffffffffffffffffffffffffffffff160217905550808273ffffffffffffffffffffffffffffffffffffffff1661183783610af1565b73ffffffffffffffffffffffffffffffffffffffff167f8c5be1e5ebec7d5bd14f71427d1e84f3dd0314c0f7b2291e5b200ac8c7c3b92560405160405180910390a45050565b600061188882611750565b6118c7576040517f08c379a00000000000000000000000000000000000000000000000000000000081526004016118be906142dd565b60405180910390fd5b60006118d283610af1565b90508073ffffffffffffffffffffffffffffffffffffffff168473ffffffffffffffffffffffffffffffffffffffff16148061194157508373ffffffffffffffffffffffffffffffffffffffff1661192984610601565b73ffffffffffffffffffffffffffffffffffffffff16145b806119525750611951818561141e565b5b91505092915050565b8273ffffffffffffffffffffffffffffffffffffffff1661197b82610af1565b73ffffffffffffffffffffffffffffffffffffffff16146119d1576040517f08c379a00000000000000000000000000000000000000000000000000000000081526004016119c89061436f565b60405180910390fd5b600073ffffffffffffffffffffffffffffffffffffffff168273ffffffffffffffffffffffffffffffffffffffff161415611a41576040517f08c379a0000000000000000000000000000000000000000000000000000000008152600401611a3890614401565b60405180910390fd5b611a4c83838361272b565b611a576000826117c4565b6001600460008573ffffffffffffffffffffffffffffffffffffffff1673ffffffffffffffffffffffffffffffffffffffff1681526020019081526020016000206000828254611aa79190614421565b925050819055506001600460008473ffffffffffffffffffffffffffffffffffffffff1673ffffffffffffffffffffffffffffffffffffffff1681526020019081526020016000206000828254611afe9190613cc5565b92505081905550816003600083815260200190815260200160002060006101000a81548173ffffffffffffffffffffffffffffffffffffffff021916908373ffffffffffffffffffffffffffffffffffffffff160217905550808273ffffffffffffffffffffffffffffffffffffffff168473ffffffffffffffffffffffffffffffffffffffff167fddf252ad1be2c89b69c2b068fc378daa952ba7f163c4a11628f55a4df523b3ef60405160405180910390a4505050565b611bbf613129565b6000611bc961273b565b9050600081905060008060009050600080600080600a87611bea9190614484565b9050600a8160ff1688611bfd9190614421565b611c0791906144b5565b9650600a87611c169190614484565b9150600a8260ff1688611c299190614421565b611c3391906144b5565b9650600a87611c429190614484565b9250600a8360ff1688611c559190614421565b611c5f91906144b5565b9650600a87611c6e9190614484565b9350600a8460ff1688611c819190614421565b611c8b91906144b5565b965060008160ff161115611ca8578480611ca4906144e6565b9550505b60008260ff161115611cc3578480611cbf906144e6565b9550505b60008360ff161115611cde578480611cda906144e6565b9550505b60008460ff161115611cf9578480611cf5906144e6565b9550505b84896080019060ff16908160ff1681525050838960a0019060ff16908160ff1681525050828960c0019060ff16908160ff1681525050818960e0019060ff16908160ff16815250508089610100019060ff16908160ff1681525050620f4240611d628988612778565b611d6c9190614484565b9550611d77866127b2565b896000019060ff16908160ff1681525050620f4240611d968988612778565b611da09190614484565b9550611dab86612801565b896020019060ff16908160ff1681525050620f4240611dca8988612778565b611dd49190614484565b9550611ddf866128ce565b896040019060ff16908160ff1681525050620f4240611dfe8988612778565b611e089190614484565b9550611e1386612947565b896060019060ff16908160ff1681525050620f4240611e328988612778565b611e3c9190614484565b9550611e478661296c565b89610120019060ff16908160ff1681525050620f4240611e678988612778565b611e719190614484565b9550611e7c86612a24565b89610140019060ff16908160ff168152505088600b60008a815260200190815260200160002060008201518160000160006101000a81548160ff021916908360ff16021790555060208201518160000160016101000a81548160ff021916908360ff16021790555060408201518160000160026101000a81548160ff021916908360ff16021790555060608201518160000160036101000a81548160ff021916908360ff16021790555060808201518160000160046101000a81548160ff021916908360ff16021790555060a08201518160000160056101000a81548160ff021916908360ff16021790555060c08201518160000160066101000a81548160ff021916908360ff16021790555060e08201518160000160076101000a81548160ff021916908360ff1602179055506101008201518160000160086101000a81548160ff021916908360ff1602179055506101208201518160000160096101000a81548160ff021916908360ff16021790555061014082015181600001600a6101000a81548160ff021916908360ff16021790555090505061201d3389612a9d565b612025612abb565b505050505050505050565b60008060009054906101000a900473ffffffffffffffffffffffffffffffffffffffff169050816000806101000a81548173ffffffffffffffffffffffffffffffffffffffff021916908373ffffffffffffffffffffffffffffffffffffffff1602179055508173ffffffffffffffffffffffffffffffffffffffff168173ffffffffffffffffffffffffffffffffffffffff167f8be0079c531659141344cd1fd0a4f28419497f9722a3daafe3b4186f6b6457e060405160405180910390a35050565b6120ff84848461195b565b61210b84848484612b01565b61214a576040517f08c379a000000000000000000000000000000000000000000000000000000000815260040161214190614582565b60405180910390fd5b50505050565b6060600c805461215f9061398a565b80601f016020809104026020016040519081016040528092919081815260200182805461218b9061398a565b80156121d85780601f106121ad576101008083540402835291602001916121d8565b820191906000526020600020905b8154815290600101906020018083116121bb57829003601f168201915b5050505050905090565b6060600082141561222a576040518060400160405280600181526020017f3000000000000000000000000000000000000000000000000000000000000000815250905061233e565b600082905060005b6000821461225c57808061224590613d75565b915050600a8261225591906144b5565b9150612232565b60008167ffffffffffffffff811115612278576122776134fd565b5b6040519080825280601f01601f1916602001820160405280156122aa5781602001600182028036833780820191505090505b5090505b60008514612337576001826122c39190614421565b9150600a856122d29190614484565b60306122de9190613cc5565b60f81b8183815181106122f4576122f3613e50565b5b60200101907effffffffffffffffffffffffffffffffffffffffffffffffffffffffffffff1916908160001a905350600a8561233091906144b5565b94506122ae565b8093505050505b919050565b600980549050600a600083815260200190815260200160002081905550600981908060018154018082558091505060019003906000526020600020016000909190919091505550565b6000600161239984610ba3565b6123a39190614421565b9050600060086000848152602001908152602001600020549050818114612488576000600760008673ffffffffffffffffffffffffffffffffffffffff1673ffffffffffffffffffffffffffffffffffffffff168152602001908152602001600020600084815260200190815260200160002054905080600760008773ffffffffffffffffffffffffffffffffffffffff1673ffffffffffffffffffffffffffffffffffffffff168152602001908152602001600020600084815260200190815260200160002081905550816008600083815260200190815260200160002081905550505b6008600084815260200190815260200160002060009055600760008573ffffffffffffffffffffffffffffffffffffffff1673ffffffffffffffffffffffffffffffffffffffff16815260200190815260200160002060008381526020019081526020016000206000905550505050565b6000600160098054905061250d9190614421565b90506000600a600084815260200190815260200160002054905060006009838154811061253d5761253c613e50565b5b90600052602060002001549050806009838154811061255f5761255e613e50565b5b906000526020600020018190555081600a600083815260200190815260200160002081905550600a60008581526020019081526020016000206000905560098054806125ae576125ad6145a2565b5b6001900381819060005260206000200160009055905550505050565b60006125d583610ba3565b905081600760008573ffffffffffffffffffffffffffffffffffffffff1673ffffffffffffffffffffffffffffffffffffffff168152602001908152602001600020600083815260200190815260200160002081905550806008600084815260200190815260200160002081905550505050565b60007f80ac58cd000000000000000000000000000000000000000000000000000000007bffffffffffffffffffffffffffffffffffffffffffffffffffffffff1916827bffffffffffffffffffffffffffffffffffffffffffffffffffffffff1916148061271457507f5b5e139f000000000000000000000000000000000000000000000000000000007bffffffffffffffffffffffffffffffffffffffffffffffffffffffff1916827bffffffffffffffffffffffffffffffffffffffffffffffffffffffff1916145b80612724575061272382612c89565b5b9050919050565b6127368383836115bd565b505050565b6000806011549050600061274e82612cf3565b90506000601054601354836127639190613d1b565b61276d9190613cc5565b905080935050505090565b60004244848460405160200161279194939291906145d1565b6040516020818303038152906040528051906020012060001c905092915050565b6000806203d0908310156127c957600090506127f8565b6207a1208310156127dd57600190506127f7565b620b71b08310156127f157600290506127f6565b600390505b5b5b80915050919050565b600080620186a083101561281857600090506128c5565b62030d4083101561282c57600190506128c4565b620493e083101561284057600290506128c3565b62061a8083101561285457600390506128c2565b6207a12083101561286857600490506128c1565b620927c083101561287c57600590506128c0565b620aae6083101561289057600690506128bf565b620c35008310156128a457600790506128be565b620dbba08310156128b857600890506128bd565b600990505b5b5b5b5b5b5b5b5b80915050919050565b60008062028b0a8310156128e5576000905061293e565b620516148310156128f9576001905061293d565b6207a11e83101561290d576002905061293c565b620a2c28831015612921576003905061293b565b620cb732831015612935576004905061293a565b600590505b5b5b5b5b80915050919050565b6000806207a12083101561295e5760009050612963565b600190505b80915050919050565b6000806201b2078310156129835760009050612a1b565b6203640e8310156129975760019050612a1a565b620516158310156129ab5760029050612a19565b6206c81c8310156129bf5760039050612a18565b62087a238310156129d35760049050612a17565b620a2c2a8310156129e75760059050612a16565b620bde318310156129fb5760069050612a15565b620d9038831015612a0f5760079050612a14565b600890505b5b5b5b5b5b5b5b80915050919050565b60008062028b0a831015612a3b5760009050612a94565b62051614831015612a4f5760019050612a93565b6207a11e831015612a635760029050612a92565b620a2c28831015612a775760039050612a91565b620cb732831015612a8b5760049050612a90565b600590505b5b5b5b5b80915050919050565b612ab7828260405180602001604052806000815250612e7a565b5050565b6012546011541015612ae1576001601154612ad69190613cc5565b601181905550612aff565b60006011819055506001601054612af89190613cc5565b6010819055505b565b6000612b228473ffffffffffffffffffffffffffffffffffffffff166115aa565b15612c7c578373ffffffffffffffffffffffffffffffffffffffff1663150b7a02612b4b6117bc565b8786866040518563ffffffff1660e01b8152600401612b6d949392919061466b565b6020604051808303816000875af1925050508015612ba957506040513d601f19601f82011682018060405250810190612ba691906146cc565b60015b612c2c573d8060008114612bd9576040519150601f19603f3d011682016040523d82523d6000602084013e612bde565b606091505b50600081511415612c24576040517f08c379a0000000000000000000000000000000000000000000000000000000008152600401612c1b90614582565b60405180910390fd5b805181602001fd5b63150b7a0260e01b7bffffffffffffffffffffffffffffffffffffffffffffffffffffffff1916817bffffffffffffffffffffffffffffffffffffffffffffffffffffffff191614915050612c81565b600190505b949350505050565b60007f01ffc9a7000000000000000000000000000000000000000000000000000000007bffffffffffffffffffffffffffffffffffffffffffffffffffffffff1916827bffffffffffffffffffffffffffffffffffffffffffffffffffffffff1916149050919050565b600080600090506000831415612d0c5760039050612e71565b6001831415612d1e5760119050612e70565b6002831415612d3057600a9050612e6f565b6003831415612d4257600d9050612e6e565b6004831415612d545760129050612e6d565b6005831415612d665760009050612e6c565b6006831415612d785760049050612e6b565b6007831415612d8a5760019050612e6a565b6008831415612d9c5760069050612e69565b6009831415612dae5760139050612e68565b600a831415612dc05760089050612e67565b600b831415612dd257600c9050612e66565b600c831415612de45760029050612e65565b600d831415612df657600e9050612e64565b600e831415612e0857600b9050612e63565b600f831415612e1a5760079050612e62565b6010831415612e2c57600f9050612e61565b6011831415612e3e5760099050612e60565b6012831415612e505760059050612e5f565b6013831415612e5e57601090505b5b5b5b5b5b5b5b5b5b5b5b5b5b5b5b5b5b5b5b80915050919050565b612e848383612ed5565b612e916000848484612b01565b612ed0576040517f08c379a0000000000000000000000000000000000000000000000000000000008152600401612ec790614582565b60405180910390fd5b505050565b600073ffffffffffffffffffffffffffffffffffffffff168273ffffffffffffffffffffffffffffffffffffffff161415612f45576040517f08c379a0000000000000000000000000000000000000000000000000000000008152600401612f3c90614745565b60405180910390fd5b612f4e81611750565b15612f8e576040517f08c379a0000000000000000000000000000000000000000000000000000000008152600401612f85906147b1565b60405180910390fd5b612f9a6000838361272b565b6001600460008473ffffffffffffffffffffffffffffffffffffffff1673ffffffffffffffffffffffffffffffffffffffff1681526020019081526020016000206000828254612fea9190613cc5565b92505081905550816003600083815260200190815260200160002060006101000a81548173ffffffffffffffffffffffffffffffffffffffff021916908373ffffffffffffffffffffffffffffffffffffffff160217905550808273ffffffffffffffffffffffffffffffffffffffff16600073ffffffffffffffffffffffffffffffffffffffff167fddf252ad1be2c89b69c2b068fc378daa952ba7f163c4a11628f55a4df523b3ef60405160405180910390a45050565b8280546130af9061398a565b90600052602060002090601f0160209004810192826130d15760008555613118565b82601f106130ea57805160ff1916838001178555613118565b82800160010185558215613118579182015b828111156131175782518255916020019190600101906130fc565b5b50905061312591906131a4565b5090565b604051806101600160405280600060ff168152602001600060ff168152602001600060ff168152602001600060ff168152602001600060ff168152602001600060ff168152602001600060ff168152602001600060ff168152602001600060ff168152602001600060ff168152602001600060ff1681525090565b5b808211156131bd5760008160009055506001016131a5565b5090565b6000604051905090565b600080fd5b600080fd5b60007fffffffff0000000000000000000000000000000000000000000000000000000082169050919050565b61320a816131d5565b811461321557600080fd5b50565b60008135905061322781613201565b92915050565b600060208284031215613243576132426131cb565b5b600061325184828501613218565b91505092915050565b60008115159050919050565b61326f8161325a565b82525050565b600060208201905061328a6000830184613266565b92915050565b600081519050919050565b600082825260208201905092915050565b60005b838110156132ca5780820151818401526020810190506132af565b838111156132d9576000848401525b50505050565b6000601f19601f8301169050919050565b60006132fb82613290565b613305818561329b565b93506133158185602086016132ac565b61331e816132df565b840191505092915050565b6000602082019050818103600083015261334381846132f0565b905092915050565b6000819050919050565b61335e8161334b565b811461336957600080fd5b50565b60008135905061337b81613355565b92915050565b600060208284031215613397576133966131cb565b5b60006133a58482850161336c565b91505092915050565b600073ffffffffffffffffffffffffffffffffffffffff82169050919050565b60006133d9826133ae565b9050919050565b6133e9816133ce565b82525050565b600060208201905061340460008301846133e0565b92915050565b613413816133ce565b811461341e57600080fd5b50565b6000813590506134308161340a565b92915050565b6000806040838503121561344d5761344c6131cb565b5b600061345b85828601613421565b925050602061346c8582860161336c565b9150509250929050565b61347f8161334b565b82525050565b600060208201905061349a6000830184613476565b92915050565b6000806000606084860312156134b9576134b86131cb565b5b60006134c786828701613421565b93505060206134d886828701613421565b92505060406134e98682870161336c565b9150509250925092565b600080fd5b600080fd5b7f4e487b7100000000000000000000000000000000000000000000000000000000600052604160045260246000fd5b613535826132df565b810181811067ffffffffffffffff82111715613554576135536134fd565b5b80604052505050565b60006135676131c1565b9050613573828261352c565b919050565b600067ffffffffffffffff821115613593576135926134fd565b5b61359c826132df565b9050602081019050919050565b82818337600083830152505050565b60006135cb6135c684613578565b61355d565b9050828152602081018484840111156135e7576135e66134f8565b5b6135f28482856135a9565b509392505050565b600082601f83011261360f5761360e6134f3565b5b813561361f8482602086016135b8565b91505092915050565b60006020828403121561363e5761363d6131cb565b5b600082013567ffffffffffffffff81111561365c5761365b6131d0565b5b613668848285016135fa565b91505092915050565b600060208284031215613687576136866131cb565b5b600061369584828501613421565b91505092915050565b600081519050919050565b600082825260208201905092915050565b6000819050602082019050919050565b600060ff82169050919050565b6136e0816136ca565b82525050565b60006136f283836136d7565b60208301905092915050565b6000602082019050919050565b60006137168261369e565b61372081856136a9565b935061372b836136ba565b8060005b8381101561375c57815161374388826136e6565b975061374e836136fe565b92505060018101905061372f565b5085935050505092915050565b60006020820190508181036000830152613783818461370b565b905092915050565b6137948161325a565b811461379f57600080fd5b50565b6000813590506137b18161378b565b92915050565b600080604083850312156137ce576137cd6131cb565b5b60006137dc85828601613421565b92505060206137ed858286016137a2565b9150509250929050565b600067ffffffffffffffff821115613812576138116134fd565b5b61381b826132df565b9050602081019050919050565b600061383b613836846137f7565b61355d565b905082815260208101848484011115613857576138566134f8565b5b6138628482856135a9565b509392505050565b600082601f83011261387f5761387e6134f3565b5b813561388f848260208601613828565b91505092915050565b600080600080608085870312156138b2576138b16131cb565b5b60006138c087828801613421565b94505060206138d187828801613421565b93505060406138e28782880161336c565b925050606085013567ffffffffffffffff811115613903576139026131d0565b5b61390f8782880161386a565b91505092959194509250565b60008060408385031215613932576139316131cb565b5b600061394085828601613421565b925050602061395185828601613421565b9150509250929050565b7f4e487b7100000000000000000000000000000000000000000000000000000000600052602260045260246000fd5b600060028204905060018216806139a257607f821691505b602082108114156139b6576139b561395b565b5b50919050565b7f4552433732313a20617070726f76656420717565727920666f72206e6f6e657860008201527f697374656e7420746f6b656e0000000000000000000000000000000000000000602082015250565b6000613a18602c8361329b565b9150613a23826139bc565b604082019050919050565b60006020820190508181036000830152613a4781613a0b565b9050919050565b7f4552433732313a20617070726f76616c20746f2063757272656e74206f776e6560008201527f7200000000000000000000000000000000000000000000000000000000000000602082015250565b6000613aaa60218361329b565b9150613ab582613a4e565b604082019050919050565b60006020820190508181036000830152613ad981613a9d565b9050919050565b7f4552433732313a20617070726f76652063616c6c6572206973206e6f74206f7760008201527f6e6572206e6f7220617070726f76656420666f7220616c6c0000000000000000602082015250565b6000613b3c60388361329b565b9150613b4782613ae0565b604082019050919050565b60006020820190508181036000830152613b6b81613b2f565b9050919050565b7f4552433732313a207472616e736665722063616c6c6572206973206e6f74206f60008201527f776e6572206e6f7220617070726f766564000000000000000000000000000000602082015250565b6000613bce60318361329b565b9150613bd982613b72565b604082019050919050565b60006020820190508181036000830152613bfd81613bc1565b9050919050565b7f455243373231456e756d657261626c653a206f776e657220696e646578206f7560008201527f74206f6620626f756e6473000000000000000000000000000000000000000000602082015250565b6000613c60602b8361329b565b9150613c6b82613c04565b604082019050919050565b60006020820190508181036000830152613c8f81613c53565b9050919050565b7f4e487b7100000000000000000000000000000000000000000000000000000000600052601160045260246000fd5b6000613cd08261334b565b9150613cdb8361334b565b9250827fffffffffffffffffffffffffffffffffffffffffffffffffffffffffffffffff03821115613d1057613d0f613c96565b5b828201905092915050565b6000613d268261334b565b9150613d318361334b565b9250817fffffffffffffffffffffffffffffffffffffffffffffffffffffffffffffffff0483118215151615613d6a57613d69613c96565b5b828202905092915050565b6000613d808261334b565b91507fffffffffffffffffffffffffffffffffffffffffffffffffffffffffffffffff821415613db357613db2613c96565b5b600182019050919050565b7f455243373231456e756d657261626c653a20676c6f62616c20696e646578206f60008201527f7574206f6620626f756e64730000000000000000000000000000000000000000602082015250565b6000613e1a602c8361329b565b9150613e2582613dbe565b604082019050919050565b60006020820190508181036000830152613e4981613e0d565b9050919050565b7f4e487b7100000000000000000000000000000000000000000000000000000000600052603260045260246000fd5b7f4f776e61626c653a2063616c6c6572206973206e6f7420746865206f776e6572600082015250565b6000613eb560208361329b565b9150613ec082613e7f565b602082019050919050565b60006020820190508181036000830152613ee481613ea8565b9050919050565b7f4552433732313a206f776e657220717565727920666f72206e6f6e657869737460008201527f656e7420746f6b656e0000000000000000000000000000000000000000000000602082015250565b6000613f4760298361329b565b9150613f5282613eeb565b604082019050919050565b60006020820190508181036000830152613f7681613f3a565b9050919050565b7f4552433732313a2062616c616e636520717565727920666f7220746865207a6560008201527f726f206164647265737300000000000000000000000000000000000000000000602082015250565b6000613fd9602a8361329b565b9150613fe482613f7d565b604082019050919050565b6000602082019050818103600083015261400881613fcc565b9050919050565b7f746f6b656e206e6f74206d696e74656400000000000000000000000000000000600082015250565b600061404560108361329b565b91506140508261400f565b602082019050919050565b6000602082019050818103600083015261407481614038565b9050919050565b7f4552433732313a20617070726f766520746f2063616c6c657200000000000000600082015250565b60006140b160198361329b565b91506140bc8261407b565b602082019050919050565b600060208201905081810360008301526140e0816140a4565b9050919050565b7f4552433732314d657461646174613a2055524920717565727920666f72206e6f60008201527f6e6578697374656e7420746f6b656e0000000000000000000000000000000000602082015250565b6000614143602f8361329b565b915061414e826140e7565b604082019050919050565b6000602082019050818103600083015261417281614136565b9050919050565b600081905092915050565b600061418f82613290565b6141998185614179565b93506141a98185602086016132ac565b80840191505092915050565b60006141c18285614184565b91506141cd8284614184565b91508190509392505050565b7f4f776e61626c653a206e6577206f776e657220697320746865207a65726f206160008201527f6464726573730000000000000000000000000000000000000000000000000000602082015250565b600061423560268361329b565b9150614240826141d9565b604082019050919050565b6000602082019050818103600083015261426481614228565b9050919050565b7f4552433732313a206f70657261746f7220717565727920666f72206e6f6e657860008201527f697374656e7420746f6b656e0000000000000000000000000000000000000000602082015250565b60006142c7602c8361329b565b91506142d28261426b565b604082019050919050565b600060208201905081810360008301526142f6816142ba565b9050919050565b7f4552433732313a207472616e73666572206f6620746f6b656e2074686174206960008201527f73206e6f74206f776e0000000000000000000000000000000000000000000000602082015250565b600061435960298361329b565b9150614364826142fd565b604082019050919050565b600060208201905081810360008301526143888161434c565b9050919050565b7f4552433732313a207472616e7366657220746f20746865207a65726f2061646460008201527f7265737300000000000000000000000000000000000000000000000000000000602082015250565b60006143eb60248361329b565b91506143f68261438f565b604082019050919050565b6000602082019050818103600083015261441a816143de565b9050919050565b600061442c8261334b565b91506144378361334b565b92508282101561444a57614449613c96565b5b828203905092915050565b7f4e487b7100000000000000000000000000000000000000000000000000000000600052601260045260246000fd5b600061448f8261334b565b915061449a8361334b565b9250826144aa576144a9614455565b5b828206905092915050565b60006144c08261334b565b91506144cb8361334b565b9250826144db576144da614455565b5b828204905092915050565b60006144f1826136ca565b915060ff82141561450557614504613c96565b5b600182019050919050565b7f4552433732313a207472616e7366657220746f206e6f6e20455243373231526560008201527f63656976657220696d706c656d656e7465720000000000000000000000000000602082015250565b600061456c60328361329b565b915061457782614510565b604082019050919050565b6000602082019050818103600083015261459b8161455f565b9050919050565b7f4e487b7100000000000000000000000000000000000000000000000000000000600052603160045260246000fd5b60006080820190506145e66000830187613476565b6145f36020830186613476565b6146006040830185613476565b61460d6060830184613476565b95945050505050565b600081519050919050565b600082825260208201905092915050565b600061463d82614616565b6146478185614621565b93506146578185602086016132ac565b614660816132df565b840191505092915050565b600060808201905061468060008301876133e0565b61468d60208301866133e0565b61469a6040830185613476565b81810360608301526146ac8184614632565b905095945050505050565b6000815190506146c681613201565b92915050565b6000602082840312156146e2576146e16131cb565b5b60006146f0848285016146b7565b91505092915050565b7f4552433732313a206d696e7420746f20746865207a65726f2061646472657373600082015250565b600061472f60208361329b565b915061473a826146f9565b602082019050919050565b6000602082019050818103600083015261475e81614722565b9050919050565b7f4552433732313a20746f6b656e20616c7265616479206d696e74656400000000600082015250565b600061479b601c8361329b565b91506147a682614765565b602082019050919050565b600060208201905081810360008301526147ca8161478e565b905091905056fea2646970667358221220254efc7e25d0d747288e1301c14a6427f8c833a640fc03bd728f587538c4107a64736f6c634300080a0033",
  "immutableReferences": {},
  "source": "// SPDX-License-Identifier: MIT\npragma solidity >=0.4.22 <0.9.0;\n\nimport \"@openzeppelin/contracts/access/Ownable.sol\";\nimport \"@openzeppelin/contracts/token/ERC721/ERC721.sol\";\n// FIXME:: check this out\n// https://stackoverflow.com/questions/68810515/totalsupply-is-not-a-function-openzeppelin-contracts\nimport \"@openzeppelin/contracts/token/ERC721/extensions/ERC721Enumerable.sol\";\n//import \"@openzeppelin/contracts/token/ERC721/extensions/IERC721Enumerable.sol\";\n\n// FIXME:: todo, counter to see how many things were minted\n// FIXME:: Should I add the ability to pause the contract???\n// FIXME:: Update contract to the most recent ERC shit\n\ncontract LavaLamp is Ownable, ERC721, ERC721Enumerable {\n  struct Metadata {\n    uint8 attribute;\n    uint8 background; // 10 - (black, blueberry, light blueberry, light raspberry, light strawberry, raspberry, sky, purple, stars, strawberry)\n    uint8 base; // 6 - (standard, alien, rocket, bong, pumpkin, wizard)\n    uint8 glass; // 2 (white or black) - (carbon)\n\n    // 109 (None, red, green, yellow, blue, purple, light blue, orange, white, pink)\n    uint8 lava_count;\n    uint8 lava_1;\n    uint8 lava_2;\n    uint8 lava_3;\n    uint8 lava_4;\n\n    uint8 overlay; // 9 (none, bitcoin, ethereum, lavaception leaves, peace, smoke, swirls, yinyang)\n    uint8 rarity; // 6 (og, gold, diamond, ruby, emerald, rainbow)\n  }\n  mapping(uint256 => Metadata) id_to_lavalamp;\n\n  string private _currentBaseURI;\n\n  uint256 maxSupply = 7980;\n  uint256 cost = 0.03 ether;\n  uint256 maxMintAmount = 20;\n  uint256 lampCount = 0;\n  uint256 currentLampSet = 0;\n  uint256 numOfLampBlocks = 19;\n  uint256 lampSetSize = 399;\n\n  constructor() ERC721(\"LavaLamp\", \"LAVALAMP\") {\n    setBaseURI(\"http://localhost:3000/token/\"); // setBaseURI(\"http://www.superdorvil.tech/token/\");\n\n    for (int i = 0; i < 2; i++){\n      mint();\n    }\n  }\n\n  function _beforeTokenTransfer(address from, address to, uint256 tokenId) internal override(ERC721, ERC721Enumerable) {\n    super._beforeTokenTransfer(from, to, tokenId);\n  }\n\n  function supportsInterface(bytes4 interfaceId) public view override(ERC721, ERC721Enumerable) returns (bool) {\n    return super.supportsInterface(interfaceId);\n  }\n\n  function setBaseURI(string memory baseURI) public onlyOwner {\n    _currentBaseURI = baseURI;\n  }\n\n  function _baseURI() internal view virtual override returns (string memory) {\n    return _currentBaseURI;\n  }\n\n  function mint () internal {\n    Metadata memory metadata;\n    uint256 tokenId = getId();\n    uint256 lava_index = tokenId;\n    uint256 r;\n\n    uint8 lava_count = 0;\n    uint8 lava_1;\n    uint8 lava_2;\n    uint8 lava_3;\n    uint8 lava_4;\n\n    lava_4 = uint8(lava_index % 10);\n    lava_index = (lava_index - lava_4) / 10;\n    lava_3 = uint8(lava_index % 10);\n    lava_index = (lava_index - lava_3) / 10;\n    lava_2 = uint8(lava_index % 10);\n    lava_index = (lava_index - lava_2) / 10;\n    lava_1 = uint8(lava_index % 10);\n    lava_index = (lava_index - lava_1) / 10;\n\n    if (lava_4 > 0) {\n      lava_count++;\n    }\n    if (lava_3 > 0) {\n      lava_count++;\n    }\n    if (lava_2 > 0) {\n      lava_count++;\n    }\n    if (lava_1 > 0) {\n      lava_count++;\n    }\n\n    metadata.lava_count = lava_count;\n    metadata.lava_1 = lava_1;\n    metadata.lava_2 = lava_2;\n    metadata.lava_3 = lava_3;\n    metadata.lava_4 = lava_4;\n\n    r = pseudoRNG(tokenId, r) % 1000000;\n    metadata.attribute = generateAttribute(r);\n    r = pseudoRNG(tokenId, r) % 1000000;\n    metadata.background = generateBackground(r);\n    r = pseudoRNG(tokenId, r) % 1000000;\n    metadata.base = generateBase(r);\n    r = pseudoRNG(tokenId, r) % 1000000;\n    metadata.glass = generateGlass(r);\n    r = pseudoRNG(tokenId, r) % 1000000;\n    metadata.overlay = generateOverlay(r);\n    r = pseudoRNG(tokenId, r) % 1000000;\n    metadata.rarity = generateRarity(r);\n\n    id_to_lavalamp[tokenId] = metadata;\n\n    _safeMint(msg.sender, tokenId);\n\n    incrementId();\n  }\n\n  function generateAttribute(uint256 r) internal pure returns(uint8) {\n    uint8 attribute;\n\n    if (r < 250000) {\n      attribute = 0;\n    } else if (r < 500000) {\n      attribute = 1;\n    } else if (r < 750000) {\n      attribute = 2;\n    } else {\n      attribute = 3;\n    }\n\n    return attribute;\n  }\n\n  function generateBackground(uint256 r) internal pure returns(uint8) {\n    uint8 background;\n\n    if (r < 100000) {\n      background = 0;\n    } else if (r < 200000) {\n      background = 1;\n    } else if (r < 300000) {\n      background = 2;\n    } else if (r < 400000) {\n      background = 3;\n    } else if (r < 500000) {\n      background = 4;\n    } else if (r < 600000) {\n      background = 5;\n    } else if (r < 700000) {\n      background = 6;\n    } else if (r < 800000) {\n      background = 7;\n    } else if (r < 900000) {\n      background = 8;\n    } else {\n      background = 9;\n    }\n\n    return background;\n  }\n\n  function generateBase(uint256 r) internal pure returns(uint8) {\n    uint8 base;\n\n    if (r < 166666) {\n      base = 0;\n    } else if (r < 333332) {\n      base = 1;\n    } else if (r < 499998) {\n      base = 2;\n    } else if (r < 666664) {\n      base = 3;\n    } else if (r < 833330) {\n      base = 4;\n    } else {\n      base = 5;\n    }\n\n    return base;\n  }\n\n  function generateGlass(uint256 r) internal pure returns(uint8) {\n    uint8 glass;\n\n    if (r < 500000) {\n        glass = 0;\n    } else {\n        glass = 1;\n    }\n\n    return glass;\n  }\n\n  function generateOverlay(uint256 r) internal pure returns(uint8) {\n    uint8 overlay;\n\n    if (r < 111111) {\n      overlay = 0;\n    } else if (r < 222222) {\n      overlay = 1;\n    } else if (r < 333333) {\n      overlay = 2;\n    } else if (r < 444444) {\n      overlay = 3;\n    } else if (r < 555555) {\n      overlay = 4;\n    } else if (r < 666666) {\n      overlay = 5;\n    } else if (r < 777777) {\n      overlay = 6;\n    } else if (r < 888888) {\n      overlay = 7;\n    } else {\n      overlay = 8;\n    }\n\n    return overlay;\n  }\n\n  function generateRarity(uint256 r) internal pure returns(uint8) {\n    uint8 rarity;\n\n    if (r < 166666) {\n      rarity = 0;\n    } else if (r < 333332) {\n      rarity = 1;\n    } else if (r < 499998) {\n      rarity = 2;\n    } else if (r < 666664) {\n      rarity = 3;\n    } else if (r < 833330) {\n      rarity = 4;\n    } else {\n      rarity = 5;\n    }\n\n    return rarity;\n  }\n\n  function claim(uint256 mintAmount) external payable {\n    uint256 supply = totalSupply();\n    require(mintAmount > 0);\n    require(mintAmount <= maxMintAmount);\n    require(supply + mintAmount <= maxSupply);\n\n    if (msg.sender != owner()) {\n      require(msg.value >= cost * mintAmount);\n    }\n\n    for (uint256 i = 1; i <= mintAmount; i++) {\n      mint();\n    }\n\n    payable(owner()).transfer(0.03 ether);\n  }\n\n  function getId() internal view returns(uint256) {\n    uint256 j = currentLampSet;\n    uint256 randomLampBlock = randomizeLampBlock(j);\n    uint256 id = randomLampBlock * lampSetSize + lampCount;\n\n    return id;\n  }\n\n  function incrementId() internal {\n    if (currentLampSet < numOfLampBlocks) {\n      currentLampSet = currentLampSet + 1;\n    } else {\n      currentLampSet = 0;\n      lampCount = lampCount + 1;\n    }\n  }\n\n  function randomizeLampBlock(uint256 lampBlock) internal pure returns(uint256) {\n    uint256 randomLampBlock = 0;\n\n    if (lampBlock == 0) {\n      randomLampBlock = 3;\n    } else if (lampBlock == 1) {\n      randomLampBlock = 17;\n    } else if (lampBlock == 2) {\n      randomLampBlock = 10;\n    } else if (lampBlock == 3) {\n      randomLampBlock = 13;\n    } else if (lampBlock == 4) {\n      randomLampBlock = 18;\n    } else if (lampBlock == 5) {\n      randomLampBlock = 0;\n    } else if (lampBlock == 6) {\n      randomLampBlock = 4;\n    } else if (lampBlock == 7) {\n      randomLampBlock = 1;\n    } else if (lampBlock == 8) {\n      randomLampBlock = 6;\n    } else if (lampBlock == 9) {\n      randomLampBlock = 19;\n    } else if (lampBlock == 10) {\n      randomLampBlock = 8;\n    } else if (lampBlock == 11) {\n      randomLampBlock = 12;\n    } else if (lampBlock == 12) {\n      randomLampBlock = 2;\n    } else if (lampBlock == 13) {\n      randomLampBlock = 14;\n    } else if (lampBlock == 14) {\n      randomLampBlock = 11;\n    } else if (lampBlock == 15) {\n      randomLampBlock = 7;\n    } else if (lampBlock == 16) {\n      randomLampBlock = 15;\n    } else if (lampBlock == 17) {\n      randomLampBlock = 9;\n    } else if (lampBlock == 18) {\n      randomLampBlock = 5;\n    } else if (lampBlock == 19) {\n      randomLampBlock = 16;\n    }\n\n    return randomLampBlock;\n  }\n\n  function get(uint256 tokenId) external view returns(uint8[] memory) {\n    require(_exists(tokenId), \"token not minted\");\n    Metadata memory lavalamp = id_to_lavalamp[tokenId];\n    uint8[] memory meta = new uint8[](11);\n\n    meta[0] = lavalamp.attribute;\n    meta[1] = lavalamp.background;\n    meta[2] = lavalamp.base;\n    meta[3] = lavalamp.glass;\n    meta[4] = lavalamp.lava_count;\n    meta[5] = lavalamp.lava_1;\n    meta[6] = lavalamp.lava_2;\n    meta[7] = lavalamp.lava_3;\n    meta[8] = lavalamp.lava_4;\n    meta[9] = lavalamp.overlay;\n    meta[10] = lavalamp.rarity;\n\n    return meta;\n  }\n\n  /*function getAllTokens() public view returns (Metadata[] memory) {\n    uint256 lastestId = _tokenIds.current();\n    uint256 counter = 0;\n\n    Metadata[] memory meta = new Metadata[](lastestId);\n\n    for (uint256 i = 0; i < lastestId; i++) {\n      if (_exists(counter)) {\n        Metadata memory m = id_to_lavalamp[counter];\n        meta[counter] = m;\n      }\n\n      counter++;\n    }\n\n    return meta;\n  }*/\n\n  // psuedo_rng is the previous rng value, this is just top make sure we get something different everytime and don't use the same psuedo for the, base, sticker, and background\n  function pseudoRNG(uint256 tokenId, uint256 prev_rng) internal view returns (uint256) {\n      return uint256(keccak256(abi.encode(block.timestamp, block.difficulty, tokenId, prev_rng)));\n  }\n}\n",
  "sourcePath": "/Users/superdorvil/workspace/ReactWorkspace/PersonalProjects/lava-lamp-nft/contracts/LavaLamp.sol",
  "compiler": {
    "name": "solc",
    "version": "0.8.10+commit.fc410830.Emscripten.clang"
  },
  "schemaVersion": "3.4.3",
  "updatedAt": "2021-12-03T15:16:51.206Z",
  "networkType": "ethereum",
  "devdoc": {
    "kind": "dev",
    "methods": {
      "approve(address,uint256)": {
        "details": "See {IERC721-approve}."
      },
      "balanceOf(address)": {
        "details": "See {IERC721-balanceOf}."
      },
      "getApproved(uint256)": {
        "details": "See {IERC721-getApproved}."
      },
      "isApprovedForAll(address,address)": {
        "details": "See {IERC721-isApprovedForAll}."
      },
      "name()": {
        "details": "See {IERC721Metadata-name}."
      },
      "owner()": {
        "details": "Returns the address of the current owner."
      },
      "ownerOf(uint256)": {
        "details": "See {IERC721-ownerOf}."
      },
      "renounceOwnership()": {
        "details": "Leaves the contract without owner. It will not be possible to call `onlyOwner` functions anymore. Can only be called by the current owner. NOTE: Renouncing ownership will leave the contract without an owner, thereby removing any functionality that is only available to the owner."
      },
      "safeTransferFrom(address,address,uint256)": {
        "details": "See {IERC721-safeTransferFrom}."
      },
      "safeTransferFrom(address,address,uint256,bytes)": {
        "details": "See {IERC721-safeTransferFrom}."
      },
      "setApprovalForAll(address,bool)": {
        "details": "See {IERC721-setApprovalForAll}."
      },
      "symbol()": {
        "details": "See {IERC721Metadata-symbol}."
      },
      "tokenByIndex(uint256)": {
        "details": "See {IERC721Enumerable-tokenByIndex}."
      },
      "tokenOfOwnerByIndex(address,uint256)": {
        "details": "See {IERC721Enumerable-tokenOfOwnerByIndex}."
      },
      "tokenURI(uint256)": {
        "details": "See {IERC721Metadata-tokenURI}."
      },
      "totalSupply()": {
        "details": "See {IERC721Enumerable-totalSupply}."
      },
      "transferFrom(address,address,uint256)": {
        "details": "See {IERC721-transferFrom}."
      },
      "transferOwnership(address)": {
        "details": "Transfers ownership of the contract to a new account (`newOwner`). Can only be called by the current owner."
      }
    },
    "version": 1
  },
  "userdoc": {
    "kind": "user",
    "methods": {},
    "version": 1
  }
}