{
  "contractName": "LavaLamp",
  "abi": [
    {
      "inputs": [],
      "stateMutability": "nonpayable",
      "type": "constructor"
    },
    {
      "anonymous": false,
      "inputs": [
        {
          "indexed": true,
          "internalType": "address",
          "name": "owner",
          "type": "address"
        },
        {
          "indexed": true,
          "internalType": "address",
          "name": "approved",
          "type": "address"
        },
        {
          "indexed": true,
          "internalType": "uint256",
          "name": "tokenId",
          "type": "uint256"
        }
      ],
      "name": "Approval",
      "type": "event"
    },
    {
      "anonymous": false,
      "inputs": [
        {
          "indexed": true,
          "internalType": "address",
          "name": "owner",
          "type": "address"
        },
        {
          "indexed": true,
          "internalType": "address",
          "name": "operator",
          "type": "address"
        },
        {
          "indexed": false,
          "internalType": "bool",
          "name": "approved",
          "type": "bool"
        }
      ],
      "name": "ApprovalForAll",
      "type": "event"
    },
    {
      "anonymous": false,
      "inputs": [
        {
          "indexed": true,
          "internalType": "address",
          "name": "previousOwner",
          "type": "address"
        },
        {
          "indexed": true,
          "internalType": "address",
          "name": "newOwner",
          "type": "address"
        }
      ],
      "name": "OwnershipTransferred",
      "type": "event"
    },
    {
      "anonymous": false,
      "inputs": [
        {
          "indexed": true,
          "internalType": "address",
          "name": "from",
          "type": "address"
        },
        {
          "indexed": true,
          "internalType": "address",
          "name": "to",
          "type": "address"
        },
        {
          "indexed": true,
          "internalType": "uint256",
          "name": "tokenId",
          "type": "uint256"
        }
      ],
      "name": "Transfer",
      "type": "event"
    },
    {
      "inputs": [
        {
          "internalType": "address",
          "name": "to",
          "type": "address"
        },
        {
          "internalType": "uint256",
          "name": "tokenId",
          "type": "uint256"
        }
      ],
      "name": "approve",
      "outputs": [],
      "stateMutability": "nonpayable",
      "type": "function"
    },
    {
      "inputs": [
        {
          "internalType": "address",
          "name": "owner",
          "type": "address"
        }
      ],
      "name": "balanceOf",
      "outputs": [
        {
          "internalType": "uint256",
          "name": "",
          "type": "uint256"
        }
      ],
      "stateMutability": "view",
      "type": "function",
      "constant": true
    },
    {
      "inputs": [
        {
          "internalType": "uint256",
          "name": "tokenId",
          "type": "uint256"
        }
      ],
      "name": "getApproved",
      "outputs": [
        {
          "internalType": "address",
          "name": "",
          "type": "address"
        }
      ],
      "stateMutability": "view",
      "type": "function",
      "constant": true
    },
    {
      "inputs": [
        {
          "internalType": "address",
          "name": "owner",
          "type": "address"
        },
        {
          "internalType": "address",
          "name": "operator",
          "type": "address"
        }
      ],
      "name": "isApprovedForAll",
      "outputs": [
        {
          "internalType": "bool",
          "name": "",
          "type": "bool"
        }
      ],
      "stateMutability": "view",
      "type": "function",
      "constant": true
    },
    {
      "inputs": [],
      "name": "name",
      "outputs": [
        {
          "internalType": "string",
          "name": "",
          "type": "string"
        }
      ],
      "stateMutability": "view",
      "type": "function",
      "constant": true
    },
    {
      "inputs": [],
      "name": "owner",
      "outputs": [
        {
          "internalType": "address",
          "name": "",
          "type": "address"
        }
      ],
      "stateMutability": "view",
      "type": "function",
      "constant": true
    },
    {
      "inputs": [
        {
          "internalType": "uint256",
          "name": "tokenId",
          "type": "uint256"
        }
      ],
      "name": "ownerOf",
      "outputs": [
        {
          "internalType": "address",
          "name": "",
          "type": "address"
        }
      ],
      "stateMutability": "view",
      "type": "function",
      "constant": true
    },
    {
      "inputs": [],
      "name": "provenance",
      "outputs": [
        {
          "internalType": "string",
          "name": "",
          "type": "string"
        }
      ],
      "stateMutability": "view",
      "type": "function",
      "constant": true
    },
    {
      "inputs": [],
      "name": "renounceOwnership",
      "outputs": [],
      "stateMutability": "nonpayable",
      "type": "function"
    },
    {
      "inputs": [
        {
          "internalType": "address",
          "name": "from",
          "type": "address"
        },
        {
          "internalType": "address",
          "name": "to",
          "type": "address"
        },
        {
          "internalType": "uint256",
          "name": "tokenId",
          "type": "uint256"
        }
      ],
      "name": "safeTransferFrom",
      "outputs": [],
      "stateMutability": "nonpayable",
      "type": "function"
    },
    {
      "inputs": [
        {
          "internalType": "address",
          "name": "from",
          "type": "address"
        },
        {
          "internalType": "address",
          "name": "to",
          "type": "address"
        },
        {
          "internalType": "uint256",
          "name": "tokenId",
          "type": "uint256"
        },
        {
          "internalType": "bytes",
          "name": "_data",
          "type": "bytes"
        }
      ],
      "name": "safeTransferFrom",
      "outputs": [],
      "stateMutability": "nonpayable",
      "type": "function"
    },
    {
      "inputs": [
        {
          "internalType": "address",
          "name": "operator",
          "type": "address"
        },
        {
          "internalType": "bool",
          "name": "approved",
          "type": "bool"
        }
      ],
      "name": "setApprovalForAll",
      "outputs": [],
      "stateMutability": "nonpayable",
      "type": "function"
    },
    {
      "inputs": [
        {
          "internalType": "bytes4",
          "name": "interfaceId",
          "type": "bytes4"
        }
      ],
      "name": "supportsInterface",
      "outputs": [
        {
          "internalType": "bool",
          "name": "",
          "type": "bool"
        }
      ],
      "stateMutability": "view",
      "type": "function",
      "constant": true
    },
    {
      "inputs": [],
      "name": "symbol",
      "outputs": [
        {
          "internalType": "string",
          "name": "",
          "type": "string"
        }
      ],
      "stateMutability": "view",
      "type": "function",
      "constant": true
    },
    {
      "inputs": [],
      "name": "totalSupply",
      "outputs": [
        {
          "internalType": "uint256",
          "name": "",
          "type": "uint256"
        }
      ],
      "stateMutability": "view",
      "type": "function",
      "constant": true
    },
    {
      "inputs": [
        {
          "internalType": "address",
          "name": "from",
          "type": "address"
        },
        {
          "internalType": "address",
          "name": "to",
          "type": "address"
        },
        {
          "internalType": "uint256",
          "name": "tokenId",
          "type": "uint256"
        }
      ],
      "name": "transferFrom",
      "outputs": [],
      "stateMutability": "nonpayable",
      "type": "function"
    },
    {
      "inputs": [
        {
          "internalType": "address",
          "name": "newOwner",
          "type": "address"
        }
      ],
      "name": "transferOwnership",
      "outputs": [],
      "stateMutability": "nonpayable",
      "type": "function"
    },
    {
      "inputs": [
        {
          "internalType": "string",
          "name": "baseURI",
          "type": "string"
        }
      ],
      "name": "setBaseURI",
      "outputs": [],
      "stateMutability": "nonpayable",
      "type": "function"
    },
    {
      "inputs": [
        {
          "internalType": "uint256",
          "name": "tokenId",
          "type": "uint256"
        }
      ],
      "name": "tokenURI",
      "outputs": [
        {
          "internalType": "string",
          "name": "",
          "type": "string"
        }
      ],
      "stateMutability": "view",
      "type": "function",
      "constant": true
    },
    {
      "inputs": [
        {
          "internalType": "uint256",
          "name": "mintAmount",
          "type": "uint256"
        }
      ],
      "name": "mint",
      "outputs": [],
      "stateMutability": "payable",
      "type": "function",
      "payable": true
    }
  ],
  "bytecode": "0x60806040526040518060600160405280604081526020016200393a60409139600790805190602001906200003592919062000344565b50666a94d74f430000600955611f2c600a556014600b55734024b17b6fd2ac7a83bfe0c71970d23ee335bc40600c60006101000a81548173ffffffffffffffffffffffffffffffffffffffff021916908373ffffffffffffffffffffffffffffffffffffffff1602179055506000600d55348015620000b357600080fd5b506040518060400160405280600881526020017f4c6176614c616d700000000000000000000000000000000000000000000000008152506040518060400160405280600881526020017f4c4156414c414d500000000000000000000000000000000000000000000000008152506200014062000134620001a460201b60201c565b620001ac60201b60201c565b81600190805190602001906200015892919062000344565b5080600290805190602001906200017192919062000344565b5050506200019e60405180606001604052806036815260200162003904603691396200027060201b60201c565b620004dc565b600033905090565b60008060009054906101000a900473ffffffffffffffffffffffffffffffffffffffff169050816000806101000a81548173ffffffffffffffffffffffffffffffffffffffff021916908373ffffffffffffffffffffffffffffffffffffffff1602179055508173ffffffffffffffffffffffffffffffffffffffff168173ffffffffffffffffffffffffffffffffffffffff167f8be0079c531659141344cd1fd0a4f28419497f9722a3daafe3b4186f6b6457e060405160405180910390a35050565b62000280620001a460201b60201c565b73ffffffffffffffffffffffffffffffffffffffff16620002a66200031b60201b60201c565b73ffffffffffffffffffffffffffffffffffffffff1614620002ff576040517f08c379a0000000000000000000000000000000000000000000000000000000008152600401620002f69062000455565b60405180910390fd5b80600890805190602001906200031792919062000344565b5050565b60008060009054906101000a900473ffffffffffffffffffffffffffffffffffffffff16905090565b8280546200035290620004a6565b90600052602060002090601f016020900481019282620003765760008555620003c2565b82601f106200039157805160ff1916838001178555620003c2565b82800160010185558215620003c2579182015b82811115620003c1578251825591602001919060010190620003a4565b5b509050620003d19190620003d5565b5090565b5b80821115620003f0576000816000905550600101620003d6565b5090565b600082825260208201905092915050565b7f4f776e61626c653a2063616c6c6572206973206e6f7420746865206f776e6572600082015250565b60006200043d602083620003f4565b91506200044a8262000405565b602082019050919050565b6000602082019050818103600083015262000470816200042e565b9050919050565b7f4e487b7100000000000000000000000000000000000000000000000000000000600052602260045260246000fd5b60006002820490506001821680620004bf57607f821691505b60208210811415620004d657620004d562000477565b5b50919050565b61341880620004ec6000396000f3fe60806040526004361061011f5760003560e01c806370a08231116100a0578063a22cb46511610064578063a22cb465146103c6578063b88d4fde146103ef578063c87b56dd14610418578063e985e9c514610455578063f2fde38b146104925761011f565b806370a0823114610300578063715018a61461033d5780638da5cb5b1461035457806395d89b411461037f578063a0712d68146103aa5761011f565b806318160ddd116100e757806318160ddd1461021d57806323b872dd1461024857806342842e0e1461027157806355f804b31461029a5780636352211e146102c35761011f565b806301ffc9a71461012457806306fdde0314610161578063081812fc1461018c578063095ea7b3146101c95780630f7309e8146101f2575b600080fd5b34801561013057600080fd5b5061014b60048036038101906101469190611f2c565b6104bb565b6040516101589190611f74565b60405180910390f35b34801561016d57600080fd5b5061017661059d565b6040516101839190612028565b60405180910390f35b34801561019857600080fd5b506101b360048036038101906101ae9190612080565b61062f565b6040516101c091906120ee565b60405180910390f35b3480156101d557600080fd5b506101f060048036038101906101eb9190612135565b6106b4565b005b3480156101fe57600080fd5b506102076107cc565b6040516102149190612028565b60405180910390f35b34801561022957600080fd5b5061023261085a565b60405161023f9190612184565b60405180910390f35b34801561025457600080fd5b5061026f600480360381019061026a919061219f565b610860565b005b34801561027d57600080fd5b506102986004803603810190610293919061219f565b6108c0565b005b3480156102a657600080fd5b506102c160048036038101906102bc9190612327565b6108e0565b005b3480156102cf57600080fd5b506102ea60048036038101906102e59190612080565b610976565b6040516102f791906120ee565b60405180910390f35b34801561030c57600080fd5b5061032760048036038101906103229190612370565b610a28565b6040516103349190612184565b60405180910390f35b34801561034957600080fd5b50610352610ae0565b005b34801561036057600080fd5b50610369610b68565b60405161037691906120ee565b60405180910390f35b34801561038b57600080fd5b50610394610b91565b6040516103a19190612028565b60405180910390f35b6103c460048036038101906103bf9190612080565b610c23565b005b3480156103d257600080fd5b506103ed60048036038101906103e891906123c9565b610e3a565b005b3480156103fb57600080fd5b50610416600480360381019061041191906124aa565b610e50565b005b34801561042457600080fd5b5061043f600480360381019061043a9190612080565b610eb2565b60405161044c9190612028565b60405180910390f35b34801561046157600080fd5b5061047c6004803603810190610477919061252d565b610f59565b6040516104899190611f74565b60405180910390f35b34801561049e57600080fd5b506104b960048036038101906104b49190612370565b610fed565b005b60007f80ac58cd000000000000000000000000000000000000000000000000000000007bffffffffffffffffffffffffffffffffffffffffffffffffffffffff1916827bffffffffffffffffffffffffffffffffffffffffffffffffffffffff1916148061058657507f5b5e139f000000000000000000000000000000000000000000000000000000007bffffffffffffffffffffffffffffffffffffffffffffffffffffffff1916827bffffffffffffffffffffffffffffffffffffffffffffffffffffffff1916145b806105965750610595826110e5565b5b9050919050565b6060600180546105ac9061259c565b80601f01602080910402602001604051908101604052809291908181526020018280546105d89061259c565b80156106255780601f106105fa57610100808354040283529160200191610625565b820191906000526020600020905b81548152906001019060200180831161060857829003601f168201915b5050505050905090565b600061063a8261114f565b610679576040517f08c379a000000000000000000000000000000000000000000000000000000000815260040161067090612640565b60405180910390fd5b6005600083815260200190815260200160002060009054906101000a900473ffffffffffffffffffffffffffffffffffffffff169050919050565b60006106bf82610976565b90508073ffffffffffffffffffffffffffffffffffffffff168373ffffffffffffffffffffffffffffffffffffffff161415610730576040517f08c379a0000000000000000000000000000000000000000000000000000000008152600401610727906126d2565b60405180910390fd5b8073ffffffffffffffffffffffffffffffffffffffff1661074f6111bb565b73ffffffffffffffffffffffffffffffffffffffff16148061077e575061077d816107786111bb565b610f59565b5b6107bd576040517f08c379a00000000000000000000000000000000000000000000000000000000081526004016107b490612764565b60405180910390fd5b6107c783836111c3565b505050565b600780546107d99061259c565b80601f01602080910402602001604051908101604052809291908181526020018280546108059061259c565b80156108525780601f1061082757610100808354040283529160200191610852565b820191906000526020600020905b81548152906001019060200180831161083557829003601f168201915b505050505081565b600d5481565b61087161086b6111bb565b8261127c565b6108b0576040517f08c379a00000000000000000000000000000000000000000000000000000000081526004016108a7906127f6565b60405180910390fd5b6108bb83838361135a565b505050565b6108db83838360405180602001604052806000815250610e50565b505050565b6108e86111bb565b73ffffffffffffffffffffffffffffffffffffffff16610906610b68565b73ffffffffffffffffffffffffffffffffffffffff161461095c576040517f08c379a000000000000000000000000000000000000000000000000000000000815260040161095390612862565b60405180910390fd5b8060089080519060200190610972929190611e1d565b5050565b6000806003600084815260200190815260200160002060009054906101000a900473ffffffffffffffffffffffffffffffffffffffff169050600073ffffffffffffffffffffffffffffffffffffffff168173ffffffffffffffffffffffffffffffffffffffff161415610a1f576040517f08c379a0000000000000000000000000000000000000000000000000000000008152600401610a16906128f4565b60405180910390fd5b80915050919050565b60008073ffffffffffffffffffffffffffffffffffffffff168273ffffffffffffffffffffffffffffffffffffffff161415610a99576040517f08c379a0000000000000000000000000000000000000000000000000000000008152600401610a9090612986565b60405180910390fd5b600460008373ffffffffffffffffffffffffffffffffffffffff1673ffffffffffffffffffffffffffffffffffffffff168152602001908152602001600020549050919050565b610ae86111bb565b73ffffffffffffffffffffffffffffffffffffffff16610b06610b68565b73ffffffffffffffffffffffffffffffffffffffff1614610b5c576040517f08c379a0000000000000000000000000000000000000000000000000000000008152600401610b5390612862565b60405180910390fd5b610b6660006115b6565b565b60008060009054906101000a900473ffffffffffffffffffffffffffffffffffffffff16905090565b606060028054610ba09061259c565b80601f0160208091040260200160405190810160405280929190818152602001828054610bcc9061259c565b8015610c195780601f10610bee57610100808354040283529160200191610c19565b820191906000526020600020905b815481529060010190602001808311610bfc57829003601f168201915b5050505050905090565b60008111610c66576040517f08c379a0000000000000000000000000000000000000000000000000000000008152600401610c5d906129f2565b60405180910390fd5b600b54811115610cab576040517f08c379a0000000000000000000000000000000000000000000000000000000008152600401610ca290612a84565b60405180910390fd5b600a5481600d54610cbc9190612ad3565b1115610cfd576040517f08c379a0000000000000000000000000000000000000000000000000000000008152600401610cf490612b9b565b60405180910390fd5b600081600954610d0d9190612bbb565b9050610d17610b68565b73ffffffffffffffffffffffffffffffffffffffff163373ffffffffffffffffffffffffffffffffffffffff1614610d575780341015610d5657600080fd5b5b6000600190505b828111610d9c57610d7133600d5461167a565b600d6000815480929190610d8490612c15565b91905055508080610d9490612c15565b915050610d5e565b506000600c60009054906101000a900473ffffffffffffffffffffffffffffffffffffffff1673ffffffffffffffffffffffffffffffffffffffff1647604051610de590612c8f565b60006040518083038185875af1925050503d8060008114610e22576040519150601f19603f3d011682016040523d82523d6000602084013e610e27565b606091505b5050905080610e3557600080fd5b505050565b610e4c610e456111bb565b8383611698565b5050565b610e61610e5b6111bb565b8361127c565b610ea0576040517f08c379a0000000000000000000000000000000000000000000000000000000008152600401610e97906127f6565b60405180910390fd5b610eac84848484611805565b50505050565b6060610ebd8261114f565b610efc576040517f08c379a0000000000000000000000000000000000000000000000000000000008152600401610ef390612d16565b60405180910390fd5b6000610f06611861565b90506000815111610f265760405180602001604052806000815250610f51565b80610f30846118f3565b604051602001610f41929190612dbe565b6040516020818303038152906040525b915050919050565b6000600660008473ffffffffffffffffffffffffffffffffffffffff1673ffffffffffffffffffffffffffffffffffffffff16815260200190815260200160002060008373ffffffffffffffffffffffffffffffffffffffff1673ffffffffffffffffffffffffffffffffffffffff16815260200190815260200160002060009054906101000a900460ff16905092915050565b610ff56111bb565b73ffffffffffffffffffffffffffffffffffffffff16611013610b68565b73ffffffffffffffffffffffffffffffffffffffff1614611069576040517f08c379a000000000000000000000000000000000000000000000000000000000815260040161106090612862565b60405180910390fd5b600073ffffffffffffffffffffffffffffffffffffffff168173ffffffffffffffffffffffffffffffffffffffff1614156110d9576040517f08c379a00000000000000000000000000000000000000000000000000000000081526004016110d090612e5f565b60405180910390fd5b6110e2816115b6565b50565b60007f01ffc9a7000000000000000000000000000000000000000000000000000000007bffffffffffffffffffffffffffffffffffffffffffffffffffffffff1916827bffffffffffffffffffffffffffffffffffffffffffffffffffffffff1916149050919050565b60008073ffffffffffffffffffffffffffffffffffffffff166003600084815260200190815260200160002060009054906101000a900473ffffffffffffffffffffffffffffffffffffffff1673ffffffffffffffffffffffffffffffffffffffff1614159050919050565b600033905090565b816005600083815260200190815260200160002060006101000a81548173ffffffffffffffffffffffffffffffffffffffff021916908373ffffffffffffffffffffffffffffffffffffffff160217905550808273ffffffffffffffffffffffffffffffffffffffff1661123683610976565b73ffffffffffffffffffffffffffffffffffffffff167f8c5be1e5ebec7d5bd14f71427d1e84f3dd0314c0f7b2291e5b200ac8c7c3b92560405160405180910390a45050565b60006112878261114f565b6112c6576040517f08c379a00000000000000000000000000000000000000000000000000000000081526004016112bd90612ef1565b60405180910390fd5b60006112d183610976565b90508073ffffffffffffffffffffffffffffffffffffffff168473ffffffffffffffffffffffffffffffffffffffff16148061134057508373ffffffffffffffffffffffffffffffffffffffff166113288461062f565b73ffffffffffffffffffffffffffffffffffffffff16145b8061135157506113508185610f59565b5b91505092915050565b8273ffffffffffffffffffffffffffffffffffffffff1661137a82610976565b73ffffffffffffffffffffffffffffffffffffffff16146113d0576040517f08c379a00000000000000000000000000000000000000000000000000000000081526004016113c790612f83565b60405180910390fd5b600073ffffffffffffffffffffffffffffffffffffffff168273ffffffffffffffffffffffffffffffffffffffff161415611440576040517f08c379a000000000000000000000000000000000000000000000000000000000815260040161143790613015565b60405180910390fd5b61144b838383611a54565b6114566000826111c3565b6001600460008573ffffffffffffffffffffffffffffffffffffffff1673ffffffffffffffffffffffffffffffffffffffff16815260200190815260200160002060008282546114a69190613035565b925050819055506001600460008473ffffffffffffffffffffffffffffffffffffffff1673ffffffffffffffffffffffffffffffffffffffff16815260200190815260200160002060008282546114fd9190612ad3565b92505081905550816003600083815260200190815260200160002060006101000a81548173ffffffffffffffffffffffffffffffffffffffff021916908373ffffffffffffffffffffffffffffffffffffffff160217905550808273ffffffffffffffffffffffffffffffffffffffff168473ffffffffffffffffffffffffffffffffffffffff167fddf252ad1be2c89b69c2b068fc378daa952ba7f163c4a11628f55a4df523b3ef60405160405180910390a4505050565b60008060009054906101000a900473ffffffffffffffffffffffffffffffffffffffff169050816000806101000a81548173ffffffffffffffffffffffffffffffffffffffff021916908373ffffffffffffffffffffffffffffffffffffffff1602179055508173ffffffffffffffffffffffffffffffffffffffff168173ffffffffffffffffffffffffffffffffffffffff167f8be0079c531659141344cd1fd0a4f28419497f9722a3daafe3b4186f6b6457e060405160405180910390a35050565b611694828260405180602001604052806000815250611a59565b5050565b8173ffffffffffffffffffffffffffffffffffffffff168373ffffffffffffffffffffffffffffffffffffffff161415611707576040517f08c379a00000000000000000000000000000000000000000000000000000000081526004016116fe906130b5565b60405180910390fd5b80600660008573ffffffffffffffffffffffffffffffffffffffff1673ffffffffffffffffffffffffffffffffffffffff16815260200190815260200160002060008473ffffffffffffffffffffffffffffffffffffffff1673ffffffffffffffffffffffffffffffffffffffff16815260200190815260200160002060006101000a81548160ff0219169083151502179055508173ffffffffffffffffffffffffffffffffffffffff168373ffffffffffffffffffffffffffffffffffffffff167f17307eab39ab6107e8899845ad3d59bd9653f200f220920489ca2b5937696c31836040516117f89190611f74565b60405180910390a3505050565b61181084848461135a565b61181c84848484611ab4565b61185b576040517f08c379a000000000000000000000000000000000000000000000000000000000815260040161185290613147565b60405180910390fd5b50505050565b6060600880546118709061259c565b80601f016020809104026020016040519081016040528092919081815260200182805461189c9061259c565b80156118e95780601f106118be576101008083540402835291602001916118e9565b820191906000526020600020905b8154815290600101906020018083116118cc57829003601f168201915b5050505050905090565b6060600082141561193b576040518060400160405280600181526020017f30000000000000000000000000000000000000000000000000000000000000008152509050611a4f565b600082905060005b6000821461196d57808061195690612c15565b915050600a826119669190613196565b9150611943565b60008167ffffffffffffffff811115611989576119886121fc565b5b6040519080825280601f01601f1916602001820160405280156119bb5781602001600182028036833780820191505090505b5090505b60008514611a48576001826119d49190613035565b9150600a856119e391906131c7565b60306119ef9190612ad3565b60f81b818381518110611a0557611a046131f8565b5b60200101907effffffffffffffffffffffffffffffffffffffffffffffffffffffffffffff1916908160001a905350600a85611a419190613196565b94506119bf565b8093505050505b919050565b505050565b611a638383611c3c565b611a706000848484611ab4565b611aaf576040517f08c379a0000000000000000000000000000000000000000000000000000000008152600401611aa690613147565b60405180910390fd5b505050565b6000611ad58473ffffffffffffffffffffffffffffffffffffffff16611e0a565b15611c2f578373ffffffffffffffffffffffffffffffffffffffff1663150b7a02611afe6111bb565b8786866040518563ffffffff1660e01b8152600401611b20949392919061327c565b6020604051808303816000875af1925050508015611b5c57506040513d601f19601f82011682018060405250810190611b5991906132dd565b60015b611bdf573d8060008114611b8c576040519150601f19603f3d011682016040523d82523d6000602084013e611b91565b606091505b50600081511415611bd7576040517f08c379a0000000000000000000000000000000000000000000000000000000008152600401611bce90613147565b60405180910390fd5b805181602001fd5b63150b7a0260e01b7bffffffffffffffffffffffffffffffffffffffffffffffffffffffff1916817bffffffffffffffffffffffffffffffffffffffffffffffffffffffff191614915050611c34565b600190505b949350505050565b600073ffffffffffffffffffffffffffffffffffffffff168273ffffffffffffffffffffffffffffffffffffffff161415611cac576040517f08c379a0000000000000000000000000000000000000000000000000000000008152600401611ca390613356565b60405180910390fd5b611cb58161114f565b15611cf5576040517f08c379a0000000000000000000000000000000000000000000000000000000008152600401611cec906133c2565b60405180910390fd5b611d0160008383611a54565b6001600460008473ffffffffffffffffffffffffffffffffffffffff1673ffffffffffffffffffffffffffffffffffffffff1681526020019081526020016000206000828254611d519190612ad3565b92505081905550816003600083815260200190815260200160002060006101000a81548173ffffffffffffffffffffffffffffffffffffffff021916908373ffffffffffffffffffffffffffffffffffffffff160217905550808273ffffffffffffffffffffffffffffffffffffffff16600073ffffffffffffffffffffffffffffffffffffffff167fddf252ad1be2c89b69c2b068fc378daa952ba7f163c4a11628f55a4df523b3ef60405160405180910390a45050565b600080823b905060008111915050919050565b828054611e299061259c565b90600052602060002090601f016020900481019282611e4b5760008555611e92565b82601f10611e6457805160ff1916838001178555611e92565b82800160010185558215611e92579182015b82811115611e91578251825591602001919060010190611e76565b5b509050611e9f9190611ea3565b5090565b5b80821115611ebc576000816000905550600101611ea4565b5090565b6000604051905090565b600080fd5b600080fd5b60007fffffffff0000000000000000000000000000000000000000000000000000000082169050919050565b611f0981611ed4565b8114611f1457600080fd5b50565b600081359050611f2681611f00565b92915050565b600060208284031215611f4257611f41611eca565b5b6000611f5084828501611f17565b91505092915050565b60008115159050919050565b611f6e81611f59565b82525050565b6000602082019050611f896000830184611f65565b92915050565b600081519050919050565b600082825260208201905092915050565b60005b83811015611fc9578082015181840152602081019050611fae565b83811115611fd8576000848401525b50505050565b6000601f19601f8301169050919050565b6000611ffa82611f8f565b6120048185611f9a565b9350612014818560208601611fab565b61201d81611fde565b840191505092915050565b600060208201905081810360008301526120428184611fef565b905092915050565b6000819050919050565b61205d8161204a565b811461206857600080fd5b50565b60008135905061207a81612054565b92915050565b60006020828403121561209657612095611eca565b5b60006120a48482850161206b565b91505092915050565b600073ffffffffffffffffffffffffffffffffffffffff82169050919050565b60006120d8826120ad565b9050919050565b6120e8816120cd565b82525050565b600060208201905061210360008301846120df565b92915050565b612112816120cd565b811461211d57600080fd5b50565b60008135905061212f81612109565b92915050565b6000806040838503121561214c5761214b611eca565b5b600061215a85828601612120565b925050602061216b8582860161206b565b9150509250929050565b61217e8161204a565b82525050565b60006020820190506121996000830184612175565b92915050565b6000806000606084860312156121b8576121b7611eca565b5b60006121c686828701612120565b93505060206121d786828701612120565b92505060406121e88682870161206b565b9150509250925092565b600080fd5b600080fd5b7f4e487b7100000000000000000000000000000000000000000000000000000000600052604160045260246000fd5b61223482611fde565b810181811067ffffffffffffffff82111715612253576122526121fc565b5b80604052505050565b6000612266611ec0565b9050612272828261222b565b919050565b600067ffffffffffffffff821115612292576122916121fc565b5b61229b82611fde565b9050602081019050919050565b82818337600083830152505050565b60006122ca6122c584612277565b61225c565b9050828152602081018484840111156122e6576122e56121f7565b5b6122f18482856122a8565b509392505050565b600082601f83011261230e5761230d6121f2565b5b813561231e8482602086016122b7565b91505092915050565b60006020828403121561233d5761233c611eca565b5b600082013567ffffffffffffffff81111561235b5761235a611ecf565b5b612367848285016122f9565b91505092915050565b60006020828403121561238657612385611eca565b5b600061239484828501612120565b91505092915050565b6123a681611f59565b81146123b157600080fd5b50565b6000813590506123c38161239d565b92915050565b600080604083850312156123e0576123df611eca565b5b60006123ee85828601612120565b92505060206123ff858286016123b4565b9150509250929050565b600067ffffffffffffffff821115612424576124236121fc565b5b61242d82611fde565b9050602081019050919050565b600061244d61244884612409565b61225c565b905082815260208101848484011115612469576124686121f7565b5b6124748482856122a8565b509392505050565b600082601f830112612491576124906121f2565b5b81356124a184826020860161243a565b91505092915050565b600080600080608085870312156124c4576124c3611eca565b5b60006124d287828801612120565b94505060206124e387828801612120565b93505060406124f48782880161206b565b925050606085013567ffffffffffffffff81111561251557612514611ecf565b5b6125218782880161247c565b91505092959194509250565b6000806040838503121561254457612543611eca565b5b600061255285828601612120565b925050602061256385828601612120565b9150509250929050565b7f4e487b7100000000000000000000000000000000000000000000000000000000600052602260045260246000fd5b600060028204905060018216806125b457607f821691505b602082108114156125c8576125c761256d565b5b50919050565b7f4552433732313a20617070726f76656420717565727920666f72206e6f6e657860008201527f697374656e7420746f6b656e0000000000000000000000000000000000000000602082015250565b600061262a602c83611f9a565b9150612635826125ce565b604082019050919050565b600060208201905081810360008301526126598161261d565b9050919050565b7f4552433732313a20617070726f76616c20746f2063757272656e74206f776e6560008201527f7200000000000000000000000000000000000000000000000000000000000000602082015250565b60006126bc602183611f9a565b91506126c782612660565b604082019050919050565b600060208201905081810360008301526126eb816126af565b9050919050565b7f4552433732313a20617070726f76652063616c6c6572206973206e6f74206f7760008201527f6e6572206e6f7220617070726f76656420666f7220616c6c0000000000000000602082015250565b600061274e603883611f9a565b9150612759826126f2565b604082019050919050565b6000602082019050818103600083015261277d81612741565b9050919050565b7f4552433732313a207472616e736665722063616c6c6572206973206e6f74206f60008201527f776e6572206e6f7220617070726f766564000000000000000000000000000000602082015250565b60006127e0603183611f9a565b91506127eb82612784565b604082019050919050565b6000602082019050818103600083015261280f816127d3565b9050919050565b7f4f776e61626c653a2063616c6c6572206973206e6f7420746865206f776e6572600082015250565b600061284c602083611f9a565b915061285782612816565b602082019050919050565b6000602082019050818103600083015261287b8161283f565b9050919050565b7f4552433732313a206f776e657220717565727920666f72206e6f6e657869737460008201527f656e7420746f6b656e0000000000000000000000000000000000000000000000602082015250565b60006128de602983611f9a565b91506128e982612882565b604082019050919050565b6000602082019050818103600083015261290d816128d1565b9050919050565b7f4552433732313a2062616c616e636520717565727920666f7220746865207a6560008201527f726f206164647265737300000000000000000000000000000000000000000000602082015250565b6000612970602a83611f9a565b915061297b82612914565b604082019050919050565b6000602082019050818103600083015261299f81612963565b9050919050565b7f6d696e7420616d6f756e742063616e6e6f742062652030000000000000000000600082015250565b60006129dc601783611f9a565b91506129e7826129a6565b602082019050919050565b60006020820190508181036000830152612a0b816129cf565b9050919050565b7f6d696e7420616d6f756e742063616e6e6f74206265206772656174657220746860008201527f616e203230000000000000000000000000000000000000000000000000000000602082015250565b6000612a6e602583611f9a565b9150612a7982612a12565b604082019050919050565b60006020820190508181036000830152612a9d81612a61565b9050919050565b7f4e487b7100000000000000000000000000000000000000000000000000000000600052601160045260246000fd5b6000612ade8261204a565b9150612ae98361204a565b9250827fffffffffffffffffffffffffffffffffffffffffffffffffffffffffffffffff03821115612b1e57612b1d612aa4565b5b828201905092915050565b7f6d696e74696e672077696c6c20676f206f76657220746f74616c20737570706c60008201527f79206f662037393830206c616d70730000000000000000000000000000000000602082015250565b6000612b85602f83611f9a565b9150612b9082612b29565b604082019050919050565b60006020820190508181036000830152612bb481612b78565b9050919050565b6000612bc68261204a565b9150612bd18361204a565b9250817fffffffffffffffffffffffffffffffffffffffffffffffffffffffffffffffff0483118215151615612c0a57612c09612aa4565b5b828202905092915050565b6000612c208261204a565b91507fffffffffffffffffffffffffffffffffffffffffffffffffffffffffffffffff821415612c5357612c52612aa4565b5b600182019050919050565b600081905092915050565b50565b6000612c79600083612c5e565b9150612c8482612c69565b600082019050919050565b6000612c9a82612c6c565b9150819050919050565b7f4552433732314d657461646174613a2055524920717565727920666f72206e6f60008201527f6e6578697374656e7420746f6b656e0000000000000000000000000000000000602082015250565b6000612d00602f83611f9a565b9150612d0b82612ca4565b604082019050919050565b60006020820190508181036000830152612d2f81612cf3565b9050919050565b600081905092915050565b6000612d4c82611f8f565b612d568185612d36565b9350612d66818560208601611fab565b80840191505092915050565b7f2e6a736f6e000000000000000000000000000000000000000000000000000000600082015250565b6000612da8600583612d36565b9150612db382612d72565b600582019050919050565b6000612dca8285612d41565b9150612dd68284612d41565b9150612de182612d9b565b91508190509392505050565b7f4f776e61626c653a206e6577206f776e657220697320746865207a65726f206160008201527f6464726573730000000000000000000000000000000000000000000000000000602082015250565b6000612e49602683611f9a565b9150612e5482612ded565b604082019050919050565b60006020820190508181036000830152612e7881612e3c565b9050919050565b7f4552433732313a206f70657261746f7220717565727920666f72206e6f6e657860008201527f697374656e7420746f6b656e0000000000000000000000000000000000000000602082015250565b6000612edb602c83611f9a565b9150612ee682612e7f565b604082019050919050565b60006020820190508181036000830152612f0a81612ece565b9050919050565b7f4552433732313a207472616e73666572206f6620746f6b656e2074686174206960008201527f73206e6f74206f776e0000000000000000000000000000000000000000000000602082015250565b6000612f6d602983611f9a565b9150612f7882612f11565b604082019050919050565b60006020820190508181036000830152612f9c81612f60565b9050919050565b7f4552433732313a207472616e7366657220746f20746865207a65726f2061646460008201527f7265737300000000000000000000000000000000000000000000000000000000602082015250565b6000612fff602483611f9a565b915061300a82612fa3565b604082019050919050565b6000602082019050818103600083015261302e81612ff2565b9050919050565b60006130408261204a565b915061304b8361204a565b92508282101561305e5761305d612aa4565b5b828203905092915050565b7f4552433732313a20617070726f766520746f2063616c6c657200000000000000600082015250565b600061309f601983611f9a565b91506130aa82613069565b602082019050919050565b600060208201905081810360008301526130ce81613092565b9050919050565b7f4552433732313a207472616e7366657220746f206e6f6e20455243373231526560008201527f63656976657220696d706c656d656e7465720000000000000000000000000000602082015250565b6000613131603283611f9a565b915061313c826130d5565b604082019050919050565b6000602082019050818103600083015261316081613124565b9050919050565b7f4e487b7100000000000000000000000000000000000000000000000000000000600052601260045260246000fd5b60006131a18261204a565b91506131ac8361204a565b9250826131bc576131bb613167565b5b828204905092915050565b60006131d28261204a565b91506131dd8361204a565b9250826131ed576131ec613167565b5b828206905092915050565b7f4e487b7100000000000000000000000000000000000000000000000000000000600052603260045260246000fd5b600081519050919050565b600082825260208201905092915050565b600061324e82613227565b6132588185613232565b9350613268818560208601611fab565b61327181611fde565b840191505092915050565b600060808201905061329160008301876120df565b61329e60208301866120df565b6132ab6040830185612175565b81810360608301526132bd8184613243565b905095945050505050565b6000815190506132d781611f00565b92915050565b6000602082840312156132f3576132f2611eca565b5b6000613301848285016132c8565b91505092915050565b7f4552433732313a206d696e7420746f20746865207a65726f2061646472657373600082015250565b6000613340602083611f9a565b915061334b8261330a565b602082019050919050565b6000602082019050818103600083015261336f81613333565b9050919050565b7f4552433732313a20746f6b656e20616c7265616479206d696e74656400000000600082015250565b60006133ac601c83611f9a565b91506133b782613376565b602082019050919050565b600060208201905081810360008301526133db8161339f565b905091905056fea2646970667358221220b9ae85e1552bc43e8f390d844bec70d78c818cdc6fabff42672024543a3fc7df64736f6c634300080b0033697066733a2f2f516d63594154776e66473461336279615637616a72674e42666a39476254613645765a6d526542576739576743422f64653765663165643566633836663735633663666239316163303538626432613233313964613938653735343838373231393966336438306531376536663038",
  "immutableReferences": {},
  "source": "// SPDX-License-Identifier: MIT\npragma solidity >=0.4.22 <0.9.0;\n\nimport \"@openzeppelin/contracts/access/Ownable.sol\";\nimport \"@openzeppelin/contracts/token/ERC721/ERC721.sol\";\n\ncontract LavaLamp is Ownable, ERC721 {\n    using Strings for uint256;\n    string public provenance = \"de7ef1ed5fc86f75c6cfb91ac058bd2a2319da98e7548872199f3d80e17e6f08\";\n    string private currentBaseURI;\n\n    uint256 private cost = 0.03 ether;\n    uint256 private maxSupply = 7980;\n    uint256 private maxMintAmount = 20;\n    address private lavaLampsEth = 0x4024b17b6fD2AC7a83bfE0c71970D23eE335BC40;\n\n    uint256 public totalSupply = 0;\n\n    constructor() ERC721(\"LavaLamp\", \"LAVALAMP\") {\n        setBaseURI(\"ipfs://QmcYATwnfG4a3byaV7ajrgNBfj9GbTa6EvZmReBWg9WgCB/\");\n    }\n\n    function setBaseURI(string memory baseURI) public onlyOwner {\n        currentBaseURI = baseURI;\n    }\n\n    function _baseURI() internal view virtual override returns (string memory) {\n        return currentBaseURI;\n    }\n\n    function tokenURI(uint256 tokenId) public view virtual override returns (string memory) {\n        require(_exists(tokenId), \"ERC721Metadata: URI query for nonexistent token\");\n\n        string memory curBaseURI = _baseURI();\n\n        return bytes(curBaseURI).length > 0\n            ? string(abi.encodePacked(curBaseURI, tokenId.toString(), '.json'))\n            : \"\";\n    }\n\n    function mint(uint256 mintAmount) public payable {\n        require(mintAmount > 0, 'mint amount cannot be 0');\n        require(mintAmount <= maxMintAmount, 'mint amount cannot be greater than 20');\n        require(totalSupply + mintAmount <= maxSupply, 'minting will go over total supply of 7980 lamps');\n        uint256 price = cost * mintAmount;\n\n        if (msg.sender != owner())\n            require(msg.value >= price);\n\n        for (uint256 i = 1; i <= mintAmount; i++) {\n            _safeMint(msg.sender, totalSupply);\n            totalSupply++;\n        }\n\n        (bool success, ) = payable(lavaLampsEth).call{value: address(this).balance}(\"\");\n        require(success);\n    }\n}\n",
  "sourcePath": "/Users/superdorvil/workspace/ReactWorkspace/PersonalProjects/lava-lamp-nft/contracts/LavaLamp.sol",
  "compiler": {
    "name": "solc",
    "version": "0.8.11+commit.d7f03943.Emscripten.clang"
  },
  "schemaVersion": "3.4.3",
  "updatedAt": "2022-02-04T22:14:43.376Z",
  "networkType": "ethereum",
  "devdoc": {
    "kind": "dev",
    "methods": {
      "approve(address,uint256)": {
        "details": "See {IERC721-approve}."
      },
      "balanceOf(address)": {
        "details": "See {IERC721-balanceOf}."
      },
      "getApproved(uint256)": {
        "details": "See {IERC721-getApproved}."
      },
      "isApprovedForAll(address,address)": {
        "details": "See {IERC721-isApprovedForAll}."
      },
      "name()": {
        "details": "See {IERC721Metadata-name}."
      },
      "owner()": {
        "details": "Returns the address of the current owner."
      },
      "ownerOf(uint256)": {
        "details": "See {IERC721-ownerOf}."
      },
      "renounceOwnership()": {
        "details": "Leaves the contract without owner. It will not be possible to call `onlyOwner` functions anymore. Can only be called by the current owner. NOTE: Renouncing ownership will leave the contract without an owner, thereby removing any functionality that is only available to the owner."
      },
      "safeTransferFrom(address,address,uint256)": {
        "details": "See {IERC721-safeTransferFrom}."
      },
      "safeTransferFrom(address,address,uint256,bytes)": {
        "details": "See {IERC721-safeTransferFrom}."
      },
      "setApprovalForAll(address,bool)": {
        "details": "See {IERC721-setApprovalForAll}."
      },
      "supportsInterface(bytes4)": {
        "details": "See {IERC165-supportsInterface}."
      },
      "symbol()": {
        "details": "See {IERC721Metadata-symbol}."
      },
      "tokenURI(uint256)": {
        "details": "See {IERC721Metadata-tokenURI}."
      },
      "transferFrom(address,address,uint256)": {
        "details": "See {IERC721-transferFrom}."
      },
      "transferOwnership(address)": {
        "details": "Transfers ownership of the contract to a new account (`newOwner`). Can only be called by the current owner."
      }
    },
    "version": 1
  },
  "userdoc": {
    "kind": "user",
    "methods": {},
    "version": 1
  }
}