{
  "contractName": "LavaLamp",
  "abi": [
    {
      "inputs": [],
      "stateMutability": "nonpayable",
      "type": "constructor"
    },
    {
      "anonymous": false,
      "inputs": [
        {
          "indexed": true,
          "internalType": "address",
          "name": "owner",
          "type": "address"
        },
        {
          "indexed": true,
          "internalType": "address",
          "name": "approved",
          "type": "address"
        },
        {
          "indexed": true,
          "internalType": "uint256",
          "name": "tokenId",
          "type": "uint256"
        }
      ],
      "name": "Approval",
      "type": "event"
    },
    {
      "anonymous": false,
      "inputs": [
        {
          "indexed": true,
          "internalType": "address",
          "name": "owner",
          "type": "address"
        },
        {
          "indexed": true,
          "internalType": "address",
          "name": "operator",
          "type": "address"
        },
        {
          "indexed": false,
          "internalType": "bool",
          "name": "approved",
          "type": "bool"
        }
      ],
      "name": "ApprovalForAll",
      "type": "event"
    },
    {
      "anonymous": false,
      "inputs": [
        {
          "indexed": true,
          "internalType": "address",
          "name": "previousOwner",
          "type": "address"
        },
        {
          "indexed": true,
          "internalType": "address",
          "name": "newOwner",
          "type": "address"
        }
      ],
      "name": "OwnershipTransferred",
      "type": "event"
    },
    {
      "anonymous": false,
      "inputs": [
        {
          "indexed": true,
          "internalType": "address",
          "name": "from",
          "type": "address"
        },
        {
          "indexed": true,
          "internalType": "address",
          "name": "to",
          "type": "address"
        },
        {
          "indexed": true,
          "internalType": "uint256",
          "name": "tokenId",
          "type": "uint256"
        }
      ],
      "name": "Transfer",
      "type": "event"
    },
    {
      "inputs": [
        {
          "internalType": "address",
          "name": "to",
          "type": "address"
        },
        {
          "internalType": "uint256",
          "name": "tokenId",
          "type": "uint256"
        }
      ],
      "name": "approve",
      "outputs": [],
      "stateMutability": "nonpayable",
      "type": "function"
    },
    {
      "inputs": [
        {
          "internalType": "address",
          "name": "owner",
          "type": "address"
        }
      ],
      "name": "balanceOf",
      "outputs": [
        {
          "internalType": "uint256",
          "name": "",
          "type": "uint256"
        }
      ],
      "stateMutability": "view",
      "type": "function",
      "constant": true
    },
    {
      "inputs": [
        {
          "internalType": "uint256",
          "name": "tokenId",
          "type": "uint256"
        }
      ],
      "name": "getApproved",
      "outputs": [
        {
          "internalType": "address",
          "name": "",
          "type": "address"
        }
      ],
      "stateMutability": "view",
      "type": "function",
      "constant": true
    },
    {
      "inputs": [
        {
          "internalType": "address",
          "name": "owner",
          "type": "address"
        },
        {
          "internalType": "address",
          "name": "operator",
          "type": "address"
        }
      ],
      "name": "isApprovedForAll",
      "outputs": [
        {
          "internalType": "bool",
          "name": "",
          "type": "bool"
        }
      ],
      "stateMutability": "view",
      "type": "function",
      "constant": true
    },
    {
      "inputs": [],
      "name": "name",
      "outputs": [
        {
          "internalType": "string",
          "name": "",
          "type": "string"
        }
      ],
      "stateMutability": "view",
      "type": "function",
      "constant": true
    },
    {
      "inputs": [],
      "name": "owner",
      "outputs": [
        {
          "internalType": "address",
          "name": "",
          "type": "address"
        }
      ],
      "stateMutability": "view",
      "type": "function",
      "constant": true
    },
    {
      "inputs": [
        {
          "internalType": "uint256",
          "name": "tokenId",
          "type": "uint256"
        }
      ],
      "name": "ownerOf",
      "outputs": [
        {
          "internalType": "address",
          "name": "",
          "type": "address"
        }
      ],
      "stateMutability": "view",
      "type": "function",
      "constant": true
    },
    {
      "inputs": [],
      "name": "renounceOwnership",
      "outputs": [],
      "stateMutability": "nonpayable",
      "type": "function"
    },
    {
      "inputs": [
        {
          "internalType": "address",
          "name": "from",
          "type": "address"
        },
        {
          "internalType": "address",
          "name": "to",
          "type": "address"
        },
        {
          "internalType": "uint256",
          "name": "tokenId",
          "type": "uint256"
        }
      ],
      "name": "safeTransferFrom",
      "outputs": [],
      "stateMutability": "nonpayable",
      "type": "function"
    },
    {
      "inputs": [
        {
          "internalType": "address",
          "name": "from",
          "type": "address"
        },
        {
          "internalType": "address",
          "name": "to",
          "type": "address"
        },
        {
          "internalType": "uint256",
          "name": "tokenId",
          "type": "uint256"
        },
        {
          "internalType": "bytes",
          "name": "_data",
          "type": "bytes"
        }
      ],
      "name": "safeTransferFrom",
      "outputs": [],
      "stateMutability": "nonpayable",
      "type": "function"
    },
    {
      "inputs": [
        {
          "internalType": "address",
          "name": "operator",
          "type": "address"
        },
        {
          "internalType": "bool",
          "name": "approved",
          "type": "bool"
        }
      ],
      "name": "setApprovalForAll",
      "outputs": [],
      "stateMutability": "nonpayable",
      "type": "function"
    },
    {
      "inputs": [
        {
          "internalType": "bytes4",
          "name": "interfaceId",
          "type": "bytes4"
        }
      ],
      "name": "supportsInterface",
      "outputs": [
        {
          "internalType": "bool",
          "name": "",
          "type": "bool"
        }
      ],
      "stateMutability": "view",
      "type": "function",
      "constant": true
    },
    {
      "inputs": [],
      "name": "symbol",
      "outputs": [
        {
          "internalType": "string",
          "name": "",
          "type": "string"
        }
      ],
      "stateMutability": "view",
      "type": "function",
      "constant": true
    },
    {
      "inputs": [
        {
          "internalType": "address",
          "name": "from",
          "type": "address"
        },
        {
          "internalType": "address",
          "name": "to",
          "type": "address"
        },
        {
          "internalType": "uint256",
          "name": "tokenId",
          "type": "uint256"
        }
      ],
      "name": "transferFrom",
      "outputs": [],
      "stateMutability": "nonpayable",
      "type": "function"
    },
    {
      "inputs": [
        {
          "internalType": "address",
          "name": "newOwner",
          "type": "address"
        }
      ],
      "name": "transferOwnership",
      "outputs": [],
      "stateMutability": "nonpayable",
      "type": "function"
    },
    {
      "inputs": [
        {
          "internalType": "uint256",
          "name": "tokenId",
          "type": "uint256"
        }
      ],
      "name": "tokenURI",
      "outputs": [
        {
          "internalType": "string",
          "name": "",
          "type": "string"
        }
      ],
      "stateMutability": "view",
      "type": "function",
      "constant": true
    },
    {
      "inputs": [
        {
          "internalType": "string",
          "name": "_tokenURI",
          "type": "string"
        }
      ],
      "name": "claim",
      "outputs": [],
      "stateMutability": "payable",
      "type": "function",
      "payable": true
    },
    {
      "inputs": [
        {
          "internalType": "uint256",
          "name": "tokenId",
          "type": "uint256"
        }
      ],
      "name": "get",
      "outputs": [
        {
          "internalType": "uint8[]",
          "name": "",
          "type": "uint8[]"
        }
      ],
      "stateMutability": "view",
      "type": "function",
      "constant": true
    }
  ],
  "bytecode": "0x60806040523480156200001157600080fd5b506040518060400160405280600881526020017f4c6176614c616d700000000000000000000000000000000000000000000000008152506040518060400160405280600881526020017f4c4156414c414d500000000000000000000000000000000000000000000000008152506200009e62000092620000d860201b60201c565b620000e060201b60201c565b8160019080519060200190620000b6929190620001a4565b508060029080519060200190620000cf929190620001a4565b505050620002b9565b600033905090565b60008060009054906101000a900473ffffffffffffffffffffffffffffffffffffffff169050816000806101000a81548173ffffffffffffffffffffffffffffffffffffffff021916908373ffffffffffffffffffffffffffffffffffffffff1602179055508173ffffffffffffffffffffffffffffffffffffffff168173ffffffffffffffffffffffffffffffffffffffff167f8be0079c531659141344cd1fd0a4f28419497f9722a3daafe3b4186f6b6457e060405160405180910390a35050565b828054620001b29062000283565b90600052602060002090601f016020900481019282620001d6576000855562000222565b82601f10620001f157805160ff191683800117855562000222565b8280016001018555821562000222579182015b828111156200022157825182559160200191906001019062000204565b5b50905062000231919062000235565b5090565b5b808211156200025057600081600090555060010162000236565b5090565b7f4e487b7100000000000000000000000000000000000000000000000000000000600052602260045260246000fd5b600060028204905060018216806200029c57607f821691505b60208210811415620002b357620002b262000254565b5b50919050565b61381980620002c96000396000f3fe6080604052600436106101095760003560e01c80638da5cb5b11610095578063b88d4fde11610064578063b88d4fde1461037b578063c87b56dd146103a4578063e985e9c5146103e1578063f2fde38b1461041e578063f3fe12c91461044757610109565b80638da5cb5b146102bf5780639507d39a146102ea57806395d89b4114610327578063a22cb4651461035257610109565b806323b872dd116100dc57806323b872dd146101dc57806342842e0e146102055780636352211e1461022e57806370a082311461026b578063715018a6146102a857610109565b806301ffc9a71461010e57806306fdde031461014b578063081812fc14610176578063095ea7b3146101b3575b600080fd5b34801561011a57600080fd5b50610135600480360381019061013091906123ca565b610463565b6040516101429190612412565b60405180910390f35b34801561015757600080fd5b50610160610545565b60405161016d91906124c6565b60405180910390f35b34801561018257600080fd5b5061019d6004803603810190610198919061251e565b6105d7565b6040516101aa919061258c565b60405180910390f35b3480156101bf57600080fd5b506101da60048036038101906101d591906125d3565b61065c565b005b3480156101e857600080fd5b5061020360048036038101906101fe9190612613565b610774565b005b34801561021157600080fd5b5061022c60048036038101906102279190612613565b6107d4565b005b34801561023a57600080fd5b506102556004803603810190610250919061251e565b6107f4565b604051610262919061258c565b60405180910390f35b34801561027757600080fd5b50610292600480360381019061028d9190612666565b6108a6565b60405161029f91906126a2565b60405180910390f35b3480156102b457600080fd5b506102bd61095e565b005b3480156102cb57600080fd5b506102d46109e6565b6040516102e1919061258c565b60405180910390f35b3480156102f657600080fd5b50610311600480360381019061030c919061251e565b610a0f565b60405161031e9190612788565b60405180910390f35b34801561033357600080fd5b5061033c610d24565b60405161034991906124c6565b60405180910390f35b34801561035e57600080fd5b50610379600480360381019061037491906127d6565b610db6565b005b34801561038757600080fd5b506103a2600480360381019061039d919061294b565b610f37565b005b3480156103b057600080fd5b506103cb60048036038101906103c6919061251e565b610f99565b6040516103d891906124c6565b60405180910390f35b3480156103ed57600080fd5b50610408600480360381019061040391906129ce565b611056565b6040516104159190612412565b60405180910390f35b34801561042a57600080fd5b5061044560048036038101906104409190612666565b6110ea565b005b610461600480360381019061045c9190612aaf565b6111e2565b005b60007f80ac58cd000000000000000000000000000000000000000000000000000000007bffffffffffffffffffffffffffffffffffffffffffffffffffffffff1916827bffffffffffffffffffffffffffffffffffffffffffffffffffffffff1916148061052e57507f5b5e139f000000000000000000000000000000000000000000000000000000007bffffffffffffffffffffffffffffffffffffffffffffffffffffffff1916827bffffffffffffffffffffffffffffffffffffffffffffffffffffffff1916145b8061053e575061053d8261128c565b5b9050919050565b60606001805461055490612b27565b80601f016020809104026020016040519081016040528092919081815260200182805461058090612b27565b80156105cd5780601f106105a2576101008083540402835291602001916105cd565b820191906000526020600020905b8154815290600101906020018083116105b057829003601f168201915b5050505050905090565b60006105e2826112f6565b610621576040517f08c379a000000000000000000000000000000000000000000000000000000000815260040161061890612bcb565b60405180910390fd5b6005600083815260200190815260200160002060009054906101000a900473ffffffffffffffffffffffffffffffffffffffff169050919050565b6000610667826107f4565b90508073ffffffffffffffffffffffffffffffffffffffff168373ffffffffffffffffffffffffffffffffffffffff1614156106d8576040517f08c379a00000000000000000000000000000000000000000000000000000000081526004016106cf90612c5d565b60405180910390fd5b8073ffffffffffffffffffffffffffffffffffffffff166106f7611362565b73ffffffffffffffffffffffffffffffffffffffff161480610726575061072581610720611362565b611056565b5b610765576040517f08c379a000000000000000000000000000000000000000000000000000000000815260040161075c90612cef565b60405180910390fd5b61076f838361136a565b505050565b61078561077f611362565b82611423565b6107c4576040517f08c379a00000000000000000000000000000000000000000000000000000000081526004016107bb90612d81565b60405180910390fd5b6107cf838383611501565b505050565b6107ef83838360405180602001604052806000815250610f37565b505050565b6000806003600084815260200190815260200160002060009054906101000a900473ffffffffffffffffffffffffffffffffffffffff169050600073ffffffffffffffffffffffffffffffffffffffff168173ffffffffffffffffffffffffffffffffffffffff16141561089d576040517f08c379a000000000000000000000000000000000000000000000000000000000815260040161089490612e13565b60405180910390fd5b80915050919050565b60008073ffffffffffffffffffffffffffffffffffffffff168273ffffffffffffffffffffffffffffffffffffffff161415610917576040517f08c379a000000000000000000000000000000000000000000000000000000000815260040161090e90612ea5565b60405180910390fd5b600460008373ffffffffffffffffffffffffffffffffffffffff1673ffffffffffffffffffffffffffffffffffffffff168152602001908152602001600020549050919050565b610966611362565b73ffffffffffffffffffffffffffffffffffffffff166109846109e6565b73ffffffffffffffffffffffffffffffffffffffff16146109da576040517f08c379a00000000000000000000000000000000000000000000000000000000081526004016109d190612f11565b60405180910390fd5b6109e4600061175d565b565b60008060009054906101000a900473ffffffffffffffffffffffffffffffffffffffff16905090565b6060610a1a826112f6565b610a59576040517f08c379a0000000000000000000000000000000000000000000000000000000008152600401610a5090612f7d565b60405180910390fd5b600060086000848152602001908152602001600020604051806101000160405290816000820160009054906101000a900460ff1660ff1660ff1681526020016000820160019054906101000a900460ff1660ff1660ff1681526020016000820160029054906101000a900460ff1660ff1660ff1681526020016000820160039054906101000a900460ff1660ff1660ff1681526020016000820160049054906101000a900460ff1660ff1660ff1681526020016000820160059054906101000a900460ff1660ff1660ff1681526020016000820160069054906101000a900460ff1660ff1660ff1681526020016000820160079054906101000a900460ff1660ff1660ff168152505090506000600867ffffffffffffffff811115610b8157610b80612820565b5b604051908082528060200260200182016040528015610baf5781602001602082028036833780820191505090505b509050816000015181600081518110610bcb57610bca612f9d565b5b602002602001019060ff16908160ff1681525050816020015181600181518110610bf857610bf7612f9d565b5b602002602001019060ff16908160ff1681525050816040015181600281518110610c2557610c24612f9d565b5b602002602001019060ff16908160ff1681525050816060015181600381518110610c5257610c51612f9d565b5b602002602001019060ff16908160ff1681525050816080015181600481518110610c7f57610c7e612f9d565b5b602002602001019060ff16908160ff16815250508160a0015181600581518110610cac57610cab612f9d565b5b602002602001019060ff16908160ff16815250508160c0015181600681518110610cd957610cd8612f9d565b5b602002602001019060ff16908160ff16815250508160e0015181600781518110610d0657610d05612f9d565b5b602002602001019060ff16908160ff16815250508092505050919050565b606060028054610d3390612b27565b80601f0160208091040260200160405190810160405280929190818152602001828054610d5f90612b27565b8015610dac5780601f10610d8157610100808354040283529160200191610dac565b820191906000526020600020905b815481529060010190602001808311610d8f57829003601f168201915b5050505050905090565b610dbe611362565b73ffffffffffffffffffffffffffffffffffffffff168273ffffffffffffffffffffffffffffffffffffffff161415610e2c576040517f08c379a0000000000000000000000000000000000000000000000000000000008152600401610e2390613018565b60405180910390fd5b8060066000610e39611362565b73ffffffffffffffffffffffffffffffffffffffff1673ffffffffffffffffffffffffffffffffffffffff16815260200190815260200160002060008473ffffffffffffffffffffffffffffffffffffffff1673ffffffffffffffffffffffffffffffffffffffff16815260200190815260200160002060006101000a81548160ff0219169083151502179055508173ffffffffffffffffffffffffffffffffffffffff16610ee6611362565b73ffffffffffffffffffffffffffffffffffffffff167f17307eab39ab6107e8899845ad3d59bd9653f200f220920489ca2b5937696c3183604051610f2b9190612412565b60405180910390a35050565b610f48610f42611362565b83611423565b610f87576040517f08c379a0000000000000000000000000000000000000000000000000000000008152600401610f7e90612d81565b60405180910390fd5b610f9384848484611821565b50505050565b6060610fa4826112f6565b610fad57600080fd5b6000600960008481526020019081526020016000208054610fcd90612b27565b80601f0160208091040260200160405190810160405280929190818152602001828054610ff990612b27565b80156110465780601f1061101b57610100808354040283529160200191611046565b820191906000526020600020905b81548152906001019060200180831161102957829003601f168201915b5050505050905080915050919050565b6000600660008473ffffffffffffffffffffffffffffffffffffffff1673ffffffffffffffffffffffffffffffffffffffff16815260200190815260200160002060008373ffffffffffffffffffffffffffffffffffffffff1673ffffffffffffffffffffffffffffffffffffffff16815260200190815260200160002060009054906101000a900460ff16905092915050565b6110f2611362565b73ffffffffffffffffffffffffffffffffffffffff166111106109e6565b73ffffffffffffffffffffffffffffffffffffffff1614611166576040517f08c379a000000000000000000000000000000000000000000000000000000000815260040161115d90612f11565b60405180910390fd5b600073ffffffffffffffffffffffffffffffffffffffff168173ffffffffffffffffffffffffffffffffffffffff1614156111d6576040517f08c379a00000000000000000000000000000000000000000000000000000000081526004016111cd906130aa565b60405180910390fd5b6111df8161175d565b50565b666a94d74f430000341461122b576040517f08c379a00000000000000000000000000000000000000000000000000000000081526004016112229061313c565b60405180910390fd5b6112348161187d565b61123c6109e6565b73ffffffffffffffffffffffffffffffffffffffff166108fc666a94d74f4300009081150290604051600060405180830381858888f19350505050158015611288573d6000803e3d6000fd5b5050565b60007f01ffc9a7000000000000000000000000000000000000000000000000000000007bffffffffffffffffffffffffffffffffffffffffffffffffffffffff1916827bffffffffffffffffffffffffffffffffffffffffffffffffffffffff1916149050919050565b60008073ffffffffffffffffffffffffffffffffffffffff166003600084815260200190815260200160002060009054906101000a900473ffffffffffffffffffffffffffffffffffffffff1673ffffffffffffffffffffffffffffffffffffffff1614159050919050565b600033905090565b816005600083815260200190815260200160002060006101000a81548173ffffffffffffffffffffffffffffffffffffffff021916908373ffffffffffffffffffffffffffffffffffffffff160217905550808273ffffffffffffffffffffffffffffffffffffffff166113dd836107f4565b73ffffffffffffffffffffffffffffffffffffffff167f8c5be1e5ebec7d5bd14f71427d1e84f3dd0314c0f7b2291e5b200ac8c7c3b92560405160405180910390a45050565b600061142e826112f6565b61146d576040517f08c379a0000000000000000000000000000000000000000000000000000000008152600401611464906131ce565b60405180910390fd5b6000611478836107f4565b90508073ffffffffffffffffffffffffffffffffffffffff168473ffffffffffffffffffffffffffffffffffffffff1614806114e757508373ffffffffffffffffffffffffffffffffffffffff166114cf846105d7565b73ffffffffffffffffffffffffffffffffffffffff16145b806114f857506114f78185611056565b5b91505092915050565b8273ffffffffffffffffffffffffffffffffffffffff16611521826107f4565b73ffffffffffffffffffffffffffffffffffffffff1614611577576040517f08c379a000000000000000000000000000000000000000000000000000000000815260040161156e90613260565b60405180910390fd5b600073ffffffffffffffffffffffffffffffffffffffff168273ffffffffffffffffffffffffffffffffffffffff1614156115e7576040517f08c379a00000000000000000000000000000000000000000000000000000000081526004016115de906132f2565b60405180910390fd5b6115f2838383611dea565b6115fd60008261136a565b6001600460008573ffffffffffffffffffffffffffffffffffffffff1673ffffffffffffffffffffffffffffffffffffffff168152602001908152602001600020600082825461164d9190613341565b925050819055506001600460008473ffffffffffffffffffffffffffffffffffffffff1673ffffffffffffffffffffffffffffffffffffffff16815260200190815260200160002060008282546116a49190613375565b92505081905550816003600083815260200190815260200160002060006101000a81548173ffffffffffffffffffffffffffffffffffffffff021916908373ffffffffffffffffffffffffffffffffffffffff160217905550808273ffffffffffffffffffffffffffffffffffffffff168473ffffffffffffffffffffffffffffffffffffffff167fddf252ad1be2c89b69c2b068fc378daa952ba7f163c4a11628f55a4df523b3ef60405160405180910390a4505050565b60008060009054906101000a900473ffffffffffffffffffffffffffffffffffffffff169050816000806101000a81548173ffffffffffffffffffffffffffffffffffffffff021916908373ffffffffffffffffffffffffffffffffffffffff1602179055508173ffffffffffffffffffffffffffffffffffffffff168173ffffffffffffffffffffffffffffffffffffffff167f8be0079c531659141344cd1fd0a4f28419497f9722a3daafe3b4186f6b6457e060405160405180910390a35050565b61182c848484611501565b61183884848484611def565b611877576040517f08c379a000000000000000000000000000000000000000000000000000000000815260040161186e9061343d565b60405180910390fd5b50505050565b60006118896007611f86565b9050600080829050600080806000806000806000600a896118aa919061348c565b9650600a8760ff168a6118bd9190613341565b6118c791906134bd565b9850600a896118d6919061348c565b9550600a8660ff168a6118e99190613341565b6118f391906134bd565b9850600a89611902919061348c565b9450600a8560ff168a6119159190613341565b61191f91906134bd565b9850600a8961192e919061348c565b9350600a8460ff168a6119419190613341565b61194b91906134bd565b985060008760ff161115611968578780611964906134ee565b9850505b60008660ff16111561198357878061197f906134ee565b9850505b60008560ff16111561199e57878061199a906134ee565b9850505b60008460ff1611156119b95787806119b5906134ee565b9850505b620f42406119cb888888886000611f94565b6119d5919061348c565b9950614e208a10156119ea5760099250611a96565b61c3508a10156119fd5760089250611a95565b620186a08a1015611a115760079250611a94565b620298108a1015611a255760069250611a93565b6203f7a08a1015611a395760059250611a92565b6205a5508a1015611a4d5760049250611a91565b6207a1208a1015611a615760039250611a90565b6209eb108a1015611a755760029250611a8f565b620c83208a1015611a895760019250611a8e565b600092505b5b5b5b5b5b5b5b5b620f4240611aa7888888888f611f94565b611ab1919061348c565b9950614e208a1015611ac65760099150611b72565b61c3508a1015611ad95760089150611b71565b620186a08a1015611aed5760079150611b70565b620298108a1015611b015760069150611b6f565b6203f7a08a1015611b155760059150611b6e565b6205a5508a1015611b295760049150611b6d565b6207a1208a1015611b3d5760039150611b6c565b6209eb108a1015611b515760029150611b6b565b620c83208a1015611b655760019150611b6a565b600091505b5b5b5b5b5b5b5b5b620f4240611b83888888888f611f94565b611b8d919061348c565b9950614e208a1015611ba25760099050611c4e565b61c3508a1015611bb55760089050611c4d565b620186a08a1015611bc95760079050611c4c565b620298108a1015611bdd5760069050611c4b565b6203f7a08a1015611bf15760059050611c4a565b6205a5508a1015611c055760049050611c49565b6207a1208a1015611c195760039050611c48565b6209eb108a1015611c2d5760029050611c47565b620c83208a1015611c415760019050611c46565b600090505b5b5b5b5b5b5b5b5b6040518061010001604052808960ff1681526020018860ff1681526020018760ff1681526020018660ff1681526020018560ff1681526020018460ff1681526020018360ff1681526020018260ff16815250600860008d815260200190815260200160002060008201518160000160006101000a81548160ff021916908360ff16021790555060208201518160000160016101000a81548160ff021916908360ff16021790555060408201518160000160026101000a81548160ff021916908360ff16021790555060608201518160000160036101000a81548160ff021916908360ff16021790555060808201518160000160046101000a81548160ff021916908360ff16021790555060a08201518160000160056101000a81548160ff021916908360ff16021790555060c08201518160000160066101000a81548160ff021916908360ff16021790555060e08201518160000160076101000a81548160ff021916908360ff160217905550905050611dc88b8d611fd7565b611dd2338c61204b565b611ddc6007612069565b505050505050505050505050565b505050565b6000611e108473ffffffffffffffffffffffffffffffffffffffff1661207f565b15611f79578373ffffffffffffffffffffffffffffffffffffffff1663150b7a02611e39611362565b8786866040518563ffffffff1660e01b8152600401611e5b949392919061356d565b602060405180830381600087803b158015611e7557600080fd5b505af1925050508015611ea657506040513d601f19601f82011682018060405250810190611ea391906135ce565b60015b611f29573d8060008114611ed6576040519150601f19603f3d011682016040523d82523d6000602084013e611edb565b606091505b50600081511415611f21576040517f08c379a0000000000000000000000000000000000000000000000000000000008152600401611f189061343d565b60405180910390fd5b805181602001fd5b63150b7a0260e01b7bffffffffffffffffffffffffffffffffffffffffffffffffffffffff1916817bffffffffffffffffffffffffffffffffffffffffffffffffffffffff191614915050611f7e565b600190505b949350505050565b600081600001549050919050565b600042448787878787604051602001611fb3979695949392919061360a565b6040516020818303038152906040528051906020012060001c905095945050505050565b611fe0826112f6565b61201f576040517f08c379a0000000000000000000000000000000000000000000000000000000008152600401612016906136eb565b60405180910390fd5b806009600084815260200190815260200160002090805190602001906120469291906122bb565b505050565b612065828260405180602001604052806000815250612092565b5050565b6001816000016000828254019250508190555050565b600080823b905060008111915050919050565b61209c83836120ed565b6120a96000848484611def565b6120e8576040517f08c379a00000000000000000000000000000000000000000000000000000000081526004016120df9061343d565b60405180910390fd5b505050565b600073ffffffffffffffffffffffffffffffffffffffff168273ffffffffffffffffffffffffffffffffffffffff16141561215d576040517f08c379a000000000000000000000000000000000000000000000000000000000815260040161215490613757565b60405180910390fd5b612166816112f6565b156121a6576040517f08c379a000000000000000000000000000000000000000000000000000000000815260040161219d906137c3565b60405180910390fd5b6121b260008383611dea565b6001600460008473ffffffffffffffffffffffffffffffffffffffff1673ffffffffffffffffffffffffffffffffffffffff16815260200190815260200160002060008282546122029190613375565b92505081905550816003600083815260200190815260200160002060006101000a81548173ffffffffffffffffffffffffffffffffffffffff021916908373ffffffffffffffffffffffffffffffffffffffff160217905550808273ffffffffffffffffffffffffffffffffffffffff16600073ffffffffffffffffffffffffffffffffffffffff167fddf252ad1be2c89b69c2b068fc378daa952ba7f163c4a11628f55a4df523b3ef60405160405180910390a45050565b8280546122c790612b27565b90600052602060002090601f0160209004810192826122e95760008555612330565b82601f1061230257805160ff1916838001178555612330565b82800160010185558215612330579182015b8281111561232f578251825591602001919060010190612314565b5b50905061233d9190612341565b5090565b5b8082111561235a576000816000905550600101612342565b5090565b6000604051905090565b600080fd5b600080fd5b60007fffffffff0000000000000000000000000000000000000000000000000000000082169050919050565b6123a781612372565b81146123b257600080fd5b50565b6000813590506123c48161239e565b92915050565b6000602082840312156123e0576123df612368565b5b60006123ee848285016123b5565b91505092915050565b60008115159050919050565b61240c816123f7565b82525050565b60006020820190506124276000830184612403565b92915050565b600081519050919050565b600082825260208201905092915050565b60005b8381101561246757808201518184015260208101905061244c565b83811115612476576000848401525b50505050565b6000601f19601f8301169050919050565b60006124988261242d565b6124a28185612438565b93506124b2818560208601612449565b6124bb8161247c565b840191505092915050565b600060208201905081810360008301526124e0818461248d565b905092915050565b6000819050919050565b6124fb816124e8565b811461250657600080fd5b50565b600081359050612518816124f2565b92915050565b60006020828403121561253457612533612368565b5b600061254284828501612509565b91505092915050565b600073ffffffffffffffffffffffffffffffffffffffff82169050919050565b60006125768261254b565b9050919050565b6125868161256b565b82525050565b60006020820190506125a1600083018461257d565b92915050565b6125b08161256b565b81146125bb57600080fd5b50565b6000813590506125cd816125a7565b92915050565b600080604083850312156125ea576125e9612368565b5b60006125f8858286016125be565b925050602061260985828601612509565b9150509250929050565b60008060006060848603121561262c5761262b612368565b5b600061263a868287016125be565b935050602061264b868287016125be565b925050604061265c86828701612509565b9150509250925092565b60006020828403121561267c5761267b612368565b5b600061268a848285016125be565b91505092915050565b61269c816124e8565b82525050565b60006020820190506126b76000830184612693565b92915050565b600081519050919050565b600082825260208201905092915050565b6000819050602082019050919050565b600060ff82169050919050565b6126ff816126e9565b82525050565b600061271183836126f6565b60208301905092915050565b6000602082019050919050565b6000612735826126bd565b61273f81856126c8565b935061274a836126d9565b8060005b8381101561277b5781516127628882612705565b975061276d8361271d565b92505060018101905061274e565b5085935050505092915050565b600060208201905081810360008301526127a2818461272a565b905092915050565b6127b3816123f7565b81146127be57600080fd5b50565b6000813590506127d0816127aa565b92915050565b600080604083850312156127ed576127ec612368565b5b60006127fb858286016125be565b925050602061280c858286016127c1565b9150509250929050565b600080fd5b600080fd5b7f4e487b7100000000000000000000000000000000000000000000000000000000600052604160045260246000fd5b6128588261247c565b810181811067ffffffffffffffff8211171561287757612876612820565b5b80604052505050565b600061288a61235e565b9050612896828261284f565b919050565b600067ffffffffffffffff8211156128b6576128b5612820565b5b6128bf8261247c565b9050602081019050919050565b82818337600083830152505050565b60006128ee6128e98461289b565b612880565b90508281526020810184848401111561290a5761290961281b565b5b6129158482856128cc565b509392505050565b600082601f83011261293257612931612816565b5b81356129428482602086016128db565b91505092915050565b6000806000806080858703121561296557612964612368565b5b6000612973878288016125be565b9450506020612984878288016125be565b935050604061299587828801612509565b925050606085013567ffffffffffffffff8111156129b6576129b561236d565b5b6129c28782880161291d565b91505092959194509250565b600080604083850312156129e5576129e4612368565b5b60006129f3858286016125be565b9250506020612a04858286016125be565b9150509250929050565b600067ffffffffffffffff821115612a2957612a28612820565b5b612a328261247c565b9050602081019050919050565b6000612a52612a4d84612a0e565b612880565b905082815260208101848484011115612a6e57612a6d61281b565b5b612a798482856128cc565b509392505050565b600082601f830112612a9657612a95612816565b5b8135612aa6848260208601612a3f565b91505092915050565b600060208284031215612ac557612ac4612368565b5b600082013567ffffffffffffffff811115612ae357612ae261236d565b5b612aef84828501612a81565b91505092915050565b7f4e487b7100000000000000000000000000000000000000000000000000000000600052602260045260246000fd5b60006002820490506001821680612b3f57607f821691505b60208210811415612b5357612b52612af8565b5b50919050565b7f4552433732313a20617070726f76656420717565727920666f72206e6f6e657860008201527f697374656e7420746f6b656e0000000000000000000000000000000000000000602082015250565b6000612bb5602c83612438565b9150612bc082612b59565b604082019050919050565b60006020820190508181036000830152612be481612ba8565b9050919050565b7f4552433732313a20617070726f76616c20746f2063757272656e74206f776e6560008201527f7200000000000000000000000000000000000000000000000000000000000000602082015250565b6000612c47602183612438565b9150612c5282612beb565b604082019050919050565b60006020820190508181036000830152612c7681612c3a565b9050919050565b7f4552433732313a20617070726f76652063616c6c6572206973206e6f74206f7760008201527f6e6572206e6f7220617070726f76656420666f7220616c6c0000000000000000602082015250565b6000612cd9603883612438565b9150612ce482612c7d565b604082019050919050565b60006020820190508181036000830152612d0881612ccc565b9050919050565b7f4552433732313a207472616e736665722063616c6c6572206973206e6f74206f60008201527f776e6572206e6f7220617070726f766564000000000000000000000000000000602082015250565b6000612d6b603183612438565b9150612d7682612d0f565b604082019050919050565b60006020820190508181036000830152612d9a81612d5e565b9050919050565b7f4552433732313a206f776e657220717565727920666f72206e6f6e657869737460008201527f656e7420746f6b656e0000000000000000000000000000000000000000000000602082015250565b6000612dfd602983612438565b9150612e0882612da1565b604082019050919050565b60006020820190508181036000830152612e2c81612df0565b9050919050565b7f4552433732313a2062616c616e636520717565727920666f7220746865207a6560008201527f726f206164647265737300000000000000000000000000000000000000000000602082015250565b6000612e8f602a83612438565b9150612e9a82612e33565b604082019050919050565b60006020820190508181036000830152612ebe81612e82565b9050919050565b7f4f776e61626c653a2063616c6c6572206973206e6f7420746865206f776e6572600082015250565b6000612efb602083612438565b9150612f0682612ec5565b602082019050919050565b60006020820190508181036000830152612f2a81612eee565b9050919050565b7f746f6b656e206e6f74206d696e74656400000000000000000000000000000000600082015250565b6000612f67601083612438565b9150612f7282612f31565b602082019050919050565b60006020820190508181036000830152612f9681612f5a565b9050919050565b7f4e487b7100000000000000000000000000000000000000000000000000000000600052603260045260246000fd5b7f4552433732313a20617070726f766520746f2063616c6c657200000000000000600082015250565b6000613002601983612438565b915061300d82612fcc565b602082019050919050565b6000602082019050818103600083015261303181612ff5565b9050919050565b7f4f776e61626c653a206e6577206f776e657220697320746865207a65726f206160008201527f6464726573730000000000000000000000000000000000000000000000000000602082015250565b6000613094602683612438565b915061309f82613038565b604082019050919050565b600060208201905081810360008301526130c381613087565b9050919050565b7f636c61696d696e672061206c617661206c616d7020636f73747320333020666960008201527f6e6e657900000000000000000000000000000000000000000000000000000000602082015250565b6000613126602483612438565b9150613131826130ca565b604082019050919050565b6000602082019050818103600083015261315581613119565b9050919050565b7f4552433732313a206f70657261746f7220717565727920666f72206e6f6e657860008201527f697374656e7420746f6b656e0000000000000000000000000000000000000000602082015250565b60006131b8602c83612438565b91506131c38261315c565b604082019050919050565b600060208201905081810360008301526131e7816131ab565b9050919050565b7f4552433732313a207472616e73666572206f6620746f6b656e2074686174206960008201527f73206e6f74206f776e0000000000000000000000000000000000000000000000602082015250565b600061324a602983612438565b9150613255826131ee565b604082019050919050565b600060208201905081810360008301526132798161323d565b9050919050565b7f4552433732313a207472616e7366657220746f20746865207a65726f2061646460008201527f7265737300000000000000000000000000000000000000000000000000000000602082015250565b60006132dc602483612438565b91506132e782613280565b604082019050919050565b6000602082019050818103600083015261330b816132cf565b9050919050565b7f4e487b7100000000000000000000000000000000000000000000000000000000600052601160045260246000fd5b600061334c826124e8565b9150613357836124e8565b92508282101561336a57613369613312565b5b828203905092915050565b6000613380826124e8565b915061338b836124e8565b9250827fffffffffffffffffffffffffffffffffffffffffffffffffffffffffffffffff038211156133c0576133bf613312565b5b828201905092915050565b7f4552433732313a207472616e7366657220746f206e6f6e20455243373231526560008201527f63656976657220696d706c656d656e7465720000000000000000000000000000602082015250565b6000613427603283612438565b9150613432826133cb565b604082019050919050565b600060208201905081810360008301526134568161341a565b9050919050565b7f4e487b7100000000000000000000000000000000000000000000000000000000600052601260045260246000fd5b6000613497826124e8565b91506134a2836124e8565b9250826134b2576134b161345d565b5b828206905092915050565b60006134c8826124e8565b91506134d3836124e8565b9250826134e3576134e261345d565b5b828204905092915050565b60006134f9826126e9565b915060ff82141561350d5761350c613312565b5b600182019050919050565b600081519050919050565b600082825260208201905092915050565b600061353f82613518565b6135498185613523565b9350613559818560208601612449565b6135628161247c565b840191505092915050565b6000608082019050613582600083018761257d565b61358f602083018661257d565b61359c6040830185612693565b81810360608301526135ae8184613534565b905095945050505050565b6000815190506135c88161239e565b92915050565b6000602082840312156135e4576135e3612368565b5b60006135f2848285016135b9565b91505092915050565b613604816126e9565b82525050565b600060e08201905061361f600083018a612693565b61362c6020830189612693565b61363960408301886135fb565b61364660608301876135fb565b61365360808301866135fb565b61366060a08301856135fb565b61366d60c0830184612693565b98975050505050505050565b7f4552433732314d657461646174613a2055524920736574206f66206e6f6e657860008201527f697374656e7420746f6b656e0000000000000000000000000000000000000000602082015250565b60006136d5602c83612438565b91506136e082613679565b604082019050919050565b60006020820190508181036000830152613704816136c8565b9050919050565b7f4552433732313a206d696e7420746f20746865207a65726f2061646472657373600082015250565b6000613741602083612438565b915061374c8261370b565b602082019050919050565b6000602082019050818103600083015261377081613734565b9050919050565b7f4552433732313a20746f6b656e20616c7265616479206d696e74656400000000600082015250565b60006137ad601c83612438565b91506137b882613777565b602082019050919050565b600060208201905081810360008301526137dc816137a0565b905091905056fea264697066735822122056f24c3bb0a617d6f7f57df539173c63b9774a36279ea7131415f9f71135c74d64736f6c63430008090033",
  "immutableReferences": {},
  "source": "// SPDX-License-Identifier: MIT\npragma solidity >=0.4.22 <0.9.0;\n\nimport \"@openzeppelin/contracts/access/Ownable.sol\";\nimport \"@openzeppelin/contracts/utils/Counters.sol\";\nimport \"@openzeppelin/contracts/token/ERC721/ERC721.sol\";\n\ncontract LavaLamp is Ownable, ERC721 {\n\n  using Counters for Counters.Counter;\n  using Strings for uint256;\n\n  Counters.Counter private _tokenIds;\n\n  struct Metadata {\n    uint8 lava_count;\n\n    // 0 - 9 (None, Red, Green, Yellow, Blue, Purple, Light Blue, Orange, White, Pink)\n    uint8 color_1;\n    uint8 color_2;\n    uint8 color_3;\n    uint8 color_4;\n\n    uint8 base; // 5 - (alien, rocket, more)\n    uint8 background; // 9 - (space, more)\n    uint8 sticker; // 5 - (star, lightning bolt, heart, diamond, planet)\n  }\n  mapping(uint256 => Metadata) id_to_lavalamp;\n  mapping(uint256 => string) private _tokenURIs;\n\n  constructor() ERC721(\"LavaLamp\", \"LAVALAMP\") {}\n\n  function _setTokenURI(uint256 tokenId, string memory _tokenURI) internal virtual {\n    require(_exists(tokenId), \"ERC721Metadata: URI set of nonexistent token\");\n    _tokenURIs[tokenId] = _tokenURI;\n  }\n\n  function tokenURI(uint256 tokenId) public view virtual override returns (string memory) {\n    require(_exists(tokenId));\n    string memory _tokenURI = _tokenURIs[tokenId];\n    return _tokenURI;\n  }\n\n  // I'd like to add update token uri\n\n  function mint (string memory _tokenURI) internal {\n    uint256 tokenId = _tokenIds.current();\n    uint256 r;\n    uint256 lava_index = tokenId;\n    uint8 lava_count = 0;\n    uint8 color_1;\n    uint8 color_2;\n    uint8 color_3;\n    uint8 color_4;\n    uint8 base;\n    uint8 background;\n    uint8 sticker;\n\n    color_1 = uint8(lava_index % 10);\n    lava_index = (lava_index - color_1) / 10;\n    color_2 = uint8(lava_index % 10);\n    lava_index = (lava_index - color_2) / 10;\n    color_3 = uint8(lava_index % 10);\n    lava_index = (lava_index - color_3) / 10;\n    color_4 = uint8(lava_index % 10);\n    lava_index = (lava_index - color_4) / 10;\n\n    if (color_1 > 0) {\n      lava_count++;\n    }\n    if (color_2 > 0) {\n      lava_count++;\n    }\n    if (color_3 > 0) {\n      lava_count++;\n    }\n    if (color_4 > 0) {\n      lava_count++;\n    }\n\n    // bases\n    r = pseudoRNG(color_1, color_2, color_3, color_4, 0) % 1000000;\n    if (r < 20000) {\n        base = 9;\n    } else if (r < 50000) {\n        base = 8;\n    } else if (r < 100000) {\n        base = 7;\n    } else if (r < 170000) {\n        base = 6;\n    } else if (r < 260000) {\n        base = 5;\n    } else if (r < 370000) {\n        base = 4;\n    } else if (r < 500000) {\n        base = 3;\n    } else if (r < 650000) {\n        base = 2;\n    } else if (r < 820000) {\n        base = 1;\n    } else {\n        base = 0;\n    }\n\n    // background\n    r = pseudoRNG(color_1, color_2, color_3, color_4, r) % 1000000;\n    if (r < 20000) {\n        background = 9;\n    } else if (r < 50000) {\n        background = 8;\n    } else if (r < 100000) {\n        background = 7;\n    } else if (r < 170000) {\n        background = 6;\n    } else if (r < 260000) {\n        background = 5;\n    } else if (r < 370000) {\n        background = 4;\n    } else if (r < 500000) {\n        background = 3;\n    } else if (r < 650000) {\n        background = 2;\n    } else if (r < 820000) {\n        background = 1;\n    } else {\n        background = 0;\n    }\n\n    // sticker\n    r = pseudoRNG(color_1, color_2, color_3, color_4, r) % 1000000;\n    if (r < 20000) {\n        sticker = 9;\n    } else if (r < 50000) {\n        sticker = 8;\n    } else if (r < 100000) {\n        sticker = 7;\n    } else if (r < 170000) {\n        sticker = 6;\n    } else if (r < 260000) {\n        sticker = 5;\n    } else if (r < 370000) {\n        sticker = 4;\n    } else if (r < 500000) {\n        sticker = 3;\n    } else if (r < 650000) {\n        sticker = 2;\n    } else if (r < 820000) {\n        sticker = 1;\n    } else {\n        sticker = 0;\n    }\n\n    id_to_lavalamp[tokenId] = Metadata(lava_count, color_1, color_2, color_3, color_4, base, background, sticker);\n    _setTokenURI(tokenId, _tokenURI);\n    _safeMint(msg.sender, tokenId);\n\n    _tokenIds.increment();\n  }\n\n  function claim(string memory _tokenURI) external payable {\n    require(msg.value == 0.03 ether, \"claiming a lava lamp costs 30 finney\");\n\n    mint(_tokenURI);\n\n    payable(owner()).transfer(0.03 ether);\n  }\n\n  function get(uint256 tokenId) external view returns(uint8[] memory) {\n    require(_exists(tokenId), \"token not minted\");\n    Metadata memory lavalamp = id_to_lavalamp[tokenId];\n    uint8[] memory meta = new uint8[](8);\n\n    meta[0] = lavalamp.lava_count;\n\n    meta[1] = lavalamp.color_1;\n    meta[2] = lavalamp.color_2;\n    meta[3] = lavalamp.color_3;\n    meta[4] = lavalamp.color_4;\n\n    meta[5] = lavalamp.base;\n    meta[6] = lavalamp.background;\n    meta[7] = lavalamp.sticker;\n\n    return meta;\n  }\n\n  // psuedo_rng is the previous rng value, this is just top make sure we get something different everytime and don't use the same psuedo for the, base, sticker, and background\n  function pseudoRNG(uint8 color_1, uint8 color_2, uint8 color_3, uint8 color_4, uint256 prev_rng) internal view returns (uint256) {\n      return uint256(keccak256(abi.encode(block.timestamp, block.difficulty, color_1, color_2, color_3, color_4, prev_rng)));\n  }\n}\n",
  "sourcePath": "/Users/superdorvil/workspace/ReactWorkspace/PersonalProjects/lava-lamp-nft/contracts/LavaLamp.sol",
  "compiler": {
    "name": "solc",
    "version": "0.8.9+commit.e5eed63a.Emscripten.clang"
  },
  "schemaVersion": "3.4.3",
  "updatedAt": "2021-10-24T01:13:12.193Z",
  "networkType": "ethereum",
  "devdoc": {
    "kind": "dev",
    "methods": {
      "approve(address,uint256)": {
        "details": "See {IERC721-approve}."
      },
      "balanceOf(address)": {
        "details": "See {IERC721-balanceOf}."
      },
      "getApproved(uint256)": {
        "details": "See {IERC721-getApproved}."
      },
      "isApprovedForAll(address,address)": {
        "details": "See {IERC721-isApprovedForAll}."
      },
      "name()": {
        "details": "See {IERC721Metadata-name}."
      },
      "owner()": {
        "details": "Returns the address of the current owner."
      },
      "ownerOf(uint256)": {
        "details": "See {IERC721-ownerOf}."
      },
      "renounceOwnership()": {
        "details": "Leaves the contract without owner. It will not be possible to call `onlyOwner` functions anymore. Can only be called by the current owner. NOTE: Renouncing ownership will leave the contract without an owner, thereby removing any functionality that is only available to the owner."
      },
      "safeTransferFrom(address,address,uint256)": {
        "details": "See {IERC721-safeTransferFrom}."
      },
      "safeTransferFrom(address,address,uint256,bytes)": {
        "details": "See {IERC721-safeTransferFrom}."
      },
      "setApprovalForAll(address,bool)": {
        "details": "See {IERC721-setApprovalForAll}."
      },
      "supportsInterface(bytes4)": {
        "details": "See {IERC165-supportsInterface}."
      },
      "symbol()": {
        "details": "See {IERC721Metadata-symbol}."
      },
      "tokenURI(uint256)": {
        "details": "See {IERC721Metadata-tokenURI}."
      },
      "transferFrom(address,address,uint256)": {
        "details": "See {IERC721-transferFrom}."
      },
      "transferOwnership(address)": {
        "details": "Transfers ownership of the contract to a new account (`newOwner`). Can only be called by the current owner."
      }
    },
    "version": 1
  },
  "userdoc": {
    "kind": "user",
    "methods": {},
    "version": 1
  }
}