{
  "contractName": "LavaLamp",
  "abi": [
    {
      "inputs": [],
      "stateMutability": "nonpayable",
      "type": "constructor"
    },
    {
      "anonymous": false,
      "inputs": [
        {
          "indexed": true,
          "internalType": "address",
          "name": "owner",
          "type": "address"
        },
        {
          "indexed": true,
          "internalType": "address",
          "name": "approved",
          "type": "address"
        },
        {
          "indexed": true,
          "internalType": "uint256",
          "name": "tokenId",
          "type": "uint256"
        }
      ],
      "name": "Approval",
      "type": "event"
    },
    {
      "anonymous": false,
      "inputs": [
        {
          "indexed": true,
          "internalType": "address",
          "name": "owner",
          "type": "address"
        },
        {
          "indexed": true,
          "internalType": "address",
          "name": "operator",
          "type": "address"
        },
        {
          "indexed": false,
          "internalType": "bool",
          "name": "approved",
          "type": "bool"
        }
      ],
      "name": "ApprovalForAll",
      "type": "event"
    },
    {
      "anonymous": false,
      "inputs": [
        {
          "indexed": true,
          "internalType": "address",
          "name": "previousOwner",
          "type": "address"
        },
        {
          "indexed": true,
          "internalType": "address",
          "name": "newOwner",
          "type": "address"
        }
      ],
      "name": "OwnershipTransferred",
      "type": "event"
    },
    {
      "anonymous": false,
      "inputs": [
        {
          "indexed": true,
          "internalType": "address",
          "name": "from",
          "type": "address"
        },
        {
          "indexed": true,
          "internalType": "address",
          "name": "to",
          "type": "address"
        },
        {
          "indexed": true,
          "internalType": "uint256",
          "name": "tokenId",
          "type": "uint256"
        }
      ],
      "name": "Transfer",
      "type": "event"
    },
    {
      "inputs": [
        {
          "internalType": "address",
          "name": "to",
          "type": "address"
        },
        {
          "internalType": "uint256",
          "name": "tokenId",
          "type": "uint256"
        }
      ],
      "name": "approve",
      "outputs": [],
      "stateMutability": "nonpayable",
      "type": "function"
    },
    {
      "inputs": [
        {
          "internalType": "address",
          "name": "owner",
          "type": "address"
        }
      ],
      "name": "balanceOf",
      "outputs": [
        {
          "internalType": "uint256",
          "name": "",
          "type": "uint256"
        }
      ],
      "stateMutability": "view",
      "type": "function",
      "constant": true
    },
    {
      "inputs": [
        {
          "internalType": "uint256",
          "name": "tokenId",
          "type": "uint256"
        }
      ],
      "name": "getApproved",
      "outputs": [
        {
          "internalType": "address",
          "name": "",
          "type": "address"
        }
      ],
      "stateMutability": "view",
      "type": "function",
      "constant": true
    },
    {
      "inputs": [
        {
          "internalType": "address",
          "name": "owner",
          "type": "address"
        },
        {
          "internalType": "address",
          "name": "operator",
          "type": "address"
        }
      ],
      "name": "isApprovedForAll",
      "outputs": [
        {
          "internalType": "bool",
          "name": "",
          "type": "bool"
        }
      ],
      "stateMutability": "view",
      "type": "function",
      "constant": true
    },
    {
      "inputs": [],
      "name": "name",
      "outputs": [
        {
          "internalType": "string",
          "name": "",
          "type": "string"
        }
      ],
      "stateMutability": "view",
      "type": "function",
      "constant": true
    },
    {
      "inputs": [],
      "name": "owner",
      "outputs": [
        {
          "internalType": "address",
          "name": "",
          "type": "address"
        }
      ],
      "stateMutability": "view",
      "type": "function",
      "constant": true
    },
    {
      "inputs": [
        {
          "internalType": "uint256",
          "name": "tokenId",
          "type": "uint256"
        }
      ],
      "name": "ownerOf",
      "outputs": [
        {
          "internalType": "address",
          "name": "",
          "type": "address"
        }
      ],
      "stateMutability": "view",
      "type": "function",
      "constant": true
    },
    {
      "inputs": [],
      "name": "renounceOwnership",
      "outputs": [],
      "stateMutability": "nonpayable",
      "type": "function"
    },
    {
      "inputs": [
        {
          "internalType": "address",
          "name": "from",
          "type": "address"
        },
        {
          "internalType": "address",
          "name": "to",
          "type": "address"
        },
        {
          "internalType": "uint256",
          "name": "tokenId",
          "type": "uint256"
        }
      ],
      "name": "safeTransferFrom",
      "outputs": [],
      "stateMutability": "nonpayable",
      "type": "function"
    },
    {
      "inputs": [
        {
          "internalType": "address",
          "name": "from",
          "type": "address"
        },
        {
          "internalType": "address",
          "name": "to",
          "type": "address"
        },
        {
          "internalType": "uint256",
          "name": "tokenId",
          "type": "uint256"
        },
        {
          "internalType": "bytes",
          "name": "_data",
          "type": "bytes"
        }
      ],
      "name": "safeTransferFrom",
      "outputs": [],
      "stateMutability": "nonpayable",
      "type": "function"
    },
    {
      "inputs": [
        {
          "internalType": "address",
          "name": "operator",
          "type": "address"
        },
        {
          "internalType": "bool",
          "name": "approved",
          "type": "bool"
        }
      ],
      "name": "setApprovalForAll",
      "outputs": [],
      "stateMutability": "nonpayable",
      "type": "function"
    },
    {
      "inputs": [
        {
          "internalType": "bytes4",
          "name": "interfaceId",
          "type": "bytes4"
        }
      ],
      "name": "supportsInterface",
      "outputs": [
        {
          "internalType": "bool",
          "name": "",
          "type": "bool"
        }
      ],
      "stateMutability": "view",
      "type": "function",
      "constant": true
    },
    {
      "inputs": [],
      "name": "symbol",
      "outputs": [
        {
          "internalType": "string",
          "name": "",
          "type": "string"
        }
      ],
      "stateMutability": "view",
      "type": "function",
      "constant": true
    },
    {
      "inputs": [
        {
          "internalType": "uint256",
          "name": "tokenId",
          "type": "uint256"
        }
      ],
      "name": "tokenURI",
      "outputs": [
        {
          "internalType": "string",
          "name": "",
          "type": "string"
        }
      ],
      "stateMutability": "view",
      "type": "function",
      "constant": true
    },
    {
      "inputs": [
        {
          "internalType": "address",
          "name": "from",
          "type": "address"
        },
        {
          "internalType": "address",
          "name": "to",
          "type": "address"
        },
        {
          "internalType": "uint256",
          "name": "tokenId",
          "type": "uint256"
        }
      ],
      "name": "transferFrom",
      "outputs": [],
      "stateMutability": "nonpayable",
      "type": "function"
    },
    {
      "inputs": [
        {
          "internalType": "address",
          "name": "newOwner",
          "type": "address"
        }
      ],
      "name": "transferOwnership",
      "outputs": [],
      "stateMutability": "nonpayable",
      "type": "function"
    },
    {
      "inputs": [
        {
          "internalType": "string",
          "name": "baseURI",
          "type": "string"
        }
      ],
      "name": "setBaseURI",
      "outputs": [],
      "stateMutability": "nonpayable",
      "type": "function"
    },
    {
      "inputs": [
        {
          "internalType": "uint256",
          "name": "mintAmount",
          "type": "uint256"
        }
      ],
      "name": "claim",
      "outputs": [],
      "stateMutability": "payable",
      "type": "function",
      "payable": true
    },
    {
      "inputs": [
        {
          "internalType": "uint256",
          "name": "tokenId",
          "type": "uint256"
        }
      ],
      "name": "getTokenMetadata",
      "outputs": [
        {
          "internalType": "uint8[]",
          "name": "",
          "type": "uint8[]"
        }
      ],
      "stateMutability": "view",
      "type": "function",
      "constant": true
    },
    {
      "inputs": [],
      "name": "getAllTokenMetadata",
      "outputs": [
        {
          "components": [
            {
              "internalType": "uint8",
              "name": "attribute",
              "type": "uint8"
            },
            {
              "internalType": "uint8",
              "name": "background",
              "type": "uint8"
            },
            {
              "internalType": "uint8",
              "name": "base",
              "type": "uint8"
            },
            {
              "internalType": "uint8",
              "name": "glass",
              "type": "uint8"
            },
            {
              "internalType": "uint8",
              "name": "glassColor",
              "type": "uint8"
            },
            {
              "internalType": "uint8",
              "name": "lava_count",
              "type": "uint8"
            },
            {
              "internalType": "uint8",
              "name": "lava_1",
              "type": "uint8"
            },
            {
              "internalType": "uint8",
              "name": "lava_2",
              "type": "uint8"
            },
            {
              "internalType": "uint8",
              "name": "lava_3",
              "type": "uint8"
            },
            {
              "internalType": "uint8",
              "name": "lava_4",
              "type": "uint8"
            },
            {
              "internalType": "uint8",
              "name": "overlay",
              "type": "uint8"
            },
            {
              "internalType": "uint8",
              "name": "rarity",
              "type": "uint8"
            }
          ],
          "internalType": "struct LavaLamp.Metadata[]",
          "name": "",
          "type": "tuple[]"
        }
      ],
      "stateMutability": "view",
      "type": "function",
      "constant": true
    },
    {
      "inputs": [
        {
          "internalType": "address",
          "name": "owner",
          "type": "address"
        }
      ],
      "name": "getTokensOwnedByMetadata",
      "outputs": [
        {
          "components": [
            {
              "internalType": "uint8",
              "name": "attribute",
              "type": "uint8"
            },
            {
              "internalType": "uint8",
              "name": "background",
              "type": "uint8"
            },
            {
              "internalType": "uint8",
              "name": "base",
              "type": "uint8"
            },
            {
              "internalType": "uint8",
              "name": "glass",
              "type": "uint8"
            },
            {
              "internalType": "uint8",
              "name": "glassColor",
              "type": "uint8"
            },
            {
              "internalType": "uint8",
              "name": "lava_count",
              "type": "uint8"
            },
            {
              "internalType": "uint8",
              "name": "lava_1",
              "type": "uint8"
            },
            {
              "internalType": "uint8",
              "name": "lava_2",
              "type": "uint8"
            },
            {
              "internalType": "uint8",
              "name": "lava_3",
              "type": "uint8"
            },
            {
              "internalType": "uint8",
              "name": "lava_4",
              "type": "uint8"
            },
            {
              "internalType": "uint8",
              "name": "overlay",
              "type": "uint8"
            },
            {
              "internalType": "uint8",
              "name": "rarity",
              "type": "uint8"
            }
          ],
          "internalType": "struct LavaLamp.Metadata[]",
          "name": "",
          "type": "tuple[]"
        }
      ],
      "stateMutability": "view",
      "type": "function",
      "constant": true
    },
    {
      "inputs": [],
      "name": "totalSupply",
      "outputs": [
        {
          "internalType": "uint256",
          "name": "",
          "type": "uint256"
        }
      ],
      "stateMutability": "view",
      "type": "function",
      "constant": true
    },
    {
      "inputs": [
        {
          "internalType": "address",
          "name": "owner",
          "type": "address"
        },
        {
          "internalType": "uint256",
          "name": "index",
          "type": "uint256"
        }
      ],
      "name": "tokenOfOwnerByIndex",
      "outputs": [
        {
          "internalType": "uint256",
          "name": "tokenId",
          "type": "uint256"
        }
      ],
      "stateMutability": "view",
      "type": "function",
      "constant": true
    },
    {
      "inputs": [
        {
          "internalType": "uint256",
          "name": "index",
          "type": "uint256"
        }
      ],
      "name": "tokenByIndex",
      "outputs": [
        {
          "internalType": "uint256",
          "name": "",
          "type": "uint256"
        }
      ],
      "stateMutability": "pure",
      "type": "function",
      "constant": true
    }
  ],
  "bytecode": "0x6080604052611f2c600955666a94d74f430000600a556014600b556000600c556000600d556000600e553480156200003657600080fd5b506040518060400160405280600881526020017f4c6176614c616d700000000000000000000000000000000000000000000000008152506040518060400160405280600881526020017f4c4156414c414d50000000000000000000000000000000000000000000000000815250620000c3620000b76200014360201b60201c565b6200014b60201b60201c565b8160019080519060200190620000db929190620002e3565b508060029080519060200190620000f4929190620002e3565b5050506200013d6040518060400160405280601c81526020017f687474703a2f2f6c6f63616c686f73743a333030302f746f6b656e2f000000008152506200020f60201b60201c565b6200047b565b600033905090565b60008060009054906101000a900473ffffffffffffffffffffffffffffffffffffffff169050816000806101000a81548173ffffffffffffffffffffffffffffffffffffffff021916908373ffffffffffffffffffffffffffffffffffffffff1602179055508173ffffffffffffffffffffffffffffffffffffffff168173ffffffffffffffffffffffffffffffffffffffff167f8be0079c531659141344cd1fd0a4f28419497f9722a3daafe3b4186f6b6457e060405160405180910390a35050565b6200021f6200014360201b60201c565b73ffffffffffffffffffffffffffffffffffffffff1662000245620002ba60201b60201c565b73ffffffffffffffffffffffffffffffffffffffff16146200029e576040517f08c379a00000000000000000000000000000000000000000000000000000000081526004016200029590620003f4565b60405180910390fd5b8060089080519060200190620002b6929190620002e3565b5050565b60008060009054906101000a900473ffffffffffffffffffffffffffffffffffffffff16905090565b828054620002f19062000445565b90600052602060002090601f01602090048101928262000315576000855562000361565b82601f106200033057805160ff191683800117855562000361565b8280016001018555821562000361579182015b828111156200036057825182559160200191906001019062000343565b5b50905062000370919062000374565b5090565b5b808211156200038f57600081600090555060010162000375565b5090565b600082825260208201905092915050565b7f4f776e61626c653a2063616c6c6572206973206e6f7420746865206f776e6572600082015250565b6000620003dc60208362000393565b9150620003e982620003a4565b602082019050919050565b600060208201905081810360008301526200040f81620003cd565b9050919050565b7f4e487b7100000000000000000000000000000000000000000000000000000000600052602260045260246000fd5b600060028204905060018216806200045e57607f821691505b6020821081141562000475576200047462000416565b5b50919050565b614c63806200048b6000396000f3fe60806040526004361061014b5760003560e01c806360316801116100b6578063a22cb4651161006f578063a22cb465146104a9578063b88d4fde146104d2578063c87b56dd146104fb578063e985e9c514610538578063e9c6f1fb14610575578063f2fde38b146105b25761014b565b806360316801146103855780636352211e146103c257806370a08231146103ff578063715018a61461043c5780638da5cb5b1461045357806395d89b411461047e5761014b565b806323b872dd1161010857806323b872dd146102745780632f745c591461029d578063379607f5146102da57806342842e0e146102f65780634f6ccce71461031f57806355f804b31461035c5761014b565b806301ffc9a71461015057806306fdde031461018d578063081812fc146101b8578063095ea7b3146101f557806318160ddd1461021e5780631f9ea56a14610249575b600080fd5b34801561015c57600080fd5b5061017760048036038101906101729190613562565b6105db565b60405161018491906135aa565b60405180910390f35b34801561019957600080fd5b506101a26106bd565b6040516101af919061365e565b60405180910390f35b3480156101c457600080fd5b506101df60048036038101906101da91906136b6565b61074f565b6040516101ec9190613724565b60405180910390f35b34801561020157600080fd5b5061021c6004803603810190610217919061376b565b6107d4565b005b34801561022a57600080fd5b506102336108ec565b60405161024091906137ba565b60405180910390f35b34801561025557600080fd5b5061025e6108f6565b60405161026b9190613997565b60405180910390f35b34801561028057600080fd5b5061029b600480360381019061029691906139b9565b610b38565b005b3480156102a957600080fd5b506102c460048036038101906102bf919061376b565b610b98565b6040516102d191906137ba565b60405180910390f35b6102f460048036038101906102ef91906136b6565b610c38565b005b34801561030257600080fd5b5061031d600480360381019061031891906139b9565b610dac565b005b34801561032b57600080fd5b50610346600480360381019061034191906136b6565b610dcc565b60405161035391906137ba565b60405180910390f35b34801561036857600080fd5b50610383600480360381019061037e9190613b41565b610dde565b005b34801561039157600080fd5b506103ac60048036038101906103a791906136b6565b610e74565b6040516103b99190613c39565b60405180910390f35b3480156103ce57600080fd5b506103e960048036038101906103e491906136b6565b6112b5565b6040516103f69190613724565b60405180910390f35b34801561040b57600080fd5b5061042660048036038101906104219190613c5b565b611367565b60405161043391906137ba565b60405180910390f35b34801561044857600080fd5b5061045161141f565b005b34801561045f57600080fd5b506104686114a7565b6040516104759190613724565b60405180910390f35b34801561048a57600080fd5b506104936114d0565b6040516104a0919061365e565b60405180910390f35b3480156104b557600080fd5b506104d060048036038101906104cb9190613cb4565b611562565b005b3480156104de57600080fd5b506104f960048036038101906104f49190613d95565b6116e3565b005b34801561050757600080fd5b50610522600480360381019061051d91906136b6565b611745565b60405161052f919061365e565b60405180910390f35b34801561054457600080fd5b5061055f600480360381019061055a9190613e18565b6117ec565b60405161056c91906135aa565b60405180910390f35b34801561058157600080fd5b5061059c60048036038101906105979190613c5b565b611880565b6040516105a99190613997565b60405180910390f35b3480156105be57600080fd5b506105d960048036038101906105d49190613c5b565b611b7d565b005b60007f80ac58cd000000000000000000000000000000000000000000000000000000007bffffffffffffffffffffffffffffffffffffffffffffffffffffffff1916827bffffffffffffffffffffffffffffffffffffffffffffffffffffffff191614806106a657507f5b5e139f000000000000000000000000000000000000000000000000000000007bffffffffffffffffffffffffffffffffffffffffffffffffffffffff1916827bffffffffffffffffffffffffffffffffffffffffffffffffffffffff1916145b806106b657506106b582611c75565b5b9050919050565b6060600180546106cc90613e87565b80601f01602080910402602001604051908101604052809291908181526020018280546106f890613e87565b80156107455780601f1061071a57610100808354040283529160200191610745565b820191906000526020600020905b81548152906001019060200180831161072857829003601f168201915b5050505050905090565b600061075a82611cdf565b610799576040517f08c379a000000000000000000000000000000000000000000000000000000000815260040161079090613f2b565b60405180910390fd5b6005600083815260200190815260200160002060009054906101000a900473ffffffffffffffffffffffffffffffffffffffff169050919050565b60006107df826112b5565b90508073ffffffffffffffffffffffffffffffffffffffff168373ffffffffffffffffffffffffffffffffffffffff161415610850576040517f08c379a000000000000000000000000000000000000000000000000000000000815260040161084790613fbd565b60405180910390fd5b8073ffffffffffffffffffffffffffffffffffffffff1661086f611d4b565b73ffffffffffffffffffffffffffffffffffffffff16148061089e575061089d81610898611d4b565b6117ec565b5b6108dd576040517f08c379a00000000000000000000000000000000000000000000000000000000081526004016108d49061404f565b60405180910390fd5b6108e78383611d53565b505050565b6000600e54905090565b6060600080600e5467ffffffffffffffff81111561091757610916613a16565b5b60405190808252806020026020018201604052801561095057816020015b61093d6133ce565b8152602001906001900390816109355790505b50905060005b600954811015610b2f5761096981611cdf565b15610b1c57600060076000838152602001908152602001600020604051806101800160405290816000820160009054906101000a900460ff1660ff1660ff1681526020016000820160019054906101000a900460ff1660ff1660ff1681526020016000820160029054906101000a900460ff1660ff1660ff1681526020016000820160039054906101000a900460ff1660ff1660ff1681526020016000820160049054906101000a900460ff1660ff1660ff1681526020016000820160059054906101000a900460ff1660ff1660ff1681526020016000820160069054906101000a900460ff1660ff1660ff1681526020016000820160079054906101000a900460ff1660ff1660ff1681526020016000820160089054906101000a900460ff1660ff1660ff1681526020016000820160099054906101000a900460ff1660ff1660ff16815260200160008201600a9054906101000a900460ff1660ff1660ff16815260200160008201600b9054906101000a900460ff1660ff1660ff1681525050905080838581518110610b0157610b0061406f565b5b60200260200101819052508380610b17906140cd565b945050505b8080610b27906140cd565b915050610956565b50809250505090565b610b49610b43611d4b565b82611e0c565b610b88576040517f08c379a0000000000000000000000000000000000000000000000000000000008152600401610b7f90614188565b60405180910390fd5b610b93838383611eea565b505050565b6000806000905060005b600954811015610c2b57610bb581611cdf565b15610c18578473ffffffffffffffffffffffffffffffffffffffff16610bda826112b5565b73ffffffffffffffffffffffffffffffffffffffff161415610c17578180610c01906140cd565b92505081841415610c16578092505050610c32565b5b5b8080610c23906140cd565b915050610ba2565b5060009150505b92915050565b60008111610c4557600080fd5b600b54811115610c5457600080fd5b60095481600e54610c6591906141a8565b1115610c7057600080fd5b600081600a54610c8091906141fe565b9050610c8a6114a7565b73ffffffffffffffffffffffffffffffffffffffff163373ffffffffffffffffffffffffffffffffffffffff1614610cca5780341015610cc957600080fd5b5b6000600190505b828111610cf357610ce0612146565b8080610ceb906140cd565b915050610cd1565b506000610cfe6114a7565b73ffffffffffffffffffffffffffffffffffffffff1682604051610d2190614289565b60006040518083038185875af1925050503d8060008114610d5e576040519150601f19603f3d011682016040523d82523d6000602084013e610d63565b606091505b5050905080610da7576040517f08c379a0000000000000000000000000000000000000000000000000000000008152600401610d9e906142ea565b60405180910390fd5b505050565b610dc7838383604051806020016040528060008152506116e3565b505050565b6000610dd78261262e565b9050919050565b610de6611d4b565b73ffffffffffffffffffffffffffffffffffffffff16610e046114a7565b73ffffffffffffffffffffffffffffffffffffffff1614610e5a576040517f08c379a0000000000000000000000000000000000000000000000000000000008152600401610e5190614356565b60405180910390fd5b8060089080519060200190610e70929190613453565b5050565b6060610e7f82611cdf565b610ebe576040517f08c379a0000000000000000000000000000000000000000000000000000000008152600401610eb5906143c2565b60405180910390fd5b600060076000848152602001908152602001600020604051806101800160405290816000820160009054906101000a900460ff1660ff1660ff1681526020016000820160019054906101000a900460ff1660ff1660ff1681526020016000820160029054906101000a900460ff1660ff1660ff1681526020016000820160039054906101000a900460ff1660ff1660ff1681526020016000820160049054906101000a900460ff1660ff1660ff1681526020016000820160059054906101000a900460ff1660ff1660ff1681526020016000820160069054906101000a900460ff1660ff1660ff1681526020016000820160079054906101000a900460ff1660ff1660ff1681526020016000820160089054906101000a900460ff1660ff1660ff1681526020016000820160099054906101000a900460ff1660ff1660ff16815260200160008201600a9054906101000a900460ff1660ff1660ff16815260200160008201600b9054906101000a900460ff1660ff1660ff168152505090506000600c67ffffffffffffffff81111561105a57611059613a16565b5b6040519080825280602002602001820160405280156110885781602001602082028036833780820191505090505b5090508160000151816000815181106110a4576110a361406f565b5b602002602001019060ff16908160ff16815250508160200151816001815181106110d1576110d061406f565b5b602002602001019060ff16908160ff16815250508160400151816002815181106110fe576110fd61406f565b5b602002602001019060ff16908160ff168152505081606001518160038151811061112b5761112a61406f565b5b602002602001019060ff16908160ff16815250508160800151816004815181106111585761115761406f565b5b602002602001019060ff16908160ff16815250508160a00151816005815181106111855761118461406f565b5b602002602001019060ff16908160ff16815250508160c00151816006815181106111b2576111b161406f565b5b602002602001019060ff16908160ff16815250508160e00151816007815181106111df576111de61406f565b5b602002602001019060ff16908160ff16815250508161010001518160088151811061120d5761120c61406f565b5b602002602001019060ff16908160ff16815250508161012001518160098151811061123b5761123a61406f565b5b602002602001019060ff16908160ff168152505081610140015181600a815181106112695761126861406f565b5b602002602001019060ff16908160ff168152505081610160015181600b815181106112975761129661406f565b5b602002602001019060ff16908160ff16815250508092505050919050565b6000806003600084815260200190815260200160002060009054906101000a900473ffffffffffffffffffffffffffffffffffffffff169050600073ffffffffffffffffffffffffffffffffffffffff168173ffffffffffffffffffffffffffffffffffffffff16141561135e576040517f08c379a000000000000000000000000000000000000000000000000000000000815260040161135590614454565b60405180910390fd5b80915050919050565b60008073ffffffffffffffffffffffffffffffffffffffff168273ffffffffffffffffffffffffffffffffffffffff1614156113d8576040517f08c379a00000000000000000000000000000000000000000000000000000000081526004016113cf906144e6565b60405180910390fd5b600460008373ffffffffffffffffffffffffffffffffffffffff1673ffffffffffffffffffffffffffffffffffffffff168152602001908152602001600020549050919050565b611427611d4b565b73ffffffffffffffffffffffffffffffffffffffff166114456114a7565b73ffffffffffffffffffffffffffffffffffffffff161461149b576040517f08c379a000000000000000000000000000000000000000000000000000000000815260040161149290614356565b60405180910390fd5b6114a560006126d3565b565b60008060009054906101000a900473ffffffffffffffffffffffffffffffffffffffff16905090565b6060600280546114df90613e87565b80601f016020809104026020016040519081016040528092919081815260200182805461150b90613e87565b80156115585780601f1061152d57610100808354040283529160200191611558565b820191906000526020600020905b81548152906001019060200180831161153b57829003601f168201915b5050505050905090565b61156a611d4b565b73ffffffffffffffffffffffffffffffffffffffff168273ffffffffffffffffffffffffffffffffffffffff1614156115d8576040517f08c379a00000000000000000000000000000000000000000000000000000000081526004016115cf90614552565b60405180910390fd5b80600660006115e5611d4b565b73ffffffffffffffffffffffffffffffffffffffff1673ffffffffffffffffffffffffffffffffffffffff16815260200190815260200160002060008473ffffffffffffffffffffffffffffffffffffffff1673ffffffffffffffffffffffffffffffffffffffff16815260200190815260200160002060006101000a81548160ff0219169083151502179055508173ffffffffffffffffffffffffffffffffffffffff16611692611d4b565b73ffffffffffffffffffffffffffffffffffffffff167f17307eab39ab6107e8899845ad3d59bd9653f200f220920489ca2b5937696c31836040516116d791906135aa565b60405180910390a35050565b6116f46116ee611d4b565b83611e0c565b611733576040517f08c379a000000000000000000000000000000000000000000000000000000000815260040161172a90614188565b60405180910390fd5b61173f84848484612797565b50505050565b606061175082611cdf565b61178f576040517f08c379a0000000000000000000000000000000000000000000000000000000008152600401611786906145e4565b60405180910390fd5b60006117996127f3565b905060008151116117b957604051806020016040528060008152506117e4565b806117c384612885565b6040516020016117d4929190614640565b6040516020818303038152906040525b915050919050565b6000600660008473ffffffffffffffffffffffffffffffffffffffff1673ffffffffffffffffffffffffffffffffffffffff16815260200190815260200160002060008373ffffffffffffffffffffffffffffffffffffffff1673ffffffffffffffffffffffffffffffffffffffff16815260200190815260200160002060009054906101000a900460ff16905092915050565b606060008060005b6009548110156118ff5761189b81611cdf565b156118ec578473ffffffffffffffffffffffffffffffffffffffff166118c0826112b5565b73ffffffffffffffffffffffffffffffffffffffff1614156118eb5782806118e7906140cd565b9350505b5b80806118f7906140cd565b915050611888565b5060008267ffffffffffffffff81111561191c5761191b613a16565b5b60405190808252806020026020018201604052801561195557816020015b6119426133ce565b81526020019060019003908161193a5790505b50905060005b600954811015611b715761196e81611cdf565b15611b5e578573ffffffffffffffffffffffffffffffffffffffff16611993826112b5565b73ffffffffffffffffffffffffffffffffffffffff161415611b5d57600060076000838152602001908152602001600020604051806101800160405290816000820160009054906101000a900460ff1660ff1660ff1681526020016000820160019054906101000a900460ff1660ff1660ff1681526020016000820160029054906101000a900460ff1660ff1660ff1681526020016000820160039054906101000a900460ff1660ff1660ff1681526020016000820160049054906101000a900460ff1660ff1660ff1681526020016000820160059054906101000a900460ff1660ff1660ff1681526020016000820160069054906101000a900460ff1660ff1660ff1681526020016000820160079054906101000a900460ff1660ff1660ff1681526020016000820160089054906101000a900460ff1660ff1660ff1681526020016000820160099054906101000a900460ff1660ff1660ff16815260200160008201600a9054906101000a900460ff1660ff1660ff16815260200160008201600b9054906101000a900460ff1660ff1660ff1681525050905080838581518110611b4257611b4161406f565b5b60200260200101819052508380611b58906140cd565b945050505b5b8080611b69906140cd565b91505061195b565b50809350505050919050565b611b85611d4b565b73ffffffffffffffffffffffffffffffffffffffff16611ba36114a7565b73ffffffffffffffffffffffffffffffffffffffff1614611bf9576040517f08c379a0000000000000000000000000000000000000000000000000000000008152600401611bf090614356565b60405180910390fd5b600073ffffffffffffffffffffffffffffffffffffffff168173ffffffffffffffffffffffffffffffffffffffff161415611c69576040517f08c379a0000000000000000000000000000000000000000000000000000000008152600401611c60906146d6565b60405180910390fd5b611c72816126d3565b50565b60007f01ffc9a7000000000000000000000000000000000000000000000000000000007bffffffffffffffffffffffffffffffffffffffffffffffffffffffff1916827bffffffffffffffffffffffffffffffffffffffffffffffffffffffff1916149050919050565b60008073ffffffffffffffffffffffffffffffffffffffff166003600084815260200190815260200160002060009054906101000a900473ffffffffffffffffffffffffffffffffffffffff1673ffffffffffffffffffffffffffffffffffffffff1614159050919050565b600033905090565b816005600083815260200190815260200160002060006101000a81548173ffffffffffffffffffffffffffffffffffffffff021916908373ffffffffffffffffffffffffffffffffffffffff160217905550808273ffffffffffffffffffffffffffffffffffffffff16611dc6836112b5565b73ffffffffffffffffffffffffffffffffffffffff167f8c5be1e5ebec7d5bd14f71427d1e84f3dd0314c0f7b2291e5b200ac8c7c3b92560405160405180910390a45050565b6000611e1782611cdf565b611e56576040517f08c379a0000000000000000000000000000000000000000000000000000000008152600401611e4d90614768565b60405180910390fd5b6000611e61836112b5565b90508073ffffffffffffffffffffffffffffffffffffffff168473ffffffffffffffffffffffffffffffffffffffff161480611ed057508373ffffffffffffffffffffffffffffffffffffffff16611eb88461074f565b73ffffffffffffffffffffffffffffffffffffffff16145b80611ee15750611ee081856117ec565b5b91505092915050565b8273ffffffffffffffffffffffffffffffffffffffff16611f0a826112b5565b73ffffffffffffffffffffffffffffffffffffffff1614611f60576040517f08c379a0000000000000000000000000000000000000000000000000000000008152600401611f57906147fa565b60405180910390fd5b600073ffffffffffffffffffffffffffffffffffffffff168273ffffffffffffffffffffffffffffffffffffffff161415611fd0576040517f08c379a0000000000000000000000000000000000000000000000000000000008152600401611fc79061488c565b60405180910390fd5b611fdb8383836129e6565b611fe6600082611d53565b6001600460008573ffffffffffffffffffffffffffffffffffffffff1673ffffffffffffffffffffffffffffffffffffffff168152602001908152602001600020600082825461203691906148ac565b925050819055506001600460008473ffffffffffffffffffffffffffffffffffffffff1673ffffffffffffffffffffffffffffffffffffffff168152602001908152602001600020600082825461208d91906141a8565b92505081905550816003600083815260200190815260200160002060006101000a81548173ffffffffffffffffffffffffffffffffffffffff021916908373ffffffffffffffffffffffffffffffffffffffff160217905550808273ffffffffffffffffffffffffffffffffffffffff168473ffffffffffffffffffffffffffffffffffffffff167fddf252ad1be2c89b69c2b068fc378daa952ba7f163c4a11628f55a4df523b3ef60405160405180910390a4505050565b61214e6133ce565b60006121586129eb565b9050600081905060008060009050600080600080600a87612179919061490f565b9050600a8160ff168861218c91906148ac565b6121969190614940565b9650600a876121a5919061490f565b9150600a8260ff16886121b891906148ac565b6121c29190614940565b9650600a876121d1919061490f565b9250600a8360ff16886121e491906148ac565b6121ee9190614940565b9650600a876121fd919061490f565b9350600a8460ff168861221091906148ac565b61221a9190614940565b965060008160ff16111561223757848061223390614971565b9550505b60008260ff16111561225257848061224e90614971565b9550505b60008360ff16111561226d57848061226990614971565b9550505b60008460ff16111561228857848061228490614971565b9550505b848960a0019060ff16908160ff1681525050838960c0019060ff16908160ff1681525050828960e0019060ff16908160ff16815250508189610100019060ff16908160ff16815250508089610120019060ff16908160ff1681525050620f42406122f28988612a28565b6122fc919061490f565b955061230786612a62565b896000019060ff16908160ff1681525050620f42406123268988612a28565b612330919061490f565b955061233b86612ab1565b896020019060ff16908160ff1681525050620f424061235a8988612a28565b612364919061490f565b955061236f86612b7e565b896040019060ff16908160ff1681525050620f424061238e8988612a28565b612398919061490f565b95506123a386612c21565b896060019060ff16908160ff1681525050620f42406123c28988612a28565b6123cc919061490f565b95506123d786612c46565b896080019060ff16908160ff1681525050620f42406123f68988612a28565b612400919061490f565b955061240b86612ce9565b89610140019060ff16908160ff1681525050620f424061242b8988612a28565b612435919061490f565b955061244086612da1565b89610160019060ff16908160ff168152505088600760008a815260200190815260200160002060008201518160000160006101000a81548160ff021916908360ff16021790555060208201518160000160016101000a81548160ff021916908360ff16021790555060408201518160000160026101000a81548160ff021916908360ff16021790555060608201518160000160036101000a81548160ff021916908360ff16021790555060808201518160000160046101000a81548160ff021916908360ff16021790555060a08201518160000160056101000a81548160ff021916908360ff16021790555060c08201518160000160066101000a81548160ff021916908360ff16021790555060e08201518160000160076101000a81548160ff021916908360ff1602179055506101008201518160000160086101000a81548160ff021916908360ff1602179055506101208201518160000160096101000a81548160ff021916908360ff16021790555061014082015181600001600a6101000a81548160ff021916908360ff16021790555061016082015181600001600b6101000a81548160ff021916908360ff1602179055509050506126033389612e1a565b61260b612e38565b600e600081548092919061261e906140cd565b9190505550505050505050505050565b6000806000905060008060139050600061018f90506000805b60018861265491906141a8565b8110156126c557600061266686612e83565b905086848261267591906141fe565b61267f91906141a8565b92508486101561269d5760018661269691906141a8565b95506126b1565b600095506001876126ae91906141a8565b96505b5080806126bd906140cd565b915050612647565b508095505050505050919050565b60008060009054906101000a900473ffffffffffffffffffffffffffffffffffffffff169050816000806101000a81548173ffffffffffffffffffffffffffffffffffffffff021916908373ffffffffffffffffffffffffffffffffffffffff1602179055508173ffffffffffffffffffffffffffffffffffffffff168173ffffffffffffffffffffffffffffffffffffffff167f8be0079c531659141344cd1fd0a4f28419497f9722a3daafe3b4186f6b6457e060405160405180910390a35050565b6127a2848484611eea565b6127ae8484848461300a565b6127ed576040517f08c379a00000000000000000000000000000000000000000000000000000000081526004016127e490614a0d565b60405180910390fd5b50505050565b60606008805461280290613e87565b80601f016020809104026020016040519081016040528092919081815260200182805461282e90613e87565b801561287b5780601f106128505761010080835404028352916020019161287b565b820191906000526020600020905b81548152906001019060200180831161285e57829003601f168201915b5050505050905090565b606060008214156128cd576040518060400160405280600181526020017f300000000000000000000000000000000000000000000000000000000000000081525090506129e1565b600082905060005b600082146128ff5780806128e8906140cd565b915050600a826128f89190614940565b91506128d5565b60008167ffffffffffffffff81111561291b5761291a613a16565b5b6040519080825280601f01601f19166020018201604052801561294d5781602001600182028036833780820191505090505b5090505b600085146129da5760018261296691906148ac565b9150600a85612975919061490f565b603061298191906141a8565b60f81b8183815181106129975761299661406f565b5b60200101907effffffffffffffffffffffffffffffffffffffffffffffffffffffffffffff1916908160001a905350600a856129d39190614940565b9450612951565b8093505050505b919050565b505050565b60008061018f90506000612a00600d54612e83565b90506000600c548383612a1391906141fe565b612a1d91906141a8565b905080935050505090565b600042448484604051602001612a419493929190614a2d565b6040516020818303038152906040528051906020012060001c905092915050565b6000806203d090831015612a795760009050612aa8565b6207a120831015612a8d5760019050612aa7565b620b71b0831015612aa15760029050612aa6565b600390505b5b5b80915050919050565b600080620186a0831015612ac85760009050612b75565b62030d40831015612adc5760019050612b74565b620493e0831015612af05760029050612b73565b62061a80831015612b045760039050612b72565b6207a120831015612b185760049050612b71565b620927c0831015612b2c5760059050612b70565b620aae60831015612b405760069050612b6f565b620c3500831015612b545760079050612b6e565b620dbba0831015612b685760089050612b6d565b600990505b5b5b5b5b5b5b5b5b80915050919050565b6000806201e848831015612b955760009050612c18565b6203d090831015612ba95760019050612c17565b6205b8d8831015612bbd5760029050612c16565b6207a120831015612bd15760039050612c15565b62098968831015612be55760049050612c14565b620b71b0831015612bf95760059050612c13565b620d59f8831015612c0d5760069050612c12565b600790505b5b5b5b5b5b5b80915050919050565b6000806207a120831015612c385760009050612c3d565b600190505b80915050919050565b6000806201e848831015612c5d5760009050612ce0565b6203d090831015612c715760019050612cdf565b6205b8d8831015612c855760029050612cde565b6207a120831015612c995760039050612cdd565b62098968831015612cad5760049050612cdc565b620b71b0831015612cc15760059050612cdb565b620d59f8831015612cd55760069050612cda565b600790505b5b5b5b5b5b5b80915050919050565b6000806201b207831015612d005760009050612d98565b6203640e831015612d145760019050612d97565b62051615831015612d285760029050612d96565b6206c81c831015612d3c5760039050612d95565b62087a23831015612d505760049050612d94565b620a2c2a831015612d645760059050612d93565b620bde31831015612d785760069050612d92565b620d9038831015612d8c5760079050612d91565b600890505b5b5b5b5b5b5b5b80915050919050565b60008062028b0a831015612db85760009050612e11565b62051614831015612dcc5760019050612e10565b6207a11e831015612de05760029050612e0f565b620a2c28831015612df45760039050612e0e565b620cb732831015612e085760049050612e0d565b600590505b5b5b5b5b80915050919050565b612e34828260405180602001604052806000815250613192565b5050565b60006013905080600d541015612e62576001600d54612e5791906141a8565b600d81905550612e80565b6000600d819055506001600c54612e7991906141a8565b600c819055505b50565b600080600090506000831415612e9c5760039050613001565b6001831415612eae5760119050613000565b6002831415612ec057600a9050612fff565b6003831415612ed257600d9050612ffe565b6004831415612ee45760129050612ffd565b6005831415612ef65760009050612ffc565b6006831415612f085760049050612ffb565b6007831415612f1a5760019050612ffa565b6008831415612f2c5760069050612ff9565b6009831415612f3e5760139050612ff8565b600a831415612f505760089050612ff7565b600b831415612f6257600c9050612ff6565b600c831415612f745760029050612ff5565b600d831415612f8657600e9050612ff4565b600e831415612f9857600b9050612ff3565b600f831415612faa5760079050612ff2565b6010831415612fbc57600f9050612ff1565b6011831415612fce5760099050612ff0565b6012831415612fe05760059050612fef565b6013831415612fee57601090505b5b5b5b5b5b5b5b5b5b5b5b5b5b5b5b5b5b5b5b80915050919050565b600061302b8473ffffffffffffffffffffffffffffffffffffffff166131ed565b15613185578373ffffffffffffffffffffffffffffffffffffffff1663150b7a02613054611d4b565b8786866040518563ffffffff1660e01b81526004016130769493929190614ac7565b6020604051808303816000875af19250505080156130b257506040513d601f19601f820116820180604052508101906130af9190614b28565b60015b613135573d80600081146130e2576040519150601f19603f3d011682016040523d82523d6000602084013e6130e7565b606091505b5060008151141561312d576040517f08c379a000000000000000000000000000000000000000000000000000000000815260040161312490614a0d565b60405180910390fd5b805181602001fd5b63150b7a0260e01b7bffffffffffffffffffffffffffffffffffffffffffffffffffffffff1916817bffffffffffffffffffffffffffffffffffffffffffffffffffffffff19161491505061318a565b600190505b949350505050565b61319c8383613200565b6131a9600084848461300a565b6131e8576040517f08c379a00000000000000000000000000000000000000000000000000000000081526004016131df90614a0d565b60405180910390fd5b505050565b600080823b905060008111915050919050565b600073ffffffffffffffffffffffffffffffffffffffff168273ffffffffffffffffffffffffffffffffffffffff161415613270576040517f08c379a000000000000000000000000000000000000000000000000000000000815260040161326790614ba1565b60405180910390fd5b61327981611cdf565b156132b9576040517f08c379a00000000000000000000000000000000000000000000000000000000081526004016132b090614c0d565b60405180910390fd5b6132c5600083836129e6565b6001600460008473ffffffffffffffffffffffffffffffffffffffff1673ffffffffffffffffffffffffffffffffffffffff168152602001908152602001600020600082825461331591906141a8565b92505081905550816003600083815260200190815260200160002060006101000a81548173ffffffffffffffffffffffffffffffffffffffff021916908373ffffffffffffffffffffffffffffffffffffffff160217905550808273ffffffffffffffffffffffffffffffffffffffff16600073ffffffffffffffffffffffffffffffffffffffff167fddf252ad1be2c89b69c2b068fc378daa952ba7f163c4a11628f55a4df523b3ef60405160405180910390a45050565b604051806101800160405280600060ff168152602001600060ff168152602001600060ff168152602001600060ff168152602001600060ff168152602001600060ff168152602001600060ff168152602001600060ff168152602001600060ff168152602001600060ff168152602001600060ff168152602001600060ff1681525090565b82805461345f90613e87565b90600052602060002090601f01602090048101928261348157600085556134c8565b82601f1061349a57805160ff19168380011785556134c8565b828001600101855582156134c8579182015b828111156134c75782518255916020019190600101906134ac565b5b5090506134d591906134d9565b5090565b5b808211156134f25760008160009055506001016134da565b5090565b6000604051905090565b600080fd5b600080fd5b60007fffffffff0000000000000000000000000000000000000000000000000000000082169050919050565b61353f8161350a565b811461354a57600080fd5b50565b60008135905061355c81613536565b92915050565b60006020828403121561357857613577613500565b5b60006135868482850161354d565b91505092915050565b60008115159050919050565b6135a48161358f565b82525050565b60006020820190506135bf600083018461359b565b92915050565b600081519050919050565b600082825260208201905092915050565b60005b838110156135ff5780820151818401526020810190506135e4565b8381111561360e576000848401525b50505050565b6000601f19601f8301169050919050565b6000613630826135c5565b61363a81856135d0565b935061364a8185602086016135e1565b61365381613614565b840191505092915050565b600060208201905081810360008301526136788184613625565b905092915050565b6000819050919050565b61369381613680565b811461369e57600080fd5b50565b6000813590506136b08161368a565b92915050565b6000602082840312156136cc576136cb613500565b5b60006136da848285016136a1565b91505092915050565b600073ffffffffffffffffffffffffffffffffffffffff82169050919050565b600061370e826136e3565b9050919050565b61371e81613703565b82525050565b60006020820190506137396000830184613715565b92915050565b61374881613703565b811461375357600080fd5b50565b6000813590506137658161373f565b92915050565b6000806040838503121561378257613781613500565b5b600061379085828601613756565b92505060206137a1858286016136a1565b9150509250929050565b6137b481613680565b82525050565b60006020820190506137cf60008301846137ab565b92915050565b600081519050919050565b600082825260208201905092915050565b6000819050602082019050919050565b600060ff82169050919050565b61381781613801565b82525050565b61018082016000820151613834600085018261380e565b506020820151613847602085018261380e565b50604082015161385a604085018261380e565b50606082015161386d606085018261380e565b506080820151613880608085018261380e565b5060a082015161389360a085018261380e565b5060c08201516138a660c085018261380e565b5060e08201516138b960e085018261380e565b506101008201516138ce61010085018261380e565b506101208201516138e361012085018261380e565b506101408201516138f861014085018261380e565b5061016082015161390d61016085018261380e565b50505050565b600061391f838361381d565b6101808301905092915050565b6000602082019050919050565b6000613944826137d5565b61394e81856137e0565b9350613959836137f1565b8060005b8381101561398a5781516139718882613913565b975061397c8361392c565b92505060018101905061395d565b5085935050505092915050565b600060208201905081810360008301526139b18184613939565b905092915050565b6000806000606084860312156139d2576139d1613500565b5b60006139e086828701613756565b93505060206139f186828701613756565b9250506040613a02868287016136a1565b9150509250925092565b600080fd5b600080fd5b7f4e487b7100000000000000000000000000000000000000000000000000000000600052604160045260246000fd5b613a4e82613614565b810181811067ffffffffffffffff82111715613a6d57613a6c613a16565b5b80604052505050565b6000613a806134f6565b9050613a8c8282613a45565b919050565b600067ffffffffffffffff821115613aac57613aab613a16565b5b613ab582613614565b9050602081019050919050565b82818337600083830152505050565b6000613ae4613adf84613a91565b613a76565b905082815260208101848484011115613b0057613aff613a11565b5b613b0b848285613ac2565b509392505050565b600082601f830112613b2857613b27613a0c565b5b8135613b38848260208601613ad1565b91505092915050565b600060208284031215613b5757613b56613500565b5b600082013567ffffffffffffffff811115613b7557613b74613505565b5b613b8184828501613b13565b91505092915050565b600081519050919050565b600082825260208201905092915050565b6000819050602082019050919050565b6000613bc2838361380e565b60208301905092915050565b6000602082019050919050565b6000613be682613b8a565b613bf08185613b95565b9350613bfb83613ba6565b8060005b83811015613c2c578151613c138882613bb6565b9750613c1e83613bce565b925050600181019050613bff565b5085935050505092915050565b60006020820190508181036000830152613c538184613bdb565b905092915050565b600060208284031215613c7157613c70613500565b5b6000613c7f84828501613756565b91505092915050565b613c918161358f565b8114613c9c57600080fd5b50565b600081359050613cae81613c88565b92915050565b60008060408385031215613ccb57613cca613500565b5b6000613cd985828601613756565b9250506020613cea85828601613c9f565b9150509250929050565b600067ffffffffffffffff821115613d0f57613d0e613a16565b5b613d1882613614565b9050602081019050919050565b6000613d38613d3384613cf4565b613a76565b905082815260208101848484011115613d5457613d53613a11565b5b613d5f848285613ac2565b509392505050565b600082601f830112613d7c57613d7b613a0c565b5b8135613d8c848260208601613d25565b91505092915050565b60008060008060808587031215613daf57613dae613500565b5b6000613dbd87828801613756565b9450506020613dce87828801613756565b9350506040613ddf878288016136a1565b925050606085013567ffffffffffffffff811115613e0057613dff613505565b5b613e0c87828801613d67565b91505092959194509250565b60008060408385031215613e2f57613e2e613500565b5b6000613e3d85828601613756565b9250506020613e4e85828601613756565b9150509250929050565b7f4e487b7100000000000000000000000000000000000000000000000000000000600052602260045260246000fd5b60006002820490506001821680613e9f57607f821691505b60208210811415613eb357613eb2613e58565b5b50919050565b7f4552433732313a20617070726f76656420717565727920666f72206e6f6e657860008201527f697374656e7420746f6b656e0000000000000000000000000000000000000000602082015250565b6000613f15602c836135d0565b9150613f2082613eb9565b604082019050919050565b60006020820190508181036000830152613f4481613f08565b9050919050565b7f4552433732313a20617070726f76616c20746f2063757272656e74206f776e6560008201527f7200000000000000000000000000000000000000000000000000000000000000602082015250565b6000613fa76021836135d0565b9150613fb282613f4b565b604082019050919050565b60006020820190508181036000830152613fd681613f9a565b9050919050565b7f4552433732313a20617070726f76652063616c6c6572206973206e6f74206f7760008201527f6e6572206e6f7220617070726f76656420666f7220616c6c0000000000000000602082015250565b60006140396038836135d0565b915061404482613fdd565b604082019050919050565b600060208201905081810360008301526140688161402c565b9050919050565b7f4e487b7100000000000000000000000000000000000000000000000000000000600052603260045260246000fd5b7f4e487b7100000000000000000000000000000000000000000000000000000000600052601160045260246000fd5b60006140d882613680565b91507fffffffffffffffffffffffffffffffffffffffffffffffffffffffffffffffff82141561410b5761410a61409e565b5b600182019050919050565b7f4552433732313a207472616e736665722063616c6c6572206973206e6f74206f60008201527f776e6572206e6f7220617070726f766564000000000000000000000000000000602082015250565b60006141726031836135d0565b915061417d82614116565b604082019050919050565b600060208201905081810360008301526141a181614165565b9050919050565b60006141b382613680565b91506141be83613680565b9250827fffffffffffffffffffffffffffffffffffffffffffffffffffffffffffffffff038211156141f3576141f261409e565b5b828201905092915050565b600061420982613680565b915061421483613680565b9250817fffffffffffffffffffffffffffffffffffffffffffffffffffffffffffffffff048311821515161561424d5761424c61409e565b5b828202905092915050565b600081905092915050565b50565b6000614273600083614258565b915061427e82614263565b600082019050919050565b600061429482614266565b9150819050919050565b7f5472616e73666572206661696c65642e00000000000000000000000000000000600082015250565b60006142d46010836135d0565b91506142df8261429e565b602082019050919050565b60006020820190508181036000830152614303816142c7565b9050919050565b7f4f776e61626c653a2063616c6c6572206973206e6f7420746865206f776e6572600082015250565b60006143406020836135d0565b915061434b8261430a565b602082019050919050565b6000602082019050818103600083015261436f81614333565b9050919050565b7f746f6b656e206e6f74206d696e74656400000000000000000000000000000000600082015250565b60006143ac6010836135d0565b91506143b782614376565b602082019050919050565b600060208201905081810360008301526143db8161439f565b9050919050565b7f4552433732313a206f776e657220717565727920666f72206e6f6e657869737460008201527f656e7420746f6b656e0000000000000000000000000000000000000000000000602082015250565b600061443e6029836135d0565b9150614449826143e2565b604082019050919050565b6000602082019050818103600083015261446d81614431565b9050919050565b7f4552433732313a2062616c616e636520717565727920666f7220746865207a6560008201527f726f206164647265737300000000000000000000000000000000000000000000602082015250565b60006144d0602a836135d0565b91506144db82614474565b604082019050919050565b600060208201905081810360008301526144ff816144c3565b9050919050565b7f4552433732313a20617070726f766520746f2063616c6c657200000000000000600082015250565b600061453c6019836135d0565b915061454782614506565b602082019050919050565b6000602082019050818103600083015261456b8161452f565b9050919050565b7f4552433732314d657461646174613a2055524920717565727920666f72206e6f60008201527f6e6578697374656e7420746f6b656e0000000000000000000000000000000000602082015250565b60006145ce602f836135d0565b91506145d982614572565b604082019050919050565b600060208201905081810360008301526145fd816145c1565b9050919050565b600081905092915050565b600061461a826135c5565b6146248185614604565b93506146348185602086016135e1565b80840191505092915050565b600061464c828561460f565b9150614658828461460f565b91508190509392505050565b7f4f776e61626c653a206e6577206f776e657220697320746865207a65726f206160008201527f6464726573730000000000000000000000000000000000000000000000000000602082015250565b60006146c06026836135d0565b91506146cb82614664565b604082019050919050565b600060208201905081810360008301526146ef816146b3565b9050919050565b7f4552433732313a206f70657261746f7220717565727920666f72206e6f6e657860008201527f697374656e7420746f6b656e0000000000000000000000000000000000000000602082015250565b6000614752602c836135d0565b915061475d826146f6565b604082019050919050565b6000602082019050818103600083015261478181614745565b9050919050565b7f4552433732313a207472616e73666572206f6620746f6b656e2074686174206960008201527f73206e6f74206f776e0000000000000000000000000000000000000000000000602082015250565b60006147e46029836135d0565b91506147ef82614788565b604082019050919050565b60006020820190508181036000830152614813816147d7565b9050919050565b7f4552433732313a207472616e7366657220746f20746865207a65726f2061646460008201527f7265737300000000000000000000000000000000000000000000000000000000602082015250565b60006148766024836135d0565b91506148818261481a565b604082019050919050565b600060208201905081810360008301526148a581614869565b9050919050565b60006148b782613680565b91506148c283613680565b9250828210156148d5576148d461409e565b5b828203905092915050565b7f4e487b7100000000000000000000000000000000000000000000000000000000600052601260045260246000fd5b600061491a82613680565b915061492583613680565b925082614935576149346148e0565b5b828206905092915050565b600061494b82613680565b915061495683613680565b925082614966576149656148e0565b5b828204905092915050565b600061497c82613801565b915060ff8214156149905761498f61409e565b5b600182019050919050565b7f4552433732313a207472616e7366657220746f206e6f6e20455243373231526560008201527f63656976657220696d706c656d656e7465720000000000000000000000000000602082015250565b60006149f76032836135d0565b9150614a028261499b565b604082019050919050565b60006020820190508181036000830152614a26816149ea565b9050919050565b6000608082019050614a4260008301876137ab565b614a4f60208301866137ab565b614a5c60408301856137ab565b614a6960608301846137ab565b95945050505050565b600081519050919050565b600082825260208201905092915050565b6000614a9982614a72565b614aa38185614a7d565b9350614ab38185602086016135e1565b614abc81613614565b840191505092915050565b6000608082019050614adc6000830187613715565b614ae96020830186613715565b614af660408301856137ab565b8181036060830152614b088184614a8e565b905095945050505050565b600081519050614b2281613536565b92915050565b600060208284031215614b3e57614b3d613500565b5b6000614b4c84828501614b13565b91505092915050565b7f4552433732313a206d696e7420746f20746865207a65726f2061646472657373600082015250565b6000614b8b6020836135d0565b9150614b9682614b55565b602082019050919050565b60006020820190508181036000830152614bba81614b7e565b9050919050565b7f4552433732313a20746f6b656e20616c7265616479206d696e74656400000000600082015250565b6000614bf7601c836135d0565b9150614c0282614bc1565b602082019050919050565b60006020820190508181036000830152614c2681614bea565b905091905056fea2646970667358221220a29338c19647ccdaf2867d3dbcd360db6d3777b5d6ce33b21270fbe78e7083f964736f6c634300080a0033",
  "immutableReferences": {},
  "source": "// SPDX-License-Identifier: MIT\npragma solidity >=0.4.22 <0.9.0;\n\nimport \"@openzeppelin/contracts/access/Ownable.sol\";\nimport \"@openzeppelin/contracts/token/ERC721/ERC721.sol\";\nimport \"@openzeppelin/contracts/token/ERC721/extensions/IERC721Enumerable.sol\";\n\n// FIXME:: Should I add the ability to pause the contract???\n// FIXME:: Update contract to the most recent ERC shit\n\ncontract LavaLamp is Ownable, ERC721, IERC721Enumerable {\n    struct Metadata {\n        uint8 attribute; // (none, lavalien, halo, kitty)\n        uint8 background; // 10 - (black, blueberry, light blueberry, light raspberry, light strawberry, raspberry, sky, purple, stars, strawberry)\n        uint8 base; // 8 - (standard, alien, rocket, bong, pumpkin, wizard, witch, kitty)\n        uint8 glass; // glowing or normal\n        uint8 glassColor; // 2 (white, black, yellow, orange, pink, purple, blue, red)\n\n        // 10 (None, red, green, yellow, blue, purple, light blue, orange, white, pink)\n        uint8 lava_count;\n        uint8 lava_1;\n        uint8 lava_2;\n        uint8 lava_3;\n        uint8 lava_4;\n\n        uint8 overlay; // 9 (none, bitcoin, ethereum, lavaception leaves, peace, smoke, swirls, yinyang)\n        uint8 rarity; // 6 (og, gold, diamond, ruby, emerald, rainbow)\n    }\n    mapping(uint256 => Metadata) id_to_lavalamp;\n\n    string private _currentBaseURI;\n\n    uint256 maxSupply = 7980;\n    uint256 cost = 0.03 ether;\n    uint256 maxMintAmount = 20;\n    uint256 lampCount = 0;\n    uint256 currentLampSet = 0;\n    uint256 lampsMinted = 0;\n\n    constructor() ERC721(\"LavaLamp\", \"LAVALAMP\") {\n        setBaseURI(\"http://localhost:3000/token/\"); // setBaseURI(\"http://www.superdorvil.tech/token/\");\n    }\n\n    function setBaseURI(string memory baseURI) public onlyOwner {\n        _currentBaseURI = baseURI;\n    }\n\n    function _baseURI() internal view virtual override returns (string memory) {\n        return _currentBaseURI;\n    }\n\n    function mint () internal {\n        Metadata memory metadata;\n        uint256 tokenId = getId();\n        uint256 lava_index = tokenId;\n        uint256 r;\n\n        uint8 lava_count = 0;\n        uint8 lava_1;\n        uint8 lava_2;\n        uint8 lava_3;\n        uint8 lava_4;\n\n        lava_4 = uint8(lava_index % 10);\n        lava_index = (lava_index - lava_4) / 10;\n        lava_3 = uint8(lava_index % 10);\n        lava_index = (lava_index - lava_3) / 10;\n        lava_2 = uint8(lava_index % 10);\n        lava_index = (lava_index - lava_2) / 10;\n        lava_1 = uint8(lava_index % 10);\n        lava_index = (lava_index - lava_1) / 10;\n\n        if (lava_4 > 0)\n            lava_count++;\n        if (lava_3 > 0)\n            lava_count++;\n        if (lava_2 > 0)\n            lava_count++;\n        if (lava_1 > 0)\n            lava_count++;\n\n        metadata.lava_count = lava_count;\n        metadata.lava_1 = lava_1;\n        metadata.lava_2 = lava_2;\n        metadata.lava_3 = lava_3;\n        metadata.lava_4 = lava_4;\n\n        r = pseudoRNG(tokenId, r) % 1000000;\n        metadata.attribute = generateAttribute(r);\n        r = pseudoRNG(tokenId, r) % 1000000;\n        metadata.background = generateBackground(r);\n        r = pseudoRNG(tokenId, r) % 1000000;\n        metadata.base = generateBase(r);\n        r = pseudoRNG(tokenId, r) % 1000000;\n        metadata.glass = generateGlass(r);\n        r = pseudoRNG(tokenId, r) % 1000000;\n        metadata.glassColor = generateGlassColor(r);\n        r = pseudoRNG(tokenId, r) % 1000000;\n        metadata.overlay = generateOverlay(r);\n        r = pseudoRNG(tokenId, r) % 1000000;\n        metadata.rarity = generateRarity(r);\n\n        id_to_lavalamp[tokenId] = metadata;\n\n        _safeMint(msg.sender, tokenId);\n\n        incrementId();\n        lampsMinted++;\n    }\n\n    function claim(uint256 mintAmount) external payable {\n        require(mintAmount > 0);\n        require(mintAmount <= maxMintAmount);\n        require(lampsMinted + mintAmount <= maxSupply);\n        uint256 price = cost * mintAmount;\n\n        if (msg.sender != owner())\n            require(msg.value >= price);\n\n        for (uint256 i = 1; i <= mintAmount; i++)\n            mint();\n\n        // payable(owner()).transfer(price ether);\n        (bool success, ) = payable(owner()).call{value: price}(\"\");\n        // (bool success, ) = payable(purchases).call.value(price)(\"\");\n        //(bool success, ) = payable(purchases).call{value: price}(\"\");\n        require(success, \"Transfer failed.\");\n    }\n\n    function generateAttribute(uint256 r) internal pure returns(uint8) {\n        uint8 attribute;\n\n        if (r < 250000)\n            attribute = 0;\n        else if (r < 500000)\n            attribute = 1;\n        else if (r < 750000)\n            attribute = 2;\n        else\n            attribute = 3;\n\n        return attribute;\n    }\n\n    function generateBackground(uint256 r) internal pure returns(uint8) {\n        uint8 background;\n\n        if (r < 100000)\n            background = 0;\n        else if (r < 200000)\n            background = 1;\n        else if (r < 300000)\n            background = 2;\n        else if (r < 400000)\n            background = 3;\n        else if (r < 500000)\n            background = 4;\n        else if (r < 600000)\n            background = 5;\n        else if (r < 700000)\n            background = 6;\n        else if (r < 800000)\n            background = 7;\n        else if (r < 900000)\n            background = 8;\n        else\n            background = 9;\n\n        return background;\n    }\n\n    function generateBase(uint256 r) internal pure returns(uint8) {\n        uint8 base;\n\n        if (r < 125000)\n            base = 0;\n        else if (r < 250000)\n            base = 1;\n        else if (r < 375000)\n            base = 2;\n        else if (r < 500000)\n            base = 3;\n        else if (r < 625000)\n            base = 4;\n        else if (r < 750000)\n            base = 5;\n        else if (r < 875000)\n            base = 6;\n        else\n            base = 7;\n\n        return base;\n    }\n\n    function generateGlass(uint256 r) internal pure returns(uint8) {\n      uint8 glass;\n\n      if (r < 500000)\n          glass = 0;\n      else\n          glass = 1;\n\n      return glass;\n    }\n\n    function generateGlassColor(uint256 r) internal pure returns(uint8) {\n      uint8 glassColor;\n\n      if (r < 125000)\n          glassColor = 0;\n      else if (r < 250000)\n          glassColor = 1;\n      else if (r < 375000)\n          glassColor = 2;\n      else if (r < 500000)\n          glassColor = 3;\n      else if (r < 625000)\n          glassColor = 4;\n      else if (r < 750000)\n          glassColor = 5;\n      else if (r < 875000)\n          glassColor = 6;\n      else\n          glassColor = 7;\n\n      return glassColor;\n    }\n\n    function generateOverlay(uint256 r) internal pure returns(uint8) {\n        uint8 overlay;\n\n        if (r < 111111)\n            overlay = 0;\n        else if (r < 222222)\n            overlay = 1;\n        else if (r < 333333)\n            overlay = 2;\n        else if (r < 444444)\n            overlay = 3;\n        else if (r < 555555)\n            overlay = 4;\n        else if (r < 666666)\n            overlay = 5;\n        else if (r < 777777)\n            overlay = 6;\n        else if (r < 888888)\n            overlay = 7;\n        else\n            overlay = 8;\n\n        return overlay;\n    }\n\n    function generateRarity(uint256 r) internal pure returns(uint8) {\n        uint8 rarity;\n\n        if (r < 166666)\n            rarity = 0;\n        else if (r < 333332)\n            rarity = 1;\n        else if (r < 499998)\n            rarity = 2;\n        else if (r < 666664)\n            rarity = 3;\n        else if (r < 833330)\n            rarity = 4;\n        else\n            rarity = 5;\n\n        return rarity;\n    }\n\n    function getId() internal view returns(uint256) {\n        uint256 lampSetSize = 399;\n        uint256 randomLampBlock = randomizeLampBlock(currentLampSet);\n        uint256 id = randomLampBlock * lampSetSize + lampCount;\n\n        return id;\n    }\n\n    function incrementId() internal {\n        uint256 numOfLampBlocks = 19;\n\n        if (currentLampSet < numOfLampBlocks) {\n            currentLampSet = currentLampSet + 1;\n        } else {\n            currentLampSet = 0;\n            lampCount = lampCount + 1;\n        }\n    }\n\n    function randomizeLampBlock(uint256 lampBlock) internal pure returns(uint256) {\n        uint256 randomLampBlock = 0;\n\n        if (lampBlock == 0)\n            randomLampBlock = 3;\n        else if (lampBlock == 1)\n            randomLampBlock = 17;\n        else if (lampBlock == 2)\n            randomLampBlock = 10;\n        else if (lampBlock == 3)\n            randomLampBlock = 13;\n        else if (lampBlock == 4)\n            randomLampBlock = 18;\n        else if (lampBlock == 5)\n            randomLampBlock = 0;\n        else if (lampBlock == 6)\n            randomLampBlock = 4;\n        else if (lampBlock == 7)\n            randomLampBlock = 1;\n        else if (lampBlock == 8)\n            randomLampBlock = 6;\n        else if (lampBlock == 9)\n            randomLampBlock = 19;\n        else if (lampBlock == 10)\n            randomLampBlock = 8;\n        else if (lampBlock == 11)\n            randomLampBlock = 12;\n        else if (lampBlock == 12)\n            randomLampBlock = 2;\n        else if (lampBlock == 13)\n            randomLampBlock = 14;\n        else if (lampBlock == 14)\n            randomLampBlock = 11;\n        else if (lampBlock == 15)\n            randomLampBlock = 7;\n        else if (lampBlock == 16)\n            randomLampBlock = 15;\n        else if (lampBlock == 17)\n            randomLampBlock = 9;\n        else if (lampBlock == 18)\n            randomLampBlock = 5;\n        else if (lampBlock == 19)\n            randomLampBlock = 16;\n\n        return randomLampBlock;\n    }\n\n    function getTokenMetadata(uint256 tokenId) external view returns(uint8[] memory) {\n        require(_exists(tokenId), \"token not minted\");\n        Metadata memory lavalamp = id_to_lavalamp[tokenId];\n        uint8[] memory meta = new uint8[](12);\n\n        meta[0] = lavalamp.attribute;\n        meta[1] = lavalamp.background;\n        meta[2] = lavalamp.base;\n        meta[3] = lavalamp.glass;\n        meta[4] = lavalamp.glassColor;\n        meta[5] = lavalamp.lava_count;\n        meta[6] = lavalamp.lava_1;\n        meta[7] = lavalamp.lava_2;\n        meta[8] = lavalamp.lava_3;\n        meta[9] = lavalamp.lava_4;\n        meta[10] = lavalamp.overlay;\n        meta[11] = lavalamp.rarity;\n\n        return meta;\n    }\n\n    function getAllTokenMetadata() external view returns (Metadata[] memory) {\n        uint256 count = 0;\n        Metadata[] memory meta = new Metadata[](lampsMinted);\n\n        for (uint256 i = 0; i < maxSupply; i++) {\n            if (_exists(i)) {\n                Metadata memory m = id_to_lavalamp[i];\n                meta[count] = m;\n                count++;\n            }\n        }\n\n        return meta;\n    }\n\n    // ownerOf(uint256 tokenId)\n    function getTokensOwnedByMetadata(address owner) external view returns (Metadata[] memory) {\n        uint256 ownerSupply = 0;\n        uint256 count = 0;\n\n        for (uint256 i = 0; i < maxSupply; i++) {\n            if (_exists(i)) {\n                if (ownerOf(i) == owner) {\n                    ownerSupply++;\n                }\n            }\n        }\n\n        Metadata[] memory meta = new Metadata[](ownerSupply);\n\n        for (uint256 i = 0; i < maxSupply; i++) {\n            if (_exists(i)) {\n                if (ownerOf(i) == owner) {\n                    Metadata memory m = id_to_lavalamp[i];\n                    meta[count] = m;\n                    count++;\n                }\n            }\n        }\n\n        return meta;\n    }\n\n    // psuedo_rng is the previous rng value, this is just top make sure we get something different everytime and don't use the same psuedo for the, base, sticker, and background\n    function pseudoRNG(uint256 tokenId, uint256 prev_rng) internal view returns (uint256) {\n        return uint256(keccak256(abi.encode(block.timestamp, block.difficulty, tokenId, prev_rng)));\n    }\n\n    function tokenByIndexHelper(uint256 index) internal pure returns (uint256) {\n        uint256 lCount = 0;\n        uint256 curLampSet = 0;\n        uint256 numOfLampBlocks = 19;\n        uint256 lampSetSize = 399;\n        uint256 id = 0;\n\n        // must start at 1, the zeroth index is the first item\n        for (uint256 i = 0; i < index + 1; i++) {\n            uint256 randomLampBlock = randomizeLampBlock(curLampSet);\n            id = randomLampBlock * lampSetSize + lCount;\n\n            if (curLampSet < numOfLampBlocks) {\n                curLampSet = curLampSet + 1;\n            } else {\n                curLampSet = 0;\n                lCount = lCount + 1;\n            }\n        }\n\n        return id;\n    }\n\n    function totalSupply() external view returns (uint256) {\n        return lampsMinted;\n    }\n\n    function tokenOfOwnerByIndex(address owner, uint256 index) external view returns (uint256 tokenId) {\n        uint256 count = 0;\n        for (uint256 i = 0; i < maxSupply; i++) {\n          if (_exists(i)) {\n              if (ownerOf(i) == owner) {\n                  count++;\n                  if (index == count) {\n                    return i;\n                  }\n              }\n          }\n        }\n\n        return 0; //FIXME:: Maybe Return 9999999 for error\n    }\n\n    function tokenByIndex(uint256 index) external pure returns (uint256) {\n        return tokenByIndexHelper(index);\n    }\n}\n",
  "sourcePath": "/Users/superdorvil/workspace/ReactWorkspace/PersonalProjects/lava-lamp-nft/contracts/LavaLamp.sol",
  "compiler": {
    "name": "solc",
    "version": "0.8.10+commit.fc410830.Emscripten.clang"
  },
  "schemaVersion": "3.4.3",
  "updatedAt": "2021-12-18T13:46:40.643Z",
  "networkType": "ethereum",
  "devdoc": {
    "kind": "dev",
    "methods": {
      "approve(address,uint256)": {
        "details": "See {IERC721-approve}."
      },
      "balanceOf(address)": {
        "details": "See {IERC721-balanceOf}."
      },
      "getApproved(uint256)": {
        "details": "See {IERC721-getApproved}."
      },
      "isApprovedForAll(address,address)": {
        "details": "See {IERC721-isApprovedForAll}."
      },
      "name()": {
        "details": "See {IERC721Metadata-name}."
      },
      "owner()": {
        "details": "Returns the address of the current owner."
      },
      "ownerOf(uint256)": {
        "details": "See {IERC721-ownerOf}."
      },
      "renounceOwnership()": {
        "details": "Leaves the contract without owner. It will not be possible to call `onlyOwner` functions anymore. Can only be called by the current owner. NOTE: Renouncing ownership will leave the contract without an owner, thereby removing any functionality that is only available to the owner."
      },
      "safeTransferFrom(address,address,uint256)": {
        "details": "See {IERC721-safeTransferFrom}."
      },
      "safeTransferFrom(address,address,uint256,bytes)": {
        "details": "See {IERC721-safeTransferFrom}."
      },
      "setApprovalForAll(address,bool)": {
        "details": "See {IERC721-setApprovalForAll}."
      },
      "supportsInterface(bytes4)": {
        "details": "See {IERC165-supportsInterface}."
      },
      "symbol()": {
        "details": "See {IERC721Metadata-symbol}."
      },
      "tokenByIndex(uint256)": {
        "details": "Returns a token ID at a given `index` of all the tokens stored by the contract. Use along with {totalSupply} to enumerate all tokens."
      },
      "tokenOfOwnerByIndex(address,uint256)": {
        "details": "Returns a token ID owned by `owner` at a given `index` of its token list. Use along with {balanceOf} to enumerate all of ``owner``'s tokens."
      },
      "tokenURI(uint256)": {
        "details": "See {IERC721Metadata-tokenURI}."
      },
      "totalSupply()": {
        "details": "Returns the total amount of tokens stored by the contract."
      },
      "transferFrom(address,address,uint256)": {
        "details": "See {IERC721-transferFrom}."
      },
      "transferOwnership(address)": {
        "details": "Transfers ownership of the contract to a new account (`newOwner`). Can only be called by the current owner."
      }
    },
    "version": 1
  },
  "userdoc": {
    "kind": "user",
    "methods": {},
    "version": 1
  }
}