{
  "contractName": "LavaLamp",
  "abi": [
    {
      "inputs": [],
      "stateMutability": "nonpayable",
      "type": "constructor"
    },
    {
      "anonymous": false,
      "inputs": [
        {
          "indexed": true,
          "internalType": "address",
          "name": "owner",
          "type": "address"
        },
        {
          "indexed": true,
          "internalType": "address",
          "name": "approved",
          "type": "address"
        },
        {
          "indexed": true,
          "internalType": "uint256",
          "name": "tokenId",
          "type": "uint256"
        }
      ],
      "name": "Approval",
      "type": "event"
    },
    {
      "anonymous": false,
      "inputs": [
        {
          "indexed": true,
          "internalType": "address",
          "name": "owner",
          "type": "address"
        },
        {
          "indexed": true,
          "internalType": "address",
          "name": "operator",
          "type": "address"
        },
        {
          "indexed": false,
          "internalType": "bool",
          "name": "approved",
          "type": "bool"
        }
      ],
      "name": "ApprovalForAll",
      "type": "event"
    },
    {
      "anonymous": false,
      "inputs": [
        {
          "indexed": true,
          "internalType": "address",
          "name": "previousOwner",
          "type": "address"
        },
        {
          "indexed": true,
          "internalType": "address",
          "name": "newOwner",
          "type": "address"
        }
      ],
      "name": "OwnershipTransferred",
      "type": "event"
    },
    {
      "anonymous": false,
      "inputs": [
        {
          "indexed": true,
          "internalType": "address",
          "name": "from",
          "type": "address"
        },
        {
          "indexed": true,
          "internalType": "address",
          "name": "to",
          "type": "address"
        },
        {
          "indexed": true,
          "internalType": "uint256",
          "name": "tokenId",
          "type": "uint256"
        }
      ],
      "name": "Transfer",
      "type": "event"
    },
    {
      "inputs": [
        {
          "internalType": "address",
          "name": "to",
          "type": "address"
        },
        {
          "internalType": "uint256",
          "name": "tokenId",
          "type": "uint256"
        }
      ],
      "name": "approve",
      "outputs": [],
      "stateMutability": "nonpayable",
      "type": "function"
    },
    {
      "inputs": [
        {
          "internalType": "address",
          "name": "owner",
          "type": "address"
        }
      ],
      "name": "balanceOf",
      "outputs": [
        {
          "internalType": "uint256",
          "name": "",
          "type": "uint256"
        }
      ],
      "stateMutability": "view",
      "type": "function",
      "constant": true
    },
    {
      "inputs": [],
      "name": "cost",
      "outputs": [
        {
          "internalType": "uint256",
          "name": "",
          "type": "uint256"
        }
      ],
      "stateMutability": "view",
      "type": "function",
      "constant": true
    },
    {
      "inputs": [
        {
          "internalType": "uint256",
          "name": "tokenId",
          "type": "uint256"
        }
      ],
      "name": "getApproved",
      "outputs": [
        {
          "internalType": "address",
          "name": "",
          "type": "address"
        }
      ],
      "stateMutability": "view",
      "type": "function",
      "constant": true
    },
    {
      "inputs": [
        {
          "internalType": "address",
          "name": "owner",
          "type": "address"
        },
        {
          "internalType": "address",
          "name": "operator",
          "type": "address"
        }
      ],
      "name": "isApprovedForAll",
      "outputs": [
        {
          "internalType": "bool",
          "name": "",
          "type": "bool"
        }
      ],
      "stateMutability": "view",
      "type": "function",
      "constant": true
    },
    {
      "inputs": [],
      "name": "name",
      "outputs": [
        {
          "internalType": "string",
          "name": "",
          "type": "string"
        }
      ],
      "stateMutability": "view",
      "type": "function",
      "constant": true
    },
    {
      "inputs": [],
      "name": "owner",
      "outputs": [
        {
          "internalType": "address",
          "name": "",
          "type": "address"
        }
      ],
      "stateMutability": "view",
      "type": "function",
      "constant": true
    },
    {
      "inputs": [
        {
          "internalType": "uint256",
          "name": "tokenId",
          "type": "uint256"
        }
      ],
      "name": "ownerOf",
      "outputs": [
        {
          "internalType": "address",
          "name": "",
          "type": "address"
        }
      ],
      "stateMutability": "view",
      "type": "function",
      "constant": true
    },
    {
      "inputs": [],
      "name": "renounceOwnership",
      "outputs": [],
      "stateMutability": "nonpayable",
      "type": "function"
    },
    {
      "inputs": [
        {
          "internalType": "address",
          "name": "from",
          "type": "address"
        },
        {
          "internalType": "address",
          "name": "to",
          "type": "address"
        },
        {
          "internalType": "uint256",
          "name": "tokenId",
          "type": "uint256"
        }
      ],
      "name": "safeTransferFrom",
      "outputs": [],
      "stateMutability": "nonpayable",
      "type": "function"
    },
    {
      "inputs": [
        {
          "internalType": "address",
          "name": "from",
          "type": "address"
        },
        {
          "internalType": "address",
          "name": "to",
          "type": "address"
        },
        {
          "internalType": "uint256",
          "name": "tokenId",
          "type": "uint256"
        },
        {
          "internalType": "bytes",
          "name": "_data",
          "type": "bytes"
        }
      ],
      "name": "safeTransferFrom",
      "outputs": [],
      "stateMutability": "nonpayable",
      "type": "function"
    },
    {
      "inputs": [
        {
          "internalType": "address",
          "name": "operator",
          "type": "address"
        },
        {
          "internalType": "bool",
          "name": "approved",
          "type": "bool"
        }
      ],
      "name": "setApprovalForAll",
      "outputs": [],
      "stateMutability": "nonpayable",
      "type": "function"
    },
    {
      "inputs": [
        {
          "internalType": "bytes4",
          "name": "interfaceId",
          "type": "bytes4"
        }
      ],
      "name": "supportsInterface",
      "outputs": [
        {
          "internalType": "bool",
          "name": "",
          "type": "bool"
        }
      ],
      "stateMutability": "view",
      "type": "function",
      "constant": true
    },
    {
      "inputs": [],
      "name": "symbol",
      "outputs": [
        {
          "internalType": "string",
          "name": "",
          "type": "string"
        }
      ],
      "stateMutability": "view",
      "type": "function",
      "constant": true
    },
    {
      "inputs": [
        {
          "internalType": "address",
          "name": "from",
          "type": "address"
        },
        {
          "internalType": "address",
          "name": "to",
          "type": "address"
        },
        {
          "internalType": "uint256",
          "name": "tokenId",
          "type": "uint256"
        }
      ],
      "name": "transferFrom",
      "outputs": [],
      "stateMutability": "nonpayable",
      "type": "function"
    },
    {
      "inputs": [
        {
          "internalType": "address",
          "name": "newOwner",
          "type": "address"
        }
      ],
      "name": "transferOwnership",
      "outputs": [],
      "stateMutability": "nonpayable",
      "type": "function"
    },
    {
      "inputs": [
        {
          "internalType": "uint256",
          "name": "tokenId",
          "type": "uint256"
        }
      ],
      "name": "tokenURI",
      "outputs": [
        {
          "internalType": "string",
          "name": "",
          "type": "string"
        }
      ],
      "stateMutability": "view",
      "type": "function",
      "constant": true
    },
    {
      "inputs": [
        {
          "internalType": "string",
          "name": "uri",
          "type": "string"
        }
      ],
      "name": "mint",
      "outputs": [
        {
          "internalType": "uint256",
          "name": "",
          "type": "uint256"
        }
      ],
      "stateMutability": "payable",
      "type": "function",
      "payable": true
    },
    {
      "inputs": [],
      "name": "getMintableTokenID",
      "outputs": [
        {
          "internalType": "uint256",
          "name": "",
          "type": "uint256"
        }
      ],
      "stateMutability": "view",
      "type": "function",
      "constant": true
    }
  ],
  "bytecode": "0x608060405266b1a2bc2ec500006009553480156200001c57600080fd5b506040518060400160405280600881526020017f4c6176614c616d700000000000000000000000000000000000000000000000008152506040518060400160405280600881526020017f4c4156414c414d50000000000000000000000000000000000000000000000000815250620000a96200009d620000e360201b60201c565b620000eb60201b60201c565b8160019080519060200190620000c1929190620001af565b508060029080519060200190620000da929190620001af565b505050620002c4565b600033905090565b60008060009054906101000a900473ffffffffffffffffffffffffffffffffffffffff169050816000806101000a81548173ffffffffffffffffffffffffffffffffffffffff021916908373ffffffffffffffffffffffffffffffffffffffff1602179055508173ffffffffffffffffffffffffffffffffffffffff168173ffffffffffffffffffffffffffffffffffffffff167f8be0079c531659141344cd1fd0a4f28419497f9722a3daafe3b4186f6b6457e060405160405180910390a35050565b828054620001bd906200028e565b90600052602060002090601f016020900481019282620001e157600085556200022d565b82601f10620001fc57805160ff19168380011785556200022d565b828001600101855582156200022d579182015b828111156200022c5782518255916020019190600101906200020f565b5b5090506200023c919062000240565b5090565b5b808211156200025b57600081600090555060010162000241565b5090565b7f4e487b7100000000000000000000000000000000000000000000000000000000600052602260045260246000fd5b60006002820490506001821680620002a757607f821691505b60208210811415620002be57620002bd6200025f565b5b50919050565b612d4c80620002d46000396000f3fe6080604052600436106101145760003560e01c806370a08231116100a0578063b88d4fde11610064578063b88d4fde1461039f578063c87b56dd146103c8578063d85d3d2714610405578063e985e9c514610435578063f2fde38b1461047257610114565b806370a08231146102cc578063715018a6146103095780638da5cb5b1461032057806395d89b411461034b578063a22cb4651461037657610114565b806313faede6116100e757806313faede6146101e757806323b872dd1461021257806329bf68941461023b57806342842e0e146102665780636352211e1461028f57610114565b806301ffc9a71461011957806306fdde0314610156578063081812fc14610181578063095ea7b3146101be575b600080fd5b34801561012557600080fd5b50610140600480360381019061013b9190611bbe565b61049b565b60405161014d9190611c06565b60405180910390f35b34801561016257600080fd5b5061016b61057d565b6040516101789190611cba565b60405180910390f35b34801561018d57600080fd5b506101a860048036038101906101a39190611d12565b61060f565b6040516101b59190611d80565b60405180910390f35b3480156101ca57600080fd5b506101e560048036038101906101e09190611dc7565b610694565b005b3480156101f357600080fd5b506101fc6107ac565b6040516102099190611e16565b60405180910390f35b34801561021e57600080fd5b5061023960048036038101906102349190611e31565b6107b2565b005b34801561024757600080fd5b50610250610812565b60405161025d9190611e16565b60405180910390f35b34801561027257600080fd5b5061028d60048036038101906102889190611e31565b610828565b005b34801561029b57600080fd5b506102b660048036038101906102b19190611d12565b610848565b6040516102c39190611d80565b60405180910390f35b3480156102d857600080fd5b506102f360048036038101906102ee9190611e84565b6108fa565b6040516103009190611e16565b60405180910390f35b34801561031557600080fd5b5061031e6109b2565b005b34801561032c57600080fd5b50610335610a3a565b6040516103429190611d80565b60405180910390f35b34801561035757600080fd5b50610360610a63565b60405161036d9190611cba565b60405180910390f35b34801561038257600080fd5b5061039d60048036038101906103989190611edd565b610af5565b005b3480156103ab57600080fd5b506103c660048036038101906103c19190612052565b610c76565b005b3480156103d457600080fd5b506103ef60048036038101906103ea9190611d12565b610cd8565b6040516103fc9190611cba565b60405180910390f35b61041f600480360381019061041a9190612176565b610d95565b60405161042c9190611e16565b60405180910390f35b34801561044157600080fd5b5061045c600480360381019061045791906121bf565b610ea4565b6040516104699190611c06565b60405180910390f35b34801561047e57600080fd5b5061049960048036038101906104949190611e84565b610f38565b005b60007f80ac58cd000000000000000000000000000000000000000000000000000000007bffffffffffffffffffffffffffffffffffffffffffffffffffffffff1916827bffffffffffffffffffffffffffffffffffffffffffffffffffffffff1916148061056657507f5b5e139f000000000000000000000000000000000000000000000000000000007bffffffffffffffffffffffffffffffffffffffffffffffffffffffff1916827bffffffffffffffffffffffffffffffffffffffffffffffffffffffff1916145b80610576575061057582611030565b5b9050919050565b60606001805461058c9061222e565b80601f01602080910402602001604051908101604052809291908181526020018280546105b89061222e565b80156106055780601f106105da57610100808354040283529160200191610605565b820191906000526020600020905b8154815290600101906020018083116105e857829003601f168201915b5050505050905090565b600061061a8261109a565b610659576040517f08c379a0000000000000000000000000000000000000000000000000000000008152600401610650906122d2565b60405180910390fd5b6005600083815260200190815260200160002060009054906101000a900473ffffffffffffffffffffffffffffffffffffffff169050919050565b600061069f82610848565b90508073ffffffffffffffffffffffffffffffffffffffff168373ffffffffffffffffffffffffffffffffffffffff161415610710576040517f08c379a000000000000000000000000000000000000000000000000000000000815260040161070790612364565b60405180910390fd5b8073ffffffffffffffffffffffffffffffffffffffff1661072f611106565b73ffffffffffffffffffffffffffffffffffffffff16148061075e575061075d81610758611106565b610ea4565b5b61079d576040517f08c379a0000000000000000000000000000000000000000000000000000000008152600401610794906123f6565b60405180910390fd5b6107a7838361110e565b505050565b60095481565b6107c36107bd611106565b826111c7565b610802576040517f08c379a00000000000000000000000000000000000000000000000000000000081526004016107f990612488565b60405180910390fd5b61080d8383836112a5565b505050565b60008061081f6007611501565b90508091505090565b61084383838360405180602001604052806000815250610c76565b505050565b6000806003600084815260200190815260200160002060009054906101000a900473ffffffffffffffffffffffffffffffffffffffff169050600073ffffffffffffffffffffffffffffffffffffffff168173ffffffffffffffffffffffffffffffffffffffff1614156108f1576040517f08c379a00000000000000000000000000000000000000000000000000000000081526004016108e89061251a565b60405180910390fd5b80915050919050565b60008073ffffffffffffffffffffffffffffffffffffffff168273ffffffffffffffffffffffffffffffffffffffff16141561096b576040517f08c379a0000000000000000000000000000000000000000000000000000000008152600401610962906125ac565b60405180910390fd5b600460008373ffffffffffffffffffffffffffffffffffffffff1673ffffffffffffffffffffffffffffffffffffffff168152602001908152602001600020549050919050565b6109ba611106565b73ffffffffffffffffffffffffffffffffffffffff166109d8610a3a565b73ffffffffffffffffffffffffffffffffffffffff1614610a2e576040517f08c379a0000000000000000000000000000000000000000000000000000000008152600401610a2590612618565b60405180910390fd5b610a38600061150f565b565b60008060009054906101000a900473ffffffffffffffffffffffffffffffffffffffff16905090565b606060028054610a729061222e565b80601f0160208091040260200160405190810160405280929190818152602001828054610a9e9061222e565b8015610aeb5780601f10610ac057610100808354040283529160200191610aeb565b820191906000526020600020905b815481529060010190602001808311610ace57829003601f168201915b5050505050905090565b610afd611106565b73ffffffffffffffffffffffffffffffffffffffff168273ffffffffffffffffffffffffffffffffffffffff161415610b6b576040517f08c379a0000000000000000000000000000000000000000000000000000000008152600401610b6290612684565b60405180910390fd5b8060066000610b78611106565b73ffffffffffffffffffffffffffffffffffffffff1673ffffffffffffffffffffffffffffffffffffffff16815260200190815260200160002060008473ffffffffffffffffffffffffffffffffffffffff1673ffffffffffffffffffffffffffffffffffffffff16815260200190815260200160002060006101000a81548160ff0219169083151502179055508173ffffffffffffffffffffffffffffffffffffffff16610c25611106565b73ffffffffffffffffffffffffffffffffffffffff167f17307eab39ab6107e8899845ad3d59bd9653f200f220920489ca2b5937696c3183604051610c6a9190611c06565b60405180910390a35050565b610c87610c81611106565b836111c7565b610cc6576040517f08c379a0000000000000000000000000000000000000000000000000000000008152600401610cbd90612488565b60405180910390fd5b610cd2848484846115d3565b50505050565b6060610ce38261109a565b610cec57600080fd5b6000600860008481526020019081526020016000208054610d0c9061222e565b80601f0160208091040260200160405190810160405280929190818152602001828054610d389061222e565b8015610d855780601f10610d5a57610100808354040283529160200191610d85565b820191906000526020600020905b815481529060010190602001808311610d6857829003601f168201915b5050505050905080915050919050565b600080610da26007611501565b9050610dac610a3a565b73ffffffffffffffffffffffffffffffffffffffff163373ffffffffffffffffffffffffffffffffffffffff1614610e2857662386f26fc100003414610e27576040517f08c379a0000000000000000000000000000000000000000000000000000000008152600401610e1e90612716565b60405180910390fd5b5b610e32338261162f565b610e3c818461164d565b610e4660076116c1565b610e4e610a3a565b73ffffffffffffffffffffffffffffffffffffffff166108fc662386f26fc100009081150290604051600060405180830381858888f19350505050158015610e9a573d6000803e3d6000fd5b5080915050919050565b6000600660008473ffffffffffffffffffffffffffffffffffffffff1673ffffffffffffffffffffffffffffffffffffffff16815260200190815260200160002060008373ffffffffffffffffffffffffffffffffffffffff1673ffffffffffffffffffffffffffffffffffffffff16815260200190815260200160002060009054906101000a900460ff16905092915050565b610f40611106565b73ffffffffffffffffffffffffffffffffffffffff16610f5e610a3a565b73ffffffffffffffffffffffffffffffffffffffff1614610fb4576040517f08c379a0000000000000000000000000000000000000000000000000000000008152600401610fab90612618565b60405180910390fd5b600073ffffffffffffffffffffffffffffffffffffffff168173ffffffffffffffffffffffffffffffffffffffff161415611024576040517f08c379a000000000000000000000000000000000000000000000000000000000815260040161101b906127a8565b60405180910390fd5b61102d8161150f565b50565b60007f01ffc9a7000000000000000000000000000000000000000000000000000000007bffffffffffffffffffffffffffffffffffffffffffffffffffffffff1916827bffffffffffffffffffffffffffffffffffffffffffffffffffffffff1916149050919050565b60008073ffffffffffffffffffffffffffffffffffffffff166003600084815260200190815260200160002060009054906101000a900473ffffffffffffffffffffffffffffffffffffffff1673ffffffffffffffffffffffffffffffffffffffff1614159050919050565b600033905090565b816005600083815260200190815260200160002060006101000a81548173ffffffffffffffffffffffffffffffffffffffff021916908373ffffffffffffffffffffffffffffffffffffffff160217905550808273ffffffffffffffffffffffffffffffffffffffff1661118183610848565b73ffffffffffffffffffffffffffffffffffffffff167f8c5be1e5ebec7d5bd14f71427d1e84f3dd0314c0f7b2291e5b200ac8c7c3b92560405160405180910390a45050565b60006111d28261109a565b611211576040517f08c379a00000000000000000000000000000000000000000000000000000000081526004016112089061283a565b60405180910390fd5b600061121c83610848565b90508073ffffffffffffffffffffffffffffffffffffffff168473ffffffffffffffffffffffffffffffffffffffff16148061128b57508373ffffffffffffffffffffffffffffffffffffffff166112738461060f565b73ffffffffffffffffffffffffffffffffffffffff16145b8061129c575061129b8185610ea4565b5b91505092915050565b8273ffffffffffffffffffffffffffffffffffffffff166112c582610848565b73ffffffffffffffffffffffffffffffffffffffff161461131b576040517f08c379a0000000000000000000000000000000000000000000000000000000008152600401611312906128cc565b60405180910390fd5b600073ffffffffffffffffffffffffffffffffffffffff168273ffffffffffffffffffffffffffffffffffffffff16141561138b576040517f08c379a00000000000000000000000000000000000000000000000000000000081526004016113829061295e565b60405180910390fd5b6113968383836116d7565b6113a160008261110e565b6001600460008573ffffffffffffffffffffffffffffffffffffffff1673ffffffffffffffffffffffffffffffffffffffff16815260200190815260200160002060008282546113f191906129ad565b925050819055506001600460008473ffffffffffffffffffffffffffffffffffffffff1673ffffffffffffffffffffffffffffffffffffffff168152602001908152602001600020600082825461144891906129e1565b92505081905550816003600083815260200190815260200160002060006101000a81548173ffffffffffffffffffffffffffffffffffffffff021916908373ffffffffffffffffffffffffffffffffffffffff160217905550808273ffffffffffffffffffffffffffffffffffffffff168473ffffffffffffffffffffffffffffffffffffffff167fddf252ad1be2c89b69c2b068fc378daa952ba7f163c4a11628f55a4df523b3ef60405160405180910390a4505050565b600081600001549050919050565b60008060009054906101000a900473ffffffffffffffffffffffffffffffffffffffff169050816000806101000a81548173ffffffffffffffffffffffffffffffffffffffff021916908373ffffffffffffffffffffffffffffffffffffffff1602179055508173ffffffffffffffffffffffffffffffffffffffff168173ffffffffffffffffffffffffffffffffffffffff167f8be0079c531659141344cd1fd0a4f28419497f9722a3daafe3b4186f6b6457e060405160405180910390a35050565b6115de8484846112a5565b6115ea848484846116dc565b611629576040517f08c379a000000000000000000000000000000000000000000000000000000000815260040161162090612aa9565b60405180910390fd5b50505050565b611649828260405180602001604052806000815250611873565b5050565b6116568261109a565b611695576040517f08c379a000000000000000000000000000000000000000000000000000000000815260040161168c90612b3b565b60405180910390fd5b806008600084815260200190815260200160002090805190602001906116bc929190611aaf565b505050565b6001816000016000828254019250508190555050565b505050565b60006116fd8473ffffffffffffffffffffffffffffffffffffffff166118ce565b15611866578373ffffffffffffffffffffffffffffffffffffffff1663150b7a02611726611106565b8786866040518563ffffffff1660e01b81526004016117489493929190612bb0565b602060405180830381600087803b15801561176257600080fd5b505af192505050801561179357506040513d601f19601f820116820180604052508101906117909190612c11565b60015b611816573d80600081146117c3576040519150601f19603f3d011682016040523d82523d6000602084013e6117c8565b606091505b5060008151141561180e576040517f08c379a000000000000000000000000000000000000000000000000000000000815260040161180590612aa9565b60405180910390fd5b805181602001fd5b63150b7a0260e01b7bffffffffffffffffffffffffffffffffffffffffffffffffffffffff1916817bffffffffffffffffffffffffffffffffffffffffffffffffffffffff19161491505061186b565b600190505b949350505050565b61187d83836118e1565b61188a60008484846116dc565b6118c9576040517f08c379a00000000000000000000000000000000000000000000000000000000081526004016118c090612aa9565b60405180910390fd5b505050565b600080823b905060008111915050919050565b600073ffffffffffffffffffffffffffffffffffffffff168273ffffffffffffffffffffffffffffffffffffffff161415611951576040517f08c379a000000000000000000000000000000000000000000000000000000000815260040161194890612c8a565b60405180910390fd5b61195a8161109a565b1561199a576040517f08c379a000000000000000000000000000000000000000000000000000000000815260040161199190612cf6565b60405180910390fd5b6119a6600083836116d7565b6001600460008473ffffffffffffffffffffffffffffffffffffffff1673ffffffffffffffffffffffffffffffffffffffff16815260200190815260200160002060008282546119f691906129e1565b92505081905550816003600083815260200190815260200160002060006101000a81548173ffffffffffffffffffffffffffffffffffffffff021916908373ffffffffffffffffffffffffffffffffffffffff160217905550808273ffffffffffffffffffffffffffffffffffffffff16600073ffffffffffffffffffffffffffffffffffffffff167fddf252ad1be2c89b69c2b068fc378daa952ba7f163c4a11628f55a4df523b3ef60405160405180910390a45050565b828054611abb9061222e565b90600052602060002090601f016020900481019282611add5760008555611b24565b82601f10611af657805160ff1916838001178555611b24565b82800160010185558215611b24579182015b82811115611b23578251825591602001919060010190611b08565b5b509050611b319190611b35565b5090565b5b80821115611b4e576000816000905550600101611b36565b5090565b6000604051905090565b600080fd5b600080fd5b60007fffffffff0000000000000000000000000000000000000000000000000000000082169050919050565b611b9b81611b66565b8114611ba657600080fd5b50565b600081359050611bb881611b92565b92915050565b600060208284031215611bd457611bd3611b5c565b5b6000611be284828501611ba9565b91505092915050565b60008115159050919050565b611c0081611beb565b82525050565b6000602082019050611c1b6000830184611bf7565b92915050565b600081519050919050565b600082825260208201905092915050565b60005b83811015611c5b578082015181840152602081019050611c40565b83811115611c6a576000848401525b50505050565b6000601f19601f8301169050919050565b6000611c8c82611c21565b611c968185611c2c565b9350611ca6818560208601611c3d565b611caf81611c70565b840191505092915050565b60006020820190508181036000830152611cd48184611c81565b905092915050565b6000819050919050565b611cef81611cdc565b8114611cfa57600080fd5b50565b600081359050611d0c81611ce6565b92915050565b600060208284031215611d2857611d27611b5c565b5b6000611d3684828501611cfd565b91505092915050565b600073ffffffffffffffffffffffffffffffffffffffff82169050919050565b6000611d6a82611d3f565b9050919050565b611d7a81611d5f565b82525050565b6000602082019050611d956000830184611d71565b92915050565b611da481611d5f565b8114611daf57600080fd5b50565b600081359050611dc181611d9b565b92915050565b60008060408385031215611dde57611ddd611b5c565b5b6000611dec85828601611db2565b9250506020611dfd85828601611cfd565b9150509250929050565b611e1081611cdc565b82525050565b6000602082019050611e2b6000830184611e07565b92915050565b600080600060608486031215611e4a57611e49611b5c565b5b6000611e5886828701611db2565b9350506020611e6986828701611db2565b9250506040611e7a86828701611cfd565b9150509250925092565b600060208284031215611e9a57611e99611b5c565b5b6000611ea884828501611db2565b91505092915050565b611eba81611beb565b8114611ec557600080fd5b50565b600081359050611ed781611eb1565b92915050565b60008060408385031215611ef457611ef3611b5c565b5b6000611f0285828601611db2565b9250506020611f1385828601611ec8565b9150509250929050565b600080fd5b600080fd5b7f4e487b7100000000000000000000000000000000000000000000000000000000600052604160045260246000fd5b611f5f82611c70565b810181811067ffffffffffffffff82111715611f7e57611f7d611f27565b5b80604052505050565b6000611f91611b52565b9050611f9d8282611f56565b919050565b600067ffffffffffffffff821115611fbd57611fbc611f27565b5b611fc682611c70565b9050602081019050919050565b82818337600083830152505050565b6000611ff5611ff084611fa2565b611f87565b90508281526020810184848401111561201157612010611f22565b5b61201c848285611fd3565b509392505050565b600082601f83011261203957612038611f1d565b5b8135612049848260208601611fe2565b91505092915050565b6000806000806080858703121561206c5761206b611b5c565b5b600061207a87828801611db2565b945050602061208b87828801611db2565b935050604061209c87828801611cfd565b925050606085013567ffffffffffffffff8111156120bd576120bc611b61565b5b6120c987828801612024565b91505092959194509250565b600067ffffffffffffffff8211156120f0576120ef611f27565b5b6120f982611c70565b9050602081019050919050565b6000612119612114846120d5565b611f87565b90508281526020810184848401111561213557612134611f22565b5b612140848285611fd3565b509392505050565b600082601f83011261215d5761215c611f1d565b5b813561216d848260208601612106565b91505092915050565b60006020828403121561218c5761218b611b5c565b5b600082013567ffffffffffffffff8111156121aa576121a9611b61565b5b6121b684828501612148565b91505092915050565b600080604083850312156121d6576121d5611b5c565b5b60006121e485828601611db2565b92505060206121f585828601611db2565b9150509250929050565b7f4e487b7100000000000000000000000000000000000000000000000000000000600052602260045260246000fd5b6000600282049050600182168061224657607f821691505b6020821081141561225a576122596121ff565b5b50919050565b7f4552433732313a20617070726f76656420717565727920666f72206e6f6e657860008201527f697374656e7420746f6b656e0000000000000000000000000000000000000000602082015250565b60006122bc602c83611c2c565b91506122c782612260565b604082019050919050565b600060208201905081810360008301526122eb816122af565b9050919050565b7f4552433732313a20617070726f76616c20746f2063757272656e74206f776e6560008201527f7200000000000000000000000000000000000000000000000000000000000000602082015250565b600061234e602183611c2c565b9150612359826122f2565b604082019050919050565b6000602082019050818103600083015261237d81612341565b9050919050565b7f4552433732313a20617070726f76652063616c6c6572206973206e6f74206f7760008201527f6e6572206e6f7220617070726f76656420666f7220616c6c0000000000000000602082015250565b60006123e0603883611c2c565b91506123eb82612384565b604082019050919050565b6000602082019050818103600083015261240f816123d3565b9050919050565b7f4552433732313a207472616e736665722063616c6c6572206973206e6f74206f60008201527f776e6572206e6f7220617070726f766564000000000000000000000000000000602082015250565b6000612472603183611c2c565b915061247d82612416565b604082019050919050565b600060208201905081810360008301526124a181612465565b9050919050565b7f4552433732313a206f776e657220717565727920666f72206e6f6e657869737460008201527f656e7420746f6b656e0000000000000000000000000000000000000000000000602082015250565b6000612504602983611c2c565b915061250f826124a8565b604082019050919050565b60006020820190508181036000830152612533816124f7565b9050919050565b7f4552433732313a2062616c616e636520717565727920666f7220746865207a6560008201527f726f206164647265737300000000000000000000000000000000000000000000602082015250565b6000612596602a83611c2c565b91506125a18261253a565b604082019050919050565b600060208201905081810360008301526125c581612589565b9050919050565b7f4f776e61626c653a2063616c6c6572206973206e6f7420746865206f776e6572600082015250565b6000612602602083611c2c565b915061260d826125cc565b602082019050919050565b60006020820190508181036000830152612631816125f5565b9050919050565b7f4552433732313a20617070726f766520746f2063616c6c657200000000000000600082015250565b600061266e601983611c2c565b915061267982612638565b602082019050919050565b6000602082019050818103600083015261269d81612661565b9050919050565b7f636c61696d696e672061206c617661206c616d7020636f737473202e3031206560008201527f7468000000000000000000000000000000000000000000000000000000000000602082015250565b6000612700602283611c2c565b915061270b826126a4565b604082019050919050565b6000602082019050818103600083015261272f816126f3565b9050919050565b7f4f776e61626c653a206e6577206f776e657220697320746865207a65726f206160008201527f6464726573730000000000000000000000000000000000000000000000000000602082015250565b6000612792602683611c2c565b915061279d82612736565b604082019050919050565b600060208201905081810360008301526127c181612785565b9050919050565b7f4552433732313a206f70657261746f7220717565727920666f72206e6f6e657860008201527f697374656e7420746f6b656e0000000000000000000000000000000000000000602082015250565b6000612824602c83611c2c565b915061282f826127c8565b604082019050919050565b6000602082019050818103600083015261285381612817565b9050919050565b7f4552433732313a207472616e73666572206f6620746f6b656e2074686174206960008201527f73206e6f74206f776e0000000000000000000000000000000000000000000000602082015250565b60006128b6602983611c2c565b91506128c18261285a565b604082019050919050565b600060208201905081810360008301526128e5816128a9565b9050919050565b7f4552433732313a207472616e7366657220746f20746865207a65726f2061646460008201527f7265737300000000000000000000000000000000000000000000000000000000602082015250565b6000612948602483611c2c565b9150612953826128ec565b604082019050919050565b600060208201905081810360008301526129778161293b565b9050919050565b7f4e487b7100000000000000000000000000000000000000000000000000000000600052601160045260246000fd5b60006129b882611cdc565b91506129c383611cdc565b9250828210156129d6576129d561297e565b5b828203905092915050565b60006129ec82611cdc565b91506129f783611cdc565b9250827fffffffffffffffffffffffffffffffffffffffffffffffffffffffffffffffff03821115612a2c57612a2b61297e565b5b828201905092915050565b7f4552433732313a207472616e7366657220746f206e6f6e20455243373231526560008201527f63656976657220696d706c656d656e7465720000000000000000000000000000602082015250565b6000612a93603283611c2c565b9150612a9e82612a37565b604082019050919050565b60006020820190508181036000830152612ac281612a86565b9050919050565b7f4552433732314d657461646174613a2055524920736574206f66206e6f6e657860008201527f697374656e7420746f6b656e0000000000000000000000000000000000000000602082015250565b6000612b25602c83611c2c565b9150612b3082612ac9565b604082019050919050565b60006020820190508181036000830152612b5481612b18565b9050919050565b600081519050919050565b600082825260208201905092915050565b6000612b8282612b5b565b612b8c8185612b66565b9350612b9c818560208601611c3d565b612ba581611c70565b840191505092915050565b6000608082019050612bc56000830187611d71565b612bd26020830186611d71565b612bdf6040830185611e07565b8181036060830152612bf18184612b77565b905095945050505050565b600081519050612c0b81611b92565b92915050565b600060208284031215612c2757612c26611b5c565b5b6000612c3584828501612bfc565b91505092915050565b7f4552433732313a206d696e7420746f20746865207a65726f2061646472657373600082015250565b6000612c74602083611c2c565b9150612c7f82612c3e565b602082019050919050565b60006020820190508181036000830152612ca381612c67565b9050919050565b7f4552433732313a20746f6b656e20616c7265616479206d696e74656400000000600082015250565b6000612ce0601c83611c2c565b9150612ceb82612caa565b602082019050919050565b60006020820190508181036000830152612d0f81612cd3565b905091905056fea2646970667358221220a297ec18bc868a0085f9b8c3554e0ac8698cb8c941f016f32c513b34e75b89ad64736f6c63430008090033",
  "immutableReferences": {},
  "source": "// SPDX-License-Identifier: MIT\npragma solidity >=0.4.22 <0.9.0;\n\nimport \"@openzeppelin/contracts/access/Ownable.sol\";\nimport \"@openzeppelin/contracts/utils/Counters.sol\";\nimport \"@openzeppelin/contracts/token/ERC721/ERC721.sol\";\n\ncontract LavaLamp is Ownable, ERC721 {\n\n  using Counters for Counters.Counter;\n  using Strings for uint256;\n\n  Counters.Counter private _tokenIds;\n  mapping(uint256 => string) private _tokenURIs;\n\n  uint256 public cost = 0.05 ether;\n  // uint256 public maxSupply = 7979;\n  // uint256 public maxMintAmount = 20;\n  // bool public paused = false;\n  // bool public revealed = false;\n  // string public notRevealedUri;\n\n  constructor() ERC721(\"LavaLamp\", \"LAVALAMP\") {}\n\n  // probably make an owner only one of these so I can for loop and mint the first twenty\n  function _setTokenURI(uint256 tokenId, string memory _tokenURI) internal virtual {\n      require(_exists(tokenId), \"ERC721Metadata: URI set of nonexistent token\");\n      _tokenURIs[tokenId] = _tokenURI;\n  }\n\n  function tokenURI(uint256 tokenId) public view virtual override returns (string memory) {\n    require(_exists(tokenId));\n    string memory _tokenURI = _tokenURIs[tokenId];\n    return _tokenURI;\n  }\n\n  function mint(string memory uri) public payable returns (uint256) {\n      uint256 tokenId = _tokenIds.current();\n      if (msg.sender != owner()) {\n        require(msg.value == 0.01 ether, \"claiming a lava lamp costs .01 eth\");\n      }\n      _safeMint(msg.sender, tokenId);\n      _setTokenURI(tokenId, uri);\n      _tokenIds.increment();\n\n      payable(owner()).transfer(0.01 ether);\n\n      return tokenId;\n  }\n\n  function getMintableTokenID() public view returns (uint256) {\n    uint256 tokenId = _tokenIds.current();\n    return tokenId;\n  }\n}\n\n/*\nstruct RenderToken {\n  uint256 id;\n  string uri;\n}\n\nfunction getAllTokens() public view returns (RenderToken[] memory) {\n  uint256 lastestId = _tokenIds.current();\n  uint256 counter = 0;\n  RenderToken[] memory res = new RenderToken[](lastestId);\n  for (uint256 i = 0; i < lastestId; i++) {\n    if (_exists(counter)) {\n      string memory uri = tokenURI(counter);\n      res[counter] = RenderToken(counter, uri);\n    }\n    counter++;\n  }\n  return res;\n}\n*/\n",
  "sourcePath": "/Users/superdorvil/workspace/ReactWorkspace/PersonalProjects/lava-lamp-nft/contracts/LavaLamp.sol",
  "compiler": {
    "name": "solc",
    "version": "0.8.9+commit.e5eed63a.Emscripten.clang"
  },
  "schemaVersion": "3.4.3",
  "updatedAt": "2021-10-26T17:55:29.273Z",
  "networkType": "ethereum",
  "devdoc": {
    "kind": "dev",
    "methods": {
      "approve(address,uint256)": {
        "details": "See {IERC721-approve}."
      },
      "balanceOf(address)": {
        "details": "See {IERC721-balanceOf}."
      },
      "getApproved(uint256)": {
        "details": "See {IERC721-getApproved}."
      },
      "isApprovedForAll(address,address)": {
        "details": "See {IERC721-isApprovedForAll}."
      },
      "name()": {
        "details": "See {IERC721Metadata-name}."
      },
      "owner()": {
        "details": "Returns the address of the current owner."
      },
      "ownerOf(uint256)": {
        "details": "See {IERC721-ownerOf}."
      },
      "renounceOwnership()": {
        "details": "Leaves the contract without owner. It will not be possible to call `onlyOwner` functions anymore. Can only be called by the current owner. NOTE: Renouncing ownership will leave the contract without an owner, thereby removing any functionality that is only available to the owner."
      },
      "safeTransferFrom(address,address,uint256)": {
        "details": "See {IERC721-safeTransferFrom}."
      },
      "safeTransferFrom(address,address,uint256,bytes)": {
        "details": "See {IERC721-safeTransferFrom}."
      },
      "setApprovalForAll(address,bool)": {
        "details": "See {IERC721-setApprovalForAll}."
      },
      "supportsInterface(bytes4)": {
        "details": "See {IERC165-supportsInterface}."
      },
      "symbol()": {
        "details": "See {IERC721Metadata-symbol}."
      },
      "tokenURI(uint256)": {
        "details": "See {IERC721Metadata-tokenURI}."
      },
      "transferFrom(address,address,uint256)": {
        "details": "See {IERC721-transferFrom}."
      },
      "transferOwnership(address)": {
        "details": "Transfers ownership of the contract to a new account (`newOwner`). Can only be called by the current owner."
      }
    },
    "version": 1
  },
  "userdoc": {
    "kind": "user",
    "methods": {},
    "version": 1
  }
}