{
  "contractName": "LavaLamp",
  "abi": [
    {
      "inputs": [],
      "stateMutability": "nonpayable",
      "type": "constructor"
    },
    {
      "anonymous": false,
      "inputs": [
        {
          "indexed": true,
          "internalType": "address",
          "name": "owner",
          "type": "address"
        },
        {
          "indexed": true,
          "internalType": "address",
          "name": "approved",
          "type": "address"
        },
        {
          "indexed": true,
          "internalType": "uint256",
          "name": "tokenId",
          "type": "uint256"
        }
      ],
      "name": "Approval",
      "type": "event"
    },
    {
      "anonymous": false,
      "inputs": [
        {
          "indexed": true,
          "internalType": "address",
          "name": "owner",
          "type": "address"
        },
        {
          "indexed": true,
          "internalType": "address",
          "name": "operator",
          "type": "address"
        },
        {
          "indexed": false,
          "internalType": "bool",
          "name": "approved",
          "type": "bool"
        }
      ],
      "name": "ApprovalForAll",
      "type": "event"
    },
    {
      "anonymous": false,
      "inputs": [
        {
          "indexed": true,
          "internalType": "address",
          "name": "previousOwner",
          "type": "address"
        },
        {
          "indexed": true,
          "internalType": "address",
          "name": "newOwner",
          "type": "address"
        }
      ],
      "name": "OwnershipTransferred",
      "type": "event"
    },
    {
      "anonymous": false,
      "inputs": [
        {
          "indexed": true,
          "internalType": "address",
          "name": "from",
          "type": "address"
        },
        {
          "indexed": true,
          "internalType": "address",
          "name": "to",
          "type": "address"
        },
        {
          "indexed": true,
          "internalType": "uint256",
          "name": "tokenId",
          "type": "uint256"
        }
      ],
      "name": "Transfer",
      "type": "event"
    },
    {
      "inputs": [
        {
          "internalType": "address",
          "name": "to",
          "type": "address"
        },
        {
          "internalType": "uint256",
          "name": "tokenId",
          "type": "uint256"
        }
      ],
      "name": "approve",
      "outputs": [],
      "stateMutability": "nonpayable",
      "type": "function"
    },
    {
      "inputs": [
        {
          "internalType": "address",
          "name": "owner",
          "type": "address"
        }
      ],
      "name": "balanceOf",
      "outputs": [
        {
          "internalType": "uint256",
          "name": "",
          "type": "uint256"
        }
      ],
      "stateMutability": "view",
      "type": "function",
      "constant": true
    },
    {
      "inputs": [
        {
          "internalType": "uint256",
          "name": "tokenId",
          "type": "uint256"
        }
      ],
      "name": "getApproved",
      "outputs": [
        {
          "internalType": "address",
          "name": "",
          "type": "address"
        }
      ],
      "stateMutability": "view",
      "type": "function",
      "constant": true
    },
    {
      "inputs": [
        {
          "internalType": "address",
          "name": "owner",
          "type": "address"
        },
        {
          "internalType": "address",
          "name": "operator",
          "type": "address"
        }
      ],
      "name": "isApprovedForAll",
      "outputs": [
        {
          "internalType": "bool",
          "name": "",
          "type": "bool"
        }
      ],
      "stateMutability": "view",
      "type": "function",
      "constant": true
    },
    {
      "inputs": [],
      "name": "name",
      "outputs": [
        {
          "internalType": "string",
          "name": "",
          "type": "string"
        }
      ],
      "stateMutability": "view",
      "type": "function",
      "constant": true
    },
    {
      "inputs": [],
      "name": "owner",
      "outputs": [
        {
          "internalType": "address",
          "name": "",
          "type": "address"
        }
      ],
      "stateMutability": "view",
      "type": "function",
      "constant": true
    },
    {
      "inputs": [
        {
          "internalType": "uint256",
          "name": "tokenId",
          "type": "uint256"
        }
      ],
      "name": "ownerOf",
      "outputs": [
        {
          "internalType": "address",
          "name": "",
          "type": "address"
        }
      ],
      "stateMutability": "view",
      "type": "function",
      "constant": true
    },
    {
      "inputs": [],
      "name": "renounceOwnership",
      "outputs": [],
      "stateMutability": "nonpayable",
      "type": "function"
    },
    {
      "inputs": [
        {
          "internalType": "address",
          "name": "from",
          "type": "address"
        },
        {
          "internalType": "address",
          "name": "to",
          "type": "address"
        },
        {
          "internalType": "uint256",
          "name": "tokenId",
          "type": "uint256"
        }
      ],
      "name": "safeTransferFrom",
      "outputs": [],
      "stateMutability": "nonpayable",
      "type": "function"
    },
    {
      "inputs": [
        {
          "internalType": "address",
          "name": "from",
          "type": "address"
        },
        {
          "internalType": "address",
          "name": "to",
          "type": "address"
        },
        {
          "internalType": "uint256",
          "name": "tokenId",
          "type": "uint256"
        },
        {
          "internalType": "bytes",
          "name": "_data",
          "type": "bytes"
        }
      ],
      "name": "safeTransferFrom",
      "outputs": [],
      "stateMutability": "nonpayable",
      "type": "function"
    },
    {
      "inputs": [
        {
          "internalType": "address",
          "name": "operator",
          "type": "address"
        },
        {
          "internalType": "bool",
          "name": "approved",
          "type": "bool"
        }
      ],
      "name": "setApprovalForAll",
      "outputs": [],
      "stateMutability": "nonpayable",
      "type": "function"
    },
    {
      "inputs": [
        {
          "internalType": "bytes4",
          "name": "interfaceId",
          "type": "bytes4"
        }
      ],
      "name": "supportsInterface",
      "outputs": [
        {
          "internalType": "bool",
          "name": "",
          "type": "bool"
        }
      ],
      "stateMutability": "view",
      "type": "function",
      "constant": true
    },
    {
      "inputs": [],
      "name": "symbol",
      "outputs": [
        {
          "internalType": "string",
          "name": "",
          "type": "string"
        }
      ],
      "stateMutability": "view",
      "type": "function",
      "constant": true
    },
    {
      "inputs": [
        {
          "internalType": "uint256",
          "name": "tokenId",
          "type": "uint256"
        }
      ],
      "name": "tokenURI",
      "outputs": [
        {
          "internalType": "string",
          "name": "",
          "type": "string"
        }
      ],
      "stateMutability": "view",
      "type": "function",
      "constant": true
    },
    {
      "inputs": [
        {
          "internalType": "address",
          "name": "from",
          "type": "address"
        },
        {
          "internalType": "address",
          "name": "to",
          "type": "address"
        },
        {
          "internalType": "uint256",
          "name": "tokenId",
          "type": "uint256"
        }
      ],
      "name": "transferFrom",
      "outputs": [],
      "stateMutability": "nonpayable",
      "type": "function"
    },
    {
      "inputs": [
        {
          "internalType": "address",
          "name": "newOwner",
          "type": "address"
        }
      ],
      "name": "transferOwnership",
      "outputs": [],
      "stateMutability": "nonpayable",
      "type": "function"
    },
    {
      "inputs": [
        {
          "internalType": "string",
          "name": "baseURI",
          "type": "string"
        }
      ],
      "name": "setBaseURI",
      "outputs": [],
      "stateMutability": "nonpayable",
      "type": "function"
    },
    {
      "inputs": [],
      "name": "claim",
      "outputs": [],
      "stateMutability": "payable",
      "type": "function",
      "payable": true
    },
    {
      "inputs": [
        {
          "internalType": "uint256",
          "name": "tokenId",
          "type": "uint256"
        }
      ],
      "name": "get",
      "outputs": [
        {
          "internalType": "uint8[]",
          "name": "",
          "type": "uint8[]"
        }
      ],
      "stateMutability": "view",
      "type": "function",
      "constant": true
    }
  ],
  "bytecode": "0x6080604052611f2c6009556000600a556000600b556013600c5561018f600d553480156200002c57600080fd5b506040518060400160405280600881526020017f4c6176614c616d700000000000000000000000000000000000000000000000008152506040518060400160405280600881526020017f4c4156414c414d50000000000000000000000000000000000000000000000000815250620000b9620000ad6200015160201b60201c565b6200015960201b60201c565b8160019080519060200190620000d19291906200124f565b508060029080519060200190620000ea9291906200124f565b505050620001176040518060600160405280602281526020016200596f602291396200021d60201b60201c565b60005b60148112156200014a5762000134620002c860201b60201c565b8080620001419062001338565b9150506200011a565b50620019f7565b600033905090565b60008060009054906101000a900473ffffffffffffffffffffffffffffffffffffffff169050816000806101000a81548173ffffffffffffffffffffffffffffffffffffffff021916908373ffffffffffffffffffffffffffffffffffffffff1602179055508173ffffffffffffffffffffffffffffffffffffffff168173ffffffffffffffffffffffffffffffffffffffff167f8be0079c531659141344cd1fd0a4f28419497f9722a3daafe3b4186f6b6457e060405160405180910390a35050565b6200022d6200015160201b60201c565b73ffffffffffffffffffffffffffffffffffffffff166200025362000aff60201b60201c565b73ffffffffffffffffffffffffffffffffffffffff1614620002ac576040517f08c379a0000000000000000000000000000000000000000000000000000000008152600401620002a390620013e7565b60405180910390fd5b8060089080519060200190620002c49291906200124f565b5050565b6000620002da62000b2860201b60201c565b90506000819050600080600080600080600090506000806000806000600a8c62000305919062001442565b9450600a8560ff168d6200031a91906200147a565b620003269190620014b5565b9b50600a8c62000337919062001442565b9350600a8460ff168d6200034c91906200147a565b620003589190620014b5565b9b50600a8c62000369919062001442565b9250600a8360ff168d6200037e91906200147a565b6200038a9190620014b5565b9b50600a8c6200039b919062001442565b9150600a8260ff168d620003b091906200147a565b620003bc9190620014b5565b9b5060008560ff161115620003dc578580620003d890620014fa565b9650505b60008460ff161115620003fa578580620003f690620014fa565b9650505b60008360ff161115620004185785806200041490620014fa565b9650505b60008260ff161115620004365785806200043290620014fa565b9650505b620f42406200044c8e8d62000b7160201b60201c565b62000458919062001442565b9a506203d0908b1015620004705760009950620004a3565b6207a1208b1015620004865760019950620004a2565b620b71b08b10156200049c5760029950620004a1565b600399505b5b5b620f4240620004b98e8d62000b7160201b60201c565b620004c5919062001442565b9a50620186a08b1015620004dd57600098506200059a565b62030d408b1015620004f3576001985062000599565b620493e08b101562000509576002985062000598565b62061a808b10156200051f576003985062000597565b6207a1208b101562000535576004985062000596565b620927c08b10156200054b576005985062000595565b620aae608b101562000561576006985062000594565b620c35008b101562000577576007985062000593565b620dbba08b10156200058d576008985062000592565b600998505b5b5b5b5b5b5b5b5b620f4240620005b08e8d62000b7160201b60201c565b620005bc919062001442565b9a50619c408b1015620005d35760009750620007e9565b620138808b1015620005e95760019750620007e8565b6201d4c08b1015620005ff5760029750620007e7565b620271008b1015620006155760039750620007e6565b62030d408b10156200062b5760049750620007e5565b6203a9808b1015620006415760059750620007e4565b620445c08b1015620006575760069750620007e3565b6204e2008b10156200066d5760079750620007e2565b62057e408b1015620006835760089750620007e1565b62061a808b1015620006995760099750620007e0565b6206b6c08b1015620006af57600a9750620007df565b620753008b1015620006c557600b9750620007de565b6207ef408b1015620006db57600c9750620007dd565b62088b808b1015620006f157600d9750620007dc565b620927c08b10156200070757600e9750620007db565b6209c4008b10156200071d57600f9750620007da565b620a60408b1015620007335760109750620007d9565b620afc808b1015620007495760119750620007d8565b620b98c08b10156200075f5760129750620007d7565b620c35008b1015620007755760139750620007d6565b620cd1408b10156200078b5760149750620007d5565b620d6d808b1015620007a15760159750620007d4565b620e09c08b1015620007b75760169750620007d3565b620ea6008b1015620007cd5760179750620007d2565b601897505b5b5b5b5b5b5b5b5b5b5b5b5b5b5b5b5b5b5b5b5b5b5b5b620f4240620007ff8e8d62000b7160201b60201c565b6200080b919062001442565b9a506207a1208b101562000823576000965062000828565b600196505b620f42406200083e8e8d62000b7160201b60201c565b6200084a919062001442565b9a506201b2078b101562000862576000905062000908565b6203640e8b101562000878576001905062000907565b620516158b10156200088e576002905062000906565b6206c81c8b1015620008a4576003905062000905565b62087a238b1015620008ba576004905062000904565b620a2c2a8b1015620008d0576005905062000903565b620bde318b1015620008e6576006905062000902565b620d90388b1015620008fc576007905062000901565b600890505b5b5b5b5b5b5b5b6040518061014001604052808b60ff1681526020018a60ff1681526020018960ff1681526020018860ff1681526020018760ff1681526020018660ff1681526020018560ff1681526020018460ff1681526020018360ff1681526020018260ff16815250600760008f815260200190815260200160002060008201518160000160006101000a81548160ff021916908360ff16021790555060208201518160000160016101000a81548160ff021916908360ff16021790555060408201518160000160026101000a81548160ff021916908360ff16021790555060608201518160000160036101000a81548160ff021916908360ff16021790555060808201518160000160046101000a81548160ff021916908360ff16021790555060a08201518160000160056101000a81548160ff021916908360ff16021790555060c08201518160000160066101000a81548160ff021916908360ff16021790555060e08201518160000160076101000a81548160ff021916908360ff1602179055506101008201518160000160086101000a81548160ff021916908360ff1602179055506101208201518160000160096101000a81548160ff021916908360ff16021790555090505062000ae0338e62000bad60201b60201c565b62000af062000bd360201b60201c565b50505050505050505050505050565b60008060009054906101000a900473ffffffffffffffffffffffffffffffffffffffff16905090565b600080600b549050600062000b438262000c1f60201b60201c565b90506000600a54600d548362000b5a919062001529565b62000b6691906200158a565b905080935050505090565b60004244848460405160200162000b8c9493929190620015f8565b6040516020818303038152906040528051906020012060001c905092915050565b62000bcf82826040518060200160405280600081525062000dcd60201b60201c565b5050565b600c54600b54101562000bfd576001600b5462000bf191906200158a565b600b8190555062000c1d565b6000600b819055506001600a5462000c1691906200158a565b600a819055505b565b60008060009050600083141562000c3a576003905062000dc4565b600183141562000c4e576011905062000dc3565b600283141562000c6257600a905062000dc2565b600383141562000c7657600d905062000dc1565b600483141562000c8a576012905062000dc0565b600583141562000c9e576000905062000dbf565b600683141562000cb2576004905062000dbe565b600783141562000cc6576001905062000dbd565b600883141562000cda576006905062000dbc565b600983141562000cee576013905062000dbb565b600a83141562000d02576008905062000dba565b600b83141562000d1657600c905062000db9565b600c83141562000d2a576002905062000db8565b600d83141562000d3e57600e905062000db7565b600e83141562000d5257600b905062000db6565b600f83141562000d66576007905062000db5565b601083141562000d7a57600f905062000db4565b601183141562000d8e576009905062000db3565b601283141562000da2576005905062000db2565b601383141562000db157601090505b5b5b5b5b5b5b5b5b5b5b5b5b5b5b5b5b5b5b5b80915050919050565b62000ddf838362000e3b60201b60201c565b62000df460008484846200102160201b60201c565b62000e36576040517f08c379a000000000000000000000000000000000000000000000000000000000815260040162000e2d90620016bb565b60405180910390fd5b505050565b600073ffffffffffffffffffffffffffffffffffffffff168273ffffffffffffffffffffffffffffffffffffffff16141562000eae576040517f08c379a000000000000000000000000000000000000000000000000000000000815260040162000ea5906200172d565b60405180910390fd5b62000ebf81620011cb60201b60201c565b1562000f02576040517f08c379a000000000000000000000000000000000000000000000000000000000815260040162000ef9906200179f565b60405180910390fd5b62000f16600083836200123760201b60201c565b6001600460008473ffffffffffffffffffffffffffffffffffffffff1673ffffffffffffffffffffffffffffffffffffffff168152602001908152602001600020600082825462000f6891906200158a565b92505081905550816003600083815260200190815260200160002060006101000a81548173ffffffffffffffffffffffffffffffffffffffff021916908373ffffffffffffffffffffffffffffffffffffffff160217905550808273ffffffffffffffffffffffffffffffffffffffff16600073ffffffffffffffffffffffffffffffffffffffff167fddf252ad1be2c89b69c2b068fc378daa952ba7f163c4a11628f55a4df523b3ef60405160405180910390a45050565b60006200104f8473ffffffffffffffffffffffffffffffffffffffff166200123c60201b620013c21760201c565b15620011be578373ffffffffffffffffffffffffffffffffffffffff1663150b7a02620010816200015160201b60201c565b8786866040518563ffffffff1660e01b8152600401620010a59493929190620018aa565b6020604051808303816000875af1925050508015620010e457506040513d601f19601f82011682018060405250810190620010e1919062001960565b60015b6200116d573d806000811462001117576040519150601f19603f3d011682016040523d82523d6000602084013e6200111c565b606091505b5060008151141562001165576040517f08c379a00000000000000000000000000000000000000000000000000000000081526004016200115c90620016bb565b60405180910390fd5b805181602001fd5b63150b7a0260e01b7bffffffffffffffffffffffffffffffffffffffffffffffffffffffff1916817bffffffffffffffffffffffffffffffffffffffffffffffffffffffff191614915050620011c3565b600190505b949350505050565b60008073ffffffffffffffffffffffffffffffffffffffff166003600084815260200190815260200160002060009054906101000a900473ffffffffffffffffffffffffffffffffffffffff1673ffffffffffffffffffffffffffffffffffffffff1614159050919050565b505050565b600080823b905060008111915050919050565b8280546200125d90620019c1565b90600052602060002090601f016020900481019282620012815760008555620012cd565b82601f106200129c57805160ff1916838001178555620012cd565b82800160010185558215620012cd579182015b82811115620012cc578251825591602001919060010190620012af565b5b509050620012dc9190620012e0565b5090565b5b80821115620012fb576000816000905550600101620012e1565b5090565b7f4e487b7100000000000000000000000000000000000000000000000000000000600052601160045260246000fd5b6000819050919050565b600062001345826200132e565b91507f7fffffffffffffffffffffffffffffffffffffffffffffffffffffffffffffff8214156200137b576200137a620012ff565b5b600182019050919050565b600082825260208201905092915050565b7f4f776e61626c653a2063616c6c6572206973206e6f7420746865206f776e6572600082015250565b6000620013cf60208362001386565b9150620013dc8262001397565b602082019050919050565b600060208201905081810360008301526200140281620013c0565b9050919050565b6000819050919050565b7f4e487b7100000000000000000000000000000000000000000000000000000000600052601260045260246000fd5b60006200144f8262001409565b91506200145c8362001409565b9250826200146f576200146e62001413565b5b828206905092915050565b6000620014878262001409565b9150620014948362001409565b925082821015620014aa57620014a9620012ff565b5b828203905092915050565b6000620014c28262001409565b9150620014cf8362001409565b925082620014e257620014e162001413565b5b828204905092915050565b600060ff82169050919050565b60006200150782620014ed565b915060ff8214156200151e576200151d620012ff565b5b600182019050919050565b6000620015368262001409565b9150620015438362001409565b9250817fffffffffffffffffffffffffffffffffffffffffffffffffffffffffffffffff04831182151516156200157f576200157e620012ff565b5b828202905092915050565b6000620015978262001409565b9150620015a48362001409565b9250827fffffffffffffffffffffffffffffffffffffffffffffffffffffffffffffffff03821115620015dc57620015db620012ff565b5b828201905092915050565b620015f28162001409565b82525050565b60006080820190506200160f6000830187620015e7565b6200161e6020830186620015e7565b6200162d6040830185620015e7565b6200163c6060830184620015e7565b95945050505050565b7f4552433732313a207472616e7366657220746f206e6f6e20455243373231526560008201527f63656976657220696d706c656d656e7465720000000000000000000000000000602082015250565b6000620016a360328362001386565b9150620016b08262001645565b604082019050919050565b60006020820190508181036000830152620016d68162001694565b9050919050565b7f4552433732313a206d696e7420746f20746865207a65726f2061646472657373600082015250565b60006200171560208362001386565b91506200172282620016dd565b602082019050919050565b60006020820190508181036000830152620017488162001706565b9050919050565b7f4552433732313a20746f6b656e20616c7265616479206d696e74656400000000600082015250565b600062001787601c8362001386565b915062001794826200174f565b602082019050919050565b60006020820190508181036000830152620017ba8162001778565b9050919050565b600073ffffffffffffffffffffffffffffffffffffffff82169050919050565b6000620017ee82620017c1565b9050919050565b6200180081620017e1565b82525050565b600081519050919050565b600082825260208201905092915050565b60005b838110156200184257808201518184015260208101905062001825565b8381111562001852576000848401525b50505050565b6000601f19601f8301169050919050565b6000620018768262001806565b62001882818562001811565b93506200189481856020860162001822565b6200189f8162001858565b840191505092915050565b6000608082019050620018c16000830187620017f5565b620018d06020830186620017f5565b620018df6040830185620015e7565b8181036060830152620018f3818462001869565b905095945050505050565b600080fd5b60007fffffffff0000000000000000000000000000000000000000000000000000000082169050919050565b6200193a8162001903565b81146200194657600080fd5b50565b6000815190506200195a816200192f565b92915050565b600060208284031215620019795762001978620018fe565b5b6000620019898482850162001949565b91505092915050565b7f4e487b7100000000000000000000000000000000000000000000000000000000600052602260045260246000fd5b60006002820490506001821680620019da57607f821691505b60208210811415620019f157620019f062001992565b5b50919050565b613f688062001a076000396000f3fe6080604052600436106101145760003560e01c806370a08231116100a0578063a22cb46511610064578063a22cb46514610390578063b88d4fde146103b9578063c87b56dd146103e2578063e985e9c51461041f578063f2fde38b1461045c57610114565b806370a08231146102a9578063715018a6146102e65780638da5cb5b146102fd5780639507d39a1461032857806395d89b411461036557610114565b806323b872dd116100e757806323b872dd146101e757806342842e0e146102105780634e71d92d1461023957806355f804b3146102435780636352211e1461026c57610114565b806301ffc9a71461011957806306fdde0314610156578063081812fc14610181578063095ea7b3146101be575b600080fd5b34801561012557600080fd5b50610140600480360381019061013b9190612a4f565b610485565b60405161014d9190612a97565b60405180910390f35b34801561016257600080fd5b5061016b610567565b6040516101789190612b4b565b60405180910390f35b34801561018d57600080fd5b506101a860048036038101906101a39190612ba3565b6105f9565b6040516101b59190612c11565b60405180910390f35b3480156101ca57600080fd5b506101e560048036038101906101e09190612c58565b61067e565b005b3480156101f357600080fd5b5061020e60048036038101906102099190612c98565b610796565b005b34801561021c57600080fd5b5061023760048036038101906102329190612c98565b6107f6565b005b610241610816565b005b34801561024f57600080fd5b5061026a60048036038101906102659190612e20565b6108be565b005b34801561027857600080fd5b50610293600480360381019061028e9190612ba3565b610954565b6040516102a09190612c11565b60405180910390f35b3480156102b557600080fd5b506102d060048036038101906102cb9190612e69565b610a06565b6040516102dd9190612ea5565b60405180910390f35b3480156102f257600080fd5b506102fb610abe565b005b34801561030957600080fd5b50610312610b46565b60405161031f9190612c11565b60405180910390f35b34801561033457600080fd5b5061034f600480360381019061034a9190612ba3565b610b6f565b60405161035c9190612f8b565b60405180910390f35b34801561037157600080fd5b5061037a610f1a565b6040516103879190612b4b565b60405180910390f35b34801561039c57600080fd5b506103b760048036038101906103b29190612fd9565b610fac565b005b3480156103c557600080fd5b506103e060048036038101906103db91906130ba565b61112d565b005b3480156103ee57600080fd5b5061040960048036038101906104049190612ba3565b61118f565b6040516104169190612b4b565b60405180910390f35b34801561042b57600080fd5b506104466004803603810190610441919061313d565b611236565b6040516104539190612a97565b60405180910390f35b34801561046857600080fd5b50610483600480360381019061047e9190612e69565b6112ca565b005b60007f80ac58cd000000000000000000000000000000000000000000000000000000007bffffffffffffffffffffffffffffffffffffffffffffffffffffffff1916827bffffffffffffffffffffffffffffffffffffffffffffffffffffffff1916148061055057507f5b5e139f000000000000000000000000000000000000000000000000000000007bffffffffffffffffffffffffffffffffffffffffffffffffffffffff1916827bffffffffffffffffffffffffffffffffffffffffffffffffffffffff1916145b80610560575061055f826113d5565b5b9050919050565b606060018054610576906131ac565b80601f01602080910402602001604051908101604052809291908181526020018280546105a2906131ac565b80156105ef5780601f106105c4576101008083540402835291602001916105ef565b820191906000526020600020905b8154815290600101906020018083116105d257829003601f168201915b5050505050905090565b60006106048261143f565b610643576040517f08c379a000000000000000000000000000000000000000000000000000000000815260040161063a90613250565b60405180910390fd5b6005600083815260200190815260200160002060009054906101000a900473ffffffffffffffffffffffffffffffffffffffff169050919050565b600061068982610954565b90508073ffffffffffffffffffffffffffffffffffffffff168373ffffffffffffffffffffffffffffffffffffffff1614156106fa576040517f08c379a00000000000000000000000000000000000000000000000000000000081526004016106f1906132e2565b60405180910390fd5b8073ffffffffffffffffffffffffffffffffffffffff166107196114ab565b73ffffffffffffffffffffffffffffffffffffffff1614806107485750610747816107426114ab565b611236565b5b610787576040517f08c379a000000000000000000000000000000000000000000000000000000000815260040161077e90613374565b60405180910390fd5b61079183836114b3565b505050565b6107a76107a16114ab565b8261156c565b6107e6576040517f08c379a00000000000000000000000000000000000000000000000000000000081526004016107dd90613406565b60405180910390fd5b6107f183838361164a565b505050565b6108118383836040518060200160405280600081525061112d565b505050565b666a94d74f430000341461085f576040517f08c379a000000000000000000000000000000000000000000000000000000000815260040161085690613498565b60405180910390fd5b6108676118a6565b61086f610b46565b73ffffffffffffffffffffffffffffffffffffffff166108fc666a94d74f4300009081150290604051600060405180830381858888f193505050501580156108bb573d6000803e3d6000fd5b50565b6108c66114ab565b73ffffffffffffffffffffffffffffffffffffffff166108e4610b46565b73ffffffffffffffffffffffffffffffffffffffff161461093a576040517f08c379a000000000000000000000000000000000000000000000000000000000815260040161093190613504565b60405180910390fd5b8060089080519060200190610950929190612940565b5050565b6000806003600084815260200190815260200160002060009054906101000a900473ffffffffffffffffffffffffffffffffffffffff169050600073ffffffffffffffffffffffffffffffffffffffff168173ffffffffffffffffffffffffffffffffffffffff1614156109fd576040517f08c379a00000000000000000000000000000000000000000000000000000000081526004016109f490613596565b60405180910390fd5b80915050919050565b60008073ffffffffffffffffffffffffffffffffffffffff168273ffffffffffffffffffffffffffffffffffffffff161415610a77576040517f08c379a0000000000000000000000000000000000000000000000000000000008152600401610a6e90613628565b60405180910390fd5b600460008373ffffffffffffffffffffffffffffffffffffffff1673ffffffffffffffffffffffffffffffffffffffff168152602001908152602001600020549050919050565b610ac66114ab565b73ffffffffffffffffffffffffffffffffffffffff16610ae4610b46565b73ffffffffffffffffffffffffffffffffffffffff1614610b3a576040517f08c379a0000000000000000000000000000000000000000000000000000000008152600401610b3190613504565b60405180910390fd5b610b446000612015565b565b60008060009054906101000a900473ffffffffffffffffffffffffffffffffffffffff16905090565b6060610b7a8261143f565b610bb9576040517f08c379a0000000000000000000000000000000000000000000000000000000008152600401610bb090613694565b60405180910390fd5b600060076000848152602001908152602001600020604051806101400160405290816000820160009054906101000a900460ff1660ff1660ff1681526020016000820160019054906101000a900460ff1660ff1660ff1681526020016000820160029054906101000a900460ff1660ff1660ff1681526020016000820160039054906101000a900460ff1660ff1660ff1681526020016000820160049054906101000a900460ff1660ff1660ff1681526020016000820160059054906101000a900460ff1660ff1660ff1681526020016000820160069054906101000a900460ff1660ff1660ff1681526020016000820160079054906101000a900460ff1660ff1660ff1681526020016000820160089054906101000a900460ff1660ff1660ff1681526020016000820160099054906101000a900460ff1660ff1660ff168152505090506000600a67ffffffffffffffff811115610d1b57610d1a612cf5565b5b604051908082528060200260200182016040528015610d495781602001602082028036833780820191505090505b509050816000015181600081518110610d6557610d646136b4565b5b602002602001019060ff16908160ff1681525050816020015181600181518110610d9257610d916136b4565b5b602002602001019060ff16908160ff1681525050816040015181600281518110610dbf57610dbe6136b4565b5b602002602001019060ff16908160ff1681525050816060015181600381518110610dec57610deb6136b4565b5b602002602001019060ff16908160ff1681525050816080015181600481518110610e1957610e186136b4565b5b602002602001019060ff16908160ff16815250508160a0015181600581518110610e4657610e456136b4565b5b602002602001019060ff16908160ff16815250508160c0015181600681518110610e7357610e726136b4565b5b602002602001019060ff16908160ff16815250508160e0015181600781518110610ea057610e9f6136b4565b5b602002602001019060ff16908160ff168152505081610100015181600881518110610ece57610ecd6136b4565b5b602002602001019060ff16908160ff168152505081610120015181600981518110610efc57610efb6136b4565b5b602002602001019060ff16908160ff16815250508092505050919050565b606060028054610f29906131ac565b80601f0160208091040260200160405190810160405280929190818152602001828054610f55906131ac565b8015610fa25780601f10610f7757610100808354040283529160200191610fa2565b820191906000526020600020905b815481529060010190602001808311610f8557829003601f168201915b5050505050905090565b610fb46114ab565b73ffffffffffffffffffffffffffffffffffffffff168273ffffffffffffffffffffffffffffffffffffffff161415611022576040517f08c379a00000000000000000000000000000000000000000000000000000000081526004016110199061372f565b60405180910390fd5b806006600061102f6114ab565b73ffffffffffffffffffffffffffffffffffffffff1673ffffffffffffffffffffffffffffffffffffffff16815260200190815260200160002060008473ffffffffffffffffffffffffffffffffffffffff1673ffffffffffffffffffffffffffffffffffffffff16815260200190815260200160002060006101000a81548160ff0219169083151502179055508173ffffffffffffffffffffffffffffffffffffffff166110dc6114ab565b73ffffffffffffffffffffffffffffffffffffffff167f17307eab39ab6107e8899845ad3d59bd9653f200f220920489ca2b5937696c31836040516111219190612a97565b60405180910390a35050565b61113e6111386114ab565b8361156c565b61117d576040517f08c379a000000000000000000000000000000000000000000000000000000000815260040161117490613406565b60405180910390fd5b611189848484846120d9565b50505050565b606061119a8261143f565b6111d9576040517f08c379a00000000000000000000000000000000000000000000000000000000081526004016111d0906137c1565b60405180910390fd5b60006111e3612135565b90506000815111611203576040518060200160405280600081525061122e565b8061120d846121c7565b60405160200161121e92919061381d565b6040516020818303038152906040525b915050919050565b6000600660008473ffffffffffffffffffffffffffffffffffffffff1673ffffffffffffffffffffffffffffffffffffffff16815260200190815260200160002060008373ffffffffffffffffffffffffffffffffffffffff1673ffffffffffffffffffffffffffffffffffffffff16815260200190815260200160002060009054906101000a900460ff16905092915050565b6112d26114ab565b73ffffffffffffffffffffffffffffffffffffffff166112f0610b46565b73ffffffffffffffffffffffffffffffffffffffff1614611346576040517f08c379a000000000000000000000000000000000000000000000000000000000815260040161133d90613504565b60405180910390fd5b600073ffffffffffffffffffffffffffffffffffffffff168173ffffffffffffffffffffffffffffffffffffffff1614156113b6576040517f08c379a00000000000000000000000000000000000000000000000000000000081526004016113ad906138b3565b60405180910390fd5b6113bf81612015565b50565b600080823b905060008111915050919050565b60007f01ffc9a7000000000000000000000000000000000000000000000000000000007bffffffffffffffffffffffffffffffffffffffffffffffffffffffff1916827bffffffffffffffffffffffffffffffffffffffffffffffffffffffff1916149050919050565b60008073ffffffffffffffffffffffffffffffffffffffff166003600084815260200190815260200160002060009054906101000a900473ffffffffffffffffffffffffffffffffffffffff1673ffffffffffffffffffffffffffffffffffffffff1614159050919050565b600033905090565b816005600083815260200190815260200160002060006101000a81548173ffffffffffffffffffffffffffffffffffffffff021916908373ffffffffffffffffffffffffffffffffffffffff160217905550808273ffffffffffffffffffffffffffffffffffffffff1661152683610954565b73ffffffffffffffffffffffffffffffffffffffff167f8c5be1e5ebec7d5bd14f71427d1e84f3dd0314c0f7b2291e5b200ac8c7c3b92560405160405180910390a45050565b60006115778261143f565b6115b6576040517f08c379a00000000000000000000000000000000000000000000000000000000081526004016115ad90613945565b60405180910390fd5b60006115c183610954565b90508073ffffffffffffffffffffffffffffffffffffffff168473ffffffffffffffffffffffffffffffffffffffff16148061163057508373ffffffffffffffffffffffffffffffffffffffff16611618846105f9565b73ffffffffffffffffffffffffffffffffffffffff16145b8061164157506116408185611236565b5b91505092915050565b8273ffffffffffffffffffffffffffffffffffffffff1661166a82610954565b73ffffffffffffffffffffffffffffffffffffffff16146116c0576040517f08c379a00000000000000000000000000000000000000000000000000000000081526004016116b7906139d7565b60405180910390fd5b600073ffffffffffffffffffffffffffffffffffffffff168273ffffffffffffffffffffffffffffffffffffffff161415611730576040517f08c379a000000000000000000000000000000000000000000000000000000000815260040161172790613a69565b60405180910390fd5b61173b838383612328565b6117466000826114b3565b6001600460008573ffffffffffffffffffffffffffffffffffffffff1673ffffffffffffffffffffffffffffffffffffffff16815260200190815260200160002060008282546117969190613ab8565b925050819055506001600460008473ffffffffffffffffffffffffffffffffffffffff1673ffffffffffffffffffffffffffffffffffffffff16815260200190815260200160002060008282546117ed9190613aec565b92505081905550816003600083815260200190815260200160002060006101000a81548173ffffffffffffffffffffffffffffffffffffffff021916908373ffffffffffffffffffffffffffffffffffffffff160217905550808273ffffffffffffffffffffffffffffffffffffffff168473ffffffffffffffffffffffffffffffffffffffff167fddf252ad1be2c89b69c2b068fc378daa952ba7f163c4a11628f55a4df523b3ef60405160405180910390a4505050565b60006118b061232d565b90506000819050600080600080600080600090506000806000806000600a8c6118d99190613b71565b9450600a8560ff168d6118ec9190613ab8565b6118f69190613ba2565b9b50600a8c6119059190613b71565b9350600a8460ff168d6119189190613ab8565b6119229190613ba2565b9b50600a8c6119319190613b71565b9250600a8360ff168d6119449190613ab8565b61194e9190613ba2565b9b50600a8c61195d9190613b71565b9150600a8260ff168d6119709190613ab8565b61197a9190613ba2565b9b5060008560ff16111561199757858061199390613bd3565b9650505b60008460ff1611156119b25785806119ae90613bd3565b9650505b60008360ff1611156119cd5785806119c990613bd3565b9650505b60008260ff1611156119e85785806119e490613bd3565b9650505b620f42406119f68e8d61236a565b611a009190613b71565b9a506203d0908b1015611a165760009950611a45565b6207a1208b1015611a2a5760019950611a44565b620b71b08b1015611a3e5760029950611a43565b600399505b5b5b620f4240611a538e8d61236a565b611a5d9190613b71565b9a50620186a08b1015611a735760009850611b20565b62030d408b1015611a875760019850611b1f565b620493e08b1015611a9b5760029850611b1e565b62061a808b1015611aaf5760039850611b1d565b6207a1208b1015611ac35760049850611b1c565b620927c08b1015611ad75760059850611b1b565b620aae608b1015611aeb5760069850611b1a565b620c35008b1015611aff5760079850611b19565b620dbba08b1015611b135760089850611b18565b600998505b5b5b5b5b5b5b5b5b620f4240611b2e8e8d61236a565b611b389190613b71565b9a50619c408b1015611b4d5760009750611d35565b620138808b1015611b615760019750611d34565b6201d4c08b1015611b755760029750611d33565b620271008b1015611b895760039750611d32565b62030d408b1015611b9d5760049750611d31565b6203a9808b1015611bb15760059750611d30565b620445c08b1015611bc55760069750611d2f565b6204e2008b1015611bd95760079750611d2e565b62057e408b1015611bed5760089750611d2d565b62061a808b1015611c015760099750611d2c565b6206b6c08b1015611c1557600a9750611d2b565b620753008b1015611c2957600b9750611d2a565b6207ef408b1015611c3d57600c9750611d29565b62088b808b1015611c5157600d9750611d28565b620927c08b1015611c6557600e9750611d27565b6209c4008b1015611c7957600f9750611d26565b620a60408b1015611c8d5760109750611d25565b620afc808b1015611ca15760119750611d24565b620b98c08b1015611cb55760129750611d23565b620c35008b1015611cc95760139750611d22565b620cd1408b1015611cdd5760149750611d21565b620d6d808b1015611cf15760159750611d20565b620e09c08b1015611d055760169750611d1f565b620ea6008b1015611d195760179750611d1e565b601897505b5b5b5b5b5b5b5b5b5b5b5b5b5b5b5b5b5b5b5b5b5b5b5b620f4240611d438e8d61236a565b611d4d9190613b71565b9a506207a1208b1015611d635760009650611d68565b600196505b620f4240611d768e8d61236a565b611d809190613b71565b9a506201b2078b1015611d965760009050611e2e565b6203640e8b1015611daa5760019050611e2d565b620516158b1015611dbe5760029050611e2c565b6206c81c8b1015611dd25760039050611e2b565b62087a238b1015611de65760049050611e2a565b620a2c2a8b1015611dfa5760059050611e29565b620bde318b1015611e0e5760069050611e28565b620d90388b1015611e225760079050611e27565b600890505b5b5b5b5b5b5b5b6040518061014001604052808b60ff1681526020018a60ff1681526020018960ff1681526020018860ff1681526020018760ff1681526020018660ff1681526020018560ff1681526020018460ff1681526020018360ff1681526020018260ff16815250600760008f815260200190815260200160002060008201518160000160006101000a81548160ff021916908360ff16021790555060208201518160000160016101000a81548160ff021916908360ff16021790555060408201518160000160026101000a81548160ff021916908360ff16021790555060608201518160000160036101000a81548160ff021916908360ff16021790555060808201518160000160046101000a81548160ff021916908360ff16021790555060a08201518160000160056101000a81548160ff021916908360ff16021790555060c08201518160000160066101000a81548160ff021916908360ff16021790555060e08201518160000160076101000a81548160ff021916908360ff1602179055506101008201518160000160086101000a81548160ff021916908360ff1602179055506101208201518160000160096101000a81548160ff021916908360ff160217905550905050611ffe338e6123a4565b6120066123c2565b50505050505050505050505050565b60008060009054906101000a900473ffffffffffffffffffffffffffffffffffffffff169050816000806101000a81548173ffffffffffffffffffffffffffffffffffffffff021916908373ffffffffffffffffffffffffffffffffffffffff1602179055508173ffffffffffffffffffffffffffffffffffffffff168173ffffffffffffffffffffffffffffffffffffffff167f8be0079c531659141344cd1fd0a4f28419497f9722a3daafe3b4186f6b6457e060405160405180910390a35050565b6120e484848461164a565b6120f084848484612408565b61212f576040517f08c379a000000000000000000000000000000000000000000000000000000000815260040161212690613c6f565b60405180910390fd5b50505050565b606060088054612144906131ac565b80601f0160208091040260200160405190810160405280929190818152602001828054612170906131ac565b80156121bd5780601f10612192576101008083540402835291602001916121bd565b820191906000526020600020905b8154815290600101906020018083116121a057829003601f168201915b5050505050905090565b6060600082141561220f576040518060400160405280600181526020017f30000000000000000000000000000000000000000000000000000000000000008152509050612323565b600082905060005b6000821461224157808061222a90613c8f565b915050600a8261223a9190613ba2565b9150612217565b60008167ffffffffffffffff81111561225d5761225c612cf5565b5b6040519080825280601f01601f19166020018201604052801561228f5781602001600182028036833780820191505090505b5090505b6000851461231c576001826122a89190613ab8565b9150600a856122b79190613b71565b60306122c39190613aec565b60f81b8183815181106122d9576122d86136b4565b5b60200101907effffffffffffffffffffffffffffffffffffffffffffffffffffffffffffff1916908160001a905350600a856123159190613ba2565b9450612293565b8093505050505b919050565b505050565b600080600b549050600061234082612590565b90506000600a54600d54836123559190613cd8565b61235f9190613aec565b905080935050505090565b6000424484846040516020016123839493929190613d32565b6040516020818303038152906040528051906020012060001c905092915050565b6123be828260405180602001604052806000815250612717565b5050565b600c54600b5410156123e8576001600b546123dd9190613aec565b600b81905550612406565b6000600b819055506001600a546123ff9190613aec565b600a819055505b565b60006124298473ffffffffffffffffffffffffffffffffffffffff166113c2565b15612583578373ffffffffffffffffffffffffffffffffffffffff1663150b7a026124526114ab565b8786866040518563ffffffff1660e01b81526004016124749493929190613dcc565b6020604051808303816000875af19250505080156124b057506040513d601f19601f820116820180604052508101906124ad9190613e2d565b60015b612533573d80600081146124e0576040519150601f19603f3d011682016040523d82523d6000602084013e6124e5565b606091505b5060008151141561252b576040517f08c379a000000000000000000000000000000000000000000000000000000000815260040161252290613c6f565b60405180910390fd5b805181602001fd5b63150b7a0260e01b7bffffffffffffffffffffffffffffffffffffffffffffffffffffffff1916817bffffffffffffffffffffffffffffffffffffffffffffffffffffffff191614915050612588565b600190505b949350505050565b6000806000905060008314156125a9576003905061270e565b60018314156125bb576011905061270d565b60028314156125cd57600a905061270c565b60038314156125df57600d905061270b565b60048314156125f1576012905061270a565b60058314156126035760009050612709565b60068314156126155760049050612708565b60078314156126275760019050612707565b60088314156126395760069050612706565b600983141561264b5760139050612705565b600a83141561265d5760089050612704565b600b83141561266f57600c9050612703565b600c8314156126815760029050612702565b600d83141561269357600e9050612701565b600e8314156126a557600b9050612700565b600f8314156126b757600790506126ff565b60108314156126c957600f90506126fe565b60118314156126db57600990506126fd565b60128314156126ed57600590506126fc565b60138314156126fb57601090505b5b5b5b5b5b5b5b5b5b5b5b5b5b5b5b5b5b5b5b80915050919050565b6127218383612772565b61272e6000848484612408565b61276d576040517f08c379a000000000000000000000000000000000000000000000000000000000815260040161276490613c6f565b60405180910390fd5b505050565b600073ffffffffffffffffffffffffffffffffffffffff168273ffffffffffffffffffffffffffffffffffffffff1614156127e2576040517f08c379a00000000000000000000000000000000000000000000000000000000081526004016127d990613ea6565b60405180910390fd5b6127eb8161143f565b1561282b576040517f08c379a000000000000000000000000000000000000000000000000000000000815260040161282290613f12565b60405180910390fd5b61283760008383612328565b6001600460008473ffffffffffffffffffffffffffffffffffffffff1673ffffffffffffffffffffffffffffffffffffffff16815260200190815260200160002060008282546128879190613aec565b92505081905550816003600083815260200190815260200160002060006101000a81548173ffffffffffffffffffffffffffffffffffffffff021916908373ffffffffffffffffffffffffffffffffffffffff160217905550808273ffffffffffffffffffffffffffffffffffffffff16600073ffffffffffffffffffffffffffffffffffffffff167fddf252ad1be2c89b69c2b068fc378daa952ba7f163c4a11628f55a4df523b3ef60405160405180910390a45050565b82805461294c906131ac565b90600052602060002090601f01602090048101928261296e57600085556129b5565b82601f1061298757805160ff19168380011785556129b5565b828001600101855582156129b5579182015b828111156129b4578251825591602001919060010190612999565b5b5090506129c291906129c6565b5090565b5b808211156129df5760008160009055506001016129c7565b5090565b6000604051905090565b600080fd5b600080fd5b60007fffffffff0000000000000000000000000000000000000000000000000000000082169050919050565b612a2c816129f7565b8114612a3757600080fd5b50565b600081359050612a4981612a23565b92915050565b600060208284031215612a6557612a646129ed565b5b6000612a7384828501612a3a565b91505092915050565b60008115159050919050565b612a9181612a7c565b82525050565b6000602082019050612aac6000830184612a88565b92915050565b600081519050919050565b600082825260208201905092915050565b60005b83811015612aec578082015181840152602081019050612ad1565b83811115612afb576000848401525b50505050565b6000601f19601f8301169050919050565b6000612b1d82612ab2565b612b278185612abd565b9350612b37818560208601612ace565b612b4081612b01565b840191505092915050565b60006020820190508181036000830152612b658184612b12565b905092915050565b6000819050919050565b612b8081612b6d565b8114612b8b57600080fd5b50565b600081359050612b9d81612b77565b92915050565b600060208284031215612bb957612bb86129ed565b5b6000612bc784828501612b8e565b91505092915050565b600073ffffffffffffffffffffffffffffffffffffffff82169050919050565b6000612bfb82612bd0565b9050919050565b612c0b81612bf0565b82525050565b6000602082019050612c266000830184612c02565b92915050565b612c3581612bf0565b8114612c4057600080fd5b50565b600081359050612c5281612c2c565b92915050565b60008060408385031215612c6f57612c6e6129ed565b5b6000612c7d85828601612c43565b9250506020612c8e85828601612b8e565b9150509250929050565b600080600060608486031215612cb157612cb06129ed565b5b6000612cbf86828701612c43565b9350506020612cd086828701612c43565b9250506040612ce186828701612b8e565b9150509250925092565b600080fd5b600080fd5b7f4e487b7100000000000000000000000000000000000000000000000000000000600052604160045260246000fd5b612d2d82612b01565b810181811067ffffffffffffffff82111715612d4c57612d4b612cf5565b5b80604052505050565b6000612d5f6129e3565b9050612d6b8282612d24565b919050565b600067ffffffffffffffff821115612d8b57612d8a612cf5565b5b612d9482612b01565b9050602081019050919050565b82818337600083830152505050565b6000612dc3612dbe84612d70565b612d55565b905082815260208101848484011115612ddf57612dde612cf0565b5b612dea848285612da1565b509392505050565b600082601f830112612e0757612e06612ceb565b5b8135612e17848260208601612db0565b91505092915050565b600060208284031215612e3657612e356129ed565b5b600082013567ffffffffffffffff811115612e5457612e536129f2565b5b612e6084828501612df2565b91505092915050565b600060208284031215612e7f57612e7e6129ed565b5b6000612e8d84828501612c43565b91505092915050565b612e9f81612b6d565b82525050565b6000602082019050612eba6000830184612e96565b92915050565b600081519050919050565b600082825260208201905092915050565b6000819050602082019050919050565b600060ff82169050919050565b612f0281612eec565b82525050565b6000612f148383612ef9565b60208301905092915050565b6000602082019050919050565b6000612f3882612ec0565b612f428185612ecb565b9350612f4d83612edc565b8060005b83811015612f7e578151612f658882612f08565b9750612f7083612f20565b925050600181019050612f51565b5085935050505092915050565b60006020820190508181036000830152612fa58184612f2d565b905092915050565b612fb681612a7c565b8114612fc157600080fd5b50565b600081359050612fd381612fad565b92915050565b60008060408385031215612ff057612fef6129ed565b5b6000612ffe85828601612c43565b925050602061300f85828601612fc4565b9150509250929050565b600067ffffffffffffffff82111561303457613033612cf5565b5b61303d82612b01565b9050602081019050919050565b600061305d61305884613019565b612d55565b90508281526020810184848401111561307957613078612cf0565b5b613084848285612da1565b509392505050565b600082601f8301126130a1576130a0612ceb565b5b81356130b184826020860161304a565b91505092915050565b600080600080608085870312156130d4576130d36129ed565b5b60006130e287828801612c43565b94505060206130f387828801612c43565b935050604061310487828801612b8e565b925050606085013567ffffffffffffffff811115613125576131246129f2565b5b6131318782880161308c565b91505092959194509250565b60008060408385031215613154576131536129ed565b5b600061316285828601612c43565b925050602061317385828601612c43565b9150509250929050565b7f4e487b7100000000000000000000000000000000000000000000000000000000600052602260045260246000fd5b600060028204905060018216806131c457607f821691505b602082108114156131d8576131d761317d565b5b50919050565b7f4552433732313a20617070726f76656420717565727920666f72206e6f6e657860008201527f697374656e7420746f6b656e0000000000000000000000000000000000000000602082015250565b600061323a602c83612abd565b9150613245826131de565b604082019050919050565b600060208201905081810360008301526132698161322d565b9050919050565b7f4552433732313a20617070726f76616c20746f2063757272656e74206f776e6560008201527f7200000000000000000000000000000000000000000000000000000000000000602082015250565b60006132cc602183612abd565b91506132d782613270565b604082019050919050565b600060208201905081810360008301526132fb816132bf565b9050919050565b7f4552433732313a20617070726f76652063616c6c6572206973206e6f74206f7760008201527f6e6572206e6f7220617070726f76656420666f7220616c6c0000000000000000602082015250565b600061335e603883612abd565b915061336982613302565b604082019050919050565b6000602082019050818103600083015261338d81613351565b9050919050565b7f4552433732313a207472616e736665722063616c6c6572206973206e6f74206f60008201527f776e6572206e6f7220617070726f766564000000000000000000000000000000602082015250565b60006133f0603183612abd565b91506133fb82613394565b604082019050919050565b6000602082019050818103600083015261341f816133e3565b9050919050565b7f636c61696d696e672061206c617661206c616d7020636f73747320333020666960008201527f6e6e657900000000000000000000000000000000000000000000000000000000602082015250565b6000613482602483612abd565b915061348d82613426565b604082019050919050565b600060208201905081810360008301526134b181613475565b9050919050565b7f4f776e61626c653a2063616c6c6572206973206e6f7420746865206f776e6572600082015250565b60006134ee602083612abd565b91506134f9826134b8565b602082019050919050565b6000602082019050818103600083015261351d816134e1565b9050919050565b7f4552433732313a206f776e657220717565727920666f72206e6f6e657869737460008201527f656e7420746f6b656e0000000000000000000000000000000000000000000000602082015250565b6000613580602983612abd565b915061358b82613524565b604082019050919050565b600060208201905081810360008301526135af81613573565b9050919050565b7f4552433732313a2062616c616e636520717565727920666f7220746865207a6560008201527f726f206164647265737300000000000000000000000000000000000000000000602082015250565b6000613612602a83612abd565b915061361d826135b6565b604082019050919050565b6000602082019050818103600083015261364181613605565b9050919050565b7f746f6b656e206e6f74206d696e74656400000000000000000000000000000000600082015250565b600061367e601083612abd565b915061368982613648565b602082019050919050565b600060208201905081810360008301526136ad81613671565b9050919050565b7f4e487b7100000000000000000000000000000000000000000000000000000000600052603260045260246000fd5b7f4552433732313a20617070726f766520746f2063616c6c657200000000000000600082015250565b6000613719601983612abd565b9150613724826136e3565b602082019050919050565b600060208201905081810360008301526137488161370c565b9050919050565b7f4552433732314d657461646174613a2055524920717565727920666f72206e6f60008201527f6e6578697374656e7420746f6b656e0000000000000000000000000000000000602082015250565b60006137ab602f83612abd565b91506137b68261374f565b604082019050919050565b600060208201905081810360008301526137da8161379e565b9050919050565b600081905092915050565b60006137f782612ab2565b61380181856137e1565b9350613811818560208601612ace565b80840191505092915050565b600061382982856137ec565b915061383582846137ec565b91508190509392505050565b7f4f776e61626c653a206e6577206f776e657220697320746865207a65726f206160008201527f6464726573730000000000000000000000000000000000000000000000000000602082015250565b600061389d602683612abd565b91506138a882613841565b604082019050919050565b600060208201905081810360008301526138cc81613890565b9050919050565b7f4552433732313a206f70657261746f7220717565727920666f72206e6f6e657860008201527f697374656e7420746f6b656e0000000000000000000000000000000000000000602082015250565b600061392f602c83612abd565b915061393a826138d3565b604082019050919050565b6000602082019050818103600083015261395e81613922565b9050919050565b7f4552433732313a207472616e73666572206f6620746f6b656e2074686174206960008201527f73206e6f74206f776e0000000000000000000000000000000000000000000000602082015250565b60006139c1602983612abd565b91506139cc82613965565b604082019050919050565b600060208201905081810360008301526139f0816139b4565b9050919050565b7f4552433732313a207472616e7366657220746f20746865207a65726f2061646460008201527f7265737300000000000000000000000000000000000000000000000000000000602082015250565b6000613a53602483612abd565b9150613a5e826139f7565b604082019050919050565b60006020820190508181036000830152613a8281613a46565b9050919050565b7f4e487b7100000000000000000000000000000000000000000000000000000000600052601160045260246000fd5b6000613ac382612b6d565b9150613ace83612b6d565b925082821015613ae157613ae0613a89565b5b828203905092915050565b6000613af782612b6d565b9150613b0283612b6d565b9250827fffffffffffffffffffffffffffffffffffffffffffffffffffffffffffffffff03821115613b3757613b36613a89565b5b828201905092915050565b7f4e487b7100000000000000000000000000000000000000000000000000000000600052601260045260246000fd5b6000613b7c82612b6d565b9150613b8783612b6d565b925082613b9757613b96613b42565b5b828206905092915050565b6000613bad82612b6d565b9150613bb883612b6d565b925082613bc857613bc7613b42565b5b828204905092915050565b6000613bde82612eec565b915060ff821415613bf257613bf1613a89565b5b600182019050919050565b7f4552433732313a207472616e7366657220746f206e6f6e20455243373231526560008201527f63656976657220696d706c656d656e7465720000000000000000000000000000602082015250565b6000613c59603283612abd565b9150613c6482613bfd565b604082019050919050565b60006020820190508181036000830152613c8881613c4c565b9050919050565b6000613c9a82612b6d565b91507fffffffffffffffffffffffffffffffffffffffffffffffffffffffffffffffff821415613ccd57613ccc613a89565b5b600182019050919050565b6000613ce382612b6d565b9150613cee83612b6d565b9250817fffffffffffffffffffffffffffffffffffffffffffffffffffffffffffffffff0483118215151615613d2757613d26613a89565b5b828202905092915050565b6000608082019050613d476000830187612e96565b613d546020830186612e96565b613d616040830185612e96565b613d6e6060830184612e96565b95945050505050565b600081519050919050565b600082825260208201905092915050565b6000613d9e82613d77565b613da88185613d82565b9350613db8818560208601612ace565b613dc181612b01565b840191505092915050565b6000608082019050613de16000830187612c02565b613dee6020830186612c02565b613dfb6040830185612e96565b8181036060830152613e0d8184613d93565b905095945050505050565b600081519050613e2781612a23565b92915050565b600060208284031215613e4357613e426129ed565b5b6000613e5184828501613e18565b91505092915050565b7f4552433732313a206d696e7420746f20746865207a65726f2061646472657373600082015250565b6000613e90602083612abd565b9150613e9b82613e5a565b602082019050919050565b60006020820190508181036000830152613ebf81613e83565b9050919050565b7f4552433732313a20746f6b656e20616c7265616479206d696e74656400000000600082015250565b6000613efc601c83612abd565b9150613f0782613ec6565b602082019050919050565b60006020820190508181036000830152613f2b81613eef565b905091905056fea2646970667358221220757ebfcf710aeca16910446981fe70be832dd8692035e32aec5a8bd34fabfd6464736f6c634300080a0033687474703a2f2f7777772e7375706572646f7276696c2e746563682f746f6b656e2f",
  "immutableReferences": {},
  "source": "// SPDX-License-Identifier: MIT\npragma solidity >=0.4.22 <0.9.0;\n\nimport \"@openzeppelin/contracts/access/Ownable.sol\";\nimport \"@openzeppelin/contracts/token/ERC721/ERC721.sol\";\n\ncontract LavaLamp is Ownable, ERC721 {\n  struct Metadata {\n    uint8 attribute;\n    uint8 background; // 10 - (black, blueberry, light blueberry, light raspberry, light strawberry, raspberry, sky, purple, stars, strawberry)\n    uint8 base; // 25 - (standard, alien, rocket, bong, pumpkin) (types og, gold, diamond, ruby, emerald)\n    uint8 glass; // 2 (white or black) - (carbon)\n\n    // 10 (None, red, green, yellow, blue, purple, light blue, orange, white, pink)\n    uint8 lava_count;\n    uint8 lava_1;\n    uint8 lava_2;\n    uint8 lava_3;\n    uint8 lava_4;\n\n    uint8 overlay; //9 (none, bitcoin, ethereum, lavaception leaves, peace, smoke, swirls, yinyang)\n  }\n  mapping(uint256 => Metadata) id_to_lavalamp;\n\n  string private _currentBaseURI;\n\n  uint256 maxLamps = 7980;\n  uint256 lampCount = 0;\n  uint256 currentLampSet = 0;\n  uint256 numOfLampBlocks = 19;\n  uint256 lampSetSize = 399;\n\n  constructor() ERC721(\"LavaLamp\", \"LAVALAMP\") {\n    setBaseURI(\"http://www.superdorvil.tech/token/\");\n\n    for (int i = 0; i < 20; i++){\n      mint();\n    }\n  }\n\n  function setBaseURI(string memory baseURI) public onlyOwner {\n    _currentBaseURI = baseURI;\n  }\n\n  function _baseURI() internal view virtual override returns (string memory) {\n    return _currentBaseURI;\n  }\n\n  function mint () internal {\n    uint256 tokenId = getId();\n    uint256 lava_index = tokenId;\n    uint256 r;\n\n    uint8 attribute;\n    uint8 background;\n    uint8 base;\n    uint8 glass;\n    uint8 lava_count = 0;\n    uint8 lava_1;\n    uint8 lava_2;\n    uint8 lava_3;\n    uint8 lava_4;\n    uint8 overlay;\n\n    lava_1 = uint8(lava_index % 10);\n    lava_index = (lava_index - lava_1) / 10;\n    lava_2 = uint8(lava_index % 10);\n    lava_index = (lava_index - lava_2) / 10;\n    lava_3 = uint8(lava_index % 10);\n    lava_index = (lava_index - lava_3) / 10;\n    lava_4 = uint8(lava_index % 10);\n    lava_index = (lava_index - lava_4) / 10;\n\n    if (lava_1 > 0) {\n      lava_count++;\n    }\n    if (lava_2 > 0) {\n      lava_count++;\n    }\n    if (lava_3 > 0) {\n      lava_count++;\n    }\n    if (lava_4 > 0) {\n      lava_count++;\n    }\n\n    // attribute\n    r = pseudoRNG(tokenId, r) % 1000000;\n    if (r < 250000) {\n      attribute = 0;\n    } else if (r < 500000) {\n      attribute = 1;\n    } else if (r < 750000) {\n      attribute = 2;\n    } else {\n      attribute = 3;\n    }\n\n    // background\n    r = pseudoRNG(tokenId, r) % 1000000;\n    if (r < 100000) {\n      background = 0;\n    } else if (r < 200000) {\n      background = 1;\n    } else if (r < 300000) {\n      background = 2;\n    } else if (r < 400000) {\n      background = 3;\n    } else if (r < 500000) {\n      background = 4;\n    } else if (r < 600000) {\n      background = 5;\n    } else if (r < 700000) {\n      background = 6;\n    } else if (r < 800000) {\n      background = 7;\n    } else if (r < 900000) {\n      background = 8;\n    } else {\n      background = 9;\n    }\n\n    // bases\n    r = pseudoRNG(tokenId, r) % 1000000;\n    if (r < 40000) {\n      base = 0;\n    } else if (r < 80000) {\n      base = 1;\n    } else if (r < 120000) {\n      base = 2;\n    } else if (r < 160000) {\n      base = 3;\n    } else if (r < 200000) {\n      base = 4;\n    } else if (r < 240000) {\n      base = 5;\n    } else if (r < 280000) {\n      base = 6;\n    } else if (r < 320000) {\n      base = 7;\n    } else if (r < 360000) {\n      base = 8;\n    } else if (r < 400000) {\n      base = 9;\n    } else if (r < 440000) {\n      base = 10;\n    } else if (r < 480000) {\n      base = 11;\n    } else if (r < 520000) {\n      base = 12;\n    } else if (r < 560000) {\n      base = 13;\n    } else if (r < 600000) {\n      base = 14;\n    } else if (r < 640000) {\n      base = 15;\n    } else if (r < 680000) {\n      base = 16;\n    } else if (r < 720000) {\n      base = 17;\n    } else if (r < 760000) {\n      base = 18;\n    } else if (r < 800000) {\n      base = 19;\n    } else if (r < 840000) {\n      base = 20;\n    } else if (r < 880000) {\n      base = 21;\n    } else if (r < 920000) {\n      base = 22;\n    } else if (r < 960000) {\n      base = 23;\n    } else {\n      base = 24;\n    }\n\n    // glass\n    r = pseudoRNG(tokenId, r) % 1000000;\n    if (r < 500000) {\n        glass = 0;\n    } else {\n        glass = 1;\n    }\n\n    // overlay\n    r = pseudoRNG(tokenId, r) % 1000000;\n    if (r < 111111) {\n      overlay = 0;\n    } else if (r < 222222) {\n      overlay = 1;\n    } else if (r < 333333) {\n      overlay = 2;\n    } else if (r < 444444) {\n      overlay = 3;\n    } else if (r < 555555) {\n      overlay = 4;\n    } else if (r < 666666) {\n      overlay = 5;\n    } else if (r < 777777) {\n      overlay = 6;\n    } else if (r < 888888) {\n      overlay = 7;\n    } else {\n      overlay = 8;\n    }\n\n    id_to_lavalamp[tokenId] =\n      Metadata(\n        attribute,\n        background,\n        base,\n        glass,\n        lava_count,\n        lava_1,\n        lava_2,\n        lava_3,\n        lava_4,\n        overlay\n      );\n\n    _safeMint(msg.sender, tokenId);\n\n    incrementId();\n  }\n\n  function claim() external payable {\n    require(msg.value == 0.03 ether, \"claiming a lava lamp costs 30 finney\");\n\n    mint();\n\n    payable(owner()).transfer(0.03 ether);\n  }\n\n  function getId() internal view returns(uint256) {\n    uint256 j = currentLampSet;\n    uint256 randomLampBlock = randomizeLampBlock(j);\n    uint256 id = randomLampBlock * lampSetSize + lampCount;\n\n    return id;\n  }\n\n  function incrementId() internal {\n    if (currentLampSet < numOfLampBlocks) {\n      currentLampSet = currentLampSet + 1;\n    } else {\n      currentLampSet = 0;\n      lampCount = lampCount + 1;\n    }\n  }\n\n  function randomizeLampBlock(uint256 lampBlock) internal pure returns(uint256) {\n    uint256 randomLampBlock = 0;\n\n    if (lampBlock == 0) {\n      randomLampBlock = 3;\n    } else if (lampBlock == 1) {\n      randomLampBlock = 17;\n    } else if (lampBlock == 2) {\n      randomLampBlock = 10;\n    } else if (lampBlock == 3) {\n      randomLampBlock = 13;\n    } else if (lampBlock == 4) {\n      randomLampBlock = 18;\n    } else if (lampBlock == 5) {\n      randomLampBlock = 0;\n    } else if (lampBlock == 6) {\n      randomLampBlock = 4;\n    } else if (lampBlock == 7) {\n      randomLampBlock = 1;\n    } else if (lampBlock == 8) {\n      randomLampBlock = 6;\n    } else if (lampBlock == 9) {\n      randomLampBlock = 19;\n    } else if (lampBlock == 10) {\n      randomLampBlock = 8;\n    } else if (lampBlock == 11) {\n      randomLampBlock = 12;\n    } else if (lampBlock == 12) {\n      randomLampBlock = 2;\n    } else if (lampBlock == 13) {\n      randomLampBlock = 14;\n    } else if (lampBlock == 14) {\n      randomLampBlock = 11;\n    } else if (lampBlock == 15) {\n      randomLampBlock = 7;\n    } else if (lampBlock == 16) {\n      randomLampBlock = 15;\n    } else if (lampBlock == 17) {\n      randomLampBlock = 9;\n    } else if (lampBlock == 18) {\n      randomLampBlock = 5;\n    } else if (lampBlock == 19) {\n      randomLampBlock = 16;\n    }\n\n    return randomLampBlock;\n  }\n\n  function get(uint256 tokenId) external view returns(uint8[] memory) {\n    require(_exists(tokenId), \"token not minted\");\n    Metadata memory lavalamp = id_to_lavalamp[tokenId];\n    uint8[] memory meta = new uint8[](10);\n\n    meta[0] = lavalamp.attribute;\n    meta[1] = lavalamp.background;\n    meta[2] = lavalamp.base;\n    meta[3] = lavalamp.glass;\n    meta[4] = lavalamp.lava_count;\n    meta[5] = lavalamp.lava_1;\n    meta[6] = lavalamp.lava_2;\n    meta[7] = lavalamp.lava_3;\n    meta[8] = lavalamp.lava_4;\n    meta[9] = lavalamp.overlay;\n\n    return meta;\n  }\n\n  /*function getAllTokens() public view returns (Metadata[] memory) {\n    uint256 lastestId = _tokenIds.current();\n    uint256 counter = 0;\n\n    Metadata[] memory meta = new Metadata[](lastestId);\n\n    for (uint256 i = 0; i < lastestId; i++) {\n      if (_exists(counter)) {\n        Metadata memory m = id_to_lavalamp[counter];\n        meta[counter] = m;\n      }\n\n      counter++;\n    }\n\n    return meta;\n  }*/\n\n  // psuedo_rng is the previous rng value, this is just top make sure we get something different everytime and don't use the same psuedo for the, base, sticker, and background\n  function pseudoRNG(uint256 tokenId, uint256 prev_rng) internal view returns (uint256) {\n      return uint256(keccak256(abi.encode(block.timestamp, block.difficulty, tokenId, prev_rng)));\n  }\n}\n",
  "sourcePath": "/Users/superdorvil/workspace/ReactWorkspace/PersonalProjects/lava-lamp-nft/contracts/LavaLamp.sol",
  "compiler": {
    "name": "solc",
    "version": "0.8.10+commit.fc410830.Emscripten.clang"
  },
  "schemaVersion": "3.4.3",
  "updatedAt": "2021-11-27T16:54:53.180Z",
  "networkType": "ethereum",
  "devdoc": {
    "kind": "dev",
    "methods": {
      "approve(address,uint256)": {
        "details": "See {IERC721-approve}."
      },
      "balanceOf(address)": {
        "details": "See {IERC721-balanceOf}."
      },
      "getApproved(uint256)": {
        "details": "See {IERC721-getApproved}."
      },
      "isApprovedForAll(address,address)": {
        "details": "See {IERC721-isApprovedForAll}."
      },
      "name()": {
        "details": "See {IERC721Metadata-name}."
      },
      "owner()": {
        "details": "Returns the address of the current owner."
      },
      "ownerOf(uint256)": {
        "details": "See {IERC721-ownerOf}."
      },
      "renounceOwnership()": {
        "details": "Leaves the contract without owner. It will not be possible to call `onlyOwner` functions anymore. Can only be called by the current owner. NOTE: Renouncing ownership will leave the contract without an owner, thereby removing any functionality that is only available to the owner."
      },
      "safeTransferFrom(address,address,uint256)": {
        "details": "See {IERC721-safeTransferFrom}."
      },
      "safeTransferFrom(address,address,uint256,bytes)": {
        "details": "See {IERC721-safeTransferFrom}."
      },
      "setApprovalForAll(address,bool)": {
        "details": "See {IERC721-setApprovalForAll}."
      },
      "supportsInterface(bytes4)": {
        "details": "See {IERC165-supportsInterface}."
      },
      "symbol()": {
        "details": "See {IERC721Metadata-symbol}."
      },
      "tokenURI(uint256)": {
        "details": "See {IERC721Metadata-tokenURI}."
      },
      "transferFrom(address,address,uint256)": {
        "details": "See {IERC721-transferFrom}."
      },
      "transferOwnership(address)": {
        "details": "Transfers ownership of the contract to a new account (`newOwner`). Can only be called by the current owner."
      }
    },
    "version": 1
  },
  "userdoc": {
    "kind": "user",
    "methods": {},
    "version": 1
  }
}