{
  "contractName": "LavaLamp",
  "abi": [
    {
      "inputs": [],
      "stateMutability": "nonpayable",
      "type": "constructor"
    },
    {
      "anonymous": false,
      "inputs": [
        {
          "indexed": true,
          "internalType": "address",
          "name": "owner",
          "type": "address"
        },
        {
          "indexed": true,
          "internalType": "address",
          "name": "approved",
          "type": "address"
        },
        {
          "indexed": true,
          "internalType": "uint256",
          "name": "tokenId",
          "type": "uint256"
        }
      ],
      "name": "Approval",
      "type": "event"
    },
    {
      "anonymous": false,
      "inputs": [
        {
          "indexed": true,
          "internalType": "address",
          "name": "owner",
          "type": "address"
        },
        {
          "indexed": true,
          "internalType": "address",
          "name": "operator",
          "type": "address"
        },
        {
          "indexed": false,
          "internalType": "bool",
          "name": "approved",
          "type": "bool"
        }
      ],
      "name": "ApprovalForAll",
      "type": "event"
    },
    {
      "anonymous": false,
      "inputs": [
        {
          "indexed": true,
          "internalType": "address",
          "name": "previousOwner",
          "type": "address"
        },
        {
          "indexed": true,
          "internalType": "address",
          "name": "newOwner",
          "type": "address"
        }
      ],
      "name": "OwnershipTransferred",
      "type": "event"
    },
    {
      "anonymous": false,
      "inputs": [
        {
          "indexed": true,
          "internalType": "address",
          "name": "from",
          "type": "address"
        },
        {
          "indexed": true,
          "internalType": "address",
          "name": "to",
          "type": "address"
        },
        {
          "indexed": true,
          "internalType": "uint256",
          "name": "tokenId",
          "type": "uint256"
        }
      ],
      "name": "Transfer",
      "type": "event"
    },
    {
      "inputs": [
        {
          "internalType": "address",
          "name": "to",
          "type": "address"
        },
        {
          "internalType": "uint256",
          "name": "tokenId",
          "type": "uint256"
        }
      ],
      "name": "approve",
      "outputs": [],
      "stateMutability": "nonpayable",
      "type": "function"
    },
    {
      "inputs": [
        {
          "internalType": "address",
          "name": "owner",
          "type": "address"
        }
      ],
      "name": "balanceOf",
      "outputs": [
        {
          "internalType": "uint256",
          "name": "",
          "type": "uint256"
        }
      ],
      "stateMutability": "view",
      "type": "function",
      "constant": true
    },
    {
      "inputs": [
        {
          "internalType": "uint256",
          "name": "tokenId",
          "type": "uint256"
        }
      ],
      "name": "getApproved",
      "outputs": [
        {
          "internalType": "address",
          "name": "",
          "type": "address"
        }
      ],
      "stateMutability": "view",
      "type": "function",
      "constant": true
    },
    {
      "inputs": [
        {
          "internalType": "address",
          "name": "owner",
          "type": "address"
        },
        {
          "internalType": "address",
          "name": "operator",
          "type": "address"
        }
      ],
      "name": "isApprovedForAll",
      "outputs": [
        {
          "internalType": "bool",
          "name": "",
          "type": "bool"
        }
      ],
      "stateMutability": "view",
      "type": "function",
      "constant": true
    },
    {
      "inputs": [],
      "name": "name",
      "outputs": [
        {
          "internalType": "string",
          "name": "",
          "type": "string"
        }
      ],
      "stateMutability": "view",
      "type": "function",
      "constant": true
    },
    {
      "inputs": [],
      "name": "owner",
      "outputs": [
        {
          "internalType": "address",
          "name": "",
          "type": "address"
        }
      ],
      "stateMutability": "view",
      "type": "function",
      "constant": true
    },
    {
      "inputs": [
        {
          "internalType": "uint256",
          "name": "tokenId",
          "type": "uint256"
        }
      ],
      "name": "ownerOf",
      "outputs": [
        {
          "internalType": "address",
          "name": "",
          "type": "address"
        }
      ],
      "stateMutability": "view",
      "type": "function",
      "constant": true
    },
    {
      "inputs": [],
      "name": "renounceOwnership",
      "outputs": [],
      "stateMutability": "nonpayable",
      "type": "function"
    },
    {
      "inputs": [
        {
          "internalType": "address",
          "name": "from",
          "type": "address"
        },
        {
          "internalType": "address",
          "name": "to",
          "type": "address"
        },
        {
          "internalType": "uint256",
          "name": "tokenId",
          "type": "uint256"
        }
      ],
      "name": "safeTransferFrom",
      "outputs": [],
      "stateMutability": "nonpayable",
      "type": "function"
    },
    {
      "inputs": [
        {
          "internalType": "address",
          "name": "from",
          "type": "address"
        },
        {
          "internalType": "address",
          "name": "to",
          "type": "address"
        },
        {
          "internalType": "uint256",
          "name": "tokenId",
          "type": "uint256"
        },
        {
          "internalType": "bytes",
          "name": "_data",
          "type": "bytes"
        }
      ],
      "name": "safeTransferFrom",
      "outputs": [],
      "stateMutability": "nonpayable",
      "type": "function"
    },
    {
      "inputs": [
        {
          "internalType": "address",
          "name": "operator",
          "type": "address"
        },
        {
          "internalType": "bool",
          "name": "approved",
          "type": "bool"
        }
      ],
      "name": "setApprovalForAll",
      "outputs": [],
      "stateMutability": "nonpayable",
      "type": "function"
    },
    {
      "inputs": [
        {
          "internalType": "bytes4",
          "name": "interfaceId",
          "type": "bytes4"
        }
      ],
      "name": "supportsInterface",
      "outputs": [
        {
          "internalType": "bool",
          "name": "",
          "type": "bool"
        }
      ],
      "stateMutability": "view",
      "type": "function",
      "constant": true
    },
    {
      "inputs": [],
      "name": "symbol",
      "outputs": [
        {
          "internalType": "string",
          "name": "",
          "type": "string"
        }
      ],
      "stateMutability": "view",
      "type": "function",
      "constant": true
    },
    {
      "inputs": [
        {
          "internalType": "uint256",
          "name": "tokenId",
          "type": "uint256"
        }
      ],
      "name": "tokenURI",
      "outputs": [
        {
          "internalType": "string",
          "name": "",
          "type": "string"
        }
      ],
      "stateMutability": "view",
      "type": "function",
      "constant": true
    },
    {
      "inputs": [
        {
          "internalType": "address",
          "name": "from",
          "type": "address"
        },
        {
          "internalType": "address",
          "name": "to",
          "type": "address"
        },
        {
          "internalType": "uint256",
          "name": "tokenId",
          "type": "uint256"
        }
      ],
      "name": "transferFrom",
      "outputs": [],
      "stateMutability": "nonpayable",
      "type": "function"
    },
    {
      "inputs": [
        {
          "internalType": "address",
          "name": "newOwner",
          "type": "address"
        }
      ],
      "name": "transferOwnership",
      "outputs": [],
      "stateMutability": "nonpayable",
      "type": "function"
    },
    {
      "inputs": [
        {
          "internalType": "string",
          "name": "baseURI",
          "type": "string"
        }
      ],
      "name": "setBaseURI",
      "outputs": [],
      "stateMutability": "nonpayable",
      "type": "function"
    },
    {
      "inputs": [
        {
          "internalType": "uint256",
          "name": "mintAmount",
          "type": "uint256"
        }
      ],
      "name": "claim",
      "outputs": [],
      "stateMutability": "payable",
      "type": "function",
      "payable": true
    },
    {
      "inputs": [
        {
          "internalType": "uint256",
          "name": "tokenId",
          "type": "uint256"
        }
      ],
      "name": "getTokenMetadata",
      "outputs": [
        {
          "internalType": "uint8[]",
          "name": "",
          "type": "uint8[]"
        }
      ],
      "stateMutability": "view",
      "type": "function",
      "constant": true
    },
    {
      "inputs": [],
      "name": "getAllTokenMetadata",
      "outputs": [
        {
          "components": [
            {
              "internalType": "uint8",
              "name": "attribute",
              "type": "uint8"
            },
            {
              "internalType": "uint8",
              "name": "background",
              "type": "uint8"
            },
            {
              "internalType": "uint8",
              "name": "base",
              "type": "uint8"
            },
            {
              "internalType": "uint8",
              "name": "glass",
              "type": "uint8"
            },
            {
              "internalType": "uint8",
              "name": "lava_count",
              "type": "uint8"
            },
            {
              "internalType": "uint8",
              "name": "lava_1",
              "type": "uint8"
            },
            {
              "internalType": "uint8",
              "name": "lava_2",
              "type": "uint8"
            },
            {
              "internalType": "uint8",
              "name": "lava_3",
              "type": "uint8"
            },
            {
              "internalType": "uint8",
              "name": "lava_4",
              "type": "uint8"
            },
            {
              "internalType": "uint8",
              "name": "overlay",
              "type": "uint8"
            },
            {
              "internalType": "uint8",
              "name": "rarity",
              "type": "uint8"
            }
          ],
          "internalType": "struct LavaLamp.Metadata[]",
          "name": "",
          "type": "tuple[]"
        }
      ],
      "stateMutability": "view",
      "type": "function",
      "constant": true
    },
    {
      "inputs": [
        {
          "internalType": "address",
          "name": "owner",
          "type": "address"
        }
      ],
      "name": "getTokensOwnedByMetadata",
      "outputs": [
        {
          "components": [
            {
              "internalType": "uint8",
              "name": "attribute",
              "type": "uint8"
            },
            {
              "internalType": "uint8",
              "name": "background",
              "type": "uint8"
            },
            {
              "internalType": "uint8",
              "name": "base",
              "type": "uint8"
            },
            {
              "internalType": "uint8",
              "name": "glass",
              "type": "uint8"
            },
            {
              "internalType": "uint8",
              "name": "lava_count",
              "type": "uint8"
            },
            {
              "internalType": "uint8",
              "name": "lava_1",
              "type": "uint8"
            },
            {
              "internalType": "uint8",
              "name": "lava_2",
              "type": "uint8"
            },
            {
              "internalType": "uint8",
              "name": "lava_3",
              "type": "uint8"
            },
            {
              "internalType": "uint8",
              "name": "lava_4",
              "type": "uint8"
            },
            {
              "internalType": "uint8",
              "name": "overlay",
              "type": "uint8"
            },
            {
              "internalType": "uint8",
              "name": "rarity",
              "type": "uint8"
            }
          ],
          "internalType": "struct LavaLamp.Metadata[]",
          "name": "",
          "type": "tuple[]"
        }
      ],
      "stateMutability": "view",
      "type": "function",
      "constant": true
    },
    {
      "inputs": [],
      "name": "totalSupply",
      "outputs": [
        {
          "internalType": "uint256",
          "name": "",
          "type": "uint256"
        }
      ],
      "stateMutability": "view",
      "type": "function",
      "constant": true
    },
    {
      "inputs": [
        {
          "internalType": "address",
          "name": "owner",
          "type": "address"
        },
        {
          "internalType": "uint256",
          "name": "index",
          "type": "uint256"
        }
      ],
      "name": "tokenOfOwnerByIndex",
      "outputs": [
        {
          "internalType": "uint256",
          "name": "tokenId",
          "type": "uint256"
        }
      ],
      "stateMutability": "view",
      "type": "function",
      "constant": true
    },
    {
      "inputs": [
        {
          "internalType": "uint256",
          "name": "index",
          "type": "uint256"
        }
      ],
      "name": "tokenByIndex",
      "outputs": [
        {
          "internalType": "uint256",
          "name": "",
          "type": "uint256"
        }
      ],
      "stateMutability": "pure",
      "type": "function",
      "constant": true
    }
  ],
  "bytecode": "0x6080604052611f2c600955666a94d74f430000600a556014600b556000600c556000600d556000600e553480156200003657600080fd5b506040518060400160405280600881526020017f4c6176614c616d700000000000000000000000000000000000000000000000008152506040518060400160405280600881526020017f4c4156414c414d50000000000000000000000000000000000000000000000000815250620000c3620000b76200017760201b60201c565b6200017f60201b60201c565b8160019080519060200190620000db92919062001361565b508060029080519060200190620000f492919062001361565b5050506200013d6040518060400160405280601c81526020017f687474703a2f2f6c6f63616c686f73743a333030302f746f6b656e2f000000008152506200024360201b60201c565b60005b600281121562000170576200015a620002ee60201b60201c565b80806200016790620014c5565b91505062000140565b5062001bd2565b600033905090565b60008060009054906101000a900473ffffffffffffffffffffffffffffffffffffffff169050816000806101000a81548173ffffffffffffffffffffffffffffffffffffffff021916908373ffffffffffffffffffffffffffffffffffffffff1602179055508173ffffffffffffffffffffffffffffffffffffffff168173ffffffffffffffffffffffffffffffffffffffff167f8be0079c531659141344cd1fd0a4f28419497f9722a3daafe3b4186f6b6457e060405160405180910390a35050565b620002536200017760201b60201c565b73ffffffffffffffffffffffffffffffffffffffff16620002796200082b60201b60201c565b73ffffffffffffffffffffffffffffffffffffffff1614620002d2576040517f08c379a0000000000000000000000000000000000000000000000000000000008152600401620002c99062001574565b60405180910390fd5b8060089080519060200190620002ea92919062001361565b5050565b620002f8620013f2565b60006200030a6200085460201b60201c565b9050600081905060008060009050600080600080600a876200032d9190620015cf565b9050600a8160ff168862000342919062001607565b6200034e919062001642565b9650600a876200035f9190620015cf565b9150600a8260ff168862000374919062001607565b62000380919062001642565b9650600a87620003919190620015cf565b9250600a8360ff1688620003a6919062001607565b620003b2919062001642565b9650600a87620003c39190620015cf565b9350600a8460ff1688620003d8919062001607565b620003e4919062001642565b965060008160ff16111562000404578480620004009062001687565b9550505b60008260ff161115620004225784806200041e9062001687565b9550505b60008360ff161115620004405784806200043c9062001687565b9550505b60008460ff1611156200045e5784806200045a9062001687565b9550505b84896080019060ff16908160ff1681525050838960a0019060ff16908160ff1681525050828960c0019060ff16908160ff1681525050818960e0019060ff16908160ff16815250508089610100019060ff16908160ff1681525050620f4240620004cf89886200089d60201b60201c565b620004db9190620015cf565b9550620004ee86620008d960201b60201c565b896000019060ff16908160ff1681525050620f42406200051589886200089d60201b60201c565b620005219190620015cf565b955062000534866200092e60201b60201c565b896020019060ff16908160ff1681525050620f42406200055b89886200089d60201b60201c565b620005679190620015cf565b95506200057a8662000a0d60201b60201c565b896040019060ff16908160ff1681525050620f4240620005a189886200089d60201b60201c565b620005ad9190620015cf565b9550620005c08662000abe60201b60201c565b896060019060ff16908160ff1681525050620f4240620005e789886200089d60201b60201c565b620005f39190620015cf565b9550620006068662000b6f60201b60201c565b89610120019060ff16908160ff1681525050620f42406200062e89886200089d60201b60201c565b6200063a9190620015cf565b95506200064d8662000c3760201b60201c565b89610140019060ff16908160ff168152505088600760008a815260200190815260200160002060008201518160000160006101000a81548160ff021916908360ff16021790555060208201518160000160016101000a81548160ff021916908360ff16021790555060408201518160000160026101000a81548160ff021916908360ff16021790555060608201518160000160036101000a81548160ff021916908360ff16021790555060808201518160000160046101000a81548160ff021916908360ff16021790555060a08201518160000160056101000a81548160ff021916908360ff16021790555060c08201518160000160066101000a81548160ff021916908360ff16021790555060e08201518160000160076101000a81548160ff021916908360ff1602179055506101008201518160000160086101000a81548160ff021916908360ff1602179055506101208201518160000160096101000a81548160ff021916908360ff16021790555061014082015181600001600a6101000a81548160ff021916908360ff160217905550905050620007f6338962000cba60201b60201c565b6200080662000ce060201b60201c565b600e60008154809291906200081b90620016b6565b9190505550505050505050505050565b60008060009054906101000a900473ffffffffffffffffffffffffffffffffffffffff16905090565b60008061018f9050600062000871600d5462000d3160201b60201c565b90506000600c54838362000886919062001704565b62000892919062001765565b905080935050505090565b600042448484604051602001620008b89493929190620017d3565b6040516020818303038152906040528051906020012060001c905092915050565b6000806203d090831015620008f2576000905062000925565b6207a12083101562000908576001905062000924565b620b71b08310156200091e576002905062000923565b600390505b5b5b80915050919050565b600080620186a083101562000947576000905062000a04565b62030d408310156200095d576001905062000a03565b620493e083101562000973576002905062000a02565b62061a8083101562000989576003905062000a01565b6207a1208310156200099f576004905062000a00565b620927c0831015620009b55760059050620009ff565b620aae60831015620009cb5760069050620009fe565b620c3500831015620009e15760079050620009fd565b620dbba0831015620009f75760089050620009fc565b600990505b5b5b5b5b5b5b5b5b80915050919050565b6000806201e84883101562000a26576000905062000ab5565b6203d09083101562000a3c576001905062000ab4565b6205b8d883101562000a52576002905062000ab3565b6207a12083101562000a68576003905062000ab2565b6209896883101562000a7e576004905062000ab1565b620b71b083101562000a94576005905062000ab0565b620d59f883101562000aaa576006905062000aaf565b600790505b5b5b5b5b5b5b80915050919050565b6000806201e84883101562000ad7576000905062000b66565b6203d09083101562000aed576001905062000b65565b6205b8d883101562000b03576002905062000b64565b6207a12083101562000b19576003905062000b63565b6209896883101562000b2f576004905062000b62565b620b71b083101562000b45576005905062000b61565b620d59f883101562000b5b576006905062000b60565b600790505b5b5b5b5b5b5b80915050919050565b6000806201b20783101562000b88576000905062000c2e565b6203640e83101562000b9e576001905062000c2d565b6205161583101562000bb4576002905062000c2c565b6206c81c83101562000bca576003905062000c2b565b62087a2383101562000be0576004905062000c2a565b620a2c2a83101562000bf6576005905062000c29565b620bde3183101562000c0c576006905062000c28565b620d903883101562000c22576007905062000c27565b600890505b5b5b5b5b5b5b5b80915050919050565b60008062028b0a83101562000c50576000905062000cb1565b6205161483101562000c66576001905062000cb0565b6207a11e83101562000c7c576002905062000caf565b620a2c2883101562000c92576003905062000cae565b620cb73283101562000ca8576004905062000cad565b600590505b5b5b5b5b80915050919050565b62000cdc82826040518060200160405280600081525062000edf60201b60201c565b5050565b60006013905080600d54101562000d0e576001600d5462000d02919062001765565b600d8190555062000d2e565b6000600d819055506001600c5462000d27919062001765565b600c819055505b50565b60008060009050600083141562000d4c576003905062000ed6565b600183141562000d60576011905062000ed5565b600283141562000d7457600a905062000ed4565b600383141562000d8857600d905062000ed3565b600483141562000d9c576012905062000ed2565b600583141562000db0576000905062000ed1565b600683141562000dc4576004905062000ed0565b600783141562000dd8576001905062000ecf565b600883141562000dec576006905062000ece565b600983141562000e00576013905062000ecd565b600a83141562000e14576008905062000ecc565b600b83141562000e2857600c905062000ecb565b600c83141562000e3c576002905062000eca565b600d83141562000e5057600e905062000ec9565b600e83141562000e6457600b905062000ec8565b600f83141562000e78576007905062000ec7565b601083141562000e8c57600f905062000ec6565b601183141562000ea0576009905062000ec5565b601283141562000eb4576005905062000ec4565b601383141562000ec357601090505b5b5b5b5b5b5b5b5b5b5b5b5b5b5b5b5b5b5b5b80915050919050565b62000ef1838362000f4d60201b60201c565b62000f0660008484846200113360201b60201c565b62000f48576040517f08c379a000000000000000000000000000000000000000000000000000000000815260040162000f3f9062001896565b60405180910390fd5b505050565b600073ffffffffffffffffffffffffffffffffffffffff168273ffffffffffffffffffffffffffffffffffffffff16141562000fc0576040517f08c379a000000000000000000000000000000000000000000000000000000000815260040162000fb79062001908565b60405180910390fd5b62000fd181620012dd60201b60201c565b1562001014576040517f08c379a00000000000000000000000000000000000000000000000000000000081526004016200100b906200197a565b60405180910390fd5b62001028600083836200134960201b60201c565b6001600460008473ffffffffffffffffffffffffffffffffffffffff1673ffffffffffffffffffffffffffffffffffffffff16815260200190815260200160002060008282546200107a919062001765565b92505081905550816003600083815260200190815260200160002060006101000a81548173ffffffffffffffffffffffffffffffffffffffff021916908373ffffffffffffffffffffffffffffffffffffffff160217905550808273ffffffffffffffffffffffffffffffffffffffff16600073ffffffffffffffffffffffffffffffffffffffff167fddf252ad1be2c89b69c2b068fc378daa952ba7f163c4a11628f55a4df523b3ef60405160405180910390a45050565b6000620011618473ffffffffffffffffffffffffffffffffffffffff166200134e60201b62001bf01760201c565b15620012d0578373ffffffffffffffffffffffffffffffffffffffff1663150b7a02620011936200017760201b60201c565b8786866040518563ffffffff1660e01b8152600401620011b7949392919062001a85565b6020604051808303816000875af1925050508015620011f657506040513d601f19601f82011682018060405250810190620011f3919062001b3b565b60015b6200127f573d806000811462001229576040519150601f19603f3d011682016040523d82523d6000602084013e6200122e565b606091505b5060008151141562001277576040517f08c379a00000000000000000000000000000000000000000000000000000000081526004016200126e9062001896565b60405180910390fd5b805181602001fd5b63150b7a0260e01b7bffffffffffffffffffffffffffffffffffffffffffffffffffffffff1916817bffffffffffffffffffffffffffffffffffffffffffffffffffffffff191614915050620012d5565b600190505b949350505050565b60008073ffffffffffffffffffffffffffffffffffffffff166003600084815260200190815260200160002060009054906101000a900473ffffffffffffffffffffffffffffffffffffffff1673ffffffffffffffffffffffffffffffffffffffff1614159050919050565b505050565b600080823b905060008111915050919050565b8280546200136f9062001b9c565b90600052602060002090601f016020900481019282620013935760008555620013df565b82601f10620013ae57805160ff1916838001178555620013df565b82800160010185558215620013df579182015b82811115620013de578251825591602001919060010190620013c1565b5b509050620013ee91906200146d565b5090565b604051806101600160405280600060ff168152602001600060ff168152602001600060ff168152602001600060ff168152602001600060ff168152602001600060ff168152602001600060ff168152602001600060ff168152602001600060ff168152602001600060ff168152602001600060ff1681525090565b5b80821115620014885760008160009055506001016200146e565b5090565b7f4e487b7100000000000000000000000000000000000000000000000000000000600052601160045260246000fd5b6000819050919050565b6000620014d282620014bb565b91507f7fffffffffffffffffffffffffffffffffffffffffffffffffffffffffffffff8214156200150857620015076200148c565b5b600182019050919050565b600082825260208201905092915050565b7f4f776e61626c653a2063616c6c6572206973206e6f7420746865206f776e6572600082015250565b60006200155c60208362001513565b9150620015698262001524565b602082019050919050565b600060208201905081810360008301526200158f816200154d565b9050919050565b6000819050919050565b7f4e487b7100000000000000000000000000000000000000000000000000000000600052601260045260246000fd5b6000620015dc8262001596565b9150620015e98362001596565b925082620015fc57620015fb620015a0565b5b828206905092915050565b6000620016148262001596565b9150620016218362001596565b9250828210156200163757620016366200148c565b5b828203905092915050565b60006200164f8262001596565b91506200165c8362001596565b9250826200166f576200166e620015a0565b5b828204905092915050565b600060ff82169050919050565b600062001694826200167a565b915060ff821415620016ab57620016aa6200148c565b5b600182019050919050565b6000620016c38262001596565b91507fffffffffffffffffffffffffffffffffffffffffffffffffffffffffffffffff821415620016f957620016f86200148c565b5b600182019050919050565b6000620017118262001596565b91506200171e8362001596565b9250817fffffffffffffffffffffffffffffffffffffffffffffffffffffffffffffffff04831182151516156200175a57620017596200148c565b5b828202905092915050565b6000620017728262001596565b91506200177f8362001596565b9250827fffffffffffffffffffffffffffffffffffffffffffffffffffffffffffffffff03821115620017b757620017b66200148c565b5b828201905092915050565b620017cd8162001596565b82525050565b6000608082019050620017ea6000830187620017c2565b620017f96020830186620017c2565b620018086040830185620017c2565b620018176060830184620017c2565b95945050505050565b7f4552433732313a207472616e7366657220746f206e6f6e20455243373231526560008201527f63656976657220696d706c656d656e7465720000000000000000000000000000602082015250565b60006200187e60328362001513565b91506200188b8262001820565b604082019050919050565b60006020820190508181036000830152620018b1816200186f565b9050919050565b7f4552433732313a206d696e7420746f20746865207a65726f2061646472657373600082015250565b6000620018f060208362001513565b9150620018fd82620018b8565b602082019050919050565b600060208201905081810360008301526200192381620018e1565b9050919050565b7f4552433732313a20746f6b656e20616c7265616479206d696e74656400000000600082015250565b600062001962601c8362001513565b91506200196f826200192a565b602082019050919050565b60006020820190508181036000830152620019958162001953565b9050919050565b600073ffffffffffffffffffffffffffffffffffffffff82169050919050565b6000620019c9826200199c565b9050919050565b620019db81620019bc565b82525050565b600081519050919050565b600082825260208201905092915050565b60005b8381101562001a1d57808201518184015260208101905062001a00565b8381111562001a2d576000848401525b50505050565b6000601f19601f8301169050919050565b600062001a5182620019e1565b62001a5d8185620019ec565b935062001a6f818560208601620019fd565b62001a7a8162001a33565b840191505092915050565b600060808201905062001a9c6000830187620019d0565b62001aab6020830186620019d0565b62001aba6040830185620017c2565b818103606083015262001ace818462001a44565b905095945050505050565b600080fd5b60007fffffffff0000000000000000000000000000000000000000000000000000000082169050919050565b62001b158162001ade565b811462001b2157600080fd5b50565b60008151905062001b358162001b0a565b92915050565b60006020828403121562001b545762001b5362001ad9565b5b600062001b648482850162001b24565b91505092915050565b7f4e487b7100000000000000000000000000000000000000000000000000000000600052602260045260246000fd5b6000600282049050600182168062001bb557607f821691505b6020821081141562001bcc5762001bcb62001b6d565b5b50919050565b614b438062001be26000396000f3fe60806040526004361061014b5760003560e01c806360316801116100b6578063a22cb4651161006f578063a22cb465146104a9578063b88d4fde146104d2578063c87b56dd146104fb578063e985e9c514610538578063e9c6f1fb14610575578063f2fde38b146105b25761014b565b806360316801146103855780636352211e146103c257806370a08231146103ff578063715018a61461043c5780638da5cb5b1461045357806395d89b411461047e5761014b565b806323b872dd1161010857806323b872dd146102745780632f745c591461029d578063379607f5146102da57806342842e0e146102f65780634f6ccce71461031f57806355f804b31461035c5761014b565b806301ffc9a71461015057806306fdde031461018d578063081812fc146101b8578063095ea7b3146101f557806318160ddd1461021e5780631f9ea56a14610249575b600080fd5b34801561015c57600080fd5b5061017760048036038101906101729190613457565b6105db565b604051610184919061349f565b60405180910390f35b34801561019957600080fd5b506101a26106bd565b6040516101af9190613553565b60405180910390f35b3480156101c457600080fd5b506101df60048036038101906101da91906135ab565b61074f565b6040516101ec9190613619565b60405180910390f35b34801561020157600080fd5b5061021c60048036038101906102179190613660565b6107d4565b005b34801561022a57600080fd5b506102336108ec565b60405161024091906136af565b60405180910390f35b34801561025557600080fd5b5061025e6108f6565b60405161026b9190613877565b60405180910390f35b34801561028057600080fd5b5061029b60048036038101906102969190613899565b610b1b565b005b3480156102a957600080fd5b506102c460048036038101906102bf9190613660565b610b7b565b6040516102d191906136af565b60405180910390f35b6102f460048036038101906102ef91906135ab565b610c1b565b005b34801561030257600080fd5b5061031d60048036038101906103189190613899565b610d8f565b005b34801561032b57600080fd5b50610346600480360381019061034191906135ab565b610daf565b60405161035391906136af565b60405180910390f35b34801561036857600080fd5b50610383600480360381019061037e9190613a21565b610dc1565b005b34801561039157600080fd5b506103ac60048036038101906103a791906135ab565b610e57565b6040516103b99190613b19565b60405180910390f35b3480156103ce57600080fd5b506103e960048036038101906103e491906135ab565b61124d565b6040516103f69190613619565b60405180910390f35b34801561040b57600080fd5b5061042660048036038101906104219190613b3b565b6112ff565b60405161043391906136af565b60405180910390f35b34801561044857600080fd5b506104516113b7565b005b34801561045f57600080fd5b5061046861143f565b6040516104759190613619565b60405180910390f35b34801561048a57600080fd5b50610493611468565b6040516104a09190613553565b60405180910390f35b3480156104b557600080fd5b506104d060048036038101906104cb9190613b94565b6114fa565b005b3480156104de57600080fd5b506104f960048036038101906104f49190613c75565b61167b565b005b34801561050757600080fd5b50610522600480360381019061051d91906135ab565b6116dd565b60405161052f9190613553565b60405180910390f35b34801561054457600080fd5b5061055f600480360381019061055a9190613cf8565b611784565b60405161056c919061349f565b60405180910390f35b34801561058157600080fd5b5061059c60048036038101906105979190613b3b565b611818565b6040516105a99190613877565b60405180910390f35b3480156105be57600080fd5b506105d960048036038101906105d49190613b3b565b611af8565b005b60007f80ac58cd000000000000000000000000000000000000000000000000000000007bffffffffffffffffffffffffffffffffffffffffffffffffffffffff1916827bffffffffffffffffffffffffffffffffffffffffffffffffffffffff191614806106a657507f5b5e139f000000000000000000000000000000000000000000000000000000007bffffffffffffffffffffffffffffffffffffffffffffffffffffffff1916827bffffffffffffffffffffffffffffffffffffffffffffffffffffffff1916145b806106b657506106b582611c03565b5b9050919050565b6060600180546106cc90613d67565b80601f01602080910402602001604051908101604052809291908181526020018280546106f890613d67565b80156107455780601f1061071a57610100808354040283529160200191610745565b820191906000526020600020905b81548152906001019060200180831161072857829003601f168201915b5050505050905090565b600061075a82611c6d565b610799576040517f08c379a000000000000000000000000000000000000000000000000000000000815260040161079090613e0b565b60405180910390fd5b6005600083815260200190815260200160002060009054906101000a900473ffffffffffffffffffffffffffffffffffffffff169050919050565b60006107df8261124d565b90508073ffffffffffffffffffffffffffffffffffffffff168373ffffffffffffffffffffffffffffffffffffffff161415610850576040517f08c379a000000000000000000000000000000000000000000000000000000000815260040161084790613e9d565b60405180910390fd5b8073ffffffffffffffffffffffffffffffffffffffff1661086f611cd9565b73ffffffffffffffffffffffffffffffffffffffff16148061089e575061089d81610898611cd9565b611784565b5b6108dd576040517f08c379a00000000000000000000000000000000000000000000000000000000081526004016108d490613f2f565b60405180910390fd5b6108e78383611ce1565b505050565b6000600e54905090565b6060600080600e5467ffffffffffffffff811115610917576109166138f6565b5b60405190808252806020026020018201604052801561095057816020015b61093d6132cd565b8152602001906001900390816109355790505b50905060005b600954811015610b125761096981611c6d565b15610aff57600060076000838152602001908152602001600020604051806101600160405290816000820160009054906101000a900460ff1660ff1660ff1681526020016000820160019054906101000a900460ff1660ff1660ff1681526020016000820160029054906101000a900460ff1660ff1660ff1681526020016000820160039054906101000a900460ff1660ff1660ff1681526020016000820160049054906101000a900460ff1660ff1660ff1681526020016000820160059054906101000a900460ff1660ff1660ff1681526020016000820160069054906101000a900460ff1660ff1660ff1681526020016000820160079054906101000a900460ff1660ff1660ff1681526020016000820160089054906101000a900460ff1660ff1660ff1681526020016000820160099054906101000a900460ff1660ff1660ff16815260200160008201600a9054906101000a900460ff1660ff1660ff1681525050905080838581518110610ae457610ae3613f4f565b5b60200260200101819052508380610afa90613fad565b945050505b8080610b0a90613fad565b915050610956565b50809250505090565b610b2c610b26611cd9565b82611d9a565b610b6b576040517f08c379a0000000000000000000000000000000000000000000000000000000008152600401610b6290614068565b60405180910390fd5b610b76838383611e78565b505050565b6000806000905060005b600954811015610c0e57610b9881611c6d565b15610bfb578473ffffffffffffffffffffffffffffffffffffffff16610bbd8261124d565b73ffffffffffffffffffffffffffffffffffffffff161415610bfa578180610be490613fad565b92505081841415610bf9578092505050610c15565b5b5b8080610c0690613fad565b915050610b85565b5060009150505b92915050565b60008111610c2857600080fd5b600b54811115610c3757600080fd5b60095481600e54610c489190614088565b1115610c5357600080fd5b600081600a54610c6391906140de565b9050610c6d61143f565b73ffffffffffffffffffffffffffffffffffffffff163373ffffffffffffffffffffffffffffffffffffffff1614610cad5780341015610cac57600080fd5b5b6000600190505b828111610cd657610cc36120d4565b8080610cce90613fad565b915050610cb4565b506000610ce161143f565b73ffffffffffffffffffffffffffffffffffffffff1682604051610d0490614169565b60006040518083038185875af1925050503d8060008114610d41576040519150601f19603f3d011682016040523d82523d6000602084013e610d46565b606091505b5050905080610d8a576040517f08c379a0000000000000000000000000000000000000000000000000000000008152600401610d81906141ca565b60405180910390fd5b505050565b610daa8383836040518060200160405280600081525061167b565b505050565b6000610dba82612565565b9050919050565b610dc9611cd9565b73ffffffffffffffffffffffffffffffffffffffff16610de761143f565b73ffffffffffffffffffffffffffffffffffffffff1614610e3d576040517f08c379a0000000000000000000000000000000000000000000000000000000008152600401610e3490614236565b60405180910390fd5b8060089080519060200190610e53929190613348565b5050565b6060610e6282611c6d565b610ea1576040517f08c379a0000000000000000000000000000000000000000000000000000000008152600401610e98906142a2565b60405180910390fd5b600060076000848152602001908152602001600020604051806101600160405290816000820160009054906101000a900460ff1660ff1660ff1681526020016000820160019054906101000a900460ff1660ff1660ff1681526020016000820160029054906101000a900460ff1660ff1660ff1681526020016000820160039054906101000a900460ff1660ff1660ff1681526020016000820160049054906101000a900460ff1660ff1660ff1681526020016000820160059054906101000a900460ff1660ff1660ff1681526020016000820160069054906101000a900460ff1660ff1660ff1681526020016000820160079054906101000a900460ff1660ff1660ff1681526020016000820160089054906101000a900460ff1660ff1660ff1681526020016000820160099054906101000a900460ff1660ff1660ff16815260200160008201600a9054906101000a900460ff1660ff1660ff168152505090506000600b67ffffffffffffffff8111156110205761101f6138f6565b5b60405190808252806020026020018201604052801561104e5781602001602082028036833780820191505090505b50905081600001518160008151811061106a57611069613f4f565b5b602002602001019060ff16908160ff168152505081602001518160018151811061109757611096613f4f565b5b602002602001019060ff16908160ff16815250508160400151816002815181106110c4576110c3613f4f565b5b602002602001019060ff16908160ff16815250508160600151816003815181106110f1576110f0613f4f565b5b602002602001019060ff16908160ff168152505081608001518160048151811061111e5761111d613f4f565b5b602002602001019060ff16908160ff16815250508160a001518160058151811061114b5761114a613f4f565b5b602002602001019060ff16908160ff16815250508160c001518160068151811061117857611177613f4f565b5b602002602001019060ff16908160ff16815250508160e00151816007815181106111a5576111a4613f4f565b5b602002602001019060ff16908160ff1681525050816101000151816008815181106111d3576111d2613f4f565b5b602002602001019060ff16908160ff16815250508161012001518160098151811061120157611200613f4f565b5b602002602001019060ff16908160ff168152505081610140015181600a8151811061122f5761122e613f4f565b5b602002602001019060ff16908160ff16815250508092505050919050565b6000806003600084815260200190815260200160002060009054906101000a900473ffffffffffffffffffffffffffffffffffffffff169050600073ffffffffffffffffffffffffffffffffffffffff168173ffffffffffffffffffffffffffffffffffffffff1614156112f6576040517f08c379a00000000000000000000000000000000000000000000000000000000081526004016112ed90614334565b60405180910390fd5b80915050919050565b60008073ffffffffffffffffffffffffffffffffffffffff168273ffffffffffffffffffffffffffffffffffffffff161415611370576040517f08c379a0000000000000000000000000000000000000000000000000000000008152600401611367906143c6565b60405180910390fd5b600460008373ffffffffffffffffffffffffffffffffffffffff1673ffffffffffffffffffffffffffffffffffffffff168152602001908152602001600020549050919050565b6113bf611cd9565b73ffffffffffffffffffffffffffffffffffffffff166113dd61143f565b73ffffffffffffffffffffffffffffffffffffffff1614611433576040517f08c379a000000000000000000000000000000000000000000000000000000000815260040161142a90614236565b60405180910390fd5b61143d600061260a565b565b60008060009054906101000a900473ffffffffffffffffffffffffffffffffffffffff16905090565b60606002805461147790613d67565b80601f01602080910402602001604051908101604052809291908181526020018280546114a390613d67565b80156114f05780601f106114c5576101008083540402835291602001916114f0565b820191906000526020600020905b8154815290600101906020018083116114d357829003601f168201915b5050505050905090565b611502611cd9565b73ffffffffffffffffffffffffffffffffffffffff168273ffffffffffffffffffffffffffffffffffffffff161415611570576040517f08c379a000000000000000000000000000000000000000000000000000000000815260040161156790614432565b60405180910390fd5b806006600061157d611cd9565b73ffffffffffffffffffffffffffffffffffffffff1673ffffffffffffffffffffffffffffffffffffffff16815260200190815260200160002060008473ffffffffffffffffffffffffffffffffffffffff1673ffffffffffffffffffffffffffffffffffffffff16815260200190815260200160002060006101000a81548160ff0219169083151502179055508173ffffffffffffffffffffffffffffffffffffffff1661162a611cd9565b73ffffffffffffffffffffffffffffffffffffffff167f17307eab39ab6107e8899845ad3d59bd9653f200f220920489ca2b5937696c318360405161166f919061349f565b60405180910390a35050565b61168c611686611cd9565b83611d9a565b6116cb576040517f08c379a00000000000000000000000000000000000000000000000000000000081526004016116c290614068565b60405180910390fd5b6116d7848484846126ce565b50505050565b60606116e882611c6d565b611727576040517f08c379a000000000000000000000000000000000000000000000000000000000815260040161171e906144c4565b60405180910390fd5b600061173161272a565b90506000815111611751576040518060200160405280600081525061177c565b8061175b846127bc565b60405160200161176c929190614520565b6040516020818303038152906040525b915050919050565b6000600660008473ffffffffffffffffffffffffffffffffffffffff1673ffffffffffffffffffffffffffffffffffffffff16815260200190815260200160002060008373ffffffffffffffffffffffffffffffffffffffff1673ffffffffffffffffffffffffffffffffffffffff16815260200190815260200160002060009054906101000a900460ff16905092915050565b606060008060005b6009548110156118975761183381611c6d565b15611884578473ffffffffffffffffffffffffffffffffffffffff166118588261124d565b73ffffffffffffffffffffffffffffffffffffffff16141561188357828061187f90613fad565b9350505b5b808061188f90613fad565b915050611820565b5060008267ffffffffffffffff8111156118b4576118b36138f6565b5b6040519080825280602002602001820160405280156118ed57816020015b6118da6132cd565b8152602001906001900390816118d25790505b50905060005b600954811015611aec5761190681611c6d565b15611ad9578573ffffffffffffffffffffffffffffffffffffffff1661192b8261124d565b73ffffffffffffffffffffffffffffffffffffffff161415611ad857600060076000838152602001908152602001600020604051806101600160405290816000820160009054906101000a900460ff1660ff1660ff1681526020016000820160019054906101000a900460ff1660ff1660ff1681526020016000820160029054906101000a900460ff1660ff1660ff1681526020016000820160039054906101000a900460ff1660ff1660ff1681526020016000820160049054906101000a900460ff1660ff1660ff1681526020016000820160059054906101000a900460ff1660ff1660ff1681526020016000820160069054906101000a900460ff1660ff1660ff1681526020016000820160079054906101000a900460ff1660ff1660ff1681526020016000820160089054906101000a900460ff1660ff1660ff1681526020016000820160099054906101000a900460ff1660ff1660ff16815260200160008201600a9054906101000a900460ff1660ff1660ff1681525050905080838581518110611abd57611abc613f4f565b5b60200260200101819052508380611ad390613fad565b945050505b5b8080611ae490613fad565b9150506118f3565b50809350505050919050565b611b00611cd9565b73ffffffffffffffffffffffffffffffffffffffff16611b1e61143f565b73ffffffffffffffffffffffffffffffffffffffff1614611b74576040517f08c379a0000000000000000000000000000000000000000000000000000000008152600401611b6b90614236565b60405180910390fd5b600073ffffffffffffffffffffffffffffffffffffffff168173ffffffffffffffffffffffffffffffffffffffff161415611be4576040517f08c379a0000000000000000000000000000000000000000000000000000000008152600401611bdb906145b6565b60405180910390fd5b611bed8161260a565b50565b600080823b905060008111915050919050565b60007f01ffc9a7000000000000000000000000000000000000000000000000000000007bffffffffffffffffffffffffffffffffffffffffffffffffffffffff1916827bffffffffffffffffffffffffffffffffffffffffffffffffffffffff1916149050919050565b60008073ffffffffffffffffffffffffffffffffffffffff166003600084815260200190815260200160002060009054906101000a900473ffffffffffffffffffffffffffffffffffffffff1673ffffffffffffffffffffffffffffffffffffffff1614159050919050565b600033905090565b816005600083815260200190815260200160002060006101000a81548173ffffffffffffffffffffffffffffffffffffffff021916908373ffffffffffffffffffffffffffffffffffffffff160217905550808273ffffffffffffffffffffffffffffffffffffffff16611d548361124d565b73ffffffffffffffffffffffffffffffffffffffff167f8c5be1e5ebec7d5bd14f71427d1e84f3dd0314c0f7b2291e5b200ac8c7c3b92560405160405180910390a45050565b6000611da582611c6d565b611de4576040517f08c379a0000000000000000000000000000000000000000000000000000000008152600401611ddb90614648565b60405180910390fd5b6000611def8361124d565b90508073ffffffffffffffffffffffffffffffffffffffff168473ffffffffffffffffffffffffffffffffffffffff161480611e5e57508373ffffffffffffffffffffffffffffffffffffffff16611e468461074f565b73ffffffffffffffffffffffffffffffffffffffff16145b80611e6f5750611e6e8185611784565b5b91505092915050565b8273ffffffffffffffffffffffffffffffffffffffff16611e988261124d565b73ffffffffffffffffffffffffffffffffffffffff1614611eee576040517f08c379a0000000000000000000000000000000000000000000000000000000008152600401611ee5906146da565b60405180910390fd5b600073ffffffffffffffffffffffffffffffffffffffff168273ffffffffffffffffffffffffffffffffffffffff161415611f5e576040517f08c379a0000000000000000000000000000000000000000000000000000000008152600401611f559061476c565b60405180910390fd5b611f6983838361291d565b611f74600082611ce1565b6001600460008573ffffffffffffffffffffffffffffffffffffffff1673ffffffffffffffffffffffffffffffffffffffff1681526020019081526020016000206000828254611fc4919061478c565b925050819055506001600460008473ffffffffffffffffffffffffffffffffffffffff1673ffffffffffffffffffffffffffffffffffffffff168152602001908152602001600020600082825461201b9190614088565b92505081905550816003600083815260200190815260200160002060006101000a81548173ffffffffffffffffffffffffffffffffffffffff021916908373ffffffffffffffffffffffffffffffffffffffff160217905550808273ffffffffffffffffffffffffffffffffffffffff168473ffffffffffffffffffffffffffffffffffffffff167fddf252ad1be2c89b69c2b068fc378daa952ba7f163c4a11628f55a4df523b3ef60405160405180910390a4505050565b6120dc6132cd565b60006120e6612922565b9050600081905060008060009050600080600080600a8761210791906147ef565b9050600a8160ff168861211a919061478c565b6121249190614820565b9650600a8761213391906147ef565b9150600a8260ff1688612146919061478c565b6121509190614820565b9650600a8761215f91906147ef565b9250600a8360ff1688612172919061478c565b61217c9190614820565b9650600a8761218b91906147ef565b9350600a8460ff168861219e919061478c565b6121a89190614820565b965060008160ff1611156121c55784806121c190614851565b9550505b60008260ff1611156121e05784806121dc90614851565b9550505b60008360ff1611156121fb5784806121f790614851565b9550505b60008460ff16111561221657848061221290614851565b9550505b84896080019060ff16908160ff1681525050838960a0019060ff16908160ff1681525050828960c0019060ff16908160ff1681525050818960e0019060ff16908160ff16815250508089610100019060ff16908160ff1681525050620f424061227f898861295f565b61228991906147ef565b955061229486612999565b896000019060ff16908160ff1681525050620f42406122b3898861295f565b6122bd91906147ef565b95506122c8866129e8565b896020019060ff16908160ff1681525050620f42406122e7898861295f565b6122f191906147ef565b95506122fc86612ab5565b896040019060ff16908160ff1681525050620f424061231b898861295f565b61232591906147ef565b955061233086612b58565b896060019060ff16908160ff1681525050620f424061234f898861295f565b61235991906147ef565b955061236486612bfb565b89610120019060ff16908160ff1681525050620f4240612384898861295f565b61238e91906147ef565b955061239986612cb3565b89610140019060ff16908160ff168152505088600760008a815260200190815260200160002060008201518160000160006101000a81548160ff021916908360ff16021790555060208201518160000160016101000a81548160ff021916908360ff16021790555060408201518160000160026101000a81548160ff021916908360ff16021790555060608201518160000160036101000a81548160ff021916908360ff16021790555060808201518160000160046101000a81548160ff021916908360ff16021790555060a08201518160000160056101000a81548160ff021916908360ff16021790555060c08201518160000160066101000a81548160ff021916908360ff16021790555060e08201518160000160076101000a81548160ff021916908360ff1602179055506101008201518160000160086101000a81548160ff021916908360ff1602179055506101208201518160000160096101000a81548160ff021916908360ff16021790555061014082015181600001600a6101000a81548160ff021916908360ff16021790555090505061253a3389612d2c565b612542612d4a565b600e600081548092919061255590613fad565b9190505550505050505050505050565b6000806000905060008060139050600061018f90506000805b60018861258b9190614088565b8110156125fc57600061259d86612d95565b90508684826125ac91906140de565b6125b69190614088565b9250848610156125d4576001866125cd9190614088565b95506125e8565b600095506001876125e59190614088565b96505b5080806125f490613fad565b91505061257e565b508095505050505050919050565b60008060009054906101000a900473ffffffffffffffffffffffffffffffffffffffff169050816000806101000a81548173ffffffffffffffffffffffffffffffffffffffff021916908373ffffffffffffffffffffffffffffffffffffffff1602179055508173ffffffffffffffffffffffffffffffffffffffff168173ffffffffffffffffffffffffffffffffffffffff167f8be0079c531659141344cd1fd0a4f28419497f9722a3daafe3b4186f6b6457e060405160405180910390a35050565b6126d9848484611e78565b6126e584848484612f1c565b612724576040517f08c379a000000000000000000000000000000000000000000000000000000000815260040161271b906148ed565b60405180910390fd5b50505050565b60606008805461273990613d67565b80601f016020809104026020016040519081016040528092919081815260200182805461276590613d67565b80156127b25780601f10612787576101008083540402835291602001916127b2565b820191906000526020600020905b81548152906001019060200180831161279557829003601f168201915b5050505050905090565b60606000821415612804576040518060400160405280600181526020017f30000000000000000000000000000000000000000000000000000000000000008152509050612918565b600082905060005b6000821461283657808061281f90613fad565b915050600a8261282f9190614820565b915061280c565b60008167ffffffffffffffff811115612852576128516138f6565b5b6040519080825280601f01601f1916602001820160405280156128845781602001600182028036833780820191505090505b5090505b600085146129115760018261289d919061478c565b9150600a856128ac91906147ef565b60306128b89190614088565b60f81b8183815181106128ce576128cd613f4f565b5b60200101907effffffffffffffffffffffffffffffffffffffffffffffffffffffffffffff1916908160001a905350600a8561290a9190614820565b9450612888565b8093505050505b919050565b505050565b60008061018f90506000612937600d54612d95565b90506000600c54838361294a91906140de565b6129549190614088565b905080935050505090565b600042448484604051602001612978949392919061490d565b6040516020818303038152906040528051906020012060001c905092915050565b6000806203d0908310156129b057600090506129df565b6207a1208310156129c457600190506129de565b620b71b08310156129d857600290506129dd565b600390505b5b5b80915050919050565b600080620186a08310156129ff5760009050612aac565b62030d40831015612a135760019050612aab565b620493e0831015612a275760029050612aaa565b62061a80831015612a3b5760039050612aa9565b6207a120831015612a4f5760049050612aa8565b620927c0831015612a635760059050612aa7565b620aae60831015612a775760069050612aa6565b620c3500831015612a8b5760079050612aa5565b620dbba0831015612a9f5760089050612aa4565b600990505b5b5b5b5b5b5b5b5b80915050919050565b6000806201e848831015612acc5760009050612b4f565b6203d090831015612ae05760019050612b4e565b6205b8d8831015612af45760029050612b4d565b6207a120831015612b085760039050612b4c565b62098968831015612b1c5760049050612b4b565b620b71b0831015612b305760059050612b4a565b620d59f8831015612b445760069050612b49565b600790505b5b5b5b5b5b5b80915050919050565b6000806201e848831015612b6f5760009050612bf2565b6203d090831015612b835760019050612bf1565b6205b8d8831015612b975760029050612bf0565b6207a120831015612bab5760039050612bef565b62098968831015612bbf5760049050612bee565b620b71b0831015612bd35760059050612bed565b620d59f8831015612be75760069050612bec565b600790505b5b5b5b5b5b5b80915050919050565b6000806201b207831015612c125760009050612caa565b6203640e831015612c265760019050612ca9565b62051615831015612c3a5760029050612ca8565b6206c81c831015612c4e5760039050612ca7565b62087a23831015612c625760049050612ca6565b620a2c2a831015612c765760059050612ca5565b620bde31831015612c8a5760069050612ca4565b620d9038831015612c9e5760079050612ca3565b600890505b5b5b5b5b5b5b5b80915050919050565b60008062028b0a831015612cca5760009050612d23565b62051614831015612cde5760019050612d22565b6207a11e831015612cf25760029050612d21565b620a2c28831015612d065760039050612d20565b620cb732831015612d1a5760049050612d1f565b600590505b5b5b5b5b80915050919050565b612d468282604051806020016040528060008152506130a4565b5050565b60006013905080600d541015612d74576001600d54612d699190614088565b600d81905550612d92565b6000600d819055506001600c54612d8b9190614088565b600c819055505b50565b600080600090506000831415612dae5760039050612f13565b6001831415612dc05760119050612f12565b6002831415612dd257600a9050612f11565b6003831415612de457600d9050612f10565b6004831415612df65760129050612f0f565b6005831415612e085760009050612f0e565b6006831415612e1a5760049050612f0d565b6007831415612e2c5760019050612f0c565b6008831415612e3e5760069050612f0b565b6009831415612e505760139050612f0a565b600a831415612e625760089050612f09565b600b831415612e7457600c9050612f08565b600c831415612e865760029050612f07565b600d831415612e9857600e9050612f06565b600e831415612eaa57600b9050612f05565b600f831415612ebc5760079050612f04565b6010831415612ece57600f9050612f03565b6011831415612ee05760099050612f02565b6012831415612ef25760059050612f01565b6013831415612f0057601090505b5b5b5b5b5b5b5b5b5b5b5b5b5b5b5b5b5b5b5b80915050919050565b6000612f3d8473ffffffffffffffffffffffffffffffffffffffff16611bf0565b15613097578373ffffffffffffffffffffffffffffffffffffffff1663150b7a02612f66611cd9565b8786866040518563ffffffff1660e01b8152600401612f8894939291906149a7565b6020604051808303816000875af1925050508015612fc457506040513d601f19601f82011682018060405250810190612fc19190614a08565b60015b613047573d8060008114612ff4576040519150601f19603f3d011682016040523d82523d6000602084013e612ff9565b606091505b5060008151141561303f576040517f08c379a0000000000000000000000000000000000000000000000000000000008152600401613036906148ed565b60405180910390fd5b805181602001fd5b63150b7a0260e01b7bffffffffffffffffffffffffffffffffffffffffffffffffffffffff1916817bffffffffffffffffffffffffffffffffffffffffffffffffffffffff19161491505061309c565b600190505b949350505050565b6130ae83836130ff565b6130bb6000848484612f1c565b6130fa576040517f08c379a00000000000000000000000000000000000000000000000000000000081526004016130f1906148ed565b60405180910390fd5b505050565b600073ffffffffffffffffffffffffffffffffffffffff168273ffffffffffffffffffffffffffffffffffffffff16141561316f576040517f08c379a000000000000000000000000000000000000000000000000000000000815260040161316690614a81565b60405180910390fd5b61317881611c6d565b156131b8576040517f08c379a00000000000000000000000000000000000000000000000000000000081526004016131af90614aed565b60405180910390fd5b6131c46000838361291d565b6001600460008473ffffffffffffffffffffffffffffffffffffffff1673ffffffffffffffffffffffffffffffffffffffff16815260200190815260200160002060008282546132149190614088565b92505081905550816003600083815260200190815260200160002060006101000a81548173ffffffffffffffffffffffffffffffffffffffff021916908373ffffffffffffffffffffffffffffffffffffffff160217905550808273ffffffffffffffffffffffffffffffffffffffff16600073ffffffffffffffffffffffffffffffffffffffff167fddf252ad1be2c89b69c2b068fc378daa952ba7f163c4a11628f55a4df523b3ef60405160405180910390a45050565b604051806101600160405280600060ff168152602001600060ff168152602001600060ff168152602001600060ff168152602001600060ff168152602001600060ff168152602001600060ff168152602001600060ff168152602001600060ff168152602001600060ff168152602001600060ff1681525090565b82805461335490613d67565b90600052602060002090601f01602090048101928261337657600085556133bd565b82601f1061338f57805160ff19168380011785556133bd565b828001600101855582156133bd579182015b828111156133bc5782518255916020019190600101906133a1565b5b5090506133ca91906133ce565b5090565b5b808211156133e75760008160009055506001016133cf565b5090565b6000604051905090565b600080fd5b600080fd5b60007fffffffff0000000000000000000000000000000000000000000000000000000082169050919050565b613434816133ff565b811461343f57600080fd5b50565b6000813590506134518161342b565b92915050565b60006020828403121561346d5761346c6133f5565b5b600061347b84828501613442565b91505092915050565b60008115159050919050565b61349981613484565b82525050565b60006020820190506134b46000830184613490565b92915050565b600081519050919050565b600082825260208201905092915050565b60005b838110156134f45780820151818401526020810190506134d9565b83811115613503576000848401525b50505050565b6000601f19601f8301169050919050565b6000613525826134ba565b61352f81856134c5565b935061353f8185602086016134d6565b61354881613509565b840191505092915050565b6000602082019050818103600083015261356d818461351a565b905092915050565b6000819050919050565b61358881613575565b811461359357600080fd5b50565b6000813590506135a58161357f565b92915050565b6000602082840312156135c1576135c06133f5565b5b60006135cf84828501613596565b91505092915050565b600073ffffffffffffffffffffffffffffffffffffffff82169050919050565b6000613603826135d8565b9050919050565b613613816135f8565b82525050565b600060208201905061362e600083018461360a565b92915050565b61363d816135f8565b811461364857600080fd5b50565b60008135905061365a81613634565b92915050565b60008060408385031215613677576136766133f5565b5b60006136858582860161364b565b925050602061369685828601613596565b9150509250929050565b6136a981613575565b82525050565b60006020820190506136c460008301846136a0565b92915050565b600081519050919050565b600082825260208201905092915050565b6000819050602082019050919050565b600060ff82169050919050565b61370c816136f6565b82525050565b610160820160008201516137296000850182613703565b50602082015161373c6020850182613703565b50604082015161374f6040850182613703565b5060608201516137626060850182613703565b5060808201516137756080850182613703565b5060a082015161378860a0850182613703565b5060c082015161379b60c0850182613703565b5060e08201516137ae60e0850182613703565b506101008201516137c3610100850182613703565b506101208201516137d8610120850182613703565b506101408201516137ed610140850182613703565b50505050565b60006137ff8383613712565b6101608301905092915050565b6000602082019050919050565b6000613824826136ca565b61382e81856136d5565b9350613839836136e6565b8060005b8381101561386a57815161385188826137f3565b975061385c8361380c565b92505060018101905061383d565b5085935050505092915050565b600060208201905081810360008301526138918184613819565b905092915050565b6000806000606084860312156138b2576138b16133f5565b5b60006138c08682870161364b565b93505060206138d18682870161364b565b92505060406138e286828701613596565b9150509250925092565b600080fd5b600080fd5b7f4e487b7100000000000000000000000000000000000000000000000000000000600052604160045260246000fd5b61392e82613509565b810181811067ffffffffffffffff8211171561394d5761394c6138f6565b5b80604052505050565b60006139606133eb565b905061396c8282613925565b919050565b600067ffffffffffffffff82111561398c5761398b6138f6565b5b61399582613509565b9050602081019050919050565b82818337600083830152505050565b60006139c46139bf84613971565b613956565b9050828152602081018484840111156139e0576139df6138f1565b5b6139eb8482856139a2565b509392505050565b600082601f830112613a0857613a076138ec565b5b8135613a188482602086016139b1565b91505092915050565b600060208284031215613a3757613a366133f5565b5b600082013567ffffffffffffffff811115613a5557613a546133fa565b5b613a61848285016139f3565b91505092915050565b600081519050919050565b600082825260208201905092915050565b6000819050602082019050919050565b6000613aa28383613703565b60208301905092915050565b6000602082019050919050565b6000613ac682613a6a565b613ad08185613a75565b9350613adb83613a86565b8060005b83811015613b0c578151613af38882613a96565b9750613afe83613aae565b925050600181019050613adf565b5085935050505092915050565b60006020820190508181036000830152613b338184613abb565b905092915050565b600060208284031215613b5157613b506133f5565b5b6000613b5f8482850161364b565b91505092915050565b613b7181613484565b8114613b7c57600080fd5b50565b600081359050613b8e81613b68565b92915050565b60008060408385031215613bab57613baa6133f5565b5b6000613bb98582860161364b565b9250506020613bca85828601613b7f565b9150509250929050565b600067ffffffffffffffff821115613bef57613bee6138f6565b5b613bf882613509565b9050602081019050919050565b6000613c18613c1384613bd4565b613956565b905082815260208101848484011115613c3457613c336138f1565b5b613c3f8482856139a2565b509392505050565b600082601f830112613c5c57613c5b6138ec565b5b8135613c6c848260208601613c05565b91505092915050565b60008060008060808587031215613c8f57613c8e6133f5565b5b6000613c9d8782880161364b565b9450506020613cae8782880161364b565b9350506040613cbf87828801613596565b925050606085013567ffffffffffffffff811115613ce057613cdf6133fa565b5b613cec87828801613c47565b91505092959194509250565b60008060408385031215613d0f57613d0e6133f5565b5b6000613d1d8582860161364b565b9250506020613d2e8582860161364b565b9150509250929050565b7f4e487b7100000000000000000000000000000000000000000000000000000000600052602260045260246000fd5b60006002820490506001821680613d7f57607f821691505b60208210811415613d9357613d92613d38565b5b50919050565b7f4552433732313a20617070726f76656420717565727920666f72206e6f6e657860008201527f697374656e7420746f6b656e0000000000000000000000000000000000000000602082015250565b6000613df5602c836134c5565b9150613e0082613d99565b604082019050919050565b60006020820190508181036000830152613e2481613de8565b9050919050565b7f4552433732313a20617070726f76616c20746f2063757272656e74206f776e6560008201527f7200000000000000000000000000000000000000000000000000000000000000602082015250565b6000613e876021836134c5565b9150613e9282613e2b565b604082019050919050565b60006020820190508181036000830152613eb681613e7a565b9050919050565b7f4552433732313a20617070726f76652063616c6c6572206973206e6f74206f7760008201527f6e6572206e6f7220617070726f76656420666f7220616c6c0000000000000000602082015250565b6000613f196038836134c5565b9150613f2482613ebd565b604082019050919050565b60006020820190508181036000830152613f4881613f0c565b9050919050565b7f4e487b7100000000000000000000000000000000000000000000000000000000600052603260045260246000fd5b7f4e487b7100000000000000000000000000000000000000000000000000000000600052601160045260246000fd5b6000613fb882613575565b91507fffffffffffffffffffffffffffffffffffffffffffffffffffffffffffffffff821415613feb57613fea613f7e565b5b600182019050919050565b7f4552433732313a207472616e736665722063616c6c6572206973206e6f74206f60008201527f776e6572206e6f7220617070726f766564000000000000000000000000000000602082015250565b60006140526031836134c5565b915061405d82613ff6565b604082019050919050565b6000602082019050818103600083015261408181614045565b9050919050565b600061409382613575565b915061409e83613575565b9250827fffffffffffffffffffffffffffffffffffffffffffffffffffffffffffffffff038211156140d3576140d2613f7e565b5b828201905092915050565b60006140e982613575565b91506140f483613575565b9250817fffffffffffffffffffffffffffffffffffffffffffffffffffffffffffffffff048311821515161561412d5761412c613f7e565b5b828202905092915050565b600081905092915050565b50565b6000614153600083614138565b915061415e82614143565b600082019050919050565b600061417482614146565b9150819050919050565b7f5472616e73666572206661696c65642e00000000000000000000000000000000600082015250565b60006141b46010836134c5565b91506141bf8261417e565b602082019050919050565b600060208201905081810360008301526141e3816141a7565b9050919050565b7f4f776e61626c653a2063616c6c6572206973206e6f7420746865206f776e6572600082015250565b60006142206020836134c5565b915061422b826141ea565b602082019050919050565b6000602082019050818103600083015261424f81614213565b9050919050565b7f746f6b656e206e6f74206d696e74656400000000000000000000000000000000600082015250565b600061428c6010836134c5565b915061429782614256565b602082019050919050565b600060208201905081810360008301526142bb8161427f565b9050919050565b7f4552433732313a206f776e657220717565727920666f72206e6f6e657869737460008201527f656e7420746f6b656e0000000000000000000000000000000000000000000000602082015250565b600061431e6029836134c5565b9150614329826142c2565b604082019050919050565b6000602082019050818103600083015261434d81614311565b9050919050565b7f4552433732313a2062616c616e636520717565727920666f7220746865207a6560008201527f726f206164647265737300000000000000000000000000000000000000000000602082015250565b60006143b0602a836134c5565b91506143bb82614354565b604082019050919050565b600060208201905081810360008301526143df816143a3565b9050919050565b7f4552433732313a20617070726f766520746f2063616c6c657200000000000000600082015250565b600061441c6019836134c5565b9150614427826143e6565b602082019050919050565b6000602082019050818103600083015261444b8161440f565b9050919050565b7f4552433732314d657461646174613a2055524920717565727920666f72206e6f60008201527f6e6578697374656e7420746f6b656e0000000000000000000000000000000000602082015250565b60006144ae602f836134c5565b91506144b982614452565b604082019050919050565b600060208201905081810360008301526144dd816144a1565b9050919050565b600081905092915050565b60006144fa826134ba565b61450481856144e4565b93506145148185602086016134d6565b80840191505092915050565b600061452c82856144ef565b915061453882846144ef565b91508190509392505050565b7f4f776e61626c653a206e6577206f776e657220697320746865207a65726f206160008201527f6464726573730000000000000000000000000000000000000000000000000000602082015250565b60006145a06026836134c5565b91506145ab82614544565b604082019050919050565b600060208201905081810360008301526145cf81614593565b9050919050565b7f4552433732313a206f70657261746f7220717565727920666f72206e6f6e657860008201527f697374656e7420746f6b656e0000000000000000000000000000000000000000602082015250565b6000614632602c836134c5565b915061463d826145d6565b604082019050919050565b6000602082019050818103600083015261466181614625565b9050919050565b7f4552433732313a207472616e73666572206f6620746f6b656e2074686174206960008201527f73206e6f74206f776e0000000000000000000000000000000000000000000000602082015250565b60006146c46029836134c5565b91506146cf82614668565b604082019050919050565b600060208201905081810360008301526146f3816146b7565b9050919050565b7f4552433732313a207472616e7366657220746f20746865207a65726f2061646460008201527f7265737300000000000000000000000000000000000000000000000000000000602082015250565b60006147566024836134c5565b9150614761826146fa565b604082019050919050565b6000602082019050818103600083015261478581614749565b9050919050565b600061479782613575565b91506147a283613575565b9250828210156147b5576147b4613f7e565b5b828203905092915050565b7f4e487b7100000000000000000000000000000000000000000000000000000000600052601260045260246000fd5b60006147fa82613575565b915061480583613575565b925082614815576148146147c0565b5b828206905092915050565b600061482b82613575565b915061483683613575565b925082614846576148456147c0565b5b828204905092915050565b600061485c826136f6565b915060ff8214156148705761486f613f7e565b5b600182019050919050565b7f4552433732313a207472616e7366657220746f206e6f6e20455243373231526560008201527f63656976657220696d706c656d656e7465720000000000000000000000000000602082015250565b60006148d76032836134c5565b91506148e28261487b565b604082019050919050565b60006020820190508181036000830152614906816148ca565b9050919050565b600060808201905061492260008301876136a0565b61492f60208301866136a0565b61493c60408301856136a0565b61494960608301846136a0565b95945050505050565b600081519050919050565b600082825260208201905092915050565b600061497982614952565b614983818561495d565b93506149938185602086016134d6565b61499c81613509565b840191505092915050565b60006080820190506149bc600083018761360a565b6149c9602083018661360a565b6149d660408301856136a0565b81810360608301526149e8818461496e565b905095945050505050565b600081519050614a028161342b565b92915050565b600060208284031215614a1e57614a1d6133f5565b5b6000614a2c848285016149f3565b91505092915050565b7f4552433732313a206d696e7420746f20746865207a65726f2061646472657373600082015250565b6000614a6b6020836134c5565b9150614a7682614a35565b602082019050919050565b60006020820190508181036000830152614a9a81614a5e565b9050919050565b7f4552433732313a20746f6b656e20616c7265616479206d696e74656400000000600082015250565b6000614ad7601c836134c5565b9150614ae282614aa1565b602082019050919050565b60006020820190508181036000830152614b0681614aca565b905091905056fea2646970667358221220f30dd6e9825a228c1e7792d1c53e7ec624e7b5fdf7a6f835ae99732e79eccf6164736f6c634300080a0033",
  "immutableReferences": {},
  "source": "// SPDX-License-Identifier: MIT\npragma solidity >=0.4.22 <0.9.0;\n\nimport \"@openzeppelin/contracts/access/Ownable.sol\";\nimport \"@openzeppelin/contracts/token/ERC721/ERC721.sol\";\nimport \"@openzeppelin/contracts/token/ERC721/extensions/IERC721Enumerable.sol\";\n\n// FIXME:: Should I add the ability to pause the contract???\n// FIXME:: Update contract to the most recent ERC shit\n\ncontract LavaLamp is Ownable, ERC721, IERC721Enumerable {\n    struct Metadata {\n        uint8 attribute; // (none, lavalien, halo, kitty)\n        uint8 background; // 10 - (black, blueberry, light blueberry, light raspberry, light strawberry, raspberry, sky, purple, stars, strawberry)\n        uint8 base; // 8 - (standard, alien, rocket, bong, pumpkin, wizard, witch, kitty)\n        uint8 glass; // 2 (white, black, yellow, orange, pink, purple, blue, red)\n\n        // 10 (None, red, green, yellow, blue, purple, light blue, orange, white, pink)\n        uint8 lava_count;\n        uint8 lava_1;\n        uint8 lava_2;\n        uint8 lava_3;\n        uint8 lava_4;\n\n        uint8 overlay; // 9 (none, bitcoin, ethereum, lavaception leaves, peace, smoke, swirls, yinyang)\n        uint8 rarity; // 6 (og, gold, diamond, ruby, emerald, rainbow)\n    }\n    mapping(uint256 => Metadata) id_to_lavalamp;\n\n    string private _currentBaseURI;\n\n    uint256 maxSupply = 7980;\n    uint256 cost = 0.03 ether;\n    uint256 maxMintAmount = 20;\n    uint256 lampCount = 0;\n    uint256 currentLampSet = 0;\n    uint256 lampsMinted = 0;\n\n    constructor() ERC721(\"LavaLamp\", \"LAVALAMP\") {\n        setBaseURI(\"http://localhost:3000/token/\"); // setBaseURI(\"http://www.superdorvil.tech/token/\");\n\n        for (int i = 0; i < 2; i++)\n            mint();\n    }\n\n    function setBaseURI(string memory baseURI) public onlyOwner {\n        _currentBaseURI = baseURI;\n    }\n\n    function _baseURI() internal view virtual override returns (string memory) {\n        return _currentBaseURI;\n    }\n\n    function mint () internal {\n        Metadata memory metadata;\n        uint256 tokenId = getId();\n        uint256 lava_index = tokenId;\n        uint256 r;\n\n        uint8 lava_count = 0;\n        uint8 lava_1;\n        uint8 lava_2;\n        uint8 lava_3;\n        uint8 lava_4;\n\n        lava_4 = uint8(lava_index % 10);\n        lava_index = (lava_index - lava_4) / 10;\n        lava_3 = uint8(lava_index % 10);\n        lava_index = (lava_index - lava_3) / 10;\n        lava_2 = uint8(lava_index % 10);\n        lava_index = (lava_index - lava_2) / 10;\n        lava_1 = uint8(lava_index % 10);\n        lava_index = (lava_index - lava_1) / 10;\n\n        if (lava_4 > 0)\n            lava_count++;\n        if (lava_3 > 0)\n            lava_count++;\n        if (lava_2 > 0)\n            lava_count++;\n        if (lava_1 > 0)\n            lava_count++;\n\n        metadata.lava_count = lava_count;\n        metadata.lava_1 = lava_1;\n        metadata.lava_2 = lava_2;\n        metadata.lava_3 = lava_3;\n        metadata.lava_4 = lava_4;\n\n        r = pseudoRNG(tokenId, r) % 1000000;\n        metadata.attribute = generateAttribute(r);\n        r = pseudoRNG(tokenId, r) % 1000000;\n        metadata.background = generateBackground(r);\n        r = pseudoRNG(tokenId, r) % 1000000;\n        metadata.base = generateBase(r);\n        r = pseudoRNG(tokenId, r) % 1000000;\n        metadata.glass = generateGlass(r);\n        r = pseudoRNG(tokenId, r) % 1000000;\n        metadata.overlay = generateOverlay(r);\n        r = pseudoRNG(tokenId, r) % 1000000;\n        metadata.rarity = generateRarity(r);\n\n        id_to_lavalamp[tokenId] = metadata;\n\n        _safeMint(msg.sender, tokenId);\n\n        incrementId();\n        lampsMinted++;\n    }\n\n    function claim(uint256 mintAmount) external payable {\n        require(mintAmount > 0);\n        require(mintAmount <= maxMintAmount);\n        require(lampsMinted + mintAmount <= maxSupply);\n        uint256 price = cost * mintAmount;\n\n        if (msg.sender != owner())\n            require(msg.value >= price);\n\n        for (uint256 i = 1; i <= mintAmount; i++)\n            mint();\n\n        // payable(owner()).transfer(price ether);\n        (bool success, ) = payable(owner()).call{value: price}(\"\");\n        // (bool success, ) = payable(purchases).call.value(price)(\"\");\n        //(bool success, ) = payable(purchases).call{value: price}(\"\");\n        require(success, \"Transfer failed.\");\n    }\n\n    function generateAttribute(uint256 r) internal pure returns(uint8) {\n        uint8 attribute;\n\n        if (r < 250000)\n            attribute = 0;\n        else if (r < 500000)\n            attribute = 1;\n        else if (r < 750000)\n            attribute = 2;\n        else\n            attribute = 3;\n\n        return attribute;\n    }\n\n    function generateBackground(uint256 r) internal pure returns(uint8) {\n        uint8 background;\n\n        if (r < 100000)\n            background = 0;\n        else if (r < 200000)\n            background = 1;\n        else if (r < 300000)\n            background = 2;\n        else if (r < 400000)\n            background = 3;\n        else if (r < 500000)\n            background = 4;\n        else if (r < 600000)\n            background = 5;\n        else if (r < 700000)\n            background = 6;\n        else if (r < 800000)\n            background = 7;\n        else if (r < 900000)\n            background = 8;\n        else\n            background = 9;\n\n        return background;\n    }\n\n    function generateBase(uint256 r) internal pure returns(uint8) {\n        uint8 base;\n\n        if (r < 125000)\n            base = 0;\n        else if (r < 250000)\n            base = 1;\n        else if (r < 375000)\n            base = 2;\n        else if (r < 500000)\n            base = 3;\n        else if (r < 625000)\n            base = 4;\n        else if (r < 750000)\n            base = 5;\n        else if (r < 875000)\n            base = 6;\n        else\n            base = 7;\n\n        return base;\n    }\n\n    function generateGlass(uint256 r) internal pure returns(uint8) {\n      uint8 glass;\n\n      if (r < 125000)\n          glass = 0;\n      else if (r < 250000)\n          glass = 1;\n      else if (r < 375000)\n          glass = 2;\n      else if (r < 500000)\n          glass = 3;\n      else if (r < 625000)\n          glass = 4;\n      else if (r < 750000)\n          glass = 5;\n      else if (r < 875000)\n          glass = 6;\n      else\n          glass = 7;\n\n      return glass;\n    }\n\n    function generateOverlay(uint256 r) internal pure returns(uint8) {\n        uint8 overlay;\n\n        if (r < 111111)\n            overlay = 0;\n        else if (r < 222222)\n            overlay = 1;\n        else if (r < 333333)\n            overlay = 2;\n        else if (r < 444444)\n            overlay = 3;\n        else if (r < 555555)\n            overlay = 4;\n        else if (r < 666666)\n            overlay = 5;\n        else if (r < 777777)\n            overlay = 6;\n        else if (r < 888888)\n            overlay = 7;\n        else\n            overlay = 8;\n\n        return overlay;\n    }\n\n    function generateRarity(uint256 r) internal pure returns(uint8) {\n        uint8 rarity;\n\n        if (r < 166666)\n            rarity = 0;\n        else if (r < 333332)\n            rarity = 1;\n        else if (r < 499998)\n            rarity = 2;\n        else if (r < 666664)\n            rarity = 3;\n        else if (r < 833330)\n            rarity = 4;\n        else\n            rarity = 5;\n\n        return rarity;\n    }\n\n    function getId() internal view returns(uint256) {\n        uint256 lampSetSize = 399;\n        uint256 randomLampBlock = randomizeLampBlock(currentLampSet);\n        uint256 id = randomLampBlock * lampSetSize + lampCount;\n\n        return id;\n    }\n\n    function incrementId() internal {\n        uint256 numOfLampBlocks = 19;\n\n        if (currentLampSet < numOfLampBlocks) {\n            currentLampSet = currentLampSet + 1;\n        } else {\n            currentLampSet = 0;\n            lampCount = lampCount + 1;\n        }\n    }\n\n    function randomizeLampBlock(uint256 lampBlock) internal pure returns(uint256) {\n        uint256 randomLampBlock = 0;\n\n        if (lampBlock == 0)\n            randomLampBlock = 3;\n        else if (lampBlock == 1)\n            randomLampBlock = 17;\n        else if (lampBlock == 2)\n            randomLampBlock = 10;\n        else if (lampBlock == 3)\n            randomLampBlock = 13;\n        else if (lampBlock == 4)\n            randomLampBlock = 18;\n        else if (lampBlock == 5)\n            randomLampBlock = 0;\n        else if (lampBlock == 6)\n            randomLampBlock = 4;\n        else if (lampBlock == 7)\n            randomLampBlock = 1;\n        else if (lampBlock == 8)\n            randomLampBlock = 6;\n        else if (lampBlock == 9)\n            randomLampBlock = 19;\n        else if (lampBlock == 10)\n            randomLampBlock = 8;\n        else if (lampBlock == 11)\n            randomLampBlock = 12;\n        else if (lampBlock == 12)\n            randomLampBlock = 2;\n        else if (lampBlock == 13)\n            randomLampBlock = 14;\n        else if (lampBlock == 14)\n            randomLampBlock = 11;\n        else if (lampBlock == 15)\n            randomLampBlock = 7;\n        else if (lampBlock == 16)\n            randomLampBlock = 15;\n        else if (lampBlock == 17)\n            randomLampBlock = 9;\n        else if (lampBlock == 18)\n            randomLampBlock = 5;\n        else if (lampBlock == 19)\n            randomLampBlock = 16;\n\n        return randomLampBlock;\n    }\n\n    function getTokenMetadata(uint256 tokenId) external view returns(uint8[] memory) {\n        require(_exists(tokenId), \"token not minted\");\n        Metadata memory lavalamp = id_to_lavalamp[tokenId];\n        uint8[] memory meta = new uint8[](11);\n\n        meta[0] = lavalamp.attribute;\n        meta[1] = lavalamp.background;\n        meta[2] = lavalamp.base;\n        meta[3] = lavalamp.glass;\n        meta[4] = lavalamp.lava_count;\n        meta[5] = lavalamp.lava_1;\n        meta[6] = lavalamp.lava_2;\n        meta[7] = lavalamp.lava_3;\n        meta[8] = lavalamp.lava_4;\n        meta[9] = lavalamp.overlay;\n        meta[10] = lavalamp.rarity;\n\n        return meta;\n    }\n\n    function getAllTokenMetadata() external view returns (Metadata[] memory) {\n        uint256 count = 0;\n        Metadata[] memory meta = new Metadata[](lampsMinted);\n\n        for (uint256 i = 0; i < maxSupply; i++) {\n            if (_exists(i)) {\n                Metadata memory m = id_to_lavalamp[i];\n                meta[count] = m;\n                count++;\n            }\n        }\n\n        return meta;\n    }\n\n    // ownerOf(uint256 tokenId)\n    function getTokensOwnedByMetadata(address owner) external view returns (Metadata[] memory) {\n        uint256 ownerSupply = 0;\n        uint256 count = 0;\n\n        for (uint256 i = 0; i < maxSupply; i++) {\n            if (_exists(i)) {\n                if (ownerOf(i) == owner) {\n                    ownerSupply++;\n                }\n            }\n        }\n\n        Metadata[] memory meta = new Metadata[](ownerSupply);\n\n        for (uint256 i = 0; i < maxSupply; i++) {\n            if (_exists(i)) {\n                if (ownerOf(i) == owner) {\n                    Metadata memory m = id_to_lavalamp[i];\n                    meta[count] = m;\n                    count++;\n                }\n            }\n        }\n\n        return meta;\n    }\n\n    // psuedo_rng is the previous rng value, this is just top make sure we get something different everytime and don't use the same psuedo for the, base, sticker, and background\n    function pseudoRNG(uint256 tokenId, uint256 prev_rng) internal view returns (uint256) {\n        return uint256(keccak256(abi.encode(block.timestamp, block.difficulty, tokenId, prev_rng)));\n    }\n\n    function tokenByIndexHelper(uint256 index) internal pure returns (uint256) {\n        uint256 lCount = 0;\n        uint256 curLampSet = 0;\n        uint256 numOfLampBlocks = 19;\n        uint256 lampSetSize = 399;\n        uint256 id = 0;\n\n        // must start at 1, the zeroth index is the first item\n        for (uint256 i = 0; i < index + 1; i++) {\n            uint256 randomLampBlock = randomizeLampBlock(curLampSet);\n            id = randomLampBlock * lampSetSize + lCount;\n\n            if (curLampSet < numOfLampBlocks) {\n                curLampSet = curLampSet + 1;\n            } else {\n                curLampSet = 0;\n                lCount = lCount + 1;\n            }\n        }\n\n        return id;\n    }\n\n    function totalSupply() external view returns (uint256) {\n        return lampsMinted;\n    }\n\n    function tokenOfOwnerByIndex(address owner, uint256 index) external view returns (uint256 tokenId) {\n        uint256 count = 0;\n        for (uint256 i = 0; i < maxSupply; i++) {\n          if (_exists(i)) {\n              if (ownerOf(i) == owner) {\n                  count++;\n                  if (index == count) {\n                    return i;\n                  }\n              }\n          }\n        }\n\n        return 0; //FIXME:: Maybe Return 9999999 for error\n    }\n\n    function tokenByIndex(uint256 index) external pure returns (uint256) {\n        return tokenByIndexHelper(index);\n    }\n}\n",
  "sourcePath": "/Users/superdorvil/workspace/ReactWorkspace/PersonalProjects/lava-lamp-nft/contracts/LavaLamp.sol",
  "compiler": {
    "name": "solc",
    "version": "0.8.10+commit.fc410830.Emscripten.clang"
  },
  "schemaVersion": "3.4.3",
  "updatedAt": "2021-12-16T06:58:12.854Z",
  "networkType": "ethereum",
  "devdoc": {
    "kind": "dev",
    "methods": {
      "approve(address,uint256)": {
        "details": "See {IERC721-approve}."
      },
      "balanceOf(address)": {
        "details": "See {IERC721-balanceOf}."
      },
      "getApproved(uint256)": {
        "details": "See {IERC721-getApproved}."
      },
      "isApprovedForAll(address,address)": {
        "details": "See {IERC721-isApprovedForAll}."
      },
      "name()": {
        "details": "See {IERC721Metadata-name}."
      },
      "owner()": {
        "details": "Returns the address of the current owner."
      },
      "ownerOf(uint256)": {
        "details": "See {IERC721-ownerOf}."
      },
      "renounceOwnership()": {
        "details": "Leaves the contract without owner. It will not be possible to call `onlyOwner` functions anymore. Can only be called by the current owner. NOTE: Renouncing ownership will leave the contract without an owner, thereby removing any functionality that is only available to the owner."
      },
      "safeTransferFrom(address,address,uint256)": {
        "details": "See {IERC721-safeTransferFrom}."
      },
      "safeTransferFrom(address,address,uint256,bytes)": {
        "details": "See {IERC721-safeTransferFrom}."
      },
      "setApprovalForAll(address,bool)": {
        "details": "See {IERC721-setApprovalForAll}."
      },
      "supportsInterface(bytes4)": {
        "details": "See {IERC165-supportsInterface}."
      },
      "symbol()": {
        "details": "See {IERC721Metadata-symbol}."
      },
      "tokenByIndex(uint256)": {
        "details": "Returns a token ID at a given `index` of all the tokens stored by the contract. Use along with {totalSupply} to enumerate all tokens."
      },
      "tokenOfOwnerByIndex(address,uint256)": {
        "details": "Returns a token ID owned by `owner` at a given `index` of its token list. Use along with {balanceOf} to enumerate all of ``owner``'s tokens."
      },
      "tokenURI(uint256)": {
        "details": "See {IERC721Metadata-tokenURI}."
      },
      "totalSupply()": {
        "details": "Returns the total amount of tokens stored by the contract."
      },
      "transferFrom(address,address,uint256)": {
        "details": "See {IERC721-transferFrom}."
      },
      "transferOwnership(address)": {
        "details": "Transfers ownership of the contract to a new account (`newOwner`). Can only be called by the current owner."
      }
    },
    "version": 1
  },
  "userdoc": {
    "kind": "user",
    "methods": {},
    "version": 1
  }
}