{
  "contractName": "LavaLamp",
  "abi": [
    {
      "inputs": [
        {
          "internalType": "string",
          "name": "_provenance",
          "type": "string"
        }
      ],
      "stateMutability": "nonpayable",
      "type": "constructor"
    },
    {
      "anonymous": false,
      "inputs": [
        {
          "indexed": true,
          "internalType": "address",
          "name": "owner",
          "type": "address"
        },
        {
          "indexed": true,
          "internalType": "address",
          "name": "approved",
          "type": "address"
        },
        {
          "indexed": true,
          "internalType": "uint256",
          "name": "tokenId",
          "type": "uint256"
        }
      ],
      "name": "Approval",
      "type": "event"
    },
    {
      "anonymous": false,
      "inputs": [
        {
          "indexed": true,
          "internalType": "address",
          "name": "owner",
          "type": "address"
        },
        {
          "indexed": true,
          "internalType": "address",
          "name": "operator",
          "type": "address"
        },
        {
          "indexed": false,
          "internalType": "bool",
          "name": "approved",
          "type": "bool"
        }
      ],
      "name": "ApprovalForAll",
      "type": "event"
    },
    {
      "anonymous": false,
      "inputs": [
        {
          "indexed": true,
          "internalType": "address",
          "name": "previousOwner",
          "type": "address"
        },
        {
          "indexed": true,
          "internalType": "address",
          "name": "newOwner",
          "type": "address"
        }
      ],
      "name": "OwnershipTransferred",
      "type": "event"
    },
    {
      "anonymous": false,
      "inputs": [
        {
          "indexed": true,
          "internalType": "address",
          "name": "from",
          "type": "address"
        },
        {
          "indexed": true,
          "internalType": "address",
          "name": "to",
          "type": "address"
        },
        {
          "indexed": true,
          "internalType": "uint256",
          "name": "tokenId",
          "type": "uint256"
        }
      ],
      "name": "Transfer",
      "type": "event"
    },
    {
      "inputs": [
        {
          "internalType": "address",
          "name": "to",
          "type": "address"
        },
        {
          "internalType": "uint256",
          "name": "tokenId",
          "type": "uint256"
        }
      ],
      "name": "approve",
      "outputs": [],
      "stateMutability": "nonpayable",
      "type": "function"
    },
    {
      "inputs": [
        {
          "internalType": "address",
          "name": "owner",
          "type": "address"
        }
      ],
      "name": "balanceOf",
      "outputs": [
        {
          "internalType": "uint256",
          "name": "",
          "type": "uint256"
        }
      ],
      "stateMutability": "view",
      "type": "function",
      "constant": true
    },
    {
      "inputs": [],
      "name": "burnCount",
      "outputs": [
        {
          "internalType": "uint256",
          "name": "",
          "type": "uint256"
        }
      ],
      "stateMutability": "view",
      "type": "function",
      "constant": true
    },
    {
      "inputs": [
        {
          "internalType": "uint256",
          "name": "tokenId",
          "type": "uint256"
        }
      ],
      "name": "getApproved",
      "outputs": [
        {
          "internalType": "address",
          "name": "",
          "type": "address"
        }
      ],
      "stateMutability": "view",
      "type": "function",
      "constant": true
    },
    {
      "inputs": [
        {
          "internalType": "address",
          "name": "owner",
          "type": "address"
        },
        {
          "internalType": "address",
          "name": "operator",
          "type": "address"
        }
      ],
      "name": "isApprovedForAll",
      "outputs": [
        {
          "internalType": "bool",
          "name": "",
          "type": "bool"
        }
      ],
      "stateMutability": "view",
      "type": "function",
      "constant": true
    },
    {
      "inputs": [],
      "name": "lampsMinted",
      "outputs": [
        {
          "internalType": "uint256",
          "name": "",
          "type": "uint256"
        }
      ],
      "stateMutability": "view",
      "type": "function",
      "constant": true
    },
    {
      "inputs": [],
      "name": "name",
      "outputs": [
        {
          "internalType": "string",
          "name": "",
          "type": "string"
        }
      ],
      "stateMutability": "view",
      "type": "function",
      "constant": true
    },
    {
      "inputs": [],
      "name": "owner",
      "outputs": [
        {
          "internalType": "address",
          "name": "",
          "type": "address"
        }
      ],
      "stateMutability": "view",
      "type": "function",
      "constant": true
    },
    {
      "inputs": [
        {
          "internalType": "uint256",
          "name": "tokenId",
          "type": "uint256"
        }
      ],
      "name": "ownerOf",
      "outputs": [
        {
          "internalType": "address",
          "name": "",
          "type": "address"
        }
      ],
      "stateMutability": "view",
      "type": "function",
      "constant": true
    },
    {
      "inputs": [],
      "name": "provenance",
      "outputs": [
        {
          "internalType": "string",
          "name": "",
          "type": "string"
        }
      ],
      "stateMutability": "view",
      "type": "function",
      "constant": true
    },
    {
      "inputs": [],
      "name": "renounceOwnership",
      "outputs": [],
      "stateMutability": "nonpayable",
      "type": "function"
    },
    {
      "inputs": [
        {
          "internalType": "address",
          "name": "from",
          "type": "address"
        },
        {
          "internalType": "address",
          "name": "to",
          "type": "address"
        },
        {
          "internalType": "uint256",
          "name": "tokenId",
          "type": "uint256"
        }
      ],
      "name": "safeTransferFrom",
      "outputs": [],
      "stateMutability": "nonpayable",
      "type": "function"
    },
    {
      "inputs": [
        {
          "internalType": "address",
          "name": "from",
          "type": "address"
        },
        {
          "internalType": "address",
          "name": "to",
          "type": "address"
        },
        {
          "internalType": "uint256",
          "name": "tokenId",
          "type": "uint256"
        },
        {
          "internalType": "bytes",
          "name": "_data",
          "type": "bytes"
        }
      ],
      "name": "safeTransferFrom",
      "outputs": [],
      "stateMutability": "nonpayable",
      "type": "function"
    },
    {
      "inputs": [
        {
          "internalType": "address",
          "name": "operator",
          "type": "address"
        },
        {
          "internalType": "bool",
          "name": "approved",
          "type": "bool"
        }
      ],
      "name": "setApprovalForAll",
      "outputs": [],
      "stateMutability": "nonpayable",
      "type": "function"
    },
    {
      "inputs": [
        {
          "internalType": "bytes4",
          "name": "interfaceId",
          "type": "bytes4"
        }
      ],
      "name": "supportsInterface",
      "outputs": [
        {
          "internalType": "bool",
          "name": "",
          "type": "bool"
        }
      ],
      "stateMutability": "view",
      "type": "function",
      "constant": true
    },
    {
      "inputs": [],
      "name": "symbol",
      "outputs": [
        {
          "internalType": "string",
          "name": "",
          "type": "string"
        }
      ],
      "stateMutability": "view",
      "type": "function",
      "constant": true
    },
    {
      "inputs": [
        {
          "internalType": "address",
          "name": "from",
          "type": "address"
        },
        {
          "internalType": "address",
          "name": "to",
          "type": "address"
        },
        {
          "internalType": "uint256",
          "name": "tokenId",
          "type": "uint256"
        }
      ],
      "name": "transferFrom",
      "outputs": [],
      "stateMutability": "nonpayable",
      "type": "function"
    },
    {
      "inputs": [
        {
          "internalType": "address",
          "name": "newOwner",
          "type": "address"
        }
      ],
      "name": "transferOwnership",
      "outputs": [],
      "stateMutability": "nonpayable",
      "type": "function"
    },
    {
      "inputs": [
        {
          "internalType": "string",
          "name": "baseURI",
          "type": "string"
        }
      ],
      "name": "setBaseURI",
      "outputs": [],
      "stateMutability": "nonpayable",
      "type": "function"
    },
    {
      "inputs": [
        {
          "internalType": "uint256",
          "name": "tokenId",
          "type": "uint256"
        }
      ],
      "name": "tokenURI",
      "outputs": [
        {
          "internalType": "string",
          "name": "",
          "type": "string"
        }
      ],
      "stateMutability": "view",
      "type": "function",
      "constant": true
    },
    {
      "inputs": [
        {
          "internalType": "uint256",
          "name": "mintAmount",
          "type": "uint256"
        }
      ],
      "name": "mint",
      "outputs": [],
      "stateMutability": "payable",
      "type": "function",
      "payable": true
    },
    {
      "inputs": [
        {
          "internalType": "uint256",
          "name": "tokenId",
          "type": "uint256"
        }
      ],
      "name": "burn",
      "outputs": [],
      "stateMutability": "nonpayable",
      "type": "function"
    },
    {
      "inputs": [],
      "name": "totalSupply",
      "outputs": [
        {
          "internalType": "uint256",
          "name": "",
          "type": "uint256"
        }
      ],
      "stateMutability": "view",
      "type": "function",
      "constant": true
    },
    {
      "inputs": [
        {
          "internalType": "address",
          "name": "owner",
          "type": "address"
        }
      ],
      "name": "getTokensOwnedBy",
      "outputs": [
        {
          "internalType": "bool[]",
          "name": "",
          "type": "bool[]"
        }
      ],
      "stateMutability": "view",
      "type": "function",
      "constant": true
    }
  ],
  "bytecode": "0x6080604052666a94d74f430000600a55611f2c600b556014600c55734024b17b6fd2ac7a83bfe0c71970d23ee335bc40600d60006101000a81548173ffffffffffffffffffffffffffffffffffffffff021916908373ffffffffffffffffffffffffffffffffffffffff1602179055506000600e556000600f55600060105560006011553480156200009057600080fd5b506040516200429b3803806200429b8339818101604052810190620000b6919062000623565b6040518060400160405280600881526020017f4c6176614c616d700000000000000000000000000000000000000000000000008152506040518060400160405280600881526020017f4c4156414c414d500000000000000000000000000000000000000000000000008152506200014262000136620001e860201b60201c565b620001f060201b60201c565b81600190805190602001906200015a929190620003d6565b50806002908051906020019062000173929190620003d6565b50505080600890805190602001906200018e929190620003d6565b50620001b96040518060600160405280602281526020016200427960229139620002b460201b60201c565b6040518060200160405280600081525060099080519060200190620001e0929190620003d6565b50506200075c565b600033905090565b60008060009054906101000a900473ffffffffffffffffffffffffffffffffffffffff169050816000806101000a81548173ffffffffffffffffffffffffffffffffffffffff021916908373ffffffffffffffffffffffffffffffffffffffff1602179055508173ffffffffffffffffffffffffffffffffffffffff168173ffffffffffffffffffffffffffffffffffffffff167f8be0079c531659141344cd1fd0a4f28419497f9722a3daafe3b4186f6b6457e060405160405180910390a35050565b620002c4620001e860201b60201c565b73ffffffffffffffffffffffffffffffffffffffff16620002ea620003ad60201b60201c565b73ffffffffffffffffffffffffffffffffffffffff161462000343576040517f08c379a00000000000000000000000000000000000000000000000000000000081526004016200033a90620006d5565b60405180910390fd5b80600790805190602001906200035b929190620003d6565b506040518060400160405280600581526020017f2e6a736f6e00000000000000000000000000000000000000000000000000000081525060099080519060200190620003a9929190620003d6565b5050565b60008060009054906101000a900473ffffffffffffffffffffffffffffffffffffffff16905090565b828054620003e49062000726565b90600052602060002090601f01602090048101928262000408576000855562000454565b82601f106200042357805160ff191683800117855562000454565b8280016001018555821562000454579182015b828111156200045357825182559160200191906001019062000436565b5b50905062000463919062000467565b5090565b5b808211156200048257600081600090555060010162000468565b5090565b6000604051905090565b600080fd5b600080fd5b600080fd5b600080fd5b6000601f19601f8301169050919050565b7f4e487b7100000000000000000000000000000000000000000000000000000000600052604160045260246000fd5b620004ef82620004a4565b810181811067ffffffffffffffff82111715620005115762000510620004b5565b5b80604052505050565b60006200052662000486565b9050620005348282620004e4565b919050565b600067ffffffffffffffff821115620005575762000556620004b5565b5b6200056282620004a4565b9050602081019050919050565b60005b838110156200058f57808201518184015260208101905062000572565b838111156200059f576000848401525b50505050565b6000620005bc620005b68462000539565b6200051a565b905082815260208101848484011115620005db57620005da6200049f565b5b620005e88482856200056f565b509392505050565b600082601f8301126200060857620006076200049a565b5b81516200061a848260208601620005a5565b91505092915050565b6000602082840312156200063c576200063b62000490565b5b600082015167ffffffffffffffff8111156200065d576200065c62000495565b5b6200066b84828501620005f0565b91505092915050565b600082825260208201905092915050565b7f4f776e61626c653a2063616c6c6572206973206e6f7420746865206f776e6572600082015250565b6000620006bd60208362000674565b9150620006ca8262000685565b602082019050919050565b60006020820190508181036000830152620006f081620006ae565b9050919050565b7f4e487b7100000000000000000000000000000000000000000000000000000000600052602260045260246000fd5b600060028204905060018216806200073f57607f821691505b60208210811415620007565762000755620006f7565b5b50919050565b613b0d806200076c6000396000f3fe60806040526004361061014b5760003560e01c80636352211e116100b6578063a0712d681161006f578063a0712d6814610492578063a22cb465146104ae578063b88d4fde146104d7578063c87b56dd14610500578063e985e9c51461053d578063f2fde38b1461057a5761014b565b80636352211e1461038057806370a08231146103bd578063715018a6146103fa5780638da5cb5b1461041157806395d89b411461043c5780639bbc35f8146104675761014b565b806323b872dd1161010857806323b872dd146102745780633d4392c01461029d57806342842e0e146102da57806342966c6814610303578063524773ce1461032c57806355f804b3146103575761014b565b806301ffc9a71461015057806306fdde031461018d578063081812fc146101b8578063095ea7b3146101f55780630f7309e81461021e57806318160ddd14610249575b600080fd5b34801561015c57600080fd5b50610177600480360381019061017291906124f7565b6105a3565b604051610184919061253f565b60405180910390f35b34801561019957600080fd5b506101a2610685565b6040516101af91906125f3565b60405180910390f35b3480156101c457600080fd5b506101df60048036038101906101da919061264b565b610717565b6040516101ec91906126b9565b60405180910390f35b34801561020157600080fd5b5061021c60048036038101906102179190612700565b61079c565b005b34801561022a57600080fd5b506102336108b4565b60405161024091906125f3565b60405180910390f35b34801561025557600080fd5b5061025e610942565b60405161026b919061274f565b60405180910390f35b34801561028057600080fd5b5061029b6004803603810190610296919061276a565b610959565b005b3480156102a957600080fd5b506102c460048036038101906102bf91906127bd565b6109b9565b6040516102d191906128a8565b60405180910390f35b3480156102e657600080fd5b5061030160048036038101906102fc919061276a565b610ace565b005b34801561030f57600080fd5b5061032a6004803603810190610325919061264b565b610aee565b005b34801561033857600080fd5b50610341610b62565b60405161034e919061274f565b60405180910390f35b34801561036357600080fd5b5061037e600480360381019061037991906129ff565b610b68565b005b34801561038c57600080fd5b506103a760048036038101906103a2919061264b565b610c4a565b6040516103b491906126b9565b60405180910390f35b3480156103c957600080fd5b506103e460048036038101906103df91906127bd565b610cfc565b6040516103f1919061274f565b60405180910390f35b34801561040657600080fd5b5061040f610db4565b005b34801561041d57600080fd5b50610426610e3c565b60405161043391906126b9565b60405180910390f35b34801561044857600080fd5b50610451610e65565b60405161045e91906125f3565b60405180910390f35b34801561047357600080fd5b5061047c610ef7565b604051610489919061274f565b60405180910390f35b6104ac60048036038101906104a7919061264b565b610efd565b005b3480156104ba57600080fd5b506104d560048036038101906104d09190612a74565b6110e2565b005b3480156104e357600080fd5b506104fe60048036038101906104f99190612b55565b6110f8565b005b34801561050c57600080fd5b506105276004803603810190610522919061264b565b61115a565b60405161053491906125f3565b60405180910390f35b34801561054957600080fd5b50610564600480360381019061055f9190612bd8565b611204565b604051610571919061253f565b60405180910390f35b34801561058657600080fd5b506105a1600480360381019061059c91906127bd565b611298565b005b60007f80ac58cd000000000000000000000000000000000000000000000000000000007bffffffffffffffffffffffffffffffffffffffffffffffffffffffff1916827bffffffffffffffffffffffffffffffffffffffffffffffffffffffff1916148061066e57507f5b5e139f000000000000000000000000000000000000000000000000000000007bffffffffffffffffffffffffffffffffffffffffffffffffffffffff1916827bffffffffffffffffffffffffffffffffffffffffffffffffffffffff1916145b8061067e575061067d82611390565b5b9050919050565b60606001805461069490612c47565b80601f01602080910402602001604051908101604052809291908181526020018280546106c090612c47565b801561070d5780601f106106e25761010080835404028352916020019161070d565b820191906000526020600020905b8154815290600101906020018083116106f057829003601f168201915b5050505050905090565b6000610722826113fa565b610761576040517f08c379a000000000000000000000000000000000000000000000000000000000815260040161075890612ceb565b60405180910390fd5b6005600083815260200190815260200160002060009054906101000a900473ffffffffffffffffffffffffffffffffffffffff169050919050565b60006107a782610c4a565b90508073ffffffffffffffffffffffffffffffffffffffff168373ffffffffffffffffffffffffffffffffffffffff161415610818576040517f08c379a000000000000000000000000000000000000000000000000000000000815260040161080f90612d7d565b60405180910390fd5b8073ffffffffffffffffffffffffffffffffffffffff16610837611466565b73ffffffffffffffffffffffffffffffffffffffff161480610866575061086581610860611466565b611204565b5b6108a5576040517f08c379a000000000000000000000000000000000000000000000000000000000815260040161089c90612e0f565b60405180910390fd5b6108af838361146e565b505050565b600880546108c190612c47565b80601f01602080910402602001604051908101604052809291908181526020018280546108ed90612c47565b801561093a5780601f1061090f5761010080835404028352916020019161093a565b820191906000526020600020905b81548152906001019060200180831161091d57829003601f168201915b505050505081565b6000600e54600f546109549190612e5e565b905090565b61096a610964611466565b82611527565b6109a9576040517f08c379a00000000000000000000000000000000000000000000000000000000081526004016109a090612f04565b60405180910390fd5b6109b4838383611605565b505050565b60606000600b5467ffffffffffffffff8111156109d9576109d86128d4565b5b604051908082528060200260200182016040528015610a075781602001602082028036833780820191505090505b50905060005b600b54811015610ac4576000828281518110610a2c57610a2b612f24565b5b602002602001019015159081151581525050610a47816113fa565b15610ab1578373ffffffffffffffffffffffffffffffffffffffff16610a6c82610c4a565b73ffffffffffffffffffffffffffffffffffffffff161415610ab0576001828281518110610a9d57610a9c612f24565b5b6020026020010190151590811515815250505b5b8080610abc90612f53565b915050610a0d565b5080915050919050565b610ae9838383604051806020016040528060008152506110f8565b505050565b610aff610af9611466565b82611527565b610b3e576040517f08c379a0000000000000000000000000000000000000000000000000000000008152600401610b359061300e565b60405180910390fd5b610b4781611861565b600e6000815480929190610b5a90612f53565b919050555050565b600e5481565b610b70611466565b73ffffffffffffffffffffffffffffffffffffffff16610b8e610e3c565b73ffffffffffffffffffffffffffffffffffffffff1614610be4576040517f08c379a0000000000000000000000000000000000000000000000000000000008152600401610bdb9061307a565b60405180910390fd5b8060079080519060200190610bfa9291906123e8565b506040518060400160405280600581526020017f2e6a736f6e00000000000000000000000000000000000000000000000000000081525060099080519060200190610c469291906123e8565b5050565b6000806003600084815260200190815260200160002060009054906101000a900473ffffffffffffffffffffffffffffffffffffffff169050600073ffffffffffffffffffffffffffffffffffffffff168173ffffffffffffffffffffffffffffffffffffffff161415610cf3576040517f08c379a0000000000000000000000000000000000000000000000000000000008152600401610cea9061310c565b60405180910390fd5b80915050919050565b60008073ffffffffffffffffffffffffffffffffffffffff168273ffffffffffffffffffffffffffffffffffffffff161415610d6d576040517f08c379a0000000000000000000000000000000000000000000000000000000008152600401610d649061319e565b60405180910390fd5b600460008373ffffffffffffffffffffffffffffffffffffffff1673ffffffffffffffffffffffffffffffffffffffff168152602001908152602001600020549050919050565b610dbc611466565b73ffffffffffffffffffffffffffffffffffffffff16610dda610e3c565b73ffffffffffffffffffffffffffffffffffffffff1614610e30576040517f08c379a0000000000000000000000000000000000000000000000000000000008152600401610e279061307a565b60405180910390fd5b610e3a6000611972565b565b60008060009054906101000a900473ffffffffffffffffffffffffffffffffffffffff16905090565b606060028054610e7490612c47565b80601f0160208091040260200160405190810160405280929190818152602001828054610ea090612c47565b8015610eed5780601f10610ec257610100808354040283529160200191610eed565b820191906000526020600020905b815481529060010190602001808311610ed057829003601f168201915b5050505050905090565b600f5481565b60008111610f40576040517f08c379a0000000000000000000000000000000000000000000000000000000008152600401610f379061320a565b60405180910390fd5b600b5481600f54610f51919061322a565b1115610f92576040517f08c379a0000000000000000000000000000000000000000000000000000000008152600401610f89906132f2565b60405180910390fd5b600081600a54610fa29190613312565b9050610fac610e3c565b73ffffffffffffffffffffffffffffffffffffffff163373ffffffffffffffffffffffffffffffffffffffff1614610fec5780341015610feb57600080fd5b5b6000600190505b828111611044576000611004611a36565b90506110103382611a73565b611018611a91565b600f600081548092919061102b90612f53565b919050555050808061103c90612f53565b915050610ff3565b506000600d60009054906101000a900473ffffffffffffffffffffffffffffffffffffffff1673ffffffffffffffffffffffffffffffffffffffff164760405161108d9061339d565b60006040518083038185875af1925050503d80600081146110ca576040519150601f19603f3d011682016040523d82523d6000602084013e6110cf565b606091505b50509050806110dd57600080fd5b505050565b6110f46110ed611466565b8383611adc565b5050565b611109611103611466565b83611527565b611148576040517f08c379a000000000000000000000000000000000000000000000000000000000815260040161113f90612f04565b60405180910390fd5b61115484848484611c49565b50505050565b6060611165826113fa565b6111a4576040517f08c379a000000000000000000000000000000000000000000000000000000000815260040161119b90613424565b60405180910390fd5b60006111ae611ca5565b905060008151116111ce57604051806020016040528060008152506111fc565b806111d884611d37565b60096040516020016111ec93929190613514565b6040516020818303038152906040525b915050919050565b6000600660008473ffffffffffffffffffffffffffffffffffffffff1673ffffffffffffffffffffffffffffffffffffffff16815260200190815260200160002060008373ffffffffffffffffffffffffffffffffffffffff1673ffffffffffffffffffffffffffffffffffffffff16815260200190815260200160002060009054906101000a900460ff16905092915050565b6112a0611466565b73ffffffffffffffffffffffffffffffffffffffff166112be610e3c565b73ffffffffffffffffffffffffffffffffffffffff1614611314576040517f08c379a000000000000000000000000000000000000000000000000000000000815260040161130b9061307a565b60405180910390fd5b600073ffffffffffffffffffffffffffffffffffffffff168173ffffffffffffffffffffffffffffffffffffffff161415611384576040517f08c379a000000000000000000000000000000000000000000000000000000000815260040161137b906135b7565b60405180910390fd5b61138d81611972565b50565b60007f01ffc9a7000000000000000000000000000000000000000000000000000000007bffffffffffffffffffffffffffffffffffffffffffffffffffffffff1916827bffffffffffffffffffffffffffffffffffffffffffffffffffffffff1916149050919050565b60008073ffffffffffffffffffffffffffffffffffffffff166003600084815260200190815260200160002060009054906101000a900473ffffffffffffffffffffffffffffffffffffffff1673ffffffffffffffffffffffffffffffffffffffff1614159050919050565b600033905090565b816005600083815260200190815260200160002060006101000a81548173ffffffffffffffffffffffffffffffffffffffff021916908373ffffffffffffffffffffffffffffffffffffffff160217905550808273ffffffffffffffffffffffffffffffffffffffff166114e183610c4a565b73ffffffffffffffffffffffffffffffffffffffff167f8c5be1e5ebec7d5bd14f71427d1e84f3dd0314c0f7b2291e5b200ac8c7c3b92560405160405180910390a45050565b6000611532826113fa565b611571576040517f08c379a000000000000000000000000000000000000000000000000000000000815260040161156890613649565b60405180910390fd5b600061157c83610c4a565b90508073ffffffffffffffffffffffffffffffffffffffff168473ffffffffffffffffffffffffffffffffffffffff1614806115eb57508373ffffffffffffffffffffffffffffffffffffffff166115d384610717565b73ffffffffffffffffffffffffffffffffffffffff16145b806115fc57506115fb8185611204565b5b91505092915050565b8273ffffffffffffffffffffffffffffffffffffffff1661162582610c4a565b73ffffffffffffffffffffffffffffffffffffffff161461167b576040517f08c379a0000000000000000000000000000000000000000000000000000000008152600401611672906136db565b60405180910390fd5b600073ffffffffffffffffffffffffffffffffffffffff168273ffffffffffffffffffffffffffffffffffffffff1614156116eb576040517f08c379a00000000000000000000000000000000000000000000000000000000081526004016116e29061376d565b60405180910390fd5b6116f6838383611e98565b61170160008261146e565b6001600460008573ffffffffffffffffffffffffffffffffffffffff1673ffffffffffffffffffffffffffffffffffffffff16815260200190815260200160002060008282546117519190612e5e565b925050819055506001600460008473ffffffffffffffffffffffffffffffffffffffff1673ffffffffffffffffffffffffffffffffffffffff16815260200190815260200160002060008282546117a8919061322a565b92505081905550816003600083815260200190815260200160002060006101000a81548173ffffffffffffffffffffffffffffffffffffffff021916908373ffffffffffffffffffffffffffffffffffffffff160217905550808273ffffffffffffffffffffffffffffffffffffffff168473ffffffffffffffffffffffffffffffffffffffff167fddf252ad1be2c89b69c2b068fc378daa952ba7f163c4a11628f55a4df523b3ef60405160405180910390a4505050565b600061186c82610c4a565b905061187a81600084611e98565b61188560008361146e565b6001600460008373ffffffffffffffffffffffffffffffffffffffff1673ffffffffffffffffffffffffffffffffffffffff16815260200190815260200160002060008282546118d59190612e5e565b925050819055506003600083815260200190815260200160002060006101000a81549073ffffffffffffffffffffffffffffffffffffffff021916905581600073ffffffffffffffffffffffffffffffffffffffff168273ffffffffffffffffffffffffffffffffffffffff167fddf252ad1be2c89b69c2b068fc378daa952ba7f163c4a11628f55a4df523b3ef60405160405180910390a45050565b60008060009054906101000a900473ffffffffffffffffffffffffffffffffffffffff169050816000806101000a81548173ffffffffffffffffffffffffffffffffffffffff021916908373ffffffffffffffffffffffffffffffffffffffff1602179055508173ffffffffffffffffffffffffffffffffffffffff168173ffffffffffffffffffffffffffffffffffffffff167f8be0079c531659141344cd1fd0a4f28419497f9722a3daafe3b4186f6b6457e060405160405180910390a35050565b60008061018f90506000611a4b601154611e9d565b905060006010548383611a5e9190613312565b611a68919061322a565b905080935050505090565b611a8d828260405180602001604052806000815250612024565b5050565b600060139050806011541015611abb576001601154611ab0919061322a565b601181905550611ad9565b60006011819055506001601054611ad2919061322a565b6010819055505b50565b8173ffffffffffffffffffffffffffffffffffffffff168373ffffffffffffffffffffffffffffffffffffffff161415611b4b576040517f08c379a0000000000000000000000000000000000000000000000000000000008152600401611b42906137d9565b60405180910390fd5b80600660008573ffffffffffffffffffffffffffffffffffffffff1673ffffffffffffffffffffffffffffffffffffffff16815260200190815260200160002060008473ffffffffffffffffffffffffffffffffffffffff1673ffffffffffffffffffffffffffffffffffffffff16815260200190815260200160002060006101000a81548160ff0219169083151502179055508173ffffffffffffffffffffffffffffffffffffffff168373ffffffffffffffffffffffffffffffffffffffff167f17307eab39ab6107e8899845ad3d59bd9653f200f220920489ca2b5937696c3183604051611c3c919061253f565b60405180910390a3505050565b611c54848484611605565b611c608484848461207f565b611c9f576040517f08c379a0000000000000000000000000000000000000000000000000000000008152600401611c969061386b565b60405180910390fd5b50505050565b606060078054611cb490612c47565b80601f0160208091040260200160405190810160405280929190818152602001828054611ce090612c47565b8015611d2d5780601f10611d0257610100808354040283529160200191611d2d565b820191906000526020600020905b815481529060010190602001808311611d1057829003601f168201915b5050505050905090565b60606000821415611d7f576040518060400160405280600181526020017f30000000000000000000000000000000000000000000000000000000000000008152509050611e93565b600082905060005b60008214611db1578080611d9a90612f53565b915050600a82611daa91906138ba565b9150611d87565b60008167ffffffffffffffff811115611dcd57611dcc6128d4565b5b6040519080825280601f01601f191660200182016040528015611dff5781602001600182028036833780820191505090505b5090505b60008514611e8c57600182611e189190612e5e565b9150600a85611e2791906138eb565b6030611e33919061322a565b60f81b818381518110611e4957611e48612f24565b5b60200101907effffffffffffffffffffffffffffffffffffffffffffffffffffffffffffff1916908160001a905350600a85611e8591906138ba565b9450611e03565b8093505050505b919050565b505050565b600080600090506000831415611eb6576003905061201b565b6001831415611ec8576011905061201a565b6002831415611eda57600a9050612019565b6003831415611eec57600d9050612018565b6004831415611efe5760129050612017565b6005831415611f105760009050612016565b6006831415611f225760049050612015565b6007831415611f345760019050612014565b6008831415611f465760069050612013565b6009831415611f585760139050612012565b600a831415611f6a5760089050612011565b600b831415611f7c57600c9050612010565b600c831415611f8e576002905061200f565b600d831415611fa057600e905061200e565b600e831415611fb257600b905061200d565b600f831415611fc4576007905061200c565b6010831415611fd657600f905061200b565b6011831415611fe8576009905061200a565b6012831415611ffa5760059050612009565b601383141561200857601090505b5b5b5b5b5b5b5b5b5b5b5b5b5b5b5b5b5b5b5b80915050919050565b61202e8383612207565b61203b600084848461207f565b61207a576040517f08c379a00000000000000000000000000000000000000000000000000000000081526004016120719061386b565b60405180910390fd5b505050565b60006120a08473ffffffffffffffffffffffffffffffffffffffff166123d5565b156121fa578373ffffffffffffffffffffffffffffffffffffffff1663150b7a026120c9611466565b8786866040518563ffffffff1660e01b81526004016120eb9493929190613971565b6020604051808303816000875af192505050801561212757506040513d601f19601f8201168201806040525081019061212491906139d2565b60015b6121aa573d8060008114612157576040519150601f19603f3d011682016040523d82523d6000602084013e61215c565b606091505b506000815114156121a2576040517f08c379a00000000000000000000000000000000000000000000000000000000081526004016121999061386b565b60405180910390fd5b805181602001fd5b63150b7a0260e01b7bffffffffffffffffffffffffffffffffffffffffffffffffffffffff1916817bffffffffffffffffffffffffffffffffffffffffffffffffffffffff1916149150506121ff565b600190505b949350505050565b600073ffffffffffffffffffffffffffffffffffffffff168273ffffffffffffffffffffffffffffffffffffffff161415612277576040517f08c379a000000000000000000000000000000000000000000000000000000000815260040161226e90613a4b565b60405180910390fd5b612280816113fa565b156122c0576040517f08c379a00000000000000000000000000000000000000000000000000000000081526004016122b790613ab7565b60405180910390fd5b6122cc60008383611e98565b6001600460008473ffffffffffffffffffffffffffffffffffffffff1673ffffffffffffffffffffffffffffffffffffffff168152602001908152602001600020600082825461231c919061322a565b92505081905550816003600083815260200190815260200160002060006101000a81548173ffffffffffffffffffffffffffffffffffffffff021916908373ffffffffffffffffffffffffffffffffffffffff160217905550808273ffffffffffffffffffffffffffffffffffffffff16600073ffffffffffffffffffffffffffffffffffffffff167fddf252ad1be2c89b69c2b068fc378daa952ba7f163c4a11628f55a4df523b3ef60405160405180910390a45050565b600080823b905060008111915050919050565b8280546123f490612c47565b90600052602060002090601f016020900481019282612416576000855561245d565b82601f1061242f57805160ff191683800117855561245d565b8280016001018555821561245d579182015b8281111561245c578251825591602001919060010190612441565b5b50905061246a919061246e565b5090565b5b8082111561248757600081600090555060010161246f565b5090565b6000604051905090565b600080fd5b600080fd5b60007fffffffff0000000000000000000000000000000000000000000000000000000082169050919050565b6124d48161249f565b81146124df57600080fd5b50565b6000813590506124f1816124cb565b92915050565b60006020828403121561250d5761250c612495565b5b600061251b848285016124e2565b91505092915050565b60008115159050919050565b61253981612524565b82525050565b60006020820190506125546000830184612530565b92915050565b600081519050919050565b600082825260208201905092915050565b60005b83811015612594578082015181840152602081019050612579565b838111156125a3576000848401525b50505050565b6000601f19601f8301169050919050565b60006125c58261255a565b6125cf8185612565565b93506125df818560208601612576565b6125e8816125a9565b840191505092915050565b6000602082019050818103600083015261260d81846125ba565b905092915050565b6000819050919050565b61262881612615565b811461263357600080fd5b50565b6000813590506126458161261f565b92915050565b60006020828403121561266157612660612495565b5b600061266f84828501612636565b91505092915050565b600073ffffffffffffffffffffffffffffffffffffffff82169050919050565b60006126a382612678565b9050919050565b6126b381612698565b82525050565b60006020820190506126ce60008301846126aa565b92915050565b6126dd81612698565b81146126e857600080fd5b50565b6000813590506126fa816126d4565b92915050565b6000806040838503121561271757612716612495565b5b6000612725858286016126eb565b925050602061273685828601612636565b9150509250929050565b61274981612615565b82525050565b60006020820190506127646000830184612740565b92915050565b60008060006060848603121561278357612782612495565b5b6000612791868287016126eb565b93505060206127a2868287016126eb565b92505060406127b386828701612636565b9150509250925092565b6000602082840312156127d3576127d2612495565b5b60006127e1848285016126eb565b91505092915050565b600081519050919050565b600082825260208201905092915050565b6000819050602082019050919050565b61281f81612524565b82525050565b60006128318383612816565b60208301905092915050565b6000602082019050919050565b6000612855826127ea565b61285f81856127f5565b935061286a83612806565b8060005b8381101561289b5781516128828882612825565b975061288d8361283d565b92505060018101905061286e565b5085935050505092915050565b600060208201905081810360008301526128c2818461284a565b905092915050565b600080fd5b600080fd5b7f4e487b7100000000000000000000000000000000000000000000000000000000600052604160045260246000fd5b61290c826125a9565b810181811067ffffffffffffffff8211171561292b5761292a6128d4565b5b80604052505050565b600061293e61248b565b905061294a8282612903565b919050565b600067ffffffffffffffff82111561296a576129696128d4565b5b612973826125a9565b9050602081019050919050565b82818337600083830152505050565b60006129a261299d8461294f565b612934565b9050828152602081018484840111156129be576129bd6128cf565b5b6129c9848285612980565b509392505050565b600082601f8301126129e6576129e56128ca565b5b81356129f684826020860161298f565b91505092915050565b600060208284031215612a1557612a14612495565b5b600082013567ffffffffffffffff811115612a3357612a3261249a565b5b612a3f848285016129d1565b91505092915050565b612a5181612524565b8114612a5c57600080fd5b50565b600081359050612a6e81612a48565b92915050565b60008060408385031215612a8b57612a8a612495565b5b6000612a99858286016126eb565b9250506020612aaa85828601612a5f565b9150509250929050565b600067ffffffffffffffff821115612acf57612ace6128d4565b5b612ad8826125a9565b9050602081019050919050565b6000612af8612af384612ab4565b612934565b905082815260208101848484011115612b1457612b136128cf565b5b612b1f848285612980565b509392505050565b600082601f830112612b3c57612b3b6128ca565b5b8135612b4c848260208601612ae5565b91505092915050565b60008060008060808587031215612b6f57612b6e612495565b5b6000612b7d878288016126eb565b9450506020612b8e878288016126eb565b9350506040612b9f87828801612636565b925050606085013567ffffffffffffffff811115612bc057612bbf61249a565b5b612bcc87828801612b27565b91505092959194509250565b60008060408385031215612bef57612bee612495565b5b6000612bfd858286016126eb565b9250506020612c0e858286016126eb565b9150509250929050565b7f4e487b7100000000000000000000000000000000000000000000000000000000600052602260045260246000fd5b60006002820490506001821680612c5f57607f821691505b60208210811415612c7357612c72612c18565b5b50919050565b7f4552433732313a20617070726f76656420717565727920666f72206e6f6e657860008201527f697374656e7420746f6b656e0000000000000000000000000000000000000000602082015250565b6000612cd5602c83612565565b9150612ce082612c79565b604082019050919050565b60006020820190508181036000830152612d0481612cc8565b9050919050565b7f4552433732313a20617070726f76616c20746f2063757272656e74206f776e6560008201527f7200000000000000000000000000000000000000000000000000000000000000602082015250565b6000612d67602183612565565b9150612d7282612d0b565b604082019050919050565b60006020820190508181036000830152612d9681612d5a565b9050919050565b7f4552433732313a20617070726f76652063616c6c6572206973206e6f74206f7760008201527f6e6572206e6f7220617070726f76656420666f7220616c6c0000000000000000602082015250565b6000612df9603883612565565b9150612e0482612d9d565b604082019050919050565b60006020820190508181036000830152612e2881612dec565b9050919050565b7f4e487b7100000000000000000000000000000000000000000000000000000000600052601160045260246000fd5b6000612e6982612615565b9150612e7483612615565b925082821015612e8757612e86612e2f565b5b828203905092915050565b7f4552433732313a207472616e736665722063616c6c6572206973206e6f74206f60008201527f776e6572206e6f7220617070726f766564000000000000000000000000000000602082015250565b6000612eee603183612565565b9150612ef982612e92565b604082019050919050565b60006020820190508181036000830152612f1d81612ee1565b9050919050565b7f4e487b7100000000000000000000000000000000000000000000000000000000600052603260045260246000fd5b6000612f5e82612615565b91507fffffffffffffffffffffffffffffffffffffffffffffffffffffffffffffffff821415612f9157612f90612e2f565b5b600182019050919050565b7f4552433732314275726e61626c653a2063616c6c6572206973206e6f74206f7760008201527f6e6572206e6f7220617070726f76656400000000000000000000000000000000602082015250565b6000612ff8603083612565565b915061300382612f9c565b604082019050919050565b6000602082019050818103600083015261302781612feb565b9050919050565b7f4f776e61626c653a2063616c6c6572206973206e6f7420746865206f776e6572600082015250565b6000613064602083612565565b915061306f8261302e565b602082019050919050565b6000602082019050818103600083015261309381613057565b9050919050565b7f4552433732313a206f776e657220717565727920666f72206e6f6e657869737460008201527f656e7420746f6b656e0000000000000000000000000000000000000000000000602082015250565b60006130f6602983612565565b91506131018261309a565b604082019050919050565b60006020820190508181036000830152613125816130e9565b9050919050565b7f4552433732313a2062616c616e636520717565727920666f7220746865207a6560008201527f726f206164647265737300000000000000000000000000000000000000000000602082015250565b6000613188602a83612565565b91506131938261312c565b604082019050919050565b600060208201905081810360008301526131b78161317b565b9050919050565b7f6d696e7420616d6f756e742063616e6e6f742062652030000000000000000000600082015250565b60006131f4601783612565565b91506131ff826131be565b602082019050919050565b60006020820190508181036000830152613223816131e7565b9050919050565b600061323582612615565b915061324083612615565b9250827fffffffffffffffffffffffffffffffffffffffffffffffffffffffffffffffff0382111561327557613274612e2f565b5b828201905092915050565b7f6d696e74696e672077696c6c20676f206f76657220746f74616c20737570706c60008201527f79206f662037393830206c616d70730000000000000000000000000000000000602082015250565b60006132dc602f83612565565b91506132e782613280565b604082019050919050565b6000602082019050818103600083015261330b816132cf565b9050919050565b600061331d82612615565b915061332883612615565b9250817fffffffffffffffffffffffffffffffffffffffffffffffffffffffffffffffff048311821515161561336157613360612e2f565b5b828202905092915050565b600081905092915050565b50565b600061338760008361336c565b915061339282613377565b600082019050919050565b60006133a88261337a565b9150819050919050565b7f4552433732314d657461646174613a2055524920717565727920666f72206e6f60008201527f6e6578697374656e7420746f6b656e0000000000000000000000000000000000602082015250565b600061340e602f83612565565b9150613419826133b2565b604082019050919050565b6000602082019050818103600083015261343d81613401565b9050919050565b600081905092915050565b600061345a8261255a565b6134648185613444565b9350613474818560208601612576565b80840191505092915050565b60008190508160005260206000209050919050565b600081546134a281612c47565b6134ac8186613444565b945060018216600081146134c757600181146134d85761350b565b60ff1983168652818601935061350b565b6134e185613480565b60005b83811015613503578154818901526001820191506020810190506134e4565b838801955050505b50505092915050565b6000613520828661344f565b915061352c828561344f565b91506135388284613495565b9150819050949350505050565b7f4f776e61626c653a206e6577206f776e657220697320746865207a65726f206160008201527f6464726573730000000000000000000000000000000000000000000000000000602082015250565b60006135a1602683612565565b91506135ac82613545565b604082019050919050565b600060208201905081810360008301526135d081613594565b9050919050565b7f4552433732313a206f70657261746f7220717565727920666f72206e6f6e657860008201527f697374656e7420746f6b656e0000000000000000000000000000000000000000602082015250565b6000613633602c83612565565b915061363e826135d7565b604082019050919050565b6000602082019050818103600083015261366281613626565b9050919050565b7f4552433732313a207472616e73666572206f6620746f6b656e2074686174206960008201527f73206e6f74206f776e0000000000000000000000000000000000000000000000602082015250565b60006136c5602983612565565b91506136d082613669565b604082019050919050565b600060208201905081810360008301526136f4816136b8565b9050919050565b7f4552433732313a207472616e7366657220746f20746865207a65726f2061646460008201527f7265737300000000000000000000000000000000000000000000000000000000602082015250565b6000613757602483612565565b9150613762826136fb565b604082019050919050565b600060208201905081810360008301526137868161374a565b9050919050565b7f4552433732313a20617070726f766520746f2063616c6c657200000000000000600082015250565b60006137c3601983612565565b91506137ce8261378d565b602082019050919050565b600060208201905081810360008301526137f2816137b6565b9050919050565b7f4552433732313a207472616e7366657220746f206e6f6e20455243373231526560008201527f63656976657220696d706c656d656e7465720000000000000000000000000000602082015250565b6000613855603283612565565b9150613860826137f9565b604082019050919050565b6000602082019050818103600083015261388481613848565b9050919050565b7f4e487b7100000000000000000000000000000000000000000000000000000000600052601260045260246000fd5b60006138c582612615565b91506138d083612615565b9250826138e0576138df61388b565b5b828204905092915050565b60006138f682612615565b915061390183612615565b9250826139115761391061388b565b5b828206905092915050565b600081519050919050565b600082825260208201905092915050565b60006139438261391c565b61394d8185613927565b935061395d818560208601612576565b613966816125a9565b840191505092915050565b600060808201905061398660008301876126aa565b61399360208301866126aa565b6139a06040830185612740565b81810360608301526139b28184613938565b905095945050505050565b6000815190506139cc816124cb565b92915050565b6000602082840312156139e8576139e7612495565b5b60006139f6848285016139bd565b91505092915050565b7f4552433732313a206d696e7420746f20746865207a65726f2061646472657373600082015250565b6000613a35602083612565565b9150613a40826139ff565b602082019050919050565b60006020820190508181036000830152613a6481613a28565b9050919050565b7f4552433732313a20746f6b656e20616c7265616479206d696e74656400000000600082015250565b6000613aa1601c83612565565b9150613aac82613a6b565b602082019050919050565b60006020820190508181036000830152613ad081613a94565b905091905056fea264697066735822122025f410278b08ae8e67c4dff64ec754af77a66794ae4e29bee4667150576a94ab64736f6c634300080b0033687474703a2f2f7777772e7375706572646f7276696c2e746563682f746f6b656e2f",
  "immutableReferences": {},
  "source": "// SPDX-License-Identifier: MIT\npragma solidity >=0.4.22 <0.9.0;\n\nimport \"@openzeppelin/contracts/access/Ownable.sol\";\nimport \"@openzeppelin/contracts/token/ERC721/ERC721.sol\";\n\ncontract LavaLamp is Ownable, ERC721 {\n    using Strings for uint256;\n    string private currentBaseURI;\n    string public provenance;\n    string private fileExtension;\n\n    uint256 private cost = 0.03 ether;\n    uint256 private maxSupply = 7980;\n    uint256 private maxMintAmount = 20;\n    address private lavaLampsEth = 0x4024b17b6fD2AC7a83bfE0c71970D23eE335BC40;\n\n    uint256 public burnCount = 0;\n    uint256 public lampsMinted = 0;\n\n    // used to semi-randomize the id's that are minted\n    uint256 lampCount = 0;\n    uint256 currentLampSet = 0;\n\n    constructor(string memory _provenance) ERC721(\"LavaLamp\", \"LAVALAMP\") {\n        provenance = _provenance;\n        setBaseURI(\"http://www.superdorvil.tech/token/\");\n//        setBaseURI(\"https://www.lavalamps.io/token/\");\n        fileExtension = '';\n    }\n\n    function setBaseURI(string memory baseURI) public onlyOwner {\n        // ipfs://{cid}/\n        currentBaseURI = baseURI;\n        fileExtension = '.json';\n    }\n\n    function _baseURI() internal view virtual override returns (string memory) {\n        return currentBaseURI;\n    }\n\n    function tokenURI(uint256 tokenId) public view virtual override returns (string memory) {\n        require(_exists(tokenId), \"ERC721Metadata: URI query for nonexistent token\");\n\n        string memory curBaseURI = _baseURI();\n\n        return bytes(curBaseURI).length > 0\n            ? string(abi.encodePacked(curBaseURI, tokenId.toString(), fileExtension))\n            : \"\";\n    }\n\n    function mint(uint256 mintAmount) public payable {\n        require(mintAmount > 0, 'mint amount cannot be 0');\n        //require(mintAmount <= maxMintAmount, 'mint amount cannot be greater than 20');\n        require(lampsMinted + mintAmount <= maxSupply, 'minting will go over total supply of 7980 lamps');\n        uint256 price = cost * mintAmount;\n\n        if (msg.sender != owner())\n            require(msg.value >= price);\n\n        for (uint256 i = 1; i <= mintAmount; i++) {\n            uint256 tokenId = getId();\n            _safeMint(msg.sender, tokenId);\n            incrementId();\n            lampsMinted++;\n        }\n\n        (bool success, ) = payable(lavaLampsEth).call{value: address(this).balance}(\"\");\n        require(success);\n    }\n\n    function getId() internal view returns(uint256) {\n        uint256 lampSetSize = 399;\n        uint256 randomLampBlock = randomizeLampBlock(currentLampSet);\n        uint256 id = randomLampBlock * lampSetSize + lampCount;\n\n        return id;\n    }\n\n    function incrementId() internal {\n        uint256 numOfLampBlocks = 19;\n\n        if (currentLampSet < numOfLampBlocks) {\n            currentLampSet = currentLampSet + 1;\n        } else {\n            currentLampSet = 0;\n            lampCount = lampCount + 1;\n        }\n    }\n\n    // Block has nothing to do with blockchain\n    // I just make groups of numbers and shuffle the order of ids minted\n    // If someone mints 20 lamps, they dont get 1-20\n    // Its not technically random, an actual random solution would be expensive\n    function randomizeLampBlock(uint256 lampBlock) internal pure returns(uint256) {\n        uint256 randomLampBlock = 0;\n\n        if (lampBlock == 0)\n            randomLampBlock = 3;\n        else if (lampBlock == 1)\n            randomLampBlock = 17;\n        else if (lampBlock == 2)\n            randomLampBlock = 10;\n        else if (lampBlock == 3)\n            randomLampBlock = 13;\n        else if (lampBlock == 4)\n            randomLampBlock = 18;\n        else if (lampBlock == 5)\n            randomLampBlock = 0;\n        else if (lampBlock == 6)\n            randomLampBlock = 4;\n        else if (lampBlock == 7)\n            randomLampBlock = 1;\n        else if (lampBlock == 8)\n            randomLampBlock = 6;\n        else if (lampBlock == 9)\n            randomLampBlock = 19;\n        else if (lampBlock == 10)\n            randomLampBlock = 8;\n        else if (lampBlock == 11)\n            randomLampBlock = 12;\n        else if (lampBlock == 12)\n            randomLampBlock = 2;\n        else if (lampBlock == 13)\n            randomLampBlock = 14;\n        else if (lampBlock == 14)\n            randomLampBlock = 11;\n        else if (lampBlock == 15)\n            randomLampBlock = 7;\n        else if (lampBlock == 16)\n            randomLampBlock = 15;\n        else if (lampBlock == 17)\n            randomLampBlock = 9;\n        else if (lampBlock == 18)\n            randomLampBlock = 5;\n        else if (lampBlock == 19)\n            randomLampBlock = 16;\n\n        return randomLampBlock;\n    }\n\n    // allows the user to burn their lamps and there is a count of burned lamps\n    function burn(uint256 tokenId) public {\n        //solhint-disable-next-line max-line-length\n        require(_isApprovedOrOwner(_msgSender(), tokenId), \"ERC721Burnable: caller is not owner nor approved\");\n        _burn(tokenId);\n        burnCount++;\n    }\n\n    function totalSupply() external view returns (uint256) {\n        return lampsMinted - burnCount;\n    }\n\n    // returns a boolean array of all all possible lamps\n    // every index that is true is a tokenID that is owned by the account\n    function getTokensOwnedBy(address owner) external view returns (bool[] memory) {\n        bool[] memory tokenIds = new bool[](maxSupply);\n\n        for (uint256 i = 0; i < maxSupply; i++) {\n            tokenIds[i] = false; // don't need this, defaults to bool\n\n            if (_exists(i)) {\n                if (ownerOf(i) == owner) {\n                    tokenIds[i] = true;\n                }\n            }\n        }\n\n        return tokenIds;\n    }\n}\n",
  "sourcePath": "/Users/superdorvil/workspace/ReactWorkspace/PersonalProjects/lava-lamp-nft/contracts/LavaLamp.sol",
  "compiler": {
    "name": "solc",
    "version": "0.8.11+commit.d7f03943.Emscripten.clang"
  },
  "schemaVersion": "3.4.3",
  "updatedAt": "2022-02-01T11:10:11.061Z",
  "networkType": "ethereum",
  "devdoc": {
    "kind": "dev",
    "methods": {
      "approve(address,uint256)": {
        "details": "See {IERC721-approve}."
      },
      "balanceOf(address)": {
        "details": "See {IERC721-balanceOf}."
      },
      "getApproved(uint256)": {
        "details": "See {IERC721-getApproved}."
      },
      "isApprovedForAll(address,address)": {
        "details": "See {IERC721-isApprovedForAll}."
      },
      "name()": {
        "details": "See {IERC721Metadata-name}."
      },
      "owner()": {
        "details": "Returns the address of the current owner."
      },
      "ownerOf(uint256)": {
        "details": "See {IERC721-ownerOf}."
      },
      "renounceOwnership()": {
        "details": "Leaves the contract without owner. It will not be possible to call `onlyOwner` functions anymore. Can only be called by the current owner. NOTE: Renouncing ownership will leave the contract without an owner, thereby removing any functionality that is only available to the owner."
      },
      "safeTransferFrom(address,address,uint256)": {
        "details": "See {IERC721-safeTransferFrom}."
      },
      "safeTransferFrom(address,address,uint256,bytes)": {
        "details": "See {IERC721-safeTransferFrom}."
      },
      "setApprovalForAll(address,bool)": {
        "details": "See {IERC721-setApprovalForAll}."
      },
      "supportsInterface(bytes4)": {
        "details": "See {IERC165-supportsInterface}."
      },
      "symbol()": {
        "details": "See {IERC721Metadata-symbol}."
      },
      "tokenURI(uint256)": {
        "details": "See {IERC721Metadata-tokenURI}."
      },
      "transferFrom(address,address,uint256)": {
        "details": "See {IERC721-transferFrom}."
      },
      "transferOwnership(address)": {
        "details": "Transfers ownership of the contract to a new account (`newOwner`). Can only be called by the current owner."
      }
    },
    "version": 1
  },
  "userdoc": {
    "kind": "user",
    "methods": {},
    "version": 1
  }
}